{
	"Launchpad v2.0/Ownable.sol": {
		"Ownable": {
			"abi": [
				{
					"inputs": [],
					"stateMutability": "nonpayable",
					"type": "constructor"
				},
				{
					"anonymous": false,
					"inputs": [
						{
							"indexed": true,
							"internalType": "address",
							"name": "previousOwner",
							"type": "address"
						},
						{
							"indexed": true,
							"internalType": "address",
							"name": "newOwner",
							"type": "address"
						}
					],
					"name": "OwnershipTransferred",
					"type": "event"
				},
				{
					"inputs": [],
					"name": "owner",
					"outputs": [
						{
							"internalType": "address",
							"name": "",
							"type": "address"
						}
					],
					"stateMutability": "view",
					"type": "function"
				},
				{
					"inputs": [],
					"name": "renounceOwnership",
					"outputs": [],
					"stateMutability": "nonpayable",
					"type": "function"
				},
				{
					"inputs": [
						{
							"internalType": "address",
							"name": "newOwner",
							"type": "address"
						}
					],
					"name": "transferOwnership",
					"outputs": [],
					"stateMutability": "nonpayable",
					"type": "function"
				}
			],
			"devdoc": {
				"details": "Contract module which provides a basic access control mechanism, where there is an account (an owner) that can be granted exclusive access to specific functions. By default, the owner account will be the one that deploys the contract. This can later be changed with {transferOwnership}. This module is used through inheritance. It will make available the modifier `onlyOwner`, which can be applied to your functions to restrict their use to the owner.",
				"kind": "dev",
				"methods": {
					"constructor": {
						"details": "Initializes the contract setting the deployer as the initial owner."
					},
					"owner()": {
						"details": "Returns the address of the current owner."
					},
					"renounceOwnership()": {
						"details": "Leaves the contract without owner. It will not be possible to call `onlyOwner` functions anymore. Can only be called by the current owner. NOTE: Renouncing ownership will leave the contract without an owner, thereby removing any functionality that is only available to the owner."
					},
					"transferOwnership(address)": {
						"details": "Transfers ownership of the contract to a new account (`newOwner`). Can only be called by the current owner."
					}
				},
				"version": 1
			},
			"evm": {
				"assembly": "    /* \"Launchpad v2.0/Ownable.sol\":601:2220  contract Ownable is Context {... */\n  mstore(0x40, 0x80)\n    /* \"Launchpad v2.0/Ownable.sol\":850:904  constructor() {... */\n  callvalue\n  dup1\n  iszero\n  tag_1\n  jumpi\n  0x00\n  dup1\n  revert\ntag_1:\n  pop\n    /* \"Launchpad v2.0/Ownable.sol\":874:897  _setOwner(_msgSender()) */\n  tag_4\n    /* \"Launchpad v2.0/Ownable.sol\":884:896  _msgSender() */\n  tag_5\n    /* \"Launchpad v2.0/Ownable.sol\":884:894  _msgSender */\n  shl(0x20, tag_6)\n    /* \"Launchpad v2.0/Ownable.sol\":884:896  _msgSender() */\n  0x20\n  shr\n  jump\t// in\ntag_5:\n    /* \"Launchpad v2.0/Ownable.sol\":874:883  _setOwner */\n  shl(0x20, tag_7)\n    /* \"Launchpad v2.0/Ownable.sol\":874:897  _setOwner(_msgSender()) */\n  0x20\n  shr\n  jump\t// in\ntag_4:\n    /* \"Launchpad v2.0/Ownable.sol\":601:2220  contract Ownable is Context {... */\n  jump(tag_8)\n    /* \"Launchpad v2.0/Context.sol\":600:696  function _msgSender() internal view virtual returns (address) {... */\ntag_6:\n    /* \"Launchpad v2.0/Context.sol\":653:660  address */\n  0x00\n    /* \"Launchpad v2.0/Context.sol\":679:689  msg.sender */\n  caller\n    /* \"Launchpad v2.0/Context.sol\":672:689  return msg.sender */\n  swap1\n  pop\n    /* \"Launchpad v2.0/Context.sol\":600:696  function _msgSender() internal view virtual returns (address) {... */\n  swap1\n  jump\t// out\n    /* \"Launchpad v2.0/Ownable.sol\":2048:2218  function _setOwner(address newOwner) internal {... */\ntag_7:\n    /* \"Launchpad v2.0/Ownable.sol\":2104:2120  address oldOwner */\n  0x00\n    /* \"Launchpad v2.0/Ownable.sol\":2123:2129  _owner */\n  dup1\n  0x00\n  swap1\n  sload\n  swap1\n  0x0100\n  exp\n  swap1\n  div\n  0xffffffffffffffffffffffffffffffffffffffff\n  and\n    /* \"Launchpad v2.0/Ownable.sol\":2104:2129  address oldOwner = _owner */\n  swap1\n  pop\n    /* \"Launchpad v2.0/Ownable.sol\":2148:2156  newOwner */\n  dup2\n    /* \"Launchpad v2.0/Ownable.sol\":2139:2145  _owner */\n  0x00\n  dup1\n    /* \"Launchpad v2.0/Ownable.sol\":2139:2156  _owner = newOwner */\n  0x0100\n  exp\n  dup2\n  sload\n  dup2\n  0xffffffffffffffffffffffffffffffffffffffff\n  mul\n  not\n  and\n  swap1\n  dup4\n  0xffffffffffffffffffffffffffffffffffffffff\n  and\n  mul\n  or\n  swap1\n  sstore\n  pop\n    /* \"Launchpad v2.0/Ownable.sol\":2202:2210  newOwner */\n  dup2\n    /* \"Launchpad v2.0/Ownable.sol\":2171:2211  OwnershipTransferred(oldOwner, newOwner) */\n  0xffffffffffffffffffffffffffffffffffffffff\n  and\n    /* \"Launchpad v2.0/Ownable.sol\":2192:2200  oldOwner */\n  dup2\n    /* \"Launchpad v2.0/Ownable.sol\":2171:2211  OwnershipTransferred(oldOwner, newOwner) */\n  0xffffffffffffffffffffffffffffffffffffffff\n  and\n  0x8be0079c531659141344cd1fd0a4f28419497f9722a3daafe3b4186f6b6457e0\n  mload(0x40)\n  mload(0x40)\n  dup1\n  swap2\n  sub\n  swap1\n  log3\n    /* \"Launchpad v2.0/Ownable.sol\":2094:2218  {... */\n  pop\n    /* \"Launchpad v2.0/Ownable.sol\":2048:2218  function _setOwner(address newOwner) internal {... */\n  pop\n  jump\t// out\n    /* \"Launchpad v2.0/Ownable.sol\":601:2220  contract Ownable is Context {... */\ntag_8:\n  dataSize(sub_0)\n  dup1\n  dataOffset(sub_0)\n  0x00\n  codecopy\n  0x00\n  return\nstop\n\nsub_0: assembly {\n        /* \"Launchpad v2.0/Ownable.sol\":601:2220  contract Ownable is Context {... */\n      mstore(0x40, 0x80)\n      callvalue\n      dup1\n      iszero\n      tag_1\n      jumpi\n      0x00\n      dup1\n      revert\n    tag_1:\n      pop\n      jumpi(tag_2, lt(calldatasize, 0x04))\n      shr(0xe0, calldataload(0x00))\n      dup1\n      0x715018a6\n      eq\n      tag_3\n      jumpi\n      dup1\n      0x8da5cb5b\n      eq\n      tag_4\n      jumpi\n      dup1\n      0xf2fde38b\n      eq\n      tag_5\n      jumpi\n    tag_2:\n      0x00\n      dup1\n      revert\n        /* \"Launchpad v2.0/Ownable.sol\":1612:1704  function renounceOwnership() public virtual onlyOwner {... */\n    tag_3:\n      tag_6\n      tag_7\n      jump\t// in\n    tag_6:\n      stop\n        /* \"Launchpad v2.0/Ownable.sol\":980:1065  function owner() public view virtual returns (address) {... */\n    tag_4:\n      tag_8\n      tag_9\n      jump\t// in\n    tag_8:\n      mload(0x40)\n      tag_10\n      swap2\n      swap1\n      tag_11\n      jump\t// in\n    tag_10:\n      mload(0x40)\n      dup1\n      swap2\n      sub\n      swap1\n      return\n        /* \"Launchpad v2.0/Ownable.sol\":1853:2042  function transferOwnership(address newOwner) public virtual onlyOwner {... */\n    tag_5:\n      tag_12\n      0x04\n      dup1\n      calldatasize\n      sub\n      dup2\n      add\n      swap1\n      tag_13\n      swap2\n      swap1\n      tag_14\n      jump\t// in\n    tag_13:\n      tag_15\n      jump\t// in\n    tag_12:\n      stop\n        /* \"Launchpad v2.0/Ownable.sol\":1612:1704  function renounceOwnership() public virtual onlyOwner {... */\n    tag_7:\n        /* \"Launchpad v2.0/Ownable.sol\":1203:1215  _msgSender() */\n      tag_17\n        /* \"Launchpad v2.0/Ownable.sol\":1203:1213  _msgSender */\n      tag_18\n        /* \"Launchpad v2.0/Ownable.sol\":1203:1215  _msgSender() */\n      jump\t// in\n    tag_17:\n        /* \"Launchpad v2.0/Ownable.sol\":1192:1215  owner() == _msgSender() */\n      0xffffffffffffffffffffffffffffffffffffffff\n      and\n        /* \"Launchpad v2.0/Ownable.sol\":1192:1199  owner() */\n      tag_19\n        /* \"Launchpad v2.0/Ownable.sol\":1192:1197  owner */\n      tag_9\n        /* \"Launchpad v2.0/Ownable.sol\":1192:1199  owner() */\n      jump\t// in\n    tag_19:\n        /* \"Launchpad v2.0/Ownable.sol\":1192:1215  owner() == _msgSender() */\n      0xffffffffffffffffffffffffffffffffffffffff\n      and\n      eq\n        /* \"Launchpad v2.0/Ownable.sol\":1184:1252  require(owner() == _msgSender(), \"Ownable: caller is not the owner\") */\n      tag_20\n      jumpi\n      mload(0x40)\n      0x08c379a000000000000000000000000000000000000000000000000000000000\n      dup2\n      mstore\n      0x04\n      add\n      tag_21\n      swap1\n      tag_22\n      jump\t// in\n    tag_21:\n      mload(0x40)\n      dup1\n      swap2\n      sub\n      swap1\n      revert\n    tag_20:\n        /* \"Launchpad v2.0/Ownable.sol\":1676:1697  _setOwner(address(0)) */\n      tag_24\n        /* \"Launchpad v2.0/Ownable.sol\":1694:1695  0 */\n      0x00\n        /* \"Launchpad v2.0/Ownable.sol\":1676:1685  _setOwner */\n      tag_25\n        /* \"Launchpad v2.0/Ownable.sol\":1676:1697  _setOwner(address(0)) */\n      jump\t// in\n    tag_24:\n        /* \"Launchpad v2.0/Ownable.sol\":1612:1704  function renounceOwnership() public virtual onlyOwner {... */\n      jump\t// out\n        /* \"Launchpad v2.0/Ownable.sol\":980:1065  function owner() public view virtual returns (address) {... */\n    tag_9:\n        /* \"Launchpad v2.0/Ownable.sol\":1026:1033  address */\n      0x00\n        /* \"Launchpad v2.0/Ownable.sol\":1052:1058  _owner */\n      dup1\n      0x00\n      swap1\n      sload\n      swap1\n      0x0100\n      exp\n      swap1\n      div\n      0xffffffffffffffffffffffffffffffffffffffff\n      and\n        /* \"Launchpad v2.0/Ownable.sol\":1045:1058  return _owner */\n      swap1\n      pop\n        /* \"Launchpad v2.0/Ownable.sol\":980:1065  function owner() public view virtual returns (address) {... */\n      swap1\n      jump\t// out\n        /* \"Launchpad v2.0/Ownable.sol\":1853:2042  function transferOwnership(address newOwner) public virtual onlyOwner {... */\n    tag_15:\n        /* \"Launchpad v2.0/Ownable.sol\":1203:1215  _msgSender() */\n      tag_28\n        /* \"Launchpad v2.0/Ownable.sol\":1203:1213  _msgSender */\n      tag_18\n        /* \"Launchpad v2.0/Ownable.sol\":1203:1215  _msgSender() */\n      jump\t// in\n    tag_28:\n        /* \"Launchpad v2.0/Ownable.sol\":1192:1215  owner() == _msgSender() */\n      0xffffffffffffffffffffffffffffffffffffffff\n      and\n        /* \"Launchpad v2.0/Ownable.sol\":1192:1199  owner() */\n      tag_29\n        /* \"Launchpad v2.0/Ownable.sol\":1192:1197  owner */\n      tag_9\n        /* \"Launchpad v2.0/Ownable.sol\":1192:1199  owner() */\n      jump\t// in\n    tag_29:\n        /* \"Launchpad v2.0/Ownable.sol\":1192:1215  owner() == _msgSender() */\n      0xffffffffffffffffffffffffffffffffffffffff\n      and\n      eq\n        /* \"Launchpad v2.0/Ownable.sol\":1184:1252  require(owner() == _msgSender(), \"Ownable: caller is not the owner\") */\n      tag_30\n      jumpi\n      mload(0x40)\n      0x08c379a000000000000000000000000000000000000000000000000000000000\n      dup2\n      mstore\n      0x04\n      add\n      tag_31\n      swap1\n      tag_22\n      jump\t// in\n    tag_31:\n      mload(0x40)\n      dup1\n      swap2\n      sub\n      swap1\n      revert\n    tag_30:\n        /* \"Launchpad v2.0/Ownable.sol\":1961:1962  0 */\n      0x00\n        /* \"Launchpad v2.0/Ownable.sol\":1941:1963  newOwner != address(0) */\n      0xffffffffffffffffffffffffffffffffffffffff\n      and\n        /* \"Launchpad v2.0/Ownable.sol\":1941:1949  newOwner */\n      dup2\n        /* \"Launchpad v2.0/Ownable.sol\":1941:1963  newOwner != address(0) */\n      0xffffffffffffffffffffffffffffffffffffffff\n      and\n      eq\n      iszero\n        /* \"Launchpad v2.0/Ownable.sol\":1933:2006  require(newOwner != address(0), \"Ownable: new owner is the zero address\") */\n      tag_33\n      jumpi\n      mload(0x40)\n      0x08c379a000000000000000000000000000000000000000000000000000000000\n      dup2\n      mstore\n      0x04\n      add\n      tag_34\n      swap1\n      tag_35\n      jump\t// in\n    tag_34:\n      mload(0x40)\n      dup1\n      swap2\n      sub\n      swap1\n      revert\n    tag_33:\n        /* \"Launchpad v2.0/Ownable.sol\":2016:2035  _setOwner(newOwner) */\n      tag_36\n        /* \"Launchpad v2.0/Ownable.sol\":2026:2034  newOwner */\n      dup2\n        /* \"Launchpad v2.0/Ownable.sol\":2016:2025  _setOwner */\n      tag_25\n        /* \"Launchpad v2.0/Ownable.sol\":2016:2035  _setOwner(newOwner) */\n      jump\t// in\n    tag_36:\n        /* \"Launchpad v2.0/Ownable.sol\":1853:2042  function transferOwnership(address newOwner) public virtual onlyOwner {... */\n      pop\n      jump\t// out\n        /* \"Launchpad v2.0/Context.sol\":600:696  function _msgSender() internal view virtual returns (address) {... */\n    tag_18:\n        /* \"Launchpad v2.0/Context.sol\":653:660  address */\n      0x00\n        /* \"Launchpad v2.0/Context.sol\":679:689  msg.sender */\n      caller\n        /* \"Launchpad v2.0/Context.sol\":672:689  return msg.sender */\n      swap1\n      pop\n        /* \"Launchpad v2.0/Context.sol\":600:696  function _msgSender() internal view virtual returns (address) {... */\n      swap1\n      jump\t// out\n        /* \"Launchpad v2.0/Ownable.sol\":2048:2218  function _setOwner(address newOwner) internal {... */\n    tag_25:\n        /* \"Launchpad v2.0/Ownable.sol\":2104:2120  address oldOwner */\n      0x00\n        /* \"Launchpad v2.0/Ownable.sol\":2123:2129  _owner */\n      dup1\n      0x00\n      swap1\n      sload\n      swap1\n      0x0100\n      exp\n      swap1\n      div\n      0xffffffffffffffffffffffffffffffffffffffff\n      and\n        /* \"Launchpad v2.0/Ownable.sol\":2104:2129  address oldOwner = _owner */\n      swap1\n      pop\n        /* \"Launchpad v2.0/Ownable.sol\":2148:2156  newOwner */\n      dup2\n        /* \"Launchpad v2.0/Ownable.sol\":2139:2145  _owner */\n      0x00\n      dup1\n        /* \"Launchpad v2.0/Ownable.sol\":2139:2156  _owner = newOwner */\n      0x0100\n      exp\n      dup2\n      sload\n      dup2\n      0xffffffffffffffffffffffffffffffffffffffff\n      mul\n      not\n      and\n      swap1\n      dup4\n      0xffffffffffffffffffffffffffffffffffffffff\n      and\n      mul\n      or\n      swap1\n      sstore\n      pop\n        /* \"Launchpad v2.0/Ownable.sol\":2202:2210  newOwner */\n      dup2\n        /* \"Launchpad v2.0/Ownable.sol\":2171:2211  OwnershipTransferred(oldOwner, newOwner) */\n      0xffffffffffffffffffffffffffffffffffffffff\n      and\n        /* \"Launchpad v2.0/Ownable.sol\":2192:2200  oldOwner */\n      dup2\n        /* \"Launchpad v2.0/Ownable.sol\":2171:2211  OwnershipTransferred(oldOwner, newOwner) */\n      0xffffffffffffffffffffffffffffffffffffffff\n      and\n      0x8be0079c531659141344cd1fd0a4f28419497f9722a3daafe3b4186f6b6457e0\n      mload(0x40)\n      mload(0x40)\n      dup1\n      swap2\n      sub\n      swap1\n      log3\n        /* \"Launchpad v2.0/Ownable.sol\":2094:2218  {... */\n      pop\n        /* \"Launchpad v2.0/Ownable.sol\":2048:2218  function _setOwner(address newOwner) internal {... */\n      pop\n      jump\t// out\n        /* \"#utility.yul\":7:146   */\n    tag_40:\n        /* \"#utility.yul\":53:58   */\n      0x00\n        /* \"#utility.yul\":91:97   */\n      dup2\n        /* \"#utility.yul\":78:98   */\n      calldataload\n        /* \"#utility.yul\":69:98   */\n      swap1\n      pop\n        /* \"#utility.yul\":107:140   */\n      tag_42\n        /* \"#utility.yul\":134:139   */\n      dup2\n        /* \"#utility.yul\":107:140   */\n      tag_43\n      jump\t// in\n    tag_42:\n        /* \"#utility.yul\":7:146   */\n      swap3\n      swap2\n      pop\n      pop\n      jump\t// out\n        /* \"#utility.yul\":152:481   */\n    tag_14:\n        /* \"#utility.yul\":211:217   */\n      0x00\n        /* \"#utility.yul\":260:262   */\n      0x20\n        /* \"#utility.yul\":248:257   */\n      dup3\n        /* \"#utility.yul\":239:246   */\n      dup5\n        /* \"#utility.yul\":235:258   */\n      sub\n        /* \"#utility.yul\":231:263   */\n      slt\n        /* \"#utility.yul\":228:347   */\n      iszero\n      tag_45\n      jumpi\n        /* \"#utility.yul\":266:345   */\n      tag_46\n      tag_47\n      jump\t// in\n    tag_46:\n        /* \"#utility.yul\":228:347   */\n    tag_45:\n        /* \"#utility.yul\":386:387   */\n      0x00\n        /* \"#utility.yul\":411:464   */\n      tag_48\n        /* \"#utility.yul\":456:463   */\n      dup5\n        /* \"#utility.yul\":447:453   */\n      dup3\n        /* \"#utility.yul\":436:445   */\n      dup6\n        /* \"#utility.yul\":432:454   */\n      add\n        /* \"#utility.yul\":411:464   */\n      tag_40\n      jump\t// in\n    tag_48:\n        /* \"#utility.yul\":401:464   */\n      swap2\n      pop\n        /* \"#utility.yul\":357:474   */\n      pop\n        /* \"#utility.yul\":152:481   */\n      swap3\n      swap2\n      pop\n      pop\n      jump\t// out\n        /* \"#utility.yul\":487:605   */\n    tag_49:\n        /* \"#utility.yul\":574:598   */\n      tag_51\n        /* \"#utility.yul\":592:597   */\n      dup2\n        /* \"#utility.yul\":574:598   */\n      tag_52\n      jump\t// in\n    tag_51:\n        /* \"#utility.yul\":569:572   */\n      dup3\n        /* \"#utility.yul\":562:599   */\n      mstore\n        /* \"#utility.yul\":487:605   */\n      pop\n      pop\n      jump\t// out\n        /* \"#utility.yul\":611:977   */\n    tag_53:\n        /* \"#utility.yul\":753:756   */\n      0x00\n        /* \"#utility.yul\":774:841   */\n      tag_55\n        /* \"#utility.yul\":838:840   */\n      0x26\n        /* \"#utility.yul\":833:836   */\n      dup4\n        /* \"#utility.yul\":774:841   */\n      tag_56\n      jump\t// in\n    tag_55:\n        /* \"#utility.yul\":767:841   */\n      swap2\n      pop\n        /* \"#utility.yul\":850:943   */\n      tag_57\n        /* \"#utility.yul\":939:942   */\n      dup3\n        /* \"#utility.yul\":850:943   */\n      tag_58\n      jump\t// in\n    tag_57:\n        /* \"#utility.yul\":968:970   */\n      0x40\n        /* \"#utility.yul\":963:966   */\n      dup3\n        /* \"#utility.yul\":959:971   */\n      add\n        /* \"#utility.yul\":952:971   */\n      swap1\n      pop\n        /* \"#utility.yul\":611:977   */\n      swap2\n      swap1\n      pop\n      jump\t// out\n        /* \"#utility.yul\":983:1349   */\n    tag_59:\n        /* \"#utility.yul\":1125:1128   */\n      0x00\n        /* \"#utility.yul\":1146:1213   */\n      tag_61\n        /* \"#utility.yul\":1210:1212   */\n      0x20\n        /* \"#utility.yul\":1205:1208   */\n      dup4\n        /* \"#utility.yul\":1146:1213   */\n      tag_56\n      jump\t// in\n    tag_61:\n        /* \"#utility.yul\":1139:1213   */\n      swap2\n      pop\n        /* \"#utility.yul\":1222:1315   */\n      tag_62\n        /* \"#utility.yul\":1311:1314   */\n      dup3\n        /* \"#utility.yul\":1222:1315   */\n      tag_63\n      jump\t// in\n    tag_62:\n        /* \"#utility.yul\":1340:1342   */\n      0x20\n        /* \"#utility.yul\":1335:1338   */\n      dup3\n        /* \"#utility.yul\":1331:1343   */\n      add\n        /* \"#utility.yul\":1324:1343   */\n      swap1\n      pop\n        /* \"#utility.yul\":983:1349   */\n      swap2\n      swap1\n      pop\n      jump\t// out\n        /* \"#utility.yul\":1355:1577   */\n    tag_11:\n        /* \"#utility.yul\":1448:1452   */\n      0x00\n        /* \"#utility.yul\":1486:1488   */\n      0x20\n        /* \"#utility.yul\":1475:1484   */\n      dup3\n        /* \"#utility.yul\":1471:1489   */\n      add\n        /* \"#utility.yul\":1463:1489   */\n      swap1\n      pop\n        /* \"#utility.yul\":1499:1570   */\n      tag_65\n        /* \"#utility.yul\":1567:1568   */\n      0x00\n        /* \"#utility.yul\":1556:1565   */\n      dup4\n        /* \"#utility.yul\":1552:1569   */\n      add\n        /* \"#utility.yul\":1543:1549   */\n      dup5\n        /* \"#utility.yul\":1499:1570   */\n      tag_49\n      jump\t// in\n    tag_65:\n        /* \"#utility.yul\":1355:1577   */\n      swap3\n      swap2\n      pop\n      pop\n      jump\t// out\n        /* \"#utility.yul\":1583:2002   */\n    tag_35:\n        /* \"#utility.yul\":1749:1753   */\n      0x00\n        /* \"#utility.yul\":1787:1789   */\n      0x20\n        /* \"#utility.yul\":1776:1785   */\n      dup3\n        /* \"#utility.yul\":1772:1790   */\n      add\n        /* \"#utility.yul\":1764:1790   */\n      swap1\n      pop\n        /* \"#utility.yul\":1836:1845   */\n      dup2\n        /* \"#utility.yul\":1830:1834   */\n      dup2\n        /* \"#utility.yul\":1826:1846   */\n      sub\n        /* \"#utility.yul\":1822:1823   */\n      0x00\n        /* \"#utility.yul\":1811:1820   */\n      dup4\n        /* \"#utility.yul\":1807:1824   */\n      add\n        /* \"#utility.yul\":1800:1847   */\n      mstore\n        /* \"#utility.yul\":1864:1995   */\n      tag_67\n        /* \"#utility.yul\":1990:1994   */\n      dup2\n        /* \"#utility.yul\":1864:1995   */\n      tag_53\n      jump\t// in\n    tag_67:\n        /* \"#utility.yul\":1856:1995   */\n      swap1\n      pop\n        /* \"#utility.yul\":1583:2002   */\n      swap2\n      swap1\n      pop\n      jump\t// out\n        /* \"#utility.yul\":2008:2427   */\n    tag_22:\n        /* \"#utility.yul\":2174:2178   */\n      0x00\n        /* \"#utility.yul\":2212:2214   */\n      0x20\n        /* \"#utility.yul\":2201:2210   */\n      dup3\n        /* \"#utility.yul\":2197:2215   */\n      add\n        /* \"#utility.yul\":2189:2215   */\n      swap1\n      pop\n        /* \"#utility.yul\":2261:2270   */\n      dup2\n        /* \"#utility.yul\":2255:2259   */\n      dup2\n        /* \"#utility.yul\":2251:2271   */\n      sub\n        /* \"#utility.yul\":2247:2248   */\n      0x00\n        /* \"#utility.yul\":2236:2245   */\n      dup4\n        /* \"#utility.yul\":2232:2249   */\n      add\n        /* \"#utility.yul\":2225:2272   */\n      mstore\n        /* \"#utility.yul\":2289:2420   */\n      tag_69\n        /* \"#utility.yul\":2415:2419   */\n      dup2\n        /* \"#utility.yul\":2289:2420   */\n      tag_59\n      jump\t// in\n    tag_69:\n        /* \"#utility.yul\":2281:2420   */\n      swap1\n      pop\n        /* \"#utility.yul\":2008:2427   */\n      swap2\n      swap1\n      pop\n      jump\t// out\n        /* \"#utility.yul\":2514:2683   */\n    tag_56:\n        /* \"#utility.yul\":2598:2609   */\n      0x00\n        /* \"#utility.yul\":2632:2638   */\n      dup3\n        /* \"#utility.yul\":2627:2630   */\n      dup3\n        /* \"#utility.yul\":2620:2639   */\n      mstore\n        /* \"#utility.yul\":2672:2676   */\n      0x20\n        /* \"#utility.yul\":2667:2670   */\n      dup3\n        /* \"#utility.yul\":2663:2677   */\n      add\n        /* \"#utility.yul\":2648:2677   */\n      swap1\n      pop\n        /* \"#utility.yul\":2514:2683   */\n      swap3\n      swap2\n      pop\n      pop\n      jump\t// out\n        /* \"#utility.yul\":2689:2785   */\n    tag_52:\n        /* \"#utility.yul\":2726:2733   */\n      0x00\n        /* \"#utility.yul\":2755:2779   */\n      tag_74\n        /* \"#utility.yul\":2773:2778   */\n      dup3\n        /* \"#utility.yul\":2755:2779   */\n      tag_75\n      jump\t// in\n    tag_74:\n        /* \"#utility.yul\":2744:2779   */\n      swap1\n      pop\n        /* \"#utility.yul\":2689:2785   */\n      swap2\n      swap1\n      pop\n      jump\t// out\n        /* \"#utility.yul\":2791:2917   */\n    tag_75:\n        /* \"#utility.yul\":2828:2835   */\n      0x00\n        /* \"#utility.yul\":2868:2910   */\n      0xffffffffffffffffffffffffffffffffffffffff\n        /* \"#utility.yul\":2861:2866   */\n      dup3\n        /* \"#utility.yul\":2857:2911   */\n      and\n        /* \"#utility.yul\":2846:2911   */\n      swap1\n      pop\n        /* \"#utility.yul\":2791:2917   */\n      swap2\n      swap1\n      pop\n      jump\t// out\n        /* \"#utility.yul\":3046:3163   */\n    tag_47:\n        /* \"#utility.yul\":3155:3156   */\n      0x00\n        /* \"#utility.yul\":3152:3153   */\n      dup1\n        /* \"#utility.yul\":3145:3157   */\n      revert\n        /* \"#utility.yul\":3169:3394   */\n    tag_58:\n        /* \"#utility.yul\":3309:3343   */\n      0x4f776e61626c653a206e6577206f776e657220697320746865207a65726f2061\n        /* \"#utility.yul\":3305:3306   */\n      0x00\n        /* \"#utility.yul\":3297:3303   */\n      dup3\n        /* \"#utility.yul\":3293:3307   */\n      add\n        /* \"#utility.yul\":3286:3344   */\n      mstore\n        /* \"#utility.yul\":3378:3386   */\n      0x6464726573730000000000000000000000000000000000000000000000000000\n        /* \"#utility.yul\":3373:3375   */\n      0x20\n        /* \"#utility.yul\":3365:3371   */\n      dup3\n        /* \"#utility.yul\":3361:3376   */\n      add\n        /* \"#utility.yul\":3354:3387   */\n      mstore\n        /* \"#utility.yul\":3169:3394   */\n      pop\n      jump\t// out\n        /* \"#utility.yul\":3400:3582   */\n    tag_63:\n        /* \"#utility.yul\":3540:3574   */\n      0x4f776e61626c653a2063616c6c6572206973206e6f7420746865206f776e6572\n        /* \"#utility.yul\":3536:3537   */\n      0x00\n        /* \"#utility.yul\":3528:3534   */\n      dup3\n        /* \"#utility.yul\":3524:3538   */\n      add\n        /* \"#utility.yul\":3517:3575   */\n      mstore\n        /* \"#utility.yul\":3400:3582   */\n      pop\n      jump\t// out\n        /* \"#utility.yul\":3588:3710   */\n    tag_43:\n        /* \"#utility.yul\":3661:3685   */\n      tag_83\n        /* \"#utility.yul\":3679:3684   */\n      dup2\n        /* \"#utility.yul\":3661:3685   */\n      tag_52\n      jump\t// in\n    tag_83:\n        /* \"#utility.yul\":3654:3659   */\n      dup2\n        /* \"#utility.yul\":3651:3686   */\n      eq\n        /* \"#utility.yul\":3641:3704   */\n      tag_84\n      jumpi\n        /* \"#utility.yul\":3700:3701   */\n      0x00\n        /* \"#utility.yul\":3697:3698   */\n      dup1\n        /* \"#utility.yul\":3690:3702   */\n      revert\n        /* \"#utility.yul\":3641:3704   */\n    tag_84:\n        /* \"#utility.yul\":3588:3710   */\n      pop\n      jump\t// out\n\n    auxdata: 0xa26469706673582212208b1789e00e648673bd2ae40a771505fb2dd7dbb5094d7c89918aca0c7af4347664736f6c63430008070033\n}\n",
				"bytecode": {
					"linkReferences": {},
					"object": "608060405234801561001057600080fd5b5061002d61002261003260201b60201c565b61003a60201b60201c565b6100fe565b600033905090565b60008060009054906101000a900473ffffffffffffffffffffffffffffffffffffffff169050816000806101000a81548173ffffffffffffffffffffffffffffffffffffffff021916908373ffffffffffffffffffffffffffffffffffffffff1602179055508173ffffffffffffffffffffffffffffffffffffffff168173ffffffffffffffffffffffffffffffffffffffff167f8be0079c531659141344cd1fd0a4f28419497f9722a3daafe3b4186f6b6457e060405160405180910390a35050565b6104fe8061010d6000396000f3fe608060405234801561001057600080fd5b50600436106100415760003560e01c8063715018a6146100465780638da5cb5b14610050578063f2fde38b1461006e575b600080fd5b61004e61008a565b005b610058610112565b6040516100659190610396565b60405180910390f35b61008860048036038101906100839190610314565b61013b565b005b610092610233565b73ffffffffffffffffffffffffffffffffffffffff166100b0610112565b73ffffffffffffffffffffffffffffffffffffffff1614610106576040517f08c379a00000000000000000000000000000000000000000000000000000000081526004016100fd906103d1565b60405180910390fd5b610110600061023b565b565b60008060009054906101000a900473ffffffffffffffffffffffffffffffffffffffff16905090565b610143610233565b73ffffffffffffffffffffffffffffffffffffffff16610161610112565b73ffffffffffffffffffffffffffffffffffffffff16146101b7576040517f08c379a00000000000000000000000000000000000000000000000000000000081526004016101ae906103d1565b60405180910390fd5b600073ffffffffffffffffffffffffffffffffffffffff168173ffffffffffffffffffffffffffffffffffffffff161415610227576040517f08c379a000000000000000000000000000000000000000000000000000000000815260040161021e906103b1565b60405180910390fd5b6102308161023b565b50565b600033905090565b60008060009054906101000a900473ffffffffffffffffffffffffffffffffffffffff169050816000806101000a81548173ffffffffffffffffffffffffffffffffffffffff021916908373ffffffffffffffffffffffffffffffffffffffff1602179055508173ffffffffffffffffffffffffffffffffffffffff168173ffffffffffffffffffffffffffffffffffffffff167f8be0079c531659141344cd1fd0a4f28419497f9722a3daafe3b4186f6b6457e060405160405180910390a35050565b60008135905061030e816104b1565b92915050565b60006020828403121561032a57610329610434565b5b6000610338848285016102ff565b91505092915050565b61034a81610402565b82525050565b600061035d6026836103f1565b915061036882610439565b604082019050919050565b60006103806020836103f1565b915061038b82610488565b602082019050919050565b60006020820190506103ab6000830184610341565b92915050565b600060208201905081810360008301526103ca81610350565b9050919050565b600060208201905081810360008301526103ea81610373565b9050919050565b600082825260208201905092915050565b600061040d82610414565b9050919050565b600073ffffffffffffffffffffffffffffffffffffffff82169050919050565b600080fd5b7f4f776e61626c653a206e6577206f776e657220697320746865207a65726f206160008201527f6464726573730000000000000000000000000000000000000000000000000000602082015250565b7f4f776e61626c653a2063616c6c6572206973206e6f7420746865206f776e6572600082015250565b6104ba81610402565b81146104c557600080fd5b5056fea26469706673582212208b1789e00e648673bd2ae40a771505fb2dd7dbb5094d7c89918aca0c7af4347664736f6c63430008070033",
					"opcodes": "PUSH1 0x80 PUSH1 0x40 MSTORE CALLVALUE DUP1 ISZERO PUSH2 0x10 JUMPI PUSH1 0x0 DUP1 REVERT JUMPDEST POP PUSH2 0x2D PUSH2 0x22 PUSH2 0x32 PUSH1 0x20 SHL PUSH1 0x20 SHR JUMP JUMPDEST PUSH2 0x3A PUSH1 0x20 SHL PUSH1 0x20 SHR JUMP JUMPDEST PUSH2 0xFE JUMP JUMPDEST PUSH1 0x0 CALLER SWAP1 POP SWAP1 JUMP JUMPDEST PUSH1 0x0 DUP1 PUSH1 0x0 SWAP1 SLOAD SWAP1 PUSH2 0x100 EXP SWAP1 DIV PUSH20 0xFFFFFFFFFFFFFFFFFFFFFFFFFFFFFFFFFFFFFFFF AND SWAP1 POP DUP2 PUSH1 0x0 DUP1 PUSH2 0x100 EXP DUP2 SLOAD DUP2 PUSH20 0xFFFFFFFFFFFFFFFFFFFFFFFFFFFFFFFFFFFFFFFF MUL NOT AND SWAP1 DUP4 PUSH20 0xFFFFFFFFFFFFFFFFFFFFFFFFFFFFFFFFFFFFFFFF AND MUL OR SWAP1 SSTORE POP DUP2 PUSH20 0xFFFFFFFFFFFFFFFFFFFFFFFFFFFFFFFFFFFFFFFF AND DUP2 PUSH20 0xFFFFFFFFFFFFFFFFFFFFFFFFFFFFFFFFFFFFFFFF AND PUSH32 0x8BE0079C531659141344CD1FD0A4F28419497F9722A3DAAFE3B4186F6B6457E0 PUSH1 0x40 MLOAD PUSH1 0x40 MLOAD DUP1 SWAP2 SUB SWAP1 LOG3 POP POP JUMP JUMPDEST PUSH2 0x4FE DUP1 PUSH2 0x10D PUSH1 0x0 CODECOPY PUSH1 0x0 RETURN INVALID PUSH1 0x80 PUSH1 0x40 MSTORE CALLVALUE DUP1 ISZERO PUSH2 0x10 JUMPI PUSH1 0x0 DUP1 REVERT JUMPDEST POP PUSH1 0x4 CALLDATASIZE LT PUSH2 0x41 JUMPI PUSH1 0x0 CALLDATALOAD PUSH1 0xE0 SHR DUP1 PUSH4 0x715018A6 EQ PUSH2 0x46 JUMPI DUP1 PUSH4 0x8DA5CB5B EQ PUSH2 0x50 JUMPI DUP1 PUSH4 0xF2FDE38B EQ PUSH2 0x6E JUMPI JUMPDEST PUSH1 0x0 DUP1 REVERT JUMPDEST PUSH2 0x4E PUSH2 0x8A JUMP JUMPDEST STOP JUMPDEST PUSH2 0x58 PUSH2 0x112 JUMP JUMPDEST PUSH1 0x40 MLOAD PUSH2 0x65 SWAP2 SWAP1 PUSH2 0x396 JUMP JUMPDEST PUSH1 0x40 MLOAD DUP1 SWAP2 SUB SWAP1 RETURN JUMPDEST PUSH2 0x88 PUSH1 0x4 DUP1 CALLDATASIZE SUB DUP2 ADD SWAP1 PUSH2 0x83 SWAP2 SWAP1 PUSH2 0x314 JUMP JUMPDEST PUSH2 0x13B JUMP JUMPDEST STOP JUMPDEST PUSH2 0x92 PUSH2 0x233 JUMP JUMPDEST PUSH20 0xFFFFFFFFFFFFFFFFFFFFFFFFFFFFFFFFFFFFFFFF AND PUSH2 0xB0 PUSH2 0x112 JUMP JUMPDEST PUSH20 0xFFFFFFFFFFFFFFFFFFFFFFFFFFFFFFFFFFFFFFFF AND EQ PUSH2 0x106 JUMPI PUSH1 0x40 MLOAD PUSH32 0x8C379A000000000000000000000000000000000000000000000000000000000 DUP2 MSTORE PUSH1 0x4 ADD PUSH2 0xFD SWAP1 PUSH2 0x3D1 JUMP JUMPDEST PUSH1 0x40 MLOAD DUP1 SWAP2 SUB SWAP1 REVERT JUMPDEST PUSH2 0x110 PUSH1 0x0 PUSH2 0x23B JUMP JUMPDEST JUMP JUMPDEST PUSH1 0x0 DUP1 PUSH1 0x0 SWAP1 SLOAD SWAP1 PUSH2 0x100 EXP SWAP1 DIV PUSH20 0xFFFFFFFFFFFFFFFFFFFFFFFFFFFFFFFFFFFFFFFF AND SWAP1 POP SWAP1 JUMP JUMPDEST PUSH2 0x143 PUSH2 0x233 JUMP JUMPDEST PUSH20 0xFFFFFFFFFFFFFFFFFFFFFFFFFFFFFFFFFFFFFFFF AND PUSH2 0x161 PUSH2 0x112 JUMP JUMPDEST PUSH20 0xFFFFFFFFFFFFFFFFFFFFFFFFFFFFFFFFFFFFFFFF AND EQ PUSH2 0x1B7 JUMPI PUSH1 0x40 MLOAD PUSH32 0x8C379A000000000000000000000000000000000000000000000000000000000 DUP2 MSTORE PUSH1 0x4 ADD PUSH2 0x1AE SWAP1 PUSH2 0x3D1 JUMP JUMPDEST PUSH1 0x40 MLOAD DUP1 SWAP2 SUB SWAP1 REVERT JUMPDEST PUSH1 0x0 PUSH20 0xFFFFFFFFFFFFFFFFFFFFFFFFFFFFFFFFFFFFFFFF AND DUP2 PUSH20 0xFFFFFFFFFFFFFFFFFFFFFFFFFFFFFFFFFFFFFFFF AND EQ ISZERO PUSH2 0x227 JUMPI PUSH1 0x40 MLOAD PUSH32 0x8C379A000000000000000000000000000000000000000000000000000000000 DUP2 MSTORE PUSH1 0x4 ADD PUSH2 0x21E SWAP1 PUSH2 0x3B1 JUMP JUMPDEST PUSH1 0x40 MLOAD DUP1 SWAP2 SUB SWAP1 REVERT JUMPDEST PUSH2 0x230 DUP2 PUSH2 0x23B JUMP JUMPDEST POP JUMP JUMPDEST PUSH1 0x0 CALLER SWAP1 POP SWAP1 JUMP JUMPDEST PUSH1 0x0 DUP1 PUSH1 0x0 SWAP1 SLOAD SWAP1 PUSH2 0x100 EXP SWAP1 DIV PUSH20 0xFFFFFFFFFFFFFFFFFFFFFFFFFFFFFFFFFFFFFFFF AND SWAP1 POP DUP2 PUSH1 0x0 DUP1 PUSH2 0x100 EXP DUP2 SLOAD DUP2 PUSH20 0xFFFFFFFFFFFFFFFFFFFFFFFFFFFFFFFFFFFFFFFF MUL NOT AND SWAP1 DUP4 PUSH20 0xFFFFFFFFFFFFFFFFFFFFFFFFFFFFFFFFFFFFFFFF AND MUL OR SWAP1 SSTORE POP DUP2 PUSH20 0xFFFFFFFFFFFFFFFFFFFFFFFFFFFFFFFFFFFFFFFF AND DUP2 PUSH20 0xFFFFFFFFFFFFFFFFFFFFFFFFFFFFFFFFFFFFFFFF AND PUSH32 0x8BE0079C531659141344CD1FD0A4F28419497F9722A3DAAFE3B4186F6B6457E0 PUSH1 0x40 MLOAD PUSH1 0x40 MLOAD DUP1 SWAP2 SUB SWAP1 LOG3 POP POP JUMP JUMPDEST PUSH1 0x0 DUP2 CALLDATALOAD SWAP1 POP PUSH2 0x30E DUP2 PUSH2 0x4B1 JUMP JUMPDEST SWAP3 SWAP2 POP POP JUMP JUMPDEST PUSH1 0x0 PUSH1 0x20 DUP3 DUP5 SUB SLT ISZERO PUSH2 0x32A JUMPI PUSH2 0x329 PUSH2 0x434 JUMP JUMPDEST JUMPDEST PUSH1 0x0 PUSH2 0x338 DUP5 DUP3 DUP6 ADD PUSH2 0x2FF JUMP JUMPDEST SWAP2 POP POP SWAP3 SWAP2 POP POP JUMP JUMPDEST PUSH2 0x34A DUP2 PUSH2 0x402 JUMP JUMPDEST DUP3 MSTORE POP POP JUMP JUMPDEST PUSH1 0x0 PUSH2 0x35D PUSH1 0x26 DUP4 PUSH2 0x3F1 JUMP JUMPDEST SWAP2 POP PUSH2 0x368 DUP3 PUSH2 0x439 JUMP JUMPDEST PUSH1 0x40 DUP3 ADD SWAP1 POP SWAP2 SWAP1 POP JUMP JUMPDEST PUSH1 0x0 PUSH2 0x380 PUSH1 0x20 DUP4 PUSH2 0x3F1 JUMP JUMPDEST SWAP2 POP PUSH2 0x38B DUP3 PUSH2 0x488 JUMP JUMPDEST PUSH1 0x20 DUP3 ADD SWAP1 POP SWAP2 SWAP1 POP JUMP JUMPDEST PUSH1 0x0 PUSH1 0x20 DUP3 ADD SWAP1 POP PUSH2 0x3AB PUSH1 0x0 DUP4 ADD DUP5 PUSH2 0x341 JUMP JUMPDEST SWAP3 SWAP2 POP POP JUMP JUMPDEST PUSH1 0x0 PUSH1 0x20 DUP3 ADD SWAP1 POP DUP2 DUP2 SUB PUSH1 0x0 DUP4 ADD MSTORE PUSH2 0x3CA DUP2 PUSH2 0x350 JUMP JUMPDEST SWAP1 POP SWAP2 SWAP1 POP JUMP JUMPDEST PUSH1 0x0 PUSH1 0x20 DUP3 ADD SWAP1 POP DUP2 DUP2 SUB PUSH1 0x0 DUP4 ADD MSTORE PUSH2 0x3EA DUP2 PUSH2 0x373 JUMP JUMPDEST SWAP1 POP SWAP2 SWAP1 POP JUMP JUMPDEST PUSH1 0x0 DUP3 DUP3 MSTORE PUSH1 0x20 DUP3 ADD SWAP1 POP SWAP3 SWAP2 POP POP JUMP JUMPDEST PUSH1 0x0 PUSH2 0x40D DUP3 PUSH2 0x414 JUMP JUMPDEST SWAP1 POP SWAP2 SWAP1 POP JUMP JUMPDEST PUSH1 0x0 PUSH20 0xFFFFFFFFFFFFFFFFFFFFFFFFFFFFFFFFFFFFFFFF DUP3 AND SWAP1 POP SWAP2 SWAP1 POP JUMP JUMPDEST PUSH1 0x0 DUP1 REVERT JUMPDEST PUSH32 0x4F776E61626C653A206E6577206F776E657220697320746865207A65726F2061 PUSH1 0x0 DUP3 ADD MSTORE PUSH32 0x6464726573730000000000000000000000000000000000000000000000000000 PUSH1 0x20 DUP3 ADD MSTORE POP JUMP JUMPDEST PUSH32 0x4F776E61626C653A2063616C6C6572206973206E6F7420746865206F776E6572 PUSH1 0x0 DUP3 ADD MSTORE POP JUMP JUMPDEST PUSH2 0x4BA DUP2 PUSH2 0x402 JUMP JUMPDEST DUP2 EQ PUSH2 0x4C5 JUMPI PUSH1 0x0 DUP1 REVERT JUMPDEST POP JUMP INVALID LOG2 PUSH5 0x6970667358 0x22 SLT KECCAK256 DUP12 OR DUP10 0xE0 0xE PUSH5 0x8673BD2AE4 EXP PUSH24 0x1505FB2DD7DBB5094D7C89918ACA0C7AF4347664736F6C63 NUMBER STOP ADDMOD SMOD STOP CALLER "
				},
				"gasEstimates": {
					"creation": {
						"codeDepositCost": "255600",
						"executionCost": "infinite",
						"totalCost": "infinite"
					},
					"external": {
						"owner()": "2522",
						"renounceOwnership()": "30352",
						"transferOwnership(address)": "30745"
					},
					"internal": {
						"_setOwner(address)": "27981"
					}
				},
				"methodIdentifiers": {
					"owner()": "8da5cb5b",
					"renounceOwnership()": "715018a6",
					"transferOwnership(address)": "f2fde38b"
				}
			},
			"storageLayout": {
				"storage": [
					{
						"astId": 243,
						"contract": "Launchpad v2.0/Ownable.sol:Ownable",
						"label": "_owner",
						"offset": 0,
						"slot": "0",
						"type": "t_address"
					}
				],
				"types": {
					"t_address": {
						"encoding": "inplace",
						"label": "address",
						"numberOfBytes": "20"
					}
				}
			},
			"userdoc": {
				"kind": "user",
				"methods": {},
				"version": 1
			}
		}
	}
}