{
	"Launchpad v2.0/QubeBalance.sol": {
		"QubeBalance": {
			"abi": [
				{
					"inputs": [],
					"stateMutability": "nonpayable",
					"type": "constructor"
				},
				{
					"anonymous": false,
					"inputs": [
						{
							"indexed": true,
							"internalType": "address",
							"name": "previousOwner",
							"type": "address"
						},
						{
							"indexed": true,
							"internalType": "address",
							"name": "newOwner",
							"type": "address"
						}
					],
					"name": "OwnershipTransferred",
					"type": "event"
				},
				{
					"inputs": [],
					"name": "diamond",
					"outputs": [
						{
							"internalType": "contract IERC1155",
							"name": "",
							"type": "address"
						}
					],
					"stateMutability": "view",
					"type": "function"
				},
				{
					"inputs": [
						{
							"internalType": "address",
							"name": "walletAddress",
							"type": "address"
						}
					],
					"name": "getNFTBalance",
					"outputs": [
						{
							"internalType": "uint256",
							"name": "",
							"type": "uint256"
						}
					],
					"stateMutability": "view",
					"type": "function"
				},
				{
					"inputs": [
						{
							"internalType": "address",
							"name": "walletAddress",
							"type": "address"
						}
					],
					"name": "getPancakePairBalance",
					"outputs": [
						{
							"internalType": "uint256",
							"name": "",
							"type": "uint256"
						}
					],
					"stateMutability": "view",
					"type": "function"
				},
				{
					"inputs": [
						{
							"internalType": "address",
							"name": "walletAddress",
							"type": "address"
						}
					],
					"name": "getQubeBalance",
					"outputs": [
						{
							"internalType": "uint256",
							"name": "",
							"type": "uint256"
						}
					],
					"stateMutability": "view",
					"type": "function"
				},
				{
					"inputs": [
						{
							"internalType": "address",
							"name": "walletAddress",
							"type": "address"
						}
					],
					"name": "getQubePresaleBalance",
					"outputs": [
						{
							"internalType": "uint256",
							"name": "",
							"type": "uint256"
						}
					],
					"stateMutability": "view",
					"type": "function"
				},
				{
					"inputs": [
						{
							"internalType": "address",
							"name": "walletAddress",
							"type": "address"
						}
					],
					"name": "getQubeStakeFactoryBalance",
					"outputs": [
						{
							"internalType": "uint256",
							"name": "",
							"type": "uint256"
						}
					],
					"stateMutability": "view",
					"type": "function"
				},
				{
					"inputs": [],
					"name": "gold",
					"outputs": [
						{
							"internalType": "contract IERC1155",
							"name": "",
							"type": "address"
						}
					],
					"stateMutability": "view",
					"type": "function"
				},
				{
					"inputs": [],
					"name": "owner",
					"outputs": [
						{
							"internalType": "address",
							"name": "",
							"type": "address"
						}
					],
					"stateMutability": "view",
					"type": "function"
				},
				{
					"inputs": [],
					"name": "pancakePair",
					"outputs": [
						{
							"internalType": "contract IPancakePair",
							"name": "",
							"type": "address"
						}
					],
					"stateMutability": "view",
					"type": "function"
				},
				{
					"inputs": [],
					"name": "qube",
					"outputs": [
						{
							"internalType": "contract IBEP20",
							"name": "",
							"type": "address"
						}
					],
					"stateMutability": "view",
					"type": "function"
				},
				{
					"inputs": [
						{
							"internalType": "address",
							"name": "walletAddress",
							"type": "address"
						}
					],
					"name": "qubeBalance",
					"outputs": [
						{
							"internalType": "uint256",
							"name": "",
							"type": "uint256"
						}
					],
					"stateMutability": "view",
					"type": "function"
				},
				{
					"inputs": [
						{
							"internalType": "address",
							"name": "walletAddress",
							"type": "address"
						}
					],
					"name": "qubeBalanceWithNFT",
					"outputs": [
						{
							"internalType": "uint256",
							"name": "",
							"type": "uint256"
						}
					],
					"stateMutability": "view",
					"type": "function"
				},
				{
					"inputs": [],
					"name": "qubePresale",
					"outputs": [
						{
							"internalType": "contract QubePresale",
							"name": "",
							"type": "address"
						}
					],
					"stateMutability": "view",
					"type": "function"
				},
				{
					"inputs": [],
					"name": "qubeStakeFactory",
					"outputs": [
						{
							"internalType": "contract QubeStakeFactory",
							"name": "",
							"type": "address"
						}
					],
					"stateMutability": "view",
					"type": "function"
				},
				{
					"inputs": [
						{
							"internalType": "address",
							"name": "_user",
							"type": "address"
						},
						{
							"internalType": "uint256",
							"name": "_ID",
							"type": "uint256"
						}
					],
					"name": "removeNFT",
					"outputs": [],
					"stateMutability": "nonpayable",
					"type": "function"
				},
				{
					"inputs": [],
					"name": "renounceOwnership",
					"outputs": [],
					"stateMutability": "nonpayable",
					"type": "function"
				},
				{
					"inputs": [
						{
							"internalType": "contract IERC1155",
							"name": "_diamond",
							"type": "address"
						}
					],
					"name": "setDiamond",
					"outputs": [],
					"stateMutability": "nonpayable",
					"type": "function"
				},
				{
					"inputs": [
						{
							"internalType": "contract IERC1155",
							"name": "_gold",
							"type": "address"
						}
					],
					"name": "setGold",
					"outputs": [],
					"stateMutability": "nonpayable",
					"type": "function"
				},
				{
					"inputs": [
						{
							"internalType": "contract IBEP20",
							"name": "_qube",
							"type": "address"
						}
					],
					"name": "setQube",
					"outputs": [],
					"stateMutability": "nonpayable",
					"type": "function"
				},
				{
					"inputs": [
						{
							"internalType": "contract IPancakePair",
							"name": "_pancakePair",
							"type": "address"
						}
					],
					"name": "setQubePancakePair",
					"outputs": [],
					"stateMutability": "nonpayable",
					"type": "function"
				},
				{
					"inputs": [
						{
							"internalType": "contract QubePresale",
							"name": "_qubePresale",
							"type": "address"
						}
					],
					"name": "setQubePresale",
					"outputs": [],
					"stateMutability": "nonpayable",
					"type": "function"
				},
				{
					"inputs": [
						{
							"internalType": "contract QubeStakeFactory",
							"name": "_qubeStakeFactory",
							"type": "address"
						}
					],
					"name": "setQubeStake",
					"outputs": [],
					"stateMutability": "nonpayable",
					"type": "function"
				},
				{
					"inputs": [
						{
							"internalType": "contract IERC1155",
							"name": "_silver",
							"type": "address"
						}
					],
					"name": "setSilver",
					"outputs": [],
					"stateMutability": "nonpayable",
					"type": "function"
				},
				{
					"inputs": [],
					"name": "silver",
					"outputs": [
						{
							"internalType": "contract IERC1155",
							"name": "",
							"type": "address"
						}
					],
					"stateMutability": "view",
					"type": "function"
				},
				{
					"inputs": [
						{
							"internalType": "address",
							"name": "newOwner",
							"type": "address"
						}
					],
					"name": "transferOwnership",
					"outputs": [],
					"stateMutability": "nonpayable",
					"type": "function"
				},
				{
					"inputs": [
						{
							"internalType": "address",
							"name": "",
							"type": "address"
						}
					],
					"name": "userNFT",
					"outputs": [
						{
							"internalType": "uint256",
							"name": "length",
							"type": "uint256"
						},
						{
							"internalType": "uint256",
							"name": "rank",
							"type": "uint256"
						}
					],
					"stateMutability": "view",
					"type": "function"
				}
			],
			"devdoc": {
				"kind": "dev",
				"methods": {
					"owner()": {
						"details": "Returns the address of the current owner."
					},
					"renounceOwnership()": {
						"details": "Leaves the contract without owner. It will not be possible to call `onlyOwner` functions anymore. Can only be called by the current owner. NOTE: Renouncing ownership will leave the contract without an owner, thereby removing any functionality that is only available to the owner."
					},
					"transferOwnership(address)": {
						"details": "Transfers ownership of the contract to a new account (`newOwner`). Can only be called by the current owner."
					}
				},
				"version": 1
			},
			"evm": {
				"assembly": "    /* \"Launchpad v2.0/QubeBalance.sol\":512:4223  contract QubeBalance is Ownable{... */\n  mstore(0x40, 0x80)\n    /* \"Launchpad v2.0/QubeBalance.sol\":1152:1174  constructor() {... */\n  callvalue\n  dup1\n  iszero\n  tag_1\n  jumpi\n  0x00\n  dup1\n  revert\ntag_1:\n  pop\n    /* \"Launchpad v2.0/Ownable.sol\":874:897  _setOwner(_msgSender()) */\n  tag_5\n    /* \"Launchpad v2.0/Ownable.sol\":884:896  _msgSender() */\n  tag_6\n    /* \"Launchpad v2.0/Ownable.sol\":884:894  _msgSender */\n  shl(0x20, tag_7)\n    /* \"Launchpad v2.0/Ownable.sol\":884:896  _msgSender() */\n  0x20\n  shr\n  jump\t// in\ntag_6:\n    /* \"Launchpad v2.0/Ownable.sol\":874:883  _setOwner */\n  shl(0x20, tag_8)\n    /* \"Launchpad v2.0/Ownable.sol\":874:897  _setOwner(_msgSender()) */\n  0x20\n  shr\n  jump\t// in\ntag_5:\n    /* \"Launchpad v2.0/QubeBalance.sol\":512:4223  contract QubeBalance is Ownable{... */\n  jump(tag_10)\n    /* \"Launchpad v2.0/Context.sol\":600:696  function _msgSender() internal view virtual returns (address) {... */\ntag_7:\n    /* \"Launchpad v2.0/Context.sol\":653:660  address */\n  0x00\n    /* \"Launchpad v2.0/Context.sol\":679:689  msg.sender */\n  caller\n    /* \"Launchpad v2.0/Context.sol\":672:689  return msg.sender */\n  swap1\n  pop\n    /* \"Launchpad v2.0/Context.sol\":600:696  function _msgSender() internal view virtual returns (address) {... */\n  swap1\n  jump\t// out\n    /* \"Launchpad v2.0/Ownable.sol\":2048:2218  function _setOwner(address newOwner) internal {... */\ntag_8:\n    /* \"Launchpad v2.0/Ownable.sol\":2104:2120  address oldOwner */\n  0x00\n    /* \"Launchpad v2.0/Ownable.sol\":2123:2129  _owner */\n  dup1\n  0x00\n  swap1\n  sload\n  swap1\n  0x0100\n  exp\n  swap1\n  div\n  0xffffffffffffffffffffffffffffffffffffffff\n  and\n    /* \"Launchpad v2.0/Ownable.sol\":2104:2129  address oldOwner = _owner */\n  swap1\n  pop\n    /* \"Launchpad v2.0/Ownable.sol\":2148:2156  newOwner */\n  dup2\n    /* \"Launchpad v2.0/Ownable.sol\":2139:2145  _owner */\n  0x00\n  dup1\n    /* \"Launchpad v2.0/Ownable.sol\":2139:2156  _owner = newOwner */\n  0x0100\n  exp\n  dup2\n  sload\n  dup2\n  0xffffffffffffffffffffffffffffffffffffffff\n  mul\n  not\n  and\n  swap1\n  dup4\n  0xffffffffffffffffffffffffffffffffffffffff\n  and\n  mul\n  or\n  swap1\n  sstore\n  pop\n    /* \"Launchpad v2.0/Ownable.sol\":2202:2210  newOwner */\n  dup2\n    /* \"Launchpad v2.0/Ownable.sol\":2171:2211  OwnershipTransferred(oldOwner, newOwner) */\n  0xffffffffffffffffffffffffffffffffffffffff\n  and\n    /* \"Launchpad v2.0/Ownable.sol\":2192:2200  oldOwner */\n  dup2\n    /* \"Launchpad v2.0/Ownable.sol\":2171:2211  OwnershipTransferred(oldOwner, newOwner) */\n  0xffffffffffffffffffffffffffffffffffffffff\n  and\n  0x8be0079c531659141344cd1fd0a4f28419497f9722a3daafe3b4186f6b6457e0\n  mload(0x40)\n  mload(0x40)\n  dup1\n  swap2\n  sub\n  swap1\n  log3\n    /* \"Launchpad v2.0/Ownable.sol\":2094:2218  {... */\n  pop\n    /* \"Launchpad v2.0/Ownable.sol\":2048:2218  function _setOwner(address newOwner) internal {... */\n  pop\n  jump\t// out\n    /* \"Launchpad v2.0/QubeBalance.sol\":512:4223  contract QubeBalance is Ownable{... */\ntag_10:\n  dataSize(sub_0)\n  dup1\n  dataOffset(sub_0)\n  0x00\n  codecopy\n  0x00\n  return\nstop\n\nsub_0: assembly {\n        /* \"Launchpad v2.0/QubeBalance.sol\":512:4223  contract QubeBalance is Ownable{... */\n      mstore(0x40, 0x80)\n      callvalue\n      dup1\n      iszero\n      tag_1\n      jumpi\n      0x00\n      dup1\n      revert\n    tag_1:\n      pop\n      jumpi(tag_2, lt(calldatasize, 0x04))\n      shr(0xe0, calldataload(0x00))\n      dup1\n      0x6de5368b\n      gt\n      tag_29\n      jumpi\n      dup1\n      0xa7288c2e\n      gt\n      tag_30\n      jumpi\n      dup1\n      0xf0b7db4e\n      gt\n      tag_31\n      jumpi\n      dup1\n      0xf0b7db4e\n      eq\n      tag_25\n      jumpi\n      dup1\n      0xf2fde38b\n      eq\n      tag_26\n      jumpi\n      dup1\n      0xf479ef22\n      eq\n      tag_27\n      jumpi\n      dup1\n      0xfbec6f21\n      eq\n      tag_28\n      jumpi\n      jump(tag_2)\n    tag_31:\n      dup1\n      0xa7288c2e\n      eq\n      tag_22\n      jumpi\n      dup1\n      0xb8c9d25c\n      eq\n      tag_23\n      jumpi\n      dup1\n      0xbf8ebd85\n      eq\n      tag_24\n      jumpi\n      jump(tag_2)\n    tag_30:\n      dup1\n      0x6de5368b\n      eq\n      tag_16\n      jumpi\n      dup1\n      0x715018a6\n      eq\n      tag_17\n      jumpi\n      dup1\n      0x76ed535a\n      eq\n      tag_18\n      jumpi\n      dup1\n      0x84119666\n      eq\n      tag_19\n      jumpi\n      dup1\n      0x8bb8c68f\n      eq\n      tag_20\n      jumpi\n      dup1\n      0x8da5cb5b\n      eq\n      tag_21\n      jumpi\n      jump(tag_2)\n    tag_29:\n      dup1\n      0x10a5806a\n      gt\n      tag_32\n      jumpi\n      dup1\n      0x2540d8a7\n      gt\n      tag_33\n      jumpi\n      dup1\n      0x2540d8a7\n      eq\n      tag_12\n      jumpi\n      dup1\n      0x3445d381\n      eq\n      tag_13\n      jumpi\n      dup1\n      0x42632ee0\n      eq\n      tag_14\n      jumpi\n      dup1\n      0x49fd566b\n      eq\n      tag_15\n      jumpi\n      jump(tag_2)\n    tag_33:\n      dup1\n      0x10a5806a\n      eq\n      tag_9\n      jumpi\n      dup1\n      0x17d8b80c\n      eq\n      tag_10\n      jumpi\n      dup1\n      0x1fb5d3c2\n      eq\n      tag_11\n      jumpi\n      jump(tag_2)\n    tag_32:\n      dup1\n      0xc2378f\n      eq\n      tag_3\n      jumpi\n      dup1\n      0x0314214c\n      eq\n      tag_4\n      jumpi\n      dup1\n      0x0520b708\n      eq\n      tag_5\n      jumpi\n      dup1\n      0x0651823e\n      eq\n      tag_6\n      jumpi\n      dup1\n      0x0b75aa36\n      eq\n      tag_7\n      jumpi\n      dup1\n      0x0ed7b861\n      eq\n      tag_8\n      jumpi\n    tag_2:\n      0x00\n      dup1\n      revert\n        /* \"Launchpad v2.0/QubeBalance.sol\":1098:1143  mapping (address=>userNFTData) public userNFT */\n    tag_3:\n      tag_34\n      0x04\n      dup1\n      calldatasize\n      sub\n      dup2\n      add\n      swap1\n      tag_35\n      swap2\n      swap1\n      tag_36\n      jump\t// in\n    tag_35:\n      tag_37\n      jump\t// in\n    tag_34:\n      mload(0x40)\n      tag_38\n      swap3\n      swap2\n      swap1\n      tag_39\n      jump\t// in\n    tag_38:\n      mload(0x40)\n      dup1\n      swap2\n      sub\n      swap1\n      return\n        /* \"Launchpad v2.0/QubeBalance.sol\":1015:1037  IERC1155 public silver */\n    tag_4:\n      tag_40\n      tag_41\n      jump\t// in\n    tag_40:\n      mload(0x40)\n      tag_42\n      swap2\n      swap1\n      tag_43\n      jump\t// in\n    tag_42:\n      mload(0x40)\n      dup1\n      swap2\n      sub\n      swap1\n      return\n        /* \"Launchpad v2.0/QubeBalance.sol\":1982:2058  function setGold(IERC1155 _gold) public onlyOwner{... */\n    tag_5:\n      tag_44\n      0x04\n      dup1\n      calldatasize\n      sub\n      dup2\n      add\n      swap1\n      tag_45\n      swap2\n      swap1\n      tag_46\n      jump\t// in\n    tag_45:\n      tag_47\n      jump\t// in\n    tag_44:\n      stop\n        /* \"Launchpad v2.0/QubeBalance.sol\":1455:1529  function setQube(IBEP20 _qube) public onlyOwner{... */\n    tag_6:\n      tag_48\n      0x04\n      dup1\n      calldatasize\n      sub\n      dup2\n      add\n      swap1\n      tag_49\n      swap2\n      swap1\n      tag_50\n      jump\t// in\n    tag_49:\n      tag_51\n      jump\t// in\n    tag_48:\n      stop\n        /* \"Launchpad v2.0/QubeBalance.sol\":3692:3936  function qubeBalance(address walletAddress) public view returns (uint256){... */\n    tag_7:\n      tag_52\n      0x04\n      dup1\n      calldatasize\n      sub\n      dup2\n      add\n      swap1\n      tag_53\n      swap2\n      swap1\n      tag_36\n      jump\t// in\n    tag_53:\n      tag_54\n      jump\t// in\n    tag_52:\n      mload(0x40)\n      tag_55\n      swap2\n      swap1\n      tag_56\n      jump\t// in\n    tag_55:\n      mload(0x40)\n      dup1\n      swap2\n      sub\n      swap1\n      return\n        /* \"Launchpad v2.0/QubeBalance.sol\":1534:1641  function setQubePresale(QubePresale _qubePresale) public onlyOwner{... */\n    tag_8:\n      tag_57\n      0x04\n      dup1\n      calldatasize\n      sub\n      dup2\n      add\n      swap1\n      tag_58\n      swap2\n      swap1\n      tag_59\n      jump\t// in\n    tag_58:\n      tag_60\n      jump\t// in\n    tag_57:\n      stop\n        /* \"Launchpad v2.0/QubeBalance.sol\":896:926  QubePresale public qubePresale */\n    tag_9:\n      tag_61\n      tag_62\n      jump\t// in\n    tag_61:\n      mload(0x40)\n      tag_63\n      swap2\n      swap1\n      tag_64\n      jump\t// in\n    tag_63:\n      mload(0x40)\n      dup1\n      swap2\n      sub\n      swap1\n      return\n        /* \"Launchpad v2.0/QubeBalance.sol\":1763:1888  function setQubeStake(QubeStakeFactory _qubeStakeFactory) public onlyOwner{... */\n    tag_10:\n      tag_65\n      0x04\n      dup1\n      calldatasize\n      sub\n      dup2\n      add\n      swap1\n      tag_66\n      swap2\n      swap1\n      tag_67\n      jump\t// in\n    tag_66:\n      tag_68\n      jump\t// in\n    tag_65:\n      stop\n        /* \"Launchpad v2.0/QubeBalance.sol\":2290:2436  function getQubePresaleBalance(address walletAddress)public view returns (uint256){... */\n    tag_11:\n      tag_69\n      0x04\n      dup1\n      calldatasize\n      sub\n      dup2\n      add\n      swap1\n      tag_70\n      swap2\n      swap1\n      tag_36\n      jump\t// in\n    tag_70:\n      tag_71\n      jump\t// in\n    tag_69:\n      mload(0x40)\n      tag_72\n      swap2\n      swap1\n      tag_56\n      jump\t// in\n    tag_72:\n      mload(0x40)\n      dup1\n      swap2\n      sub\n      swap1\n      return\n        /* \"Launchpad v2.0/QubeBalance.sol\":2892:3239  function getQubeStakeFactoryBalance(address walletAddress)public view returns(uint256){... */\n    tag_12:\n      tag_73\n      0x04\n      dup1\n      calldatasize\n      sub\n      dup2\n      add\n      swap1\n      tag_74\n      swap2\n      swap1\n      tag_36\n      jump\t// in\n    tag_74:\n      tag_75\n      jump\t// in\n    tag_73:\n      mload(0x40)\n      tag_76\n      swap2\n      swap1\n      tag_56\n      jump\t// in\n    tag_76:\n      mload(0x40)\n      dup1\n      swap2\n      sub\n      swap1\n      return\n        /* \"Launchpad v2.0/QubeBalance.sol\":2157:2285  function getQubeBalance(address walletAddress)public view returns (uint256){... */\n    tag_13:\n      tag_77\n      0x04\n      dup1\n      calldatasize\n      sub\n      dup2\n      add\n      swap1\n      tag_78\n      swap2\n      swap1\n      tag_36\n      jump\t// in\n    tag_78:\n      tag_79\n      jump\t// in\n    tag_77:\n      mload(0x40)\n      tag_80\n      swap2\n      swap1\n      tag_56\n      jump\t// in\n    tag_80:\n      mload(0x40)\n      dup1\n      swap2\n      sub\n      swap1\n      return\n        /* \"Launchpad v2.0/QubeBalance.sol\":2441:2887  function getPancakePairBalance(address walletAddress)public view returns (uint256){... */\n    tag_14:\n      tag_81\n      0x04\n      dup1\n      calldatasize\n      sub\n      dup2\n      add\n      swap1\n      tag_82\n      swap2\n      swap1\n      tag_36\n      jump\t// in\n    tag_82:\n      tag_83\n      jump\t// in\n    tag_81:\n      mload(0x40)\n      tag_84\n      swap2\n      swap1\n      tag_56\n      jump\t// in\n    tag_84:\n      mload(0x40)\n      dup1\n      swap2\n      sub\n      swap1\n      return\n        /* \"Launchpad v2.0/QubeBalance.sol\":1184:1449  function removeNFT(address _user, uint256 _ID) public{... */\n    tag_15:\n      tag_85\n      0x04\n      dup1\n      calldatasize\n      sub\n      dup2\n      add\n      swap1\n      tag_86\n      swap2\n      swap1\n      tag_87\n      jump\t// in\n    tag_86:\n      tag_88\n      jump\t// in\n    tag_85:\n      stop\n        /* \"Launchpad v2.0/QubeBalance.sol\":872:890  IBEP20 public qube */\n    tag_16:\n      tag_89\n      tag_90\n      jump\t// in\n    tag_89:\n      mload(0x40)\n      tag_91\n      swap2\n      swap1\n      tag_92\n      jump\t// in\n    tag_91:\n      mload(0x40)\n      dup1\n      swap2\n      sub\n      swap1\n      return\n        /* \"Launchpad v2.0/Ownable.sol\":1612:1704  function renounceOwnership() public virtual onlyOwner {... */\n    tag_17:\n      tag_93\n      tag_94\n      jump\t// in\n    tag_93:\n      stop\n        /* \"Launchpad v2.0/QubeBalance.sol\":2063:2151  function setDiamond(IERC1155 _diamond) public onlyOwner{... */\n    tag_18:\n      tag_95\n      0x04\n      dup1\n      calldatasize\n      sub\n      dup2\n      add\n      swap1\n      tag_96\n      swap2\n      swap1\n      tag_46\n      jump\t// in\n    tag_96:\n      tag_97\n      jump\t// in\n    tag_95:\n      stop\n        /* \"Launchpad v2.0/QubeBalance.sol\":969:1009  QubeStakeFactory public qubeStakeFactory */\n    tag_19:\n      tag_98\n      tag_99\n      jump\t// in\n    tag_98:\n      mload(0x40)\n      tag_100\n      swap2\n      swap1\n      tag_101\n      jump\t// in\n    tag_100:\n      mload(0x40)\n      dup1\n      swap2\n      sub\n      swap1\n      return\n        /* \"Launchpad v2.0/QubeBalance.sol\":1646:1758  function setQubePancakePair(IPancakePair _pancakePair) public onlyOwner{... */\n    tag_20:\n      tag_102\n      0x04\n      dup1\n      calldatasize\n      sub\n      dup2\n      add\n      swap1\n      tag_103\n      swap2\n      swap1\n      tag_104\n      jump\t// in\n    tag_103:\n      tag_105\n      jump\t// in\n    tag_102:\n      stop\n        /* \"Launchpad v2.0/Ownable.sol\":980:1065  function owner() public view virtual returns (address) {... */\n    tag_21:\n      tag_106\n      tag_107\n      jump\t// in\n    tag_106:\n      mload(0x40)\n      tag_108\n      swap2\n      swap1\n      tag_109\n      jump\t// in\n    tag_108:\n      mload(0x40)\n      dup1\n      swap2\n      sub\n      swap1\n      return\n        /* \"Launchpad v2.0/QubeBalance.sol\":3941:4221  function qubeBalanceWithNFT(address walletAddress) public view returns (uint256){... */\n    tag_22:\n      tag_110\n      0x04\n      dup1\n      calldatasize\n      sub\n      dup2\n      add\n      swap1\n      tag_111\n      swap2\n      swap1\n      tag_36\n      jump\t// in\n    tag_111:\n      tag_112\n      jump\t// in\n    tag_110:\n      mload(0x40)\n      tag_113\n      swap2\n      swap1\n      tag_56\n      jump\t// in\n    tag_113:\n      mload(0x40)\n      dup1\n      swap2\n      sub\n      swap1\n      return\n        /* \"Launchpad v2.0/QubeBalance.sol\":932:963  IPancakePair public pancakePair */\n    tag_23:\n      tag_114\n      tag_115\n      jump\t// in\n    tag_114:\n      mload(0x40)\n      tag_116\n      swap2\n      swap1\n      tag_117\n      jump\t// in\n    tag_116:\n      mload(0x40)\n      dup1\n      swap2\n      sub\n      swap1\n      return\n        /* \"Launchpad v2.0/QubeBalance.sol\":3244:3682  function getNFTBalance(address walletAddress)public view returns (uint256){... */\n    tag_24:\n      tag_118\n      0x04\n      dup1\n      calldatasize\n      sub\n      dup2\n      add\n      swap1\n      tag_119\n      swap2\n      swap1\n      tag_36\n      jump\t// in\n    tag_119:\n      tag_120\n      jump\t// in\n    tag_118:\n      mload(0x40)\n      tag_121\n      swap2\n      swap1\n      tag_56\n      jump\t// in\n    tag_121:\n      mload(0x40)\n      dup1\n      swap2\n      sub\n      swap1\n      return\n        /* \"Launchpad v2.0/QubeBalance.sol\":1069:1092  IERC1155 public diamond */\n    tag_25:\n      tag_122\n      tag_123\n      jump\t// in\n    tag_122:\n      mload(0x40)\n      tag_124\n      swap2\n      swap1\n      tag_43\n      jump\t// in\n    tag_124:\n      mload(0x40)\n      dup1\n      swap2\n      sub\n      swap1\n      return\n        /* \"Launchpad v2.0/Ownable.sol\":1853:2042  function transferOwnership(address newOwner) public virtual onlyOwner {... */\n    tag_26:\n      tag_125\n      0x04\n      dup1\n      calldatasize\n      sub\n      dup2\n      add\n      swap1\n      tag_126\n      swap2\n      swap1\n      tag_36\n      jump\t// in\n    tag_126:\n      tag_127\n      jump\t// in\n    tag_125:\n      stop\n        /* \"Launchpad v2.0/QubeBalance.sol\":1893:1977  function setSilver(IERC1155 _silver) public onlyOwner{... */\n    tag_27:\n      tag_128\n      0x04\n      dup1\n      calldatasize\n      sub\n      dup2\n      add\n      swap1\n      tag_129\n      swap2\n      swap1\n      tag_46\n      jump\t// in\n    tag_129:\n      tag_130\n      jump\t// in\n    tag_128:\n      stop\n        /* \"Launchpad v2.0/QubeBalance.sol\":1043:1063  IERC1155 public gold */\n    tag_28:\n      tag_131\n      tag_132\n      jump\t// in\n    tag_131:\n      mload(0x40)\n      tag_133\n      swap2\n      swap1\n      tag_43\n      jump\t// in\n    tag_133:\n      mload(0x40)\n      dup1\n      swap2\n      sub\n      swap1\n      return\n        /* \"Launchpad v2.0/QubeBalance.sol\":1098:1143  mapping (address=>userNFTData) public userNFT */\n    tag_37:\n      mstore(0x20, 0x08)\n      dup1\n      0x00\n      mstore\n      keccak256(0x00, 0x40)\n      0x00\n      swap2\n      pop\n      swap1\n      pop\n      dup1\n      0x00\n      add\n      sload\n      swap1\n      dup1\n      0x02\n      add\n      sload\n      swap1\n      pop\n      dup3\n      jump\t// out\n        /* \"Launchpad v2.0/QubeBalance.sol\":1015:1037  IERC1155 public silver */\n    tag_41:\n      0x05\n      0x00\n      swap1\n      sload\n      swap1\n      0x0100\n      exp\n      swap1\n      div\n      0xffffffffffffffffffffffffffffffffffffffff\n      and\n      dup2\n      jump\t// out\n        /* \"Launchpad v2.0/QubeBalance.sol\":1982:2058  function setGold(IERC1155 _gold) public onlyOwner{... */\n    tag_47:\n        /* \"Launchpad v2.0/Ownable.sol\":1203:1215  _msgSender() */\n      tag_135\n        /* \"Launchpad v2.0/Ownable.sol\":1203:1213  _msgSender */\n      tag_136\n        /* \"Launchpad v2.0/Ownable.sol\":1203:1215  _msgSender() */\n      jump\t// in\n    tag_135:\n        /* \"Launchpad v2.0/Ownable.sol\":1192:1215  owner() == _msgSender() */\n      0xffffffffffffffffffffffffffffffffffffffff\n      and\n        /* \"Launchpad v2.0/Ownable.sol\":1192:1199  owner() */\n      tag_137\n        /* \"Launchpad v2.0/Ownable.sol\":1192:1197  owner */\n      tag_107\n        /* \"Launchpad v2.0/Ownable.sol\":1192:1199  owner() */\n      jump\t// in\n    tag_137:\n        /* \"Launchpad v2.0/Ownable.sol\":1192:1215  owner() == _msgSender() */\n      0xffffffffffffffffffffffffffffffffffffffff\n      and\n      eq\n        /* \"Launchpad v2.0/Ownable.sol\":1184:1252  require(owner() == _msgSender(), \"Ownable: caller is not the owner\") */\n      tag_138\n      jumpi\n      mload(0x40)\n      0x08c379a000000000000000000000000000000000000000000000000000000000\n      dup2\n      mstore\n      0x04\n      add\n      tag_139\n      swap1\n      tag_140\n      jump\t// in\n    tag_139:\n      mload(0x40)\n      dup1\n      swap2\n      sub\n      swap1\n      revert\n    tag_138:\n        /* \"Launchpad v2.0/QubeBalance.sol\":2046:2051  _gold */\n      dup1\n        /* \"Launchpad v2.0/QubeBalance.sol\":2041:2045  gold */\n      0x06\n      0x00\n        /* \"Launchpad v2.0/QubeBalance.sol\":2041:2051  gold=_gold */\n      0x0100\n      exp\n      dup2\n      sload\n      dup2\n      0xffffffffffffffffffffffffffffffffffffffff\n      mul\n      not\n      and\n      swap1\n      dup4\n      0xffffffffffffffffffffffffffffffffffffffff\n      and\n      mul\n      or\n      swap1\n      sstore\n      pop\n        /* \"Launchpad v2.0/QubeBalance.sol\":1982:2058  function setGold(IERC1155 _gold) public onlyOwner{... */\n      pop\n      jump\t// out\n        /* \"Launchpad v2.0/QubeBalance.sol\":1455:1529  function setQube(IBEP20 _qube) public onlyOwner{... */\n    tag_51:\n        /* \"Launchpad v2.0/Ownable.sol\":1203:1215  _msgSender() */\n      tag_143\n        /* \"Launchpad v2.0/Ownable.sol\":1203:1213  _msgSender */\n      tag_136\n        /* \"Launchpad v2.0/Ownable.sol\":1203:1215  _msgSender() */\n      jump\t// in\n    tag_143:\n        /* \"Launchpad v2.0/Ownable.sol\":1192:1215  owner() == _msgSender() */\n      0xffffffffffffffffffffffffffffffffffffffff\n      and\n        /* \"Launchpad v2.0/Ownable.sol\":1192:1199  owner() */\n      tag_144\n        /* \"Launchpad v2.0/Ownable.sol\":1192:1197  owner */\n      tag_107\n        /* \"Launchpad v2.0/Ownable.sol\":1192:1199  owner() */\n      jump\t// in\n    tag_144:\n        /* \"Launchpad v2.0/Ownable.sol\":1192:1215  owner() == _msgSender() */\n      0xffffffffffffffffffffffffffffffffffffffff\n      and\n      eq\n        /* \"Launchpad v2.0/Ownable.sol\":1184:1252  require(owner() == _msgSender(), \"Ownable: caller is not the owner\") */\n      tag_145\n      jumpi\n      mload(0x40)\n      0x08c379a000000000000000000000000000000000000000000000000000000000\n      dup2\n      mstore\n      0x04\n      add\n      tag_146\n      swap1\n      tag_140\n      jump\t// in\n    tag_146:\n      mload(0x40)\n      dup1\n      swap2\n      sub\n      swap1\n      revert\n    tag_145:\n        /* \"Launchpad v2.0/QubeBalance.sol\":1517:1522  _qube */\n      dup1\n        /* \"Launchpad v2.0/QubeBalance.sol\":1512:1516  qube */\n      0x01\n      0x00\n        /* \"Launchpad v2.0/QubeBalance.sol\":1512:1522  qube=_qube */\n      0x0100\n      exp\n      dup2\n      sload\n      dup2\n      0xffffffffffffffffffffffffffffffffffffffff\n      mul\n      not\n      and\n      swap1\n      dup4\n      0xffffffffffffffffffffffffffffffffffffffff\n      and\n      mul\n      or\n      swap1\n      sstore\n      pop\n        /* \"Launchpad v2.0/QubeBalance.sol\":1455:1529  function setQube(IBEP20 _qube) public onlyOwner{... */\n      pop\n      jump\t// out\n        /* \"Launchpad v2.0/QubeBalance.sol\":3692:3936  function qubeBalance(address walletAddress) public view returns (uint256){... */\n    tag_54:\n        /* \"Launchpad v2.0/QubeBalance.sol\":3757:3764  uint256 */\n      0x00\n        /* \"Launchpad v2.0/QubeBalance.sol\":3888:3929  getQubeStakeFactoryBalance(walletAddress) */\n      tag_149\n        /* \"Launchpad v2.0/QubeBalance.sol\":3915:3928  walletAddress */\n      dup3\n        /* \"Launchpad v2.0/QubeBalance.sol\":3888:3914  getQubeStakeFactoryBalance */\n      tag_75\n        /* \"Launchpad v2.0/QubeBalance.sol\":3888:3929  getQubeStakeFactoryBalance(walletAddress) */\n      jump\t// in\n    tag_149:\n        /* \"Launchpad v2.0/QubeBalance.sol\":3851:3887  getPancakePairBalance(walletAddress) */\n      tag_150\n        /* \"Launchpad v2.0/QubeBalance.sol\":3873:3886  walletAddress */\n      dup4\n        /* \"Launchpad v2.0/QubeBalance.sol\":3851:3872  getPancakePairBalance */\n      tag_83\n        /* \"Launchpad v2.0/QubeBalance.sol\":3851:3887  getPancakePairBalance(walletAddress) */\n      jump\t// in\n    tag_150:\n        /* \"Launchpad v2.0/QubeBalance.sol\":3814:3850  getQubePresaleBalance(walletAddress) */\n      tag_151\n        /* \"Launchpad v2.0/QubeBalance.sol\":3836:3849  walletAddress */\n      dup5\n        /* \"Launchpad v2.0/QubeBalance.sol\":3814:3835  getQubePresaleBalance */\n      tag_71\n        /* \"Launchpad v2.0/QubeBalance.sol\":3814:3850  getQubePresaleBalance(walletAddress) */\n      jump\t// in\n    tag_151:\n        /* \"Launchpad v2.0/QubeBalance.sol\":3782:3811  getQubeBalance(walletAddress) */\n      tag_152\n        /* \"Launchpad v2.0/QubeBalance.sol\":3797:3810  walletAddress */\n      dup6\n        /* \"Launchpad v2.0/QubeBalance.sol\":3782:3796  getQubeBalance */\n      tag_79\n        /* \"Launchpad v2.0/QubeBalance.sol\":3782:3811  getQubeBalance(walletAddress) */\n      jump\t// in\n    tag_152:\n        /* \"Launchpad v2.0/QubeBalance.sol\":3782:3850  getQubeBalance(walletAddress) + getQubePresaleBalance(walletAddress) */\n      tag_153\n      swap2\n      swap1\n      tag_154\n      jump\t// in\n    tag_153:\n        /* \"Launchpad v2.0/QubeBalance.sol\":3782:3887  getQubeBalance(walletAddress) + getQubePresaleBalance(walletAddress)+getPancakePairBalance(walletAddress) */\n      tag_155\n      swap2\n      swap1\n      tag_154\n      jump\t// in\n    tag_155:\n        /* \"Launchpad v2.0/QubeBalance.sol\":3782:3929  getQubeBalance(walletAddress) + getQubePresaleBalance(walletAddress)+getPancakePairBalance(walletAddress)+getQubeStakeFactoryBalance(walletAddress) */\n      tag_156\n      swap2\n      swap1\n      tag_154\n      jump\t// in\n    tag_156:\n        /* \"Launchpad v2.0/QubeBalance.sol\":3775:3929  return getQubeBalance(walletAddress) + getQubePresaleBalance(walletAddress)+getPancakePairBalance(walletAddress)+getQubeStakeFactoryBalance(walletAddress) */\n      swap1\n      pop\n        /* \"Launchpad v2.0/QubeBalance.sol\":3692:3936  function qubeBalance(address walletAddress) public view returns (uint256){... */\n      swap2\n      swap1\n      pop\n      jump\t// out\n        /* \"Launchpad v2.0/QubeBalance.sol\":1534:1641  function setQubePresale(QubePresale _qubePresale) public onlyOwner{... */\n    tag_60:\n        /* \"Launchpad v2.0/Ownable.sol\":1203:1215  _msgSender() */\n      tag_158\n        /* \"Launchpad v2.0/Ownable.sol\":1203:1213  _msgSender */\n      tag_136\n        /* \"Launchpad v2.0/Ownable.sol\":1203:1215  _msgSender() */\n      jump\t// in\n    tag_158:\n        /* \"Launchpad v2.0/Ownable.sol\":1192:1215  owner() == _msgSender() */\n      0xffffffffffffffffffffffffffffffffffffffff\n      and\n        /* \"Launchpad v2.0/Ownable.sol\":1192:1199  owner() */\n      tag_159\n        /* \"Launchpad v2.0/Ownable.sol\":1192:1197  owner */\n      tag_107\n        /* \"Launchpad v2.0/Ownable.sol\":1192:1199  owner() */\n      jump\t// in\n    tag_159:\n        /* \"Launchpad v2.0/Ownable.sol\":1192:1215  owner() == _msgSender() */\n      0xffffffffffffffffffffffffffffffffffffffff\n      and\n      eq\n        /* \"Launchpad v2.0/Ownable.sol\":1184:1252  require(owner() == _msgSender(), \"Ownable: caller is not the owner\") */\n      tag_160\n      jumpi\n      mload(0x40)\n      0x08c379a000000000000000000000000000000000000000000000000000000000\n      dup2\n      mstore\n      0x04\n      add\n      tag_161\n      swap1\n      tag_140\n      jump\t// in\n    tag_161:\n      mload(0x40)\n      dup1\n      swap2\n      sub\n      swap1\n      revert\n    tag_160:\n        /* \"Launchpad v2.0/QubeBalance.sol\":1622:1634  _qubePresale */\n      dup1\n        /* \"Launchpad v2.0/QubeBalance.sol\":1610:1621  qubePresale */\n      0x02\n      0x00\n        /* \"Launchpad v2.0/QubeBalance.sol\":1610:1634  qubePresale=_qubePresale */\n      0x0100\n      exp\n      dup2\n      sload\n      dup2\n      0xffffffffffffffffffffffffffffffffffffffff\n      mul\n      not\n      and\n      swap1\n      dup4\n      0xffffffffffffffffffffffffffffffffffffffff\n      and\n      mul\n      or\n      swap1\n      sstore\n      pop\n        /* \"Launchpad v2.0/QubeBalance.sol\":1534:1641  function setQubePresale(QubePresale _qubePresale) public onlyOwner{... */\n      pop\n      jump\t// out\n        /* \"Launchpad v2.0/QubeBalance.sol\":896:926  QubePresale public qubePresale */\n    tag_62:\n      0x02\n      0x00\n      swap1\n      sload\n      swap1\n      0x0100\n      exp\n      swap1\n      div\n      0xffffffffffffffffffffffffffffffffffffffff\n      and\n      dup2\n      jump\t// out\n        /* \"Launchpad v2.0/QubeBalance.sol\":1763:1888  function setQubeStake(QubeStakeFactory _qubeStakeFactory) public onlyOwner{... */\n    tag_68:\n        /* \"Launchpad v2.0/Ownable.sol\":1203:1215  _msgSender() */\n      tag_164\n        /* \"Launchpad v2.0/Ownable.sol\":1203:1213  _msgSender */\n      tag_136\n        /* \"Launchpad v2.0/Ownable.sol\":1203:1215  _msgSender() */\n      jump\t// in\n    tag_164:\n        /* \"Launchpad v2.0/Ownable.sol\":1192:1215  owner() == _msgSender() */\n      0xffffffffffffffffffffffffffffffffffffffff\n      and\n        /* \"Launchpad v2.0/Ownable.sol\":1192:1199  owner() */\n      tag_165\n        /* \"Launchpad v2.0/Ownable.sol\":1192:1197  owner */\n      tag_107\n        /* \"Launchpad v2.0/Ownable.sol\":1192:1199  owner() */\n      jump\t// in\n    tag_165:\n        /* \"Launchpad v2.0/Ownable.sol\":1192:1215  owner() == _msgSender() */\n      0xffffffffffffffffffffffffffffffffffffffff\n      and\n      eq\n        /* \"Launchpad v2.0/Ownable.sol\":1184:1252  require(owner() == _msgSender(), \"Ownable: caller is not the owner\") */\n      tag_166\n      jumpi\n      mload(0x40)\n      0x08c379a000000000000000000000000000000000000000000000000000000000\n      dup2\n      mstore\n      0x04\n      add\n      tag_167\n      swap1\n      tag_140\n      jump\t// in\n    tag_167:\n      mload(0x40)\n      dup1\n      swap2\n      sub\n      swap1\n      revert\n    tag_166:\n        /* \"Launchpad v2.0/QubeBalance.sol\":1864:1881  _qubeStakeFactory */\n      dup1\n        /* \"Launchpad v2.0/QubeBalance.sol\":1847:1863  qubeStakeFactory */\n      0x04\n      0x00\n        /* \"Launchpad v2.0/QubeBalance.sol\":1847:1881  qubeStakeFactory=_qubeStakeFactory */\n      0x0100\n      exp\n      dup2\n      sload\n      dup2\n      0xffffffffffffffffffffffffffffffffffffffff\n      mul\n      not\n      and\n      swap1\n      dup4\n      0xffffffffffffffffffffffffffffffffffffffff\n      and\n      mul\n      or\n      swap1\n      sstore\n      pop\n        /* \"Launchpad v2.0/QubeBalance.sol\":1763:1888  function setQubeStake(QubeStakeFactory _qubeStakeFactory) public onlyOwner{... */\n      pop\n      jump\t// out\n        /* \"Launchpad v2.0/QubeBalance.sol\":2290:2436  function getQubePresaleBalance(address walletAddress)public view returns (uint256){... */\n    tag_71:\n        /* \"Launchpad v2.0/QubeBalance.sol\":2364:2371  uint256 */\n      0x00\n        /* \"Launchpad v2.0/QubeBalance.sol\":2389:2400  qubePresale */\n      0x02\n      0x00\n      swap1\n      sload\n      swap1\n      0x0100\n      exp\n      swap1\n      div\n      0xffffffffffffffffffffffffffffffffffffffff\n      and\n        /* \"Launchpad v2.0/QubeBalance.sol\":2389:2414  qubePresale.qubeBalanceOf */\n      0xffffffffffffffffffffffffffffffffffffffff\n      and\n      0xc5d63d0a\n        /* \"Launchpad v2.0/QubeBalance.sol\":2415:2428  walletAddress */\n      dup4\n        /* \"Launchpad v2.0/QubeBalance.sol\":2389:2429  qubePresale.qubeBalanceOf(walletAddress) */\n      mload(0x40)\n      dup3\n      0xffffffff\n      and\n      0xe0\n      shl\n      dup2\n      mstore\n      0x04\n      add\n      tag_170\n      swap2\n      swap1\n      tag_109\n      jump\t// in\n    tag_170:\n      0x20\n      mload(0x40)\n      dup1\n      dup4\n      sub\n      dup2\n      dup7\n      dup1\n      extcodesize\n      iszero\n      dup1\n      iszero\n      tag_171\n      jumpi\n      0x00\n      dup1\n      revert\n    tag_171:\n      pop\n      gas\n      staticcall\n      iszero\n      dup1\n      iszero\n      tag_173\n      jumpi\n      returndatasize\n      0x00\n      dup1\n      returndatacopy\n      revert(0x00, returndatasize)\n    tag_173:\n      pop\n      pop\n      pop\n      pop\n      mload(0x40)\n      returndatasize\n      not(0x1f)\n      0x1f\n      dup3\n      add\n      and\n      dup3\n      add\n      dup1\n      0x40\n      mstore\n      pop\n      dup2\n      add\n      swap1\n      tag_174\n      swap2\n      swap1\n      tag_175\n      jump\t// in\n    tag_174:\n        /* \"Launchpad v2.0/QubeBalance.sol\":2382:2429  return qubePresale.qubeBalanceOf(walletAddress) */\n      swap1\n      pop\n        /* \"Launchpad v2.0/QubeBalance.sol\":2290:2436  function getQubePresaleBalance(address walletAddress)public view returns (uint256){... */\n      swap2\n      swap1\n      pop\n      jump\t// out\n        /* \"Launchpad v2.0/QubeBalance.sol\":2892:3239  function getQubeStakeFactoryBalance(address walletAddress)public view returns(uint256){... */\n    tag_75:\n        /* \"Launchpad v2.0/QubeBalance.sol\":2970:2977  uint256 */\n      0x00\n        /* \"Launchpad v2.0/QubeBalance.sol\":2988:3004  uint256 _balance */\n      dup1\n        /* \"Launchpad v2.0/QubeBalance.sol\":3014:3038  uint256[] memory tickets */\n      0x00\n        /* \"Launchpad v2.0/QubeBalance.sol\":3041:3057  qubeStakeFactory */\n      0x04\n      0x00\n      swap1\n      sload\n      swap1\n      0x0100\n      exp\n      swap1\n      div\n      0xffffffffffffffffffffffffffffffffffffffff\n      and\n        /* \"Launchpad v2.0/QubeBalance.sol\":3041:3069  qubeStakeFactory.userTickets */\n      0xffffffffffffffffffffffffffffffffffffffff\n      and\n      0x80017f4e\n        /* \"Launchpad v2.0/QubeBalance.sol\":3070:3083  walletAddress */\n      dup6\n        /* \"Launchpad v2.0/QubeBalance.sol\":3041:3084  qubeStakeFactory.userTickets(walletAddress) */\n      mload(0x40)\n      dup3\n      0xffffffff\n      and\n      0xe0\n      shl\n      dup2\n      mstore\n      0x04\n      add\n      tag_177\n      swap2\n      swap1\n      tag_109\n      jump\t// in\n    tag_177:\n      0x00\n      mload(0x40)\n      dup1\n      dup4\n      sub\n      dup2\n      dup7\n      dup1\n      extcodesize\n      iszero\n      dup1\n      iszero\n      tag_178\n      jumpi\n      0x00\n      dup1\n      revert\n    tag_178:\n      pop\n      gas\n      staticcall\n      iszero\n      dup1\n      iszero\n      tag_180\n      jumpi\n      returndatasize\n      0x00\n      dup1\n      returndatacopy\n      revert(0x00, returndatasize)\n    tag_180:\n      pop\n      pop\n      pop\n      pop\n      mload(0x40)\n      returndatasize\n      0x00\n      dup3\n      returndatacopy\n      returndatasize\n      not(0x1f)\n      0x1f\n      dup3\n      add\n      and\n      dup3\n      add\n      dup1\n      0x40\n      mstore\n      pop\n      dup2\n      add\n      swap1\n      tag_181\n      swap2\n      swap1\n      tag_182\n      jump\t// in\n    tag_181:\n        /* \"Launchpad v2.0/QubeBalance.sol\":3014:3084  uint256[] memory tickets = qubeStakeFactory.userTickets(walletAddress) */\n      swap1\n      pop\n        /* \"Launchpad v2.0/QubeBalance.sol\":3100:3106  uint i */\n      0x00\n        /* \"Launchpad v2.0/QubeBalance.sol\":3095:3208  for (uint i=0; i<tickets.length; i++){... */\n    tag_183:\n        /* \"Launchpad v2.0/QubeBalance.sol\":3112:3119  tickets */\n      dup2\n        /* \"Launchpad v2.0/QubeBalance.sol\":3112:3126  tickets.length */\n      mload\n        /* \"Launchpad v2.0/QubeBalance.sol\":3110:3111  i */\n      dup2\n        /* \"Launchpad v2.0/QubeBalance.sol\":3110:3126  i<tickets.length */\n      lt\n        /* \"Launchpad v2.0/QubeBalance.sol\":3095:3208  for (uint i=0; i<tickets.length; i++){... */\n      iszero\n      tag_184\n      jumpi\n        /* \"Launchpad v2.0/QubeBalance.sol\":3157:3173  qubeStakeFactory */\n      0x04\n      0x00\n      swap1\n      sload\n      swap1\n      0x0100\n      exp\n      swap1\n      div\n      0xffffffffffffffffffffffffffffffffffffffff\n      and\n        /* \"Launchpad v2.0/QubeBalance.sol\":3157:3182  qubeStakeFactory.userInfo */\n      0xffffffffffffffffffffffffffffffffffffffff\n      and\n      0x51d70bc4\n        /* \"Launchpad v2.0/QubeBalance.sol\":3183:3184  i */\n      dup3\n        /* \"Launchpad v2.0/QubeBalance.sol\":3157:3185  qubeStakeFactory.userInfo(i) */\n      mload(0x40)\n      dup3\n      0xffffffff\n      and\n      0xe0\n      shl\n      dup2\n      mstore\n      0x04\n      add\n      tag_186\n      swap2\n      swap1\n      tag_56\n      jump\t// in\n    tag_186:\n      0xc0\n      mload(0x40)\n      dup1\n      dup4\n      sub\n      dup2\n      dup7\n      dup1\n      extcodesize\n      iszero\n      dup1\n      iszero\n      tag_187\n      jumpi\n      0x00\n      dup1\n      revert\n    tag_187:\n      pop\n      gas\n      staticcall\n      iszero\n      dup1\n      iszero\n      tag_189\n      jumpi\n      returndatasize\n      0x00\n      dup1\n      returndatacopy\n      revert(0x00, returndatasize)\n    tag_189:\n      pop\n      pop\n      pop\n      pop\n      mload(0x40)\n      returndatasize\n      not(0x1f)\n      0x1f\n      dup3\n      add\n      and\n      dup3\n      add\n      dup1\n      0x40\n      mstore\n      pop\n      dup2\n      add\n      swap1\n      tag_190\n      swap2\n      swap1\n      tag_191\n      jump\t// in\n    tag_190:\n        /* \"Launchpad v2.0/QubeBalance.sol\":3157:3197  qubeStakeFactory.userInfo(i).stakeAmount */\n      0x80\n      add\n      mload\n        /* \"Launchpad v2.0/QubeBalance.sol\":3146:3197  _balance+= qubeStakeFactory.userInfo(i).stakeAmount */\n      dup4\n      tag_192\n      swap2\n      swap1\n      tag_154\n      jump\t// in\n    tag_192:\n      swap3\n      pop\n        /* \"Launchpad v2.0/QubeBalance.sol\":3128:3131  i++ */\n      dup1\n      dup1\n      tag_193\n      swap1\n      tag_194\n      jump\t// in\n    tag_193:\n      swap2\n      pop\n      pop\n        /* \"Launchpad v2.0/QubeBalance.sol\":3095:3208  for (uint i=0; i<tickets.length; i++){... */\n      jump(tag_183)\n    tag_184:\n      pop\n        /* \"Launchpad v2.0/QubeBalance.sol\":3224:3232  _balance */\n      dup2\n        /* \"Launchpad v2.0/QubeBalance.sol\":3217:3232  return _balance */\n      swap3\n      pop\n      pop\n      pop\n        /* \"Launchpad v2.0/QubeBalance.sol\":2892:3239  function getQubeStakeFactoryBalance(address walletAddress)public view returns(uint256){... */\n      swap2\n      swap1\n      pop\n      jump\t// out\n        /* \"Launchpad v2.0/QubeBalance.sol\":2157:2285  function getQubeBalance(address walletAddress)public view returns (uint256){... */\n    tag_79:\n        /* \"Launchpad v2.0/QubeBalance.sol\":2224:2231  uint256 */\n      0x00\n        /* \"Launchpad v2.0/QubeBalance.sol\":2249:2253  qube */\n      0x01\n      0x00\n      swap1\n      sload\n      swap1\n      0x0100\n      exp\n      swap1\n      div\n      0xffffffffffffffffffffffffffffffffffffffff\n      and\n        /* \"Launchpad v2.0/QubeBalance.sol\":2249:2263  qube.balanceOf */\n      0xffffffffffffffffffffffffffffffffffffffff\n      and\n      0x70a08231\n        /* \"Launchpad v2.0/QubeBalance.sol\":2264:2277  walletAddress */\n      dup4\n        /* \"Launchpad v2.0/QubeBalance.sol\":2249:2278  qube.balanceOf(walletAddress) */\n      mload(0x40)\n      dup3\n      0xffffffff\n      and\n      0xe0\n      shl\n      dup2\n      mstore\n      0x04\n      add\n      tag_196\n      swap2\n      swap1\n      tag_109\n      jump\t// in\n    tag_196:\n      0x20\n      mload(0x40)\n      dup1\n      dup4\n      sub\n      dup2\n      dup7\n      dup1\n      extcodesize\n      iszero\n      dup1\n      iszero\n      tag_197\n      jumpi\n      0x00\n      dup1\n      revert\n    tag_197:\n      pop\n      gas\n      staticcall\n      iszero\n      dup1\n      iszero\n      tag_199\n      jumpi\n      returndatasize\n      0x00\n      dup1\n      returndatacopy\n      revert(0x00, returndatasize)\n    tag_199:\n      pop\n      pop\n      pop\n      pop\n      mload(0x40)\n      returndatasize\n      not(0x1f)\n      0x1f\n      dup3\n      add\n      and\n      dup3\n      add\n      dup1\n      0x40\n      mstore\n      pop\n      dup2\n      add\n      swap1\n      tag_200\n      swap2\n      swap1\n      tag_175\n      jump\t// in\n    tag_200:\n        /* \"Launchpad v2.0/QubeBalance.sol\":2242:2278  return qube.balanceOf(walletAddress) */\n      swap1\n      pop\n        /* \"Launchpad v2.0/QubeBalance.sol\":2157:2285  function getQubeBalance(address walletAddress)public view returns (uint256){... */\n      swap2\n      swap1\n      pop\n      jump\t// out\n        /* \"Launchpad v2.0/QubeBalance.sol\":2441:2887  function getPancakePairBalance(address walletAddress)public view returns (uint256){... */\n    tag_83:\n        /* \"Launchpad v2.0/QubeBalance.sol\":2515:2522  uint256 */\n      0x00\n        /* \"Launchpad v2.0/QubeBalance.sol\":2533:2553  uint112 _qubeBalance */\n      dup1\n        /* \"Launchpad v2.0/QubeBalance.sol\":2563:2583  uint112 _USDTBalance */\n      0x00\n        /* \"Launchpad v2.0/QubeBalance.sol\":2593:2619  uint32 _blockTimestampLast */\n      dup1\n        /* \"Launchpad v2.0/QubeBalance.sol\":2681:2692  pancakePair */\n      0x03\n      0x00\n      swap1\n      sload\n      swap1\n      0x0100\n      exp\n      swap1\n      div\n      0xffffffffffffffffffffffffffffffffffffffff\n      and\n        /* \"Launchpad v2.0/QubeBalance.sol\":2681:2704  pancakePair.getReserves */\n      0xffffffffffffffffffffffffffffffffffffffff\n      and\n      0x0902f1ac\n        /* \"Launchpad v2.0/QubeBalance.sol\":2681:2706  pancakePair.getReserves() */\n      mload(0x40)\n      dup2\n      0xffffffff\n      and\n      0xe0\n      shl\n      dup2\n      mstore\n      0x04\n      add\n      0x60\n      mload(0x40)\n      dup1\n      dup4\n      sub\n      dup2\n      dup7\n      dup1\n      extcodesize\n      iszero\n      dup1\n      iszero\n      tag_202\n      jumpi\n      0x00\n      dup1\n      revert\n    tag_202:\n      pop\n      gas\n      staticcall\n      iszero\n      dup1\n      iszero\n      tag_204\n      jumpi\n      returndatasize\n      0x00\n      dup1\n      returndatacopy\n      revert(0x00, returndatasize)\n    tag_204:\n      pop\n      pop\n      pop\n      pop\n      mload(0x40)\n      returndatasize\n      not(0x1f)\n      0x1f\n      dup3\n      add\n      and\n      dup3\n      add\n      dup1\n      0x40\n      mstore\n      pop\n      dup2\n      add\n      swap1\n      tag_205\n      swap2\n      swap1\n      tag_206\n      jump\t// in\n    tag_205:\n        /* \"Launchpad v2.0/QubeBalance.sol\":2629:2706  (_qubeBalance, _USDTBalance, _blockTimestampLast) = pancakePair.getReserves() */\n      dup1\n      swap4\n      pop\n      dup2\n      swap5\n      pop\n      dup3\n      swap6\n      pop\n      pop\n      pop\n      pop\n        /* \"Launchpad v2.0/QubeBalance.sol\":2717:2728  uint256 _LP */\n      0x00\n        /* \"Launchpad v2.0/QubeBalance.sol\":2731:2779  uint256(_qubeBalance).div(uint256(_USDTBalance)) */\n      tag_207\n        /* \"Launchpad v2.0/QubeBalance.sol\":2765:2777  _USDTBalance */\n      dup4\n        /* \"Launchpad v2.0/QubeBalance.sol\":2757:2778  uint256(_USDTBalance) */\n      0xffffffffffffffffffffffffffff\n      and\n        /* \"Launchpad v2.0/QubeBalance.sol\":2739:2751  _qubeBalance */\n      dup6\n        /* \"Launchpad v2.0/QubeBalance.sol\":2731:2752  uint256(_qubeBalance) */\n      0xffffffffffffffffffffffffffff\n      and\n        /* \"Launchpad v2.0/QubeBalance.sol\":2731:2756  uint256(_qubeBalance).div */\n      tag_208\n      swap1\n        /* \"Launchpad v2.0/QubeBalance.sol\":2731:2779  uint256(_qubeBalance).div(uint256(_USDTBalance)) */\n      swap2\n      swap1\n      0xffffffff\n      and\n      jump\t// in\n    tag_207:\n        /* \"Launchpad v2.0/QubeBalance.sol\":2717:2779  uint256 _LP = uint256(_qubeBalance).div(uint256(_USDTBalance)) */\n      swap1\n      pop\n        /* \"Launchpad v2.0/QubeBalance.sol\":2789:2807  uint256 _balanceOf */\n      0x00\n        /* \"Launchpad v2.0/QubeBalance.sol\":2808:2819  pancakePair */\n      0x03\n      0x00\n      swap1\n      sload\n      swap1\n      0x0100\n      exp\n      swap1\n      div\n      0xffffffffffffffffffffffffffffffffffffffff\n      and\n        /* \"Launchpad v2.0/QubeBalance.sol\":2808:2829  pancakePair.balanceOf */\n      0xffffffffffffffffffffffffffffffffffffffff\n      and\n      0x70a08231\n        /* \"Launchpad v2.0/QubeBalance.sol\":2830:2843  walletAddress */\n      dup9\n        /* \"Launchpad v2.0/QubeBalance.sol\":2808:2844  pancakePair.balanceOf(walletAddress) */\n      mload(0x40)\n      dup3\n      0xffffffff\n      and\n      0xe0\n      shl\n      dup2\n      mstore\n      0x04\n      add\n      tag_209\n      swap2\n      swap1\n      tag_109\n      jump\t// in\n    tag_209:\n      0x20\n      mload(0x40)\n      dup1\n      dup4\n      sub\n      dup2\n      dup7\n      dup1\n      extcodesize\n      iszero\n      dup1\n      iszero\n      tag_210\n      jumpi\n      0x00\n      dup1\n      revert\n    tag_210:\n      pop\n      gas\n      staticcall\n      iszero\n      dup1\n      iszero\n      tag_212\n      jumpi\n      returndatasize\n      0x00\n      dup1\n      returndatacopy\n      revert(0x00, returndatasize)\n    tag_212:\n      pop\n      pop\n      pop\n      pop\n      mload(0x40)\n      returndatasize\n      not(0x1f)\n      0x1f\n      dup3\n      add\n      and\n      dup3\n      add\n      dup1\n      0x40\n      mstore\n      pop\n      dup2\n      add\n      swap1\n      tag_213\n      swap2\n      swap1\n      tag_175\n      jump\t// in\n    tag_213:\n        /* \"Launchpad v2.0/QubeBalance.sol\":2789:2844  uint256 _balanceOf=pancakePair.balanceOf(walletAddress) */\n      swap1\n      pop\n        /* \"Launchpad v2.0/QubeBalance.sol\":2861:2880  _LP.mul(_balanceOf) */\n      tag_214\n        /* \"Launchpad v2.0/QubeBalance.sol\":2869:2879  _balanceOf */\n      dup2\n        /* \"Launchpad v2.0/QubeBalance.sol\":2861:2864  _LP */\n      dup4\n        /* \"Launchpad v2.0/QubeBalance.sol\":2861:2868  _LP.mul */\n      tag_215\n      swap1\n        /* \"Launchpad v2.0/QubeBalance.sol\":2861:2880  _LP.mul(_balanceOf) */\n      swap2\n      swap1\n      0xffffffff\n      and\n      jump\t// in\n    tag_214:\n        /* \"Launchpad v2.0/QubeBalance.sol\":2854:2880  return _LP.mul(_balanceOf) */\n      swap6\n      pop\n      pop\n      pop\n      pop\n      pop\n      pop\n        /* \"Launchpad v2.0/QubeBalance.sol\":2441:2887  function getPancakePairBalance(address walletAddress)public view returns (uint256){... */\n      swap2\n      swap1\n      pop\n      jump\t// out\n        /* \"Launchpad v2.0/QubeBalance.sol\":1184:1449  function removeNFT(address _user, uint256 _ID) public{... */\n    tag_88:\n        /* \"Launchpad v2.0/QubeBalance.sol\":1304:1307  _ID */\n      dup1\n        /* \"Launchpad v2.0/QubeBalance.sol\":1253:1260  userNFT */\n      0x08\n        /* \"Launchpad v2.0/QubeBalance.sol\":1253:1267  userNFT[_user] */\n      0x00\n        /* \"Launchpad v2.0/QubeBalance.sol\":1261:1266  _user */\n      dup5\n        /* \"Launchpad v2.0/QubeBalance.sol\":1253:1267  userNFT[_user] */\n      0xffffffffffffffffffffffffffffffffffffffff\n      and\n      0xffffffffffffffffffffffffffffffffffffffff\n      and\n      dup2\n      mstore\n      0x20\n      add\n      swap1\n      dup2\n      mstore\n      0x20\n      add\n      0x00\n      keccak256\n        /* \"Launchpad v2.0/QubeBalance.sol\":1253:1271  userNFT[_user].IDs */\n      0x01\n      add\n        /* \"Launchpad v2.0/QubeBalance.sol\":1300:1301  1 */\n      0x01\n        /* \"Launchpad v2.0/QubeBalance.sol\":1272:1279  userNFT */\n      0x08\n        /* \"Launchpad v2.0/QubeBalance.sol\":1272:1286  userNFT[_user] */\n      0x00\n        /* \"Launchpad v2.0/QubeBalance.sol\":1280:1285  _user */\n      dup7\n        /* \"Launchpad v2.0/QubeBalance.sol\":1272:1286  userNFT[_user] */\n      0xffffffffffffffffffffffffffffffffffffffff\n      and\n      0xffffffffffffffffffffffffffffffffffffffff\n      and\n      dup2\n      mstore\n      0x20\n      add\n      swap1\n      dup2\n      mstore\n      0x20\n      add\n      0x00\n      keccak256\n        /* \"Launchpad v2.0/QubeBalance.sol\":1272:1290  userNFT[_user].IDs */\n      0x01\n      add\n        /* \"Launchpad v2.0/QubeBalance.sol\":1272:1297  userNFT[_user].IDs.length */\n      dup1\n      sload\n      swap1\n      pop\n        /* \"Launchpad v2.0/QubeBalance.sol\":1272:1301  userNFT[_user].IDs.length - 1 */\n      tag_217\n      swap2\n      swap1\n      tag_218\n      jump\t// in\n    tag_217:\n        /* \"Launchpad v2.0/QubeBalance.sol\":1253:1302  userNFT[_user].IDs[userNFT[_user].IDs.length - 1] */\n      dup2\n      sload\n      dup2\n      lt\n      tag_219\n      jumpi\n      tag_220\n      tag_221\n      jump\t// in\n    tag_220:\n    tag_219:\n      swap1\n      0x00\n      mstore\n      keccak256(0x00, 0x20)\n      add\n      sload\n        /* \"Launchpad v2.0/QubeBalance.sol\":1253:1307  userNFT[_user].IDs[userNFT[_user].IDs.length - 1]==_ID */\n      eq\n        /* \"Launchpad v2.0/QubeBalance.sol\":1247:1409  if (!(userNFT[_user].IDs[userNFT[_user].IDs.length - 1]==_ID)){... */\n      tag_223\n      jumpi\n        /* \"Launchpad v2.0/QubeBalance.sol\":1349:1356  userNFT */\n      0x08\n        /* \"Launchpad v2.0/QubeBalance.sol\":1349:1363  userNFT[_user] */\n      0x00\n        /* \"Launchpad v2.0/QubeBalance.sol\":1357:1362  _user */\n      dup4\n        /* \"Launchpad v2.0/QubeBalance.sol\":1349:1363  userNFT[_user] */\n      0xffffffffffffffffffffffffffffffffffffffff\n      and\n      0xffffffffffffffffffffffffffffffffffffffff\n      and\n      dup2\n      mstore\n      0x20\n      add\n      swap1\n      dup2\n      mstore\n      0x20\n      add\n      0x00\n      keccak256\n        /* \"Launchpad v2.0/QubeBalance.sol\":1349:1367  userNFT[_user].IDs */\n      0x01\n      add\n        /* \"Launchpad v2.0/QubeBalance.sol\":1396:1397  1 */\n      0x01\n        /* \"Launchpad v2.0/QubeBalance.sol\":1368:1375  userNFT */\n      0x08\n        /* \"Launchpad v2.0/QubeBalance.sol\":1368:1382  userNFT[_user] */\n      0x00\n        /* \"Launchpad v2.0/QubeBalance.sol\":1376:1381  _user */\n      dup6\n        /* \"Launchpad v2.0/QubeBalance.sol\":1368:1382  userNFT[_user] */\n      0xffffffffffffffffffffffffffffffffffffffff\n      and\n      0xffffffffffffffffffffffffffffffffffffffff\n      and\n      dup2\n      mstore\n      0x20\n      add\n      swap1\n      dup2\n      mstore\n      0x20\n      add\n      0x00\n      keccak256\n        /* \"Launchpad v2.0/QubeBalance.sol\":1368:1386  userNFT[_user].IDs */\n      0x01\n      add\n        /* \"Launchpad v2.0/QubeBalance.sol\":1368:1393  userNFT[_user].IDs.length */\n      dup1\n      sload\n      swap1\n      pop\n        /* \"Launchpad v2.0/QubeBalance.sol\":1368:1397  userNFT[_user].IDs.length - 1 */\n      tag_224\n      swap2\n      swap1\n      tag_218\n      jump\t// in\n    tag_224:\n        /* \"Launchpad v2.0/QubeBalance.sol\":1349:1398  userNFT[_user].IDs[userNFT[_user].IDs.length - 1] */\n      dup2\n      sload\n      dup2\n      lt\n      tag_225\n      jumpi\n      tag_226\n      tag_221\n      jump\t// in\n    tag_226:\n    tag_225:\n      swap1\n      0x00\n      mstore\n      keccak256(0x00, 0x20)\n      add\n      sload\n        /* \"Launchpad v2.0/QubeBalance.sol\":1323:1330  userNFT */\n      0x08\n        /* \"Launchpad v2.0/QubeBalance.sol\":1323:1337  userNFT[_user] */\n      0x00\n        /* \"Launchpad v2.0/QubeBalance.sol\":1331:1336  _user */\n      dup5\n        /* \"Launchpad v2.0/QubeBalance.sol\":1323:1337  userNFT[_user] */\n      0xffffffffffffffffffffffffffffffffffffffff\n      and\n      0xffffffffffffffffffffffffffffffffffffffff\n      and\n      dup2\n      mstore\n      0x20\n      add\n      swap1\n      dup2\n      mstore\n      0x20\n      add\n      0x00\n      keccak256\n        /* \"Launchpad v2.0/QubeBalance.sol\":1323:1341  userNFT[_user].IDs */\n      0x01\n      add\n        /* \"Launchpad v2.0/QubeBalance.sol\":1342:1345  _ID */\n      dup3\n        /* \"Launchpad v2.0/QubeBalance.sol\":1323:1346  userNFT[_user].IDs[_ID] */\n      dup2\n      sload\n      dup2\n      lt\n      tag_228\n      jumpi\n      tag_229\n      tag_221\n      jump\t// in\n    tag_229:\n    tag_228:\n      swap1\n      0x00\n      mstore\n      keccak256(0x00, 0x20)\n      add\n        /* \"Launchpad v2.0/QubeBalance.sol\":1323:1398  userNFT[_user].IDs[_ID] = userNFT[_user].IDs[userNFT[_user].IDs.length - 1] */\n      dup2\n      swap1\n      sstore\n      pop\n        /* \"Launchpad v2.0/QubeBalance.sol\":1247:1409  if (!(userNFT[_user].IDs[userNFT[_user].IDs.length - 1]==_ID)){... */\n    tag_223:\n        /* \"Launchpad v2.0/QubeBalance.sol\":1418:1425  userNFT */\n      0x08\n        /* \"Launchpad v2.0/QubeBalance.sol\":1418:1432  userNFT[_user] */\n      0x00\n        /* \"Launchpad v2.0/QubeBalance.sol\":1426:1431  _user */\n      dup4\n        /* \"Launchpad v2.0/QubeBalance.sol\":1418:1432  userNFT[_user] */\n      0xffffffffffffffffffffffffffffffffffffffff\n      and\n      0xffffffffffffffffffffffffffffffffffffffff\n      and\n      dup2\n      mstore\n      0x20\n      add\n      swap1\n      dup2\n      mstore\n      0x20\n      add\n      0x00\n      keccak256\n        /* \"Launchpad v2.0/QubeBalance.sol\":1418:1436  userNFT[_user].IDs */\n      0x01\n      add\n        /* \"Launchpad v2.0/QubeBalance.sol\":1418:1442  userNFT[_user].IDs.pop() */\n      dup1\n      sload\n      dup1\n      tag_231\n      jumpi\n      tag_232\n      tag_233\n      jump\t// in\n    tag_232:\n    tag_231:\n      0x01\n      swap1\n      sub\n      dup2\n      dup2\n      swap1\n      0x00\n      mstore\n      keccak256(0x00, 0x20)\n      add\n      0x00\n      swap1\n      sstore\n      swap1\n      sstore\n        /* \"Launchpad v2.0/QubeBalance.sol\":1184:1449  function removeNFT(address _user, uint256 _ID) public{... */\n      pop\n      pop\n      jump\t// out\n        /* \"Launchpad v2.0/QubeBalance.sol\":872:890  IBEP20 public qube */\n    tag_90:\n      0x01\n      0x00\n      swap1\n      sload\n      swap1\n      0x0100\n      exp\n      swap1\n      div\n      0xffffffffffffffffffffffffffffffffffffffff\n      and\n      dup2\n      jump\t// out\n        /* \"Launchpad v2.0/Ownable.sol\":1612:1704  function renounceOwnership() public virtual onlyOwner {... */\n    tag_94:\n        /* \"Launchpad v2.0/Ownable.sol\":1203:1215  _msgSender() */\n      tag_236\n        /* \"Launchpad v2.0/Ownable.sol\":1203:1213  _msgSender */\n      tag_136\n        /* \"Launchpad v2.0/Ownable.sol\":1203:1215  _msgSender() */\n      jump\t// in\n    tag_236:\n        /* \"Launchpad v2.0/Ownable.sol\":1192:1215  owner() == _msgSender() */\n      0xffffffffffffffffffffffffffffffffffffffff\n      and\n        /* \"Launchpad v2.0/Ownable.sol\":1192:1199  owner() */\n      tag_237\n        /* \"Launchpad v2.0/Ownable.sol\":1192:1197  owner */\n      tag_107\n        /* \"Launchpad v2.0/Ownable.sol\":1192:1199  owner() */\n      jump\t// in\n    tag_237:\n        /* \"Launchpad v2.0/Ownable.sol\":1192:1215  owner() == _msgSender() */\n      0xffffffffffffffffffffffffffffffffffffffff\n      and\n      eq\n        /* \"Launchpad v2.0/Ownable.sol\":1184:1252  require(owner() == _msgSender(), \"Ownable: caller is not the owner\") */\n      tag_238\n      jumpi\n      mload(0x40)\n      0x08c379a000000000000000000000000000000000000000000000000000000000\n      dup2\n      mstore\n      0x04\n      add\n      tag_239\n      swap1\n      tag_140\n      jump\t// in\n    tag_239:\n      mload(0x40)\n      dup1\n      swap2\n      sub\n      swap1\n      revert\n    tag_238:\n        /* \"Launchpad v2.0/Ownable.sol\":1676:1697  _setOwner(address(0)) */\n      tag_241\n        /* \"Launchpad v2.0/Ownable.sol\":1694:1695  0 */\n      0x00\n        /* \"Launchpad v2.0/Ownable.sol\":1676:1685  _setOwner */\n      tag_242\n        /* \"Launchpad v2.0/Ownable.sol\":1676:1697  _setOwner(address(0)) */\n      jump\t// in\n    tag_241:\n        /* \"Launchpad v2.0/Ownable.sol\":1612:1704  function renounceOwnership() public virtual onlyOwner {... */\n      jump\t// out\n        /* \"Launchpad v2.0/QubeBalance.sol\":2063:2151  function setDiamond(IERC1155 _diamond) public onlyOwner{... */\n    tag_97:\n        /* \"Launchpad v2.0/Ownable.sol\":1203:1215  _msgSender() */\n      tag_244\n        /* \"Launchpad v2.0/Ownable.sol\":1203:1213  _msgSender */\n      tag_136\n        /* \"Launchpad v2.0/Ownable.sol\":1203:1215  _msgSender() */\n      jump\t// in\n    tag_244:\n        /* \"Launchpad v2.0/Ownable.sol\":1192:1215  owner() == _msgSender() */\n      0xffffffffffffffffffffffffffffffffffffffff\n      and\n        /* \"Launchpad v2.0/Ownable.sol\":1192:1199  owner() */\n      tag_245\n        /* \"Launchpad v2.0/Ownable.sol\":1192:1197  owner */\n      tag_107\n        /* \"Launchpad v2.0/Ownable.sol\":1192:1199  owner() */\n      jump\t// in\n    tag_245:\n        /* \"Launchpad v2.0/Ownable.sol\":1192:1215  owner() == _msgSender() */\n      0xffffffffffffffffffffffffffffffffffffffff\n      and\n      eq\n        /* \"Launchpad v2.0/Ownable.sol\":1184:1252  require(owner() == _msgSender(), \"Ownable: caller is not the owner\") */\n      tag_246\n      jumpi\n      mload(0x40)\n      0x08c379a000000000000000000000000000000000000000000000000000000000\n      dup2\n      mstore\n      0x04\n      add\n      tag_247\n      swap1\n      tag_140\n      jump\t// in\n    tag_247:\n      mload(0x40)\n      dup1\n      swap2\n      sub\n      swap1\n      revert\n    tag_246:\n        /* \"Launchpad v2.0/QubeBalance.sol\":2136:2144  _diamond */\n      dup1\n        /* \"Launchpad v2.0/QubeBalance.sol\":2128:2135  diamond */\n      0x07\n      0x00\n        /* \"Launchpad v2.0/QubeBalance.sol\":2128:2144  diamond=_diamond */\n      0x0100\n      exp\n      dup2\n      sload\n      dup2\n      0xffffffffffffffffffffffffffffffffffffffff\n      mul\n      not\n      and\n      swap1\n      dup4\n      0xffffffffffffffffffffffffffffffffffffffff\n      and\n      mul\n      or\n      swap1\n      sstore\n      pop\n        /* \"Launchpad v2.0/QubeBalance.sol\":2063:2151  function setDiamond(IERC1155 _diamond) public onlyOwner{... */\n      pop\n      jump\t// out\n        /* \"Launchpad v2.0/QubeBalance.sol\":969:1009  QubeStakeFactory public qubeStakeFactory */\n    tag_99:\n      0x04\n      0x00\n      swap1\n      sload\n      swap1\n      0x0100\n      exp\n      swap1\n      div\n      0xffffffffffffffffffffffffffffffffffffffff\n      and\n      dup2\n      jump\t// out\n        /* \"Launchpad v2.0/QubeBalance.sol\":1646:1758  function setQubePancakePair(IPancakePair _pancakePair) public onlyOwner{... */\n    tag_105:\n        /* \"Launchpad v2.0/Ownable.sol\":1203:1215  _msgSender() */\n      tag_250\n        /* \"Launchpad v2.0/Ownable.sol\":1203:1213  _msgSender */\n      tag_136\n        /* \"Launchpad v2.0/Ownable.sol\":1203:1215  _msgSender() */\n      jump\t// in\n    tag_250:\n        /* \"Launchpad v2.0/Ownable.sol\":1192:1215  owner() == _msgSender() */\n      0xffffffffffffffffffffffffffffffffffffffff\n      and\n        /* \"Launchpad v2.0/Ownable.sol\":1192:1199  owner() */\n      tag_251\n        /* \"Launchpad v2.0/Ownable.sol\":1192:1197  owner */\n      tag_107\n        /* \"Launchpad v2.0/Ownable.sol\":1192:1199  owner() */\n      jump\t// in\n    tag_251:\n        /* \"Launchpad v2.0/Ownable.sol\":1192:1215  owner() == _msgSender() */\n      0xffffffffffffffffffffffffffffffffffffffff\n      and\n      eq\n        /* \"Launchpad v2.0/Ownable.sol\":1184:1252  require(owner() == _msgSender(), \"Ownable: caller is not the owner\") */\n      tag_252\n      jumpi\n      mload(0x40)\n      0x08c379a000000000000000000000000000000000000000000000000000000000\n      dup2\n      mstore\n      0x04\n      add\n      tag_253\n      swap1\n      tag_140\n      jump\t// in\n    tag_253:\n      mload(0x40)\n      dup1\n      swap2\n      sub\n      swap1\n      revert\n    tag_252:\n        /* \"Launchpad v2.0/QubeBalance.sol\":1739:1751  _pancakePair */\n      dup1\n        /* \"Launchpad v2.0/QubeBalance.sol\":1727:1738  pancakePair */\n      0x03\n      0x00\n        /* \"Launchpad v2.0/QubeBalance.sol\":1727:1751  pancakePair=_pancakePair */\n      0x0100\n      exp\n      dup2\n      sload\n      dup2\n      0xffffffffffffffffffffffffffffffffffffffff\n      mul\n      not\n      and\n      swap1\n      dup4\n      0xffffffffffffffffffffffffffffffffffffffff\n      and\n      mul\n      or\n      swap1\n      sstore\n      pop\n        /* \"Launchpad v2.0/QubeBalance.sol\":1646:1758  function setQubePancakePair(IPancakePair _pancakePair) public onlyOwner{... */\n      pop\n      jump\t// out\n        /* \"Launchpad v2.0/Ownable.sol\":980:1065  function owner() public view virtual returns (address) {... */\n    tag_107:\n        /* \"Launchpad v2.0/Ownable.sol\":1026:1033  address */\n      0x00\n        /* \"Launchpad v2.0/Ownable.sol\":1052:1058  _owner */\n      dup1\n      0x00\n      swap1\n      sload\n      swap1\n      0x0100\n      exp\n      swap1\n      div\n      0xffffffffffffffffffffffffffffffffffffffff\n      and\n        /* \"Launchpad v2.0/Ownable.sol\":1045:1058  return _owner */\n      swap1\n      pop\n        /* \"Launchpad v2.0/Ownable.sol\":980:1065  function owner() public view virtual returns (address) {... */\n      swap1\n      jump\t// out\n        /* \"Launchpad v2.0/QubeBalance.sol\":3941:4221  function qubeBalanceWithNFT(address walletAddress) public view returns (uint256){... */\n    tag_112:\n        /* \"Launchpad v2.0/QubeBalance.sol\":4013:4020  uint256 */\n      0x00\n        /* \"Launchpad v2.0/QubeBalance.sol\":4186:4214  getNFTBalance(walletAddress) */\n      tag_257\n        /* \"Launchpad v2.0/QubeBalance.sol\":4200:4213  walletAddress */\n      dup3\n        /* \"Launchpad v2.0/QubeBalance.sol\":4186:4199  getNFTBalance */\n      tag_120\n        /* \"Launchpad v2.0/QubeBalance.sol\":4186:4214  getNFTBalance(walletAddress) */\n      jump\t// in\n    tag_257:\n        /* \"Launchpad v2.0/QubeBalance.sol\":4144:4185  getQubeStakeFactoryBalance(walletAddress) */\n      tag_258\n        /* \"Launchpad v2.0/QubeBalance.sol\":4171:4184  walletAddress */\n      dup4\n        /* \"Launchpad v2.0/QubeBalance.sol\":4144:4170  getQubeStakeFactoryBalance */\n      tag_75\n        /* \"Launchpad v2.0/QubeBalance.sol\":4144:4185  getQubeStakeFactoryBalance(walletAddress) */\n      jump\t// in\n    tag_258:\n        /* \"Launchpad v2.0/QubeBalance.sol\":4107:4143  getPancakePairBalance(walletAddress) */\n      tag_259\n        /* \"Launchpad v2.0/QubeBalance.sol\":4129:4142  walletAddress */\n      dup5\n        /* \"Launchpad v2.0/QubeBalance.sol\":4107:4128  getPancakePairBalance */\n      tag_83\n        /* \"Launchpad v2.0/QubeBalance.sol\":4107:4143  getPancakePairBalance(walletAddress) */\n      jump\t// in\n    tag_259:\n        /* \"Launchpad v2.0/QubeBalance.sol\":4070:4106  getQubePresaleBalance(walletAddress) */\n      tag_260\n        /* \"Launchpad v2.0/QubeBalance.sol\":4092:4105  walletAddress */\n      dup6\n        /* \"Launchpad v2.0/QubeBalance.sol\":4070:4091  getQubePresaleBalance */\n      tag_71\n        /* \"Launchpad v2.0/QubeBalance.sol\":4070:4106  getQubePresaleBalance(walletAddress) */\n      jump\t// in\n    tag_260:\n        /* \"Launchpad v2.0/QubeBalance.sol\":4038:4067  getQubeBalance(walletAddress) */\n      tag_261\n        /* \"Launchpad v2.0/QubeBalance.sol\":4053:4066  walletAddress */\n      dup7\n        /* \"Launchpad v2.0/QubeBalance.sol\":4038:4052  getQubeBalance */\n      tag_79\n        /* \"Launchpad v2.0/QubeBalance.sol\":4038:4067  getQubeBalance(walletAddress) */\n      jump\t// in\n    tag_261:\n        /* \"Launchpad v2.0/QubeBalance.sol\":4038:4106  getQubeBalance(walletAddress) + getQubePresaleBalance(walletAddress) */\n      tag_262\n      swap2\n      swap1\n      tag_154\n      jump\t// in\n    tag_262:\n        /* \"Launchpad v2.0/QubeBalance.sol\":4038:4143  getQubeBalance(walletAddress) + getQubePresaleBalance(walletAddress)+getPancakePairBalance(walletAddress) */\n      tag_263\n      swap2\n      swap1\n      tag_154\n      jump\t// in\n    tag_263:\n        /* \"Launchpad v2.0/QubeBalance.sol\":4038:4185  getQubeBalance(walletAddress) + getQubePresaleBalance(walletAddress)+getPancakePairBalance(walletAddress)+getQubeStakeFactoryBalance(walletAddress) */\n      tag_264\n      swap2\n      swap1\n      tag_154\n      jump\t// in\n    tag_264:\n        /* \"Launchpad v2.0/QubeBalance.sol\":4038:4214  getQubeBalance(walletAddress) + getQubePresaleBalance(walletAddress)+getPancakePairBalance(walletAddress)+getQubeStakeFactoryBalance(walletAddress)+getNFTBalance(walletAddress) */\n      tag_265\n      swap2\n      swap1\n      tag_154\n      jump\t// in\n    tag_265:\n        /* \"Launchpad v2.0/QubeBalance.sol\":4031:4214  return getQubeBalance(walletAddress) + getQubePresaleBalance(walletAddress)+getPancakePairBalance(walletAddress)+getQubeStakeFactoryBalance(walletAddress)+getNFTBalance(walletAddress) */\n      swap1\n      pop\n        /* \"Launchpad v2.0/QubeBalance.sol\":3941:4221  function qubeBalanceWithNFT(address walletAddress) public view returns (uint256){... */\n      swap2\n      swap1\n      pop\n      jump\t// out\n        /* \"Launchpad v2.0/QubeBalance.sol\":932:963  IPancakePair public pancakePair */\n    tag_115:\n      0x03\n      0x00\n      swap1\n      sload\n      swap1\n      0x0100\n      exp\n      swap1\n      div\n      0xffffffffffffffffffffffffffffffffffffffff\n      and\n      dup2\n      jump\t// out\n        /* \"Launchpad v2.0/QubeBalance.sol\":3244:3682  function getNFTBalance(address walletAddress)public view returns (uint256){... */\n    tag_120:\n        /* \"Launchpad v2.0/QubeBalance.sol\":3310:3317  uint256 */\n      0x00\n        /* \"Launchpad v2.0/QubeBalance.sol\":3328:3343  uint256 balance */\n      dup1\n        /* \"Launchpad v2.0/QubeBalance.sol\":3344:3345  0 */\n      0x00\n        /* \"Launchpad v2.0/QubeBalance.sol\":3328:3345  uint256 balance=0 */\n      swap1\n      pop\n        /* \"Launchpad v2.0/QubeBalance.sol\":3360:3366  uint i */\n      0x00\n        /* \"Launchpad v2.0/QubeBalance.sol\":3355:3449  for (uint i=0;i<=1100;i++){... */\n    tag_267:\n        /* \"Launchpad v2.0/QubeBalance.sol\":3372:3376  1100 */\n      0x044c\n        /* \"Launchpad v2.0/QubeBalance.sol\":3369:3370  i */\n      dup2\n        /* \"Launchpad v2.0/QubeBalance.sol\":3369:3376  i<=1100 */\n      gt\n        /* \"Launchpad v2.0/QubeBalance.sol\":3355:3449  for (uint i=0;i<=1100;i++){... */\n      tag_268\n      jumpi\n        /* \"Launchpad v2.0/QubeBalance.sol\":3404:3410  silver */\n      0x05\n      0x00\n      swap1\n      sload\n      swap1\n      0x0100\n      exp\n      swap1\n      div\n      0xffffffffffffffffffffffffffffffffffffffff\n      and\n        /* \"Launchpad v2.0/QubeBalance.sol\":3404:3420  silver.balanceOf */\n      0xffffffffffffffffffffffffffffffffffffffff\n      and\n      0xfdd58e\n        /* \"Launchpad v2.0/QubeBalance.sol\":3421:3434  walletAddress */\n      dup6\n        /* \"Launchpad v2.0/QubeBalance.sol\":3436:3437  i */\n      dup4\n        /* \"Launchpad v2.0/QubeBalance.sol\":3404:3438  silver.balanceOf(walletAddress, i) */\n      mload(0x40)\n      dup4\n      0xffffffff\n      and\n      0xe0\n      shl\n      dup2\n      mstore\n      0x04\n      add\n      tag_270\n      swap3\n      swap2\n      swap1\n      tag_271\n      jump\t// in\n    tag_270:\n      0x20\n      mload(0x40)\n      dup1\n      dup4\n      sub\n      dup2\n      dup7\n      dup1\n      extcodesize\n      iszero\n      dup1\n      iszero\n      tag_272\n      jumpi\n      0x00\n      dup1\n      revert\n    tag_272:\n      pop\n      gas\n      staticcall\n      iszero\n      dup1\n      iszero\n      tag_274\n      jumpi\n      returndatasize\n      0x00\n      dup1\n      returndatacopy\n      revert(0x00, returndatasize)\n    tag_274:\n      pop\n      pop\n      pop\n      pop\n      mload(0x40)\n      returndatasize\n      not(0x1f)\n      0x1f\n      dup3\n      add\n      and\n      dup3\n      add\n      dup1\n      0x40\n      mstore\n      pop\n      dup2\n      add\n      swap1\n      tag_275\n      swap2\n      swap1\n      tag_175\n      jump\t// in\n    tag_275:\n        /* \"Launchpad v2.0/QubeBalance.sol\":3395:3438  balance+=silver.balanceOf(walletAddress, i) */\n      dup3\n      tag_276\n      swap2\n      swap1\n      tag_154\n      jump\t// in\n    tag_276:\n      swap2\n      pop\n        /* \"Launchpad v2.0/QubeBalance.sol\":3377:3380  i++ */\n      dup1\n      dup1\n      tag_277\n      swap1\n      tag_194\n      jump\t// in\n    tag_277:\n      swap2\n      pop\n      pop\n        /* \"Launchpad v2.0/QubeBalance.sol\":3355:3449  for (uint i=0;i<=1100;i++){... */\n      jump(tag_267)\n    tag_268:\n      pop\n        /* \"Launchpad v2.0/QubeBalance.sol\":3463:3469  uint i */\n      0x00\n        /* \"Launchpad v2.0/QubeBalance.sol\":3458:3549  for (uint i=0;i<=300;i++){... */\n    tag_278:\n        /* \"Launchpad v2.0/QubeBalance.sol\":3475:3478  300 */\n      0x012c\n        /* \"Launchpad v2.0/QubeBalance.sol\":3472:3473  i */\n      dup2\n        /* \"Launchpad v2.0/QubeBalance.sol\":3472:3478  i<=300 */\n      gt\n        /* \"Launchpad v2.0/QubeBalance.sol\":3458:3549  for (uint i=0;i<=300;i++){... */\n      tag_279\n      jumpi\n        /* \"Launchpad v2.0/QubeBalance.sol\":3506:3510  gold */\n      0x06\n      0x00\n      swap1\n      sload\n      swap1\n      0x0100\n      exp\n      swap1\n      div\n      0xffffffffffffffffffffffffffffffffffffffff\n      and\n        /* \"Launchpad v2.0/QubeBalance.sol\":3506:3520  gold.balanceOf */\n      0xffffffffffffffffffffffffffffffffffffffff\n      and\n      0xfdd58e\n        /* \"Launchpad v2.0/QubeBalance.sol\":3521:3534  walletAddress */\n      dup6\n        /* \"Launchpad v2.0/QubeBalance.sol\":3536:3537  i */\n      dup4\n        /* \"Launchpad v2.0/QubeBalance.sol\":3506:3538  gold.balanceOf(walletAddress, i) */\n      mload(0x40)\n      dup4\n      0xffffffff\n      and\n      0xe0\n      shl\n      dup2\n      mstore\n      0x04\n      add\n      tag_281\n      swap3\n      swap2\n      swap1\n      tag_271\n      jump\t// in\n    tag_281:\n      0x20\n      mload(0x40)\n      dup1\n      dup4\n      sub\n      dup2\n      dup7\n      dup1\n      extcodesize\n      iszero\n      dup1\n      iszero\n      tag_282\n      jumpi\n      0x00\n      dup1\n      revert\n    tag_282:\n      pop\n      gas\n      staticcall\n      iszero\n      dup1\n      iszero\n      tag_284\n      jumpi\n      returndatasize\n      0x00\n      dup1\n      returndatacopy\n      revert(0x00, returndatasize)\n    tag_284:\n      pop\n      pop\n      pop\n      pop\n      mload(0x40)\n      returndatasize\n      not(0x1f)\n      0x1f\n      dup3\n      add\n      and\n      dup3\n      add\n      dup1\n      0x40\n      mstore\n      pop\n      dup2\n      add\n      swap1\n      tag_285\n      swap2\n      swap1\n      tag_175\n      jump\t// in\n    tag_285:\n        /* \"Launchpad v2.0/QubeBalance.sol\":3497:3538  balance+=gold.balanceOf(walletAddress, i) */\n      dup3\n      tag_286\n      swap2\n      swap1\n      tag_154\n      jump\t// in\n    tag_286:\n      swap2\n      pop\n        /* \"Launchpad v2.0/QubeBalance.sol\":3479:3482  i++ */\n      dup1\n      dup1\n      tag_287\n      swap1\n      tag_194\n      jump\t// in\n    tag_287:\n      swap2\n      pop\n      pop\n        /* \"Launchpad v2.0/QubeBalance.sol\":3458:3549  for (uint i=0;i<=300;i++){... */\n      jump(tag_278)\n    tag_279:\n      pop\n        /* \"Launchpad v2.0/QubeBalance.sol\":3563:3569  uint i */\n      0x00\n        /* \"Launchpad v2.0/QubeBalance.sol\":3558:3652  for (uint i=0;i<=100;i++){... */\n    tag_288:\n        /* \"Launchpad v2.0/QubeBalance.sol\":3575:3578  100 */\n      0x64\n        /* \"Launchpad v2.0/QubeBalance.sol\":3572:3573  i */\n      dup2\n        /* \"Launchpad v2.0/QubeBalance.sol\":3572:3578  i<=100 */\n      gt\n        /* \"Launchpad v2.0/QubeBalance.sol\":3558:3652  for (uint i=0;i<=100;i++){... */\n      tag_289\n      jumpi\n        /* \"Launchpad v2.0/QubeBalance.sol\":3606:3613  diamond */\n      0x07\n      0x00\n      swap1\n      sload\n      swap1\n      0x0100\n      exp\n      swap1\n      div\n      0xffffffffffffffffffffffffffffffffffffffff\n      and\n        /* \"Launchpad v2.0/QubeBalance.sol\":3606:3623  diamond.balanceOf */\n      0xffffffffffffffffffffffffffffffffffffffff\n      and\n      0xfdd58e\n        /* \"Launchpad v2.0/QubeBalance.sol\":3624:3637  walletAddress */\n      dup6\n        /* \"Launchpad v2.0/QubeBalance.sol\":3639:3640  i */\n      dup4\n        /* \"Launchpad v2.0/QubeBalance.sol\":3606:3641  diamond.balanceOf(walletAddress, i) */\n      mload(0x40)\n      dup4\n      0xffffffff\n      and\n      0xe0\n      shl\n      dup2\n      mstore\n      0x04\n      add\n      tag_291\n      swap3\n      swap2\n      swap1\n      tag_271\n      jump\t// in\n    tag_291:\n      0x20\n      mload(0x40)\n      dup1\n      dup4\n      sub\n      dup2\n      dup7\n      dup1\n      extcodesize\n      iszero\n      dup1\n      iszero\n      tag_292\n      jumpi\n      0x00\n      dup1\n      revert\n    tag_292:\n      pop\n      gas\n      staticcall\n      iszero\n      dup1\n      iszero\n      tag_294\n      jumpi\n      returndatasize\n      0x00\n      dup1\n      returndatacopy\n      revert(0x00, returndatasize)\n    tag_294:\n      pop\n      pop\n      pop\n      pop\n      mload(0x40)\n      returndatasize\n      not(0x1f)\n      0x1f\n      dup3\n      add\n      and\n      dup3\n      add\n      dup1\n      0x40\n      mstore\n      pop\n      dup2\n      add\n      swap1\n      tag_295\n      swap2\n      swap1\n      tag_175\n      jump\t// in\n    tag_295:\n        /* \"Launchpad v2.0/QubeBalance.sol\":3597:3641  balance+=diamond.balanceOf(walletAddress, i) */\n      dup3\n      tag_296\n      swap2\n      swap1\n      tag_154\n      jump\t// in\n    tag_296:\n      swap2\n      pop\n        /* \"Launchpad v2.0/QubeBalance.sol\":3579:3582  i++ */\n      dup1\n      dup1\n      tag_297\n      swap1\n      tag_194\n      jump\t// in\n    tag_297:\n      swap2\n      pop\n      pop\n        /* \"Launchpad v2.0/QubeBalance.sol\":3558:3652  for (uint i=0;i<=100;i++){... */\n      jump(tag_288)\n    tag_289:\n      pop\n        /* \"Launchpad v2.0/QubeBalance.sol\":3668:3675  balance */\n      dup1\n        /* \"Launchpad v2.0/QubeBalance.sol\":3661:3675  return balance */\n      swap2\n      pop\n      pop\n        /* \"Launchpad v2.0/QubeBalance.sol\":3244:3682  function getNFTBalance(address walletAddress)public view returns (uint256){... */\n      swap2\n      swap1\n      pop\n      jump\t// out\n        /* \"Launchpad v2.0/QubeBalance.sol\":1069:1092  IERC1155 public diamond */\n    tag_123:\n      0x07\n      0x00\n      swap1\n      sload\n      swap1\n      0x0100\n      exp\n      swap1\n      div\n      0xffffffffffffffffffffffffffffffffffffffff\n      and\n      dup2\n      jump\t// out\n        /* \"Launchpad v2.0/Ownable.sol\":1853:2042  function transferOwnership(address newOwner) public virtual onlyOwner {... */\n    tag_127:\n        /* \"Launchpad v2.0/Ownable.sol\":1203:1215  _msgSender() */\n      tag_299\n        /* \"Launchpad v2.0/Ownable.sol\":1203:1213  _msgSender */\n      tag_136\n        /* \"Launchpad v2.0/Ownable.sol\":1203:1215  _msgSender() */\n      jump\t// in\n    tag_299:\n        /* \"Launchpad v2.0/Ownable.sol\":1192:1215  owner() == _msgSender() */\n      0xffffffffffffffffffffffffffffffffffffffff\n      and\n        /* \"Launchpad v2.0/Ownable.sol\":1192:1199  owner() */\n      tag_300\n        /* \"Launchpad v2.0/Ownable.sol\":1192:1197  owner */\n      tag_107\n        /* \"Launchpad v2.0/Ownable.sol\":1192:1199  owner() */\n      jump\t// in\n    tag_300:\n        /* \"Launchpad v2.0/Ownable.sol\":1192:1215  owner() == _msgSender() */\n      0xffffffffffffffffffffffffffffffffffffffff\n      and\n      eq\n        /* \"Launchpad v2.0/Ownable.sol\":1184:1252  require(owner() == _msgSender(), \"Ownable: caller is not the owner\") */\n      tag_301\n      jumpi\n      mload(0x40)\n      0x08c379a000000000000000000000000000000000000000000000000000000000\n      dup2\n      mstore\n      0x04\n      add\n      tag_302\n      swap1\n      tag_140\n      jump\t// in\n    tag_302:\n      mload(0x40)\n      dup1\n      swap2\n      sub\n      swap1\n      revert\n    tag_301:\n        /* \"Launchpad v2.0/Ownable.sol\":1961:1962  0 */\n      0x00\n        /* \"Launchpad v2.0/Ownable.sol\":1941:1963  newOwner != address(0) */\n      0xffffffffffffffffffffffffffffffffffffffff\n      and\n        /* \"Launchpad v2.0/Ownable.sol\":1941:1949  newOwner */\n      dup2\n        /* \"Launchpad v2.0/Ownable.sol\":1941:1963  newOwner != address(0) */\n      0xffffffffffffffffffffffffffffffffffffffff\n      and\n      eq\n      iszero\n        /* \"Launchpad v2.0/Ownable.sol\":1933:2006  require(newOwner != address(0), \"Ownable: new owner is the zero address\") */\n      tag_304\n      jumpi\n      mload(0x40)\n      0x08c379a000000000000000000000000000000000000000000000000000000000\n      dup2\n      mstore\n      0x04\n      add\n      tag_305\n      swap1\n      tag_306\n      jump\t// in\n    tag_305:\n      mload(0x40)\n      dup1\n      swap2\n      sub\n      swap1\n      revert\n    tag_304:\n        /* \"Launchpad v2.0/Ownable.sol\":2016:2035  _setOwner(newOwner) */\n      tag_307\n        /* \"Launchpad v2.0/Ownable.sol\":2026:2034  newOwner */\n      dup2\n        /* \"Launchpad v2.0/Ownable.sol\":2016:2025  _setOwner */\n      tag_242\n        /* \"Launchpad v2.0/Ownable.sol\":2016:2035  _setOwner(newOwner) */\n      jump\t// in\n    tag_307:\n        /* \"Launchpad v2.0/Ownable.sol\":1853:2042  function transferOwnership(address newOwner) public virtual onlyOwner {... */\n      pop\n      jump\t// out\n        /* \"Launchpad v2.0/QubeBalance.sol\":1893:1977  function setSilver(IERC1155 _silver) public onlyOwner{... */\n    tag_130:\n        /* \"Launchpad v2.0/Ownable.sol\":1203:1215  _msgSender() */\n      tag_309\n        /* \"Launchpad v2.0/Ownable.sol\":1203:1213  _msgSender */\n      tag_136\n        /* \"Launchpad v2.0/Ownable.sol\":1203:1215  _msgSender() */\n      jump\t// in\n    tag_309:\n        /* \"Launchpad v2.0/Ownable.sol\":1192:1215  owner() == _msgSender() */\n      0xffffffffffffffffffffffffffffffffffffffff\n      and\n        /* \"Launchpad v2.0/Ownable.sol\":1192:1199  owner() */\n      tag_310\n        /* \"Launchpad v2.0/Ownable.sol\":1192:1197  owner */\n      tag_107\n        /* \"Launchpad v2.0/Ownable.sol\":1192:1199  owner() */\n      jump\t// in\n    tag_310:\n        /* \"Launchpad v2.0/Ownable.sol\":1192:1215  owner() == _msgSender() */\n      0xffffffffffffffffffffffffffffffffffffffff\n      and\n      eq\n        /* \"Launchpad v2.0/Ownable.sol\":1184:1252  require(owner() == _msgSender(), \"Ownable: caller is not the owner\") */\n      tag_311\n      jumpi\n      mload(0x40)\n      0x08c379a000000000000000000000000000000000000000000000000000000000\n      dup2\n      mstore\n      0x04\n      add\n      tag_312\n      swap1\n      tag_140\n      jump\t// in\n    tag_312:\n      mload(0x40)\n      dup1\n      swap2\n      sub\n      swap1\n      revert\n    tag_311:\n        /* \"Launchpad v2.0/QubeBalance.sol\":1963:1970  _silver */\n      dup1\n        /* \"Launchpad v2.0/QubeBalance.sol\":1956:1962  silver */\n      0x05\n      0x00\n        /* \"Launchpad v2.0/QubeBalance.sol\":1956:1970  silver=_silver */\n      0x0100\n      exp\n      dup2\n      sload\n      dup2\n      0xffffffffffffffffffffffffffffffffffffffff\n      mul\n      not\n      and\n      swap1\n      dup4\n      0xffffffffffffffffffffffffffffffffffffffff\n      and\n      mul\n      or\n      swap1\n      sstore\n      pop\n        /* \"Launchpad v2.0/QubeBalance.sol\":1893:1977  function setSilver(IERC1155 _silver) public onlyOwner{... */\n      pop\n      jump\t// out\n        /* \"Launchpad v2.0/QubeBalance.sol\":1043:1063  IERC1155 public gold */\n    tag_132:\n      0x06\n      0x00\n      swap1\n      sload\n      swap1\n      0x0100\n      exp\n      swap1\n      div\n      0xffffffffffffffffffffffffffffffffffffffff\n      and\n      dup2\n      jump\t// out\n        /* \"Launchpad v2.0/Context.sol\":600:696  function _msgSender() internal view virtual returns (address) {... */\n    tag_136:\n        /* \"Launchpad v2.0/Context.sol\":653:660  address */\n      0x00\n        /* \"Launchpad v2.0/Context.sol\":679:689  msg.sender */\n      caller\n        /* \"Launchpad v2.0/Context.sol\":672:689  return msg.sender */\n      swap1\n      pop\n        /* \"Launchpad v2.0/Context.sol\":600:696  function _msgSender() internal view virtual returns (address) {... */\n      swap1\n      jump\t// out\n        /* \"Launchpad v2.0/SafeMath.sol\":3791:3887  function div(uint256 a, uint256 b) internal pure returns (uint256) {... */\n    tag_208:\n        /* \"Launchpad v2.0/SafeMath.sol\":3849:3856  uint256 */\n      0x00\n        /* \"Launchpad v2.0/SafeMath.sol\":3879:3880  b */\n      dup2\n        /* \"Launchpad v2.0/SafeMath.sol\":3875:3876  a */\n      dup4\n        /* \"Launchpad v2.0/SafeMath.sol\":3875:3880  a / b */\n      tag_316\n      swap2\n      swap1\n      tag_317\n      jump\t// in\n    tag_316:\n        /* \"Launchpad v2.0/SafeMath.sol\":3868:3880  return a / b */\n      swap1\n      pop\n        /* \"Launchpad v2.0/SafeMath.sol\":3791:3887  function div(uint256 a, uint256 b) internal pure returns (uint256) {... */\n      swap3\n      swap2\n      pop\n      pop\n      jump\t// out\n        /* \"Launchpad v2.0/SafeMath.sol\":3406:3502  function mul(uint256 a, uint256 b) internal pure returns (uint256) {... */\n    tag_215:\n        /* \"Launchpad v2.0/SafeMath.sol\":3464:3471  uint256 */\n      0x00\n        /* \"Launchpad v2.0/SafeMath.sol\":3494:3495  b */\n      dup2\n        /* \"Launchpad v2.0/SafeMath.sol\":3490:3491  a */\n      dup4\n        /* \"Launchpad v2.0/SafeMath.sol\":3490:3495  a * b */\n      tag_319\n      swap2\n      swap1\n      tag_320\n      jump\t// in\n    tag_319:\n        /* \"Launchpad v2.0/SafeMath.sol\":3483:3495  return a * b */\n      swap1\n      pop\n        /* \"Launchpad v2.0/SafeMath.sol\":3406:3502  function mul(uint256 a, uint256 b) internal pure returns (uint256) {... */\n      swap3\n      swap2\n      pop\n      pop\n      jump\t// out\n        /* \"Launchpad v2.0/Ownable.sol\":2048:2218  function _setOwner(address newOwner) internal {... */\n    tag_242:\n        /* \"Launchpad v2.0/Ownable.sol\":2104:2120  address oldOwner */\n      0x00\n        /* \"Launchpad v2.0/Ownable.sol\":2123:2129  _owner */\n      dup1\n      0x00\n      swap1\n      sload\n      swap1\n      0x0100\n      exp\n      swap1\n      div\n      0xffffffffffffffffffffffffffffffffffffffff\n      and\n        /* \"Launchpad v2.0/Ownable.sol\":2104:2129  address oldOwner = _owner */\n      swap1\n      pop\n        /* \"Launchpad v2.0/Ownable.sol\":2148:2156  newOwner */\n      dup2\n        /* \"Launchpad v2.0/Ownable.sol\":2139:2145  _owner */\n      0x00\n      dup1\n        /* \"Launchpad v2.0/Ownable.sol\":2139:2156  _owner = newOwner */\n      0x0100\n      exp\n      dup2\n      sload\n      dup2\n      0xffffffffffffffffffffffffffffffffffffffff\n      mul\n      not\n      and\n      swap1\n      dup4\n      0xffffffffffffffffffffffffffffffffffffffff\n      and\n      mul\n      or\n      swap1\n      sstore\n      pop\n        /* \"Launchpad v2.0/Ownable.sol\":2202:2210  newOwner */\n      dup2\n        /* \"Launchpad v2.0/Ownable.sol\":2171:2211  OwnershipTransferred(oldOwner, newOwner) */\n      0xffffffffffffffffffffffffffffffffffffffff\n      and\n        /* \"Launchpad v2.0/Ownable.sol\":2192:2200  oldOwner */\n      dup2\n        /* \"Launchpad v2.0/Ownable.sol\":2171:2211  OwnershipTransferred(oldOwner, newOwner) */\n      0xffffffffffffffffffffffffffffffffffffffff\n      and\n      0x8be0079c531659141344cd1fd0a4f28419497f9722a3daafe3b4186f6b6457e0\n      mload(0x40)\n      mload(0x40)\n      dup1\n      swap2\n      sub\n      swap1\n      log3\n        /* \"Launchpad v2.0/Ownable.sol\":2094:2218  {... */\n      pop\n        /* \"Launchpad v2.0/Ownable.sol\":2048:2218  function _setOwner(address newOwner) internal {... */\n      pop\n      jump\t// out\n        /* \"#utility.yul\":24:768   */\n    tag_323:\n        /* \"#utility.yul\":131:136   */\n      0x00\n        /* \"#utility.yul\":156:237   */\n      tag_325\n        /* \"#utility.yul\":172:236   */\n      tag_326\n        /* \"#utility.yul\":229:235   */\n      dup5\n        /* \"#utility.yul\":172:236   */\n      tag_327\n      jump\t// in\n    tag_326:\n        /* \"#utility.yul\":156:237   */\n      tag_328\n      jump\t// in\n    tag_325:\n        /* \"#utility.yul\":147:237   */\n      swap1\n      pop\n        /* \"#utility.yul\":257:262   */\n      dup1\n        /* \"#utility.yul\":286:292   */\n      dup4\n        /* \"#utility.yul\":279:284   */\n      dup3\n        /* \"#utility.yul\":272:293   */\n      mstore\n        /* \"#utility.yul\":320:324   */\n      0x20\n        /* \"#utility.yul\":313:318   */\n      dup3\n        /* \"#utility.yul\":309:325   */\n      add\n        /* \"#utility.yul\":302:325   */\n      swap1\n      pop\n        /* \"#utility.yul\":346:352   */\n      dup3\n        /* \"#utility.yul\":396:399   */\n      dup6\n        /* \"#utility.yul\":388:392   */\n      0x20\n        /* \"#utility.yul\":380:386   */\n      dup7\n        /* \"#utility.yul\":376:393   */\n      mul\n        /* \"#utility.yul\":371:374   */\n      dup3\n        /* \"#utility.yul\":367:394   */\n      add\n        /* \"#utility.yul\":364:400   */\n      gt\n        /* \"#utility.yul\":361:504   */\n      iszero\n      tag_329\n      jumpi\n        /* \"#utility.yul\":415:494   */\n      tag_330\n      tag_331\n      jump\t// in\n    tag_330:\n        /* \"#utility.yul\":361:504   */\n    tag_329:\n        /* \"#utility.yul\":528:529   */\n      0x00\n        /* \"#utility.yul\":513:762   */\n    tag_332:\n        /* \"#utility.yul\":538:544   */\n      dup6\n        /* \"#utility.yul\":535:536   */\n      dup2\n        /* \"#utility.yul\":532:545   */\n      lt\n        /* \"#utility.yul\":513:762   */\n      iszero\n      tag_334\n      jumpi\n        /* \"#utility.yul\":606:609   */\n      dup2\n        /* \"#utility.yul\":635:683   */\n      tag_335\n        /* \"#utility.yul\":679:682   */\n      dup9\n        /* \"#utility.yul\":667:677   */\n      dup3\n        /* \"#utility.yul\":635:683   */\n      tag_336\n      jump\t// in\n    tag_335:\n        /* \"#utility.yul\":630:633   */\n      dup5\n        /* \"#utility.yul\":623:684   */\n      mstore\n        /* \"#utility.yul\":713:717   */\n      0x20\n        /* \"#utility.yul\":708:711   */\n      dup5\n        /* \"#utility.yul\":704:718   */\n      add\n        /* \"#utility.yul\":697:718   */\n      swap4\n      pop\n        /* \"#utility.yul\":747:751   */\n      0x20\n        /* \"#utility.yul\":742:745   */\n      dup4\n        /* \"#utility.yul\":738:752   */\n      add\n        /* \"#utility.yul\":731:752   */\n      swap3\n      pop\n        /* \"#utility.yul\":573:762   */\n      pop\n        /* \"#utility.yul\":560:561   */\n      0x01\n        /* \"#utility.yul\":557:558   */\n      dup2\n        /* \"#utility.yul\":553:562   */\n      add\n        /* \"#utility.yul\":548:562   */\n      swap1\n      pop\n        /* \"#utility.yul\":513:762   */\n      jump(tag_332)\n    tag_334:\n        /* \"#utility.yul\":517:531   */\n      pop\n        /* \"#utility.yul\":137:768   */\n      pop\n      pop\n        /* \"#utility.yul\":24:768   */\n      swap4\n      swap3\n      pop\n      pop\n      pop\n      jump\t// out\n        /* \"#utility.yul\":774:913   */\n    tag_337:\n        /* \"#utility.yul\":820:825   */\n      0x00\n        /* \"#utility.yul\":858:864   */\n      dup2\n        /* \"#utility.yul\":845:865   */\n      calldataload\n        /* \"#utility.yul\":836:865   */\n      swap1\n      pop\n        /* \"#utility.yul\":874:907   */\n      tag_339\n        /* \"#utility.yul\":901:906   */\n      dup2\n        /* \"#utility.yul\":874:907   */\n      tag_340\n      jump\t// in\n    tag_339:\n        /* \"#utility.yul\":774:913   */\n      swap3\n      swap2\n      pop\n      pop\n      jump\t// out\n        /* \"#utility.yul\":919:1062   */\n    tag_341:\n        /* \"#utility.yul\":976:981   */\n      0x00\n        /* \"#utility.yul\":1007:1013   */\n      dup2\n        /* \"#utility.yul\":1001:1014   */\n      mload\n        /* \"#utility.yul\":992:1014   */\n      swap1\n      pop\n        /* \"#utility.yul\":1023:1056   */\n      tag_343\n        /* \"#utility.yul\":1050:1055   */\n      dup2\n        /* \"#utility.yul\":1023:1056   */\n      tag_340\n      jump\t// in\n    tag_343:\n        /* \"#utility.yul\":919:1062   */\n      swap3\n      swap2\n      pop\n      pop\n      jump\t// out\n        /* \"#utility.yul\":1085:1470   */\n    tag_344:\n        /* \"#utility.yul\":1167:1172   */\n      0x00\n        /* \"#utility.yul\":1216:1219   */\n      dup3\n        /* \"#utility.yul\":1209:1213   */\n      0x1f\n        /* \"#utility.yul\":1201:1207   */\n      dup4\n        /* \"#utility.yul\":1197:1214   */\n      add\n        /* \"#utility.yul\":1193:1220   */\n      slt\n        /* \"#utility.yul\":1183:1305   */\n      tag_346\n      jumpi\n        /* \"#utility.yul\":1224:1303   */\n      tag_347\n      tag_348\n      jump\t// in\n    tag_347:\n        /* \"#utility.yul\":1183:1305   */\n    tag_346:\n        /* \"#utility.yul\":1334:1340   */\n      dup2\n        /* \"#utility.yul\":1328:1341   */\n      mload\n        /* \"#utility.yul\":1359:1464   */\n      tag_349\n        /* \"#utility.yul\":1460:1463   */\n      dup5\n        /* \"#utility.yul\":1452:1458   */\n      dup3\n        /* \"#utility.yul\":1445:1449   */\n      0x20\n        /* \"#utility.yul\":1437:1443   */\n      dup7\n        /* \"#utility.yul\":1433:1450   */\n      add\n        /* \"#utility.yul\":1359:1464   */\n      tag_323\n      jump\t// in\n    tag_349:\n        /* \"#utility.yul\":1350:1464   */\n      swap2\n      pop\n        /* \"#utility.yul\":1173:1470   */\n      pop\n        /* \"#utility.yul\":1085:1470   */\n      swap3\n      swap2\n      pop\n      pop\n      jump\t// out\n        /* \"#utility.yul\":1476:1643   */\n    tag_350:\n        /* \"#utility.yul\":1536:1541   */\n      0x00\n        /* \"#utility.yul\":1574:1580   */\n      dup2\n        /* \"#utility.yul\":1561:1581   */\n      calldataload\n        /* \"#utility.yul\":1552:1581   */\n      swap1\n      pop\n        /* \"#utility.yul\":1590:1637   */\n      tag_352\n        /* \"#utility.yul\":1631:1636   */\n      dup2\n        /* \"#utility.yul\":1590:1637   */\n      tag_353\n      jump\t// in\n    tag_352:\n        /* \"#utility.yul\":1476:1643   */\n      swap3\n      swap2\n      pop\n      pop\n      jump\t// out\n        /* \"#utility.yul\":1649:1820   */\n    tag_354:\n        /* \"#utility.yul\":1711:1716   */\n      0x00\n        /* \"#utility.yul\":1749:1755   */\n      dup2\n        /* \"#utility.yul\":1736:1756   */\n      calldataload\n        /* \"#utility.yul\":1727:1756   */\n      swap1\n      pop\n        /* \"#utility.yul\":1765:1814   */\n      tag_356\n        /* \"#utility.yul\":1808:1813   */\n      dup2\n        /* \"#utility.yul\":1765:1814   */\n      tag_357\n      jump\t// in\n    tag_356:\n        /* \"#utility.yul\":1649:1820   */\n      swap3\n      swap2\n      pop\n      pop\n      jump\t// out\n        /* \"#utility.yul\":1826:2005   */\n    tag_358:\n        /* \"#utility.yul\":1892:1897   */\n      0x00\n        /* \"#utility.yul\":1930:1936   */\n      dup2\n        /* \"#utility.yul\":1917:1937   */\n      calldataload\n        /* \"#utility.yul\":1908:1937   */\n      swap1\n      pop\n        /* \"#utility.yul\":1946:1999   */\n      tag_360\n        /* \"#utility.yul\":1993:1998   */\n      dup2\n        /* \"#utility.yul\":1946:1999   */\n      tag_361\n      jump\t// in\n    tag_360:\n        /* \"#utility.yul\":1826:2005   */\n      swap3\n      swap2\n      pop\n      pop\n      jump\t// out\n        /* \"#utility.yul\":2011:2190   */\n    tag_362:\n        /* \"#utility.yul\":2077:2082   */\n      0x00\n        /* \"#utility.yul\":2115:2121   */\n      dup2\n        /* \"#utility.yul\":2102:2122   */\n      calldataload\n        /* \"#utility.yul\":2093:2122   */\n      swap1\n      pop\n        /* \"#utility.yul\":2131:2184   */\n      tag_364\n        /* \"#utility.yul\":2178:2183   */\n      dup2\n        /* \"#utility.yul\":2131:2184   */\n      tag_365\n      jump\t// in\n    tag_364:\n        /* \"#utility.yul\":2011:2190   */\n      swap3\n      swap2\n      pop\n      pop\n      jump\t// out\n        /* \"#utility.yul\":2196:2385   */\n    tag_366:\n        /* \"#utility.yul\":2267:2272   */\n      0x00\n        /* \"#utility.yul\":2305:2311   */\n      dup2\n        /* \"#utility.yul\":2292:2312   */\n      calldataload\n        /* \"#utility.yul\":2283:2312   */\n      swap1\n      pop\n        /* \"#utility.yul\":2321:2379   */\n      tag_368\n        /* \"#utility.yul\":2373:2378   */\n      dup2\n        /* \"#utility.yul\":2321:2379   */\n      tag_369\n      jump\t// in\n    tag_368:\n        /* \"#utility.yul\":2196:2385   */\n      swap3\n      swap2\n      pop\n      pop\n      jump\t// out\n        /* \"#utility.yul\":2431:3758   */\n    tag_370:\n        /* \"#utility.yul\":2517:2522   */\n      0x00\n        /* \"#utility.yul\":2561:2565   */\n      0xc0\n        /* \"#utility.yul\":2549:2558   */\n      dup3\n        /* \"#utility.yul\":2544:2547   */\n      dup5\n        /* \"#utility.yul\":2540:2559   */\n      sub\n        /* \"#utility.yul\":2536:2566   */\n      slt\n        /* \"#utility.yul\":2533:2650   */\n      iszero\n      tag_372\n      jumpi\n        /* \"#utility.yul\":2569:2648   */\n      tag_373\n      tag_374\n      jump\t// in\n    tag_373:\n        /* \"#utility.yul\":2533:2650   */\n    tag_372:\n        /* \"#utility.yul\":2668:2689   */\n      tag_375\n        /* \"#utility.yul\":2684:2688   */\n      0xc0\n        /* \"#utility.yul\":2668:2689   */\n      tag_328\n      jump\t// in\n    tag_375:\n        /* \"#utility.yul\":2659:2689   */\n      swap1\n      pop\n        /* \"#utility.yul\":2748:2749   */\n      0x00\n        /* \"#utility.yul\":2788:2848   */\n      tag_376\n        /* \"#utility.yul\":2844:2847   */\n      dup5\n        /* \"#utility.yul\":2835:2841   */\n      dup3\n        /* \"#utility.yul\":2824:2833   */\n      dup6\n        /* \"#utility.yul\":2820:2842   */\n      add\n        /* \"#utility.yul\":2788:2848   */\n      tag_341\n      jump\t// in\n    tag_376:\n        /* \"#utility.yul\":2781:2785   */\n      0x00\n        /* \"#utility.yul\":2774:2779   */\n      dup4\n        /* \"#utility.yul\":2770:2786   */\n      add\n        /* \"#utility.yul\":2763:2849   */\n      mstore\n        /* \"#utility.yul\":2699:2860   */\n      pop\n        /* \"#utility.yul\":2924:2926   */\n      0x20\n        /* \"#utility.yul\":2965:3025   */\n      tag_377\n        /* \"#utility.yul\":3021:3024   */\n      dup5\n        /* \"#utility.yul\":3012:3018   */\n      dup3\n        /* \"#utility.yul\":3001:3010   */\n      dup6\n        /* \"#utility.yul\":2997:3019   */\n      add\n        /* \"#utility.yul\":2965:3025   */\n      tag_336\n      jump\t// in\n    tag_377:\n        /* \"#utility.yul\":2958:2962   */\n      0x20\n        /* \"#utility.yul\":2951:2956   */\n      dup4\n        /* \"#utility.yul\":2947:2963   */\n      add\n        /* \"#utility.yul\":2940:3026   */\n      mstore\n        /* \"#utility.yul\":2870:3037   */\n      pop\n        /* \"#utility.yul\":3100:3102   */\n      0x40\n        /* \"#utility.yul\":3141:3201   */\n      tag_378\n        /* \"#utility.yul\":3197:3200   */\n      dup5\n        /* \"#utility.yul\":3188:3194   */\n      dup3\n        /* \"#utility.yul\":3177:3186   */\n      dup6\n        /* \"#utility.yul\":3173:3195   */\n      add\n        /* \"#utility.yul\":3141:3201   */\n      tag_336\n      jump\t// in\n    tag_378:\n        /* \"#utility.yul\":3134:3138   */\n      0x40\n        /* \"#utility.yul\":3127:3132   */\n      dup4\n        /* \"#utility.yul\":3123:3139   */\n      add\n        /* \"#utility.yul\":3116:3202   */\n      mstore\n        /* \"#utility.yul\":3047:3213   */\n      pop\n        /* \"#utility.yul\":3277:3279   */\n      0x60\n        /* \"#utility.yul\":3318:3378   */\n      tag_379\n        /* \"#utility.yul\":3374:3377   */\n      dup5\n        /* \"#utility.yul\":3365:3371   */\n      dup3\n        /* \"#utility.yul\":3354:3363   */\n      dup6\n        /* \"#utility.yul\":3350:3372   */\n      add\n        /* \"#utility.yul\":3318:3378   */\n      tag_336\n      jump\t// in\n    tag_379:\n        /* \"#utility.yul\":3311:3315   */\n      0x60\n        /* \"#utility.yul\":3304:3309   */\n      dup4\n        /* \"#utility.yul\":3300:3316   */\n      add\n        /* \"#utility.yul\":3293:3379   */\n      mstore\n        /* \"#utility.yul\":3223:3390   */\n      pop\n        /* \"#utility.yul\":3456:3459   */\n      0x80\n        /* \"#utility.yul\":3498:3558   */\n      tag_380\n        /* \"#utility.yul\":3554:3557   */\n      dup5\n        /* \"#utility.yul\":3545:3551   */\n      dup3\n        /* \"#utility.yul\":3534:3543   */\n      dup6\n        /* \"#utility.yul\":3530:3552   */\n      add\n        /* \"#utility.yul\":3498:3558   */\n      tag_336\n      jump\t// in\n    tag_380:\n        /* \"#utility.yul\":3491:3495   */\n      0x80\n        /* \"#utility.yul\":3484:3489   */\n      dup4\n        /* \"#utility.yul\":3480:3496   */\n      add\n        /* \"#utility.yul\":3473:3559   */\n      mstore\n        /* \"#utility.yul\":3400:3570   */\n      pop\n        /* \"#utility.yul\":3637:3640   */\n      0xa0\n        /* \"#utility.yul\":3679:3739   */\n      tag_381\n        /* \"#utility.yul\":3735:3738   */\n      dup5\n        /* \"#utility.yul\":3726:3732   */\n      dup3\n        /* \"#utility.yul\":3715:3724   */\n      dup6\n        /* \"#utility.yul\":3711:3733   */\n      add\n        /* \"#utility.yul\":3679:3739   */\n      tag_336\n      jump\t// in\n    tag_381:\n        /* \"#utility.yul\":3672:3676   */\n      0xa0\n        /* \"#utility.yul\":3665:3670   */\n      dup4\n        /* \"#utility.yul\":3661:3677   */\n      add\n        /* \"#utility.yul\":3654:3740   */\n      mstore\n        /* \"#utility.yul\":3580:3751   */\n      pop\n        /* \"#utility.yul\":2431:3758   */\n      swap3\n      swap2\n      pop\n      pop\n      jump\t// out\n        /* \"#utility.yul\":3764:3907   */\n    tag_382:\n        /* \"#utility.yul\":3821:3826   */\n      0x00\n        /* \"#utility.yul\":3852:3858   */\n      dup2\n        /* \"#utility.yul\":3846:3859   */\n      mload\n        /* \"#utility.yul\":3837:3859   */\n      swap1\n      pop\n        /* \"#utility.yul\":3868:3901   */\n      tag_384\n        /* \"#utility.yul\":3895:3900   */\n      dup2\n        /* \"#utility.yul\":3868:3901   */\n      tag_385\n      jump\t// in\n    tag_384:\n        /* \"#utility.yul\":3764:3907   */\n      swap3\n      swap2\n      pop\n      pop\n      jump\t// out\n        /* \"#utility.yul\":3913:4052   */\n    tag_386:\n        /* \"#utility.yul\":3959:3964   */\n      0x00\n        /* \"#utility.yul\":3997:4003   */\n      dup2\n        /* \"#utility.yul\":3984:4004   */\n      calldataload\n        /* \"#utility.yul\":3975:4004   */\n      swap1\n      pop\n        /* \"#utility.yul\":4013:4046   */\n      tag_388\n        /* \"#utility.yul\":4040:4045   */\n      dup2\n        /* \"#utility.yul\":4013:4046   */\n      tag_389\n      jump\t// in\n    tag_388:\n        /* \"#utility.yul\":3913:4052   */\n      swap3\n      swap2\n      pop\n      pop\n      jump\t// out\n        /* \"#utility.yul\":4058:4201   */\n    tag_336:\n        /* \"#utility.yul\":4115:4120   */\n      0x00\n        /* \"#utility.yul\":4146:4152   */\n      dup2\n        /* \"#utility.yul\":4140:4153   */\n      mload\n        /* \"#utility.yul\":4131:4153   */\n      swap1\n      pop\n        /* \"#utility.yul\":4162:4195   */\n      tag_391\n        /* \"#utility.yul\":4189:4194   */\n      dup2\n        /* \"#utility.yul\":4162:4195   */\n      tag_389\n      jump\t// in\n    tag_391:\n        /* \"#utility.yul\":4058:4201   */\n      swap3\n      swap2\n      pop\n      pop\n      jump\t// out\n        /* \"#utility.yul\":4207:4348   */\n    tag_392:\n        /* \"#utility.yul\":4263:4268   */\n      0x00\n        /* \"#utility.yul\":4294:4300   */\n      dup2\n        /* \"#utility.yul\":4288:4301   */\n      mload\n        /* \"#utility.yul\":4279:4301   */\n      swap1\n      pop\n        /* \"#utility.yul\":4310:4342   */\n      tag_394\n        /* \"#utility.yul\":4336:4341   */\n      dup2\n        /* \"#utility.yul\":4310:4342   */\n      tag_395\n      jump\t// in\n    tag_394:\n        /* \"#utility.yul\":4207:4348   */\n      swap3\n      swap2\n      pop\n      pop\n      jump\t// out\n        /* \"#utility.yul\":4354:4683   */\n    tag_36:\n        /* \"#utility.yul\":4413:4419   */\n      0x00\n        /* \"#utility.yul\":4462:4464   */\n      0x20\n        /* \"#utility.yul\":4450:4459   */\n      dup3\n        /* \"#utility.yul\":4441:4448   */\n      dup5\n        /* \"#utility.yul\":4437:4460   */\n      sub\n        /* \"#utility.yul\":4433:4465   */\n      slt\n        /* \"#utility.yul\":4430:4549   */\n      iszero\n      tag_397\n      jumpi\n        /* \"#utility.yul\":4468:4547   */\n      tag_398\n      tag_399\n      jump\t// in\n    tag_398:\n        /* \"#utility.yul\":4430:4549   */\n    tag_397:\n        /* \"#utility.yul\":4588:4589   */\n      0x00\n        /* \"#utility.yul\":4613:4666   */\n      tag_400\n        /* \"#utility.yul\":4658:4665   */\n      dup5\n        /* \"#utility.yul\":4649:4655   */\n      dup3\n        /* \"#utility.yul\":4638:4647   */\n      dup6\n        /* \"#utility.yul\":4634:4656   */\n      add\n        /* \"#utility.yul\":4613:4666   */\n      tag_337\n      jump\t// in\n    tag_400:\n        /* \"#utility.yul\":4603:4666   */\n      swap2\n      pop\n        /* \"#utility.yul\":4559:4676   */\n      pop\n        /* \"#utility.yul\":4354:4683   */\n      swap3\n      swap2\n      pop\n      pop\n      jump\t// out\n        /* \"#utility.yul\":4689:5163   */\n    tag_87:\n        /* \"#utility.yul\":4757:4763   */\n      0x00\n        /* \"#utility.yul\":4765:4771   */\n      dup1\n        /* \"#utility.yul\":4814:4816   */\n      0x40\n        /* \"#utility.yul\":4802:4811   */\n      dup4\n        /* \"#utility.yul\":4793:4800   */\n      dup6\n        /* \"#utility.yul\":4789:4812   */\n      sub\n        /* \"#utility.yul\":4785:4817   */\n      slt\n        /* \"#utility.yul\":4782:4901   */\n      iszero\n      tag_402\n      jumpi\n        /* \"#utility.yul\":4820:4899   */\n      tag_403\n      tag_399\n      jump\t// in\n    tag_403:\n        /* \"#utility.yul\":4782:4901   */\n    tag_402:\n        /* \"#utility.yul\":4940:4941   */\n      0x00\n        /* \"#utility.yul\":4965:5018   */\n      tag_404\n        /* \"#utility.yul\":5010:5017   */\n      dup6\n        /* \"#utility.yul\":5001:5007   */\n      dup3\n        /* \"#utility.yul\":4990:4999   */\n      dup7\n        /* \"#utility.yul\":4986:5008   */\n      add\n        /* \"#utility.yul\":4965:5018   */\n      tag_337\n      jump\t// in\n    tag_404:\n        /* \"#utility.yul\":4955:5018   */\n      swap3\n      pop\n        /* \"#utility.yul\":4911:5028   */\n      pop\n        /* \"#utility.yul\":5067:5069   */\n      0x20\n        /* \"#utility.yul\":5093:5146   */\n      tag_405\n        /* \"#utility.yul\":5138:5145   */\n      dup6\n        /* \"#utility.yul\":5129:5135   */\n      dup3\n        /* \"#utility.yul\":5118:5127   */\n      dup7\n        /* \"#utility.yul\":5114:5136   */\n      add\n        /* \"#utility.yul\":5093:5146   */\n      tag_386\n      jump\t// in\n    tag_405:\n        /* \"#utility.yul\":5083:5146   */\n      swap2\n      pop\n        /* \"#utility.yul\":5038:5156   */\n      pop\n        /* \"#utility.yul\":4689:5163   */\n      swap3\n      pop\n      swap3\n      swap1\n      pop\n      jump\t// out\n        /* \"#utility.yul\":5169:5723   */\n    tag_182:\n        /* \"#utility.yul\":5264:5270   */\n      0x00\n        /* \"#utility.yul\":5313:5315   */\n      0x20\n        /* \"#utility.yul\":5301:5310   */\n      dup3\n        /* \"#utility.yul\":5292:5299   */\n      dup5\n        /* \"#utility.yul\":5288:5311   */\n      sub\n        /* \"#utility.yul\":5284:5316   */\n      slt\n        /* \"#utility.yul\":5281:5400   */\n      iszero\n      tag_407\n      jumpi\n        /* \"#utility.yul\":5319:5398   */\n      tag_408\n      tag_399\n      jump\t// in\n    tag_408:\n        /* \"#utility.yul\":5281:5400   */\n    tag_407:\n        /* \"#utility.yul\":5460:5461   */\n      0x00\n        /* \"#utility.yul\":5449:5458   */\n      dup3\n        /* \"#utility.yul\":5445:5462   */\n      add\n        /* \"#utility.yul\":5439:5463   */\n      mload\n        /* \"#utility.yul\":5490:5508   */\n      0xffffffffffffffff\n        /* \"#utility.yul\":5482:5488   */\n      dup2\n        /* \"#utility.yul\":5479:5509   */\n      gt\n        /* \"#utility.yul\":5476:5593   */\n      iszero\n      tag_409\n      jumpi\n        /* \"#utility.yul\":5512:5591   */\n      tag_410\n      tag_411\n      jump\t// in\n    tag_410:\n        /* \"#utility.yul\":5476:5593   */\n    tag_409:\n        /* \"#utility.yul\":5617:5706   */\n      tag_412\n        /* \"#utility.yul\":5698:5705   */\n      dup5\n        /* \"#utility.yul\":5689:5695   */\n      dup3\n        /* \"#utility.yul\":5678:5687   */\n      dup6\n        /* \"#utility.yul\":5674:5696   */\n      add\n        /* \"#utility.yul\":5617:5706   */\n      tag_344\n      jump\t// in\n    tag_412:\n        /* \"#utility.yul\":5607:5706   */\n      swap2\n      pop\n        /* \"#utility.yul\":5410:5716   */\n      pop\n        /* \"#utility.yul\":5169:5723   */\n      swap3\n      swap2\n      pop\n      pop\n      jump\t// out\n        /* \"#utility.yul\":5729:6086   */\n    tag_50:\n        /* \"#utility.yul\":5802:5808   */\n      0x00\n        /* \"#utility.yul\":5851:5853   */\n      0x20\n        /* \"#utility.yul\":5839:5848   */\n      dup3\n        /* \"#utility.yul\":5830:5837   */\n      dup5\n        /* \"#utility.yul\":5826:5849   */\n      sub\n        /* \"#utility.yul\":5822:5854   */\n      slt\n        /* \"#utility.yul\":5819:5938   */\n      iszero\n      tag_414\n      jumpi\n        /* \"#utility.yul\":5857:5936   */\n      tag_415\n      tag_399\n      jump\t// in\n    tag_415:\n        /* \"#utility.yul\":5819:5938   */\n    tag_414:\n        /* \"#utility.yul\":5977:5978   */\n      0x00\n        /* \"#utility.yul\":6002:6069   */\n      tag_416\n        /* \"#utility.yul\":6061:6068   */\n      dup5\n        /* \"#utility.yul\":6052:6058   */\n      dup3\n        /* \"#utility.yul\":6041:6050   */\n      dup6\n        /* \"#utility.yul\":6037:6059   */\n      add\n        /* \"#utility.yul\":6002:6069   */\n      tag_350\n      jump\t// in\n    tag_416:\n        /* \"#utility.yul\":5992:6069   */\n      swap2\n      pop\n        /* \"#utility.yul\":5948:6079   */\n      pop\n        /* \"#utility.yul\":5729:6086   */\n      swap3\n      swap2\n      pop\n      pop\n      jump\t// out\n        /* \"#utility.yul\":6092:6453   */\n    tag_46:\n        /* \"#utility.yul\":6167:6173   */\n      0x00\n        /* \"#utility.yul\":6216:6218   */\n      0x20\n        /* \"#utility.yul\":6204:6213   */\n      dup3\n        /* \"#utility.yul\":6195:6202   */\n      dup5\n        /* \"#utility.yul\":6191:6214   */\n      sub\n        /* \"#utility.yul\":6187:6219   */\n      slt\n        /* \"#utility.yul\":6184:6303   */\n      iszero\n      tag_418\n      jumpi\n        /* \"#utility.yul\":6222:6301   */\n      tag_419\n      tag_399\n      jump\t// in\n    tag_419:\n        /* \"#utility.yul\":6184:6303   */\n    tag_418:\n        /* \"#utility.yul\":6342:6343   */\n      0x00\n        /* \"#utility.yul\":6367:6436   */\n      tag_420\n        /* \"#utility.yul\":6428:6435   */\n      dup5\n        /* \"#utility.yul\":6419:6425   */\n      dup3\n        /* \"#utility.yul\":6408:6417   */\n      dup6\n        /* \"#utility.yul\":6404:6426   */\n      add\n        /* \"#utility.yul\":6367:6436   */\n      tag_354\n      jump\t// in\n    tag_420:\n        /* \"#utility.yul\":6357:6436   */\n      swap2\n      pop\n        /* \"#utility.yul\":6313:6446   */\n      pop\n        /* \"#utility.yul\":6092:6453   */\n      swap3\n      swap2\n      pop\n      pop\n      jump\t// out\n        /* \"#utility.yul\":6459:6828   */\n    tag_104:\n        /* \"#utility.yul\":6538:6544   */\n      0x00\n        /* \"#utility.yul\":6587:6589   */\n      0x20\n        /* \"#utility.yul\":6575:6584   */\n      dup3\n        /* \"#utility.yul\":6566:6573   */\n      dup5\n        /* \"#utility.yul\":6562:6585   */\n      sub\n        /* \"#utility.yul\":6558:6590   */\n      slt\n        /* \"#utility.yul\":6555:6674   */\n      iszero\n      tag_422\n      jumpi\n        /* \"#utility.yul\":6593:6672   */\n      tag_423\n      tag_399\n      jump\t// in\n    tag_423:\n        /* \"#utility.yul\":6555:6674   */\n    tag_422:\n        /* \"#utility.yul\":6713:6714   */\n      0x00\n        /* \"#utility.yul\":6738:6811   */\n      tag_424\n        /* \"#utility.yul\":6803:6810   */\n      dup5\n        /* \"#utility.yul\":6794:6800   */\n      dup3\n        /* \"#utility.yul\":6783:6792   */\n      dup6\n        /* \"#utility.yul\":6779:6801   */\n      add\n        /* \"#utility.yul\":6738:6811   */\n      tag_358\n      jump\t// in\n    tag_424:\n        /* \"#utility.yul\":6728:6811   */\n      swap2\n      pop\n        /* \"#utility.yul\":6684:6821   */\n      pop\n        /* \"#utility.yul\":6459:6828   */\n      swap3\n      swap2\n      pop\n      pop\n      jump\t// out\n        /* \"#utility.yul\":6834:7203   */\n    tag_59:\n        /* \"#utility.yul\":6913:6919   */\n      0x00\n        /* \"#utility.yul\":6962:6964   */\n      0x20\n        /* \"#utility.yul\":6950:6959   */\n      dup3\n        /* \"#utility.yul\":6941:6948   */\n      dup5\n        /* \"#utility.yul\":6937:6960   */\n      sub\n        /* \"#utility.yul\":6933:6965   */\n      slt\n        /* \"#utility.yul\":6930:7049   */\n      iszero\n      tag_426\n      jumpi\n        /* \"#utility.yul\":6968:7047   */\n      tag_427\n      tag_399\n      jump\t// in\n    tag_427:\n        /* \"#utility.yul\":6930:7049   */\n    tag_426:\n        /* \"#utility.yul\":7088:7089   */\n      0x00\n        /* \"#utility.yul\":7113:7186   */\n      tag_428\n        /* \"#utility.yul\":7178:7185   */\n      dup5\n        /* \"#utility.yul\":7169:7175   */\n      dup3\n        /* \"#utility.yul\":7158:7167   */\n      dup6\n        /* \"#utility.yul\":7154:7176   */\n      add\n        /* \"#utility.yul\":7113:7186   */\n      tag_362\n      jump\t// in\n    tag_428:\n        /* \"#utility.yul\":7103:7186   */\n      swap2\n      pop\n        /* \"#utility.yul\":7059:7196   */\n      pop\n        /* \"#utility.yul\":6834:7203   */\n      swap3\n      swap2\n      pop\n      pop\n      jump\t// out\n        /* \"#utility.yul\":7209:7588   */\n    tag_67:\n        /* \"#utility.yul\":7293:7299   */\n      0x00\n        /* \"#utility.yul\":7342:7344   */\n      0x20\n        /* \"#utility.yul\":7330:7339   */\n      dup3\n        /* \"#utility.yul\":7321:7328   */\n      dup5\n        /* \"#utility.yul\":7317:7340   */\n      sub\n        /* \"#utility.yul\":7313:7345   */\n      slt\n        /* \"#utility.yul\":7310:7429   */\n      iszero\n      tag_430\n      jumpi\n        /* \"#utility.yul\":7348:7427   */\n      tag_431\n      tag_399\n      jump\t// in\n    tag_431:\n        /* \"#utility.yul\":7310:7429   */\n    tag_430:\n        /* \"#utility.yul\":7468:7469   */\n      0x00\n        /* \"#utility.yul\":7493:7571   */\n      tag_432\n        /* \"#utility.yul\":7563:7570   */\n      dup5\n        /* \"#utility.yul\":7554:7560   */\n      dup3\n        /* \"#utility.yul\":7543:7552   */\n      dup6\n        /* \"#utility.yul\":7539:7561   */\n      add\n        /* \"#utility.yul\":7493:7571   */\n      tag_366\n      jump\t// in\n    tag_432:\n        /* \"#utility.yul\":7483:7571   */\n      swap2\n      pop\n        /* \"#utility.yul\":7439:7581   */\n      pop\n        /* \"#utility.yul\":7209:7588   */\n      swap3\n      swap2\n      pop\n      pop\n      jump\t// out\n        /* \"#utility.yul\":7594:7998   */\n    tag_191:\n        /* \"#utility.yul\":7690:7696   */\n      0x00\n        /* \"#utility.yul\":7739:7742   */\n      0xc0\n        /* \"#utility.yul\":7727:7736   */\n      dup3\n        /* \"#utility.yul\":7718:7725   */\n      dup5\n        /* \"#utility.yul\":7714:7737   */\n      sub\n        /* \"#utility.yul\":7710:7743   */\n      slt\n        /* \"#utility.yul\":7707:7827   */\n      iszero\n      tag_434\n      jumpi\n        /* \"#utility.yul\":7746:7825   */\n      tag_435\n      tag_399\n      jump\t// in\n    tag_435:\n        /* \"#utility.yul\":7707:7827   */\n    tag_434:\n        /* \"#utility.yul\":7866:7867   */\n      0x00\n        /* \"#utility.yul\":7891:7981   */\n      tag_436\n        /* \"#utility.yul\":7973:7980   */\n      dup5\n        /* \"#utility.yul\":7964:7970   */\n      dup3\n        /* \"#utility.yul\":7953:7962   */\n      dup6\n        /* \"#utility.yul\":7949:7971   */\n      add\n        /* \"#utility.yul\":7891:7981   */\n      tag_370\n      jump\t// in\n    tag_436:\n        /* \"#utility.yul\":7881:7981   */\n      swap2\n      pop\n        /* \"#utility.yul\":7837:7991   */\n      pop\n        /* \"#utility.yul\":7594:7998   */\n      swap3\n      swap2\n      pop\n      pop\n      jump\t// out\n        /* \"#utility.yul\":8004:8665   */\n    tag_206:\n        /* \"#utility.yul\":8091:8097   */\n      0x00\n        /* \"#utility.yul\":8099:8105   */\n      dup1\n        /* \"#utility.yul\":8107:8113   */\n      0x00\n        /* \"#utility.yul\":8156:8158   */\n      0x60\n        /* \"#utility.yul\":8144:8153   */\n      dup5\n        /* \"#utility.yul\":8135:8142   */\n      dup7\n        /* \"#utility.yul\":8131:8154   */\n      sub\n        /* \"#utility.yul\":8127:8159   */\n      slt\n        /* \"#utility.yul\":8124:8243   */\n      iszero\n      tag_438\n      jumpi\n        /* \"#utility.yul\":8162:8241   */\n      tag_439\n      tag_399\n      jump\t// in\n    tag_439:\n        /* \"#utility.yul\":8124:8243   */\n    tag_438:\n        /* \"#utility.yul\":8282:8283   */\n      0x00\n        /* \"#utility.yul\":8307:8371   */\n      tag_440\n        /* \"#utility.yul\":8363:8370   */\n      dup7\n        /* \"#utility.yul\":8354:8360   */\n      dup3\n        /* \"#utility.yul\":8343:8352   */\n      dup8\n        /* \"#utility.yul\":8339:8361   */\n      add\n        /* \"#utility.yul\":8307:8371   */\n      tag_382\n      jump\t// in\n    tag_440:\n        /* \"#utility.yul\":8297:8371   */\n      swap4\n      pop\n        /* \"#utility.yul\":8253:8381   */\n      pop\n        /* \"#utility.yul\":8420:8422   */\n      0x20\n        /* \"#utility.yul\":8446:8510   */\n      tag_441\n        /* \"#utility.yul\":8502:8509   */\n      dup7\n        /* \"#utility.yul\":8493:8499   */\n      dup3\n        /* \"#utility.yul\":8482:8491   */\n      dup8\n        /* \"#utility.yul\":8478:8500   */\n      add\n        /* \"#utility.yul\":8446:8510   */\n      tag_382\n      jump\t// in\n    tag_441:\n        /* \"#utility.yul\":8436:8510   */\n      swap3\n      pop\n        /* \"#utility.yul\":8391:8520   */\n      pop\n        /* \"#utility.yul\":8559:8561   */\n      0x40\n        /* \"#utility.yul\":8585:8648   */\n      tag_442\n        /* \"#utility.yul\":8640:8647   */\n      dup7\n        /* \"#utility.yul\":8631:8637   */\n      dup3\n        /* \"#utility.yul\":8620:8629   */\n      dup8\n        /* \"#utility.yul\":8616:8638   */\n      add\n        /* \"#utility.yul\":8585:8648   */\n      tag_392\n      jump\t// in\n    tag_442:\n        /* \"#utility.yul\":8575:8648   */\n      swap2\n      pop\n        /* \"#utility.yul\":8530:8658   */\n      pop\n        /* \"#utility.yul\":8004:8665   */\n      swap3\n      pop\n      swap3\n      pop\n      swap3\n      jump\t// out\n        /* \"#utility.yul\":8671:9022   */\n    tag_175:\n        /* \"#utility.yul\":8741:8747   */\n      0x00\n        /* \"#utility.yul\":8790:8792   */\n      0x20\n        /* \"#utility.yul\":8778:8787   */\n      dup3\n        /* \"#utility.yul\":8769:8776   */\n      dup5\n        /* \"#utility.yul\":8765:8788   */\n      sub\n        /* \"#utility.yul\":8761:8793   */\n      slt\n        /* \"#utility.yul\":8758:8877   */\n      iszero\n      tag_444\n      jumpi\n        /* \"#utility.yul\":8796:8875   */\n      tag_445\n      tag_399\n      jump\t// in\n    tag_445:\n        /* \"#utility.yul\":8758:8877   */\n    tag_444:\n        /* \"#utility.yul\":8916:8917   */\n      0x00\n        /* \"#utility.yul\":8941:9005   */\n      tag_446\n        /* \"#utility.yul\":8997:9004   */\n      dup5\n        /* \"#utility.yul\":8988:8994   */\n      dup3\n        /* \"#utility.yul\":8977:8986   */\n      dup6\n        /* \"#utility.yul\":8973:8995   */\n      add\n        /* \"#utility.yul\":8941:9005   */\n      tag_336\n      jump\t// in\n    tag_446:\n        /* \"#utility.yul\":8931:9005   */\n      swap2\n      pop\n        /* \"#utility.yul\":8887:9015   */\n      pop\n        /* \"#utility.yul\":8671:9022   */\n      swap3\n      swap2\n      pop\n      pop\n      jump\t// out\n        /* \"#utility.yul\":9028:9146   */\n    tag_447:\n        /* \"#utility.yul\":9115:9139   */\n      tag_449\n        /* \"#utility.yul\":9133:9138   */\n      dup2\n        /* \"#utility.yul\":9115:9139   */\n      tag_450\n      jump\t// in\n    tag_449:\n        /* \"#utility.yul\":9110:9113   */\n      dup3\n        /* \"#utility.yul\":9103:9140   */\n      mstore\n        /* \"#utility.yul\":9028:9146   */\n      pop\n      pop\n      jump\t// out\n        /* \"#utility.yul\":9152:9311   */\n    tag_451:\n        /* \"#utility.yul\":9253:9304   */\n      tag_453\n        /* \"#utility.yul\":9298:9303   */\n      dup2\n        /* \"#utility.yul\":9253:9304   */\n      tag_454\n      jump\t// in\n    tag_453:\n        /* \"#utility.yul\":9248:9251   */\n      dup3\n        /* \"#utility.yul\":9241:9305   */\n      mstore\n        /* \"#utility.yul\":9152:9311   */\n      pop\n      pop\n      jump\t// out\n        /* \"#utility.yul\":9317:9480   */\n    tag_455:\n        /* \"#utility.yul\":9420:9473   */\n      tag_457\n        /* \"#utility.yul\":9467:9472   */\n      dup2\n        /* \"#utility.yul\":9420:9473   */\n      tag_458\n      jump\t// in\n    tag_457:\n        /* \"#utility.yul\":9415:9418   */\n      dup3\n        /* \"#utility.yul\":9408:9474   */\n      mstore\n        /* \"#utility.yul\":9317:9480   */\n      pop\n      pop\n      jump\t// out\n        /* \"#utility.yul\":9486:9657   */\n    tag_459:\n        /* \"#utility.yul\":9593:9650   */\n      tag_461\n        /* \"#utility.yul\":9644:9649   */\n      dup2\n        /* \"#utility.yul\":9593:9650   */\n      tag_462\n      jump\t// in\n    tag_461:\n        /* \"#utility.yul\":9588:9591   */\n      dup3\n        /* \"#utility.yul\":9581:9651   */\n      mstore\n        /* \"#utility.yul\":9486:9657   */\n      pop\n      pop\n      jump\t// out\n        /* \"#utility.yul\":9663:9834   */\n    tag_463:\n        /* \"#utility.yul\":9770:9827   */\n      tag_465\n        /* \"#utility.yul\":9821:9826   */\n      dup2\n        /* \"#utility.yul\":9770:9827   */\n      tag_466\n      jump\t// in\n    tag_465:\n        /* \"#utility.yul\":9765:9768   */\n      dup3\n        /* \"#utility.yul\":9758:9828   */\n      mstore\n        /* \"#utility.yul\":9663:9834   */\n      pop\n      pop\n      jump\t// out\n        /* \"#utility.yul\":9840:10021   */\n    tag_467:\n        /* \"#utility.yul\":9952:10014   */\n      tag_469\n        /* \"#utility.yul\":10008:10013   */\n      dup2\n        /* \"#utility.yul\":9952:10014   */\n      tag_470\n      jump\t// in\n    tag_469:\n        /* \"#utility.yul\":9947:9950   */\n      dup3\n        /* \"#utility.yul\":9940:10015   */\n      mstore\n        /* \"#utility.yul\":9840:10021   */\n      pop\n      pop\n      jump\t// out\n        /* \"#utility.yul\":10027:10393   */\n    tag_471:\n        /* \"#utility.yul\":10169:10172   */\n      0x00\n        /* \"#utility.yul\":10190:10257   */\n      tag_473\n        /* \"#utility.yul\":10254:10256   */\n      0x26\n        /* \"#utility.yul\":10249:10252   */\n      dup4\n        /* \"#utility.yul\":10190:10257   */\n      tag_474\n      jump\t// in\n    tag_473:\n        /* \"#utility.yul\":10183:10257   */\n      swap2\n      pop\n        /* \"#utility.yul\":10266:10359   */\n      tag_475\n        /* \"#utility.yul\":10355:10358   */\n      dup3\n        /* \"#utility.yul\":10266:10359   */\n      tag_476\n      jump\t// in\n    tag_475:\n        /* \"#utility.yul\":10384:10386   */\n      0x40\n        /* \"#utility.yul\":10379:10382   */\n      dup3\n        /* \"#utility.yul\":10375:10387   */\n      add\n        /* \"#utility.yul\":10368:10387   */\n      swap1\n      pop\n        /* \"#utility.yul\":10027:10393   */\n      swap2\n      swap1\n      pop\n      jump\t// out\n        /* \"#utility.yul\":10399:10765   */\n    tag_477:\n        /* \"#utility.yul\":10541:10544   */\n      0x00\n        /* \"#utility.yul\":10562:10629   */\n      tag_479\n        /* \"#utility.yul\":10626:10628   */\n      0x20\n        /* \"#utility.yul\":10621:10624   */\n      dup4\n        /* \"#utility.yul\":10562:10629   */\n      tag_474\n      jump\t// in\n    tag_479:\n        /* \"#utility.yul\":10555:10629   */\n      swap2\n      pop\n        /* \"#utility.yul\":10638:10731   */\n      tag_480\n        /* \"#utility.yul\":10727:10730   */\n      dup3\n        /* \"#utility.yul\":10638:10731   */\n      tag_481\n      jump\t// in\n    tag_480:\n        /* \"#utility.yul\":10756:10758   */\n      0x20\n        /* \"#utility.yul\":10751:10754   */\n      dup3\n        /* \"#utility.yul\":10747:10759   */\n      add\n        /* \"#utility.yul\":10740:10759   */\n      swap1\n      pop\n        /* \"#utility.yul\":10399:10765   */\n      swap2\n      swap1\n      pop\n      jump\t// out\n        /* \"#utility.yul\":10771:10889   */\n    tag_482:\n        /* \"#utility.yul\":10858:10882   */\n      tag_484\n        /* \"#utility.yul\":10876:10881   */\n      dup2\n        /* \"#utility.yul\":10858:10882   */\n      tag_485\n      jump\t// in\n    tag_484:\n        /* \"#utility.yul\":10853:10856   */\n      dup3\n        /* \"#utility.yul\":10846:10883   */\n      mstore\n        /* \"#utility.yul\":10771:10889   */\n      pop\n      pop\n      jump\t// out\n        /* \"#utility.yul\":10895:11117   */\n    tag_109:\n        /* \"#utility.yul\":10988:10992   */\n      0x00\n        /* \"#utility.yul\":11026:11028   */\n      0x20\n        /* \"#utility.yul\":11015:11024   */\n      dup3\n        /* \"#utility.yul\":11011:11029   */\n      add\n        /* \"#utility.yul\":11003:11029   */\n      swap1\n      pop\n        /* \"#utility.yul\":11039:11110   */\n      tag_487\n        /* \"#utility.yul\":11107:11108   */\n      0x00\n        /* \"#utility.yul\":11096:11105   */\n      dup4\n        /* \"#utility.yul\":11092:11109   */\n      add\n        /* \"#utility.yul\":11083:11089   */\n      dup5\n        /* \"#utility.yul\":11039:11110   */\n      tag_447\n      jump\t// in\n    tag_487:\n        /* \"#utility.yul\":10895:11117   */\n      swap3\n      swap2\n      pop\n      pop\n      jump\t// out\n        /* \"#utility.yul\":11123:11455   */\n    tag_271:\n        /* \"#utility.yul\":11244:11248   */\n      0x00\n        /* \"#utility.yul\":11282:11284   */\n      0x40\n        /* \"#utility.yul\":11271:11280   */\n      dup3\n        /* \"#utility.yul\":11267:11285   */\n      add\n        /* \"#utility.yul\":11259:11285   */\n      swap1\n      pop\n        /* \"#utility.yul\":11295:11366   */\n      tag_489\n        /* \"#utility.yul\":11363:11364   */\n      0x00\n        /* \"#utility.yul\":11352:11361   */\n      dup4\n        /* \"#utility.yul\":11348:11365   */\n      add\n        /* \"#utility.yul\":11339:11345   */\n      dup6\n        /* \"#utility.yul\":11295:11366   */\n      tag_447\n      jump\t// in\n    tag_489:\n        /* \"#utility.yul\":11376:11448   */\n      tag_490\n        /* \"#utility.yul\":11444:11446   */\n      0x20\n        /* \"#utility.yul\":11433:11442   */\n      dup4\n        /* \"#utility.yul\":11429:11447   */\n      add\n        /* \"#utility.yul\":11420:11426   */\n      dup5\n        /* \"#utility.yul\":11376:11448   */\n      tag_482\n      jump\t// in\n    tag_490:\n        /* \"#utility.yul\":11123:11455   */\n      swap4\n      swap3\n      pop\n      pop\n      pop\n      jump\t// out\n        /* \"#utility.yul\":11461:11711   */\n    tag_92:\n        /* \"#utility.yul\":11568:11572   */\n      0x00\n        /* \"#utility.yul\":11606:11608   */\n      0x20\n        /* \"#utility.yul\":11595:11604   */\n      dup3\n        /* \"#utility.yul\":11591:11609   */\n      add\n        /* \"#utility.yul\":11583:11609   */\n      swap1\n      pop\n        /* \"#utility.yul\":11619:11704   */\n      tag_492\n        /* \"#utility.yul\":11701:11702   */\n      0x00\n        /* \"#utility.yul\":11690:11699   */\n      dup4\n        /* \"#utility.yul\":11686:11703   */\n      add\n        /* \"#utility.yul\":11677:11683   */\n      dup5\n        /* \"#utility.yul\":11619:11704   */\n      tag_451\n      jump\t// in\n    tag_492:\n        /* \"#utility.yul\":11461:11711   */\n      swap3\n      swap2\n      pop\n      pop\n      jump\t// out\n        /* \"#utility.yul\":11717:11971   */\n    tag_43:\n        /* \"#utility.yul\":11826:11830   */\n      0x00\n        /* \"#utility.yul\":11864:11866   */\n      0x20\n        /* \"#utility.yul\":11853:11862   */\n      dup3\n        /* \"#utility.yul\":11849:11867   */\n      add\n        /* \"#utility.yul\":11841:11867   */\n      swap1\n      pop\n        /* \"#utility.yul\":11877:11964   */\n      tag_494\n        /* \"#utility.yul\":11961:11962   */\n      0x00\n        /* \"#utility.yul\":11950:11959   */\n      dup4\n        /* \"#utility.yul\":11946:11963   */\n      add\n        /* \"#utility.yul\":11937:11943   */\n      dup5\n        /* \"#utility.yul\":11877:11964   */\n      tag_455\n      jump\t// in\n    tag_494:\n        /* \"#utility.yul\":11717:11971   */\n      swap3\n      swap2\n      pop\n      pop\n      jump\t// out\n        /* \"#utility.yul\":11977:12239   */\n    tag_117:\n        /* \"#utility.yul\":12090:12094   */\n      0x00\n        /* \"#utility.yul\":12128:12130   */\n      0x20\n        /* \"#utility.yul\":12117:12126   */\n      dup3\n        /* \"#utility.yul\":12113:12131   */\n      add\n        /* \"#utility.yul\":12105:12131   */\n      swap1\n      pop\n        /* \"#utility.yul\":12141:12232   */\n      tag_496\n        /* \"#utility.yul\":12229:12230   */\n      0x00\n        /* \"#utility.yul\":12218:12227   */\n      dup4\n        /* \"#utility.yul\":12214:12231   */\n      add\n        /* \"#utility.yul\":12205:12211   */\n      dup5\n        /* \"#utility.yul\":12141:12232   */\n      tag_459\n      jump\t// in\n    tag_496:\n        /* \"#utility.yul\":11977:12239   */\n      swap3\n      swap2\n      pop\n      pop\n      jump\t// out\n        /* \"#utility.yul\":12245:12507   */\n    tag_64:\n        /* \"#utility.yul\":12358:12362   */\n      0x00\n        /* \"#utility.yul\":12396:12398   */\n      0x20\n        /* \"#utility.yul\":12385:12394   */\n      dup3\n        /* \"#utility.yul\":12381:12399   */\n      add\n        /* \"#utility.yul\":12373:12399   */\n      swap1\n      pop\n        /* \"#utility.yul\":12409:12500   */\n      tag_498\n        /* \"#utility.yul\":12497:12498   */\n      0x00\n        /* \"#utility.yul\":12486:12495   */\n      dup4\n        /* \"#utility.yul\":12482:12499   */\n      add\n        /* \"#utility.yul\":12473:12479   */\n      dup5\n        /* \"#utility.yul\":12409:12500   */\n      tag_463\n      jump\t// in\n    tag_498:\n        /* \"#utility.yul\":12245:12507   */\n      swap3\n      swap2\n      pop\n      pop\n      jump\t// out\n        /* \"#utility.yul\":12513:12785   */\n    tag_101:\n        /* \"#utility.yul\":12631:12635   */\n      0x00\n        /* \"#utility.yul\":12669:12671   */\n      0x20\n        /* \"#utility.yul\":12658:12667   */\n      dup3\n        /* \"#utility.yul\":12654:12672   */\n      add\n        /* \"#utility.yul\":12646:12672   */\n      swap1\n      pop\n        /* \"#utility.yul\":12682:12778   */\n      tag_500\n        /* \"#utility.yul\":12775:12776   */\n      0x00\n        /* \"#utility.yul\":12764:12773   */\n      dup4\n        /* \"#utility.yul\":12760:12777   */\n      add\n        /* \"#utility.yul\":12751:12757   */\n      dup5\n        /* \"#utility.yul\":12682:12778   */\n      tag_467\n      jump\t// in\n    tag_500:\n        /* \"#utility.yul\":12513:12785   */\n      swap3\n      swap2\n      pop\n      pop\n      jump\t// out\n        /* \"#utility.yul\":12791:13210   */\n    tag_306:\n        /* \"#utility.yul\":12957:12961   */\n      0x00\n        /* \"#utility.yul\":12995:12997   */\n      0x20\n        /* \"#utility.yul\":12984:12993   */\n      dup3\n        /* \"#utility.yul\":12980:12998   */\n      add\n        /* \"#utility.yul\":12972:12998   */\n      swap1\n      pop\n        /* \"#utility.yul\":13044:13053   */\n      dup2\n        /* \"#utility.yul\":13038:13042   */\n      dup2\n        /* \"#utility.yul\":13034:13054   */\n      sub\n        /* \"#utility.yul\":13030:13031   */\n      0x00\n        /* \"#utility.yul\":13019:13028   */\n      dup4\n        /* \"#utility.yul\":13015:13032   */\n      add\n        /* \"#utility.yul\":13008:13055   */\n      mstore\n        /* \"#utility.yul\":13072:13203   */\n      tag_502\n        /* \"#utility.yul\":13198:13202   */\n      dup2\n        /* \"#utility.yul\":13072:13203   */\n      tag_471\n      jump\t// in\n    tag_502:\n        /* \"#utility.yul\":13064:13203   */\n      swap1\n      pop\n        /* \"#utility.yul\":12791:13210   */\n      swap2\n      swap1\n      pop\n      jump\t// out\n        /* \"#utility.yul\":13216:13635   */\n    tag_140:\n        /* \"#utility.yul\":13382:13386   */\n      0x00\n        /* \"#utility.yul\":13420:13422   */\n      0x20\n        /* \"#utility.yul\":13409:13418   */\n      dup3\n        /* \"#utility.yul\":13405:13423   */\n      add\n        /* \"#utility.yul\":13397:13423   */\n      swap1\n      pop\n        /* \"#utility.yul\":13469:13478   */\n      dup2\n        /* \"#utility.yul\":13463:13467   */\n      dup2\n        /* \"#utility.yul\":13459:13479   */\n      sub\n        /* \"#utility.yul\":13455:13456   */\n      0x00\n        /* \"#utility.yul\":13444:13453   */\n      dup4\n        /* \"#utility.yul\":13440:13457   */\n      add\n        /* \"#utility.yul\":13433:13480   */\n      mstore\n        /* \"#utility.yul\":13497:13628   */\n      tag_504\n        /* \"#utility.yul\":13623:13627   */\n      dup2\n        /* \"#utility.yul\":13497:13628   */\n      tag_477\n      jump\t// in\n    tag_504:\n        /* \"#utility.yul\":13489:13628   */\n      swap1\n      pop\n        /* \"#utility.yul\":13216:13635   */\n      swap2\n      swap1\n      pop\n      jump\t// out\n        /* \"#utility.yul\":13641:13863   */\n    tag_56:\n        /* \"#utility.yul\":13734:13738   */\n      0x00\n        /* \"#utility.yul\":13772:13774   */\n      0x20\n        /* \"#utility.yul\":13761:13770   */\n      dup3\n        /* \"#utility.yul\":13757:13775   */\n      add\n        /* \"#utility.yul\":13749:13775   */\n      swap1\n      pop\n        /* \"#utility.yul\":13785:13856   */\n      tag_506\n        /* \"#utility.yul\":13853:13854   */\n      0x00\n        /* \"#utility.yul\":13842:13851   */\n      dup4\n        /* \"#utility.yul\":13838:13855   */\n      add\n        /* \"#utility.yul\":13829:13835   */\n      dup5\n        /* \"#utility.yul\":13785:13856   */\n      tag_482\n      jump\t// in\n    tag_506:\n        /* \"#utility.yul\":13641:13863   */\n      swap3\n      swap2\n      pop\n      pop\n      jump\t// out\n        /* \"#utility.yul\":13869:14201   */\n    tag_39:\n        /* \"#utility.yul\":13990:13994   */\n      0x00\n        /* \"#utility.yul\":14028:14030   */\n      0x40\n        /* \"#utility.yul\":14017:14026   */\n      dup3\n        /* \"#utility.yul\":14013:14031   */\n      add\n        /* \"#utility.yul\":14005:14031   */\n      swap1\n      pop\n        /* \"#utility.yul\":14041:14112   */\n      tag_508\n        /* \"#utility.yul\":14109:14110   */\n      0x00\n        /* \"#utility.yul\":14098:14107   */\n      dup4\n        /* \"#utility.yul\":14094:14111   */\n      add\n        /* \"#utility.yul\":14085:14091   */\n      dup6\n        /* \"#utility.yul\":14041:14112   */\n      tag_482\n      jump\t// in\n    tag_508:\n        /* \"#utility.yul\":14122:14194   */\n      tag_509\n        /* \"#utility.yul\":14190:14192   */\n      0x20\n        /* \"#utility.yul\":14179:14188   */\n      dup4\n        /* \"#utility.yul\":14175:14193   */\n      add\n        /* \"#utility.yul\":14166:14172   */\n      dup5\n        /* \"#utility.yul\":14122:14194   */\n      tag_482\n      jump\t// in\n    tag_509:\n        /* \"#utility.yul\":13869:14201   */\n      swap4\n      swap3\n      pop\n      pop\n      pop\n      jump\t// out\n        /* \"#utility.yul\":14207:14336   */\n    tag_328:\n        /* \"#utility.yul\":14241:14247   */\n      0x00\n        /* \"#utility.yul\":14268:14288   */\n      tag_511\n      tag_512\n      jump\t// in\n    tag_511:\n        /* \"#utility.yul\":14258:14288   */\n      swap1\n      pop\n        /* \"#utility.yul\":14297:14330   */\n      tag_513\n        /* \"#utility.yul\":14325:14329   */\n      dup3\n        /* \"#utility.yul\":14317:14323   */\n      dup3\n        /* \"#utility.yul\":14297:14330   */\n      tag_514\n      jump\t// in\n    tag_513:\n        /* \"#utility.yul\":14207:14336   */\n      swap2\n      swap1\n      pop\n      jump\t// out\n        /* \"#utility.yul\":14342:14417   */\n    tag_512:\n        /* \"#utility.yul\":14375:14381   */\n      0x00\n        /* \"#utility.yul\":14408:14410   */\n      0x40\n        /* \"#utility.yul\":14402:14411   */\n      mload\n        /* \"#utility.yul\":14392:14411   */\n      swap1\n      pop\n        /* \"#utility.yul\":14342:14417   */\n      swap1\n      jump\t// out\n        /* \"#utility.yul\":14423:14734   */\n    tag_327:\n        /* \"#utility.yul\":14500:14504   */\n      0x00\n        /* \"#utility.yul\":14590:14608   */\n      0xffffffffffffffff\n        /* \"#utility.yul\":14582:14588   */\n      dup3\n        /* \"#utility.yul\":14579:14609   */\n      gt\n        /* \"#utility.yul\":14576:14632   */\n      iszero\n      tag_517\n      jumpi\n        /* \"#utility.yul\":14612:14630   */\n      tag_518\n      tag_519\n      jump\t// in\n    tag_518:\n        /* \"#utility.yul\":14576:14632   */\n    tag_517:\n        /* \"#utility.yul\":14662:14666   */\n      0x20\n        /* \"#utility.yul\":14654:14660   */\n      dup3\n        /* \"#utility.yul\":14650:14667   */\n      mul\n        /* \"#utility.yul\":14642:14667   */\n      swap1\n      pop\n        /* \"#utility.yul\":14722:14726   */\n      0x20\n        /* \"#utility.yul\":14716:14720   */\n      dup2\n        /* \"#utility.yul\":14712:14727   */\n      add\n        /* \"#utility.yul\":14704:14727   */\n      swap1\n      pop\n        /* \"#utility.yul\":14423:14734   */\n      swap2\n      swap1\n      pop\n      jump\t// out\n        /* \"#utility.yul\":14740:14909   */\n    tag_474:\n        /* \"#utility.yul\":14824:14835   */\n      0x00\n        /* \"#utility.yul\":14858:14864   */\n      dup3\n        /* \"#utility.yul\":14853:14856   */\n      dup3\n        /* \"#utility.yul\":14846:14865   */\n      mstore\n        /* \"#utility.yul\":14898:14902   */\n      0x20\n        /* \"#utility.yul\":14893:14896   */\n      dup3\n        /* \"#utility.yul\":14889:14903   */\n      add\n        /* \"#utility.yul\":14874:14903   */\n      swap1\n      pop\n        /* \"#utility.yul\":14740:14909   */\n      swap3\n      swap2\n      pop\n      pop\n      jump\t// out\n        /* \"#utility.yul\":14915:15220   */\n    tag_154:\n        /* \"#utility.yul\":14955:14958   */\n      0x00\n        /* \"#utility.yul\":14974:14994   */\n      tag_522\n        /* \"#utility.yul\":14992:14993   */\n      dup3\n        /* \"#utility.yul\":14974:14994   */\n      tag_485\n      jump\t// in\n    tag_522:\n        /* \"#utility.yul\":14969:14994   */\n      swap2\n      pop\n        /* \"#utility.yul\":15008:15028   */\n      tag_523\n        /* \"#utility.yul\":15026:15027   */\n      dup4\n        /* \"#utility.yul\":15008:15028   */\n      tag_485\n      jump\t// in\n    tag_523:\n        /* \"#utility.yul\":15003:15028   */\n      swap3\n      pop\n        /* \"#utility.yul\":15162:15163   */\n      dup3\n        /* \"#utility.yul\":15094:15160   */\n      0xffffffffffffffffffffffffffffffffffffffffffffffffffffffffffffffff\n        /* \"#utility.yul\":15090:15164   */\n      sub\n        /* \"#utility.yul\":15087:15088   */\n      dup3\n        /* \"#utility.yul\":15084:15165   */\n      gt\n        /* \"#utility.yul\":15081:15188   */\n      iszero\n      tag_524\n      jumpi\n        /* \"#utility.yul\":15168:15186   */\n      tag_525\n      tag_526\n      jump\t// in\n    tag_525:\n        /* \"#utility.yul\":15081:15188   */\n    tag_524:\n        /* \"#utility.yul\":15212:15213   */\n      dup3\n        /* \"#utility.yul\":15209:15210   */\n      dup3\n        /* \"#utility.yul\":15205:15214   */\n      add\n        /* \"#utility.yul\":15198:15214   */\n      swap1\n      pop\n        /* \"#utility.yul\":14915:15220   */\n      swap3\n      swap2\n      pop\n      pop\n      jump\t// out\n        /* \"#utility.yul\":15226:15411   */\n    tag_317:\n        /* \"#utility.yul\":15266:15267   */\n      0x00\n        /* \"#utility.yul\":15283:15303   */\n      tag_528\n        /* \"#utility.yul\":15301:15302   */\n      dup3\n        /* \"#utility.yul\":15283:15303   */\n      tag_485\n      jump\t// in\n    tag_528:\n        /* \"#utility.yul\":15278:15303   */\n      swap2\n      pop\n        /* \"#utility.yul\":15317:15337   */\n      tag_529\n        /* \"#utility.yul\":15335:15336   */\n      dup4\n        /* \"#utility.yul\":15317:15337   */\n      tag_485\n      jump\t// in\n    tag_529:\n        /* \"#utility.yul\":15312:15337   */\n      swap3\n      pop\n        /* \"#utility.yul\":15356:15357   */\n      dup3\n        /* \"#utility.yul\":15346:15381   */\n      tag_530\n      jumpi\n        /* \"#utility.yul\":15361:15379   */\n      tag_531\n      tag_532\n      jump\t// in\n    tag_531:\n        /* \"#utility.yul\":15346:15381   */\n    tag_530:\n        /* \"#utility.yul\":15403:15404   */\n      dup3\n        /* \"#utility.yul\":15400:15401   */\n      dup3\n        /* \"#utility.yul\":15396:15405   */\n      div\n        /* \"#utility.yul\":15391:15405   */\n      swap1\n      pop\n        /* \"#utility.yul\":15226:15411   */\n      swap3\n      swap2\n      pop\n      pop\n      jump\t// out\n        /* \"#utility.yul\":15417:15765   */\n    tag_320:\n        /* \"#utility.yul\":15457:15464   */\n      0x00\n        /* \"#utility.yul\":15480:15500   */\n      tag_534\n        /* \"#utility.yul\":15498:15499   */\n      dup3\n        /* \"#utility.yul\":15480:15500   */\n      tag_485\n      jump\t// in\n    tag_534:\n        /* \"#utility.yul\":15475:15500   */\n      swap2\n      pop\n        /* \"#utility.yul\":15514:15534   */\n      tag_535\n        /* \"#utility.yul\":15532:15533   */\n      dup4\n        /* \"#utility.yul\":15514:15534   */\n      tag_485\n      jump\t// in\n    tag_535:\n        /* \"#utility.yul\":15509:15534   */\n      swap3\n      pop\n        /* \"#utility.yul\":15702:15703   */\n      dup2\n        /* \"#utility.yul\":15634:15700   */\n      0xffffffffffffffffffffffffffffffffffffffffffffffffffffffffffffffff\n        /* \"#utility.yul\":15630:15704   */\n      div\n        /* \"#utility.yul\":15627:15628   */\n      dup4\n        /* \"#utility.yul\":15624:15705   */\n      gt\n        /* \"#utility.yul\":15619:15620   */\n      dup3\n        /* \"#utility.yul\":15612:15621   */\n      iszero\n        /* \"#utility.yul\":15605:15622   */\n      iszero\n        /* \"#utility.yul\":15601:15706   */\n      and\n        /* \"#utility.yul\":15598:15729   */\n      iszero\n      tag_536\n      jumpi\n        /* \"#utility.yul\":15709:15727   */\n      tag_537\n      tag_526\n      jump\t// in\n    tag_537:\n        /* \"#utility.yul\":15598:15729   */\n    tag_536:\n        /* \"#utility.yul\":15757:15758   */\n      dup3\n        /* \"#utility.yul\":15754:15755   */\n      dup3\n        /* \"#utility.yul\":15750:15759   */\n      mul\n        /* \"#utility.yul\":15739:15759   */\n      swap1\n      pop\n        /* \"#utility.yul\":15417:15765   */\n      swap3\n      swap2\n      pop\n      pop\n      jump\t// out\n        /* \"#utility.yul\":15771:15962   */\n    tag_218:\n        /* \"#utility.yul\":15811:15815   */\n      0x00\n        /* \"#utility.yul\":15831:15851   */\n      tag_539\n        /* \"#utility.yul\":15849:15850   */\n      dup3\n        /* \"#utility.yul\":15831:15851   */\n      tag_485\n      jump\t// in\n    tag_539:\n        /* \"#utility.yul\":15826:15851   */\n      swap2\n      pop\n        /* \"#utility.yul\":15865:15885   */\n      tag_540\n        /* \"#utility.yul\":15883:15884   */\n      dup4\n        /* \"#utility.yul\":15865:15885   */\n      tag_485\n      jump\t// in\n    tag_540:\n        /* \"#utility.yul\":15860:15885   */\n      swap3\n      pop\n        /* \"#utility.yul\":15904:15905   */\n      dup3\n        /* \"#utility.yul\":15901:15902   */\n      dup3\n        /* \"#utility.yul\":15898:15906   */\n      lt\n        /* \"#utility.yul\":15895:15929   */\n      iszero\n      tag_541\n      jumpi\n        /* \"#utility.yul\":15909:15927   */\n      tag_542\n      tag_526\n      jump\t// in\n    tag_542:\n        /* \"#utility.yul\":15895:15929   */\n    tag_541:\n        /* \"#utility.yul\":15954:15955   */\n      dup3\n        /* \"#utility.yul\":15951:15952   */\n      dup3\n        /* \"#utility.yul\":15947:15956   */\n      sub\n        /* \"#utility.yul\":15939:15956   */\n      swap1\n      pop\n        /* \"#utility.yul\":15771:15962   */\n      swap3\n      swap2\n      pop\n      pop\n      jump\t// out\n        /* \"#utility.yul\":15968:16064   */\n    tag_450:\n        /* \"#utility.yul\":16005:16012   */\n      0x00\n        /* \"#utility.yul\":16034:16058   */\n      tag_544\n        /* \"#utility.yul\":16052:16057   */\n      dup3\n        /* \"#utility.yul\":16034:16058   */\n      tag_545\n      jump\t// in\n    tag_544:\n        /* \"#utility.yul\":16023:16058   */\n      swap1\n      pop\n        /* \"#utility.yul\":15968:16064   */\n      swap2\n      swap1\n      pop\n      jump\t// out\n        /* \"#utility.yul\":16070:16180   */\n    tag_546:\n        /* \"#utility.yul\":16121:16128   */\n      0x00\n        /* \"#utility.yul\":16150:16174   */\n      tag_548\n        /* \"#utility.yul\":16168:16173   */\n      dup3\n        /* \"#utility.yul\":16150:16174   */\n      tag_450\n      jump\t// in\n    tag_548:\n        /* \"#utility.yul\":16139:16174   */\n      swap1\n      pop\n        /* \"#utility.yul\":16070:16180   */\n      swap2\n      swap1\n      pop\n      jump\t// out\n        /* \"#utility.yul\":16186:16298   */\n    tag_549:\n        /* \"#utility.yul\":16239:16246   */\n      0x00\n        /* \"#utility.yul\":16268:16292   */\n      tag_551\n        /* \"#utility.yul\":16286:16291   */\n      dup3\n        /* \"#utility.yul\":16268:16292   */\n      tag_450\n      jump\t// in\n    tag_551:\n        /* \"#utility.yul\":16257:16292   */\n      swap1\n      pop\n        /* \"#utility.yul\":16186:16298   */\n      swap2\n      swap1\n      pop\n      jump\t// out\n        /* \"#utility.yul\":16304:16420   */\n    tag_552:\n        /* \"#utility.yul\":16361:16368   */\n      0x00\n        /* \"#utility.yul\":16390:16414   */\n      tag_554\n        /* \"#utility.yul\":16408:16413   */\n      dup3\n        /* \"#utility.yul\":16390:16414   */\n      tag_450\n      jump\t// in\n    tag_554:\n        /* \"#utility.yul\":16379:16414   */\n      swap1\n      pop\n        /* \"#utility.yul\":16304:16420   */\n      swap2\n      swap1\n      pop\n      jump\t// out\n        /* \"#utility.yul\":16426:16542   */\n    tag_555:\n        /* \"#utility.yul\":16483:16490   */\n      0x00\n        /* \"#utility.yul\":16512:16536   */\n      tag_557\n        /* \"#utility.yul\":16530:16535   */\n      dup3\n        /* \"#utility.yul\":16512:16536   */\n      tag_450\n      jump\t// in\n    tag_557:\n        /* \"#utility.yul\":16501:16536   */\n      swap1\n      pop\n        /* \"#utility.yul\":16426:16542   */\n      swap2\n      swap1\n      pop\n      jump\t// out\n        /* \"#utility.yul\":16548:16669   */\n    tag_558:\n        /* \"#utility.yul\":16610:16617   */\n      0x00\n        /* \"#utility.yul\":16639:16663   */\n      tag_560\n        /* \"#utility.yul\":16657:16662   */\n      dup3\n        /* \"#utility.yul\":16639:16663   */\n      tag_450\n      jump\t// in\n    tag_560:\n        /* \"#utility.yul\":16628:16663   */\n      swap1\n      pop\n        /* \"#utility.yul\":16548:16669   */\n      swap2\n      swap1\n      pop\n      jump\t// out\n        /* \"#utility.yul\":16675:16789   */\n    tag_561:\n        /* \"#utility.yul\":16712:16719   */\n      0x00\n        /* \"#utility.yul\":16752:16782   */\n      0xffffffffffffffffffffffffffff\n        /* \"#utility.yul\":16745:16750   */\n      dup3\n        /* \"#utility.yul\":16741:16783   */\n      and\n        /* \"#utility.yul\":16730:16783   */\n      swap1\n      pop\n        /* \"#utility.yul\":16675:16789   */\n      swap2\n      swap1\n      pop\n      jump\t// out\n        /* \"#utility.yul\":16795:16921   */\n    tag_545:\n        /* \"#utility.yul\":16832:16839   */\n      0x00\n        /* \"#utility.yul\":16872:16914   */\n      0xffffffffffffffffffffffffffffffffffffffff\n        /* \"#utility.yul\":16865:16870   */\n      dup3\n        /* \"#utility.yul\":16861:16915   */\n      and\n        /* \"#utility.yul\":16850:16915   */\n      swap1\n      pop\n        /* \"#utility.yul\":16795:16921   */\n      swap2\n      swap1\n      pop\n      jump\t// out\n        /* \"#utility.yul\":16927:17004   */\n    tag_485:\n        /* \"#utility.yul\":16964:16971   */\n      0x00\n        /* \"#utility.yul\":16993:16998   */\n      dup2\n        /* \"#utility.yul\":16982:16998   */\n      swap1\n      pop\n        /* \"#utility.yul\":16927:17004   */\n      swap2\n      swap1\n      pop\n      jump\t// out\n        /* \"#utility.yul\":17010:17103   */\n    tag_565:\n        /* \"#utility.yul\":17046:17053   */\n      0x00\n        /* \"#utility.yul\":17086:17096   */\n      0xffffffff\n        /* \"#utility.yul\":17079:17084   */\n      dup3\n        /* \"#utility.yul\":17075:17097   */\n      and\n        /* \"#utility.yul\":17064:17097   */\n      swap1\n      pop\n        /* \"#utility.yul\":17010:17103   */\n      swap2\n      swap1\n      pop\n      jump\t// out\n        /* \"#utility.yul\":17109:17249   */\n    tag_454:\n        /* \"#utility.yul\":17173:17182   */\n      0x00\n        /* \"#utility.yul\":17206:17243   */\n      tag_568\n        /* \"#utility.yul\":17237:17242   */\n      dup3\n        /* \"#utility.yul\":17206:17243   */\n      tag_569\n      jump\t// in\n    tag_568:\n        /* \"#utility.yul\":17193:17243   */\n      swap1\n      pop\n        /* \"#utility.yul\":17109:17249   */\n      swap2\n      swap1\n      pop\n      jump\t// out\n        /* \"#utility.yul\":17255:17397   */\n    tag_458:\n        /* \"#utility.yul\":17321:17330   */\n      0x00\n        /* \"#utility.yul\":17354:17391   */\n      tag_571\n        /* \"#utility.yul\":17385:17390   */\n      dup3\n        /* \"#utility.yul\":17354:17391   */\n      tag_569\n      jump\t// in\n    tag_571:\n        /* \"#utility.yul\":17341:17391   */\n      swap1\n      pop\n        /* \"#utility.yul\":17255:17397   */\n      swap2\n      swap1\n      pop\n      jump\t// out\n        /* \"#utility.yul\":17403:17549   */\n    tag_462:\n        /* \"#utility.yul\":17473:17482   */\n      0x00\n        /* \"#utility.yul\":17506:17543   */\n      tag_573\n        /* \"#utility.yul\":17537:17542   */\n      dup3\n        /* \"#utility.yul\":17506:17543   */\n      tag_569\n      jump\t// in\n    tag_573:\n        /* \"#utility.yul\":17493:17543   */\n      swap1\n      pop\n        /* \"#utility.yul\":17403:17549   */\n      swap2\n      swap1\n      pop\n      jump\t// out\n        /* \"#utility.yul\":17555:17701   */\n    tag_466:\n        /* \"#utility.yul\":17625:17634   */\n      0x00\n        /* \"#utility.yul\":17658:17695   */\n      tag_575\n        /* \"#utility.yul\":17689:17694   */\n      dup3\n        /* \"#utility.yul\":17658:17695   */\n      tag_569\n      jump\t// in\n    tag_575:\n        /* \"#utility.yul\":17645:17695   */\n      swap1\n      pop\n        /* \"#utility.yul\":17555:17701   */\n      swap2\n      swap1\n      pop\n      jump\t// out\n        /* \"#utility.yul\":17707:17858   */\n    tag_470:\n        /* \"#utility.yul\":17782:17791   */\n      0x00\n        /* \"#utility.yul\":17815:17852   */\n      tag_577\n        /* \"#utility.yul\":17846:17851   */\n      dup3\n        /* \"#utility.yul\":17815:17852   */\n      tag_569\n      jump\t// in\n    tag_577:\n        /* \"#utility.yul\":17802:17852   */\n      swap1\n      pop\n        /* \"#utility.yul\":17707:17858   */\n      swap2\n      swap1\n      pop\n      jump\t// out\n        /* \"#utility.yul\":17864:17990   */\n    tag_569:\n        /* \"#utility.yul\":17914:17923   */\n      0x00\n        /* \"#utility.yul\":17947:17984   */\n      tag_579\n        /* \"#utility.yul\":17978:17983   */\n      dup3\n        /* \"#utility.yul\":17947:17984   */\n      tag_580\n      jump\t// in\n    tag_579:\n        /* \"#utility.yul\":17934:17984   */\n      swap1\n      pop\n        /* \"#utility.yul\":17864:17990   */\n      swap2\n      swap1\n      pop\n      jump\t// out\n        /* \"#utility.yul\":17996:18109   */\n    tag_580:\n        /* \"#utility.yul\":18046:18055   */\n      0x00\n        /* \"#utility.yul\":18079:18103   */\n      tag_582\n        /* \"#utility.yul\":18097:18102   */\n      dup3\n        /* \"#utility.yul\":18079:18103   */\n      tag_545\n      jump\t// in\n    tag_582:\n        /* \"#utility.yul\":18066:18103   */\n      swap1\n      pop\n        /* \"#utility.yul\":17996:18109   */\n      swap2\n      swap1\n      pop\n      jump\t// out\n        /* \"#utility.yul\":18115:18396   */\n    tag_514:\n        /* \"#utility.yul\":18198:18225   */\n      tag_584\n        /* \"#utility.yul\":18220:18224   */\n      dup3\n        /* \"#utility.yul\":18198:18225   */\n      tag_585\n      jump\t// in\n    tag_584:\n        /* \"#utility.yul\":18190:18196   */\n      dup2\n        /* \"#utility.yul\":18186:18226   */\n      add\n        /* \"#utility.yul\":18328:18334   */\n      dup2\n        /* \"#utility.yul\":18316:18326   */\n      dup2\n        /* \"#utility.yul\":18313:18335   */\n      lt\n        /* \"#utility.yul\":18292:18310   */\n      0xffffffffffffffff\n        /* \"#utility.yul\":18280:18290   */\n      dup3\n        /* \"#utility.yul\":18277:18311   */\n      gt\n        /* \"#utility.yul\":18274:18336   */\n      or\n        /* \"#utility.yul\":18271:18359   */\n      iszero\n      tag_586\n      jumpi\n        /* \"#utility.yul\":18339:18357   */\n      tag_587\n      tag_519\n      jump\t// in\n    tag_587:\n        /* \"#utility.yul\":18271:18359   */\n    tag_586:\n        /* \"#utility.yul\":18379:18389   */\n      dup1\n        /* \"#utility.yul\":18375:18377   */\n      0x40\n        /* \"#utility.yul\":18368:18390   */\n      mstore\n        /* \"#utility.yul\":18158:18396   */\n      pop\n        /* \"#utility.yul\":18115:18396   */\n      pop\n      pop\n      jump\t// out\n        /* \"#utility.yul\":18402:18635   */\n    tag_194:\n        /* \"#utility.yul\":18441:18444   */\n      0x00\n        /* \"#utility.yul\":18464:18488   */\n      tag_589\n        /* \"#utility.yul\":18482:18487   */\n      dup3\n        /* \"#utility.yul\":18464:18488   */\n      tag_485\n      jump\t// in\n    tag_589:\n        /* \"#utility.yul\":18455:18488   */\n      swap2\n      pop\n        /* \"#utility.yul\":18510:18576   */\n      0xffffffffffffffffffffffffffffffffffffffffffffffffffffffffffffffff\n        /* \"#utility.yul\":18503:18508   */\n      dup3\n        /* \"#utility.yul\":18500:18577   */\n      eq\n        /* \"#utility.yul\":18497:18600   */\n      iszero\n      tag_590\n      jumpi\n        /* \"#utility.yul\":18580:18598   */\n      tag_591\n      tag_526\n      jump\t// in\n    tag_591:\n        /* \"#utility.yul\":18497:18600   */\n    tag_590:\n        /* \"#utility.yul\":18627:18628   */\n      0x01\n        /* \"#utility.yul\":18620:18625   */\n      dup3\n        /* \"#utility.yul\":18616:18629   */\n      add\n        /* \"#utility.yul\":18609:18629   */\n      swap1\n      pop\n        /* \"#utility.yul\":18402:18635   */\n      swap2\n      swap1\n      pop\n      jump\t// out\n        /* \"#utility.yul\":18641:18821   */\n    tag_526:\n        /* \"#utility.yul\":18689:18766   */\n      0x4e487b7100000000000000000000000000000000000000000000000000000000\n        /* \"#utility.yul\":18686:18687   */\n      0x00\n        /* \"#utility.yul\":18679:18767   */\n      mstore\n        /* \"#utility.yul\":18786:18790   */\n      0x11\n        /* \"#utility.yul\":18783:18784   */\n      0x04\n        /* \"#utility.yul\":18776:18791   */\n      mstore\n        /* \"#utility.yul\":18810:18814   */\n      0x24\n        /* \"#utility.yul\":18807:18808   */\n      0x00\n        /* \"#utility.yul\":18800:18815   */\n      revert\n        /* \"#utility.yul\":18827:19007   */\n    tag_532:\n        /* \"#utility.yul\":18875:18952   */\n      0x4e487b7100000000000000000000000000000000000000000000000000000000\n        /* \"#utility.yul\":18872:18873   */\n      0x00\n        /* \"#utility.yul\":18865:18953   */\n      mstore\n        /* \"#utility.yul\":18972:18976   */\n      0x12\n        /* \"#utility.yul\":18969:18970   */\n      0x04\n        /* \"#utility.yul\":18962:18977   */\n      mstore\n        /* \"#utility.yul\":18996:19000   */\n      0x24\n        /* \"#utility.yul\":18993:18994   */\n      0x00\n        /* \"#utility.yul\":18986:19001   */\n      revert\n        /* \"#utility.yul\":19013:19193   */\n    tag_233:\n        /* \"#utility.yul\":19061:19138   */\n      0x4e487b7100000000000000000000000000000000000000000000000000000000\n        /* \"#utility.yul\":19058:19059   */\n      0x00\n        /* \"#utility.yul\":19051:19139   */\n      mstore\n        /* \"#utility.yul\":19158:19162   */\n      0x31\n        /* \"#utility.yul\":19155:19156   */\n      0x04\n        /* \"#utility.yul\":19148:19163   */\n      mstore\n        /* \"#utility.yul\":19182:19186   */\n      0x24\n        /* \"#utility.yul\":19179:19180   */\n      0x00\n        /* \"#utility.yul\":19172:19187   */\n      revert\n        /* \"#utility.yul\":19199:19379   */\n    tag_221:\n        /* \"#utility.yul\":19247:19324   */\n      0x4e487b7100000000000000000000000000000000000000000000000000000000\n        /* \"#utility.yul\":19244:19245   */\n      0x00\n        /* \"#utility.yul\":19237:19325   */\n      mstore\n        /* \"#utility.yul\":19344:19348   */\n      0x32\n        /* \"#utility.yul\":19341:19342   */\n      0x04\n        /* \"#utility.yul\":19334:19349   */\n      mstore\n        /* \"#utility.yul\":19368:19372   */\n      0x24\n        /* \"#utility.yul\":19365:19366   */\n      0x00\n        /* \"#utility.yul\":19358:19373   */\n      revert\n        /* \"#utility.yul\":19385:19565   */\n    tag_519:\n        /* \"#utility.yul\":19433:19510   */\n      0x4e487b7100000000000000000000000000000000000000000000000000000000\n        /* \"#utility.yul\":19430:19431   */\n      0x00\n        /* \"#utility.yul\":19423:19511   */\n      mstore\n        /* \"#utility.yul\":19530:19534   */\n      0x41\n        /* \"#utility.yul\":19527:19528   */\n      0x04\n        /* \"#utility.yul\":19520:19535   */\n      mstore\n        /* \"#utility.yul\":19554:19558   */\n      0x24\n        /* \"#utility.yul\":19551:19552   */\n      0x00\n        /* \"#utility.yul\":19544:19559   */\n      revert\n        /* \"#utility.yul\":19571:19688   */\n    tag_348:\n        /* \"#utility.yul\":19680:19681   */\n      0x00\n        /* \"#utility.yul\":19677:19678   */\n      dup1\n        /* \"#utility.yul\":19670:19682   */\n      revert\n        /* \"#utility.yul\":19694:19811   */\n    tag_374:\n        /* \"#utility.yul\":19803:19804   */\n      0x00\n        /* \"#utility.yul\":19800:19801   */\n      dup1\n        /* \"#utility.yul\":19793:19805   */\n      revert\n        /* \"#utility.yul\":19940:20057   */\n    tag_331:\n        /* \"#utility.yul\":20049:20050   */\n      0x00\n        /* \"#utility.yul\":20046:20047   */\n      dup1\n        /* \"#utility.yul\":20039:20051   */\n      revert\n        /* \"#utility.yul\":20063:20180   */\n    tag_411:\n        /* \"#utility.yul\":20172:20173   */\n      0x00\n        /* \"#utility.yul\":20169:20170   */\n      dup1\n        /* \"#utility.yul\":20162:20174   */\n      revert\n        /* \"#utility.yul\":20186:20303   */\n    tag_399:\n        /* \"#utility.yul\":20295:20296   */\n      0x00\n        /* \"#utility.yul\":20292:20293   */\n      dup1\n        /* \"#utility.yul\":20285:20297   */\n      revert\n        /* \"#utility.yul\":20309:20411   */\n    tag_585:\n        /* \"#utility.yul\":20350:20356   */\n      0x00\n        /* \"#utility.yul\":20401:20403   */\n      0x1f\n        /* \"#utility.yul\":20397:20404   */\n      not\n        /* \"#utility.yul\":20392:20394   */\n      0x1f\n        /* \"#utility.yul\":20385:20390   */\n      dup4\n        /* \"#utility.yul\":20381:20395   */\n      add\n        /* \"#utility.yul\":20377:20405   */\n      and\n        /* \"#utility.yul\":20367:20405   */\n      swap1\n      pop\n        /* \"#utility.yul\":20309:20411   */\n      swap2\n      swap1\n      pop\n      jump\t// out\n        /* \"#utility.yul\":20417:20642   */\n    tag_476:\n        /* \"#utility.yul\":20557:20591   */\n      0x4f776e61626c653a206e6577206f776e657220697320746865207a65726f2061\n        /* \"#utility.yul\":20553:20554   */\n      0x00\n        /* \"#utility.yul\":20545:20551   */\n      dup3\n        /* \"#utility.yul\":20541:20555   */\n      add\n        /* \"#utility.yul\":20534:20592   */\n      mstore\n        /* \"#utility.yul\":20626:20634   */\n      0x6464726573730000000000000000000000000000000000000000000000000000\n        /* \"#utility.yul\":20621:20623   */\n      0x20\n        /* \"#utility.yul\":20613:20619   */\n      dup3\n        /* \"#utility.yul\":20609:20624   */\n      add\n        /* \"#utility.yul\":20602:20635   */\n      mstore\n        /* \"#utility.yul\":20417:20642   */\n      pop\n      jump\t// out\n        /* \"#utility.yul\":20648:20830   */\n    tag_481:\n        /* \"#utility.yul\":20788:20822   */\n      0x4f776e61626c653a2063616c6c6572206973206e6f7420746865206f776e6572\n        /* \"#utility.yul\":20784:20785   */\n      0x00\n        /* \"#utility.yul\":20776:20782   */\n      dup3\n        /* \"#utility.yul\":20772:20786   */\n      add\n        /* \"#utility.yul\":20765:20823   */\n      mstore\n        /* \"#utility.yul\":20648:20830   */\n      pop\n      jump\t// out\n        /* \"#utility.yul\":20836:20958   */\n    tag_340:\n        /* \"#utility.yul\":20909:20933   */\n      tag_608\n        /* \"#utility.yul\":20927:20932   */\n      dup2\n        /* \"#utility.yul\":20909:20933   */\n      tag_450\n      jump\t// in\n    tag_608:\n        /* \"#utility.yul\":20902:20907   */\n      dup2\n        /* \"#utility.yul\":20899:20934   */\n      eq\n        /* \"#utility.yul\":20889:20952   */\n      tag_609\n      jumpi\n        /* \"#utility.yul\":20948:20949   */\n      0x00\n        /* \"#utility.yul\":20945:20946   */\n      dup1\n        /* \"#utility.yul\":20938:20950   */\n      revert\n        /* \"#utility.yul\":20889:20952   */\n    tag_609:\n        /* \"#utility.yul\":20836:20958   */\n      pop\n      jump\t// out\n        /* \"#utility.yul\":20964:21114   */\n    tag_353:\n        /* \"#utility.yul\":21051:21089   */\n      tag_611\n        /* \"#utility.yul\":21083:21088   */\n      dup2\n        /* \"#utility.yul\":21051:21089   */\n      tag_546\n      jump\t// in\n    tag_611:\n        /* \"#utility.yul\":21044:21049   */\n      dup2\n        /* \"#utility.yul\":21041:21090   */\n      eq\n        /* \"#utility.yul\":21031:21108   */\n      tag_612\n      jumpi\n        /* \"#utility.yul\":21104:21105   */\n      0x00\n        /* \"#utility.yul\":21101:21102   */\n      dup1\n        /* \"#utility.yul\":21094:21106   */\n      revert\n        /* \"#utility.yul\":21031:21108   */\n    tag_612:\n        /* \"#utility.yul\":20964:21114   */\n      pop\n      jump\t// out\n        /* \"#utility.yul\":21120:21274   */\n    tag_357:\n        /* \"#utility.yul\":21209:21249   */\n      tag_614\n        /* \"#utility.yul\":21243:21248   */\n      dup2\n        /* \"#utility.yul\":21209:21249   */\n      tag_549\n      jump\t// in\n    tag_614:\n        /* \"#utility.yul\":21202:21207   */\n      dup2\n        /* \"#utility.yul\":21199:21250   */\n      eq\n        /* \"#utility.yul\":21189:21268   */\n      tag_615\n      jumpi\n        /* \"#utility.yul\":21264:21265   */\n      0x00\n        /* \"#utility.yul\":21261:21262   */\n      dup1\n        /* \"#utility.yul\":21254:21266   */\n      revert\n        /* \"#utility.yul\":21189:21268   */\n    tag_615:\n        /* \"#utility.yul\":21120:21274   */\n      pop\n      jump\t// out\n        /* \"#utility.yul\":21280:21442   */\n    tag_361:\n        /* \"#utility.yul\":21373:21417   */\n      tag_617\n        /* \"#utility.yul\":21411:21416   */\n      dup2\n        /* \"#utility.yul\":21373:21417   */\n      tag_552\n      jump\t// in\n    tag_617:\n        /* \"#utility.yul\":21366:21371   */\n      dup2\n        /* \"#utility.yul\":21363:21418   */\n      eq\n        /* \"#utility.yul\":21353:21436   */\n      tag_618\n      jumpi\n        /* \"#utility.yul\":21432:21433   */\n      0x00\n        /* \"#utility.yul\":21429:21430   */\n      dup1\n        /* \"#utility.yul\":21422:21434   */\n      revert\n        /* \"#utility.yul\":21353:21436   */\n    tag_618:\n        /* \"#utility.yul\":21280:21442   */\n      pop\n      jump\t// out\n        /* \"#utility.yul\":21448:21610   */\n    tag_365:\n        /* \"#utility.yul\":21541:21585   */\n      tag_620\n        /* \"#utility.yul\":21579:21584   */\n      dup2\n        /* \"#utility.yul\":21541:21585   */\n      tag_555\n      jump\t// in\n    tag_620:\n        /* \"#utility.yul\":21534:21539   */\n      dup2\n        /* \"#utility.yul\":21531:21586   */\n      eq\n        /* \"#utility.yul\":21521:21604   */\n      tag_621\n      jumpi\n        /* \"#utility.yul\":21600:21601   */\n      0x00\n        /* \"#utility.yul\":21597:21598   */\n      dup1\n        /* \"#utility.yul\":21590:21602   */\n      revert\n        /* \"#utility.yul\":21521:21604   */\n    tag_621:\n        /* \"#utility.yul\":21448:21610   */\n      pop\n      jump\t// out\n        /* \"#utility.yul\":21616:21788   */\n    tag_369:\n        /* \"#utility.yul\":21714:21763   */\n      tag_623\n        /* \"#utility.yul\":21757:21762   */\n      dup2\n        /* \"#utility.yul\":21714:21763   */\n      tag_558\n      jump\t// in\n    tag_623:\n        /* \"#utility.yul\":21707:21712   */\n      dup2\n        /* \"#utility.yul\":21704:21764   */\n      eq\n        /* \"#utility.yul\":21694:21782   */\n      tag_624\n      jumpi\n        /* \"#utility.yul\":21778:21779   */\n      0x00\n        /* \"#utility.yul\":21775:21776   */\n      dup1\n        /* \"#utility.yul\":21768:21780   */\n      revert\n        /* \"#utility.yul\":21694:21782   */\n    tag_624:\n        /* \"#utility.yul\":21616:21788   */\n      pop\n      jump\t// out\n        /* \"#utility.yul\":21794:21916   */\n    tag_385:\n        /* \"#utility.yul\":21867:21891   */\n      tag_626\n        /* \"#utility.yul\":21885:21890   */\n      dup2\n        /* \"#utility.yul\":21867:21891   */\n      tag_561\n      jump\t// in\n    tag_626:\n        /* \"#utility.yul\":21860:21865   */\n      dup2\n        /* \"#utility.yul\":21857:21892   */\n      eq\n        /* \"#utility.yul\":21847:21910   */\n      tag_627\n      jumpi\n        /* \"#utility.yul\":21906:21907   */\n      0x00\n        /* \"#utility.yul\":21903:21904   */\n      dup1\n        /* \"#utility.yul\":21896:21908   */\n      revert\n        /* \"#utility.yul\":21847:21910   */\n    tag_627:\n        /* \"#utility.yul\":21794:21916   */\n      pop\n      jump\t// out\n        /* \"#utility.yul\":21922:22044   */\n    tag_389:\n        /* \"#utility.yul\":21995:22019   */\n      tag_629\n        /* \"#utility.yul\":22013:22018   */\n      dup2\n        /* \"#utility.yul\":21995:22019   */\n      tag_485\n      jump\t// in\n    tag_629:\n        /* \"#utility.yul\":21988:21993   */\n      dup2\n        /* \"#utility.yul\":21985:22020   */\n      eq\n        /* \"#utility.yul\":21975:22038   */\n      tag_630\n      jumpi\n        /* \"#utility.yul\":22034:22035   */\n      0x00\n        /* \"#utility.yul\":22031:22032   */\n      dup1\n        /* \"#utility.yul\":22024:22036   */\n      revert\n        /* \"#utility.yul\":21975:22038   */\n    tag_630:\n        /* \"#utility.yul\":21922:22044   */\n      pop\n      jump\t// out\n        /* \"#utility.yul\":22050:22170   */\n    tag_395:\n        /* \"#utility.yul\":22122:22145   */\n      tag_632\n        /* \"#utility.yul\":22139:22144   */\n      dup2\n        /* \"#utility.yul\":22122:22145   */\n      tag_565\n      jump\t// in\n    tag_632:\n        /* \"#utility.yul\":22115:22120   */\n      dup2\n        /* \"#utility.yul\":22112:22146   */\n      eq\n        /* \"#utility.yul\":22102:22164   */\n      tag_633\n      jumpi\n        /* \"#utility.yul\":22160:22161   */\n      0x00\n        /* \"#utility.yul\":22157:22158   */\n      dup1\n        /* \"#utility.yul\":22150:22162   */\n      revert\n        /* \"#utility.yul\":22102:22164   */\n    tag_633:\n        /* \"#utility.yul\":22050:22170   */\n      pop\n      jump\t// out\n\n    auxdata: 0xa26469706673582212206d5bf68ca2fc6549b98754eaec466505638ab0da2fb741f33b60af1e8806d6e564736f6c63430008070033\n}\n",
				"bytecode": {
					"linkReferences": {},
					"object": "608060405234801561001057600080fd5b5061002d61002261003260201b60201c565b61003a60201b60201c565b6100fe565b600033905090565b60008060009054906101000a900473ffffffffffffffffffffffffffffffffffffffff169050816000806101000a81548173ffffffffffffffffffffffffffffffffffffffff021916908373ffffffffffffffffffffffffffffffffffffffff1602179055508173ffffffffffffffffffffffffffffffffffffffff168173ffffffffffffffffffffffffffffffffffffffff167f8be0079c531659141344cd1fd0a4f28419497f9722a3daafe3b4186f6b6457e060405160405180910390a35050565b612474806200010e6000396000f3fe608060405234801561001057600080fd5b506004361061018d5760003560e01c80636de5368b116100de578063a7288c2e11610097578063f0b7db4e11610071578063f0b7db4e14610495578063f2fde38b146104b3578063f479ef22146104cf578063fbec6f21146104eb5761018d565b8063a7288c2e14610417578063b8c9d25c14610447578063bf8ebd85146104655761018d565b80636de5368b1461037b578063715018a61461039957806376ed535a146103a357806384119666146103bf5780638bb8c68f146103dd5780638da5cb5b146103f95761018d565b806310a5806a1161014b5780632540d8a7116101255780632540d8a7146102cf5780633445d381146102ff57806342632ee01461032f57806349fd566b1461035f5761018d565b806310a5806a1461026557806317d8b80c146102835780631fb5d3c21461029f5761018d565b8062c2378f146101925780630314214c146101c35780630520b708146101e15780630651823e146101fd5780630b75aa36146102195780630ed7b86114610249575b600080fd5b6101ac60048036038101906101a79190611a71565b610509565b6040516101ba929190611e8a565b60405180910390f35b6101cb61052d565b6040516101d89190611dc3565b60405180910390f35b6101fb60048036038101906101f69190611b54565b610553565b005b61021760048036038101906102129190611b27565b610613565b005b610233600480360381019061022e9190611a71565b6106d3565b6040516102409190611e6f565b60405180910390f35b610263600480360381019061025e9190611bae565b61071e565b005b61026d6107de565b60405161027a9190611df9565b60405180910390f35b61029d60048036038101906102989190611bdb565b610804565b005b6102b960048036038101906102b49190611a71565b6108c4565b6040516102c69190611e6f565b60405180910390f35b6102e960048036038101906102e49190611a71565b610978565b6040516102f69190611e6f565b60405180910390f35b61031960048036038101906103149190611a71565b610b15565b6040516103269190611e6f565b60405180910390f35b61034960048036038101906103449190611a71565b610bc9565b6040516103569190611e6f565b60405180910390f35b61037960048036038101906103749190611a9e565b610d80565b005b610383610fb5565b6040516103909190611da8565b60405180910390f35b6103a1610fdb565b005b6103bd60048036038101906103b89190611b54565b611063565b005b6103c7611123565b6040516103d49190611e14565b60405180910390f35b6103f760048036038101906103f29190611b81565b611149565b005b610401611209565b60405161040e9190611d64565b60405180910390f35b610431600480360381019061042c9190611a71565b611232565b60405161043e9190611e6f565b60405180910390f35b61044f611290565b60405161045c9190611dde565b60405180910390f35b61047f600480360381019061047a9190611a71565b6112b6565b60405161048c9190611e6f565b60405180910390f35b61049d611550565b6040516104aa9190611dc3565b60405180910390f35b6104cd60048036038101906104c89190611a71565b611576565b005b6104e960048036038101906104e49190611b54565b61166e565b005b6104f361172e565b6040516105009190611dc3565b60405180910390f35b60086020528060005260406000206000915090508060000154908060020154905082565b600560009054906101000a900473ffffffffffffffffffffffffffffffffffffffff1681565b61055b611754565b73ffffffffffffffffffffffffffffffffffffffff16610579611209565b73ffffffffffffffffffffffffffffffffffffffff16146105cf576040517f08c379a00000000000000000000000000000000000000000000000000000000081526004016105c690611e4f565b60405180910390fd5b80600660006101000a81548173ffffffffffffffffffffffffffffffffffffffff021916908373ffffffffffffffffffffffffffffffffffffffff16021790555050565b61061b611754565b73ffffffffffffffffffffffffffffffffffffffff16610639611209565b73ffffffffffffffffffffffffffffffffffffffff161461068f576040517f08c379a000000000000000000000000000000000000000000000000000000000815260040161068690611e4f565b60405180910390fd5b80600160006101000a81548173ffffffffffffffffffffffffffffffffffffffff021916908373ffffffffffffffffffffffffffffffffffffffff16021790555050565b60006106de82610978565b6106e783610bc9565b6106f0846108c4565b6106f985610b15565b6107039190611f15565b61070d9190611f15565b6107179190611f15565b9050919050565b610726611754565b73ffffffffffffffffffffffffffffffffffffffff16610744611209565b73ffffffffffffffffffffffffffffffffffffffff161461079a576040517f08c379a000000000000000000000000000000000000000000000000000000000815260040161079190611e4f565b60405180910390fd5b80600260006101000a81548173ffffffffffffffffffffffffffffffffffffffff021916908373ffffffffffffffffffffffffffffffffffffffff16021790555050565b600260009054906101000a900473ffffffffffffffffffffffffffffffffffffffff1681565b61080c611754565b73ffffffffffffffffffffffffffffffffffffffff1661082a611209565b73ffffffffffffffffffffffffffffffffffffffff1614610880576040517f08c379a000000000000000000000000000000000000000000000000000000000815260040161087790611e4f565b60405180910390fd5b80600460006101000a81548173ffffffffffffffffffffffffffffffffffffffff021916908373ffffffffffffffffffffffffffffffffffffffff16021790555050565b6000600260009054906101000a900473ffffffffffffffffffffffffffffffffffffffff1673ffffffffffffffffffffffffffffffffffffffff1663c5d63d0a836040518263ffffffff1660e01b81526004016109219190611d64565b60206040518083038186803b15801561093957600080fd5b505afa15801561094d573d6000803e3d6000fd5b505050506040513d601f19601f820116820180604052508101906109719190611c88565b9050919050565b6000806000600460009054906101000a900473ffffffffffffffffffffffffffffffffffffffff1673ffffffffffffffffffffffffffffffffffffffff166380017f4e856040518263ffffffff1660e01b81526004016109d89190611d64565b60006040518083038186803b1580156109f057600080fd5b505afa158015610a04573d6000803e3d6000fd5b505050506040513d6000823e3d601f19601f82011682018060405250810190610a2d9190611ade565b905060005b8151811015610b0a57600460009054906101000a900473ffffffffffffffffffffffffffffffffffffffff1673ffffffffffffffffffffffffffffffffffffffff166351d70bc4826040518263ffffffff1660e01b8152600401610a969190611e6f565b60c06040518083038186803b158015610aae57600080fd5b505afa158015610ac2573d6000803e3d6000fd5b505050506040513d601f19601f82011682018060405250810190610ae69190611c08565b6080015183610af59190611f15565b92508080610b0290612199565b915050610a32565b508192505050919050565b6000600160009054906101000a900473ffffffffffffffffffffffffffffffffffffffff1673ffffffffffffffffffffffffffffffffffffffff166370a08231836040518263ffffffff1660e01b8152600401610b729190611d64565b60206040518083038186803b158015610b8a57600080fd5b505afa158015610b9e573d6000803e3d6000fd5b505050506040513d601f19601f82011682018060405250810190610bc29190611c88565b9050919050565b600080600080600360009054906101000a900473ffffffffffffffffffffffffffffffffffffffff1673ffffffffffffffffffffffffffffffffffffffff16630902f1ac6040518163ffffffff1660e01b815260040160606040518083038186803b158015610c3757600080fd5b505afa158015610c4b573d6000803e3d6000fd5b505050506040513d601f19601f82011682018060405250810190610c6f9190611c35565b8093508194508295505050506000610cb0836dffffffffffffffffffffffffffff16856dffffffffffffffffffffffffffff1661175c90919063ffffffff16565b90506000600360009054906101000a900473ffffffffffffffffffffffffffffffffffffffff1673ffffffffffffffffffffffffffffffffffffffff166370a08231886040518263ffffffff1660e01b8152600401610d0f9190611d64565b60206040518083038186803b158015610d2757600080fd5b505afa158015610d3b573d6000803e3d6000fd5b505050506040513d601f19601f82011682018060405250810190610d5f9190611c88565b9050610d74818361177290919063ffffffff16565b95505050505050919050565b80600860008473ffffffffffffffffffffffffffffffffffffffff1673ffffffffffffffffffffffffffffffffffffffff1681526020019081526020016000206001016001600860008673ffffffffffffffffffffffffffffffffffffffff1673ffffffffffffffffffffffffffffffffffffffff16815260200190815260200160002060010180549050610e159190611ff6565b81548110610e2657610e2561226f565b5b906000526020600020015414610f4957600860008373ffffffffffffffffffffffffffffffffffffffff1673ffffffffffffffffffffffffffffffffffffffff1681526020019081526020016000206001016001600860008573ffffffffffffffffffffffffffffffffffffffff1673ffffffffffffffffffffffffffffffffffffffff16815260200190815260200160002060010180549050610eca9190611ff6565b81548110610edb57610eda61226f565b5b9060005260206000200154600860008473ffffffffffffffffffffffffffffffffffffffff1673ffffffffffffffffffffffffffffffffffffffff1681526020019081526020016000206001018281548110610f3a57610f3961226f565b5b90600052602060002001819055505b600860008373ffffffffffffffffffffffffffffffffffffffff1673ffffffffffffffffffffffffffffffffffffffff168152602001908152602001600020600101805480610f9b57610f9a612240565b5b600190038181906000526020600020016000905590555050565b600160009054906101000a900473ffffffffffffffffffffffffffffffffffffffff1681565b610fe3611754565b73ffffffffffffffffffffffffffffffffffffffff16611001611209565b73ffffffffffffffffffffffffffffffffffffffff1614611057576040517f08c379a000000000000000000000000000000000000000000000000000000000815260040161104e90611e4f565b60405180910390fd5b6110616000611788565b565b61106b611754565b73ffffffffffffffffffffffffffffffffffffffff16611089611209565b73ffffffffffffffffffffffffffffffffffffffff16146110df576040517f08c379a00000000000000000000000000000000000000000000000000000000081526004016110d690611e4f565b60405180910390fd5b80600760006101000a81548173ffffffffffffffffffffffffffffffffffffffff021916908373ffffffffffffffffffffffffffffffffffffffff16021790555050565b600460009054906101000a900473ffffffffffffffffffffffffffffffffffffffff1681565b611151611754565b73ffffffffffffffffffffffffffffffffffffffff1661116f611209565b73ffffffffffffffffffffffffffffffffffffffff16146111c5576040517f08c379a00000000000000000000000000000000000000000000000000000000081526004016111bc90611e4f565b60405180910390fd5b80600360006101000a81548173ffffffffffffffffffffffffffffffffffffffff021916908373ffffffffffffffffffffffffffffffffffffffff16021790555050565b60008060009054906101000a900473ffffffffffffffffffffffffffffffffffffffff16905090565b600061123d826112b6565b61124683610978565b61124f84610bc9565b611258856108c4565b61126186610b15565b61126b9190611f15565b6112759190611f15565b61127f9190611f15565b6112899190611f15565b9050919050565b600360009054906101000a900473ffffffffffffffffffffffffffffffffffffffff1681565b6000806000905060005b61044c811161139557600560009054906101000a900473ffffffffffffffffffffffffffffffffffffffff1673ffffffffffffffffffffffffffffffffffffffff1662fdd58e85836040518363ffffffff1660e01b8152600401611325929190611d7f565b60206040518083038186803b15801561133d57600080fd5b505afa158015611351573d6000803e3d6000fd5b505050506040513d601f19601f820116820180604052508101906113759190611c88565b826113809190611f15565b9150808061138d90612199565b9150506112c0565b5060005b61012c811161146e57600660009054906101000a900473ffffffffffffffffffffffffffffffffffffffff1673ffffffffffffffffffffffffffffffffffffffff1662fdd58e85836040518363ffffffff1660e01b81526004016113fe929190611d7f565b60206040518083038186803b15801561141657600080fd5b505afa15801561142a573d6000803e3d6000fd5b505050506040513d601f19601f8201168201806040525081019061144e9190611c88565b826114599190611f15565b9150808061146690612199565b915050611399565b5060005b6064811161154657600760009054906101000a900473ffffffffffffffffffffffffffffffffffffffff1673ffffffffffffffffffffffffffffffffffffffff1662fdd58e85836040518363ffffffff1660e01b81526004016114d6929190611d7f565b60206040518083038186803b1580156114ee57600080fd5b505afa158015611502573d6000803e3d6000fd5b505050506040513d601f19601f820116820180604052508101906115269190611c88565b826115319190611f15565b9150808061153e90612199565b915050611472565b5080915050919050565b600760009054906101000a900473ffffffffffffffffffffffffffffffffffffffff1681565b61157e611754565b73ffffffffffffffffffffffffffffffffffffffff1661159c611209565b73ffffffffffffffffffffffffffffffffffffffff16146115f2576040517f08c379a00000000000000000000000000000000000000000000000000000000081526004016115e990611e4f565b60405180910390fd5b600073ffffffffffffffffffffffffffffffffffffffff168173ffffffffffffffffffffffffffffffffffffffff161415611662576040517f08c379a000000000000000000000000000000000000000000000000000000000815260040161165990611e2f565b60405180910390fd5b61166b81611788565b50565b611676611754565b73ffffffffffffffffffffffffffffffffffffffff16611694611209565b73ffffffffffffffffffffffffffffffffffffffff16146116ea576040517f08c379a00000000000000000000000000000000000000000000000000000000081526004016116e190611e4f565b60405180910390fd5b80600560006101000a81548173ffffffffffffffffffffffffffffffffffffffff021916908373ffffffffffffffffffffffffffffffffffffffff16021790555050565b600660009054906101000a900473ffffffffffffffffffffffffffffffffffffffff1681565b600033905090565b6000818361176a9190611f6b565b905092915050565b600081836117809190611f9c565b905092915050565b60008060009054906101000a900473ffffffffffffffffffffffffffffffffffffffff169050816000806101000a81548173ffffffffffffffffffffffffffffffffffffffff021916908373ffffffffffffffffffffffffffffffffffffffff1602179055508173ffffffffffffffffffffffffffffffffffffffff168173ffffffffffffffffffffffffffffffffffffffff167f8be0079c531659141344cd1fd0a4f28419497f9722a3daafe3b4186f6b6457e060405160405180910390a35050565b600061185f61185a84611ed8565b611eb3565b90508083825260208201905082856020860282011115611882576118816122d7565b5b60005b858110156118b257816118988882611a47565b845260208401935060208301925050600181019050611885565b5050509392505050565b6000813590506118cb8161236f565b92915050565b6000815190506118e08161236f565b92915050565b600082601f8301126118fb576118fa6122cd565b5b815161190b84826020860161184c565b91505092915050565b60008135905061192381612386565b92915050565b6000813590506119388161239d565b92915050565b60008135905061194d816123b4565b92915050565b600081359050611962816123cb565b92915050565b600081359050611977816123e2565b92915050565b600060c08284031215611993576119926122d2565b5b61199d60c0611eb3565b905060006119ad848285016118d1565b60008301525060206119c184828501611a47565b60208301525060406119d584828501611a47565b60408301525060606119e984828501611a47565b60608301525060806119fd84828501611a47565b60808301525060a0611a1184828501611a47565b60a08301525092915050565b600081519050611a2c816123f9565b92915050565b600081359050611a4181612410565b92915050565b600081519050611a5681612410565b92915050565b600081519050611a6b81612427565b92915050565b600060208284031215611a8757611a866122e1565b5b6000611a95848285016118bc565b91505092915050565b60008060408385031215611ab557611ab46122e1565b5b6000611ac3858286016118bc565b9250506020611ad485828601611a32565b9150509250929050565b600060208284031215611af457611af36122e1565b5b600082015167ffffffffffffffff811115611b1257611b116122dc565b5b611b1e848285016118e6565b91505092915050565b600060208284031215611b3d57611b3c6122e1565b5b6000611b4b84828501611914565b91505092915050565b600060208284031215611b6a57611b696122e1565b5b6000611b7884828501611929565b91505092915050565b600060208284031215611b9757611b966122e1565b5b6000611ba58482850161193e565b91505092915050565b600060208284031215611bc457611bc36122e1565b5b6000611bd284828501611953565b91505092915050565b600060208284031215611bf157611bf06122e1565b5b6000611bff84828501611968565b91505092915050565b600060c08284031215611c1e57611c1d6122e1565b5b6000611c2c8482850161197d565b91505092915050565b600080600060608486031215611c4e57611c4d6122e1565b5b6000611c5c86828701611a1d565b9350506020611c6d86828701611a1d565b9250506040611c7e86828701611a5c565b9150509250925092565b600060208284031215611c9e57611c9d6122e1565b5b6000611cac84828501611a47565b91505092915050565b611cbe8161202a565b82525050565b611ccd816120ea565b82525050565b611cdc816120fc565b82525050565b611ceb8161210e565b82525050565b611cfa81612120565b82525050565b611d0981612132565b82525050565b6000611d1c602683611f04565b9150611d27826122f7565b604082019050919050565b6000611d3f602083611f04565b9150611d4a82612346565b602082019050919050565b611d5e816120d0565b82525050565b6000602082019050611d796000830184611cb5565b92915050565b6000604082019050611d946000830185611cb5565b611da16020830184611d55565b9392505050565b6000602082019050611dbd6000830184611cc4565b92915050565b6000602082019050611dd86000830184611cd3565b92915050565b6000602082019050611df36000830184611ce2565b92915050565b6000602082019050611e0e6000830184611cf1565b92915050565b6000602082019050611e296000830184611d00565b92915050565b60006020820190508181036000830152611e4881611d0f565b9050919050565b60006020820190508181036000830152611e6881611d32565b9050919050565b6000602082019050611e846000830184611d55565b92915050565b6000604082019050611e9f6000830185611d55565b611eac6020830184611d55565b9392505050565b6000611ebd611ece565b9050611ec98282612168565b919050565b6000604051905090565b600067ffffffffffffffff821115611ef357611ef261229e565b5b602082029050602081019050919050565b600082825260208201905092915050565b6000611f20826120d0565b9150611f2b836120d0565b9250827fffffffffffffffffffffffffffffffffffffffffffffffffffffffffffffffff03821115611f6057611f5f6121e2565b5b828201905092915050565b6000611f76826120d0565b9150611f81836120d0565b925082611f9157611f90612211565b5b828204905092915050565b6000611fa7826120d0565b9150611fb2836120d0565b9250817fffffffffffffffffffffffffffffffffffffffffffffffffffffffffffffffff0483118215151615611feb57611fea6121e2565b5b828202905092915050565b6000612001826120d0565b915061200c836120d0565b92508282101561201f5761201e6121e2565b5b828203905092915050565b6000612035826120b0565b9050919050565b60006120478261202a565b9050919050565b60006120598261202a565b9050919050565b600061206b8261202a565b9050919050565b600061207d8261202a565b9050919050565b600061208f8261202a565b9050919050565b60006dffffffffffffffffffffffffffff82169050919050565b600073ffffffffffffffffffffffffffffffffffffffff82169050919050565b6000819050919050565b600063ffffffff82169050919050565b60006120f582612144565b9050919050565b600061210782612144565b9050919050565b600061211982612144565b9050919050565b600061212b82612144565b9050919050565b600061213d82612144565b9050919050565b600061214f82612156565b9050919050565b6000612161826120b0565b9050919050565b612171826122e6565b810181811067ffffffffffffffff821117156121905761218f61229e565b5b80604052505050565b60006121a4826120d0565b91507fffffffffffffffffffffffffffffffffffffffffffffffffffffffffffffffff8214156121d7576121d66121e2565b5b600182019050919050565b7f4e487b7100000000000000000000000000000000000000000000000000000000600052601160045260246000fd5b7f4e487b7100000000000000000000000000000000000000000000000000000000600052601260045260246000fd5b7f4e487b7100000000000000000000000000000000000000000000000000000000600052603160045260246000fd5b7f4e487b7100000000000000000000000000000000000000000000000000000000600052603260045260246000fd5b7f4e487b7100000000000000000000000000000000000000000000000000000000600052604160045260246000fd5b600080fd5b600080fd5b600080fd5b600080fd5b600080fd5b6000601f19601f8301169050919050565b7f4f776e61626c653a206e6577206f776e657220697320746865207a65726f206160008201527f6464726573730000000000000000000000000000000000000000000000000000602082015250565b7f4f776e61626c653a2063616c6c6572206973206e6f7420746865206f776e6572600082015250565b6123788161202a565b811461238357600080fd5b50565b61238f8161203c565b811461239a57600080fd5b50565b6123a68161204e565b81146123b157600080fd5b50565b6123bd81612060565b81146123c857600080fd5b50565b6123d481612072565b81146123df57600080fd5b50565b6123eb81612084565b81146123f657600080fd5b50565b61240281612096565b811461240d57600080fd5b50565b612419816120d0565b811461242457600080fd5b50565b612430816120da565b811461243b57600080fd5b5056fea26469706673582212206d5bf68ca2fc6549b98754eaec466505638ab0da2fb741f33b60af1e8806d6e564736f6c63430008070033",
					"opcodes": "PUSH1 0x80 PUSH1 0x40 MSTORE CALLVALUE DUP1 ISZERO PUSH2 0x10 JUMPI PUSH1 0x0 DUP1 REVERT JUMPDEST POP PUSH2 0x2D PUSH2 0x22 PUSH2 0x32 PUSH1 0x20 SHL PUSH1 0x20 SHR JUMP JUMPDEST PUSH2 0x3A PUSH1 0x20 SHL PUSH1 0x20 SHR JUMP JUMPDEST PUSH2 0xFE JUMP JUMPDEST PUSH1 0x0 CALLER SWAP1 POP SWAP1 JUMP JUMPDEST PUSH1 0x0 DUP1 PUSH1 0x0 SWAP1 SLOAD SWAP1 PUSH2 0x100 EXP SWAP1 DIV PUSH20 0xFFFFFFFFFFFFFFFFFFFFFFFFFFFFFFFFFFFFFFFF AND SWAP1 POP DUP2 PUSH1 0x0 DUP1 PUSH2 0x100 EXP DUP2 SLOAD DUP2 PUSH20 0xFFFFFFFFFFFFFFFFFFFFFFFFFFFFFFFFFFFFFFFF MUL NOT AND SWAP1 DUP4 PUSH20 0xFFFFFFFFFFFFFFFFFFFFFFFFFFFFFFFFFFFFFFFF AND MUL OR SWAP1 SSTORE POP DUP2 PUSH20 0xFFFFFFFFFFFFFFFFFFFFFFFFFFFFFFFFFFFFFFFF AND DUP2 PUSH20 0xFFFFFFFFFFFFFFFFFFFFFFFFFFFFFFFFFFFFFFFF AND PUSH32 0x8BE0079C531659141344CD1FD0A4F28419497F9722A3DAAFE3B4186F6B6457E0 PUSH1 0x40 MLOAD PUSH1 0x40 MLOAD DUP1 SWAP2 SUB SWAP1 LOG3 POP POP JUMP JUMPDEST PUSH2 0x2474 DUP1 PUSH3 0x10E PUSH1 0x0 CODECOPY PUSH1 0x0 RETURN INVALID PUSH1 0x80 PUSH1 0x40 MSTORE CALLVALUE DUP1 ISZERO PUSH2 0x10 JUMPI PUSH1 0x0 DUP1 REVERT JUMPDEST POP PUSH1 0x4 CALLDATASIZE LT PUSH2 0x18D JUMPI PUSH1 0x0 CALLDATALOAD PUSH1 0xE0 SHR DUP1 PUSH4 0x6DE5368B GT PUSH2 0xDE JUMPI DUP1 PUSH4 0xA7288C2E GT PUSH2 0x97 JUMPI DUP1 PUSH4 0xF0B7DB4E GT PUSH2 0x71 JUMPI DUP1 PUSH4 0xF0B7DB4E EQ PUSH2 0x495 JUMPI DUP1 PUSH4 0xF2FDE38B EQ PUSH2 0x4B3 JUMPI DUP1 PUSH4 0xF479EF22 EQ PUSH2 0x4CF JUMPI DUP1 PUSH4 0xFBEC6F21 EQ PUSH2 0x4EB JUMPI PUSH2 0x18D JUMP JUMPDEST DUP1 PUSH4 0xA7288C2E EQ PUSH2 0x417 JUMPI DUP1 PUSH4 0xB8C9D25C EQ PUSH2 0x447 JUMPI DUP1 PUSH4 0xBF8EBD85 EQ PUSH2 0x465 JUMPI PUSH2 0x18D JUMP JUMPDEST DUP1 PUSH4 0x6DE5368B EQ PUSH2 0x37B JUMPI DUP1 PUSH4 0x715018A6 EQ PUSH2 0x399 JUMPI DUP1 PUSH4 0x76ED535A EQ PUSH2 0x3A3 JUMPI DUP1 PUSH4 0x84119666 EQ PUSH2 0x3BF JUMPI DUP1 PUSH4 0x8BB8C68F EQ PUSH2 0x3DD JUMPI DUP1 PUSH4 0x8DA5CB5B EQ PUSH2 0x3F9 JUMPI PUSH2 0x18D JUMP JUMPDEST DUP1 PUSH4 0x10A5806A GT PUSH2 0x14B JUMPI DUP1 PUSH4 0x2540D8A7 GT PUSH2 0x125 JUMPI DUP1 PUSH4 0x2540D8A7 EQ PUSH2 0x2CF JUMPI DUP1 PUSH4 0x3445D381 EQ PUSH2 0x2FF JUMPI DUP1 PUSH4 0x42632EE0 EQ PUSH2 0x32F JUMPI DUP1 PUSH4 0x49FD566B EQ PUSH2 0x35F JUMPI PUSH2 0x18D JUMP JUMPDEST DUP1 PUSH4 0x10A5806A EQ PUSH2 0x265 JUMPI DUP1 PUSH4 0x17D8B80C EQ PUSH2 0x283 JUMPI DUP1 PUSH4 0x1FB5D3C2 EQ PUSH2 0x29F JUMPI PUSH2 0x18D JUMP JUMPDEST DUP1 PUSH3 0xC2378F EQ PUSH2 0x192 JUMPI DUP1 PUSH4 0x314214C EQ PUSH2 0x1C3 JUMPI DUP1 PUSH4 0x520B708 EQ PUSH2 0x1E1 JUMPI DUP1 PUSH4 0x651823E EQ PUSH2 0x1FD JUMPI DUP1 PUSH4 0xB75AA36 EQ PUSH2 0x219 JUMPI DUP1 PUSH4 0xED7B861 EQ PUSH2 0x249 JUMPI JUMPDEST PUSH1 0x0 DUP1 REVERT JUMPDEST PUSH2 0x1AC PUSH1 0x4 DUP1 CALLDATASIZE SUB DUP2 ADD SWAP1 PUSH2 0x1A7 SWAP2 SWAP1 PUSH2 0x1A71 JUMP JUMPDEST PUSH2 0x509 JUMP JUMPDEST PUSH1 0x40 MLOAD PUSH2 0x1BA SWAP3 SWAP2 SWAP1 PUSH2 0x1E8A JUMP JUMPDEST PUSH1 0x40 MLOAD DUP1 SWAP2 SUB SWAP1 RETURN JUMPDEST PUSH2 0x1CB PUSH2 0x52D JUMP JUMPDEST PUSH1 0x40 MLOAD PUSH2 0x1D8 SWAP2 SWAP1 PUSH2 0x1DC3 JUMP JUMPDEST PUSH1 0x40 MLOAD DUP1 SWAP2 SUB SWAP1 RETURN JUMPDEST PUSH2 0x1FB PUSH1 0x4 DUP1 CALLDATASIZE SUB DUP2 ADD SWAP1 PUSH2 0x1F6 SWAP2 SWAP1 PUSH2 0x1B54 JUMP JUMPDEST PUSH2 0x553 JUMP JUMPDEST STOP JUMPDEST PUSH2 0x217 PUSH1 0x4 DUP1 CALLDATASIZE SUB DUP2 ADD SWAP1 PUSH2 0x212 SWAP2 SWAP1 PUSH2 0x1B27 JUMP JUMPDEST PUSH2 0x613 JUMP JUMPDEST STOP JUMPDEST PUSH2 0x233 PUSH1 0x4 DUP1 CALLDATASIZE SUB DUP2 ADD SWAP1 PUSH2 0x22E SWAP2 SWAP1 PUSH2 0x1A71 JUMP JUMPDEST PUSH2 0x6D3 JUMP JUMPDEST PUSH1 0x40 MLOAD PUSH2 0x240 SWAP2 SWAP1 PUSH2 0x1E6F JUMP JUMPDEST PUSH1 0x40 MLOAD DUP1 SWAP2 SUB SWAP1 RETURN JUMPDEST PUSH2 0x263 PUSH1 0x4 DUP1 CALLDATASIZE SUB DUP2 ADD SWAP1 PUSH2 0x25E SWAP2 SWAP1 PUSH2 0x1BAE JUMP JUMPDEST PUSH2 0x71E JUMP JUMPDEST STOP JUMPDEST PUSH2 0x26D PUSH2 0x7DE JUMP JUMPDEST PUSH1 0x40 MLOAD PUSH2 0x27A SWAP2 SWAP1 PUSH2 0x1DF9 JUMP JUMPDEST PUSH1 0x40 MLOAD DUP1 SWAP2 SUB SWAP1 RETURN JUMPDEST PUSH2 0x29D PUSH1 0x4 DUP1 CALLDATASIZE SUB DUP2 ADD SWAP1 PUSH2 0x298 SWAP2 SWAP1 PUSH2 0x1BDB JUMP JUMPDEST PUSH2 0x804 JUMP JUMPDEST STOP JUMPDEST PUSH2 0x2B9 PUSH1 0x4 DUP1 CALLDATASIZE SUB DUP2 ADD SWAP1 PUSH2 0x2B4 SWAP2 SWAP1 PUSH2 0x1A71 JUMP JUMPDEST PUSH2 0x8C4 JUMP JUMPDEST PUSH1 0x40 MLOAD PUSH2 0x2C6 SWAP2 SWAP1 PUSH2 0x1E6F JUMP JUMPDEST PUSH1 0x40 MLOAD DUP1 SWAP2 SUB SWAP1 RETURN JUMPDEST PUSH2 0x2E9 PUSH1 0x4 DUP1 CALLDATASIZE SUB DUP2 ADD SWAP1 PUSH2 0x2E4 SWAP2 SWAP1 PUSH2 0x1A71 JUMP JUMPDEST PUSH2 0x978 JUMP JUMPDEST PUSH1 0x40 MLOAD PUSH2 0x2F6 SWAP2 SWAP1 PUSH2 0x1E6F JUMP JUMPDEST PUSH1 0x40 MLOAD DUP1 SWAP2 SUB SWAP1 RETURN JUMPDEST PUSH2 0x319 PUSH1 0x4 DUP1 CALLDATASIZE SUB DUP2 ADD SWAP1 PUSH2 0x314 SWAP2 SWAP1 PUSH2 0x1A71 JUMP JUMPDEST PUSH2 0xB15 JUMP JUMPDEST PUSH1 0x40 MLOAD PUSH2 0x326 SWAP2 SWAP1 PUSH2 0x1E6F JUMP JUMPDEST PUSH1 0x40 MLOAD DUP1 SWAP2 SUB SWAP1 RETURN JUMPDEST PUSH2 0x349 PUSH1 0x4 DUP1 CALLDATASIZE SUB DUP2 ADD SWAP1 PUSH2 0x344 SWAP2 SWAP1 PUSH2 0x1A71 JUMP JUMPDEST PUSH2 0xBC9 JUMP JUMPDEST PUSH1 0x40 MLOAD PUSH2 0x356 SWAP2 SWAP1 PUSH2 0x1E6F JUMP JUMPDEST PUSH1 0x40 MLOAD DUP1 SWAP2 SUB SWAP1 RETURN JUMPDEST PUSH2 0x379 PUSH1 0x4 DUP1 CALLDATASIZE SUB DUP2 ADD SWAP1 PUSH2 0x374 SWAP2 SWAP1 PUSH2 0x1A9E JUMP JUMPDEST PUSH2 0xD80 JUMP JUMPDEST STOP JUMPDEST PUSH2 0x383 PUSH2 0xFB5 JUMP JUMPDEST PUSH1 0x40 MLOAD PUSH2 0x390 SWAP2 SWAP1 PUSH2 0x1DA8 JUMP JUMPDEST PUSH1 0x40 MLOAD DUP1 SWAP2 SUB SWAP1 RETURN JUMPDEST PUSH2 0x3A1 PUSH2 0xFDB JUMP JUMPDEST STOP JUMPDEST PUSH2 0x3BD PUSH1 0x4 DUP1 CALLDATASIZE SUB DUP2 ADD SWAP1 PUSH2 0x3B8 SWAP2 SWAP1 PUSH2 0x1B54 JUMP JUMPDEST PUSH2 0x1063 JUMP JUMPDEST STOP JUMPDEST PUSH2 0x3C7 PUSH2 0x1123 JUMP JUMPDEST PUSH1 0x40 MLOAD PUSH2 0x3D4 SWAP2 SWAP1 PUSH2 0x1E14 JUMP JUMPDEST PUSH1 0x40 MLOAD DUP1 SWAP2 SUB SWAP1 RETURN JUMPDEST PUSH2 0x3F7 PUSH1 0x4 DUP1 CALLDATASIZE SUB DUP2 ADD SWAP1 PUSH2 0x3F2 SWAP2 SWAP1 PUSH2 0x1B81 JUMP JUMPDEST PUSH2 0x1149 JUMP JUMPDEST STOP JUMPDEST PUSH2 0x401 PUSH2 0x1209 JUMP JUMPDEST PUSH1 0x40 MLOAD PUSH2 0x40E SWAP2 SWAP1 PUSH2 0x1D64 JUMP JUMPDEST PUSH1 0x40 MLOAD DUP1 SWAP2 SUB SWAP1 RETURN JUMPDEST PUSH2 0x431 PUSH1 0x4 DUP1 CALLDATASIZE SUB DUP2 ADD SWAP1 PUSH2 0x42C SWAP2 SWAP1 PUSH2 0x1A71 JUMP JUMPDEST PUSH2 0x1232 JUMP JUMPDEST PUSH1 0x40 MLOAD PUSH2 0x43E SWAP2 SWAP1 PUSH2 0x1E6F JUMP JUMPDEST PUSH1 0x40 MLOAD DUP1 SWAP2 SUB SWAP1 RETURN JUMPDEST PUSH2 0x44F PUSH2 0x1290 JUMP JUMPDEST PUSH1 0x40 MLOAD PUSH2 0x45C SWAP2 SWAP1 PUSH2 0x1DDE JUMP JUMPDEST PUSH1 0x40 MLOAD DUP1 SWAP2 SUB SWAP1 RETURN JUMPDEST PUSH2 0x47F PUSH1 0x4 DUP1 CALLDATASIZE SUB DUP2 ADD SWAP1 PUSH2 0x47A SWAP2 SWAP1 PUSH2 0x1A71 JUMP JUMPDEST PUSH2 0x12B6 JUMP JUMPDEST PUSH1 0x40 MLOAD PUSH2 0x48C SWAP2 SWAP1 PUSH2 0x1E6F JUMP JUMPDEST PUSH1 0x40 MLOAD DUP1 SWAP2 SUB SWAP1 RETURN JUMPDEST PUSH2 0x49D PUSH2 0x1550 JUMP JUMPDEST PUSH1 0x40 MLOAD PUSH2 0x4AA SWAP2 SWAP1 PUSH2 0x1DC3 JUMP JUMPDEST PUSH1 0x40 MLOAD DUP1 SWAP2 SUB SWAP1 RETURN JUMPDEST PUSH2 0x4CD PUSH1 0x4 DUP1 CALLDATASIZE SUB DUP2 ADD SWAP1 PUSH2 0x4C8 SWAP2 SWAP1 PUSH2 0x1A71 JUMP JUMPDEST PUSH2 0x1576 JUMP JUMPDEST STOP JUMPDEST PUSH2 0x4E9 PUSH1 0x4 DUP1 CALLDATASIZE SUB DUP2 ADD SWAP1 PUSH2 0x4E4 SWAP2 SWAP1 PUSH2 0x1B54 JUMP JUMPDEST PUSH2 0x166E JUMP JUMPDEST STOP JUMPDEST PUSH2 0x4F3 PUSH2 0x172E JUMP JUMPDEST PUSH1 0x40 MLOAD PUSH2 0x500 SWAP2 SWAP1 PUSH2 0x1DC3 JUMP JUMPDEST PUSH1 0x40 MLOAD DUP1 SWAP2 SUB SWAP1 RETURN JUMPDEST PUSH1 0x8 PUSH1 0x20 MSTORE DUP1 PUSH1 0x0 MSTORE PUSH1 0x40 PUSH1 0x0 KECCAK256 PUSH1 0x0 SWAP2 POP SWAP1 POP DUP1 PUSH1 0x0 ADD SLOAD SWAP1 DUP1 PUSH1 0x2 ADD SLOAD SWAP1 POP DUP3 JUMP JUMPDEST PUSH1 0x5 PUSH1 0x0 SWAP1 SLOAD SWAP1 PUSH2 0x100 EXP SWAP1 DIV PUSH20 0xFFFFFFFFFFFFFFFFFFFFFFFFFFFFFFFFFFFFFFFF AND DUP2 JUMP JUMPDEST PUSH2 0x55B PUSH2 0x1754 JUMP JUMPDEST PUSH20 0xFFFFFFFFFFFFFFFFFFFFFFFFFFFFFFFFFFFFFFFF AND PUSH2 0x579 PUSH2 0x1209 JUMP JUMPDEST PUSH20 0xFFFFFFFFFFFFFFFFFFFFFFFFFFFFFFFFFFFFFFFF AND EQ PUSH2 0x5CF JUMPI PUSH1 0x40 MLOAD PUSH32 0x8C379A000000000000000000000000000000000000000000000000000000000 DUP2 MSTORE PUSH1 0x4 ADD PUSH2 0x5C6 SWAP1 PUSH2 0x1E4F JUMP JUMPDEST PUSH1 0x40 MLOAD DUP1 SWAP2 SUB SWAP1 REVERT JUMPDEST DUP1 PUSH1 0x6 PUSH1 0x0 PUSH2 0x100 EXP DUP2 SLOAD DUP2 PUSH20 0xFFFFFFFFFFFFFFFFFFFFFFFFFFFFFFFFFFFFFFFF MUL NOT AND SWAP1 DUP4 PUSH20 0xFFFFFFFFFFFFFFFFFFFFFFFFFFFFFFFFFFFFFFFF AND MUL OR SWAP1 SSTORE POP POP JUMP JUMPDEST PUSH2 0x61B PUSH2 0x1754 JUMP JUMPDEST PUSH20 0xFFFFFFFFFFFFFFFFFFFFFFFFFFFFFFFFFFFFFFFF AND PUSH2 0x639 PUSH2 0x1209 JUMP JUMPDEST PUSH20 0xFFFFFFFFFFFFFFFFFFFFFFFFFFFFFFFFFFFFFFFF AND EQ PUSH2 0x68F JUMPI PUSH1 0x40 MLOAD PUSH32 0x8C379A000000000000000000000000000000000000000000000000000000000 DUP2 MSTORE PUSH1 0x4 ADD PUSH2 0x686 SWAP1 PUSH2 0x1E4F JUMP JUMPDEST PUSH1 0x40 MLOAD DUP1 SWAP2 SUB SWAP1 REVERT JUMPDEST DUP1 PUSH1 0x1 PUSH1 0x0 PUSH2 0x100 EXP DUP2 SLOAD DUP2 PUSH20 0xFFFFFFFFFFFFFFFFFFFFFFFFFFFFFFFFFFFFFFFF MUL NOT AND SWAP1 DUP4 PUSH20 0xFFFFFFFFFFFFFFFFFFFFFFFFFFFFFFFFFFFFFFFF AND MUL OR SWAP1 SSTORE POP POP JUMP JUMPDEST PUSH1 0x0 PUSH2 0x6DE DUP3 PUSH2 0x978 JUMP JUMPDEST PUSH2 0x6E7 DUP4 PUSH2 0xBC9 JUMP JUMPDEST PUSH2 0x6F0 DUP5 PUSH2 0x8C4 JUMP JUMPDEST PUSH2 0x6F9 DUP6 PUSH2 0xB15 JUMP JUMPDEST PUSH2 0x703 SWAP2 SWAP1 PUSH2 0x1F15 JUMP JUMPDEST PUSH2 0x70D SWAP2 SWAP1 PUSH2 0x1F15 JUMP JUMPDEST PUSH2 0x717 SWAP2 SWAP1 PUSH2 0x1F15 JUMP JUMPDEST SWAP1 POP SWAP2 SWAP1 POP JUMP JUMPDEST PUSH2 0x726 PUSH2 0x1754 JUMP JUMPDEST PUSH20 0xFFFFFFFFFFFFFFFFFFFFFFFFFFFFFFFFFFFFFFFF AND PUSH2 0x744 PUSH2 0x1209 JUMP JUMPDEST PUSH20 0xFFFFFFFFFFFFFFFFFFFFFFFFFFFFFFFFFFFFFFFF AND EQ PUSH2 0x79A JUMPI PUSH1 0x40 MLOAD PUSH32 0x8C379A000000000000000000000000000000000000000000000000000000000 DUP2 MSTORE PUSH1 0x4 ADD PUSH2 0x791 SWAP1 PUSH2 0x1E4F JUMP JUMPDEST PUSH1 0x40 MLOAD DUP1 SWAP2 SUB SWAP1 REVERT JUMPDEST DUP1 PUSH1 0x2 PUSH1 0x0 PUSH2 0x100 EXP DUP2 SLOAD DUP2 PUSH20 0xFFFFFFFFFFFFFFFFFFFFFFFFFFFFFFFFFFFFFFFF MUL NOT AND SWAP1 DUP4 PUSH20 0xFFFFFFFFFFFFFFFFFFFFFFFFFFFFFFFFFFFFFFFF AND MUL OR SWAP1 SSTORE POP POP JUMP JUMPDEST PUSH1 0x2 PUSH1 0x0 SWAP1 SLOAD SWAP1 PUSH2 0x100 EXP SWAP1 DIV PUSH20 0xFFFFFFFFFFFFFFFFFFFFFFFFFFFFFFFFFFFFFFFF AND DUP2 JUMP JUMPDEST PUSH2 0x80C PUSH2 0x1754 JUMP JUMPDEST PUSH20 0xFFFFFFFFFFFFFFFFFFFFFFFFFFFFFFFFFFFFFFFF AND PUSH2 0x82A PUSH2 0x1209 JUMP JUMPDEST PUSH20 0xFFFFFFFFFFFFFFFFFFFFFFFFFFFFFFFFFFFFFFFF AND EQ PUSH2 0x880 JUMPI PUSH1 0x40 MLOAD PUSH32 0x8C379A000000000000000000000000000000000000000000000000000000000 DUP2 MSTORE PUSH1 0x4 ADD PUSH2 0x877 SWAP1 PUSH2 0x1E4F JUMP JUMPDEST PUSH1 0x40 MLOAD DUP1 SWAP2 SUB SWAP1 REVERT JUMPDEST DUP1 PUSH1 0x4 PUSH1 0x0 PUSH2 0x100 EXP DUP2 SLOAD DUP2 PUSH20 0xFFFFFFFFFFFFFFFFFFFFFFFFFFFFFFFFFFFFFFFF MUL NOT AND SWAP1 DUP4 PUSH20 0xFFFFFFFFFFFFFFFFFFFFFFFFFFFFFFFFFFFFFFFF AND MUL OR SWAP1 SSTORE POP POP JUMP JUMPDEST PUSH1 0x0 PUSH1 0x2 PUSH1 0x0 SWAP1 SLOAD SWAP1 PUSH2 0x100 EXP SWAP1 DIV PUSH20 0xFFFFFFFFFFFFFFFFFFFFFFFFFFFFFFFFFFFFFFFF AND PUSH20 0xFFFFFFFFFFFFFFFFFFFFFFFFFFFFFFFFFFFFFFFF AND PUSH4 0xC5D63D0A DUP4 PUSH1 0x40 MLOAD DUP3 PUSH4 0xFFFFFFFF AND PUSH1 0xE0 SHL DUP2 MSTORE PUSH1 0x4 ADD PUSH2 0x921 SWAP2 SWAP1 PUSH2 0x1D64 JUMP JUMPDEST PUSH1 0x20 PUSH1 0x40 MLOAD DUP1 DUP4 SUB DUP2 DUP7 DUP1 EXTCODESIZE ISZERO DUP1 ISZERO PUSH2 0x939 JUMPI PUSH1 0x0 DUP1 REVERT JUMPDEST POP GAS STATICCALL ISZERO DUP1 ISZERO PUSH2 0x94D JUMPI RETURNDATASIZE PUSH1 0x0 DUP1 RETURNDATACOPY RETURNDATASIZE PUSH1 0x0 REVERT JUMPDEST POP POP POP POP PUSH1 0x40 MLOAD RETURNDATASIZE PUSH1 0x1F NOT PUSH1 0x1F DUP3 ADD AND DUP3 ADD DUP1 PUSH1 0x40 MSTORE POP DUP2 ADD SWAP1 PUSH2 0x971 SWAP2 SWAP1 PUSH2 0x1C88 JUMP JUMPDEST SWAP1 POP SWAP2 SWAP1 POP JUMP JUMPDEST PUSH1 0x0 DUP1 PUSH1 0x0 PUSH1 0x4 PUSH1 0x0 SWAP1 SLOAD SWAP1 PUSH2 0x100 EXP SWAP1 DIV PUSH20 0xFFFFFFFFFFFFFFFFFFFFFFFFFFFFFFFFFFFFFFFF AND PUSH20 0xFFFFFFFFFFFFFFFFFFFFFFFFFFFFFFFFFFFFFFFF AND PUSH4 0x80017F4E DUP6 PUSH1 0x40 MLOAD DUP3 PUSH4 0xFFFFFFFF AND PUSH1 0xE0 SHL DUP2 MSTORE PUSH1 0x4 ADD PUSH2 0x9D8 SWAP2 SWAP1 PUSH2 0x1D64 JUMP JUMPDEST PUSH1 0x0 PUSH1 0x40 MLOAD DUP1 DUP4 SUB DUP2 DUP7 DUP1 EXTCODESIZE ISZERO DUP1 ISZERO PUSH2 0x9F0 JUMPI PUSH1 0x0 DUP1 REVERT JUMPDEST POP GAS STATICCALL ISZERO DUP1 ISZERO PUSH2 0xA04 JUMPI RETURNDATASIZE PUSH1 0x0 DUP1 RETURNDATACOPY RETURNDATASIZE PUSH1 0x0 REVERT JUMPDEST POP POP POP POP PUSH1 0x40 MLOAD RETURNDATASIZE PUSH1 0x0 DUP3 RETURNDATACOPY RETURNDATASIZE PUSH1 0x1F NOT PUSH1 0x1F DUP3 ADD AND DUP3 ADD DUP1 PUSH1 0x40 MSTORE POP DUP2 ADD SWAP1 PUSH2 0xA2D SWAP2 SWAP1 PUSH2 0x1ADE JUMP JUMPDEST SWAP1 POP PUSH1 0x0 JUMPDEST DUP2 MLOAD DUP2 LT ISZERO PUSH2 0xB0A JUMPI PUSH1 0x4 PUSH1 0x0 SWAP1 SLOAD SWAP1 PUSH2 0x100 EXP SWAP1 DIV PUSH20 0xFFFFFFFFFFFFFFFFFFFFFFFFFFFFFFFFFFFFFFFF AND PUSH20 0xFFFFFFFFFFFFFFFFFFFFFFFFFFFFFFFFFFFFFFFF AND PUSH4 0x51D70BC4 DUP3 PUSH1 0x40 MLOAD DUP3 PUSH4 0xFFFFFFFF AND PUSH1 0xE0 SHL DUP2 MSTORE PUSH1 0x4 ADD PUSH2 0xA96 SWAP2 SWAP1 PUSH2 0x1E6F JUMP JUMPDEST PUSH1 0xC0 PUSH1 0x40 MLOAD DUP1 DUP4 SUB DUP2 DUP7 DUP1 EXTCODESIZE ISZERO DUP1 ISZERO PUSH2 0xAAE JUMPI PUSH1 0x0 DUP1 REVERT JUMPDEST POP GAS STATICCALL ISZERO DUP1 ISZERO PUSH2 0xAC2 JUMPI RETURNDATASIZE PUSH1 0x0 DUP1 RETURNDATACOPY RETURNDATASIZE PUSH1 0x0 REVERT JUMPDEST POP POP POP POP PUSH1 0x40 MLOAD RETURNDATASIZE PUSH1 0x1F NOT PUSH1 0x1F DUP3 ADD AND DUP3 ADD DUP1 PUSH1 0x40 MSTORE POP DUP2 ADD SWAP1 PUSH2 0xAE6 SWAP2 SWAP1 PUSH2 0x1C08 JUMP JUMPDEST PUSH1 0x80 ADD MLOAD DUP4 PUSH2 0xAF5 SWAP2 SWAP1 PUSH2 0x1F15 JUMP JUMPDEST SWAP3 POP DUP1 DUP1 PUSH2 0xB02 SWAP1 PUSH2 0x2199 JUMP JUMPDEST SWAP2 POP POP PUSH2 0xA32 JUMP JUMPDEST POP DUP2 SWAP3 POP POP POP SWAP2 SWAP1 POP JUMP JUMPDEST PUSH1 0x0 PUSH1 0x1 PUSH1 0x0 SWAP1 SLOAD SWAP1 PUSH2 0x100 EXP SWAP1 DIV PUSH20 0xFFFFFFFFFFFFFFFFFFFFFFFFFFFFFFFFFFFFFFFF AND PUSH20 0xFFFFFFFFFFFFFFFFFFFFFFFFFFFFFFFFFFFFFFFF AND PUSH4 0x70A08231 DUP4 PUSH1 0x40 MLOAD DUP3 PUSH4 0xFFFFFFFF AND PUSH1 0xE0 SHL DUP2 MSTORE PUSH1 0x4 ADD PUSH2 0xB72 SWAP2 SWAP1 PUSH2 0x1D64 JUMP JUMPDEST PUSH1 0x20 PUSH1 0x40 MLOAD DUP1 DUP4 SUB DUP2 DUP7 DUP1 EXTCODESIZE ISZERO DUP1 ISZERO PUSH2 0xB8A JUMPI PUSH1 0x0 DUP1 REVERT JUMPDEST POP GAS STATICCALL ISZERO DUP1 ISZERO PUSH2 0xB9E JUMPI RETURNDATASIZE PUSH1 0x0 DUP1 RETURNDATACOPY RETURNDATASIZE PUSH1 0x0 REVERT JUMPDEST POP POP POP POP PUSH1 0x40 MLOAD RETURNDATASIZE PUSH1 0x1F NOT PUSH1 0x1F DUP3 ADD AND DUP3 ADD DUP1 PUSH1 0x40 MSTORE POP DUP2 ADD SWAP1 PUSH2 0xBC2 SWAP2 SWAP1 PUSH2 0x1C88 JUMP JUMPDEST SWAP1 POP SWAP2 SWAP1 POP JUMP JUMPDEST PUSH1 0x0 DUP1 PUSH1 0x0 DUP1 PUSH1 0x3 PUSH1 0x0 SWAP1 SLOAD SWAP1 PUSH2 0x100 EXP SWAP1 DIV PUSH20 0xFFFFFFFFFFFFFFFFFFFFFFFFFFFFFFFFFFFFFFFF AND PUSH20 0xFFFFFFFFFFFFFFFFFFFFFFFFFFFFFFFFFFFFFFFF AND PUSH4 0x902F1AC PUSH1 0x40 MLOAD DUP2 PUSH4 0xFFFFFFFF AND PUSH1 0xE0 SHL DUP2 MSTORE PUSH1 0x4 ADD PUSH1 0x60 PUSH1 0x40 MLOAD DUP1 DUP4 SUB DUP2 DUP7 DUP1 EXTCODESIZE ISZERO DUP1 ISZERO PUSH2 0xC37 JUMPI PUSH1 0x0 DUP1 REVERT JUMPDEST POP GAS STATICCALL ISZERO DUP1 ISZERO PUSH2 0xC4B JUMPI RETURNDATASIZE PUSH1 0x0 DUP1 RETURNDATACOPY RETURNDATASIZE PUSH1 0x0 REVERT JUMPDEST POP POP POP POP PUSH1 0x40 MLOAD RETURNDATASIZE PUSH1 0x1F NOT PUSH1 0x1F DUP3 ADD AND DUP3 ADD DUP1 PUSH1 0x40 MSTORE POP DUP2 ADD SWAP1 PUSH2 0xC6F SWAP2 SWAP1 PUSH2 0x1C35 JUMP JUMPDEST DUP1 SWAP4 POP DUP2 SWAP5 POP DUP3 SWAP6 POP POP POP POP PUSH1 0x0 PUSH2 0xCB0 DUP4 PUSH14 0xFFFFFFFFFFFFFFFFFFFFFFFFFFFF AND DUP6 PUSH14 0xFFFFFFFFFFFFFFFFFFFFFFFFFFFF AND PUSH2 0x175C SWAP1 SWAP2 SWAP1 PUSH4 0xFFFFFFFF AND JUMP JUMPDEST SWAP1 POP PUSH1 0x0 PUSH1 0x3 PUSH1 0x0 SWAP1 SLOAD SWAP1 PUSH2 0x100 EXP SWAP1 DIV PUSH20 0xFFFFFFFFFFFFFFFFFFFFFFFFFFFFFFFFFFFFFFFF AND PUSH20 0xFFFFFFFFFFFFFFFFFFFFFFFFFFFFFFFFFFFFFFFF AND PUSH4 0x70A08231 DUP9 PUSH1 0x40 MLOAD DUP3 PUSH4 0xFFFFFFFF AND PUSH1 0xE0 SHL DUP2 MSTORE PUSH1 0x4 ADD PUSH2 0xD0F SWAP2 SWAP1 PUSH2 0x1D64 JUMP JUMPDEST PUSH1 0x20 PUSH1 0x40 MLOAD DUP1 DUP4 SUB DUP2 DUP7 DUP1 EXTCODESIZE ISZERO DUP1 ISZERO PUSH2 0xD27 JUMPI PUSH1 0x0 DUP1 REVERT JUMPDEST POP GAS STATICCALL ISZERO DUP1 ISZERO PUSH2 0xD3B JUMPI RETURNDATASIZE PUSH1 0x0 DUP1 RETURNDATACOPY RETURNDATASIZE PUSH1 0x0 REVERT JUMPDEST POP POP POP POP PUSH1 0x40 MLOAD RETURNDATASIZE PUSH1 0x1F NOT PUSH1 0x1F DUP3 ADD AND DUP3 ADD DUP1 PUSH1 0x40 MSTORE POP DUP2 ADD SWAP1 PUSH2 0xD5F SWAP2 SWAP1 PUSH2 0x1C88 JUMP JUMPDEST SWAP1 POP PUSH2 0xD74 DUP2 DUP4 PUSH2 0x1772 SWAP1 SWAP2 SWAP1 PUSH4 0xFFFFFFFF AND JUMP JUMPDEST SWAP6 POP POP POP POP POP POP SWAP2 SWAP1 POP JUMP JUMPDEST DUP1 PUSH1 0x8 PUSH1 0x0 DUP5 PUSH20 0xFFFFFFFFFFFFFFFFFFFFFFFFFFFFFFFFFFFFFFFF AND PUSH20 0xFFFFFFFFFFFFFFFFFFFFFFFFFFFFFFFFFFFFFFFF AND DUP2 MSTORE PUSH1 0x20 ADD SWAP1 DUP2 MSTORE PUSH1 0x20 ADD PUSH1 0x0 KECCAK256 PUSH1 0x1 ADD PUSH1 0x1 PUSH1 0x8 PUSH1 0x0 DUP7 PUSH20 0xFFFFFFFFFFFFFFFFFFFFFFFFFFFFFFFFFFFFFFFF AND PUSH20 0xFFFFFFFFFFFFFFFFFFFFFFFFFFFFFFFFFFFFFFFF AND DUP2 MSTORE PUSH1 0x20 ADD SWAP1 DUP2 MSTORE PUSH1 0x20 ADD PUSH1 0x0 KECCAK256 PUSH1 0x1 ADD DUP1 SLOAD SWAP1 POP PUSH2 0xE15 SWAP2 SWAP1 PUSH2 0x1FF6 JUMP JUMPDEST DUP2 SLOAD DUP2 LT PUSH2 0xE26 JUMPI PUSH2 0xE25 PUSH2 0x226F JUMP JUMPDEST JUMPDEST SWAP1 PUSH1 0x0 MSTORE PUSH1 0x20 PUSH1 0x0 KECCAK256 ADD SLOAD EQ PUSH2 0xF49 JUMPI PUSH1 0x8 PUSH1 0x0 DUP4 PUSH20 0xFFFFFFFFFFFFFFFFFFFFFFFFFFFFFFFFFFFFFFFF AND PUSH20 0xFFFFFFFFFFFFFFFFFFFFFFFFFFFFFFFFFFFFFFFF AND DUP2 MSTORE PUSH1 0x20 ADD SWAP1 DUP2 MSTORE PUSH1 0x20 ADD PUSH1 0x0 KECCAK256 PUSH1 0x1 ADD PUSH1 0x1 PUSH1 0x8 PUSH1 0x0 DUP6 PUSH20 0xFFFFFFFFFFFFFFFFFFFFFFFFFFFFFFFFFFFFFFFF AND PUSH20 0xFFFFFFFFFFFFFFFFFFFFFFFFFFFFFFFFFFFFFFFF AND DUP2 MSTORE PUSH1 0x20 ADD SWAP1 DUP2 MSTORE PUSH1 0x20 ADD PUSH1 0x0 KECCAK256 PUSH1 0x1 ADD DUP1 SLOAD SWAP1 POP PUSH2 0xECA SWAP2 SWAP1 PUSH2 0x1FF6 JUMP JUMPDEST DUP2 SLOAD DUP2 LT PUSH2 0xEDB JUMPI PUSH2 0xEDA PUSH2 0x226F JUMP JUMPDEST JUMPDEST SWAP1 PUSH1 0x0 MSTORE PUSH1 0x20 PUSH1 0x0 KECCAK256 ADD SLOAD PUSH1 0x8 PUSH1 0x0 DUP5 PUSH20 0xFFFFFFFFFFFFFFFFFFFFFFFFFFFFFFFFFFFFFFFF AND PUSH20 0xFFFFFFFFFFFFFFFFFFFFFFFFFFFFFFFFFFFFFFFF AND DUP2 MSTORE PUSH1 0x20 ADD SWAP1 DUP2 MSTORE PUSH1 0x20 ADD PUSH1 0x0 KECCAK256 PUSH1 0x1 ADD DUP3 DUP2 SLOAD DUP2 LT PUSH2 0xF3A JUMPI PUSH2 0xF39 PUSH2 0x226F JUMP JUMPDEST JUMPDEST SWAP1 PUSH1 0x0 MSTORE PUSH1 0x20 PUSH1 0x0 KECCAK256 ADD DUP2 SWAP1 SSTORE POP JUMPDEST PUSH1 0x8 PUSH1 0x0 DUP4 PUSH20 0xFFFFFFFFFFFFFFFFFFFFFFFFFFFFFFFFFFFFFFFF AND PUSH20 0xFFFFFFFFFFFFFFFFFFFFFFFFFFFFFFFFFFFFFFFF AND DUP2 MSTORE PUSH1 0x20 ADD SWAP1 DUP2 MSTORE PUSH1 0x20 ADD PUSH1 0x0 KECCAK256 PUSH1 0x1 ADD DUP1 SLOAD DUP1 PUSH2 0xF9B JUMPI PUSH2 0xF9A PUSH2 0x2240 JUMP JUMPDEST JUMPDEST PUSH1 0x1 SWAP1 SUB DUP2 DUP2 SWAP1 PUSH1 0x0 MSTORE PUSH1 0x20 PUSH1 0x0 KECCAK256 ADD PUSH1 0x0 SWAP1 SSTORE SWAP1 SSTORE POP POP JUMP JUMPDEST PUSH1 0x1 PUSH1 0x0 SWAP1 SLOAD SWAP1 PUSH2 0x100 EXP SWAP1 DIV PUSH20 0xFFFFFFFFFFFFFFFFFFFFFFFFFFFFFFFFFFFFFFFF AND DUP2 JUMP JUMPDEST PUSH2 0xFE3 PUSH2 0x1754 JUMP JUMPDEST PUSH20 0xFFFFFFFFFFFFFFFFFFFFFFFFFFFFFFFFFFFFFFFF AND PUSH2 0x1001 PUSH2 0x1209 JUMP JUMPDEST PUSH20 0xFFFFFFFFFFFFFFFFFFFFFFFFFFFFFFFFFFFFFFFF AND EQ PUSH2 0x1057 JUMPI PUSH1 0x40 MLOAD PUSH32 0x8C379A000000000000000000000000000000000000000000000000000000000 DUP2 MSTORE PUSH1 0x4 ADD PUSH2 0x104E SWAP1 PUSH2 0x1E4F JUMP JUMPDEST PUSH1 0x40 MLOAD DUP1 SWAP2 SUB SWAP1 REVERT JUMPDEST PUSH2 0x1061 PUSH1 0x0 PUSH2 0x1788 JUMP JUMPDEST JUMP JUMPDEST PUSH2 0x106B PUSH2 0x1754 JUMP JUMPDEST PUSH20 0xFFFFFFFFFFFFFFFFFFFFFFFFFFFFFFFFFFFFFFFF AND PUSH2 0x1089 PUSH2 0x1209 JUMP JUMPDEST PUSH20 0xFFFFFFFFFFFFFFFFFFFFFFFFFFFFFFFFFFFFFFFF AND EQ PUSH2 0x10DF JUMPI PUSH1 0x40 MLOAD PUSH32 0x8C379A000000000000000000000000000000000000000000000000000000000 DUP2 MSTORE PUSH1 0x4 ADD PUSH2 0x10D6 SWAP1 PUSH2 0x1E4F JUMP JUMPDEST PUSH1 0x40 MLOAD DUP1 SWAP2 SUB SWAP1 REVERT JUMPDEST DUP1 PUSH1 0x7 PUSH1 0x0 PUSH2 0x100 EXP DUP2 SLOAD DUP2 PUSH20 0xFFFFFFFFFFFFFFFFFFFFFFFFFFFFFFFFFFFFFFFF MUL NOT AND SWAP1 DUP4 PUSH20 0xFFFFFFFFFFFFFFFFFFFFFFFFFFFFFFFFFFFFFFFF AND MUL OR SWAP1 SSTORE POP POP JUMP JUMPDEST PUSH1 0x4 PUSH1 0x0 SWAP1 SLOAD SWAP1 PUSH2 0x100 EXP SWAP1 DIV PUSH20 0xFFFFFFFFFFFFFFFFFFFFFFFFFFFFFFFFFFFFFFFF AND DUP2 JUMP JUMPDEST PUSH2 0x1151 PUSH2 0x1754 JUMP JUMPDEST PUSH20 0xFFFFFFFFFFFFFFFFFFFFFFFFFFFFFFFFFFFFFFFF AND PUSH2 0x116F PUSH2 0x1209 JUMP JUMPDEST PUSH20 0xFFFFFFFFFFFFFFFFFFFFFFFFFFFFFFFFFFFFFFFF AND EQ PUSH2 0x11C5 JUMPI PUSH1 0x40 MLOAD PUSH32 0x8C379A000000000000000000000000000000000000000000000000000000000 DUP2 MSTORE PUSH1 0x4 ADD PUSH2 0x11BC SWAP1 PUSH2 0x1E4F JUMP JUMPDEST PUSH1 0x40 MLOAD DUP1 SWAP2 SUB SWAP1 REVERT JUMPDEST DUP1 PUSH1 0x3 PUSH1 0x0 PUSH2 0x100 EXP DUP2 SLOAD DUP2 PUSH20 0xFFFFFFFFFFFFFFFFFFFFFFFFFFFFFFFFFFFFFFFF MUL NOT AND SWAP1 DUP4 PUSH20 0xFFFFFFFFFFFFFFFFFFFFFFFFFFFFFFFFFFFFFFFF AND MUL OR SWAP1 SSTORE POP POP JUMP JUMPDEST PUSH1 0x0 DUP1 PUSH1 0x0 SWAP1 SLOAD SWAP1 PUSH2 0x100 EXP SWAP1 DIV PUSH20 0xFFFFFFFFFFFFFFFFFFFFFFFFFFFFFFFFFFFFFFFF AND SWAP1 POP SWAP1 JUMP JUMPDEST PUSH1 0x0 PUSH2 0x123D DUP3 PUSH2 0x12B6 JUMP JUMPDEST PUSH2 0x1246 DUP4 PUSH2 0x978 JUMP JUMPDEST PUSH2 0x124F DUP5 PUSH2 0xBC9 JUMP JUMPDEST PUSH2 0x1258 DUP6 PUSH2 0x8C4 JUMP JUMPDEST PUSH2 0x1261 DUP7 PUSH2 0xB15 JUMP JUMPDEST PUSH2 0x126B SWAP2 SWAP1 PUSH2 0x1F15 JUMP JUMPDEST PUSH2 0x1275 SWAP2 SWAP1 PUSH2 0x1F15 JUMP JUMPDEST PUSH2 0x127F SWAP2 SWAP1 PUSH2 0x1F15 JUMP JUMPDEST PUSH2 0x1289 SWAP2 SWAP1 PUSH2 0x1F15 JUMP JUMPDEST SWAP1 POP SWAP2 SWAP1 POP JUMP JUMPDEST PUSH1 0x3 PUSH1 0x0 SWAP1 SLOAD SWAP1 PUSH2 0x100 EXP SWAP1 DIV PUSH20 0xFFFFFFFFFFFFFFFFFFFFFFFFFFFFFFFFFFFFFFFF AND DUP2 JUMP JUMPDEST PUSH1 0x0 DUP1 PUSH1 0x0 SWAP1 POP PUSH1 0x0 JUMPDEST PUSH2 0x44C DUP2 GT PUSH2 0x1395 JUMPI PUSH1 0x5 PUSH1 0x0 SWAP1 SLOAD SWAP1 PUSH2 0x100 EXP SWAP1 DIV PUSH20 0xFFFFFFFFFFFFFFFFFFFFFFFFFFFFFFFFFFFFFFFF AND PUSH20 0xFFFFFFFFFFFFFFFFFFFFFFFFFFFFFFFFFFFFFFFF AND PUSH3 0xFDD58E DUP6 DUP4 PUSH1 0x40 MLOAD DUP4 PUSH4 0xFFFFFFFF AND PUSH1 0xE0 SHL DUP2 MSTORE PUSH1 0x4 ADD PUSH2 0x1325 SWAP3 SWAP2 SWAP1 PUSH2 0x1D7F JUMP JUMPDEST PUSH1 0x20 PUSH1 0x40 MLOAD DUP1 DUP4 SUB DUP2 DUP7 DUP1 EXTCODESIZE ISZERO DUP1 ISZERO PUSH2 0x133D JUMPI PUSH1 0x0 DUP1 REVERT JUMPDEST POP GAS STATICCALL ISZERO DUP1 ISZERO PUSH2 0x1351 JUMPI RETURNDATASIZE PUSH1 0x0 DUP1 RETURNDATACOPY RETURNDATASIZE PUSH1 0x0 REVERT JUMPDEST POP POP POP POP PUSH1 0x40 MLOAD RETURNDATASIZE PUSH1 0x1F NOT PUSH1 0x1F DUP3 ADD AND DUP3 ADD DUP1 PUSH1 0x40 MSTORE POP DUP2 ADD SWAP1 PUSH2 0x1375 SWAP2 SWAP1 PUSH2 0x1C88 JUMP JUMPDEST DUP3 PUSH2 0x1380 SWAP2 SWAP1 PUSH2 0x1F15 JUMP JUMPDEST SWAP2 POP DUP1 DUP1 PUSH2 0x138D SWAP1 PUSH2 0x2199 JUMP JUMPDEST SWAP2 POP POP PUSH2 0x12C0 JUMP JUMPDEST POP PUSH1 0x0 JUMPDEST PUSH2 0x12C DUP2 GT PUSH2 0x146E JUMPI PUSH1 0x6 PUSH1 0x0 SWAP1 SLOAD SWAP1 PUSH2 0x100 EXP SWAP1 DIV PUSH20 0xFFFFFFFFFFFFFFFFFFFFFFFFFFFFFFFFFFFFFFFF AND PUSH20 0xFFFFFFFFFFFFFFFFFFFFFFFFFFFFFFFFFFFFFFFF AND PUSH3 0xFDD58E DUP6 DUP4 PUSH1 0x40 MLOAD DUP4 PUSH4 0xFFFFFFFF AND PUSH1 0xE0 SHL DUP2 MSTORE PUSH1 0x4 ADD PUSH2 0x13FE SWAP3 SWAP2 SWAP1 PUSH2 0x1D7F JUMP JUMPDEST PUSH1 0x20 PUSH1 0x40 MLOAD DUP1 DUP4 SUB DUP2 DUP7 DUP1 EXTCODESIZE ISZERO DUP1 ISZERO PUSH2 0x1416 JUMPI PUSH1 0x0 DUP1 REVERT JUMPDEST POP GAS STATICCALL ISZERO DUP1 ISZERO PUSH2 0x142A JUMPI RETURNDATASIZE PUSH1 0x0 DUP1 RETURNDATACOPY RETURNDATASIZE PUSH1 0x0 REVERT JUMPDEST POP POP POP POP PUSH1 0x40 MLOAD RETURNDATASIZE PUSH1 0x1F NOT PUSH1 0x1F DUP3 ADD AND DUP3 ADD DUP1 PUSH1 0x40 MSTORE POP DUP2 ADD SWAP1 PUSH2 0x144E SWAP2 SWAP1 PUSH2 0x1C88 JUMP JUMPDEST DUP3 PUSH2 0x1459 SWAP2 SWAP1 PUSH2 0x1F15 JUMP JUMPDEST SWAP2 POP DUP1 DUP1 PUSH2 0x1466 SWAP1 PUSH2 0x2199 JUMP JUMPDEST SWAP2 POP POP PUSH2 0x1399 JUMP JUMPDEST POP PUSH1 0x0 JUMPDEST PUSH1 0x64 DUP2 GT PUSH2 0x1546 JUMPI PUSH1 0x7 PUSH1 0x0 SWAP1 SLOAD SWAP1 PUSH2 0x100 EXP SWAP1 DIV PUSH20 0xFFFFFFFFFFFFFFFFFFFFFFFFFFFFFFFFFFFFFFFF AND PUSH20 0xFFFFFFFFFFFFFFFFFFFFFFFFFFFFFFFFFFFFFFFF AND PUSH3 0xFDD58E DUP6 DUP4 PUSH1 0x40 MLOAD DUP4 PUSH4 0xFFFFFFFF AND PUSH1 0xE0 SHL DUP2 MSTORE PUSH1 0x4 ADD PUSH2 0x14D6 SWAP3 SWAP2 SWAP1 PUSH2 0x1D7F JUMP JUMPDEST PUSH1 0x20 PUSH1 0x40 MLOAD DUP1 DUP4 SUB DUP2 DUP7 DUP1 EXTCODESIZE ISZERO DUP1 ISZERO PUSH2 0x14EE JUMPI PUSH1 0x0 DUP1 REVERT JUMPDEST POP GAS STATICCALL ISZERO DUP1 ISZERO PUSH2 0x1502 JUMPI RETURNDATASIZE PUSH1 0x0 DUP1 RETURNDATACOPY RETURNDATASIZE PUSH1 0x0 REVERT JUMPDEST POP POP POP POP PUSH1 0x40 MLOAD RETURNDATASIZE PUSH1 0x1F NOT PUSH1 0x1F DUP3 ADD AND DUP3 ADD DUP1 PUSH1 0x40 MSTORE POP DUP2 ADD SWAP1 PUSH2 0x1526 SWAP2 SWAP1 PUSH2 0x1C88 JUMP JUMPDEST DUP3 PUSH2 0x1531 SWAP2 SWAP1 PUSH2 0x1F15 JUMP JUMPDEST SWAP2 POP DUP1 DUP1 PUSH2 0x153E SWAP1 PUSH2 0x2199 JUMP JUMPDEST SWAP2 POP POP PUSH2 0x1472 JUMP JUMPDEST POP DUP1 SWAP2 POP POP SWAP2 SWAP1 POP JUMP JUMPDEST PUSH1 0x7 PUSH1 0x0 SWAP1 SLOAD SWAP1 PUSH2 0x100 EXP SWAP1 DIV PUSH20 0xFFFFFFFFFFFFFFFFFFFFFFFFFFFFFFFFFFFFFFFF AND DUP2 JUMP JUMPDEST PUSH2 0x157E PUSH2 0x1754 JUMP JUMPDEST PUSH20 0xFFFFFFFFFFFFFFFFFFFFFFFFFFFFFFFFFFFFFFFF AND PUSH2 0x159C PUSH2 0x1209 JUMP JUMPDEST PUSH20 0xFFFFFFFFFFFFFFFFFFFFFFFFFFFFFFFFFFFFFFFF AND EQ PUSH2 0x15F2 JUMPI PUSH1 0x40 MLOAD PUSH32 0x8C379A000000000000000000000000000000000000000000000000000000000 DUP2 MSTORE PUSH1 0x4 ADD PUSH2 0x15E9 SWAP1 PUSH2 0x1E4F JUMP JUMPDEST PUSH1 0x40 MLOAD DUP1 SWAP2 SUB SWAP1 REVERT JUMPDEST PUSH1 0x0 PUSH20 0xFFFFFFFFFFFFFFFFFFFFFFFFFFFFFFFFFFFFFFFF AND DUP2 PUSH20 0xFFFFFFFFFFFFFFFFFFFFFFFFFFFFFFFFFFFFFFFF AND EQ ISZERO PUSH2 0x1662 JUMPI PUSH1 0x40 MLOAD PUSH32 0x8C379A000000000000000000000000000000000000000000000000000000000 DUP2 MSTORE PUSH1 0x4 ADD PUSH2 0x1659 SWAP1 PUSH2 0x1E2F JUMP JUMPDEST PUSH1 0x40 MLOAD DUP1 SWAP2 SUB SWAP1 REVERT JUMPDEST PUSH2 0x166B DUP2 PUSH2 0x1788 JUMP JUMPDEST POP JUMP JUMPDEST PUSH2 0x1676 PUSH2 0x1754 JUMP JUMPDEST PUSH20 0xFFFFFFFFFFFFFFFFFFFFFFFFFFFFFFFFFFFFFFFF AND PUSH2 0x1694 PUSH2 0x1209 JUMP JUMPDEST PUSH20 0xFFFFFFFFFFFFFFFFFFFFFFFFFFFFFFFFFFFFFFFF AND EQ PUSH2 0x16EA JUMPI PUSH1 0x40 MLOAD PUSH32 0x8C379A000000000000000000000000000000000000000000000000000000000 DUP2 MSTORE PUSH1 0x4 ADD PUSH2 0x16E1 SWAP1 PUSH2 0x1E4F JUMP JUMPDEST PUSH1 0x40 MLOAD DUP1 SWAP2 SUB SWAP1 REVERT JUMPDEST DUP1 PUSH1 0x5 PUSH1 0x0 PUSH2 0x100 EXP DUP2 SLOAD DUP2 PUSH20 0xFFFFFFFFFFFFFFFFFFFFFFFFFFFFFFFFFFFFFFFF MUL NOT AND SWAP1 DUP4 PUSH20 0xFFFFFFFFFFFFFFFFFFFFFFFFFFFFFFFFFFFFFFFF AND MUL OR SWAP1 SSTORE POP POP JUMP JUMPDEST PUSH1 0x6 PUSH1 0x0 SWAP1 SLOAD SWAP1 PUSH2 0x100 EXP SWAP1 DIV PUSH20 0xFFFFFFFFFFFFFFFFFFFFFFFFFFFFFFFFFFFFFFFF AND DUP2 JUMP JUMPDEST PUSH1 0x0 CALLER SWAP1 POP SWAP1 JUMP JUMPDEST PUSH1 0x0 DUP2 DUP4 PUSH2 0x176A SWAP2 SWAP1 PUSH2 0x1F6B JUMP JUMPDEST SWAP1 POP SWAP3 SWAP2 POP POP JUMP JUMPDEST PUSH1 0x0 DUP2 DUP4 PUSH2 0x1780 SWAP2 SWAP1 PUSH2 0x1F9C JUMP JUMPDEST SWAP1 POP SWAP3 SWAP2 POP POP JUMP JUMPDEST PUSH1 0x0 DUP1 PUSH1 0x0 SWAP1 SLOAD SWAP1 PUSH2 0x100 EXP SWAP1 DIV PUSH20 0xFFFFFFFFFFFFFFFFFFFFFFFFFFFFFFFFFFFFFFFF AND SWAP1 POP DUP2 PUSH1 0x0 DUP1 PUSH2 0x100 EXP DUP2 SLOAD DUP2 PUSH20 0xFFFFFFFFFFFFFFFFFFFFFFFFFFFFFFFFFFFFFFFF MUL NOT AND SWAP1 DUP4 PUSH20 0xFFFFFFFFFFFFFFFFFFFFFFFFFFFFFFFFFFFFFFFF AND MUL OR SWAP1 SSTORE POP DUP2 PUSH20 0xFFFFFFFFFFFFFFFFFFFFFFFFFFFFFFFFFFFFFFFF AND DUP2 PUSH20 0xFFFFFFFFFFFFFFFFFFFFFFFFFFFFFFFFFFFFFFFF AND PUSH32 0x8BE0079C531659141344CD1FD0A4F28419497F9722A3DAAFE3B4186F6B6457E0 PUSH1 0x40 MLOAD PUSH1 0x40 MLOAD DUP1 SWAP2 SUB SWAP1 LOG3 POP POP JUMP JUMPDEST PUSH1 0x0 PUSH2 0x185F PUSH2 0x185A DUP5 PUSH2 0x1ED8 JUMP JUMPDEST PUSH2 0x1EB3 JUMP JUMPDEST SWAP1 POP DUP1 DUP4 DUP3 MSTORE PUSH1 0x20 DUP3 ADD SWAP1 POP DUP3 DUP6 PUSH1 0x20 DUP7 MUL DUP3 ADD GT ISZERO PUSH2 0x1882 JUMPI PUSH2 0x1881 PUSH2 0x22D7 JUMP JUMPDEST JUMPDEST PUSH1 0x0 JUMPDEST DUP6 DUP2 LT ISZERO PUSH2 0x18B2 JUMPI DUP2 PUSH2 0x1898 DUP9 DUP3 PUSH2 0x1A47 JUMP JUMPDEST DUP5 MSTORE PUSH1 0x20 DUP5 ADD SWAP4 POP PUSH1 0x20 DUP4 ADD SWAP3 POP POP PUSH1 0x1 DUP2 ADD SWAP1 POP PUSH2 0x1885 JUMP JUMPDEST POP POP POP SWAP4 SWAP3 POP POP POP JUMP JUMPDEST PUSH1 0x0 DUP2 CALLDATALOAD SWAP1 POP PUSH2 0x18CB DUP2 PUSH2 0x236F JUMP JUMPDEST SWAP3 SWAP2 POP POP JUMP JUMPDEST PUSH1 0x0 DUP2 MLOAD SWAP1 POP PUSH2 0x18E0 DUP2 PUSH2 0x236F JUMP JUMPDEST SWAP3 SWAP2 POP POP JUMP JUMPDEST PUSH1 0x0 DUP3 PUSH1 0x1F DUP4 ADD SLT PUSH2 0x18FB JUMPI PUSH2 0x18FA PUSH2 0x22CD JUMP JUMPDEST JUMPDEST DUP2 MLOAD PUSH2 0x190B DUP5 DUP3 PUSH1 0x20 DUP7 ADD PUSH2 0x184C JUMP JUMPDEST SWAP2 POP POP SWAP3 SWAP2 POP POP JUMP JUMPDEST PUSH1 0x0 DUP2 CALLDATALOAD SWAP1 POP PUSH2 0x1923 DUP2 PUSH2 0x2386 JUMP JUMPDEST SWAP3 SWAP2 POP POP JUMP JUMPDEST PUSH1 0x0 DUP2 CALLDATALOAD SWAP1 POP PUSH2 0x1938 DUP2 PUSH2 0x239D JUMP JUMPDEST SWAP3 SWAP2 POP POP JUMP JUMPDEST PUSH1 0x0 DUP2 CALLDATALOAD SWAP1 POP PUSH2 0x194D DUP2 PUSH2 0x23B4 JUMP JUMPDEST SWAP3 SWAP2 POP POP JUMP JUMPDEST PUSH1 0x0 DUP2 CALLDATALOAD SWAP1 POP PUSH2 0x1962 DUP2 PUSH2 0x23CB JUMP JUMPDEST SWAP3 SWAP2 POP POP JUMP JUMPDEST PUSH1 0x0 DUP2 CALLDATALOAD SWAP1 POP PUSH2 0x1977 DUP2 PUSH2 0x23E2 JUMP JUMPDEST SWAP3 SWAP2 POP POP JUMP JUMPDEST PUSH1 0x0 PUSH1 0xC0 DUP3 DUP5 SUB SLT ISZERO PUSH2 0x1993 JUMPI PUSH2 0x1992 PUSH2 0x22D2 JUMP JUMPDEST JUMPDEST PUSH2 0x199D PUSH1 0xC0 PUSH2 0x1EB3 JUMP JUMPDEST SWAP1 POP PUSH1 0x0 PUSH2 0x19AD DUP5 DUP3 DUP6 ADD PUSH2 0x18D1 JUMP JUMPDEST PUSH1 0x0 DUP4 ADD MSTORE POP PUSH1 0x20 PUSH2 0x19C1 DUP5 DUP3 DUP6 ADD PUSH2 0x1A47 JUMP JUMPDEST PUSH1 0x20 DUP4 ADD MSTORE POP PUSH1 0x40 PUSH2 0x19D5 DUP5 DUP3 DUP6 ADD PUSH2 0x1A47 JUMP JUMPDEST PUSH1 0x40 DUP4 ADD MSTORE POP PUSH1 0x60 PUSH2 0x19E9 DUP5 DUP3 DUP6 ADD PUSH2 0x1A47 JUMP JUMPDEST PUSH1 0x60 DUP4 ADD MSTORE POP PUSH1 0x80 PUSH2 0x19FD DUP5 DUP3 DUP6 ADD PUSH2 0x1A47 JUMP JUMPDEST PUSH1 0x80 DUP4 ADD MSTORE POP PUSH1 0xA0 PUSH2 0x1A11 DUP5 DUP3 DUP6 ADD PUSH2 0x1A47 JUMP JUMPDEST PUSH1 0xA0 DUP4 ADD MSTORE POP SWAP3 SWAP2 POP POP JUMP JUMPDEST PUSH1 0x0 DUP2 MLOAD SWAP1 POP PUSH2 0x1A2C DUP2 PUSH2 0x23F9 JUMP JUMPDEST SWAP3 SWAP2 POP POP JUMP JUMPDEST PUSH1 0x0 DUP2 CALLDATALOAD SWAP1 POP PUSH2 0x1A41 DUP2 PUSH2 0x2410 JUMP JUMPDEST SWAP3 SWAP2 POP POP JUMP JUMPDEST PUSH1 0x0 DUP2 MLOAD SWAP1 POP PUSH2 0x1A56 DUP2 PUSH2 0x2410 JUMP JUMPDEST SWAP3 SWAP2 POP POP JUMP JUMPDEST PUSH1 0x0 DUP2 MLOAD SWAP1 POP PUSH2 0x1A6B DUP2 PUSH2 0x2427 JUMP JUMPDEST SWAP3 SWAP2 POP POP JUMP JUMPDEST PUSH1 0x0 PUSH1 0x20 DUP3 DUP5 SUB SLT ISZERO PUSH2 0x1A87 JUMPI PUSH2 0x1A86 PUSH2 0x22E1 JUMP JUMPDEST JUMPDEST PUSH1 0x0 PUSH2 0x1A95 DUP5 DUP3 DUP6 ADD PUSH2 0x18BC JUMP JUMPDEST SWAP2 POP POP SWAP3 SWAP2 POP POP JUMP JUMPDEST PUSH1 0x0 DUP1 PUSH1 0x40 DUP4 DUP6 SUB SLT ISZERO PUSH2 0x1AB5 JUMPI PUSH2 0x1AB4 PUSH2 0x22E1 JUMP JUMPDEST JUMPDEST PUSH1 0x0 PUSH2 0x1AC3 DUP6 DUP3 DUP7 ADD PUSH2 0x18BC JUMP JUMPDEST SWAP3 POP POP PUSH1 0x20 PUSH2 0x1AD4 DUP6 DUP3 DUP7 ADD PUSH2 0x1A32 JUMP JUMPDEST SWAP2 POP POP SWAP3 POP SWAP3 SWAP1 POP JUMP JUMPDEST PUSH1 0x0 PUSH1 0x20 DUP3 DUP5 SUB SLT ISZERO PUSH2 0x1AF4 JUMPI PUSH2 0x1AF3 PUSH2 0x22E1 JUMP JUMPDEST JUMPDEST PUSH1 0x0 DUP3 ADD MLOAD PUSH8 0xFFFFFFFFFFFFFFFF DUP2 GT ISZERO PUSH2 0x1B12 JUMPI PUSH2 0x1B11 PUSH2 0x22DC JUMP JUMPDEST JUMPDEST PUSH2 0x1B1E DUP5 DUP3 DUP6 ADD PUSH2 0x18E6 JUMP JUMPDEST SWAP2 POP POP SWAP3 SWAP2 POP POP JUMP JUMPDEST PUSH1 0x0 PUSH1 0x20 DUP3 DUP5 SUB SLT ISZERO PUSH2 0x1B3D JUMPI PUSH2 0x1B3C PUSH2 0x22E1 JUMP JUMPDEST JUMPDEST PUSH1 0x0 PUSH2 0x1B4B DUP5 DUP3 DUP6 ADD PUSH2 0x1914 JUMP JUMPDEST SWAP2 POP POP SWAP3 SWAP2 POP POP JUMP JUMPDEST PUSH1 0x0 PUSH1 0x20 DUP3 DUP5 SUB SLT ISZERO PUSH2 0x1B6A JUMPI PUSH2 0x1B69 PUSH2 0x22E1 JUMP JUMPDEST JUMPDEST PUSH1 0x0 PUSH2 0x1B78 DUP5 DUP3 DUP6 ADD PUSH2 0x1929 JUMP JUMPDEST SWAP2 POP POP SWAP3 SWAP2 POP POP JUMP JUMPDEST PUSH1 0x0 PUSH1 0x20 DUP3 DUP5 SUB SLT ISZERO PUSH2 0x1B97 JUMPI PUSH2 0x1B96 PUSH2 0x22E1 JUMP JUMPDEST JUMPDEST PUSH1 0x0 PUSH2 0x1BA5 DUP5 DUP3 DUP6 ADD PUSH2 0x193E JUMP JUMPDEST SWAP2 POP POP SWAP3 SWAP2 POP POP JUMP JUMPDEST PUSH1 0x0 PUSH1 0x20 DUP3 DUP5 SUB SLT ISZERO PUSH2 0x1BC4 JUMPI PUSH2 0x1BC3 PUSH2 0x22E1 JUMP JUMPDEST JUMPDEST PUSH1 0x0 PUSH2 0x1BD2 DUP5 DUP3 DUP6 ADD PUSH2 0x1953 JUMP JUMPDEST SWAP2 POP POP SWAP3 SWAP2 POP POP JUMP JUMPDEST PUSH1 0x0 PUSH1 0x20 DUP3 DUP5 SUB SLT ISZERO PUSH2 0x1BF1 JUMPI PUSH2 0x1BF0 PUSH2 0x22E1 JUMP JUMPDEST JUMPDEST PUSH1 0x0 PUSH2 0x1BFF DUP5 DUP3 DUP6 ADD PUSH2 0x1968 JUMP JUMPDEST SWAP2 POP POP SWAP3 SWAP2 POP POP JUMP JUMPDEST PUSH1 0x0 PUSH1 0xC0 DUP3 DUP5 SUB SLT ISZERO PUSH2 0x1C1E JUMPI PUSH2 0x1C1D PUSH2 0x22E1 JUMP JUMPDEST JUMPDEST PUSH1 0x0 PUSH2 0x1C2C DUP5 DUP3 DUP6 ADD PUSH2 0x197D JUMP JUMPDEST SWAP2 POP POP SWAP3 SWAP2 POP POP JUMP JUMPDEST PUSH1 0x0 DUP1 PUSH1 0x0 PUSH1 0x60 DUP5 DUP7 SUB SLT ISZERO PUSH2 0x1C4E JUMPI PUSH2 0x1C4D PUSH2 0x22E1 JUMP JUMPDEST JUMPDEST PUSH1 0x0 PUSH2 0x1C5C DUP7 DUP3 DUP8 ADD PUSH2 0x1A1D JUMP JUMPDEST SWAP4 POP POP PUSH1 0x20 PUSH2 0x1C6D DUP7 DUP3 DUP8 ADD PUSH2 0x1A1D JUMP JUMPDEST SWAP3 POP POP PUSH1 0x40 PUSH2 0x1C7E DUP7 DUP3 DUP8 ADD PUSH2 0x1A5C JUMP JUMPDEST SWAP2 POP POP SWAP3 POP SWAP3 POP SWAP3 JUMP JUMPDEST PUSH1 0x0 PUSH1 0x20 DUP3 DUP5 SUB SLT ISZERO PUSH2 0x1C9E JUMPI PUSH2 0x1C9D PUSH2 0x22E1 JUMP JUMPDEST JUMPDEST PUSH1 0x0 PUSH2 0x1CAC DUP5 DUP3 DUP6 ADD PUSH2 0x1A47 JUMP JUMPDEST SWAP2 POP POP SWAP3 SWAP2 POP POP JUMP JUMPDEST PUSH2 0x1CBE DUP2 PUSH2 0x202A JUMP JUMPDEST DUP3 MSTORE POP POP JUMP JUMPDEST PUSH2 0x1CCD DUP2 PUSH2 0x20EA JUMP JUMPDEST DUP3 MSTORE POP POP JUMP JUMPDEST PUSH2 0x1CDC DUP2 PUSH2 0x20FC JUMP JUMPDEST DUP3 MSTORE POP POP JUMP JUMPDEST PUSH2 0x1CEB DUP2 PUSH2 0x210E JUMP JUMPDEST DUP3 MSTORE POP POP JUMP JUMPDEST PUSH2 0x1CFA DUP2 PUSH2 0x2120 JUMP JUMPDEST DUP3 MSTORE POP POP JUMP JUMPDEST PUSH2 0x1D09 DUP2 PUSH2 0x2132 JUMP JUMPDEST DUP3 MSTORE POP POP JUMP JUMPDEST PUSH1 0x0 PUSH2 0x1D1C PUSH1 0x26 DUP4 PUSH2 0x1F04 JUMP JUMPDEST SWAP2 POP PUSH2 0x1D27 DUP3 PUSH2 0x22F7 JUMP JUMPDEST PUSH1 0x40 DUP3 ADD SWAP1 POP SWAP2 SWAP1 POP JUMP JUMPDEST PUSH1 0x0 PUSH2 0x1D3F PUSH1 0x20 DUP4 PUSH2 0x1F04 JUMP JUMPDEST SWAP2 POP PUSH2 0x1D4A DUP3 PUSH2 0x2346 JUMP JUMPDEST PUSH1 0x20 DUP3 ADD SWAP1 POP SWAP2 SWAP1 POP JUMP JUMPDEST PUSH2 0x1D5E DUP2 PUSH2 0x20D0 JUMP JUMPDEST DUP3 MSTORE POP POP JUMP JUMPDEST PUSH1 0x0 PUSH1 0x20 DUP3 ADD SWAP1 POP PUSH2 0x1D79 PUSH1 0x0 DUP4 ADD DUP5 PUSH2 0x1CB5 JUMP JUMPDEST SWAP3 SWAP2 POP POP JUMP JUMPDEST PUSH1 0x0 PUSH1 0x40 DUP3 ADD SWAP1 POP PUSH2 0x1D94 PUSH1 0x0 DUP4 ADD DUP6 PUSH2 0x1CB5 JUMP JUMPDEST PUSH2 0x1DA1 PUSH1 0x20 DUP4 ADD DUP5 PUSH2 0x1D55 JUMP JUMPDEST SWAP4 SWAP3 POP POP POP JUMP JUMPDEST PUSH1 0x0 PUSH1 0x20 DUP3 ADD SWAP1 POP PUSH2 0x1DBD PUSH1 0x0 DUP4 ADD DUP5 PUSH2 0x1CC4 JUMP JUMPDEST SWAP3 SWAP2 POP POP JUMP JUMPDEST PUSH1 0x0 PUSH1 0x20 DUP3 ADD SWAP1 POP PUSH2 0x1DD8 PUSH1 0x0 DUP4 ADD DUP5 PUSH2 0x1CD3 JUMP JUMPDEST SWAP3 SWAP2 POP POP JUMP JUMPDEST PUSH1 0x0 PUSH1 0x20 DUP3 ADD SWAP1 POP PUSH2 0x1DF3 PUSH1 0x0 DUP4 ADD DUP5 PUSH2 0x1CE2 JUMP JUMPDEST SWAP3 SWAP2 POP POP JUMP JUMPDEST PUSH1 0x0 PUSH1 0x20 DUP3 ADD SWAP1 POP PUSH2 0x1E0E PUSH1 0x0 DUP4 ADD DUP5 PUSH2 0x1CF1 JUMP JUMPDEST SWAP3 SWAP2 POP POP JUMP JUMPDEST PUSH1 0x0 PUSH1 0x20 DUP3 ADD SWAP1 POP PUSH2 0x1E29 PUSH1 0x0 DUP4 ADD DUP5 PUSH2 0x1D00 JUMP JUMPDEST SWAP3 SWAP2 POP POP JUMP JUMPDEST PUSH1 0x0 PUSH1 0x20 DUP3 ADD SWAP1 POP DUP2 DUP2 SUB PUSH1 0x0 DUP4 ADD MSTORE PUSH2 0x1E48 DUP2 PUSH2 0x1D0F JUMP JUMPDEST SWAP1 POP SWAP2 SWAP1 POP JUMP JUMPDEST PUSH1 0x0 PUSH1 0x20 DUP3 ADD SWAP1 POP DUP2 DUP2 SUB PUSH1 0x0 DUP4 ADD MSTORE PUSH2 0x1E68 DUP2 PUSH2 0x1D32 JUMP JUMPDEST SWAP1 POP SWAP2 SWAP1 POP JUMP JUMPDEST PUSH1 0x0 PUSH1 0x20 DUP3 ADD SWAP1 POP PUSH2 0x1E84 PUSH1 0x0 DUP4 ADD DUP5 PUSH2 0x1D55 JUMP JUMPDEST SWAP3 SWAP2 POP POP JUMP JUMPDEST PUSH1 0x0 PUSH1 0x40 DUP3 ADD SWAP1 POP PUSH2 0x1E9F PUSH1 0x0 DUP4 ADD DUP6 PUSH2 0x1D55 JUMP JUMPDEST PUSH2 0x1EAC PUSH1 0x20 DUP4 ADD DUP5 PUSH2 0x1D55 JUMP JUMPDEST SWAP4 SWAP3 POP POP POP JUMP JUMPDEST PUSH1 0x0 PUSH2 0x1EBD PUSH2 0x1ECE JUMP JUMPDEST SWAP1 POP PUSH2 0x1EC9 DUP3 DUP3 PUSH2 0x2168 JUMP JUMPDEST SWAP2 SWAP1 POP JUMP JUMPDEST PUSH1 0x0 PUSH1 0x40 MLOAD SWAP1 POP SWAP1 JUMP JUMPDEST PUSH1 0x0 PUSH8 0xFFFFFFFFFFFFFFFF DUP3 GT ISZERO PUSH2 0x1EF3 JUMPI PUSH2 0x1EF2 PUSH2 0x229E JUMP JUMPDEST JUMPDEST PUSH1 0x20 DUP3 MUL SWAP1 POP PUSH1 0x20 DUP2 ADD SWAP1 POP SWAP2 SWAP1 POP JUMP JUMPDEST PUSH1 0x0 DUP3 DUP3 MSTORE PUSH1 0x20 DUP3 ADD SWAP1 POP SWAP3 SWAP2 POP POP JUMP JUMPDEST PUSH1 0x0 PUSH2 0x1F20 DUP3 PUSH2 0x20D0 JUMP JUMPDEST SWAP2 POP PUSH2 0x1F2B DUP4 PUSH2 0x20D0 JUMP JUMPDEST SWAP3 POP DUP3 PUSH32 0xFFFFFFFFFFFFFFFFFFFFFFFFFFFFFFFFFFFFFFFFFFFFFFFFFFFFFFFFFFFFFFFF SUB DUP3 GT ISZERO PUSH2 0x1F60 JUMPI PUSH2 0x1F5F PUSH2 0x21E2 JUMP JUMPDEST JUMPDEST DUP3 DUP3 ADD SWAP1 POP SWAP3 SWAP2 POP POP JUMP JUMPDEST PUSH1 0x0 PUSH2 0x1F76 DUP3 PUSH2 0x20D0 JUMP JUMPDEST SWAP2 POP PUSH2 0x1F81 DUP4 PUSH2 0x20D0 JUMP JUMPDEST SWAP3 POP DUP3 PUSH2 0x1F91 JUMPI PUSH2 0x1F90 PUSH2 0x2211 JUMP JUMPDEST JUMPDEST DUP3 DUP3 DIV SWAP1 POP SWAP3 SWAP2 POP POP JUMP JUMPDEST PUSH1 0x0 PUSH2 0x1FA7 DUP3 PUSH2 0x20D0 JUMP JUMPDEST SWAP2 POP PUSH2 0x1FB2 DUP4 PUSH2 0x20D0 JUMP JUMPDEST SWAP3 POP DUP2 PUSH32 0xFFFFFFFFFFFFFFFFFFFFFFFFFFFFFFFFFFFFFFFFFFFFFFFFFFFFFFFFFFFFFFFF DIV DUP4 GT DUP3 ISZERO ISZERO AND ISZERO PUSH2 0x1FEB JUMPI PUSH2 0x1FEA PUSH2 0x21E2 JUMP JUMPDEST JUMPDEST DUP3 DUP3 MUL SWAP1 POP SWAP3 SWAP2 POP POP JUMP JUMPDEST PUSH1 0x0 PUSH2 0x2001 DUP3 PUSH2 0x20D0 JUMP JUMPDEST SWAP2 POP PUSH2 0x200C DUP4 PUSH2 0x20D0 JUMP JUMPDEST SWAP3 POP DUP3 DUP3 LT ISZERO PUSH2 0x201F JUMPI PUSH2 0x201E PUSH2 0x21E2 JUMP JUMPDEST JUMPDEST DUP3 DUP3 SUB SWAP1 POP SWAP3 SWAP2 POP POP JUMP JUMPDEST PUSH1 0x0 PUSH2 0x2035 DUP3 PUSH2 0x20B0 JUMP JUMPDEST SWAP1 POP SWAP2 SWAP1 POP JUMP JUMPDEST PUSH1 0x0 PUSH2 0x2047 DUP3 PUSH2 0x202A JUMP JUMPDEST SWAP1 POP SWAP2 SWAP1 POP JUMP JUMPDEST PUSH1 0x0 PUSH2 0x2059 DUP3 PUSH2 0x202A JUMP JUMPDEST SWAP1 POP SWAP2 SWAP1 POP JUMP JUMPDEST PUSH1 0x0 PUSH2 0x206B DUP3 PUSH2 0x202A JUMP JUMPDEST SWAP1 POP SWAP2 SWAP1 POP JUMP JUMPDEST PUSH1 0x0 PUSH2 0x207D DUP3 PUSH2 0x202A JUMP JUMPDEST SWAP1 POP SWAP2 SWAP1 POP JUMP JUMPDEST PUSH1 0x0 PUSH2 0x208F DUP3 PUSH2 0x202A JUMP JUMPDEST SWAP1 POP SWAP2 SWAP1 POP JUMP JUMPDEST PUSH1 0x0 PUSH14 0xFFFFFFFFFFFFFFFFFFFFFFFFFFFF DUP3 AND SWAP1 POP SWAP2 SWAP1 POP JUMP JUMPDEST PUSH1 0x0 PUSH20 0xFFFFFFFFFFFFFFFFFFFFFFFFFFFFFFFFFFFFFFFF DUP3 AND SWAP1 POP SWAP2 SWAP1 POP JUMP JUMPDEST PUSH1 0x0 DUP2 SWAP1 POP SWAP2 SWAP1 POP JUMP JUMPDEST PUSH1 0x0 PUSH4 0xFFFFFFFF DUP3 AND SWAP1 POP SWAP2 SWAP1 POP JUMP JUMPDEST PUSH1 0x0 PUSH2 0x20F5 DUP3 PUSH2 0x2144 JUMP JUMPDEST SWAP1 POP SWAP2 SWAP1 POP JUMP JUMPDEST PUSH1 0x0 PUSH2 0x2107 DUP3 PUSH2 0x2144 JUMP JUMPDEST SWAP1 POP SWAP2 SWAP1 POP JUMP JUMPDEST PUSH1 0x0 PUSH2 0x2119 DUP3 PUSH2 0x2144 JUMP JUMPDEST SWAP1 POP SWAP2 SWAP1 POP JUMP JUMPDEST PUSH1 0x0 PUSH2 0x212B DUP3 PUSH2 0x2144 JUMP JUMPDEST SWAP1 POP SWAP2 SWAP1 POP JUMP JUMPDEST PUSH1 0x0 PUSH2 0x213D DUP3 PUSH2 0x2144 JUMP JUMPDEST SWAP1 POP SWAP2 SWAP1 POP JUMP JUMPDEST PUSH1 0x0 PUSH2 0x214F DUP3 PUSH2 0x2156 JUMP JUMPDEST SWAP1 POP SWAP2 SWAP1 POP JUMP JUMPDEST PUSH1 0x0 PUSH2 0x2161 DUP3 PUSH2 0x20B0 JUMP JUMPDEST SWAP1 POP SWAP2 SWAP1 POP JUMP JUMPDEST PUSH2 0x2171 DUP3 PUSH2 0x22E6 JUMP JUMPDEST DUP2 ADD DUP2 DUP2 LT PUSH8 0xFFFFFFFFFFFFFFFF DUP3 GT OR ISZERO PUSH2 0x2190 JUMPI PUSH2 0x218F PUSH2 0x229E JUMP JUMPDEST JUMPDEST DUP1 PUSH1 0x40 MSTORE POP POP POP JUMP JUMPDEST PUSH1 0x0 PUSH2 0x21A4 DUP3 PUSH2 0x20D0 JUMP JUMPDEST SWAP2 POP PUSH32 0xFFFFFFFFFFFFFFFFFFFFFFFFFFFFFFFFFFFFFFFFFFFFFFFFFFFFFFFFFFFFFFFF DUP3 EQ ISZERO PUSH2 0x21D7 JUMPI PUSH2 0x21D6 PUSH2 0x21E2 JUMP JUMPDEST JUMPDEST PUSH1 0x1 DUP3 ADD SWAP1 POP SWAP2 SWAP1 POP JUMP JUMPDEST PUSH32 0x4E487B7100000000000000000000000000000000000000000000000000000000 PUSH1 0x0 MSTORE PUSH1 0x11 PUSH1 0x4 MSTORE PUSH1 0x24 PUSH1 0x0 REVERT JUMPDEST PUSH32 0x4E487B7100000000000000000000000000000000000000000000000000000000 PUSH1 0x0 MSTORE PUSH1 0x12 PUSH1 0x4 MSTORE PUSH1 0x24 PUSH1 0x0 REVERT JUMPDEST PUSH32 0x4E487B7100000000000000000000000000000000000000000000000000000000 PUSH1 0x0 MSTORE PUSH1 0x31 PUSH1 0x4 MSTORE PUSH1 0x24 PUSH1 0x0 REVERT JUMPDEST PUSH32 0x4E487B7100000000000000000000000000000000000000000000000000000000 PUSH1 0x0 MSTORE PUSH1 0x32 PUSH1 0x4 MSTORE PUSH1 0x24 PUSH1 0x0 REVERT JUMPDEST PUSH32 0x4E487B7100000000000000000000000000000000000000000000000000000000 PUSH1 0x0 MSTORE PUSH1 0x41 PUSH1 0x4 MSTORE PUSH1 0x24 PUSH1 0x0 REVERT JUMPDEST PUSH1 0x0 DUP1 REVERT JUMPDEST PUSH1 0x0 DUP1 REVERT JUMPDEST PUSH1 0x0 DUP1 REVERT JUMPDEST PUSH1 0x0 DUP1 REVERT JUMPDEST PUSH1 0x0 DUP1 REVERT JUMPDEST PUSH1 0x0 PUSH1 0x1F NOT PUSH1 0x1F DUP4 ADD AND SWAP1 POP SWAP2 SWAP1 POP JUMP JUMPDEST PUSH32 0x4F776E61626C653A206E6577206F776E657220697320746865207A65726F2061 PUSH1 0x0 DUP3 ADD MSTORE PUSH32 0x6464726573730000000000000000000000000000000000000000000000000000 PUSH1 0x20 DUP3 ADD MSTORE POP JUMP JUMPDEST PUSH32 0x4F776E61626C653A2063616C6C6572206973206E6F7420746865206F776E6572 PUSH1 0x0 DUP3 ADD MSTORE POP JUMP JUMPDEST PUSH2 0x2378 DUP2 PUSH2 0x202A JUMP JUMPDEST DUP2 EQ PUSH2 0x2383 JUMPI PUSH1 0x0 DUP1 REVERT JUMPDEST POP JUMP JUMPDEST PUSH2 0x238F DUP2 PUSH2 0x203C JUMP JUMPDEST DUP2 EQ PUSH2 0x239A JUMPI PUSH1 0x0 DUP1 REVERT JUMPDEST POP JUMP JUMPDEST PUSH2 0x23A6 DUP2 PUSH2 0x204E JUMP JUMPDEST DUP2 EQ PUSH2 0x23B1 JUMPI PUSH1 0x0 DUP1 REVERT JUMPDEST POP JUMP JUMPDEST PUSH2 0x23BD DUP2 PUSH2 0x2060 JUMP JUMPDEST DUP2 EQ PUSH2 0x23C8 JUMPI PUSH1 0x0 DUP1 REVERT JUMPDEST POP JUMP JUMPDEST PUSH2 0x23D4 DUP2 PUSH2 0x2072 JUMP JUMPDEST DUP2 EQ PUSH2 0x23DF JUMPI PUSH1 0x0 DUP1 REVERT JUMPDEST POP JUMP JUMPDEST PUSH2 0x23EB DUP2 PUSH2 0x2084 JUMP JUMPDEST DUP2 EQ PUSH2 0x23F6 JUMPI PUSH1 0x0 DUP1 REVERT JUMPDEST POP JUMP JUMPDEST PUSH2 0x2402 DUP2 PUSH2 0x2096 JUMP JUMPDEST DUP2 EQ PUSH2 0x240D JUMPI PUSH1 0x0 DUP1 REVERT JUMPDEST POP JUMP JUMPDEST PUSH2 0x2419 DUP2 PUSH2 0x20D0 JUMP JUMPDEST DUP2 EQ PUSH2 0x2424 JUMPI PUSH1 0x0 DUP1 REVERT JUMPDEST POP JUMP JUMPDEST PUSH2 0x2430 DUP2 PUSH2 0x20DA JUMP JUMPDEST DUP2 EQ PUSH2 0x243B JUMPI PUSH1 0x0 DUP1 REVERT JUMPDEST POP JUMP INVALID LOG2 PUSH5 0x6970667358 0x22 SLT KECCAK256 PUSH14 0x5BF68CA2FC6549B98754EAEC4665 SDIV PUSH4 0x8AB0DA2F 0xB7 COINBASE RETURN EXTCODESIZE PUSH1 0xAF 0x1E DUP9 MOD 0xD6 0xE5 PUSH5 0x736F6C6343 STOP ADDMOD SMOD STOP CALLER "
				},
				"gasEstimates": {
					"creation": {
						"codeDepositCost": "1866400",
						"executionCost": "infinite",
						"totalCost": "infinite"
					},
					"external": {
						"diamond()": "2644",
						"getNFTBalance(address)": "infinite",
						"getPancakePairBalance(address)": "infinite",
						"getQubeBalance(address)": "infinite",
						"getQubePresaleBalance(address)": "infinite",
						"getQubeStakeFactoryBalance(address)": "infinite",
						"gold()": "2710",
						"owner()": "2655",
						"pancakePair()": "2667",
						"qube()": "2623",
						"qubeBalance(address)": "infinite",
						"qubeBalanceWithNFT(address)": "infinite",
						"qubePresale()": "2646",
						"qubeStakeFactory()": "2689",
						"removeNFT(address,uint256)": "infinite",
						"renounceOwnership()": "30419",
						"setDiamond(address)": "27072",
						"setGold(address)": "27073",
						"setQube(address)": "27095",
						"setQubePancakePair(address)": "27116",
						"setQubePresale(address)": "27139",
						"setQubeStake(address)": "27073",
						"setSilver(address)": "27093",
						"silver()": "2646",
						"transferOwnership(address)": "30789",
						"userNFT(address)": "infinite"
					}
				},
				"methodIdentifiers": {
					"diamond()": "f0b7db4e",
					"getNFTBalance(address)": "bf8ebd85",
					"getPancakePairBalance(address)": "42632ee0",
					"getQubeBalance(address)": "3445d381",
					"getQubePresaleBalance(address)": "1fb5d3c2",
					"getQubeStakeFactoryBalance(address)": "2540d8a7",
					"gold()": "fbec6f21",
					"owner()": "8da5cb5b",
					"pancakePair()": "b8c9d25c",
					"qube()": "6de5368b",
					"qubeBalance(address)": "0b75aa36",
					"qubeBalanceWithNFT(address)": "a7288c2e",
					"qubePresale()": "10a5806a",
					"qubeStakeFactory()": "84119666",
					"removeNFT(address,uint256)": "49fd566b",
					"renounceOwnership()": "715018a6",
					"setDiamond(address)": "76ed535a",
					"setGold(address)": "0520b708",
					"setQube(address)": "0651823e",
					"setQubePancakePair(address)": "8bb8c68f",
					"setQubePresale(address)": "0ed7b861",
					"setQubeStake(address)": "17d8b80c",
					"setSilver(address)": "f479ef22",
					"silver()": "0314214c",
					"transferOwnership(address)": "f2fde38b",
					"userNFT(address)": "00c2378f"
				}
			},
			"storageLayout": {
				"storage": [
					{
						"astId": 243,
						"contract": "Launchpad v2.0/QubeBalance.sol:QubeBalance",
						"label": "_owner",
						"offset": 0,
						"slot": "0",
						"type": "t_address"
					},
					{
						"astId": 909,
						"contract": "Launchpad v2.0/QubeBalance.sol:QubeBalance",
						"label": "qube",
						"offset": 0,
						"slot": "1",
						"type": "t_contract(IBEP20)105"
					},
					{
						"astId": 912,
						"contract": "Launchpad v2.0/QubeBalance.sol:QubeBalance",
						"label": "qubePresale",
						"offset": 0,
						"slot": "2",
						"type": "t_contract(QubePresale)1339"
					},
					{
						"astId": 915,
						"contract": "Launchpad v2.0/QubeBalance.sol:QubeBalance",
						"label": "pancakePair",
						"offset": 0,
						"slot": "3",
						"type": "t_contract(IPancakePair)581"
					},
					{
						"astId": 918,
						"contract": "Launchpad v2.0/QubeBalance.sol:QubeBalance",
						"label": "qubeStakeFactory",
						"offset": 0,
						"slot": "4",
						"type": "t_contract(QubeStakeFactory)1372"
					},
					{
						"astId": 921,
						"contract": "Launchpad v2.0/QubeBalance.sol:QubeBalance",
						"label": "silver",
						"offset": 0,
						"slot": "5",
						"type": "t_contract(IERC1155)234"
					},
					{
						"astId": 924,
						"contract": "Launchpad v2.0/QubeBalance.sol:QubeBalance",
						"label": "gold",
						"offset": 0,
						"slot": "6",
						"type": "t_contract(IERC1155)234"
					},
					{
						"astId": 927,
						"contract": "Launchpad v2.0/QubeBalance.sol:QubeBalance",
						"label": "diamond",
						"offset": 0,
						"slot": "7",
						"type": "t_contract(IERC1155)234"
					},
					{
						"astId": 932,
						"contract": "Launchpad v2.0/QubeBalance.sol:QubeBalance",
						"label": "userNFT",
						"offset": 0,
						"slot": "8",
						"type": "t_mapping(t_address,t_struct(userNFTData)903_storage)"
					}
				],
				"types": {
					"t_address": {
						"encoding": "inplace",
						"label": "address",
						"numberOfBytes": "20"
					},
					"t_array(t_uint256)dyn_storage": {
						"base": "t_uint256",
						"encoding": "dynamic_array",
						"label": "uint256[]",
						"numberOfBytes": "32"
					},
					"t_contract(IBEP20)105": {
						"encoding": "inplace",
						"label": "contract IBEP20",
						"numberOfBytes": "20"
					},
					"t_contract(IERC1155)234": {
						"encoding": "inplace",
						"label": "contract IERC1155",
						"numberOfBytes": "20"
					},
					"t_contract(IPancakePair)581": {
						"encoding": "inplace",
						"label": "contract IPancakePair",
						"numberOfBytes": "20"
					},
					"t_contract(QubePresale)1339": {
						"encoding": "inplace",
						"label": "contract QubePresale",
						"numberOfBytes": "20"
					},
					"t_contract(QubeStakeFactory)1372": {
						"encoding": "inplace",
						"label": "contract QubeStakeFactory",
						"numberOfBytes": "20"
					},
					"t_mapping(t_address,t_struct(userNFTData)903_storage)": {
						"encoding": "mapping",
						"key": "t_address",
						"label": "mapping(address => struct QubeBalance.userNFTData)",
						"numberOfBytes": "32",
						"value": "t_struct(userNFTData)903_storage"
					},
					"t_struct(userNFTData)903_storage": {
						"encoding": "inplace",
						"label": "struct QubeBalance.userNFTData",
						"members": [
							{
								"astId": 897,
								"contract": "Launchpad v2.0/QubeBalance.sol:QubeBalance",
								"label": "length",
								"offset": 0,
								"slot": "0",
								"type": "t_uint256"
							},
							{
								"astId": 900,
								"contract": "Launchpad v2.0/QubeBalance.sol:QubeBalance",
								"label": "IDs",
								"offset": 0,
								"slot": "1",
								"type": "t_array(t_uint256)dyn_storage"
							},
							{
								"astId": 902,
								"contract": "Launchpad v2.0/QubeBalance.sol:QubeBalance",
								"label": "rank",
								"offset": 0,
								"slot": "2",
								"type": "t_uint256"
							}
						],
						"numberOfBytes": "96"
					},
					"t_uint256": {
						"encoding": "inplace",
						"label": "uint256",
						"numberOfBytes": "32"
					}
				}
			},
			"userdoc": {
				"kind": "user",
				"methods": {},
				"version": 1
			}
		}
	}
}