{
	"Launchpad v2.0/QubeBalance.sol": {
		"QubeBalance": {
			"abi": [
				{
					"inputs": [],
					"stateMutability": "nonpayable",
					"type": "constructor"
				},
				{
					"anonymous": false,
					"inputs": [
						{
							"indexed": true,
							"internalType": "address",
							"name": "previousOwner",
							"type": "address"
						},
						{
							"indexed": true,
							"internalType": "address",
							"name": "newOwner",
							"type": "address"
						}
					],
					"name": "OwnershipTransferred",
					"type": "event"
				},
				{
					"inputs": [
						{
							"internalType": "address",
							"name": "_user",
							"type": "address"
						},
						{
							"internalType": "uint256",
							"name": "_ID",
							"type": "uint256"
						}
					],
					"name": "addNFT",
					"outputs": [],
					"stateMutability": "nonpayable",
					"type": "function"
				},
				{
					"inputs": [
						{
							"internalType": "address",
							"name": "_user",
							"type": "address"
						},
						{
							"internalType": "uint256",
							"name": "_rank",
							"type": "uint256"
						}
					],
					"name": "changeNFTRank",
					"outputs": [],
					"stateMutability": "nonpayable",
					"type": "function"
				},
				{
					"inputs": [],
					"name": "diamond",
					"outputs": [
						{
							"internalType": "contract IERC1155",
							"name": "",
							"type": "address"
						}
					],
					"stateMutability": "view",
					"type": "function"
				},
				{
					"inputs": [
						{
							"internalType": "address",
							"name": "walletAddress",
							"type": "address"
						}
					],
					"name": "getNFTBalance",
					"outputs": [
						{
							"internalType": "uint256",
							"name": "",
							"type": "uint256"
						}
					],
					"stateMutability": "view",
					"type": "function"
				},
				{
					"inputs": [
						{
							"internalType": "address",
							"name": "walletAddress",
							"type": "address"
						}
					],
					"name": "getPancakePairBalance",
					"outputs": [
						{
							"internalType": "uint256",
							"name": "",
							"type": "uint256"
						}
					],
					"stateMutability": "view",
					"type": "function"
				},
				{
					"inputs": [
						{
							"internalType": "address",
							"name": "walletAddress",
							"type": "address"
						}
					],
					"name": "getQubeBalance",
					"outputs": [
						{
							"internalType": "uint256",
							"name": "",
							"type": "uint256"
						}
					],
					"stateMutability": "view",
					"type": "function"
				},
				{
					"inputs": [
						{
							"internalType": "address",
							"name": "walletAddress",
							"type": "address"
						}
					],
					"name": "getQubePresaleBalance",
					"outputs": [
						{
							"internalType": "uint256",
							"name": "",
							"type": "uint256"
						}
					],
					"stateMutability": "view",
					"type": "function"
				},
				{
					"inputs": [
						{
							"internalType": "address",
							"name": "walletAddress",
							"type": "address"
						}
					],
					"name": "getQubeStakeFactoryBalance",
					"outputs": [
						{
							"internalType": "uint256",
							"name": "",
							"type": "uint256"
						}
					],
					"stateMutability": "view",
					"type": "function"
				},
				{
					"inputs": [],
					"name": "gold",
					"outputs": [
						{
							"internalType": "contract IERC1155",
							"name": "",
							"type": "address"
						}
					],
					"stateMutability": "view",
					"type": "function"
				},
				{
					"inputs": [],
					"name": "owner",
					"outputs": [
						{
							"internalType": "address",
							"name": "",
							"type": "address"
						}
					],
					"stateMutability": "view",
					"type": "function"
				},
				{
					"inputs": [],
					"name": "pancakePair",
					"outputs": [
						{
							"internalType": "contract IPancakePair",
							"name": "",
							"type": "address"
						}
					],
					"stateMutability": "view",
					"type": "function"
				},
				{
					"inputs": [],
					"name": "qube",
					"outputs": [
						{
							"internalType": "contract IBEP20",
							"name": "",
							"type": "address"
						}
					],
					"stateMutability": "view",
					"type": "function"
				},
				{
					"inputs": [
						{
							"internalType": "address",
							"name": "walletAddress",
							"type": "address"
						}
					],
					"name": "qubeBalance",
					"outputs": [
						{
							"internalType": "uint256",
							"name": "",
							"type": "uint256"
						}
					],
					"stateMutability": "view",
					"type": "function"
				},
				{
					"inputs": [
						{
							"internalType": "address",
							"name": "walletAddress",
							"type": "address"
						}
					],
					"name": "qubeBalanceWithNFT",
					"outputs": [
						{
							"internalType": "uint256",
							"name": "",
							"type": "uint256"
						}
					],
					"stateMutability": "view",
					"type": "function"
				},
				{
					"inputs": [],
					"name": "qubePresale",
					"outputs": [
						{
							"internalType": "contract QubePresale",
							"name": "",
							"type": "address"
						}
					],
					"stateMutability": "view",
					"type": "function"
				},
				{
					"inputs": [],
					"name": "qubeStakeFactory",
					"outputs": [
						{
							"internalType": "contract QubeStakeFactory",
							"name": "",
							"type": "address"
						}
					],
					"stateMutability": "view",
					"type": "function"
				},
				{
					"inputs": [
						{
							"internalType": "address",
							"name": "_user",
							"type": "address"
						},
						{
							"internalType": "uint256",
							"name": "_ID",
							"type": "uint256"
						}
					],
					"name": "removeNFT",
					"outputs": [],
					"stateMutability": "nonpayable",
					"type": "function"
				},
				{
					"inputs": [],
					"name": "renounceOwnership",
					"outputs": [],
					"stateMutability": "nonpayable",
					"type": "function"
				},
				{
					"inputs": [
						{
							"internalType": "contract IERC1155",
							"name": "_diamond",
							"type": "address"
						}
					],
					"name": "setDiamond",
					"outputs": [],
					"stateMutability": "nonpayable",
					"type": "function"
				},
				{
					"inputs": [
						{
							"internalType": "contract IERC1155",
							"name": "_gold",
							"type": "address"
						}
					],
					"name": "setGold",
					"outputs": [],
					"stateMutability": "nonpayable",
					"type": "function"
				},
				{
					"inputs": [
						{
							"internalType": "contract IBEP20",
							"name": "_qube",
							"type": "address"
						}
					],
					"name": "setQube",
					"outputs": [],
					"stateMutability": "nonpayable",
					"type": "function"
				},
				{
					"inputs": [
						{
							"internalType": "contract IPancakePair",
							"name": "_pancakePair",
							"type": "address"
						}
					],
					"name": "setQubePancakePair",
					"outputs": [],
					"stateMutability": "nonpayable",
					"type": "function"
				},
				{
					"inputs": [
						{
							"internalType": "contract QubePresale",
							"name": "_qubePresale",
							"type": "address"
						}
					],
					"name": "setQubePresale",
					"outputs": [],
					"stateMutability": "nonpayable",
					"type": "function"
				},
				{
					"inputs": [
						{
							"internalType": "contract QubeStakeFactory",
							"name": "_qubeStakeFactory",
							"type": "address"
						}
					],
					"name": "setQubeStake",
					"outputs": [],
					"stateMutability": "nonpayable",
					"type": "function"
				},
				{
					"inputs": [
						{
							"internalType": "contract IERC1155",
							"name": "_silver",
							"type": "address"
						}
					],
					"name": "setSilver",
					"outputs": [],
					"stateMutability": "nonpayable",
					"type": "function"
				},
				{
					"inputs": [],
					"name": "silver",
					"outputs": [
						{
							"internalType": "contract IERC1155",
							"name": "",
							"type": "address"
						}
					],
					"stateMutability": "view",
					"type": "function"
				},
				{
					"inputs": [
						{
							"internalType": "address",
							"name": "newOwner",
							"type": "address"
						}
					],
					"name": "transferOwnership",
					"outputs": [],
					"stateMutability": "nonpayable",
					"type": "function"
				},
				{
					"inputs": [
						{
							"internalType": "address",
							"name": "",
							"type": "address"
						}
					],
					"name": "userNFT",
					"outputs": [
						{
							"internalType": "uint256",
							"name": "rank",
							"type": "uint256"
						}
					],
					"stateMutability": "view",
					"type": "function"
				}
			],
			"devdoc": {
				"kind": "dev",
				"methods": {
					"owner()": {
						"details": "Returns the address of the current owner."
					},
					"renounceOwnership()": {
						"details": "Leaves the contract without owner. It will not be possible to call `onlyOwner` functions anymore. Can only be called by the current owner. NOTE: Renouncing ownership will leave the contract without an owner, thereby removing any functionality that is only available to the owner."
					},
					"transferOwnership(address)": {
						"details": "Transfers ownership of the contract to a new account (`newOwner`). Can only be called by the current owner."
					}
				},
				"version": 1
			},
			"evm": {
				"assembly": "    /* \"Launchpad v2.0/QubeBalance.sol\":512:4581  contract QubeBalance is Ownable{... */\n  mstore(0x40, 0x80)\n    /* \"Launchpad v2.0/QubeBalance.sol\":1128:1150  constructor() {... */\n  callvalue\n  dup1\n  iszero\n  tag_1\n  jumpi\n  0x00\n  dup1\n  revert\ntag_1:\n  pop\n    /* \"Launchpad v2.0/Ownable.sol\":874:897  _setOwner(_msgSender()) */\n  tag_5\n    /* \"Launchpad v2.0/Ownable.sol\":884:896  _msgSender() */\n  tag_6\n    /* \"Launchpad v2.0/Ownable.sol\":884:894  _msgSender */\n  shl(0x20, tag_7)\n    /* \"Launchpad v2.0/Ownable.sol\":884:896  _msgSender() */\n  0x20\n  shr\n  jump\t// in\ntag_6:\n    /* \"Launchpad v2.0/Ownable.sol\":874:883  _setOwner */\n  shl(0x20, tag_8)\n    /* \"Launchpad v2.0/Ownable.sol\":874:897  _setOwner(_msgSender()) */\n  0x20\n  shr\n  jump\t// in\ntag_5:\n    /* \"Launchpad v2.0/QubeBalance.sol\":512:4581  contract QubeBalance is Ownable{... */\n  jump(tag_10)\n    /* \"Launchpad v2.0/Context.sol\":600:696  function _msgSender() internal view virtual returns (address) {... */\ntag_7:\n    /* \"Launchpad v2.0/Context.sol\":653:660  address */\n  0x00\n    /* \"Launchpad v2.0/Context.sol\":679:689  msg.sender */\n  caller\n    /* \"Launchpad v2.0/Context.sol\":672:689  return msg.sender */\n  swap1\n  pop\n    /* \"Launchpad v2.0/Context.sol\":600:696  function _msgSender() internal view virtual returns (address) {... */\n  swap1\n  jump\t// out\n    /* \"Launchpad v2.0/Ownable.sol\":2048:2218  function _setOwner(address newOwner) internal {... */\ntag_8:\n    /* \"Launchpad v2.0/Ownable.sol\":2104:2120  address oldOwner */\n  0x00\n    /* \"Launchpad v2.0/Ownable.sol\":2123:2129  _owner */\n  dup1\n  0x00\n  swap1\n  sload\n  swap1\n  0x0100\n  exp\n  swap1\n  div\n  0xffffffffffffffffffffffffffffffffffffffff\n  and\n    /* \"Launchpad v2.0/Ownable.sol\":2104:2129  address oldOwner = _owner */\n  swap1\n  pop\n    /* \"Launchpad v2.0/Ownable.sol\":2148:2156  newOwner */\n  dup2\n    /* \"Launchpad v2.0/Ownable.sol\":2139:2145  _owner */\n  0x00\n  dup1\n    /* \"Launchpad v2.0/Ownable.sol\":2139:2156  _owner = newOwner */\n  0x0100\n  exp\n  dup2\n  sload\n  dup2\n  0xffffffffffffffffffffffffffffffffffffffff\n  mul\n  not\n  and\n  swap1\n  dup4\n  0xffffffffffffffffffffffffffffffffffffffff\n  and\n  mul\n  or\n  swap1\n  sstore\n  pop\n    /* \"Launchpad v2.0/Ownable.sol\":2202:2210  newOwner */\n  dup2\n    /* \"Launchpad v2.0/Ownable.sol\":2171:2211  OwnershipTransferred(oldOwner, newOwner) */\n  0xffffffffffffffffffffffffffffffffffffffff\n  and\n    /* \"Launchpad v2.0/Ownable.sol\":2192:2200  oldOwner */\n  dup2\n    /* \"Launchpad v2.0/Ownable.sol\":2171:2211  OwnershipTransferred(oldOwner, newOwner) */\n  0xffffffffffffffffffffffffffffffffffffffff\n  and\n  0x8be0079c531659141344cd1fd0a4f28419497f9722a3daafe3b4186f6b6457e0\n  mload(0x40)\n  mload(0x40)\n  dup1\n  swap2\n  sub\n  swap1\n  log3\n    /* \"Launchpad v2.0/Ownable.sol\":2094:2218  {... */\n  pop\n    /* \"Launchpad v2.0/Ownable.sol\":2048:2218  function _setOwner(address newOwner) internal {... */\n  pop\n  jump\t// out\n    /* \"Launchpad v2.0/QubeBalance.sol\":512:4581  contract QubeBalance is Ownable{... */\ntag_10:\n  dataSize(sub_0)\n  dup1\n  dataOffset(sub_0)\n  0x00\n  codecopy\n  0x00\n  return\nstop\n\nsub_0: assembly {\n        /* \"Launchpad v2.0/QubeBalance.sol\":512:4581  contract QubeBalance is Ownable{... */\n      mstore(0x40, 0x80)\n      callvalue\n      dup1\n      iszero\n      tag_1\n      jumpi\n      0x00\n      dup1\n      revert\n    tag_1:\n      pop\n      jumpi(tag_2, lt(calldatasize, 0x04))\n      shr(0xe0, calldataload(0x00))\n      dup1\n      0x4ea2813c\n      gt\n      tag_31\n      jumpi\n      dup1\n      0xa7288c2e\n      gt\n      tag_32\n      jumpi\n      dup1\n      0xf0b7db4e\n      gt\n      tag_33\n      jumpi\n      dup1\n      0xf0b7db4e\n      eq\n      tag_27\n      jumpi\n      dup1\n      0xf2fde38b\n      eq\n      tag_28\n      jumpi\n      dup1\n      0xf479ef22\n      eq\n      tag_29\n      jumpi\n      dup1\n      0xfbec6f21\n      eq\n      tag_30\n      jumpi\n      jump(tag_2)\n    tag_33:\n      dup1\n      0xa7288c2e\n      eq\n      tag_24\n      jumpi\n      dup1\n      0xb8c9d25c\n      eq\n      tag_25\n      jumpi\n      dup1\n      0xbf8ebd85\n      eq\n      tag_26\n      jumpi\n      jump(tag_2)\n    tag_32:\n      dup1\n      0x76ed535a\n      gt\n      tag_34\n      jumpi\n      dup1\n      0x76ed535a\n      eq\n      tag_20\n      jumpi\n      dup1\n      0x84119666\n      eq\n      tag_21\n      jumpi\n      dup1\n      0x8bb8c68f\n      eq\n      tag_22\n      jumpi\n      dup1\n      0x8da5cb5b\n      eq\n      tag_23\n      jumpi\n      jump(tag_2)\n    tag_34:\n      dup1\n      0x4ea2813c\n      eq\n      tag_17\n      jumpi\n      dup1\n      0x6de5368b\n      eq\n      tag_18\n      jumpi\n      dup1\n      0x715018a6\n      eq\n      tag_19\n      jumpi\n      jump(tag_2)\n    tag_31:\n      dup1\n      0x10a5806a\n      gt\n      tag_35\n      jumpi\n      dup1\n      0x2540d8a7\n      gt\n      tag_36\n      jumpi\n      dup1\n      0x2540d8a7\n      eq\n      tag_13\n      jumpi\n      dup1\n      0x3445d381\n      eq\n      tag_14\n      jumpi\n      dup1\n      0x42632ee0\n      eq\n      tag_15\n      jumpi\n      dup1\n      0x49fd566b\n      eq\n      tag_16\n      jumpi\n      jump(tag_2)\n    tag_36:\n      dup1\n      0x10a5806a\n      eq\n      tag_10\n      jumpi\n      dup1\n      0x17d8b80c\n      eq\n      tag_11\n      jumpi\n      dup1\n      0x1fb5d3c2\n      eq\n      tag_12\n      jumpi\n      jump(tag_2)\n    tag_35:\n      dup1\n      0x0651823e\n      gt\n      tag_37\n      jumpi\n      dup1\n      0x0651823e\n      eq\n      tag_6\n      jumpi\n      dup1\n      0x0b75aa36\n      eq\n      tag_7\n      jumpi\n      dup1\n      0x0ed7b861\n      eq\n      tag_8\n      jumpi\n      dup1\n      0x0f79ede9\n      eq\n      tag_9\n      jumpi\n      jump(tag_2)\n    tag_37:\n      dup1\n      0xc2378f\n      eq\n      tag_3\n      jumpi\n      dup1\n      0x0314214c\n      eq\n      tag_4\n      jumpi\n      dup1\n      0x0520b708\n      eq\n      tag_5\n      jumpi\n    tag_2:\n      0x00\n      dup1\n      revert\n        /* \"Launchpad v2.0/QubeBalance.sol\":1074:1119  mapping (address=>userNFTData) public userNFT */\n    tag_3:\n      tag_38\n      0x04\n      dup1\n      calldatasize\n      sub\n      dup2\n      add\n      swap1\n      tag_39\n      swap2\n      swap1\n      tag_40\n      jump\t// in\n    tag_39:\n      tag_41\n      jump\t// in\n    tag_38:\n      mload(0x40)\n      tag_42\n      swap2\n      swap1\n      tag_43\n      jump\t// in\n    tag_42:\n      mload(0x40)\n      dup1\n      swap2\n      sub\n      swap1\n      return\n        /* \"Launchpad v2.0/QubeBalance.sol\":991:1013  IERC1155 public silver */\n    tag_4:\n      tag_44\n      tag_45\n      jump\t// in\n    tag_44:\n      mload(0x40)\n      tag_46\n      swap2\n      swap1\n      tag_47\n      jump\t// in\n    tag_46:\n      mload(0x40)\n      dup1\n      swap2\n      sub\n      swap1\n      return\n        /* \"Launchpad v2.0/QubeBalance.sol\":2340:2416  function setGold(IERC1155 _gold) public onlyOwner{... */\n    tag_5:\n      tag_48\n      0x04\n      dup1\n      calldatasize\n      sub\n      dup2\n      add\n      swap1\n      tag_49\n      swap2\n      swap1\n      tag_50\n      jump\t// in\n    tag_49:\n      tag_51\n      jump\t// in\n    tag_48:\n      stop\n        /* \"Launchpad v2.0/QubeBalance.sol\":1813:1887  function setQube(IBEP20 _qube) public onlyOwner{... */\n    tag_6:\n      tag_52\n      0x04\n      dup1\n      calldatasize\n      sub\n      dup2\n      add\n      swap1\n      tag_53\n      swap2\n      swap1\n      tag_54\n      jump\t// in\n    tag_53:\n      tag_55\n      jump\t// in\n    tag_52:\n      stop\n        /* \"Launchpad v2.0/QubeBalance.sol\":4050:4294  function qubeBalance(address walletAddress) public view returns (uint256){... */\n    tag_7:\n      tag_56\n      0x04\n      dup1\n      calldatasize\n      sub\n      dup2\n      add\n      swap1\n      tag_57\n      swap2\n      swap1\n      tag_40\n      jump\t// in\n    tag_57:\n      tag_58\n      jump\t// in\n    tag_56:\n      mload(0x40)\n      tag_59\n      swap2\n      swap1\n      tag_43\n      jump\t// in\n    tag_59:\n      mload(0x40)\n      dup1\n      swap2\n      sub\n      swap1\n      return\n        /* \"Launchpad v2.0/QubeBalance.sol\":1892:1999  function setQubePresale(QubePresale _qubePresale) public onlyOwner{... */\n    tag_8:\n      tag_60\n      0x04\n      dup1\n      calldatasize\n      sub\n      dup2\n      add\n      swap1\n      tag_61\n      swap2\n      swap1\n      tag_62\n      jump\t// in\n    tag_61:\n      tag_63\n      jump\t// in\n    tag_60:\n      stop\n        /* \"Launchpad v2.0/QubeBalance.sol\":1648:1808  function changeNFTRank(address _user, uint256 _rank) public{... */\n    tag_9:\n      tag_64\n      0x04\n      dup1\n      calldatasize\n      sub\n      dup2\n      add\n      swap1\n      tag_65\n      swap2\n      swap1\n      tag_66\n      jump\t// in\n    tag_65:\n      tag_67\n      jump\t// in\n    tag_64:\n      stop\n        /* \"Launchpad v2.0/QubeBalance.sol\":872:902  QubePresale public qubePresale */\n    tag_10:\n      tag_68\n      tag_69\n      jump\t// in\n    tag_68:\n      mload(0x40)\n      tag_70\n      swap2\n      swap1\n      tag_71\n      jump\t// in\n    tag_70:\n      mload(0x40)\n      dup1\n      swap2\n      sub\n      swap1\n      return\n        /* \"Launchpad v2.0/QubeBalance.sol\":2121:2246  function setQubeStake(QubeStakeFactory _qubeStakeFactory) public onlyOwner{... */\n    tag_11:\n      tag_72\n      0x04\n      dup1\n      calldatasize\n      sub\n      dup2\n      add\n      swap1\n      tag_73\n      swap2\n      swap1\n      tag_74\n      jump\t// in\n    tag_73:\n      tag_75\n      jump\t// in\n    tag_72:\n      stop\n        /* \"Launchpad v2.0/QubeBalance.sol\":2648:2794  function getQubePresaleBalance(address walletAddress)public view returns (uint256){... */\n    tag_12:\n      tag_76\n      0x04\n      dup1\n      calldatasize\n      sub\n      dup2\n      add\n      swap1\n      tag_77\n      swap2\n      swap1\n      tag_40\n      jump\t// in\n    tag_77:\n      tag_78\n      jump\t// in\n    tag_76:\n      mload(0x40)\n      tag_79\n      swap2\n      swap1\n      tag_43\n      jump\t// in\n    tag_79:\n      mload(0x40)\n      dup1\n      swap2\n      sub\n      swap1\n      return\n        /* \"Launchpad v2.0/QubeBalance.sol\":3250:3597  function getQubeStakeFactoryBalance(address walletAddress)public view returns(uint256){... */\n    tag_13:\n      tag_80\n      0x04\n      dup1\n      calldatasize\n      sub\n      dup2\n      add\n      swap1\n      tag_81\n      swap2\n      swap1\n      tag_40\n      jump\t// in\n    tag_81:\n      tag_82\n      jump\t// in\n    tag_80:\n      mload(0x40)\n      tag_83\n      swap2\n      swap1\n      tag_43\n      jump\t// in\n    tag_83:\n      mload(0x40)\n      dup1\n      swap2\n      sub\n      swap1\n      return\n        /* \"Launchpad v2.0/QubeBalance.sol\":2515:2643  function getQubeBalance(address walletAddress)public view returns (uint256){... */\n    tag_14:\n      tag_84\n      0x04\n      dup1\n      calldatasize\n      sub\n      dup2\n      add\n      swap1\n      tag_85\n      swap2\n      swap1\n      tag_40\n      jump\t// in\n    tag_85:\n      tag_86\n      jump\t// in\n    tag_84:\n      mload(0x40)\n      tag_87\n      swap2\n      swap1\n      tag_43\n      jump\t// in\n    tag_87:\n      mload(0x40)\n      dup1\n      swap2\n      sub\n      swap1\n      return\n        /* \"Launchpad v2.0/QubeBalance.sol\":2799:3245  function getPancakePairBalance(address walletAddress)public view returns (uint256){... */\n    tag_15:\n      tag_88\n      0x04\n      dup1\n      calldatasize\n      sub\n      dup2\n      add\n      swap1\n      tag_89\n      swap2\n      swap1\n      tag_40\n      jump\t// in\n    tag_89:\n      tag_90\n      jump\t// in\n    tag_88:\n      mload(0x40)\n      tag_91\n      swap2\n      swap1\n      tag_43\n      jump\t// in\n    tag_91:\n      mload(0x40)\n      dup1\n      swap2\n      sub\n      swap1\n      return\n        /* \"Launchpad v2.0/QubeBalance.sol\":1160:1484  function removeNFT(address _user, uint256 _ID) public{... */\n    tag_16:\n      tag_92\n      0x04\n      dup1\n      calldatasize\n      sub\n      dup2\n      add\n      swap1\n      tag_93\n      swap2\n      swap1\n      tag_66\n      jump\t// in\n    tag_93:\n      tag_94\n      jump\t// in\n    tag_92:\n      stop\n        /* \"Launchpad v2.0/QubeBalance.sol\":1489:1643  function addNFT(address _user, uint256 _ID) public{... */\n    tag_17:\n      tag_95\n      0x04\n      dup1\n      calldatasize\n      sub\n      dup2\n      add\n      swap1\n      tag_96\n      swap2\n      swap1\n      tag_66\n      jump\t// in\n    tag_96:\n      tag_97\n      jump\t// in\n    tag_95:\n      stop\n        /* \"Launchpad v2.0/QubeBalance.sol\":848:866  IBEP20 public qube */\n    tag_18:\n      tag_98\n      tag_99\n      jump\t// in\n    tag_98:\n      mload(0x40)\n      tag_100\n      swap2\n      swap1\n      tag_101\n      jump\t// in\n    tag_100:\n      mload(0x40)\n      dup1\n      swap2\n      sub\n      swap1\n      return\n        /* \"Launchpad v2.0/Ownable.sol\":1612:1704  function renounceOwnership() public virtual onlyOwner {... */\n    tag_19:\n      tag_102\n      tag_103\n      jump\t// in\n    tag_102:\n      stop\n        /* \"Launchpad v2.0/QubeBalance.sol\":2421:2509  function setDiamond(IERC1155 _diamond) public onlyOwner{... */\n    tag_20:\n      tag_104\n      0x04\n      dup1\n      calldatasize\n      sub\n      dup2\n      add\n      swap1\n      tag_105\n      swap2\n      swap1\n      tag_50\n      jump\t// in\n    tag_105:\n      tag_106\n      jump\t// in\n    tag_104:\n      stop\n        /* \"Launchpad v2.0/QubeBalance.sol\":945:985  QubeStakeFactory public qubeStakeFactory */\n    tag_21:\n      tag_107\n      tag_108\n      jump\t// in\n    tag_107:\n      mload(0x40)\n      tag_109\n      swap2\n      swap1\n      tag_110\n      jump\t// in\n    tag_109:\n      mload(0x40)\n      dup1\n      swap2\n      sub\n      swap1\n      return\n        /* \"Launchpad v2.0/QubeBalance.sol\":2004:2116  function setQubePancakePair(IPancakePair _pancakePair) public onlyOwner{... */\n    tag_22:\n      tag_111\n      0x04\n      dup1\n      calldatasize\n      sub\n      dup2\n      add\n      swap1\n      tag_112\n      swap2\n      swap1\n      tag_113\n      jump\t// in\n    tag_112:\n      tag_114\n      jump\t// in\n    tag_111:\n      stop\n        /* \"Launchpad v2.0/Ownable.sol\":980:1065  function owner() public view virtual returns (address) {... */\n    tag_23:\n      tag_115\n      tag_116\n      jump\t// in\n    tag_115:\n      mload(0x40)\n      tag_117\n      swap2\n      swap1\n      tag_118\n      jump\t// in\n    tag_117:\n      mload(0x40)\n      dup1\n      swap2\n      sub\n      swap1\n      return\n        /* \"Launchpad v2.0/QubeBalance.sol\":4299:4579  function qubeBalanceWithNFT(address walletAddress) public view returns (uint256){... */\n    tag_24:\n      tag_119\n      0x04\n      dup1\n      calldatasize\n      sub\n      dup2\n      add\n      swap1\n      tag_120\n      swap2\n      swap1\n      tag_40\n      jump\t// in\n    tag_120:\n      tag_121\n      jump\t// in\n    tag_119:\n      mload(0x40)\n      tag_122\n      swap2\n      swap1\n      tag_43\n      jump\t// in\n    tag_122:\n      mload(0x40)\n      dup1\n      swap2\n      sub\n      swap1\n      return\n        /* \"Launchpad v2.0/QubeBalance.sol\":908:939  IPancakePair public pancakePair */\n    tag_25:\n      tag_123\n      tag_124\n      jump\t// in\n    tag_123:\n      mload(0x40)\n      tag_125\n      swap2\n      swap1\n      tag_126\n      jump\t// in\n    tag_125:\n      mload(0x40)\n      dup1\n      swap2\n      sub\n      swap1\n      return\n        /* \"Launchpad v2.0/QubeBalance.sol\":3602:4040  function getNFTBalance(address walletAddress)public view returns (uint256){... */\n    tag_26:\n      tag_127\n      0x04\n      dup1\n      calldatasize\n      sub\n      dup2\n      add\n      swap1\n      tag_128\n      swap2\n      swap1\n      tag_40\n      jump\t// in\n    tag_128:\n      tag_129\n      jump\t// in\n    tag_127:\n      mload(0x40)\n      tag_130\n      swap2\n      swap1\n      tag_43\n      jump\t// in\n    tag_130:\n      mload(0x40)\n      dup1\n      swap2\n      sub\n      swap1\n      return\n        /* \"Launchpad v2.0/QubeBalance.sol\":1045:1068  IERC1155 public diamond */\n    tag_27:\n      tag_131\n      tag_132\n      jump\t// in\n    tag_131:\n      mload(0x40)\n      tag_133\n      swap2\n      swap1\n      tag_47\n      jump\t// in\n    tag_133:\n      mload(0x40)\n      dup1\n      swap2\n      sub\n      swap1\n      return\n        /* \"Launchpad v2.0/Ownable.sol\":1853:2042  function transferOwnership(address newOwner) public virtual onlyOwner {... */\n    tag_28:\n      tag_134\n      0x04\n      dup1\n      calldatasize\n      sub\n      dup2\n      add\n      swap1\n      tag_135\n      swap2\n      swap1\n      tag_40\n      jump\t// in\n    tag_135:\n      tag_136\n      jump\t// in\n    tag_134:\n      stop\n        /* \"Launchpad v2.0/QubeBalance.sol\":2251:2335  function setSilver(IERC1155 _silver) public onlyOwner{... */\n    tag_29:\n      tag_137\n      0x04\n      dup1\n      calldatasize\n      sub\n      dup2\n      add\n      swap1\n      tag_138\n      swap2\n      swap1\n      tag_50\n      jump\t// in\n    tag_138:\n      tag_139\n      jump\t// in\n    tag_137:\n      stop\n        /* \"Launchpad v2.0/QubeBalance.sol\":1019:1039  IERC1155 public gold */\n    tag_30:\n      tag_140\n      tag_141\n      jump\t// in\n    tag_140:\n      mload(0x40)\n      tag_142\n      swap2\n      swap1\n      tag_47\n      jump\t// in\n    tag_142:\n      mload(0x40)\n      dup1\n      swap2\n      sub\n      swap1\n      return\n        /* \"Launchpad v2.0/QubeBalance.sol\":1074:1119  mapping (address=>userNFTData) public userNFT */\n    tag_41:\n      mstore(0x20, 0x08)\n      dup1\n      0x00\n      mstore\n      keccak256(0x00, 0x40)\n      0x00\n      swap2\n      pop\n      swap1\n      pop\n      dup1\n      0x01\n      add\n      sload\n      swap1\n      pop\n      dup2\n      jump\t// out\n        /* \"Launchpad v2.0/QubeBalance.sol\":991:1013  IERC1155 public silver */\n    tag_45:\n      0x05\n      0x00\n      swap1\n      sload\n      swap1\n      0x0100\n      exp\n      swap1\n      div\n      0xffffffffffffffffffffffffffffffffffffffff\n      and\n      dup2\n      jump\t// out\n        /* \"Launchpad v2.0/QubeBalance.sol\":2340:2416  function setGold(IERC1155 _gold) public onlyOwner{... */\n    tag_51:\n        /* \"Launchpad v2.0/Ownable.sol\":1203:1215  _msgSender() */\n      tag_144\n        /* \"Launchpad v2.0/Ownable.sol\":1203:1213  _msgSender */\n      tag_145\n        /* \"Launchpad v2.0/Ownable.sol\":1203:1215  _msgSender() */\n      jump\t// in\n    tag_144:\n        /* \"Launchpad v2.0/Ownable.sol\":1192:1215  owner() == _msgSender() */\n      0xffffffffffffffffffffffffffffffffffffffff\n      and\n        /* \"Launchpad v2.0/Ownable.sol\":1192:1199  owner() */\n      tag_146\n        /* \"Launchpad v2.0/Ownable.sol\":1192:1197  owner */\n      tag_116\n        /* \"Launchpad v2.0/Ownable.sol\":1192:1199  owner() */\n      jump\t// in\n    tag_146:\n        /* \"Launchpad v2.0/Ownable.sol\":1192:1215  owner() == _msgSender() */\n      0xffffffffffffffffffffffffffffffffffffffff\n      and\n      eq\n        /* \"Launchpad v2.0/Ownable.sol\":1184:1252  require(owner() == _msgSender(), \"Ownable: caller is not the owner\") */\n      tag_147\n      jumpi\n      mload(0x40)\n      0x08c379a000000000000000000000000000000000000000000000000000000000\n      dup2\n      mstore\n      0x04\n      add\n      tag_148\n      swap1\n      tag_149\n      jump\t// in\n    tag_148:\n      mload(0x40)\n      dup1\n      swap2\n      sub\n      swap1\n      revert\n    tag_147:\n        /* \"Launchpad v2.0/QubeBalance.sol\":2404:2409  _gold */\n      dup1\n        /* \"Launchpad v2.0/QubeBalance.sol\":2399:2403  gold */\n      0x06\n      0x00\n        /* \"Launchpad v2.0/QubeBalance.sol\":2399:2409  gold=_gold */\n      0x0100\n      exp\n      dup2\n      sload\n      dup2\n      0xffffffffffffffffffffffffffffffffffffffff\n      mul\n      not\n      and\n      swap1\n      dup4\n      0xffffffffffffffffffffffffffffffffffffffff\n      and\n      mul\n      or\n      swap1\n      sstore\n      pop\n        /* \"Launchpad v2.0/QubeBalance.sol\":2340:2416  function setGold(IERC1155 _gold) public onlyOwner{... */\n      pop\n      jump\t// out\n        /* \"Launchpad v2.0/QubeBalance.sol\":1813:1887  function setQube(IBEP20 _qube) public onlyOwner{... */\n    tag_55:\n        /* \"Launchpad v2.0/Ownable.sol\":1203:1215  _msgSender() */\n      tag_152\n        /* \"Launchpad v2.0/Ownable.sol\":1203:1213  _msgSender */\n      tag_145\n        /* \"Launchpad v2.0/Ownable.sol\":1203:1215  _msgSender() */\n      jump\t// in\n    tag_152:\n        /* \"Launchpad v2.0/Ownable.sol\":1192:1215  owner() == _msgSender() */\n      0xffffffffffffffffffffffffffffffffffffffff\n      and\n        /* \"Launchpad v2.0/Ownable.sol\":1192:1199  owner() */\n      tag_153\n        /* \"Launchpad v2.0/Ownable.sol\":1192:1197  owner */\n      tag_116\n        /* \"Launchpad v2.0/Ownable.sol\":1192:1199  owner() */\n      jump\t// in\n    tag_153:\n        /* \"Launchpad v2.0/Ownable.sol\":1192:1215  owner() == _msgSender() */\n      0xffffffffffffffffffffffffffffffffffffffff\n      and\n      eq\n        /* \"Launchpad v2.0/Ownable.sol\":1184:1252  require(owner() == _msgSender(), \"Ownable: caller is not the owner\") */\n      tag_154\n      jumpi\n      mload(0x40)\n      0x08c379a000000000000000000000000000000000000000000000000000000000\n      dup2\n      mstore\n      0x04\n      add\n      tag_155\n      swap1\n      tag_149\n      jump\t// in\n    tag_155:\n      mload(0x40)\n      dup1\n      swap2\n      sub\n      swap1\n      revert\n    tag_154:\n        /* \"Launchpad v2.0/QubeBalance.sol\":1875:1880  _qube */\n      dup1\n        /* \"Launchpad v2.0/QubeBalance.sol\":1870:1874  qube */\n      0x01\n      0x00\n        /* \"Launchpad v2.0/QubeBalance.sol\":1870:1880  qube=_qube */\n      0x0100\n      exp\n      dup2\n      sload\n      dup2\n      0xffffffffffffffffffffffffffffffffffffffff\n      mul\n      not\n      and\n      swap1\n      dup4\n      0xffffffffffffffffffffffffffffffffffffffff\n      and\n      mul\n      or\n      swap1\n      sstore\n      pop\n        /* \"Launchpad v2.0/QubeBalance.sol\":1813:1887  function setQube(IBEP20 _qube) public onlyOwner{... */\n      pop\n      jump\t// out\n        /* \"Launchpad v2.0/QubeBalance.sol\":4050:4294  function qubeBalance(address walletAddress) public view returns (uint256){... */\n    tag_58:\n        /* \"Launchpad v2.0/QubeBalance.sol\":4115:4122  uint256 */\n      0x00\n        /* \"Launchpad v2.0/QubeBalance.sol\":4246:4287  getQubeStakeFactoryBalance(walletAddress) */\n      tag_158\n        /* \"Launchpad v2.0/QubeBalance.sol\":4273:4286  walletAddress */\n      dup3\n        /* \"Launchpad v2.0/QubeBalance.sol\":4246:4272  getQubeStakeFactoryBalance */\n      tag_82\n        /* \"Launchpad v2.0/QubeBalance.sol\":4246:4287  getQubeStakeFactoryBalance(walletAddress) */\n      jump\t// in\n    tag_158:\n        /* \"Launchpad v2.0/QubeBalance.sol\":4209:4245  getPancakePairBalance(walletAddress) */\n      tag_159\n        /* \"Launchpad v2.0/QubeBalance.sol\":4231:4244  walletAddress */\n      dup4\n        /* \"Launchpad v2.0/QubeBalance.sol\":4209:4230  getPancakePairBalance */\n      tag_90\n        /* \"Launchpad v2.0/QubeBalance.sol\":4209:4245  getPancakePairBalance(walletAddress) */\n      jump\t// in\n    tag_159:\n        /* \"Launchpad v2.0/QubeBalance.sol\":4172:4208  getQubePresaleBalance(walletAddress) */\n      tag_160\n        /* \"Launchpad v2.0/QubeBalance.sol\":4194:4207  walletAddress */\n      dup5\n        /* \"Launchpad v2.0/QubeBalance.sol\":4172:4193  getQubePresaleBalance */\n      tag_78\n        /* \"Launchpad v2.0/QubeBalance.sol\":4172:4208  getQubePresaleBalance(walletAddress) */\n      jump\t// in\n    tag_160:\n        /* \"Launchpad v2.0/QubeBalance.sol\":4140:4169  getQubeBalance(walletAddress) */\n      tag_161\n        /* \"Launchpad v2.0/QubeBalance.sol\":4155:4168  walletAddress */\n      dup6\n        /* \"Launchpad v2.0/QubeBalance.sol\":4140:4154  getQubeBalance */\n      tag_86\n        /* \"Launchpad v2.0/QubeBalance.sol\":4140:4169  getQubeBalance(walletAddress) */\n      jump\t// in\n    tag_161:\n        /* \"Launchpad v2.0/QubeBalance.sol\":4140:4208  getQubeBalance(walletAddress) + getQubePresaleBalance(walletAddress) */\n      tag_162\n      swap2\n      swap1\n      tag_163\n      jump\t// in\n    tag_162:\n        /* \"Launchpad v2.0/QubeBalance.sol\":4140:4245  getQubeBalance(walletAddress) + getQubePresaleBalance(walletAddress)+getPancakePairBalance(walletAddress) */\n      tag_164\n      swap2\n      swap1\n      tag_163\n      jump\t// in\n    tag_164:\n        /* \"Launchpad v2.0/QubeBalance.sol\":4140:4287  getQubeBalance(walletAddress) + getQubePresaleBalance(walletAddress)+getPancakePairBalance(walletAddress)+getQubeStakeFactoryBalance(walletAddress) */\n      tag_165\n      swap2\n      swap1\n      tag_163\n      jump\t// in\n    tag_165:\n        /* \"Launchpad v2.0/QubeBalance.sol\":4133:4287  return getQubeBalance(walletAddress) + getQubePresaleBalance(walletAddress)+getPancakePairBalance(walletAddress)+getQubeStakeFactoryBalance(walletAddress) */\n      swap1\n      pop\n        /* \"Launchpad v2.0/QubeBalance.sol\":4050:4294  function qubeBalance(address walletAddress) public view returns (uint256){... */\n      swap2\n      swap1\n      pop\n      jump\t// out\n        /* \"Launchpad v2.0/QubeBalance.sol\":1892:1999  function setQubePresale(QubePresale _qubePresale) public onlyOwner{... */\n    tag_63:\n        /* \"Launchpad v2.0/Ownable.sol\":1203:1215  _msgSender() */\n      tag_167\n        /* \"Launchpad v2.0/Ownable.sol\":1203:1213  _msgSender */\n      tag_145\n        /* \"Launchpad v2.0/Ownable.sol\":1203:1215  _msgSender() */\n      jump\t// in\n    tag_167:\n        /* \"Launchpad v2.0/Ownable.sol\":1192:1215  owner() == _msgSender() */\n      0xffffffffffffffffffffffffffffffffffffffff\n      and\n        /* \"Launchpad v2.0/Ownable.sol\":1192:1199  owner() */\n      tag_168\n        /* \"Launchpad v2.0/Ownable.sol\":1192:1197  owner */\n      tag_116\n        /* \"Launchpad v2.0/Ownable.sol\":1192:1199  owner() */\n      jump\t// in\n    tag_168:\n        /* \"Launchpad v2.0/Ownable.sol\":1192:1215  owner() == _msgSender() */\n      0xffffffffffffffffffffffffffffffffffffffff\n      and\n      eq\n        /* \"Launchpad v2.0/Ownable.sol\":1184:1252  require(owner() == _msgSender(), \"Ownable: caller is not the owner\") */\n      tag_169\n      jumpi\n      mload(0x40)\n      0x08c379a000000000000000000000000000000000000000000000000000000000\n      dup2\n      mstore\n      0x04\n      add\n      tag_170\n      swap1\n      tag_149\n      jump\t// in\n    tag_170:\n      mload(0x40)\n      dup1\n      swap2\n      sub\n      swap1\n      revert\n    tag_169:\n        /* \"Launchpad v2.0/QubeBalance.sol\":1980:1992  _qubePresale */\n      dup1\n        /* \"Launchpad v2.0/QubeBalance.sol\":1968:1979  qubePresale */\n      0x02\n      0x00\n        /* \"Launchpad v2.0/QubeBalance.sol\":1968:1992  qubePresale=_qubePresale */\n      0x0100\n      exp\n      dup2\n      sload\n      dup2\n      0xffffffffffffffffffffffffffffffffffffffff\n      mul\n      not\n      and\n      swap1\n      dup4\n      0xffffffffffffffffffffffffffffffffffffffff\n      and\n      mul\n      or\n      swap1\n      sstore\n      pop\n        /* \"Launchpad v2.0/QubeBalance.sol\":1892:1999  function setQubePresale(QubePresale _qubePresale) public onlyOwner{... */\n      pop\n      jump\t// out\n        /* \"Launchpad v2.0/QubeBalance.sol\":1648:1808  function changeNFTRank(address _user, uint256 _rank) public{... */\n    tag_67:\n        /* \"Launchpad v2.0/QubeBalance.sol\":1737:1742  _user */\n      dup2\n        /* \"Launchpad v2.0/QubeBalance.sol\":1725:1742  msg.sender==_user */\n      0xffffffffffffffffffffffffffffffffffffffff\n      and\n        /* \"Launchpad v2.0/QubeBalance.sol\":1725:1735  msg.sender */\n      caller\n        /* \"Launchpad v2.0/QubeBalance.sol\":1725:1742  msg.sender==_user */\n      0xffffffffffffffffffffffffffffffffffffffff\n      and\n      eq\n        /* \"Launchpad v2.0/QubeBalance.sol\":1725:1765  msg.sender==_user || msg.sender==owner() */\n      dup1\n      tag_173\n      jumpi\n      pop\n        /* \"Launchpad v2.0/QubeBalance.sol\":1758:1765  owner() */\n      tag_174\n        /* \"Launchpad v2.0/QubeBalance.sol\":1758:1763  owner */\n      tag_116\n        /* \"Launchpad v2.0/QubeBalance.sol\":1758:1765  owner() */\n      jump\t// in\n    tag_174:\n        /* \"Launchpad v2.0/QubeBalance.sol\":1746:1765  msg.sender==owner() */\n      0xffffffffffffffffffffffffffffffffffffffff\n      and\n        /* \"Launchpad v2.0/QubeBalance.sol\":1746:1756  msg.sender */\n      caller\n        /* \"Launchpad v2.0/QubeBalance.sol\":1746:1765  msg.sender==owner() */\n      0xffffffffffffffffffffffffffffffffffffffff\n      and\n      eq\n        /* \"Launchpad v2.0/QubeBalance.sol\":1725:1765  msg.sender==_user || msg.sender==owner() */\n    tag_173:\n        /* \"Launchpad v2.0/QubeBalance.sol\":1717:1766  require(msg.sender==_user || msg.sender==owner()) */\n      tag_175\n      jumpi\n      0x00\n      dup1\n      revert\n    tag_175:\n        /* \"Launchpad v2.0/QubeBalance.sol\":1796:1801  _rank */\n      dup1\n        /* \"Launchpad v2.0/QubeBalance.sol\":1776:1783  userNFT */\n      0x08\n        /* \"Launchpad v2.0/QubeBalance.sol\":1776:1790  userNFT[_user] */\n      0x00\n        /* \"Launchpad v2.0/QubeBalance.sol\":1784:1789  _user */\n      dup5\n        /* \"Launchpad v2.0/QubeBalance.sol\":1776:1790  userNFT[_user] */\n      0xffffffffffffffffffffffffffffffffffffffff\n      and\n      0xffffffffffffffffffffffffffffffffffffffff\n      and\n      dup2\n      mstore\n      0x20\n      add\n      swap1\n      dup2\n      mstore\n      0x20\n      add\n      0x00\n      keccak256\n        /* \"Launchpad v2.0/QubeBalance.sol\":1776:1795  userNFT[_user].rank */\n      0x01\n      add\n        /* \"Launchpad v2.0/QubeBalance.sol\":1776:1801  userNFT[_user].rank=_rank */\n      dup2\n      swap1\n      sstore\n      pop\n        /* \"Launchpad v2.0/QubeBalance.sol\":1648:1808  function changeNFTRank(address _user, uint256 _rank) public{... */\n      pop\n      pop\n      jump\t// out\n        /* \"Launchpad v2.0/QubeBalance.sol\":872:902  QubePresale public qubePresale */\n    tag_69:\n      0x02\n      0x00\n      swap1\n      sload\n      swap1\n      0x0100\n      exp\n      swap1\n      div\n      0xffffffffffffffffffffffffffffffffffffffff\n      and\n      dup2\n      jump\t// out\n        /* \"Launchpad v2.0/QubeBalance.sol\":2121:2246  function setQubeStake(QubeStakeFactory _qubeStakeFactory) public onlyOwner{... */\n    tag_75:\n        /* \"Launchpad v2.0/Ownable.sol\":1203:1215  _msgSender() */\n      tag_177\n        /* \"Launchpad v2.0/Ownable.sol\":1203:1213  _msgSender */\n      tag_145\n        /* \"Launchpad v2.0/Ownable.sol\":1203:1215  _msgSender() */\n      jump\t// in\n    tag_177:\n        /* \"Launchpad v2.0/Ownable.sol\":1192:1215  owner() == _msgSender() */\n      0xffffffffffffffffffffffffffffffffffffffff\n      and\n        /* \"Launchpad v2.0/Ownable.sol\":1192:1199  owner() */\n      tag_178\n        /* \"Launchpad v2.0/Ownable.sol\":1192:1197  owner */\n      tag_116\n        /* \"Launchpad v2.0/Ownable.sol\":1192:1199  owner() */\n      jump\t// in\n    tag_178:\n        /* \"Launchpad v2.0/Ownable.sol\":1192:1215  owner() == _msgSender() */\n      0xffffffffffffffffffffffffffffffffffffffff\n      and\n      eq\n        /* \"Launchpad v2.0/Ownable.sol\":1184:1252  require(owner() == _msgSender(), \"Ownable: caller is not the owner\") */\n      tag_179\n      jumpi\n      mload(0x40)\n      0x08c379a000000000000000000000000000000000000000000000000000000000\n      dup2\n      mstore\n      0x04\n      add\n      tag_180\n      swap1\n      tag_149\n      jump\t// in\n    tag_180:\n      mload(0x40)\n      dup1\n      swap2\n      sub\n      swap1\n      revert\n    tag_179:\n        /* \"Launchpad v2.0/QubeBalance.sol\":2222:2239  _qubeStakeFactory */\n      dup1\n        /* \"Launchpad v2.0/QubeBalance.sol\":2205:2221  qubeStakeFactory */\n      0x04\n      0x00\n        /* \"Launchpad v2.0/QubeBalance.sol\":2205:2239  qubeStakeFactory=_qubeStakeFactory */\n      0x0100\n      exp\n      dup2\n      sload\n      dup2\n      0xffffffffffffffffffffffffffffffffffffffff\n      mul\n      not\n      and\n      swap1\n      dup4\n      0xffffffffffffffffffffffffffffffffffffffff\n      and\n      mul\n      or\n      swap1\n      sstore\n      pop\n        /* \"Launchpad v2.0/QubeBalance.sol\":2121:2246  function setQubeStake(QubeStakeFactory _qubeStakeFactory) public onlyOwner{... */\n      pop\n      jump\t// out\n        /* \"Launchpad v2.0/QubeBalance.sol\":2648:2794  function getQubePresaleBalance(address walletAddress)public view returns (uint256){... */\n    tag_78:\n        /* \"Launchpad v2.0/QubeBalance.sol\":2722:2729  uint256 */\n      0x00\n        /* \"Launchpad v2.0/QubeBalance.sol\":2747:2758  qubePresale */\n      0x02\n      0x00\n      swap1\n      sload\n      swap1\n      0x0100\n      exp\n      swap1\n      div\n      0xffffffffffffffffffffffffffffffffffffffff\n      and\n        /* \"Launchpad v2.0/QubeBalance.sol\":2747:2772  qubePresale.qubeBalanceOf */\n      0xffffffffffffffffffffffffffffffffffffffff\n      and\n      0xc5d63d0a\n        /* \"Launchpad v2.0/QubeBalance.sol\":2773:2786  walletAddress */\n      dup4\n        /* \"Launchpad v2.0/QubeBalance.sol\":2747:2787  qubePresale.qubeBalanceOf(walletAddress) */\n      mload(0x40)\n      dup3\n      0xffffffff\n      and\n      0xe0\n      shl\n      dup2\n      mstore\n      0x04\n      add\n      tag_183\n      swap2\n      swap1\n      tag_118\n      jump\t// in\n    tag_183:\n      0x20\n      mload(0x40)\n      dup1\n      dup4\n      sub\n      dup2\n      dup7\n      dup1\n      extcodesize\n      iszero\n      dup1\n      iszero\n      tag_184\n      jumpi\n      0x00\n      dup1\n      revert\n    tag_184:\n      pop\n      gas\n      staticcall\n      iszero\n      dup1\n      iszero\n      tag_186\n      jumpi\n      returndatasize\n      0x00\n      dup1\n      returndatacopy\n      revert(0x00, returndatasize)\n    tag_186:\n      pop\n      pop\n      pop\n      pop\n      mload(0x40)\n      returndatasize\n      not(0x1f)\n      0x1f\n      dup3\n      add\n      and\n      dup3\n      add\n      dup1\n      0x40\n      mstore\n      pop\n      dup2\n      add\n      swap1\n      tag_187\n      swap2\n      swap1\n      tag_188\n      jump\t// in\n    tag_187:\n        /* \"Launchpad v2.0/QubeBalance.sol\":2740:2787  return qubePresale.qubeBalanceOf(walletAddress) */\n      swap1\n      pop\n        /* \"Launchpad v2.0/QubeBalance.sol\":2648:2794  function getQubePresaleBalance(address walletAddress)public view returns (uint256){... */\n      swap2\n      swap1\n      pop\n      jump\t// out\n        /* \"Launchpad v2.0/QubeBalance.sol\":3250:3597  function getQubeStakeFactoryBalance(address walletAddress)public view returns(uint256){... */\n    tag_82:\n        /* \"Launchpad v2.0/QubeBalance.sol\":3328:3335  uint256 */\n      0x00\n        /* \"Launchpad v2.0/QubeBalance.sol\":3346:3362  uint256 _balance */\n      dup1\n        /* \"Launchpad v2.0/QubeBalance.sol\":3372:3396  uint256[] memory tickets */\n      0x00\n        /* \"Launchpad v2.0/QubeBalance.sol\":3399:3415  qubeStakeFactory */\n      0x04\n      0x00\n      swap1\n      sload\n      swap1\n      0x0100\n      exp\n      swap1\n      div\n      0xffffffffffffffffffffffffffffffffffffffff\n      and\n        /* \"Launchpad v2.0/QubeBalance.sol\":3399:3427  qubeStakeFactory.userTickets */\n      0xffffffffffffffffffffffffffffffffffffffff\n      and\n      0x80017f4e\n        /* \"Launchpad v2.0/QubeBalance.sol\":3428:3441  walletAddress */\n      dup6\n        /* \"Launchpad v2.0/QubeBalance.sol\":3399:3442  qubeStakeFactory.userTickets(walletAddress) */\n      mload(0x40)\n      dup3\n      0xffffffff\n      and\n      0xe0\n      shl\n      dup2\n      mstore\n      0x04\n      add\n      tag_190\n      swap2\n      swap1\n      tag_118\n      jump\t// in\n    tag_190:\n      0x00\n      mload(0x40)\n      dup1\n      dup4\n      sub\n      dup2\n      dup7\n      dup1\n      extcodesize\n      iszero\n      dup1\n      iszero\n      tag_191\n      jumpi\n      0x00\n      dup1\n      revert\n    tag_191:\n      pop\n      gas\n      staticcall\n      iszero\n      dup1\n      iszero\n      tag_193\n      jumpi\n      returndatasize\n      0x00\n      dup1\n      returndatacopy\n      revert(0x00, returndatasize)\n    tag_193:\n      pop\n      pop\n      pop\n      pop\n      mload(0x40)\n      returndatasize\n      0x00\n      dup3\n      returndatacopy\n      returndatasize\n      not(0x1f)\n      0x1f\n      dup3\n      add\n      and\n      dup3\n      add\n      dup1\n      0x40\n      mstore\n      pop\n      dup2\n      add\n      swap1\n      tag_194\n      swap2\n      swap1\n      tag_195\n      jump\t// in\n    tag_194:\n        /* \"Launchpad v2.0/QubeBalance.sol\":3372:3442  uint256[] memory tickets = qubeStakeFactory.userTickets(walletAddress) */\n      swap1\n      pop\n        /* \"Launchpad v2.0/QubeBalance.sol\":3458:3464  uint i */\n      0x00\n        /* \"Launchpad v2.0/QubeBalance.sol\":3453:3566  for (uint i=0; i<tickets.length; i++){... */\n    tag_196:\n        /* \"Launchpad v2.0/QubeBalance.sol\":3470:3477  tickets */\n      dup2\n        /* \"Launchpad v2.0/QubeBalance.sol\":3470:3484  tickets.length */\n      mload\n        /* \"Launchpad v2.0/QubeBalance.sol\":3468:3469  i */\n      dup2\n        /* \"Launchpad v2.0/QubeBalance.sol\":3468:3484  i<tickets.length */\n      lt\n        /* \"Launchpad v2.0/QubeBalance.sol\":3453:3566  for (uint i=0; i<tickets.length; i++){... */\n      iszero\n      tag_197\n      jumpi\n        /* \"Launchpad v2.0/QubeBalance.sol\":3515:3531  qubeStakeFactory */\n      0x04\n      0x00\n      swap1\n      sload\n      swap1\n      0x0100\n      exp\n      swap1\n      div\n      0xffffffffffffffffffffffffffffffffffffffff\n      and\n        /* \"Launchpad v2.0/QubeBalance.sol\":3515:3540  qubeStakeFactory.userInfo */\n      0xffffffffffffffffffffffffffffffffffffffff\n      and\n      0x51d70bc4\n        /* \"Launchpad v2.0/QubeBalance.sol\":3541:3542  i */\n      dup3\n        /* \"Launchpad v2.0/QubeBalance.sol\":3515:3543  qubeStakeFactory.userInfo(i) */\n      mload(0x40)\n      dup3\n      0xffffffff\n      and\n      0xe0\n      shl\n      dup2\n      mstore\n      0x04\n      add\n      tag_199\n      swap2\n      swap1\n      tag_43\n      jump\t// in\n    tag_199:\n      0xc0\n      mload(0x40)\n      dup1\n      dup4\n      sub\n      dup2\n      dup7\n      dup1\n      extcodesize\n      iszero\n      dup1\n      iszero\n      tag_200\n      jumpi\n      0x00\n      dup1\n      revert\n    tag_200:\n      pop\n      gas\n      staticcall\n      iszero\n      dup1\n      iszero\n      tag_202\n      jumpi\n      returndatasize\n      0x00\n      dup1\n      returndatacopy\n      revert(0x00, returndatasize)\n    tag_202:\n      pop\n      pop\n      pop\n      pop\n      mload(0x40)\n      returndatasize\n      not(0x1f)\n      0x1f\n      dup3\n      add\n      and\n      dup3\n      add\n      dup1\n      0x40\n      mstore\n      pop\n      dup2\n      add\n      swap1\n      tag_203\n      swap2\n      swap1\n      tag_204\n      jump\t// in\n    tag_203:\n        /* \"Launchpad v2.0/QubeBalance.sol\":3515:3555  qubeStakeFactory.userInfo(i).stakeAmount */\n      0x80\n      add\n      mload\n        /* \"Launchpad v2.0/QubeBalance.sol\":3504:3555  _balance+= qubeStakeFactory.userInfo(i).stakeAmount */\n      dup4\n      tag_205\n      swap2\n      swap1\n      tag_163\n      jump\t// in\n    tag_205:\n      swap3\n      pop\n        /* \"Launchpad v2.0/QubeBalance.sol\":3486:3489  i++ */\n      dup1\n      dup1\n      tag_206\n      swap1\n      tag_207\n      jump\t// in\n    tag_206:\n      swap2\n      pop\n      pop\n        /* \"Launchpad v2.0/QubeBalance.sol\":3453:3566  for (uint i=0; i<tickets.length; i++){... */\n      jump(tag_196)\n    tag_197:\n      pop\n        /* \"Launchpad v2.0/QubeBalance.sol\":3582:3590  _balance */\n      dup2\n        /* \"Launchpad v2.0/QubeBalance.sol\":3575:3590  return _balance */\n      swap3\n      pop\n      pop\n      pop\n        /* \"Launchpad v2.0/QubeBalance.sol\":3250:3597  function getQubeStakeFactoryBalance(address walletAddress)public view returns(uint256){... */\n      swap2\n      swap1\n      pop\n      jump\t// out\n        /* \"Launchpad v2.0/QubeBalance.sol\":2515:2643  function getQubeBalance(address walletAddress)public view returns (uint256){... */\n    tag_86:\n        /* \"Launchpad v2.0/QubeBalance.sol\":2582:2589  uint256 */\n      0x00\n        /* \"Launchpad v2.0/QubeBalance.sol\":2607:2611  qube */\n      0x01\n      0x00\n      swap1\n      sload\n      swap1\n      0x0100\n      exp\n      swap1\n      div\n      0xffffffffffffffffffffffffffffffffffffffff\n      and\n        /* \"Launchpad v2.0/QubeBalance.sol\":2607:2621  qube.balanceOf */\n      0xffffffffffffffffffffffffffffffffffffffff\n      and\n      0x70a08231\n        /* \"Launchpad v2.0/QubeBalance.sol\":2622:2635  walletAddress */\n      dup4\n        /* \"Launchpad v2.0/QubeBalance.sol\":2607:2636  qube.balanceOf(walletAddress) */\n      mload(0x40)\n      dup3\n      0xffffffff\n      and\n      0xe0\n      shl\n      dup2\n      mstore\n      0x04\n      add\n      tag_209\n      swap2\n      swap1\n      tag_118\n      jump\t// in\n    tag_209:\n      0x20\n      mload(0x40)\n      dup1\n      dup4\n      sub\n      dup2\n      dup7\n      dup1\n      extcodesize\n      iszero\n      dup1\n      iszero\n      tag_210\n      jumpi\n      0x00\n      dup1\n      revert\n    tag_210:\n      pop\n      gas\n      staticcall\n      iszero\n      dup1\n      iszero\n      tag_212\n      jumpi\n      returndatasize\n      0x00\n      dup1\n      returndatacopy\n      revert(0x00, returndatasize)\n    tag_212:\n      pop\n      pop\n      pop\n      pop\n      mload(0x40)\n      returndatasize\n      not(0x1f)\n      0x1f\n      dup3\n      add\n      and\n      dup3\n      add\n      dup1\n      0x40\n      mstore\n      pop\n      dup2\n      add\n      swap1\n      tag_213\n      swap2\n      swap1\n      tag_188\n      jump\t// in\n    tag_213:\n        /* \"Launchpad v2.0/QubeBalance.sol\":2600:2636  return qube.balanceOf(walletAddress) */\n      swap1\n      pop\n        /* \"Launchpad v2.0/QubeBalance.sol\":2515:2643  function getQubeBalance(address walletAddress)public view returns (uint256){... */\n      swap2\n      swap1\n      pop\n      jump\t// out\n        /* \"Launchpad v2.0/QubeBalance.sol\":2799:3245  function getPancakePairBalance(address walletAddress)public view returns (uint256){... */\n    tag_90:\n        /* \"Launchpad v2.0/QubeBalance.sol\":2873:2880  uint256 */\n      0x00\n        /* \"Launchpad v2.0/QubeBalance.sol\":2891:2911  uint112 _qubeBalance */\n      dup1\n        /* \"Launchpad v2.0/QubeBalance.sol\":2921:2941  uint112 _USDTBalance */\n      0x00\n        /* \"Launchpad v2.0/QubeBalance.sol\":2951:2977  uint32 _blockTimestampLast */\n      dup1\n        /* \"Launchpad v2.0/QubeBalance.sol\":3039:3050  pancakePair */\n      0x03\n      0x00\n      swap1\n      sload\n      swap1\n      0x0100\n      exp\n      swap1\n      div\n      0xffffffffffffffffffffffffffffffffffffffff\n      and\n        /* \"Launchpad v2.0/QubeBalance.sol\":3039:3062  pancakePair.getReserves */\n      0xffffffffffffffffffffffffffffffffffffffff\n      and\n      0x0902f1ac\n        /* \"Launchpad v2.0/QubeBalance.sol\":3039:3064  pancakePair.getReserves() */\n      mload(0x40)\n      dup2\n      0xffffffff\n      and\n      0xe0\n      shl\n      dup2\n      mstore\n      0x04\n      add\n      0x60\n      mload(0x40)\n      dup1\n      dup4\n      sub\n      dup2\n      dup7\n      dup1\n      extcodesize\n      iszero\n      dup1\n      iszero\n      tag_215\n      jumpi\n      0x00\n      dup1\n      revert\n    tag_215:\n      pop\n      gas\n      staticcall\n      iszero\n      dup1\n      iszero\n      tag_217\n      jumpi\n      returndatasize\n      0x00\n      dup1\n      returndatacopy\n      revert(0x00, returndatasize)\n    tag_217:\n      pop\n      pop\n      pop\n      pop\n      mload(0x40)\n      returndatasize\n      not(0x1f)\n      0x1f\n      dup3\n      add\n      and\n      dup3\n      add\n      dup1\n      0x40\n      mstore\n      pop\n      dup2\n      add\n      swap1\n      tag_218\n      swap2\n      swap1\n      tag_219\n      jump\t// in\n    tag_218:\n        /* \"Launchpad v2.0/QubeBalance.sol\":2987:3064  (_qubeBalance, _USDTBalance, _blockTimestampLast) = pancakePair.getReserves() */\n      dup1\n      swap4\n      pop\n      dup2\n      swap5\n      pop\n      dup3\n      swap6\n      pop\n      pop\n      pop\n      pop\n        /* \"Launchpad v2.0/QubeBalance.sol\":3075:3086  uint256 _LP */\n      0x00\n        /* \"Launchpad v2.0/QubeBalance.sol\":3089:3137  uint256(_qubeBalance).div(uint256(_USDTBalance)) */\n      tag_220\n        /* \"Launchpad v2.0/QubeBalance.sol\":3123:3135  _USDTBalance */\n      dup4\n        /* \"Launchpad v2.0/QubeBalance.sol\":3115:3136  uint256(_USDTBalance) */\n      0xffffffffffffffffffffffffffff\n      and\n        /* \"Launchpad v2.0/QubeBalance.sol\":3097:3109  _qubeBalance */\n      dup6\n        /* \"Launchpad v2.0/QubeBalance.sol\":3089:3110  uint256(_qubeBalance) */\n      0xffffffffffffffffffffffffffff\n      and\n        /* \"Launchpad v2.0/QubeBalance.sol\":3089:3114  uint256(_qubeBalance).div */\n      tag_221\n      swap1\n        /* \"Launchpad v2.0/QubeBalance.sol\":3089:3137  uint256(_qubeBalance).div(uint256(_USDTBalance)) */\n      swap2\n      swap1\n      0xffffffff\n      and\n      jump\t// in\n    tag_220:\n        /* \"Launchpad v2.0/QubeBalance.sol\":3075:3137  uint256 _LP = uint256(_qubeBalance).div(uint256(_USDTBalance)) */\n      swap1\n      pop\n        /* \"Launchpad v2.0/QubeBalance.sol\":3147:3165  uint256 _balanceOf */\n      0x00\n        /* \"Launchpad v2.0/QubeBalance.sol\":3166:3177  pancakePair */\n      0x03\n      0x00\n      swap1\n      sload\n      swap1\n      0x0100\n      exp\n      swap1\n      div\n      0xffffffffffffffffffffffffffffffffffffffff\n      and\n        /* \"Launchpad v2.0/QubeBalance.sol\":3166:3187  pancakePair.balanceOf */\n      0xffffffffffffffffffffffffffffffffffffffff\n      and\n      0x70a08231\n        /* \"Launchpad v2.0/QubeBalance.sol\":3188:3201  walletAddress */\n      dup9\n        /* \"Launchpad v2.0/QubeBalance.sol\":3166:3202  pancakePair.balanceOf(walletAddress) */\n      mload(0x40)\n      dup3\n      0xffffffff\n      and\n      0xe0\n      shl\n      dup2\n      mstore\n      0x04\n      add\n      tag_222\n      swap2\n      swap1\n      tag_118\n      jump\t// in\n    tag_222:\n      0x20\n      mload(0x40)\n      dup1\n      dup4\n      sub\n      dup2\n      dup7\n      dup1\n      extcodesize\n      iszero\n      dup1\n      iszero\n      tag_223\n      jumpi\n      0x00\n      dup1\n      revert\n    tag_223:\n      pop\n      gas\n      staticcall\n      iszero\n      dup1\n      iszero\n      tag_225\n      jumpi\n      returndatasize\n      0x00\n      dup1\n      returndatacopy\n      revert(0x00, returndatasize)\n    tag_225:\n      pop\n      pop\n      pop\n      pop\n      mload(0x40)\n      returndatasize\n      not(0x1f)\n      0x1f\n      dup3\n      add\n      and\n      dup3\n      add\n      dup1\n      0x40\n      mstore\n      pop\n      dup2\n      add\n      swap1\n      tag_226\n      swap2\n      swap1\n      tag_188\n      jump\t// in\n    tag_226:\n        /* \"Launchpad v2.0/QubeBalance.sol\":3147:3202  uint256 _balanceOf=pancakePair.balanceOf(walletAddress) */\n      swap1\n      pop\n        /* \"Launchpad v2.0/QubeBalance.sol\":3219:3238  _LP.mul(_balanceOf) */\n      tag_227\n        /* \"Launchpad v2.0/QubeBalance.sol\":3227:3237  _balanceOf */\n      dup2\n        /* \"Launchpad v2.0/QubeBalance.sol\":3219:3222  _LP */\n      dup4\n        /* \"Launchpad v2.0/QubeBalance.sol\":3219:3226  _LP.mul */\n      tag_228\n      swap1\n        /* \"Launchpad v2.0/QubeBalance.sol\":3219:3238  _LP.mul(_balanceOf) */\n      swap2\n      swap1\n      0xffffffff\n      and\n      jump\t// in\n    tag_227:\n        /* \"Launchpad v2.0/QubeBalance.sol\":3212:3238  return _LP.mul(_balanceOf) */\n      swap6\n      pop\n      pop\n      pop\n      pop\n      pop\n      pop\n        /* \"Launchpad v2.0/QubeBalance.sol\":2799:3245  function getPancakePairBalance(address walletAddress)public view returns (uint256){... */\n      swap2\n      swap1\n      pop\n      jump\t// out\n        /* \"Launchpad v2.0/QubeBalance.sol\":1160:1484  function removeNFT(address _user, uint256 _ID) public{... */\n    tag_94:\n        /* \"Launchpad v2.0/QubeBalance.sol\":1243:1248  _user */\n      dup2\n        /* \"Launchpad v2.0/QubeBalance.sol\":1231:1248  msg.sender==_user */\n      0xffffffffffffffffffffffffffffffffffffffff\n      and\n        /* \"Launchpad v2.0/QubeBalance.sol\":1231:1241  msg.sender */\n      caller\n        /* \"Launchpad v2.0/QubeBalance.sol\":1231:1248  msg.sender==_user */\n      0xffffffffffffffffffffffffffffffffffffffff\n      and\n      eq\n        /* \"Launchpad v2.0/QubeBalance.sol\":1231:1271  msg.sender==_user || msg.sender==owner() */\n      dup1\n      tag_230\n      jumpi\n      pop\n        /* \"Launchpad v2.0/QubeBalance.sol\":1264:1271  owner() */\n      tag_231\n        /* \"Launchpad v2.0/QubeBalance.sol\":1264:1269  owner */\n      tag_116\n        /* \"Launchpad v2.0/QubeBalance.sol\":1264:1271  owner() */\n      jump\t// in\n    tag_231:\n        /* \"Launchpad v2.0/QubeBalance.sol\":1252:1271  msg.sender==owner() */\n      0xffffffffffffffffffffffffffffffffffffffff\n      and\n        /* \"Launchpad v2.0/QubeBalance.sol\":1252:1262  msg.sender */\n      caller\n        /* \"Launchpad v2.0/QubeBalance.sol\":1252:1271  msg.sender==owner() */\n      0xffffffffffffffffffffffffffffffffffffffff\n      and\n      eq\n        /* \"Launchpad v2.0/QubeBalance.sol\":1231:1271  msg.sender==_user || msg.sender==owner() */\n    tag_230:\n        /* \"Launchpad v2.0/QubeBalance.sol\":1223:1272  require(msg.sender==_user || msg.sender==owner()) */\n      tag_232\n      jumpi\n      0x00\n      dup1\n      revert\n    tag_232:\n        /* \"Launchpad v2.0/QubeBalance.sol\":1339:1342  _ID */\n      dup1\n        /* \"Launchpad v2.0/QubeBalance.sol\":1288:1295  userNFT */\n      0x08\n        /* \"Launchpad v2.0/QubeBalance.sol\":1288:1302  userNFT[_user] */\n      0x00\n        /* \"Launchpad v2.0/QubeBalance.sol\":1296:1301  _user */\n      dup5\n        /* \"Launchpad v2.0/QubeBalance.sol\":1288:1302  userNFT[_user] */\n      0xffffffffffffffffffffffffffffffffffffffff\n      and\n      0xffffffffffffffffffffffffffffffffffffffff\n      and\n      dup2\n      mstore\n      0x20\n      add\n      swap1\n      dup2\n      mstore\n      0x20\n      add\n      0x00\n      keccak256\n        /* \"Launchpad v2.0/QubeBalance.sol\":1288:1306  userNFT[_user].IDs */\n      0x00\n      add\n        /* \"Launchpad v2.0/QubeBalance.sol\":1335:1336  1 */\n      0x01\n        /* \"Launchpad v2.0/QubeBalance.sol\":1307:1314  userNFT */\n      0x08\n        /* \"Launchpad v2.0/QubeBalance.sol\":1307:1321  userNFT[_user] */\n      0x00\n        /* \"Launchpad v2.0/QubeBalance.sol\":1315:1320  _user */\n      dup7\n        /* \"Launchpad v2.0/QubeBalance.sol\":1307:1321  userNFT[_user] */\n      0xffffffffffffffffffffffffffffffffffffffff\n      and\n      0xffffffffffffffffffffffffffffffffffffffff\n      and\n      dup2\n      mstore\n      0x20\n      add\n      swap1\n      dup2\n      mstore\n      0x20\n      add\n      0x00\n      keccak256\n        /* \"Launchpad v2.0/QubeBalance.sol\":1307:1325  userNFT[_user].IDs */\n      0x00\n      add\n        /* \"Launchpad v2.0/QubeBalance.sol\":1307:1332  userNFT[_user].IDs.length */\n      dup1\n      sload\n      swap1\n      pop\n        /* \"Launchpad v2.0/QubeBalance.sol\":1307:1336  userNFT[_user].IDs.length - 1 */\n      tag_233\n      swap2\n      swap1\n      tag_234\n      jump\t// in\n    tag_233:\n        /* \"Launchpad v2.0/QubeBalance.sol\":1288:1337  userNFT[_user].IDs[userNFT[_user].IDs.length - 1] */\n      dup2\n      sload\n      dup2\n      lt\n      tag_235\n      jumpi\n      tag_236\n      tag_237\n      jump\t// in\n    tag_236:\n    tag_235:\n      swap1\n      0x00\n      mstore\n      keccak256(0x00, 0x20)\n      add\n      sload\n        /* \"Launchpad v2.0/QubeBalance.sol\":1288:1342  userNFT[_user].IDs[userNFT[_user].IDs.length - 1]==_ID */\n      eq\n        /* \"Launchpad v2.0/QubeBalance.sol\":1282:1444  if (!(userNFT[_user].IDs[userNFT[_user].IDs.length - 1]==_ID)){... */\n      tag_239\n      jumpi\n        /* \"Launchpad v2.0/QubeBalance.sol\":1384:1391  userNFT */\n      0x08\n        /* \"Launchpad v2.0/QubeBalance.sol\":1384:1398  userNFT[_user] */\n      0x00\n        /* \"Launchpad v2.0/QubeBalance.sol\":1392:1397  _user */\n      dup4\n        /* \"Launchpad v2.0/QubeBalance.sol\":1384:1398  userNFT[_user] */\n      0xffffffffffffffffffffffffffffffffffffffff\n      and\n      0xffffffffffffffffffffffffffffffffffffffff\n      and\n      dup2\n      mstore\n      0x20\n      add\n      swap1\n      dup2\n      mstore\n      0x20\n      add\n      0x00\n      keccak256\n        /* \"Launchpad v2.0/QubeBalance.sol\":1384:1402  userNFT[_user].IDs */\n      0x00\n      add\n        /* \"Launchpad v2.0/QubeBalance.sol\":1431:1432  1 */\n      0x01\n        /* \"Launchpad v2.0/QubeBalance.sol\":1403:1410  userNFT */\n      0x08\n        /* \"Launchpad v2.0/QubeBalance.sol\":1403:1417  userNFT[_user] */\n      0x00\n        /* \"Launchpad v2.0/QubeBalance.sol\":1411:1416  _user */\n      dup6\n        /* \"Launchpad v2.0/QubeBalance.sol\":1403:1417  userNFT[_user] */\n      0xffffffffffffffffffffffffffffffffffffffff\n      and\n      0xffffffffffffffffffffffffffffffffffffffff\n      and\n      dup2\n      mstore\n      0x20\n      add\n      swap1\n      dup2\n      mstore\n      0x20\n      add\n      0x00\n      keccak256\n        /* \"Launchpad v2.0/QubeBalance.sol\":1403:1421  userNFT[_user].IDs */\n      0x00\n      add\n        /* \"Launchpad v2.0/QubeBalance.sol\":1403:1428  userNFT[_user].IDs.length */\n      dup1\n      sload\n      swap1\n      pop\n        /* \"Launchpad v2.0/QubeBalance.sol\":1403:1432  userNFT[_user].IDs.length - 1 */\n      tag_240\n      swap2\n      swap1\n      tag_234\n      jump\t// in\n    tag_240:\n        /* \"Launchpad v2.0/QubeBalance.sol\":1384:1433  userNFT[_user].IDs[userNFT[_user].IDs.length - 1] */\n      dup2\n      sload\n      dup2\n      lt\n      tag_241\n      jumpi\n      tag_242\n      tag_237\n      jump\t// in\n    tag_242:\n    tag_241:\n      swap1\n      0x00\n      mstore\n      keccak256(0x00, 0x20)\n      add\n      sload\n        /* \"Launchpad v2.0/QubeBalance.sol\":1358:1365  userNFT */\n      0x08\n        /* \"Launchpad v2.0/QubeBalance.sol\":1358:1372  userNFT[_user] */\n      0x00\n        /* \"Launchpad v2.0/QubeBalance.sol\":1366:1371  _user */\n      dup5\n        /* \"Launchpad v2.0/QubeBalance.sol\":1358:1372  userNFT[_user] */\n      0xffffffffffffffffffffffffffffffffffffffff\n      and\n      0xffffffffffffffffffffffffffffffffffffffff\n      and\n      dup2\n      mstore\n      0x20\n      add\n      swap1\n      dup2\n      mstore\n      0x20\n      add\n      0x00\n      keccak256\n        /* \"Launchpad v2.0/QubeBalance.sol\":1358:1376  userNFT[_user].IDs */\n      0x00\n      add\n        /* \"Launchpad v2.0/QubeBalance.sol\":1377:1380  _ID */\n      dup3\n        /* \"Launchpad v2.0/QubeBalance.sol\":1358:1381  userNFT[_user].IDs[_ID] */\n      dup2\n      sload\n      dup2\n      lt\n      tag_244\n      jumpi\n      tag_245\n      tag_237\n      jump\t// in\n    tag_245:\n    tag_244:\n      swap1\n      0x00\n      mstore\n      keccak256(0x00, 0x20)\n      add\n        /* \"Launchpad v2.0/QubeBalance.sol\":1358:1433  userNFT[_user].IDs[_ID] = userNFT[_user].IDs[userNFT[_user].IDs.length - 1] */\n      dup2\n      swap1\n      sstore\n      pop\n        /* \"Launchpad v2.0/QubeBalance.sol\":1282:1444  if (!(userNFT[_user].IDs[userNFT[_user].IDs.length - 1]==_ID)){... */\n    tag_239:\n        /* \"Launchpad v2.0/QubeBalance.sol\":1453:1460  userNFT */\n      0x08\n        /* \"Launchpad v2.0/QubeBalance.sol\":1453:1467  userNFT[_user] */\n      0x00\n        /* \"Launchpad v2.0/QubeBalance.sol\":1461:1466  _user */\n      dup4\n        /* \"Launchpad v2.0/QubeBalance.sol\":1453:1467  userNFT[_user] */\n      0xffffffffffffffffffffffffffffffffffffffff\n      and\n      0xffffffffffffffffffffffffffffffffffffffff\n      and\n      dup2\n      mstore\n      0x20\n      add\n      swap1\n      dup2\n      mstore\n      0x20\n      add\n      0x00\n      keccak256\n        /* \"Launchpad v2.0/QubeBalance.sol\":1453:1471  userNFT[_user].IDs */\n      0x00\n      add\n        /* \"Launchpad v2.0/QubeBalance.sol\":1453:1477  userNFT[_user].IDs.pop() */\n      dup1\n      sload\n      dup1\n      tag_247\n      jumpi\n      tag_248\n      tag_249\n      jump\t// in\n    tag_248:\n    tag_247:\n      0x01\n      swap1\n      sub\n      dup2\n      dup2\n      swap1\n      0x00\n      mstore\n      keccak256(0x00, 0x20)\n      add\n      0x00\n      swap1\n      sstore\n      swap1\n      sstore\n        /* \"Launchpad v2.0/QubeBalance.sol\":1160:1484  function removeNFT(address _user, uint256 _ID) public{... */\n      pop\n      pop\n      jump\t// out\n        /* \"Launchpad v2.0/QubeBalance.sol\":1489:1643  function addNFT(address _user, uint256 _ID) public{... */\n    tag_97:\n        /* \"Launchpad v2.0/QubeBalance.sol\":1569:1574  _user */\n      dup2\n        /* \"Launchpad v2.0/QubeBalance.sol\":1557:1574  msg.sender==_user */\n      0xffffffffffffffffffffffffffffffffffffffff\n      and\n        /* \"Launchpad v2.0/QubeBalance.sol\":1557:1567  msg.sender */\n      caller\n        /* \"Launchpad v2.0/QubeBalance.sol\":1557:1574  msg.sender==_user */\n      0xffffffffffffffffffffffffffffffffffffffff\n      and\n      eq\n        /* \"Launchpad v2.0/QubeBalance.sol\":1557:1597  msg.sender==_user || msg.sender==owner() */\n      dup1\n      tag_252\n      jumpi\n      pop\n        /* \"Launchpad v2.0/QubeBalance.sol\":1590:1597  owner() */\n      tag_253\n        /* \"Launchpad v2.0/QubeBalance.sol\":1590:1595  owner */\n      tag_116\n        /* \"Launchpad v2.0/QubeBalance.sol\":1590:1597  owner() */\n      jump\t// in\n    tag_253:\n        /* \"Launchpad v2.0/QubeBalance.sol\":1578:1597  msg.sender==owner() */\n      0xffffffffffffffffffffffffffffffffffffffff\n      and\n        /* \"Launchpad v2.0/QubeBalance.sol\":1578:1588  msg.sender */\n      caller\n        /* \"Launchpad v2.0/QubeBalance.sol\":1578:1597  msg.sender==owner() */\n      0xffffffffffffffffffffffffffffffffffffffff\n      and\n      eq\n        /* \"Launchpad v2.0/QubeBalance.sol\":1557:1597  msg.sender==_user || msg.sender==owner() */\n    tag_252:\n        /* \"Launchpad v2.0/QubeBalance.sol\":1549:1598  require(msg.sender==_user || msg.sender==owner()) */\n      tag_254\n      jumpi\n      0x00\n      dup1\n      revert\n    tag_254:\n        /* \"Launchpad v2.0/QubeBalance.sol\":1608:1615  userNFT */\n      0x08\n        /* \"Launchpad v2.0/QubeBalance.sol\":1608:1622  userNFT[_user] */\n      0x00\n        /* \"Launchpad v2.0/QubeBalance.sol\":1616:1621  _user */\n      dup4\n        /* \"Launchpad v2.0/QubeBalance.sol\":1608:1622  userNFT[_user] */\n      0xffffffffffffffffffffffffffffffffffffffff\n      and\n      0xffffffffffffffffffffffffffffffffffffffff\n      and\n      dup2\n      mstore\n      0x20\n      add\n      swap1\n      dup2\n      mstore\n      0x20\n      add\n      0x00\n      keccak256\n        /* \"Launchpad v2.0/QubeBalance.sol\":1608:1626  userNFT[_user].IDs */\n      0x00\n      add\n        /* \"Launchpad v2.0/QubeBalance.sol\":1632:1635  _ID */\n      dup2\n        /* \"Launchpad v2.0/QubeBalance.sol\":1608:1636  userNFT[_user].IDs.push(_ID) */\n      swap1\n      dup1\n      0x01\n      dup2\n      sload\n      add\n      dup1\n      dup3\n      sstore\n      dup1\n      swap2\n      pop\n      pop\n      0x01\n      swap1\n      sub\n      swap1\n      0x00\n      mstore\n      keccak256(0x00, 0x20)\n      add\n      0x00\n      swap1\n      swap2\n      swap1\n      swap2\n      swap1\n      swap2\n      pop\n      sstore\n        /* \"Launchpad v2.0/QubeBalance.sol\":1489:1643  function addNFT(address _user, uint256 _ID) public{... */\n      pop\n      pop\n      jump\t// out\n        /* \"Launchpad v2.0/QubeBalance.sol\":848:866  IBEP20 public qube */\n    tag_99:\n      0x01\n      0x00\n      swap1\n      sload\n      swap1\n      0x0100\n      exp\n      swap1\n      div\n      0xffffffffffffffffffffffffffffffffffffffff\n      and\n      dup2\n      jump\t// out\n        /* \"Launchpad v2.0/Ownable.sol\":1612:1704  function renounceOwnership() public virtual onlyOwner {... */\n    tag_103:\n        /* \"Launchpad v2.0/Ownable.sol\":1203:1215  _msgSender() */\n      tag_257\n        /* \"Launchpad v2.0/Ownable.sol\":1203:1213  _msgSender */\n      tag_145\n        /* \"Launchpad v2.0/Ownable.sol\":1203:1215  _msgSender() */\n      jump\t// in\n    tag_257:\n        /* \"Launchpad v2.0/Ownable.sol\":1192:1215  owner() == _msgSender() */\n      0xffffffffffffffffffffffffffffffffffffffff\n      and\n        /* \"Launchpad v2.0/Ownable.sol\":1192:1199  owner() */\n      tag_258\n        /* \"Launchpad v2.0/Ownable.sol\":1192:1197  owner */\n      tag_116\n        /* \"Launchpad v2.0/Ownable.sol\":1192:1199  owner() */\n      jump\t// in\n    tag_258:\n        /* \"Launchpad v2.0/Ownable.sol\":1192:1215  owner() == _msgSender() */\n      0xffffffffffffffffffffffffffffffffffffffff\n      and\n      eq\n        /* \"Launchpad v2.0/Ownable.sol\":1184:1252  require(owner() == _msgSender(), \"Ownable: caller is not the owner\") */\n      tag_259\n      jumpi\n      mload(0x40)\n      0x08c379a000000000000000000000000000000000000000000000000000000000\n      dup2\n      mstore\n      0x04\n      add\n      tag_260\n      swap1\n      tag_149\n      jump\t// in\n    tag_260:\n      mload(0x40)\n      dup1\n      swap2\n      sub\n      swap1\n      revert\n    tag_259:\n        /* \"Launchpad v2.0/Ownable.sol\":1676:1697  _setOwner(address(0)) */\n      tag_262\n        /* \"Launchpad v2.0/Ownable.sol\":1694:1695  0 */\n      0x00\n        /* \"Launchpad v2.0/Ownable.sol\":1676:1685  _setOwner */\n      tag_263\n        /* \"Launchpad v2.0/Ownable.sol\":1676:1697  _setOwner(address(0)) */\n      jump\t// in\n    tag_262:\n        /* \"Launchpad v2.0/Ownable.sol\":1612:1704  function renounceOwnership() public virtual onlyOwner {... */\n      jump\t// out\n        /* \"Launchpad v2.0/QubeBalance.sol\":2421:2509  function setDiamond(IERC1155 _diamond) public onlyOwner{... */\n    tag_106:\n        /* \"Launchpad v2.0/Ownable.sol\":1203:1215  _msgSender() */\n      tag_265\n        /* \"Launchpad v2.0/Ownable.sol\":1203:1213  _msgSender */\n      tag_145\n        /* \"Launchpad v2.0/Ownable.sol\":1203:1215  _msgSender() */\n      jump\t// in\n    tag_265:\n        /* \"Launchpad v2.0/Ownable.sol\":1192:1215  owner() == _msgSender() */\n      0xffffffffffffffffffffffffffffffffffffffff\n      and\n        /* \"Launchpad v2.0/Ownable.sol\":1192:1199  owner() */\n      tag_266\n        /* \"Launchpad v2.0/Ownable.sol\":1192:1197  owner */\n      tag_116\n        /* \"Launchpad v2.0/Ownable.sol\":1192:1199  owner() */\n      jump\t// in\n    tag_266:\n        /* \"Launchpad v2.0/Ownable.sol\":1192:1215  owner() == _msgSender() */\n      0xffffffffffffffffffffffffffffffffffffffff\n      and\n      eq\n        /* \"Launchpad v2.0/Ownable.sol\":1184:1252  require(owner() == _msgSender(), \"Ownable: caller is not the owner\") */\n      tag_267\n      jumpi\n      mload(0x40)\n      0x08c379a000000000000000000000000000000000000000000000000000000000\n      dup2\n      mstore\n      0x04\n      add\n      tag_268\n      swap1\n      tag_149\n      jump\t// in\n    tag_268:\n      mload(0x40)\n      dup1\n      swap2\n      sub\n      swap1\n      revert\n    tag_267:\n        /* \"Launchpad v2.0/QubeBalance.sol\":2494:2502  _diamond */\n      dup1\n        /* \"Launchpad v2.0/QubeBalance.sol\":2486:2493  diamond */\n      0x07\n      0x00\n        /* \"Launchpad v2.0/QubeBalance.sol\":2486:2502  diamond=_diamond */\n      0x0100\n      exp\n      dup2\n      sload\n      dup2\n      0xffffffffffffffffffffffffffffffffffffffff\n      mul\n      not\n      and\n      swap1\n      dup4\n      0xffffffffffffffffffffffffffffffffffffffff\n      and\n      mul\n      or\n      swap1\n      sstore\n      pop\n        /* \"Launchpad v2.0/QubeBalance.sol\":2421:2509  function setDiamond(IERC1155 _diamond) public onlyOwner{... */\n      pop\n      jump\t// out\n        /* \"Launchpad v2.0/QubeBalance.sol\":945:985  QubeStakeFactory public qubeStakeFactory */\n    tag_108:\n      0x04\n      0x00\n      swap1\n      sload\n      swap1\n      0x0100\n      exp\n      swap1\n      div\n      0xffffffffffffffffffffffffffffffffffffffff\n      and\n      dup2\n      jump\t// out\n        /* \"Launchpad v2.0/QubeBalance.sol\":2004:2116  function setQubePancakePair(IPancakePair _pancakePair) public onlyOwner{... */\n    tag_114:\n        /* \"Launchpad v2.0/Ownable.sol\":1203:1215  _msgSender() */\n      tag_271\n        /* \"Launchpad v2.0/Ownable.sol\":1203:1213  _msgSender */\n      tag_145\n        /* \"Launchpad v2.0/Ownable.sol\":1203:1215  _msgSender() */\n      jump\t// in\n    tag_271:\n        /* \"Launchpad v2.0/Ownable.sol\":1192:1215  owner() == _msgSender() */\n      0xffffffffffffffffffffffffffffffffffffffff\n      and\n        /* \"Launchpad v2.0/Ownable.sol\":1192:1199  owner() */\n      tag_272\n        /* \"Launchpad v2.0/Ownable.sol\":1192:1197  owner */\n      tag_116\n        /* \"Launchpad v2.0/Ownable.sol\":1192:1199  owner() */\n      jump\t// in\n    tag_272:\n        /* \"Launchpad v2.0/Ownable.sol\":1192:1215  owner() == _msgSender() */\n      0xffffffffffffffffffffffffffffffffffffffff\n      and\n      eq\n        /* \"Launchpad v2.0/Ownable.sol\":1184:1252  require(owner() == _msgSender(), \"Ownable: caller is not the owner\") */\n      tag_273\n      jumpi\n      mload(0x40)\n      0x08c379a000000000000000000000000000000000000000000000000000000000\n      dup2\n      mstore\n      0x04\n      add\n      tag_274\n      swap1\n      tag_149\n      jump\t// in\n    tag_274:\n      mload(0x40)\n      dup1\n      swap2\n      sub\n      swap1\n      revert\n    tag_273:\n        /* \"Launchpad v2.0/QubeBalance.sol\":2097:2109  _pancakePair */\n      dup1\n        /* \"Launchpad v2.0/QubeBalance.sol\":2085:2096  pancakePair */\n      0x03\n      0x00\n        /* \"Launchpad v2.0/QubeBalance.sol\":2085:2109  pancakePair=_pancakePair */\n      0x0100\n      exp\n      dup2\n      sload\n      dup2\n      0xffffffffffffffffffffffffffffffffffffffff\n      mul\n      not\n      and\n      swap1\n      dup4\n      0xffffffffffffffffffffffffffffffffffffffff\n      and\n      mul\n      or\n      swap1\n      sstore\n      pop\n        /* \"Launchpad v2.0/QubeBalance.sol\":2004:2116  function setQubePancakePair(IPancakePair _pancakePair) public onlyOwner{... */\n      pop\n      jump\t// out\n        /* \"Launchpad v2.0/Ownable.sol\":980:1065  function owner() public view virtual returns (address) {... */\n    tag_116:\n        /* \"Launchpad v2.0/Ownable.sol\":1026:1033  address */\n      0x00\n        /* \"Launchpad v2.0/Ownable.sol\":1052:1058  _owner */\n      dup1\n      0x00\n      swap1\n      sload\n      swap1\n      0x0100\n      exp\n      swap1\n      div\n      0xffffffffffffffffffffffffffffffffffffffff\n      and\n        /* \"Launchpad v2.0/Ownable.sol\":1045:1058  return _owner */\n      swap1\n      pop\n        /* \"Launchpad v2.0/Ownable.sol\":980:1065  function owner() public view virtual returns (address) {... */\n      swap1\n      jump\t// out\n        /* \"Launchpad v2.0/QubeBalance.sol\":4299:4579  function qubeBalanceWithNFT(address walletAddress) public view returns (uint256){... */\n    tag_121:\n        /* \"Launchpad v2.0/QubeBalance.sol\":4371:4378  uint256 */\n      0x00\n        /* \"Launchpad v2.0/QubeBalance.sol\":4544:4572  getNFTBalance(walletAddress) */\n      tag_278\n        /* \"Launchpad v2.0/QubeBalance.sol\":4558:4571  walletAddress */\n      dup3\n        /* \"Launchpad v2.0/QubeBalance.sol\":4544:4557  getNFTBalance */\n      tag_129\n        /* \"Launchpad v2.0/QubeBalance.sol\":4544:4572  getNFTBalance(walletAddress) */\n      jump\t// in\n    tag_278:\n        /* \"Launchpad v2.0/QubeBalance.sol\":4502:4543  getQubeStakeFactoryBalance(walletAddress) */\n      tag_279\n        /* \"Launchpad v2.0/QubeBalance.sol\":4529:4542  walletAddress */\n      dup4\n        /* \"Launchpad v2.0/QubeBalance.sol\":4502:4528  getQubeStakeFactoryBalance */\n      tag_82\n        /* \"Launchpad v2.0/QubeBalance.sol\":4502:4543  getQubeStakeFactoryBalance(walletAddress) */\n      jump\t// in\n    tag_279:\n        /* \"Launchpad v2.0/QubeBalance.sol\":4465:4501  getPancakePairBalance(walletAddress) */\n      tag_280\n        /* \"Launchpad v2.0/QubeBalance.sol\":4487:4500  walletAddress */\n      dup5\n        /* \"Launchpad v2.0/QubeBalance.sol\":4465:4486  getPancakePairBalance */\n      tag_90\n        /* \"Launchpad v2.0/QubeBalance.sol\":4465:4501  getPancakePairBalance(walletAddress) */\n      jump\t// in\n    tag_280:\n        /* \"Launchpad v2.0/QubeBalance.sol\":4428:4464  getQubePresaleBalance(walletAddress) */\n      tag_281\n        /* \"Launchpad v2.0/QubeBalance.sol\":4450:4463  walletAddress */\n      dup6\n        /* \"Launchpad v2.0/QubeBalance.sol\":4428:4449  getQubePresaleBalance */\n      tag_78\n        /* \"Launchpad v2.0/QubeBalance.sol\":4428:4464  getQubePresaleBalance(walletAddress) */\n      jump\t// in\n    tag_281:\n        /* \"Launchpad v2.0/QubeBalance.sol\":4396:4425  getQubeBalance(walletAddress) */\n      tag_282\n        /* \"Launchpad v2.0/QubeBalance.sol\":4411:4424  walletAddress */\n      dup7\n        /* \"Launchpad v2.0/QubeBalance.sol\":4396:4410  getQubeBalance */\n      tag_86\n        /* \"Launchpad v2.0/QubeBalance.sol\":4396:4425  getQubeBalance(walletAddress) */\n      jump\t// in\n    tag_282:\n        /* \"Launchpad v2.0/QubeBalance.sol\":4396:4464  getQubeBalance(walletAddress) + getQubePresaleBalance(walletAddress) */\n      tag_283\n      swap2\n      swap1\n      tag_163\n      jump\t// in\n    tag_283:\n        /* \"Launchpad v2.0/QubeBalance.sol\":4396:4501  getQubeBalance(walletAddress) + getQubePresaleBalance(walletAddress)+getPancakePairBalance(walletAddress) */\n      tag_284\n      swap2\n      swap1\n      tag_163\n      jump\t// in\n    tag_284:\n        /* \"Launchpad v2.0/QubeBalance.sol\":4396:4543  getQubeBalance(walletAddress) + getQubePresaleBalance(walletAddress)+getPancakePairBalance(walletAddress)+getQubeStakeFactoryBalance(walletAddress) */\n      tag_285\n      swap2\n      swap1\n      tag_163\n      jump\t// in\n    tag_285:\n        /* \"Launchpad v2.0/QubeBalance.sol\":4396:4572  getQubeBalance(walletAddress) + getQubePresaleBalance(walletAddress)+getPancakePairBalance(walletAddress)+getQubeStakeFactoryBalance(walletAddress)+getNFTBalance(walletAddress) */\n      tag_286\n      swap2\n      swap1\n      tag_163\n      jump\t// in\n    tag_286:\n        /* \"Launchpad v2.0/QubeBalance.sol\":4389:4572  return getQubeBalance(walletAddress) + getQubePresaleBalance(walletAddress)+getPancakePairBalance(walletAddress)+getQubeStakeFactoryBalance(walletAddress)+getNFTBalance(walletAddress) */\n      swap1\n      pop\n        /* \"Launchpad v2.0/QubeBalance.sol\":4299:4579  function qubeBalanceWithNFT(address walletAddress) public view returns (uint256){... */\n      swap2\n      swap1\n      pop\n      jump\t// out\n        /* \"Launchpad v2.0/QubeBalance.sol\":908:939  IPancakePair public pancakePair */\n    tag_124:\n      0x03\n      0x00\n      swap1\n      sload\n      swap1\n      0x0100\n      exp\n      swap1\n      div\n      0xffffffffffffffffffffffffffffffffffffffff\n      and\n      dup2\n      jump\t// out\n        /* \"Launchpad v2.0/QubeBalance.sol\":3602:4040  function getNFTBalance(address walletAddress)public view returns (uint256){... */\n    tag_129:\n        /* \"Launchpad v2.0/QubeBalance.sol\":3668:3675  uint256 */\n      0x00\n        /* \"Launchpad v2.0/QubeBalance.sol\":3686:3701  uint256 balance */\n      dup1\n        /* \"Launchpad v2.0/QubeBalance.sol\":3702:3703  0 */\n      0x00\n        /* \"Launchpad v2.0/QubeBalance.sol\":3686:3703  uint256 balance=0 */\n      swap1\n      pop\n        /* \"Launchpad v2.0/QubeBalance.sol\":3718:3724  uint i */\n      0x00\n        /* \"Launchpad v2.0/QubeBalance.sol\":3713:3807  for (uint i=0;i<=1100;i++){... */\n    tag_288:\n        /* \"Launchpad v2.0/QubeBalance.sol\":3730:3734  1100 */\n      0x044c\n        /* \"Launchpad v2.0/QubeBalance.sol\":3727:3728  i */\n      dup2\n        /* \"Launchpad v2.0/QubeBalance.sol\":3727:3734  i<=1100 */\n      gt\n        /* \"Launchpad v2.0/QubeBalance.sol\":3713:3807  for (uint i=0;i<=1100;i++){... */\n      tag_289\n      jumpi\n        /* \"Launchpad v2.0/QubeBalance.sol\":3762:3768  silver */\n      0x05\n      0x00\n      swap1\n      sload\n      swap1\n      0x0100\n      exp\n      swap1\n      div\n      0xffffffffffffffffffffffffffffffffffffffff\n      and\n        /* \"Launchpad v2.0/QubeBalance.sol\":3762:3778  silver.balanceOf */\n      0xffffffffffffffffffffffffffffffffffffffff\n      and\n      0xfdd58e\n        /* \"Launchpad v2.0/QubeBalance.sol\":3779:3792  walletAddress */\n      dup6\n        /* \"Launchpad v2.0/QubeBalance.sol\":3794:3795  i */\n      dup4\n        /* \"Launchpad v2.0/QubeBalance.sol\":3762:3796  silver.balanceOf(walletAddress, i) */\n      mload(0x40)\n      dup4\n      0xffffffff\n      and\n      0xe0\n      shl\n      dup2\n      mstore\n      0x04\n      add\n      tag_291\n      swap3\n      swap2\n      swap1\n      tag_292\n      jump\t// in\n    tag_291:\n      0x20\n      mload(0x40)\n      dup1\n      dup4\n      sub\n      dup2\n      dup7\n      dup1\n      extcodesize\n      iszero\n      dup1\n      iszero\n      tag_293\n      jumpi\n      0x00\n      dup1\n      revert\n    tag_293:\n      pop\n      gas\n      staticcall\n      iszero\n      dup1\n      iszero\n      tag_295\n      jumpi\n      returndatasize\n      0x00\n      dup1\n      returndatacopy\n      revert(0x00, returndatasize)\n    tag_295:\n      pop\n      pop\n      pop\n      pop\n      mload(0x40)\n      returndatasize\n      not(0x1f)\n      0x1f\n      dup3\n      add\n      and\n      dup3\n      add\n      dup1\n      0x40\n      mstore\n      pop\n      dup2\n      add\n      swap1\n      tag_296\n      swap2\n      swap1\n      tag_188\n      jump\t// in\n    tag_296:\n        /* \"Launchpad v2.0/QubeBalance.sol\":3753:3796  balance+=silver.balanceOf(walletAddress, i) */\n      dup3\n      tag_297\n      swap2\n      swap1\n      tag_163\n      jump\t// in\n    tag_297:\n      swap2\n      pop\n        /* \"Launchpad v2.0/QubeBalance.sol\":3735:3738  i++ */\n      dup1\n      dup1\n      tag_298\n      swap1\n      tag_207\n      jump\t// in\n    tag_298:\n      swap2\n      pop\n      pop\n        /* \"Launchpad v2.0/QubeBalance.sol\":3713:3807  for (uint i=0;i<=1100;i++){... */\n      jump(tag_288)\n    tag_289:\n      pop\n        /* \"Launchpad v2.0/QubeBalance.sol\":3821:3827  uint i */\n      0x00\n        /* \"Launchpad v2.0/QubeBalance.sol\":3816:3907  for (uint i=0;i<=300;i++){... */\n    tag_299:\n        /* \"Launchpad v2.0/QubeBalance.sol\":3833:3836  300 */\n      0x012c\n        /* \"Launchpad v2.0/QubeBalance.sol\":3830:3831  i */\n      dup2\n        /* \"Launchpad v2.0/QubeBalance.sol\":3830:3836  i<=300 */\n      gt\n        /* \"Launchpad v2.0/QubeBalance.sol\":3816:3907  for (uint i=0;i<=300;i++){... */\n      tag_300\n      jumpi\n        /* \"Launchpad v2.0/QubeBalance.sol\":3864:3868  gold */\n      0x06\n      0x00\n      swap1\n      sload\n      swap1\n      0x0100\n      exp\n      swap1\n      div\n      0xffffffffffffffffffffffffffffffffffffffff\n      and\n        /* \"Launchpad v2.0/QubeBalance.sol\":3864:3878  gold.balanceOf */\n      0xffffffffffffffffffffffffffffffffffffffff\n      and\n      0xfdd58e\n        /* \"Launchpad v2.0/QubeBalance.sol\":3879:3892  walletAddress */\n      dup6\n        /* \"Launchpad v2.0/QubeBalance.sol\":3894:3895  i */\n      dup4\n        /* \"Launchpad v2.0/QubeBalance.sol\":3864:3896  gold.balanceOf(walletAddress, i) */\n      mload(0x40)\n      dup4\n      0xffffffff\n      and\n      0xe0\n      shl\n      dup2\n      mstore\n      0x04\n      add\n      tag_302\n      swap3\n      swap2\n      swap1\n      tag_292\n      jump\t// in\n    tag_302:\n      0x20\n      mload(0x40)\n      dup1\n      dup4\n      sub\n      dup2\n      dup7\n      dup1\n      extcodesize\n      iszero\n      dup1\n      iszero\n      tag_303\n      jumpi\n      0x00\n      dup1\n      revert\n    tag_303:\n      pop\n      gas\n      staticcall\n      iszero\n      dup1\n      iszero\n      tag_305\n      jumpi\n      returndatasize\n      0x00\n      dup1\n      returndatacopy\n      revert(0x00, returndatasize)\n    tag_305:\n      pop\n      pop\n      pop\n      pop\n      mload(0x40)\n      returndatasize\n      not(0x1f)\n      0x1f\n      dup3\n      add\n      and\n      dup3\n      add\n      dup1\n      0x40\n      mstore\n      pop\n      dup2\n      add\n      swap1\n      tag_306\n      swap2\n      swap1\n      tag_188\n      jump\t// in\n    tag_306:\n        /* \"Launchpad v2.0/QubeBalance.sol\":3855:3896  balance+=gold.balanceOf(walletAddress, i) */\n      dup3\n      tag_307\n      swap2\n      swap1\n      tag_163\n      jump\t// in\n    tag_307:\n      swap2\n      pop\n        /* \"Launchpad v2.0/QubeBalance.sol\":3837:3840  i++ */\n      dup1\n      dup1\n      tag_308\n      swap1\n      tag_207\n      jump\t// in\n    tag_308:\n      swap2\n      pop\n      pop\n        /* \"Launchpad v2.0/QubeBalance.sol\":3816:3907  for (uint i=0;i<=300;i++){... */\n      jump(tag_299)\n    tag_300:\n      pop\n        /* \"Launchpad v2.0/QubeBalance.sol\":3921:3927  uint i */\n      0x00\n        /* \"Launchpad v2.0/QubeBalance.sol\":3916:4010  for (uint i=0;i<=100;i++){... */\n    tag_309:\n        /* \"Launchpad v2.0/QubeBalance.sol\":3933:3936  100 */\n      0x64\n        /* \"Launchpad v2.0/QubeBalance.sol\":3930:3931  i */\n      dup2\n        /* \"Launchpad v2.0/QubeBalance.sol\":3930:3936  i<=100 */\n      gt\n        /* \"Launchpad v2.0/QubeBalance.sol\":3916:4010  for (uint i=0;i<=100;i++){... */\n      tag_310\n      jumpi\n        /* \"Launchpad v2.0/QubeBalance.sol\":3964:3971  diamond */\n      0x07\n      0x00\n      swap1\n      sload\n      swap1\n      0x0100\n      exp\n      swap1\n      div\n      0xffffffffffffffffffffffffffffffffffffffff\n      and\n        /* \"Launchpad v2.0/QubeBalance.sol\":3964:3981  diamond.balanceOf */\n      0xffffffffffffffffffffffffffffffffffffffff\n      and\n      0xfdd58e\n        /* \"Launchpad v2.0/QubeBalance.sol\":3982:3995  walletAddress */\n      dup6\n        /* \"Launchpad v2.0/QubeBalance.sol\":3997:3998  i */\n      dup4\n        /* \"Launchpad v2.0/QubeBalance.sol\":3964:3999  diamond.balanceOf(walletAddress, i) */\n      mload(0x40)\n      dup4\n      0xffffffff\n      and\n      0xe0\n      shl\n      dup2\n      mstore\n      0x04\n      add\n      tag_312\n      swap3\n      swap2\n      swap1\n      tag_292\n      jump\t// in\n    tag_312:\n      0x20\n      mload(0x40)\n      dup1\n      dup4\n      sub\n      dup2\n      dup7\n      dup1\n      extcodesize\n      iszero\n      dup1\n      iszero\n      tag_313\n      jumpi\n      0x00\n      dup1\n      revert\n    tag_313:\n      pop\n      gas\n      staticcall\n      iszero\n      dup1\n      iszero\n      tag_315\n      jumpi\n      returndatasize\n      0x00\n      dup1\n      returndatacopy\n      revert(0x00, returndatasize)\n    tag_315:\n      pop\n      pop\n      pop\n      pop\n      mload(0x40)\n      returndatasize\n      not(0x1f)\n      0x1f\n      dup3\n      add\n      and\n      dup3\n      add\n      dup1\n      0x40\n      mstore\n      pop\n      dup2\n      add\n      swap1\n      tag_316\n      swap2\n      swap1\n      tag_188\n      jump\t// in\n    tag_316:\n        /* \"Launchpad v2.0/QubeBalance.sol\":3955:3999  balance+=diamond.balanceOf(walletAddress, i) */\n      dup3\n      tag_317\n      swap2\n      swap1\n      tag_163\n      jump\t// in\n    tag_317:\n      swap2\n      pop\n        /* \"Launchpad v2.0/QubeBalance.sol\":3937:3940  i++ */\n      dup1\n      dup1\n      tag_318\n      swap1\n      tag_207\n      jump\t// in\n    tag_318:\n      swap2\n      pop\n      pop\n        /* \"Launchpad v2.0/QubeBalance.sol\":3916:4010  for (uint i=0;i<=100;i++){... */\n      jump(tag_309)\n    tag_310:\n      pop\n        /* \"Launchpad v2.0/QubeBalance.sol\":4026:4033  balance */\n      dup1\n        /* \"Launchpad v2.0/QubeBalance.sol\":4019:4033  return balance */\n      swap2\n      pop\n      pop\n        /* \"Launchpad v2.0/QubeBalance.sol\":3602:4040  function getNFTBalance(address walletAddress)public view returns (uint256){... */\n      swap2\n      swap1\n      pop\n      jump\t// out\n        /* \"Launchpad v2.0/QubeBalance.sol\":1045:1068  IERC1155 public diamond */\n    tag_132:\n      0x07\n      0x00\n      swap1\n      sload\n      swap1\n      0x0100\n      exp\n      swap1\n      div\n      0xffffffffffffffffffffffffffffffffffffffff\n      and\n      dup2\n      jump\t// out\n        /* \"Launchpad v2.0/Ownable.sol\":1853:2042  function transferOwnership(address newOwner) public virtual onlyOwner {... */\n    tag_136:\n        /* \"Launchpad v2.0/Ownable.sol\":1203:1215  _msgSender() */\n      tag_320\n        /* \"Launchpad v2.0/Ownable.sol\":1203:1213  _msgSender */\n      tag_145\n        /* \"Launchpad v2.0/Ownable.sol\":1203:1215  _msgSender() */\n      jump\t// in\n    tag_320:\n        /* \"Launchpad v2.0/Ownable.sol\":1192:1215  owner() == _msgSender() */\n      0xffffffffffffffffffffffffffffffffffffffff\n      and\n        /* \"Launchpad v2.0/Ownable.sol\":1192:1199  owner() */\n      tag_321\n        /* \"Launchpad v2.0/Ownable.sol\":1192:1197  owner */\n      tag_116\n        /* \"Launchpad v2.0/Ownable.sol\":1192:1199  owner() */\n      jump\t// in\n    tag_321:\n        /* \"Launchpad v2.0/Ownable.sol\":1192:1215  owner() == _msgSender() */\n      0xffffffffffffffffffffffffffffffffffffffff\n      and\n      eq\n        /* \"Launchpad v2.0/Ownable.sol\":1184:1252  require(owner() == _msgSender(), \"Ownable: caller is not the owner\") */\n      tag_322\n      jumpi\n      mload(0x40)\n      0x08c379a000000000000000000000000000000000000000000000000000000000\n      dup2\n      mstore\n      0x04\n      add\n      tag_323\n      swap1\n      tag_149\n      jump\t// in\n    tag_323:\n      mload(0x40)\n      dup1\n      swap2\n      sub\n      swap1\n      revert\n    tag_322:\n        /* \"Launchpad v2.0/Ownable.sol\":1961:1962  0 */\n      0x00\n        /* \"Launchpad v2.0/Ownable.sol\":1941:1963  newOwner != address(0) */\n      0xffffffffffffffffffffffffffffffffffffffff\n      and\n        /* \"Launchpad v2.0/Ownable.sol\":1941:1949  newOwner */\n      dup2\n        /* \"Launchpad v2.0/Ownable.sol\":1941:1963  newOwner != address(0) */\n      0xffffffffffffffffffffffffffffffffffffffff\n      and\n      eq\n      iszero\n        /* \"Launchpad v2.0/Ownable.sol\":1933:2006  require(newOwner != address(0), \"Ownable: new owner is the zero address\") */\n      tag_325\n      jumpi\n      mload(0x40)\n      0x08c379a000000000000000000000000000000000000000000000000000000000\n      dup2\n      mstore\n      0x04\n      add\n      tag_326\n      swap1\n      tag_327\n      jump\t// in\n    tag_326:\n      mload(0x40)\n      dup1\n      swap2\n      sub\n      swap1\n      revert\n    tag_325:\n        /* \"Launchpad v2.0/Ownable.sol\":2016:2035  _setOwner(newOwner) */\n      tag_328\n        /* \"Launchpad v2.0/Ownable.sol\":2026:2034  newOwner */\n      dup2\n        /* \"Launchpad v2.0/Ownable.sol\":2016:2025  _setOwner */\n      tag_263\n        /* \"Launchpad v2.0/Ownable.sol\":2016:2035  _setOwner(newOwner) */\n      jump\t// in\n    tag_328:\n        /* \"Launchpad v2.0/Ownable.sol\":1853:2042  function transferOwnership(address newOwner) public virtual onlyOwner {... */\n      pop\n      jump\t// out\n        /* \"Launchpad v2.0/QubeBalance.sol\":2251:2335  function setSilver(IERC1155 _silver) public onlyOwner{... */\n    tag_139:\n        /* \"Launchpad v2.0/Ownable.sol\":1203:1215  _msgSender() */\n      tag_330\n        /* \"Launchpad v2.0/Ownable.sol\":1203:1213  _msgSender */\n      tag_145\n        /* \"Launchpad v2.0/Ownable.sol\":1203:1215  _msgSender() */\n      jump\t// in\n    tag_330:\n        /* \"Launchpad v2.0/Ownable.sol\":1192:1215  owner() == _msgSender() */\n      0xffffffffffffffffffffffffffffffffffffffff\n      and\n        /* \"Launchpad v2.0/Ownable.sol\":1192:1199  owner() */\n      tag_331\n        /* \"Launchpad v2.0/Ownable.sol\":1192:1197  owner */\n      tag_116\n        /* \"Launchpad v2.0/Ownable.sol\":1192:1199  owner() */\n      jump\t// in\n    tag_331:\n        /* \"Launchpad v2.0/Ownable.sol\":1192:1215  owner() == _msgSender() */\n      0xffffffffffffffffffffffffffffffffffffffff\n      and\n      eq\n        /* \"Launchpad v2.0/Ownable.sol\":1184:1252  require(owner() == _msgSender(), \"Ownable: caller is not the owner\") */\n      tag_332\n      jumpi\n      mload(0x40)\n      0x08c379a000000000000000000000000000000000000000000000000000000000\n      dup2\n      mstore\n      0x04\n      add\n      tag_333\n      swap1\n      tag_149\n      jump\t// in\n    tag_333:\n      mload(0x40)\n      dup1\n      swap2\n      sub\n      swap1\n      revert\n    tag_332:\n        /* \"Launchpad v2.0/QubeBalance.sol\":2321:2328  _silver */\n      dup1\n        /* \"Launchpad v2.0/QubeBalance.sol\":2314:2320  silver */\n      0x05\n      0x00\n        /* \"Launchpad v2.0/QubeBalance.sol\":2314:2328  silver=_silver */\n      0x0100\n      exp\n      dup2\n      sload\n      dup2\n      0xffffffffffffffffffffffffffffffffffffffff\n      mul\n      not\n      and\n      swap1\n      dup4\n      0xffffffffffffffffffffffffffffffffffffffff\n      and\n      mul\n      or\n      swap1\n      sstore\n      pop\n        /* \"Launchpad v2.0/QubeBalance.sol\":2251:2335  function setSilver(IERC1155 _silver) public onlyOwner{... */\n      pop\n      jump\t// out\n        /* \"Launchpad v2.0/QubeBalance.sol\":1019:1039  IERC1155 public gold */\n    tag_141:\n      0x06\n      0x00\n      swap1\n      sload\n      swap1\n      0x0100\n      exp\n      swap1\n      div\n      0xffffffffffffffffffffffffffffffffffffffff\n      and\n      dup2\n      jump\t// out\n        /* \"Launchpad v2.0/Context.sol\":600:696  function _msgSender() internal view virtual returns (address) {... */\n    tag_145:\n        /* \"Launchpad v2.0/Context.sol\":653:660  address */\n      0x00\n        /* \"Launchpad v2.0/Context.sol\":679:689  msg.sender */\n      caller\n        /* \"Launchpad v2.0/Context.sol\":672:689  return msg.sender */\n      swap1\n      pop\n        /* \"Launchpad v2.0/Context.sol\":600:696  function _msgSender() internal view virtual returns (address) {... */\n      swap1\n      jump\t// out\n        /* \"Launchpad v2.0/SafeMath.sol\":3791:3887  function div(uint256 a, uint256 b) internal pure returns (uint256) {... */\n    tag_221:\n        /* \"Launchpad v2.0/SafeMath.sol\":3849:3856  uint256 */\n      0x00\n        /* \"Launchpad v2.0/SafeMath.sol\":3879:3880  b */\n      dup2\n        /* \"Launchpad v2.0/SafeMath.sol\":3875:3876  a */\n      dup4\n        /* \"Launchpad v2.0/SafeMath.sol\":3875:3880  a / b */\n      tag_337\n      swap2\n      swap1\n      tag_338\n      jump\t// in\n    tag_337:\n        /* \"Launchpad v2.0/SafeMath.sol\":3868:3880  return a / b */\n      swap1\n      pop\n        /* \"Launchpad v2.0/SafeMath.sol\":3791:3887  function div(uint256 a, uint256 b) internal pure returns (uint256) {... */\n      swap3\n      swap2\n      pop\n      pop\n      jump\t// out\n        /* \"Launchpad v2.0/SafeMath.sol\":3406:3502  function mul(uint256 a, uint256 b) internal pure returns (uint256) {... */\n    tag_228:\n        /* \"Launchpad v2.0/SafeMath.sol\":3464:3471  uint256 */\n      0x00\n        /* \"Launchpad v2.0/SafeMath.sol\":3494:3495  b */\n      dup2\n        /* \"Launchpad v2.0/SafeMath.sol\":3490:3491  a */\n      dup4\n        /* \"Launchpad v2.0/SafeMath.sol\":3490:3495  a * b */\n      tag_340\n      swap2\n      swap1\n      tag_341\n      jump\t// in\n    tag_340:\n        /* \"Launchpad v2.0/SafeMath.sol\":3483:3495  return a * b */\n      swap1\n      pop\n        /* \"Launchpad v2.0/SafeMath.sol\":3406:3502  function mul(uint256 a, uint256 b) internal pure returns (uint256) {... */\n      swap3\n      swap2\n      pop\n      pop\n      jump\t// out\n        /* \"Launchpad v2.0/Ownable.sol\":2048:2218  function _setOwner(address newOwner) internal {... */\n    tag_263:\n        /* \"Launchpad v2.0/Ownable.sol\":2104:2120  address oldOwner */\n      0x00\n        /* \"Launchpad v2.0/Ownable.sol\":2123:2129  _owner */\n      dup1\n      0x00\n      swap1\n      sload\n      swap1\n      0x0100\n      exp\n      swap1\n      div\n      0xffffffffffffffffffffffffffffffffffffffff\n      and\n        /* \"Launchpad v2.0/Ownable.sol\":2104:2129  address oldOwner = _owner */\n      swap1\n      pop\n        /* \"Launchpad v2.0/Ownable.sol\":2148:2156  newOwner */\n      dup2\n        /* \"Launchpad v2.0/Ownable.sol\":2139:2145  _owner */\n      0x00\n      dup1\n        /* \"Launchpad v2.0/Ownable.sol\":2139:2156  _owner = newOwner */\n      0x0100\n      exp\n      dup2\n      sload\n      dup2\n      0xffffffffffffffffffffffffffffffffffffffff\n      mul\n      not\n      and\n      swap1\n      dup4\n      0xffffffffffffffffffffffffffffffffffffffff\n      and\n      mul\n      or\n      swap1\n      sstore\n      pop\n        /* \"Launchpad v2.0/Ownable.sol\":2202:2210  newOwner */\n      dup2\n        /* \"Launchpad v2.0/Ownable.sol\":2171:2211  OwnershipTransferred(oldOwner, newOwner) */\n      0xffffffffffffffffffffffffffffffffffffffff\n      and\n        /* \"Launchpad v2.0/Ownable.sol\":2192:2200  oldOwner */\n      dup2\n        /* \"Launchpad v2.0/Ownable.sol\":2171:2211  OwnershipTransferred(oldOwner, newOwner) */\n      0xffffffffffffffffffffffffffffffffffffffff\n      and\n      0x8be0079c531659141344cd1fd0a4f28419497f9722a3daafe3b4186f6b6457e0\n      mload(0x40)\n      mload(0x40)\n      dup1\n      swap2\n      sub\n      swap1\n      log3\n        /* \"Launchpad v2.0/Ownable.sol\":2094:2218  {... */\n      pop\n        /* \"Launchpad v2.0/Ownable.sol\":2048:2218  function _setOwner(address newOwner) internal {... */\n      pop\n      jump\t// out\n        /* \"#utility.yul\":24:768   */\n    tag_344:\n        /* \"#utility.yul\":131:136   */\n      0x00\n        /* \"#utility.yul\":156:237   */\n      tag_346\n        /* \"#utility.yul\":172:236   */\n      tag_347\n        /* \"#utility.yul\":229:235   */\n      dup5\n        /* \"#utility.yul\":172:236   */\n      tag_348\n      jump\t// in\n    tag_347:\n        /* \"#utility.yul\":156:237   */\n      tag_349\n      jump\t// in\n    tag_346:\n        /* \"#utility.yul\":147:237   */\n      swap1\n      pop\n        /* \"#utility.yul\":257:262   */\n      dup1\n        /* \"#utility.yul\":286:292   */\n      dup4\n        /* \"#utility.yul\":279:284   */\n      dup3\n        /* \"#utility.yul\":272:293   */\n      mstore\n        /* \"#utility.yul\":320:324   */\n      0x20\n        /* \"#utility.yul\":313:318   */\n      dup3\n        /* \"#utility.yul\":309:325   */\n      add\n        /* \"#utility.yul\":302:325   */\n      swap1\n      pop\n        /* \"#utility.yul\":346:352   */\n      dup3\n        /* \"#utility.yul\":396:399   */\n      dup6\n        /* \"#utility.yul\":388:392   */\n      0x20\n        /* \"#utility.yul\":380:386   */\n      dup7\n        /* \"#utility.yul\":376:393   */\n      mul\n        /* \"#utility.yul\":371:374   */\n      dup3\n        /* \"#utility.yul\":367:394   */\n      add\n        /* \"#utility.yul\":364:400   */\n      gt\n        /* \"#utility.yul\":361:504   */\n      iszero\n      tag_350\n      jumpi\n        /* \"#utility.yul\":415:494   */\n      tag_351\n      tag_352\n      jump\t// in\n    tag_351:\n        /* \"#utility.yul\":361:504   */\n    tag_350:\n        /* \"#utility.yul\":528:529   */\n      0x00\n        /* \"#utility.yul\":513:762   */\n    tag_353:\n        /* \"#utility.yul\":538:544   */\n      dup6\n        /* \"#utility.yul\":535:536   */\n      dup2\n        /* \"#utility.yul\":532:545   */\n      lt\n        /* \"#utility.yul\":513:762   */\n      iszero\n      tag_355\n      jumpi\n        /* \"#utility.yul\":606:609   */\n      dup2\n        /* \"#utility.yul\":635:683   */\n      tag_356\n        /* \"#utility.yul\":679:682   */\n      dup9\n        /* \"#utility.yul\":667:677   */\n      dup3\n        /* \"#utility.yul\":635:683   */\n      tag_357\n      jump\t// in\n    tag_356:\n        /* \"#utility.yul\":630:633   */\n      dup5\n        /* \"#utility.yul\":623:684   */\n      mstore\n        /* \"#utility.yul\":713:717   */\n      0x20\n        /* \"#utility.yul\":708:711   */\n      dup5\n        /* \"#utility.yul\":704:718   */\n      add\n        /* \"#utility.yul\":697:718   */\n      swap4\n      pop\n        /* \"#utility.yul\":747:751   */\n      0x20\n        /* \"#utility.yul\":742:745   */\n      dup4\n        /* \"#utility.yul\":738:752   */\n      add\n        /* \"#utility.yul\":731:752   */\n      swap3\n      pop\n        /* \"#utility.yul\":573:762   */\n      pop\n        /* \"#utility.yul\":560:561   */\n      0x01\n        /* \"#utility.yul\":557:558   */\n      dup2\n        /* \"#utility.yul\":553:562   */\n      add\n        /* \"#utility.yul\":548:562   */\n      swap1\n      pop\n        /* \"#utility.yul\":513:762   */\n      jump(tag_353)\n    tag_355:\n        /* \"#utility.yul\":517:531   */\n      pop\n        /* \"#utility.yul\":137:768   */\n      pop\n      pop\n        /* \"#utility.yul\":24:768   */\n      swap4\n      swap3\n      pop\n      pop\n      pop\n      jump\t// out\n        /* \"#utility.yul\":774:913   */\n    tag_358:\n        /* \"#utility.yul\":820:825   */\n      0x00\n        /* \"#utility.yul\":858:864   */\n      dup2\n        /* \"#utility.yul\":845:865   */\n      calldataload\n        /* \"#utility.yul\":836:865   */\n      swap1\n      pop\n        /* \"#utility.yul\":874:907   */\n      tag_360\n        /* \"#utility.yul\":901:906   */\n      dup2\n        /* \"#utility.yul\":874:907   */\n      tag_361\n      jump\t// in\n    tag_360:\n        /* \"#utility.yul\":774:913   */\n      swap3\n      swap2\n      pop\n      pop\n      jump\t// out\n        /* \"#utility.yul\":919:1062   */\n    tag_362:\n        /* \"#utility.yul\":976:981   */\n      0x00\n        /* \"#utility.yul\":1007:1013   */\n      dup2\n        /* \"#utility.yul\":1001:1014   */\n      mload\n        /* \"#utility.yul\":992:1014   */\n      swap1\n      pop\n        /* \"#utility.yul\":1023:1056   */\n      tag_364\n        /* \"#utility.yul\":1050:1055   */\n      dup2\n        /* \"#utility.yul\":1023:1056   */\n      tag_361\n      jump\t// in\n    tag_364:\n        /* \"#utility.yul\":919:1062   */\n      swap3\n      swap2\n      pop\n      pop\n      jump\t// out\n        /* \"#utility.yul\":1085:1470   */\n    tag_365:\n        /* \"#utility.yul\":1167:1172   */\n      0x00\n        /* \"#utility.yul\":1216:1219   */\n      dup3\n        /* \"#utility.yul\":1209:1213   */\n      0x1f\n        /* \"#utility.yul\":1201:1207   */\n      dup4\n        /* \"#utility.yul\":1197:1214   */\n      add\n        /* \"#utility.yul\":1193:1220   */\n      slt\n        /* \"#utility.yul\":1183:1305   */\n      tag_367\n      jumpi\n        /* \"#utility.yul\":1224:1303   */\n      tag_368\n      tag_369\n      jump\t// in\n    tag_368:\n        /* \"#utility.yul\":1183:1305   */\n    tag_367:\n        /* \"#utility.yul\":1334:1340   */\n      dup2\n        /* \"#utility.yul\":1328:1341   */\n      mload\n        /* \"#utility.yul\":1359:1464   */\n      tag_370\n        /* \"#utility.yul\":1460:1463   */\n      dup5\n        /* \"#utility.yul\":1452:1458   */\n      dup3\n        /* \"#utility.yul\":1445:1449   */\n      0x20\n        /* \"#utility.yul\":1437:1443   */\n      dup7\n        /* \"#utility.yul\":1433:1450   */\n      add\n        /* \"#utility.yul\":1359:1464   */\n      tag_344\n      jump\t// in\n    tag_370:\n        /* \"#utility.yul\":1350:1464   */\n      swap2\n      pop\n        /* \"#utility.yul\":1173:1470   */\n      pop\n        /* \"#utility.yul\":1085:1470   */\n      swap3\n      swap2\n      pop\n      pop\n      jump\t// out\n        /* \"#utility.yul\":1476:1643   */\n    tag_371:\n        /* \"#utility.yul\":1536:1541   */\n      0x00\n        /* \"#utility.yul\":1574:1580   */\n      dup2\n        /* \"#utility.yul\":1561:1581   */\n      calldataload\n        /* \"#utility.yul\":1552:1581   */\n      swap1\n      pop\n        /* \"#utility.yul\":1590:1637   */\n      tag_373\n        /* \"#utility.yul\":1631:1636   */\n      dup2\n        /* \"#utility.yul\":1590:1637   */\n      tag_374\n      jump\t// in\n    tag_373:\n        /* \"#utility.yul\":1476:1643   */\n      swap3\n      swap2\n      pop\n      pop\n      jump\t// out\n        /* \"#utility.yul\":1649:1820   */\n    tag_375:\n        /* \"#utility.yul\":1711:1716   */\n      0x00\n        /* \"#utility.yul\":1749:1755   */\n      dup2\n        /* \"#utility.yul\":1736:1756   */\n      calldataload\n        /* \"#utility.yul\":1727:1756   */\n      swap1\n      pop\n        /* \"#utility.yul\":1765:1814   */\n      tag_377\n        /* \"#utility.yul\":1808:1813   */\n      dup2\n        /* \"#utility.yul\":1765:1814   */\n      tag_378\n      jump\t// in\n    tag_377:\n        /* \"#utility.yul\":1649:1820   */\n      swap3\n      swap2\n      pop\n      pop\n      jump\t// out\n        /* \"#utility.yul\":1826:2005   */\n    tag_379:\n        /* \"#utility.yul\":1892:1897   */\n      0x00\n        /* \"#utility.yul\":1930:1936   */\n      dup2\n        /* \"#utility.yul\":1917:1937   */\n      calldataload\n        /* \"#utility.yul\":1908:1937   */\n      swap1\n      pop\n        /* \"#utility.yul\":1946:1999   */\n      tag_381\n        /* \"#utility.yul\":1993:1998   */\n      dup2\n        /* \"#utility.yul\":1946:1999   */\n      tag_382\n      jump\t// in\n    tag_381:\n        /* \"#utility.yul\":1826:2005   */\n      swap3\n      swap2\n      pop\n      pop\n      jump\t// out\n        /* \"#utility.yul\":2011:2190   */\n    tag_383:\n        /* \"#utility.yul\":2077:2082   */\n      0x00\n        /* \"#utility.yul\":2115:2121   */\n      dup2\n        /* \"#utility.yul\":2102:2122   */\n      calldataload\n        /* \"#utility.yul\":2093:2122   */\n      swap1\n      pop\n        /* \"#utility.yul\":2131:2184   */\n      tag_385\n        /* \"#utility.yul\":2178:2183   */\n      dup2\n        /* \"#utility.yul\":2131:2184   */\n      tag_386\n      jump\t// in\n    tag_385:\n        /* \"#utility.yul\":2011:2190   */\n      swap3\n      swap2\n      pop\n      pop\n      jump\t// out\n        /* \"#utility.yul\":2196:2385   */\n    tag_387:\n        /* \"#utility.yul\":2267:2272   */\n      0x00\n        /* \"#utility.yul\":2305:2311   */\n      dup2\n        /* \"#utility.yul\":2292:2312   */\n      calldataload\n        /* \"#utility.yul\":2283:2312   */\n      swap1\n      pop\n        /* \"#utility.yul\":2321:2379   */\n      tag_389\n        /* \"#utility.yul\":2373:2378   */\n      dup2\n        /* \"#utility.yul\":2321:2379   */\n      tag_390\n      jump\t// in\n    tag_389:\n        /* \"#utility.yul\":2196:2385   */\n      swap3\n      swap2\n      pop\n      pop\n      jump\t// out\n        /* \"#utility.yul\":2431:3758   */\n    tag_391:\n        /* \"#utility.yul\":2517:2522   */\n      0x00\n        /* \"#utility.yul\":2561:2565   */\n      0xc0\n        /* \"#utility.yul\":2549:2558   */\n      dup3\n        /* \"#utility.yul\":2544:2547   */\n      dup5\n        /* \"#utility.yul\":2540:2559   */\n      sub\n        /* \"#utility.yul\":2536:2566   */\n      slt\n        /* \"#utility.yul\":2533:2650   */\n      iszero\n      tag_393\n      jumpi\n        /* \"#utility.yul\":2569:2648   */\n      tag_394\n      tag_395\n      jump\t// in\n    tag_394:\n        /* \"#utility.yul\":2533:2650   */\n    tag_393:\n        /* \"#utility.yul\":2668:2689   */\n      tag_396\n        /* \"#utility.yul\":2684:2688   */\n      0xc0\n        /* \"#utility.yul\":2668:2689   */\n      tag_349\n      jump\t// in\n    tag_396:\n        /* \"#utility.yul\":2659:2689   */\n      swap1\n      pop\n        /* \"#utility.yul\":2748:2749   */\n      0x00\n        /* \"#utility.yul\":2788:2848   */\n      tag_397\n        /* \"#utility.yul\":2844:2847   */\n      dup5\n        /* \"#utility.yul\":2835:2841   */\n      dup3\n        /* \"#utility.yul\":2824:2833   */\n      dup6\n        /* \"#utility.yul\":2820:2842   */\n      add\n        /* \"#utility.yul\":2788:2848   */\n      tag_362\n      jump\t// in\n    tag_397:\n        /* \"#utility.yul\":2781:2785   */\n      0x00\n        /* \"#utility.yul\":2774:2779   */\n      dup4\n        /* \"#utility.yul\":2770:2786   */\n      add\n        /* \"#utility.yul\":2763:2849   */\n      mstore\n        /* \"#utility.yul\":2699:2860   */\n      pop\n        /* \"#utility.yul\":2924:2926   */\n      0x20\n        /* \"#utility.yul\":2965:3025   */\n      tag_398\n        /* \"#utility.yul\":3021:3024   */\n      dup5\n        /* \"#utility.yul\":3012:3018   */\n      dup3\n        /* \"#utility.yul\":3001:3010   */\n      dup6\n        /* \"#utility.yul\":2997:3019   */\n      add\n        /* \"#utility.yul\":2965:3025   */\n      tag_357\n      jump\t// in\n    tag_398:\n        /* \"#utility.yul\":2958:2962   */\n      0x20\n        /* \"#utility.yul\":2951:2956   */\n      dup4\n        /* \"#utility.yul\":2947:2963   */\n      add\n        /* \"#utility.yul\":2940:3026   */\n      mstore\n        /* \"#utility.yul\":2870:3037   */\n      pop\n        /* \"#utility.yul\":3100:3102   */\n      0x40\n        /* \"#utility.yul\":3141:3201   */\n      tag_399\n        /* \"#utility.yul\":3197:3200   */\n      dup5\n        /* \"#utility.yul\":3188:3194   */\n      dup3\n        /* \"#utility.yul\":3177:3186   */\n      dup6\n        /* \"#utility.yul\":3173:3195   */\n      add\n        /* \"#utility.yul\":3141:3201   */\n      tag_357\n      jump\t// in\n    tag_399:\n        /* \"#utility.yul\":3134:3138   */\n      0x40\n        /* \"#utility.yul\":3127:3132   */\n      dup4\n        /* \"#utility.yul\":3123:3139   */\n      add\n        /* \"#utility.yul\":3116:3202   */\n      mstore\n        /* \"#utility.yul\":3047:3213   */\n      pop\n        /* \"#utility.yul\":3277:3279   */\n      0x60\n        /* \"#utility.yul\":3318:3378   */\n      tag_400\n        /* \"#utility.yul\":3374:3377   */\n      dup5\n        /* \"#utility.yul\":3365:3371   */\n      dup3\n        /* \"#utility.yul\":3354:3363   */\n      dup6\n        /* \"#utility.yul\":3350:3372   */\n      add\n        /* \"#utility.yul\":3318:3378   */\n      tag_357\n      jump\t// in\n    tag_400:\n        /* \"#utility.yul\":3311:3315   */\n      0x60\n        /* \"#utility.yul\":3304:3309   */\n      dup4\n        /* \"#utility.yul\":3300:3316   */\n      add\n        /* \"#utility.yul\":3293:3379   */\n      mstore\n        /* \"#utility.yul\":3223:3390   */\n      pop\n        /* \"#utility.yul\":3456:3459   */\n      0x80\n        /* \"#utility.yul\":3498:3558   */\n      tag_401\n        /* \"#utility.yul\":3554:3557   */\n      dup5\n        /* \"#utility.yul\":3545:3551   */\n      dup3\n        /* \"#utility.yul\":3534:3543   */\n      dup6\n        /* \"#utility.yul\":3530:3552   */\n      add\n        /* \"#utility.yul\":3498:3558   */\n      tag_357\n      jump\t// in\n    tag_401:\n        /* \"#utility.yul\":3491:3495   */\n      0x80\n        /* \"#utility.yul\":3484:3489   */\n      dup4\n        /* \"#utility.yul\":3480:3496   */\n      add\n        /* \"#utility.yul\":3473:3559   */\n      mstore\n        /* \"#utility.yul\":3400:3570   */\n      pop\n        /* \"#utility.yul\":3637:3640   */\n      0xa0\n        /* \"#utility.yul\":3679:3739   */\n      tag_402\n        /* \"#utility.yul\":3735:3738   */\n      dup5\n        /* \"#utility.yul\":3726:3732   */\n      dup3\n        /* \"#utility.yul\":3715:3724   */\n      dup6\n        /* \"#utility.yul\":3711:3733   */\n      add\n        /* \"#utility.yul\":3679:3739   */\n      tag_357\n      jump\t// in\n    tag_402:\n        /* \"#utility.yul\":3672:3676   */\n      0xa0\n        /* \"#utility.yul\":3665:3670   */\n      dup4\n        /* \"#utility.yul\":3661:3677   */\n      add\n        /* \"#utility.yul\":3654:3740   */\n      mstore\n        /* \"#utility.yul\":3580:3751   */\n      pop\n        /* \"#utility.yul\":2431:3758   */\n      swap3\n      swap2\n      pop\n      pop\n      jump\t// out\n        /* \"#utility.yul\":3764:3907   */\n    tag_403:\n        /* \"#utility.yul\":3821:3826   */\n      0x00\n        /* \"#utility.yul\":3852:3858   */\n      dup2\n        /* \"#utility.yul\":3846:3859   */\n      mload\n        /* \"#utility.yul\":3837:3859   */\n      swap1\n      pop\n        /* \"#utility.yul\":3868:3901   */\n      tag_405\n        /* \"#utility.yul\":3895:3900   */\n      dup2\n        /* \"#utility.yul\":3868:3901   */\n      tag_406\n      jump\t// in\n    tag_405:\n        /* \"#utility.yul\":3764:3907   */\n      swap3\n      swap2\n      pop\n      pop\n      jump\t// out\n        /* \"#utility.yul\":3913:4052   */\n    tag_407:\n        /* \"#utility.yul\":3959:3964   */\n      0x00\n        /* \"#utility.yul\":3997:4003   */\n      dup2\n        /* \"#utility.yul\":3984:4004   */\n      calldataload\n        /* \"#utility.yul\":3975:4004   */\n      swap1\n      pop\n        /* \"#utility.yul\":4013:4046   */\n      tag_409\n        /* \"#utility.yul\":4040:4045   */\n      dup2\n        /* \"#utility.yul\":4013:4046   */\n      tag_410\n      jump\t// in\n    tag_409:\n        /* \"#utility.yul\":3913:4052   */\n      swap3\n      swap2\n      pop\n      pop\n      jump\t// out\n        /* \"#utility.yul\":4058:4201   */\n    tag_357:\n        /* \"#utility.yul\":4115:4120   */\n      0x00\n        /* \"#utility.yul\":4146:4152   */\n      dup2\n        /* \"#utility.yul\":4140:4153   */\n      mload\n        /* \"#utility.yul\":4131:4153   */\n      swap1\n      pop\n        /* \"#utility.yul\":4162:4195   */\n      tag_412\n        /* \"#utility.yul\":4189:4194   */\n      dup2\n        /* \"#utility.yul\":4162:4195   */\n      tag_410\n      jump\t// in\n    tag_412:\n        /* \"#utility.yul\":4058:4201   */\n      swap3\n      swap2\n      pop\n      pop\n      jump\t// out\n        /* \"#utility.yul\":4207:4348   */\n    tag_413:\n        /* \"#utility.yul\":4263:4268   */\n      0x00\n        /* \"#utility.yul\":4294:4300   */\n      dup2\n        /* \"#utility.yul\":4288:4301   */\n      mload\n        /* \"#utility.yul\":4279:4301   */\n      swap1\n      pop\n        /* \"#utility.yul\":4310:4342   */\n      tag_415\n        /* \"#utility.yul\":4336:4341   */\n      dup2\n        /* \"#utility.yul\":4310:4342   */\n      tag_416\n      jump\t// in\n    tag_415:\n        /* \"#utility.yul\":4207:4348   */\n      swap3\n      swap2\n      pop\n      pop\n      jump\t// out\n        /* \"#utility.yul\":4354:4683   */\n    tag_40:\n        /* \"#utility.yul\":4413:4419   */\n      0x00\n        /* \"#utility.yul\":4462:4464   */\n      0x20\n        /* \"#utility.yul\":4450:4459   */\n      dup3\n        /* \"#utility.yul\":4441:4448   */\n      dup5\n        /* \"#utility.yul\":4437:4460   */\n      sub\n        /* \"#utility.yul\":4433:4465   */\n      slt\n        /* \"#utility.yul\":4430:4549   */\n      iszero\n      tag_418\n      jumpi\n        /* \"#utility.yul\":4468:4547   */\n      tag_419\n      tag_420\n      jump\t// in\n    tag_419:\n        /* \"#utility.yul\":4430:4549   */\n    tag_418:\n        /* \"#utility.yul\":4588:4589   */\n      0x00\n        /* \"#utility.yul\":4613:4666   */\n      tag_421\n        /* \"#utility.yul\":4658:4665   */\n      dup5\n        /* \"#utility.yul\":4649:4655   */\n      dup3\n        /* \"#utility.yul\":4638:4647   */\n      dup6\n        /* \"#utility.yul\":4634:4656   */\n      add\n        /* \"#utility.yul\":4613:4666   */\n      tag_358\n      jump\t// in\n    tag_421:\n        /* \"#utility.yul\":4603:4666   */\n      swap2\n      pop\n        /* \"#utility.yul\":4559:4676   */\n      pop\n        /* \"#utility.yul\":4354:4683   */\n      swap3\n      swap2\n      pop\n      pop\n      jump\t// out\n        /* \"#utility.yul\":4689:5163   */\n    tag_66:\n        /* \"#utility.yul\":4757:4763   */\n      0x00\n        /* \"#utility.yul\":4765:4771   */\n      dup1\n        /* \"#utility.yul\":4814:4816   */\n      0x40\n        /* \"#utility.yul\":4802:4811   */\n      dup4\n        /* \"#utility.yul\":4793:4800   */\n      dup6\n        /* \"#utility.yul\":4789:4812   */\n      sub\n        /* \"#utility.yul\":4785:4817   */\n      slt\n        /* \"#utility.yul\":4782:4901   */\n      iszero\n      tag_423\n      jumpi\n        /* \"#utility.yul\":4820:4899   */\n      tag_424\n      tag_420\n      jump\t// in\n    tag_424:\n        /* \"#utility.yul\":4782:4901   */\n    tag_423:\n        /* \"#utility.yul\":4940:4941   */\n      0x00\n        /* \"#utility.yul\":4965:5018   */\n      tag_425\n        /* \"#utility.yul\":5010:5017   */\n      dup6\n        /* \"#utility.yul\":5001:5007   */\n      dup3\n        /* \"#utility.yul\":4990:4999   */\n      dup7\n        /* \"#utility.yul\":4986:5008   */\n      add\n        /* \"#utility.yul\":4965:5018   */\n      tag_358\n      jump\t// in\n    tag_425:\n        /* \"#utility.yul\":4955:5018   */\n      swap3\n      pop\n        /* \"#utility.yul\":4911:5028   */\n      pop\n        /* \"#utility.yul\":5067:5069   */\n      0x20\n        /* \"#utility.yul\":5093:5146   */\n      tag_426\n        /* \"#utility.yul\":5138:5145   */\n      dup6\n        /* \"#utility.yul\":5129:5135   */\n      dup3\n        /* \"#utility.yul\":5118:5127   */\n      dup7\n        /* \"#utility.yul\":5114:5136   */\n      add\n        /* \"#utility.yul\":5093:5146   */\n      tag_407\n      jump\t// in\n    tag_426:\n        /* \"#utility.yul\":5083:5146   */\n      swap2\n      pop\n        /* \"#utility.yul\":5038:5156   */\n      pop\n        /* \"#utility.yul\":4689:5163   */\n      swap3\n      pop\n      swap3\n      swap1\n      pop\n      jump\t// out\n        /* \"#utility.yul\":5169:5723   */\n    tag_195:\n        /* \"#utility.yul\":5264:5270   */\n      0x00\n        /* \"#utility.yul\":5313:5315   */\n      0x20\n        /* \"#utility.yul\":5301:5310   */\n      dup3\n        /* \"#utility.yul\":5292:5299   */\n      dup5\n        /* \"#utility.yul\":5288:5311   */\n      sub\n        /* \"#utility.yul\":5284:5316   */\n      slt\n        /* \"#utility.yul\":5281:5400   */\n      iszero\n      tag_428\n      jumpi\n        /* \"#utility.yul\":5319:5398   */\n      tag_429\n      tag_420\n      jump\t// in\n    tag_429:\n        /* \"#utility.yul\":5281:5400   */\n    tag_428:\n        /* \"#utility.yul\":5460:5461   */\n      0x00\n        /* \"#utility.yul\":5449:5458   */\n      dup3\n        /* \"#utility.yul\":5445:5462   */\n      add\n        /* \"#utility.yul\":5439:5463   */\n      mload\n        /* \"#utility.yul\":5490:5508   */\n      0xffffffffffffffff\n        /* \"#utility.yul\":5482:5488   */\n      dup2\n        /* \"#utility.yul\":5479:5509   */\n      gt\n        /* \"#utility.yul\":5476:5593   */\n      iszero\n      tag_430\n      jumpi\n        /* \"#utility.yul\":5512:5591   */\n      tag_431\n      tag_432\n      jump\t// in\n    tag_431:\n        /* \"#utility.yul\":5476:5593   */\n    tag_430:\n        /* \"#utility.yul\":5617:5706   */\n      tag_433\n        /* \"#utility.yul\":5698:5705   */\n      dup5\n        /* \"#utility.yul\":5689:5695   */\n      dup3\n        /* \"#utility.yul\":5678:5687   */\n      dup6\n        /* \"#utility.yul\":5674:5696   */\n      add\n        /* \"#utility.yul\":5617:5706   */\n      tag_365\n      jump\t// in\n    tag_433:\n        /* \"#utility.yul\":5607:5706   */\n      swap2\n      pop\n        /* \"#utility.yul\":5410:5716   */\n      pop\n        /* \"#utility.yul\":5169:5723   */\n      swap3\n      swap2\n      pop\n      pop\n      jump\t// out\n        /* \"#utility.yul\":5729:6086   */\n    tag_54:\n        /* \"#utility.yul\":5802:5808   */\n      0x00\n        /* \"#utility.yul\":5851:5853   */\n      0x20\n        /* \"#utility.yul\":5839:5848   */\n      dup3\n        /* \"#utility.yul\":5830:5837   */\n      dup5\n        /* \"#utility.yul\":5826:5849   */\n      sub\n        /* \"#utility.yul\":5822:5854   */\n      slt\n        /* \"#utility.yul\":5819:5938   */\n      iszero\n      tag_435\n      jumpi\n        /* \"#utility.yul\":5857:5936   */\n      tag_436\n      tag_420\n      jump\t// in\n    tag_436:\n        /* \"#utility.yul\":5819:5938   */\n    tag_435:\n        /* \"#utility.yul\":5977:5978   */\n      0x00\n        /* \"#utility.yul\":6002:6069   */\n      tag_437\n        /* \"#utility.yul\":6061:6068   */\n      dup5\n        /* \"#utility.yul\":6052:6058   */\n      dup3\n        /* \"#utility.yul\":6041:6050   */\n      dup6\n        /* \"#utility.yul\":6037:6059   */\n      add\n        /* \"#utility.yul\":6002:6069   */\n      tag_371\n      jump\t// in\n    tag_437:\n        /* \"#utility.yul\":5992:6069   */\n      swap2\n      pop\n        /* \"#utility.yul\":5948:6079   */\n      pop\n        /* \"#utility.yul\":5729:6086   */\n      swap3\n      swap2\n      pop\n      pop\n      jump\t// out\n        /* \"#utility.yul\":6092:6453   */\n    tag_50:\n        /* \"#utility.yul\":6167:6173   */\n      0x00\n        /* \"#utility.yul\":6216:6218   */\n      0x20\n        /* \"#utility.yul\":6204:6213   */\n      dup3\n        /* \"#utility.yul\":6195:6202   */\n      dup5\n        /* \"#utility.yul\":6191:6214   */\n      sub\n        /* \"#utility.yul\":6187:6219   */\n      slt\n        /* \"#utility.yul\":6184:6303   */\n      iszero\n      tag_439\n      jumpi\n        /* \"#utility.yul\":6222:6301   */\n      tag_440\n      tag_420\n      jump\t// in\n    tag_440:\n        /* \"#utility.yul\":6184:6303   */\n    tag_439:\n        /* \"#utility.yul\":6342:6343   */\n      0x00\n        /* \"#utility.yul\":6367:6436   */\n      tag_441\n        /* \"#utility.yul\":6428:6435   */\n      dup5\n        /* \"#utility.yul\":6419:6425   */\n      dup3\n        /* \"#utility.yul\":6408:6417   */\n      dup6\n        /* \"#utility.yul\":6404:6426   */\n      add\n        /* \"#utility.yul\":6367:6436   */\n      tag_375\n      jump\t// in\n    tag_441:\n        /* \"#utility.yul\":6357:6436   */\n      swap2\n      pop\n        /* \"#utility.yul\":6313:6446   */\n      pop\n        /* \"#utility.yul\":6092:6453   */\n      swap3\n      swap2\n      pop\n      pop\n      jump\t// out\n        /* \"#utility.yul\":6459:6828   */\n    tag_113:\n        /* \"#utility.yul\":6538:6544   */\n      0x00\n        /* \"#utility.yul\":6587:6589   */\n      0x20\n        /* \"#utility.yul\":6575:6584   */\n      dup3\n        /* \"#utility.yul\":6566:6573   */\n      dup5\n        /* \"#utility.yul\":6562:6585   */\n      sub\n        /* \"#utility.yul\":6558:6590   */\n      slt\n        /* \"#utility.yul\":6555:6674   */\n      iszero\n      tag_443\n      jumpi\n        /* \"#utility.yul\":6593:6672   */\n      tag_444\n      tag_420\n      jump\t// in\n    tag_444:\n        /* \"#utility.yul\":6555:6674   */\n    tag_443:\n        /* \"#utility.yul\":6713:6714   */\n      0x00\n        /* \"#utility.yul\":6738:6811   */\n      tag_445\n        /* \"#utility.yul\":6803:6810   */\n      dup5\n        /* \"#utility.yul\":6794:6800   */\n      dup3\n        /* \"#utility.yul\":6783:6792   */\n      dup6\n        /* \"#utility.yul\":6779:6801   */\n      add\n        /* \"#utility.yul\":6738:6811   */\n      tag_379\n      jump\t// in\n    tag_445:\n        /* \"#utility.yul\":6728:6811   */\n      swap2\n      pop\n        /* \"#utility.yul\":6684:6821   */\n      pop\n        /* \"#utility.yul\":6459:6828   */\n      swap3\n      swap2\n      pop\n      pop\n      jump\t// out\n        /* \"#utility.yul\":6834:7203   */\n    tag_62:\n        /* \"#utility.yul\":6913:6919   */\n      0x00\n        /* \"#utility.yul\":6962:6964   */\n      0x20\n        /* \"#utility.yul\":6950:6959   */\n      dup3\n        /* \"#utility.yul\":6941:6948   */\n      dup5\n        /* \"#utility.yul\":6937:6960   */\n      sub\n        /* \"#utility.yul\":6933:6965   */\n      slt\n        /* \"#utility.yul\":6930:7049   */\n      iszero\n      tag_447\n      jumpi\n        /* \"#utility.yul\":6968:7047   */\n      tag_448\n      tag_420\n      jump\t// in\n    tag_448:\n        /* \"#utility.yul\":6930:7049   */\n    tag_447:\n        /* \"#utility.yul\":7088:7089   */\n      0x00\n        /* \"#utility.yul\":7113:7186   */\n      tag_449\n        /* \"#utility.yul\":7178:7185   */\n      dup5\n        /* \"#utility.yul\":7169:7175   */\n      dup3\n        /* \"#utility.yul\":7158:7167   */\n      dup6\n        /* \"#utility.yul\":7154:7176   */\n      add\n        /* \"#utility.yul\":7113:7186   */\n      tag_383\n      jump\t// in\n    tag_449:\n        /* \"#utility.yul\":7103:7186   */\n      swap2\n      pop\n        /* \"#utility.yul\":7059:7196   */\n      pop\n        /* \"#utility.yul\":6834:7203   */\n      swap3\n      swap2\n      pop\n      pop\n      jump\t// out\n        /* \"#utility.yul\":7209:7588   */\n    tag_74:\n        /* \"#utility.yul\":7293:7299   */\n      0x00\n        /* \"#utility.yul\":7342:7344   */\n      0x20\n        /* \"#utility.yul\":7330:7339   */\n      dup3\n        /* \"#utility.yul\":7321:7328   */\n      dup5\n        /* \"#utility.yul\":7317:7340   */\n      sub\n        /* \"#utility.yul\":7313:7345   */\n      slt\n        /* \"#utility.yul\":7310:7429   */\n      iszero\n      tag_451\n      jumpi\n        /* \"#utility.yul\":7348:7427   */\n      tag_452\n      tag_420\n      jump\t// in\n    tag_452:\n        /* \"#utility.yul\":7310:7429   */\n    tag_451:\n        /* \"#utility.yul\":7468:7469   */\n      0x00\n        /* \"#utility.yul\":7493:7571   */\n      tag_453\n        /* \"#utility.yul\":7563:7570   */\n      dup5\n        /* \"#utility.yul\":7554:7560   */\n      dup3\n        /* \"#utility.yul\":7543:7552   */\n      dup6\n        /* \"#utility.yul\":7539:7561   */\n      add\n        /* \"#utility.yul\":7493:7571   */\n      tag_387\n      jump\t// in\n    tag_453:\n        /* \"#utility.yul\":7483:7571   */\n      swap2\n      pop\n        /* \"#utility.yul\":7439:7581   */\n      pop\n        /* \"#utility.yul\":7209:7588   */\n      swap3\n      swap2\n      pop\n      pop\n      jump\t// out\n        /* \"#utility.yul\":7594:7998   */\n    tag_204:\n        /* \"#utility.yul\":7690:7696   */\n      0x00\n        /* \"#utility.yul\":7739:7742   */\n      0xc0\n        /* \"#utility.yul\":7727:7736   */\n      dup3\n        /* \"#utility.yul\":7718:7725   */\n      dup5\n        /* \"#utility.yul\":7714:7737   */\n      sub\n        /* \"#utility.yul\":7710:7743   */\n      slt\n        /* \"#utility.yul\":7707:7827   */\n      iszero\n      tag_455\n      jumpi\n        /* \"#utility.yul\":7746:7825   */\n      tag_456\n      tag_420\n      jump\t// in\n    tag_456:\n        /* \"#utility.yul\":7707:7827   */\n    tag_455:\n        /* \"#utility.yul\":7866:7867   */\n      0x00\n        /* \"#utility.yul\":7891:7981   */\n      tag_457\n        /* \"#utility.yul\":7973:7980   */\n      dup5\n        /* \"#utility.yul\":7964:7970   */\n      dup3\n        /* \"#utility.yul\":7953:7962   */\n      dup6\n        /* \"#utility.yul\":7949:7971   */\n      add\n        /* \"#utility.yul\":7891:7981   */\n      tag_391\n      jump\t// in\n    tag_457:\n        /* \"#utility.yul\":7881:7981   */\n      swap2\n      pop\n        /* \"#utility.yul\":7837:7991   */\n      pop\n        /* \"#utility.yul\":7594:7998   */\n      swap3\n      swap2\n      pop\n      pop\n      jump\t// out\n        /* \"#utility.yul\":8004:8665   */\n    tag_219:\n        /* \"#utility.yul\":8091:8097   */\n      0x00\n        /* \"#utility.yul\":8099:8105   */\n      dup1\n        /* \"#utility.yul\":8107:8113   */\n      0x00\n        /* \"#utility.yul\":8156:8158   */\n      0x60\n        /* \"#utility.yul\":8144:8153   */\n      dup5\n        /* \"#utility.yul\":8135:8142   */\n      dup7\n        /* \"#utility.yul\":8131:8154   */\n      sub\n        /* \"#utility.yul\":8127:8159   */\n      slt\n        /* \"#utility.yul\":8124:8243   */\n      iszero\n      tag_459\n      jumpi\n        /* \"#utility.yul\":8162:8241   */\n      tag_460\n      tag_420\n      jump\t// in\n    tag_460:\n        /* \"#utility.yul\":8124:8243   */\n    tag_459:\n        /* \"#utility.yul\":8282:8283   */\n      0x00\n        /* \"#utility.yul\":8307:8371   */\n      tag_461\n        /* \"#utility.yul\":8363:8370   */\n      dup7\n        /* \"#utility.yul\":8354:8360   */\n      dup3\n        /* \"#utility.yul\":8343:8352   */\n      dup8\n        /* \"#utility.yul\":8339:8361   */\n      add\n        /* \"#utility.yul\":8307:8371   */\n      tag_403\n      jump\t// in\n    tag_461:\n        /* \"#utility.yul\":8297:8371   */\n      swap4\n      pop\n        /* \"#utility.yul\":8253:8381   */\n      pop\n        /* \"#utility.yul\":8420:8422   */\n      0x20\n        /* \"#utility.yul\":8446:8510   */\n      tag_462\n        /* \"#utility.yul\":8502:8509   */\n      dup7\n        /* \"#utility.yul\":8493:8499   */\n      dup3\n        /* \"#utility.yul\":8482:8491   */\n      dup8\n        /* \"#utility.yul\":8478:8500   */\n      add\n        /* \"#utility.yul\":8446:8510   */\n      tag_403\n      jump\t// in\n    tag_462:\n        /* \"#utility.yul\":8436:8510   */\n      swap3\n      pop\n        /* \"#utility.yul\":8391:8520   */\n      pop\n        /* \"#utility.yul\":8559:8561   */\n      0x40\n        /* \"#utility.yul\":8585:8648   */\n      tag_463\n        /* \"#utility.yul\":8640:8647   */\n      dup7\n        /* \"#utility.yul\":8631:8637   */\n      dup3\n        /* \"#utility.yul\":8620:8629   */\n      dup8\n        /* \"#utility.yul\":8616:8638   */\n      add\n        /* \"#utility.yul\":8585:8648   */\n      tag_413\n      jump\t// in\n    tag_463:\n        /* \"#utility.yul\":8575:8648   */\n      swap2\n      pop\n        /* \"#utility.yul\":8530:8658   */\n      pop\n        /* \"#utility.yul\":8004:8665   */\n      swap3\n      pop\n      swap3\n      pop\n      swap3\n      jump\t// out\n        /* \"#utility.yul\":8671:9022   */\n    tag_188:\n        /* \"#utility.yul\":8741:8747   */\n      0x00\n        /* \"#utility.yul\":8790:8792   */\n      0x20\n        /* \"#utility.yul\":8778:8787   */\n      dup3\n        /* \"#utility.yul\":8769:8776   */\n      dup5\n        /* \"#utility.yul\":8765:8788   */\n      sub\n        /* \"#utility.yul\":8761:8793   */\n      slt\n        /* \"#utility.yul\":8758:8877   */\n      iszero\n      tag_465\n      jumpi\n        /* \"#utility.yul\":8796:8875   */\n      tag_466\n      tag_420\n      jump\t// in\n    tag_466:\n        /* \"#utility.yul\":8758:8877   */\n    tag_465:\n        /* \"#utility.yul\":8916:8917   */\n      0x00\n        /* \"#utility.yul\":8941:9005   */\n      tag_467\n        /* \"#utility.yul\":8997:9004   */\n      dup5\n        /* \"#utility.yul\":8988:8994   */\n      dup3\n        /* \"#utility.yul\":8977:8986   */\n      dup6\n        /* \"#utility.yul\":8973:8995   */\n      add\n        /* \"#utility.yul\":8941:9005   */\n      tag_357\n      jump\t// in\n    tag_467:\n        /* \"#utility.yul\":8931:9005   */\n      swap2\n      pop\n        /* \"#utility.yul\":8887:9015   */\n      pop\n        /* \"#utility.yul\":8671:9022   */\n      swap3\n      swap2\n      pop\n      pop\n      jump\t// out\n        /* \"#utility.yul\":9028:9146   */\n    tag_468:\n        /* \"#utility.yul\":9115:9139   */\n      tag_470\n        /* \"#utility.yul\":9133:9138   */\n      dup2\n        /* \"#utility.yul\":9115:9139   */\n      tag_471\n      jump\t// in\n    tag_470:\n        /* \"#utility.yul\":9110:9113   */\n      dup3\n        /* \"#utility.yul\":9103:9140   */\n      mstore\n        /* \"#utility.yul\":9028:9146   */\n      pop\n      pop\n      jump\t// out\n        /* \"#utility.yul\":9152:9311   */\n    tag_472:\n        /* \"#utility.yul\":9253:9304   */\n      tag_474\n        /* \"#utility.yul\":9298:9303   */\n      dup2\n        /* \"#utility.yul\":9253:9304   */\n      tag_475\n      jump\t// in\n    tag_474:\n        /* \"#utility.yul\":9248:9251   */\n      dup3\n        /* \"#utility.yul\":9241:9305   */\n      mstore\n        /* \"#utility.yul\":9152:9311   */\n      pop\n      pop\n      jump\t// out\n        /* \"#utility.yul\":9317:9480   */\n    tag_476:\n        /* \"#utility.yul\":9420:9473   */\n      tag_478\n        /* \"#utility.yul\":9467:9472   */\n      dup2\n        /* \"#utility.yul\":9420:9473   */\n      tag_479\n      jump\t// in\n    tag_478:\n        /* \"#utility.yul\":9415:9418   */\n      dup3\n        /* \"#utility.yul\":9408:9474   */\n      mstore\n        /* \"#utility.yul\":9317:9480   */\n      pop\n      pop\n      jump\t// out\n        /* \"#utility.yul\":9486:9657   */\n    tag_480:\n        /* \"#utility.yul\":9593:9650   */\n      tag_482\n        /* \"#utility.yul\":9644:9649   */\n      dup2\n        /* \"#utility.yul\":9593:9650   */\n      tag_483\n      jump\t// in\n    tag_482:\n        /* \"#utility.yul\":9588:9591   */\n      dup3\n        /* \"#utility.yul\":9581:9651   */\n      mstore\n        /* \"#utility.yul\":9486:9657   */\n      pop\n      pop\n      jump\t// out\n        /* \"#utility.yul\":9663:9834   */\n    tag_484:\n        /* \"#utility.yul\":9770:9827   */\n      tag_486\n        /* \"#utility.yul\":9821:9826   */\n      dup2\n        /* \"#utility.yul\":9770:9827   */\n      tag_487\n      jump\t// in\n    tag_486:\n        /* \"#utility.yul\":9765:9768   */\n      dup3\n        /* \"#utility.yul\":9758:9828   */\n      mstore\n        /* \"#utility.yul\":9663:9834   */\n      pop\n      pop\n      jump\t// out\n        /* \"#utility.yul\":9840:10021   */\n    tag_488:\n        /* \"#utility.yul\":9952:10014   */\n      tag_490\n        /* \"#utility.yul\":10008:10013   */\n      dup2\n        /* \"#utility.yul\":9952:10014   */\n      tag_491\n      jump\t// in\n    tag_490:\n        /* \"#utility.yul\":9947:9950   */\n      dup3\n        /* \"#utility.yul\":9940:10015   */\n      mstore\n        /* \"#utility.yul\":9840:10021   */\n      pop\n      pop\n      jump\t// out\n        /* \"#utility.yul\":10027:10393   */\n    tag_492:\n        /* \"#utility.yul\":10169:10172   */\n      0x00\n        /* \"#utility.yul\":10190:10257   */\n      tag_494\n        /* \"#utility.yul\":10254:10256   */\n      0x26\n        /* \"#utility.yul\":10249:10252   */\n      dup4\n        /* \"#utility.yul\":10190:10257   */\n      tag_495\n      jump\t// in\n    tag_494:\n        /* \"#utility.yul\":10183:10257   */\n      swap2\n      pop\n        /* \"#utility.yul\":10266:10359   */\n      tag_496\n        /* \"#utility.yul\":10355:10358   */\n      dup3\n        /* \"#utility.yul\":10266:10359   */\n      tag_497\n      jump\t// in\n    tag_496:\n        /* \"#utility.yul\":10384:10386   */\n      0x40\n        /* \"#utility.yul\":10379:10382   */\n      dup3\n        /* \"#utility.yul\":10375:10387   */\n      add\n        /* \"#utility.yul\":10368:10387   */\n      swap1\n      pop\n        /* \"#utility.yul\":10027:10393   */\n      swap2\n      swap1\n      pop\n      jump\t// out\n        /* \"#utility.yul\":10399:10765   */\n    tag_498:\n        /* \"#utility.yul\":10541:10544   */\n      0x00\n        /* \"#utility.yul\":10562:10629   */\n      tag_500\n        /* \"#utility.yul\":10626:10628   */\n      0x20\n        /* \"#utility.yul\":10621:10624   */\n      dup4\n        /* \"#utility.yul\":10562:10629   */\n      tag_495\n      jump\t// in\n    tag_500:\n        /* \"#utility.yul\":10555:10629   */\n      swap2\n      pop\n        /* \"#utility.yul\":10638:10731   */\n      tag_501\n        /* \"#utility.yul\":10727:10730   */\n      dup3\n        /* \"#utility.yul\":10638:10731   */\n      tag_502\n      jump\t// in\n    tag_501:\n        /* \"#utility.yul\":10756:10758   */\n      0x20\n        /* \"#utility.yul\":10751:10754   */\n      dup3\n        /* \"#utility.yul\":10747:10759   */\n      add\n        /* \"#utility.yul\":10740:10759   */\n      swap1\n      pop\n        /* \"#utility.yul\":10399:10765   */\n      swap2\n      swap1\n      pop\n      jump\t// out\n        /* \"#utility.yul\":10771:10889   */\n    tag_503:\n        /* \"#utility.yul\":10858:10882   */\n      tag_505\n        /* \"#utility.yul\":10876:10881   */\n      dup2\n        /* \"#utility.yul\":10858:10882   */\n      tag_506\n      jump\t// in\n    tag_505:\n        /* \"#utility.yul\":10853:10856   */\n      dup3\n        /* \"#utility.yul\":10846:10883   */\n      mstore\n        /* \"#utility.yul\":10771:10889   */\n      pop\n      pop\n      jump\t// out\n        /* \"#utility.yul\":10895:11117   */\n    tag_118:\n        /* \"#utility.yul\":10988:10992   */\n      0x00\n        /* \"#utility.yul\":11026:11028   */\n      0x20\n        /* \"#utility.yul\":11015:11024   */\n      dup3\n        /* \"#utility.yul\":11011:11029   */\n      add\n        /* \"#utility.yul\":11003:11029   */\n      swap1\n      pop\n        /* \"#utility.yul\":11039:11110   */\n      tag_508\n        /* \"#utility.yul\":11107:11108   */\n      0x00\n        /* \"#utility.yul\":11096:11105   */\n      dup4\n        /* \"#utility.yul\":11092:11109   */\n      add\n        /* \"#utility.yul\":11083:11089   */\n      dup5\n        /* \"#utility.yul\":11039:11110   */\n      tag_468\n      jump\t// in\n    tag_508:\n        /* \"#utility.yul\":10895:11117   */\n      swap3\n      swap2\n      pop\n      pop\n      jump\t// out\n        /* \"#utility.yul\":11123:11455   */\n    tag_292:\n        /* \"#utility.yul\":11244:11248   */\n      0x00\n        /* \"#utility.yul\":11282:11284   */\n      0x40\n        /* \"#utility.yul\":11271:11280   */\n      dup3\n        /* \"#utility.yul\":11267:11285   */\n      add\n        /* \"#utility.yul\":11259:11285   */\n      swap1\n      pop\n        /* \"#utility.yul\":11295:11366   */\n      tag_510\n        /* \"#utility.yul\":11363:11364   */\n      0x00\n        /* \"#utility.yul\":11352:11361   */\n      dup4\n        /* \"#utility.yul\":11348:11365   */\n      add\n        /* \"#utility.yul\":11339:11345   */\n      dup6\n        /* \"#utility.yul\":11295:11366   */\n      tag_468\n      jump\t// in\n    tag_510:\n        /* \"#utility.yul\":11376:11448   */\n      tag_511\n        /* \"#utility.yul\":11444:11446   */\n      0x20\n        /* \"#utility.yul\":11433:11442   */\n      dup4\n        /* \"#utility.yul\":11429:11447   */\n      add\n        /* \"#utility.yul\":11420:11426   */\n      dup5\n        /* \"#utility.yul\":11376:11448   */\n      tag_503\n      jump\t// in\n    tag_511:\n        /* \"#utility.yul\":11123:11455   */\n      swap4\n      swap3\n      pop\n      pop\n      pop\n      jump\t// out\n        /* \"#utility.yul\":11461:11711   */\n    tag_101:\n        /* \"#utility.yul\":11568:11572   */\n      0x00\n        /* \"#utility.yul\":11606:11608   */\n      0x20\n        /* \"#utility.yul\":11595:11604   */\n      dup3\n        /* \"#utility.yul\":11591:11609   */\n      add\n        /* \"#utility.yul\":11583:11609   */\n      swap1\n      pop\n        /* \"#utility.yul\":11619:11704   */\n      tag_513\n        /* \"#utility.yul\":11701:11702   */\n      0x00\n        /* \"#utility.yul\":11690:11699   */\n      dup4\n        /* \"#utility.yul\":11686:11703   */\n      add\n        /* \"#utility.yul\":11677:11683   */\n      dup5\n        /* \"#utility.yul\":11619:11704   */\n      tag_472\n      jump\t// in\n    tag_513:\n        /* \"#utility.yul\":11461:11711   */\n      swap3\n      swap2\n      pop\n      pop\n      jump\t// out\n        /* \"#utility.yul\":11717:11971   */\n    tag_47:\n        /* \"#utility.yul\":11826:11830   */\n      0x00\n        /* \"#utility.yul\":11864:11866   */\n      0x20\n        /* \"#utility.yul\":11853:11862   */\n      dup3\n        /* \"#utility.yul\":11849:11867   */\n      add\n        /* \"#utility.yul\":11841:11867   */\n      swap1\n      pop\n        /* \"#utility.yul\":11877:11964   */\n      tag_515\n        /* \"#utility.yul\":11961:11962   */\n      0x00\n        /* \"#utility.yul\":11950:11959   */\n      dup4\n        /* \"#utility.yul\":11946:11963   */\n      add\n        /* \"#utility.yul\":11937:11943   */\n      dup5\n        /* \"#utility.yul\":11877:11964   */\n      tag_476\n      jump\t// in\n    tag_515:\n        /* \"#utility.yul\":11717:11971   */\n      swap3\n      swap2\n      pop\n      pop\n      jump\t// out\n        /* \"#utility.yul\":11977:12239   */\n    tag_126:\n        /* \"#utility.yul\":12090:12094   */\n      0x00\n        /* \"#utility.yul\":12128:12130   */\n      0x20\n        /* \"#utility.yul\":12117:12126   */\n      dup3\n        /* \"#utility.yul\":12113:12131   */\n      add\n        /* \"#utility.yul\":12105:12131   */\n      swap1\n      pop\n        /* \"#utility.yul\":12141:12232   */\n      tag_517\n        /* \"#utility.yul\":12229:12230   */\n      0x00\n        /* \"#utility.yul\":12218:12227   */\n      dup4\n        /* \"#utility.yul\":12214:12231   */\n      add\n        /* \"#utility.yul\":12205:12211   */\n      dup5\n        /* \"#utility.yul\":12141:12232   */\n      tag_480\n      jump\t// in\n    tag_517:\n        /* \"#utility.yul\":11977:12239   */\n      swap3\n      swap2\n      pop\n      pop\n      jump\t// out\n        /* \"#utility.yul\":12245:12507   */\n    tag_71:\n        /* \"#utility.yul\":12358:12362   */\n      0x00\n        /* \"#utility.yul\":12396:12398   */\n      0x20\n        /* \"#utility.yul\":12385:12394   */\n      dup3\n        /* \"#utility.yul\":12381:12399   */\n      add\n        /* \"#utility.yul\":12373:12399   */\n      swap1\n      pop\n        /* \"#utility.yul\":12409:12500   */\n      tag_519\n        /* \"#utility.yul\":12497:12498   */\n      0x00\n        /* \"#utility.yul\":12486:12495   */\n      dup4\n        /* \"#utility.yul\":12482:12499   */\n      add\n        /* \"#utility.yul\":12473:12479   */\n      dup5\n        /* \"#utility.yul\":12409:12500   */\n      tag_484\n      jump\t// in\n    tag_519:\n        /* \"#utility.yul\":12245:12507   */\n      swap3\n      swap2\n      pop\n      pop\n      jump\t// out\n        /* \"#utility.yul\":12513:12785   */\n    tag_110:\n        /* \"#utility.yul\":12631:12635   */\n      0x00\n        /* \"#utility.yul\":12669:12671   */\n      0x20\n        /* \"#utility.yul\":12658:12667   */\n      dup3\n        /* \"#utility.yul\":12654:12672   */\n      add\n        /* \"#utility.yul\":12646:12672   */\n      swap1\n      pop\n        /* \"#utility.yul\":12682:12778   */\n      tag_521\n        /* \"#utility.yul\":12775:12776   */\n      0x00\n        /* \"#utility.yul\":12764:12773   */\n      dup4\n        /* \"#utility.yul\":12760:12777   */\n      add\n        /* \"#utility.yul\":12751:12757   */\n      dup5\n        /* \"#utility.yul\":12682:12778   */\n      tag_488\n      jump\t// in\n    tag_521:\n        /* \"#utility.yul\":12513:12785   */\n      swap3\n      swap2\n      pop\n      pop\n      jump\t// out\n        /* \"#utility.yul\":12791:13210   */\n    tag_327:\n        /* \"#utility.yul\":12957:12961   */\n      0x00\n        /* \"#utility.yul\":12995:12997   */\n      0x20\n        /* \"#utility.yul\":12984:12993   */\n      dup3\n        /* \"#utility.yul\":12980:12998   */\n      add\n        /* \"#utility.yul\":12972:12998   */\n      swap1\n      pop\n        /* \"#utility.yul\":13044:13053   */\n      dup2\n        /* \"#utility.yul\":13038:13042   */\n      dup2\n        /* \"#utility.yul\":13034:13054   */\n      sub\n        /* \"#utility.yul\":13030:13031   */\n      0x00\n        /* \"#utility.yul\":13019:13028   */\n      dup4\n        /* \"#utility.yul\":13015:13032   */\n      add\n        /* \"#utility.yul\":13008:13055   */\n      mstore\n        /* \"#utility.yul\":13072:13203   */\n      tag_523\n        /* \"#utility.yul\":13198:13202   */\n      dup2\n        /* \"#utility.yul\":13072:13203   */\n      tag_492\n      jump\t// in\n    tag_523:\n        /* \"#utility.yul\":13064:13203   */\n      swap1\n      pop\n        /* \"#utility.yul\":12791:13210   */\n      swap2\n      swap1\n      pop\n      jump\t// out\n        /* \"#utility.yul\":13216:13635   */\n    tag_149:\n        /* \"#utility.yul\":13382:13386   */\n      0x00\n        /* \"#utility.yul\":13420:13422   */\n      0x20\n        /* \"#utility.yul\":13409:13418   */\n      dup3\n        /* \"#utility.yul\":13405:13423   */\n      add\n        /* \"#utility.yul\":13397:13423   */\n      swap1\n      pop\n        /* \"#utility.yul\":13469:13478   */\n      dup2\n        /* \"#utility.yul\":13463:13467   */\n      dup2\n        /* \"#utility.yul\":13459:13479   */\n      sub\n        /* \"#utility.yul\":13455:13456   */\n      0x00\n        /* \"#utility.yul\":13444:13453   */\n      dup4\n        /* \"#utility.yul\":13440:13457   */\n      add\n        /* \"#utility.yul\":13433:13480   */\n      mstore\n        /* \"#utility.yul\":13497:13628   */\n      tag_525\n        /* \"#utility.yul\":13623:13627   */\n      dup2\n        /* \"#utility.yul\":13497:13628   */\n      tag_498\n      jump\t// in\n    tag_525:\n        /* \"#utility.yul\":13489:13628   */\n      swap1\n      pop\n        /* \"#utility.yul\":13216:13635   */\n      swap2\n      swap1\n      pop\n      jump\t// out\n        /* \"#utility.yul\":13641:13863   */\n    tag_43:\n        /* \"#utility.yul\":13734:13738   */\n      0x00\n        /* \"#utility.yul\":13772:13774   */\n      0x20\n        /* \"#utility.yul\":13761:13770   */\n      dup3\n        /* \"#utility.yul\":13757:13775   */\n      add\n        /* \"#utility.yul\":13749:13775   */\n      swap1\n      pop\n        /* \"#utility.yul\":13785:13856   */\n      tag_527\n        /* \"#utility.yul\":13853:13854   */\n      0x00\n        /* \"#utility.yul\":13842:13851   */\n      dup4\n        /* \"#utility.yul\":13838:13855   */\n      add\n        /* \"#utility.yul\":13829:13835   */\n      dup5\n        /* \"#utility.yul\":13785:13856   */\n      tag_503\n      jump\t// in\n    tag_527:\n        /* \"#utility.yul\":13641:13863   */\n      swap3\n      swap2\n      pop\n      pop\n      jump\t// out\n        /* \"#utility.yul\":13869:13998   */\n    tag_349:\n        /* \"#utility.yul\":13903:13909   */\n      0x00\n        /* \"#utility.yul\":13930:13950   */\n      tag_529\n      tag_530\n      jump\t// in\n    tag_529:\n        /* \"#utility.yul\":13920:13950   */\n      swap1\n      pop\n        /* \"#utility.yul\":13959:13992   */\n      tag_531\n        /* \"#utility.yul\":13987:13991   */\n      dup3\n        /* \"#utility.yul\":13979:13985   */\n      dup3\n        /* \"#utility.yul\":13959:13992   */\n      tag_532\n      jump\t// in\n    tag_531:\n        /* \"#utility.yul\":13869:13998   */\n      swap2\n      swap1\n      pop\n      jump\t// out\n        /* \"#utility.yul\":14004:14079   */\n    tag_530:\n        /* \"#utility.yul\":14037:14043   */\n      0x00\n        /* \"#utility.yul\":14070:14072   */\n      0x40\n        /* \"#utility.yul\":14064:14073   */\n      mload\n        /* \"#utility.yul\":14054:14073   */\n      swap1\n      pop\n        /* \"#utility.yul\":14004:14079   */\n      swap1\n      jump\t// out\n        /* \"#utility.yul\":14085:14396   */\n    tag_348:\n        /* \"#utility.yul\":14162:14166   */\n      0x00\n        /* \"#utility.yul\":14252:14270   */\n      0xffffffffffffffff\n        /* \"#utility.yul\":14244:14250   */\n      dup3\n        /* \"#utility.yul\":14241:14271   */\n      gt\n        /* \"#utility.yul\":14238:14294   */\n      iszero\n      tag_535\n      jumpi\n        /* \"#utility.yul\":14274:14292   */\n      tag_536\n      tag_537\n      jump\t// in\n    tag_536:\n        /* \"#utility.yul\":14238:14294   */\n    tag_535:\n        /* \"#utility.yul\":14324:14328   */\n      0x20\n        /* \"#utility.yul\":14316:14322   */\n      dup3\n        /* \"#utility.yul\":14312:14329   */\n      mul\n        /* \"#utility.yul\":14304:14329   */\n      swap1\n      pop\n        /* \"#utility.yul\":14384:14388   */\n      0x20\n        /* \"#utility.yul\":14378:14382   */\n      dup2\n        /* \"#utility.yul\":14374:14389   */\n      add\n        /* \"#utility.yul\":14366:14389   */\n      swap1\n      pop\n        /* \"#utility.yul\":14085:14396   */\n      swap2\n      swap1\n      pop\n      jump\t// out\n        /* \"#utility.yul\":14402:14571   */\n    tag_495:\n        /* \"#utility.yul\":14486:14497   */\n      0x00\n        /* \"#utility.yul\":14520:14526   */\n      dup3\n        /* \"#utility.yul\":14515:14518   */\n      dup3\n        /* \"#utility.yul\":14508:14527   */\n      mstore\n        /* \"#utility.yul\":14560:14564   */\n      0x20\n        /* \"#utility.yul\":14555:14558   */\n      dup3\n        /* \"#utility.yul\":14551:14565   */\n      add\n        /* \"#utility.yul\":14536:14565   */\n      swap1\n      pop\n        /* \"#utility.yul\":14402:14571   */\n      swap3\n      swap2\n      pop\n      pop\n      jump\t// out\n        /* \"#utility.yul\":14577:14882   */\n    tag_163:\n        /* \"#utility.yul\":14617:14620   */\n      0x00\n        /* \"#utility.yul\":14636:14656   */\n      tag_540\n        /* \"#utility.yul\":14654:14655   */\n      dup3\n        /* \"#utility.yul\":14636:14656   */\n      tag_506\n      jump\t// in\n    tag_540:\n        /* \"#utility.yul\":14631:14656   */\n      swap2\n      pop\n        /* \"#utility.yul\":14670:14690   */\n      tag_541\n        /* \"#utility.yul\":14688:14689   */\n      dup4\n        /* \"#utility.yul\":14670:14690   */\n      tag_506\n      jump\t// in\n    tag_541:\n        /* \"#utility.yul\":14665:14690   */\n      swap3\n      pop\n        /* \"#utility.yul\":14824:14825   */\n      dup3\n        /* \"#utility.yul\":14756:14822   */\n      0xffffffffffffffffffffffffffffffffffffffffffffffffffffffffffffffff\n        /* \"#utility.yul\":14752:14826   */\n      sub\n        /* \"#utility.yul\":14749:14750   */\n      dup3\n        /* \"#utility.yul\":14746:14827   */\n      gt\n        /* \"#utility.yul\":14743:14850   */\n      iszero\n      tag_542\n      jumpi\n        /* \"#utility.yul\":14830:14848   */\n      tag_543\n      tag_544\n      jump\t// in\n    tag_543:\n        /* \"#utility.yul\":14743:14850   */\n    tag_542:\n        /* \"#utility.yul\":14874:14875   */\n      dup3\n        /* \"#utility.yul\":14871:14872   */\n      dup3\n        /* \"#utility.yul\":14867:14876   */\n      add\n        /* \"#utility.yul\":14860:14876   */\n      swap1\n      pop\n        /* \"#utility.yul\":14577:14882   */\n      swap3\n      swap2\n      pop\n      pop\n      jump\t// out\n        /* \"#utility.yul\":14888:15073   */\n    tag_338:\n        /* \"#utility.yul\":14928:14929   */\n      0x00\n        /* \"#utility.yul\":14945:14965   */\n      tag_546\n        /* \"#utility.yul\":14963:14964   */\n      dup3\n        /* \"#utility.yul\":14945:14965   */\n      tag_506\n      jump\t// in\n    tag_546:\n        /* \"#utility.yul\":14940:14965   */\n      swap2\n      pop\n        /* \"#utility.yul\":14979:14999   */\n      tag_547\n        /* \"#utility.yul\":14997:14998   */\n      dup4\n        /* \"#utility.yul\":14979:14999   */\n      tag_506\n      jump\t// in\n    tag_547:\n        /* \"#utility.yul\":14974:14999   */\n      swap3\n      pop\n        /* \"#utility.yul\":15018:15019   */\n      dup3\n        /* \"#utility.yul\":15008:15043   */\n      tag_548\n      jumpi\n        /* \"#utility.yul\":15023:15041   */\n      tag_549\n      tag_550\n      jump\t// in\n    tag_549:\n        /* \"#utility.yul\":15008:15043   */\n    tag_548:\n        /* \"#utility.yul\":15065:15066   */\n      dup3\n        /* \"#utility.yul\":15062:15063   */\n      dup3\n        /* \"#utility.yul\":15058:15067   */\n      div\n        /* \"#utility.yul\":15053:15067   */\n      swap1\n      pop\n        /* \"#utility.yul\":14888:15073   */\n      swap3\n      swap2\n      pop\n      pop\n      jump\t// out\n        /* \"#utility.yul\":15079:15427   */\n    tag_341:\n        /* \"#utility.yul\":15119:15126   */\n      0x00\n        /* \"#utility.yul\":15142:15162   */\n      tag_552\n        /* \"#utility.yul\":15160:15161   */\n      dup3\n        /* \"#utility.yul\":15142:15162   */\n      tag_506\n      jump\t// in\n    tag_552:\n        /* \"#utility.yul\":15137:15162   */\n      swap2\n      pop\n        /* \"#utility.yul\":15176:15196   */\n      tag_553\n        /* \"#utility.yul\":15194:15195   */\n      dup4\n        /* \"#utility.yul\":15176:15196   */\n      tag_506\n      jump\t// in\n    tag_553:\n        /* \"#utility.yul\":15171:15196   */\n      swap3\n      pop\n        /* \"#utility.yul\":15364:15365   */\n      dup2\n        /* \"#utility.yul\":15296:15362   */\n      0xffffffffffffffffffffffffffffffffffffffffffffffffffffffffffffffff\n        /* \"#utility.yul\":15292:15366   */\n      div\n        /* \"#utility.yul\":15289:15290   */\n      dup4\n        /* \"#utility.yul\":15286:15367   */\n      gt\n        /* \"#utility.yul\":15281:15282   */\n      dup3\n        /* \"#utility.yul\":15274:15283   */\n      iszero\n        /* \"#utility.yul\":15267:15284   */\n      iszero\n        /* \"#utility.yul\":15263:15368   */\n      and\n        /* \"#utility.yul\":15260:15391   */\n      iszero\n      tag_554\n      jumpi\n        /* \"#utility.yul\":15371:15389   */\n      tag_555\n      tag_544\n      jump\t// in\n    tag_555:\n        /* \"#utility.yul\":15260:15391   */\n    tag_554:\n        /* \"#utility.yul\":15419:15420   */\n      dup3\n        /* \"#utility.yul\":15416:15417   */\n      dup3\n        /* \"#utility.yul\":15412:15421   */\n      mul\n        /* \"#utility.yul\":15401:15421   */\n      swap1\n      pop\n        /* \"#utility.yul\":15079:15427   */\n      swap3\n      swap2\n      pop\n      pop\n      jump\t// out\n        /* \"#utility.yul\":15433:15624   */\n    tag_234:\n        /* \"#utility.yul\":15473:15477   */\n      0x00\n        /* \"#utility.yul\":15493:15513   */\n      tag_557\n        /* \"#utility.yul\":15511:15512   */\n      dup3\n        /* \"#utility.yul\":15493:15513   */\n      tag_506\n      jump\t// in\n    tag_557:\n        /* \"#utility.yul\":15488:15513   */\n      swap2\n      pop\n        /* \"#utility.yul\":15527:15547   */\n      tag_558\n        /* \"#utility.yul\":15545:15546   */\n      dup4\n        /* \"#utility.yul\":15527:15547   */\n      tag_506\n      jump\t// in\n    tag_558:\n        /* \"#utility.yul\":15522:15547   */\n      swap3\n      pop\n        /* \"#utility.yul\":15566:15567   */\n      dup3\n        /* \"#utility.yul\":15563:15564   */\n      dup3\n        /* \"#utility.yul\":15560:15568   */\n      lt\n        /* \"#utility.yul\":15557:15591   */\n      iszero\n      tag_559\n      jumpi\n        /* \"#utility.yul\":15571:15589   */\n      tag_560\n      tag_544\n      jump\t// in\n    tag_560:\n        /* \"#utility.yul\":15557:15591   */\n    tag_559:\n        /* \"#utility.yul\":15616:15617   */\n      dup3\n        /* \"#utility.yul\":15613:15614   */\n      dup3\n        /* \"#utility.yul\":15609:15618   */\n      sub\n        /* \"#utility.yul\":15601:15618   */\n      swap1\n      pop\n        /* \"#utility.yul\":15433:15624   */\n      swap3\n      swap2\n      pop\n      pop\n      jump\t// out\n        /* \"#utility.yul\":15630:15726   */\n    tag_471:\n        /* \"#utility.yul\":15667:15674   */\n      0x00\n        /* \"#utility.yul\":15696:15720   */\n      tag_562\n        /* \"#utility.yul\":15714:15719   */\n      dup3\n        /* \"#utility.yul\":15696:15720   */\n      tag_563\n      jump\t// in\n    tag_562:\n        /* \"#utility.yul\":15685:15720   */\n      swap1\n      pop\n        /* \"#utility.yul\":15630:15726   */\n      swap2\n      swap1\n      pop\n      jump\t// out\n        /* \"#utility.yul\":15732:15842   */\n    tag_564:\n        /* \"#utility.yul\":15783:15790   */\n      0x00\n        /* \"#utility.yul\":15812:15836   */\n      tag_566\n        /* \"#utility.yul\":15830:15835   */\n      dup3\n        /* \"#utility.yul\":15812:15836   */\n      tag_471\n      jump\t// in\n    tag_566:\n        /* \"#utility.yul\":15801:15836   */\n      swap1\n      pop\n        /* \"#utility.yul\":15732:15842   */\n      swap2\n      swap1\n      pop\n      jump\t// out\n        /* \"#utility.yul\":15848:15960   */\n    tag_567:\n        /* \"#utility.yul\":15901:15908   */\n      0x00\n        /* \"#utility.yul\":15930:15954   */\n      tag_569\n        /* \"#utility.yul\":15948:15953   */\n      dup3\n        /* \"#utility.yul\":15930:15954   */\n      tag_471\n      jump\t// in\n    tag_569:\n        /* \"#utility.yul\":15919:15954   */\n      swap1\n      pop\n        /* \"#utility.yul\":15848:15960   */\n      swap2\n      swap1\n      pop\n      jump\t// out\n        /* \"#utility.yul\":15966:16082   */\n    tag_570:\n        /* \"#utility.yul\":16023:16030   */\n      0x00\n        /* \"#utility.yul\":16052:16076   */\n      tag_572\n        /* \"#utility.yul\":16070:16075   */\n      dup3\n        /* \"#utility.yul\":16052:16076   */\n      tag_471\n      jump\t// in\n    tag_572:\n        /* \"#utility.yul\":16041:16076   */\n      swap1\n      pop\n        /* \"#utility.yul\":15966:16082   */\n      swap2\n      swap1\n      pop\n      jump\t// out\n        /* \"#utility.yul\":16088:16204   */\n    tag_573:\n        /* \"#utility.yul\":16145:16152   */\n      0x00\n        /* \"#utility.yul\":16174:16198   */\n      tag_575\n        /* \"#utility.yul\":16192:16197   */\n      dup3\n        /* \"#utility.yul\":16174:16198   */\n      tag_471\n      jump\t// in\n    tag_575:\n        /* \"#utility.yul\":16163:16198   */\n      swap1\n      pop\n        /* \"#utility.yul\":16088:16204   */\n      swap2\n      swap1\n      pop\n      jump\t// out\n        /* \"#utility.yul\":16210:16331   */\n    tag_576:\n        /* \"#utility.yul\":16272:16279   */\n      0x00\n        /* \"#utility.yul\":16301:16325   */\n      tag_578\n        /* \"#utility.yul\":16319:16324   */\n      dup3\n        /* \"#utility.yul\":16301:16325   */\n      tag_471\n      jump\t// in\n    tag_578:\n        /* \"#utility.yul\":16290:16325   */\n      swap1\n      pop\n        /* \"#utility.yul\":16210:16331   */\n      swap2\n      swap1\n      pop\n      jump\t// out\n        /* \"#utility.yul\":16337:16451   */\n    tag_579:\n        /* \"#utility.yul\":16374:16381   */\n      0x00\n        /* \"#utility.yul\":16414:16444   */\n      0xffffffffffffffffffffffffffff\n        /* \"#utility.yul\":16407:16412   */\n      dup3\n        /* \"#utility.yul\":16403:16445   */\n      and\n        /* \"#utility.yul\":16392:16445   */\n      swap1\n      pop\n        /* \"#utility.yul\":16337:16451   */\n      swap2\n      swap1\n      pop\n      jump\t// out\n        /* \"#utility.yul\":16457:16583   */\n    tag_563:\n        /* \"#utility.yul\":16494:16501   */\n      0x00\n        /* \"#utility.yul\":16534:16576   */\n      0xffffffffffffffffffffffffffffffffffffffff\n        /* \"#utility.yul\":16527:16532   */\n      dup3\n        /* \"#utility.yul\":16523:16577   */\n      and\n        /* \"#utility.yul\":16512:16577   */\n      swap1\n      pop\n        /* \"#utility.yul\":16457:16583   */\n      swap2\n      swap1\n      pop\n      jump\t// out\n        /* \"#utility.yul\":16589:16666   */\n    tag_506:\n        /* \"#utility.yul\":16626:16633   */\n      0x00\n        /* \"#utility.yul\":16655:16660   */\n      dup2\n        /* \"#utility.yul\":16644:16660   */\n      swap1\n      pop\n        /* \"#utility.yul\":16589:16666   */\n      swap2\n      swap1\n      pop\n      jump\t// out\n        /* \"#utility.yul\":16672:16765   */\n    tag_583:\n        /* \"#utility.yul\":16708:16715   */\n      0x00\n        /* \"#utility.yul\":16748:16758   */\n      0xffffffff\n        /* \"#utility.yul\":16741:16746   */\n      dup3\n        /* \"#utility.yul\":16737:16759   */\n      and\n        /* \"#utility.yul\":16726:16759   */\n      swap1\n      pop\n        /* \"#utility.yul\":16672:16765   */\n      swap2\n      swap1\n      pop\n      jump\t// out\n        /* \"#utility.yul\":16771:16911   */\n    tag_475:\n        /* \"#utility.yul\":16835:16844   */\n      0x00\n        /* \"#utility.yul\":16868:16905   */\n      tag_586\n        /* \"#utility.yul\":16899:16904   */\n      dup3\n        /* \"#utility.yul\":16868:16905   */\n      tag_587\n      jump\t// in\n    tag_586:\n        /* \"#utility.yul\":16855:16905   */\n      swap1\n      pop\n        /* \"#utility.yul\":16771:16911   */\n      swap2\n      swap1\n      pop\n      jump\t// out\n        /* \"#utility.yul\":16917:17059   */\n    tag_479:\n        /* \"#utility.yul\":16983:16992   */\n      0x00\n        /* \"#utility.yul\":17016:17053   */\n      tag_589\n        /* \"#utility.yul\":17047:17052   */\n      dup3\n        /* \"#utility.yul\":17016:17053   */\n      tag_587\n      jump\t// in\n    tag_589:\n        /* \"#utility.yul\":17003:17053   */\n      swap1\n      pop\n        /* \"#utility.yul\":16917:17059   */\n      swap2\n      swap1\n      pop\n      jump\t// out\n        /* \"#utility.yul\":17065:17211   */\n    tag_483:\n        /* \"#utility.yul\":17135:17144   */\n      0x00\n        /* \"#utility.yul\":17168:17205   */\n      tag_591\n        /* \"#utility.yul\":17199:17204   */\n      dup3\n        /* \"#utility.yul\":17168:17205   */\n      tag_587\n      jump\t// in\n    tag_591:\n        /* \"#utility.yul\":17155:17205   */\n      swap1\n      pop\n        /* \"#utility.yul\":17065:17211   */\n      swap2\n      swap1\n      pop\n      jump\t// out\n        /* \"#utility.yul\":17217:17363   */\n    tag_487:\n        /* \"#utility.yul\":17287:17296   */\n      0x00\n        /* \"#utility.yul\":17320:17357   */\n      tag_593\n        /* \"#utility.yul\":17351:17356   */\n      dup3\n        /* \"#utility.yul\":17320:17357   */\n      tag_587\n      jump\t// in\n    tag_593:\n        /* \"#utility.yul\":17307:17357   */\n      swap1\n      pop\n        /* \"#utility.yul\":17217:17363   */\n      swap2\n      swap1\n      pop\n      jump\t// out\n        /* \"#utility.yul\":17369:17520   */\n    tag_491:\n        /* \"#utility.yul\":17444:17453   */\n      0x00\n        /* \"#utility.yul\":17477:17514   */\n      tag_595\n        /* \"#utility.yul\":17508:17513   */\n      dup3\n        /* \"#utility.yul\":17477:17514   */\n      tag_587\n      jump\t// in\n    tag_595:\n        /* \"#utility.yul\":17464:17514   */\n      swap1\n      pop\n        /* \"#utility.yul\":17369:17520   */\n      swap2\n      swap1\n      pop\n      jump\t// out\n        /* \"#utility.yul\":17526:17652   */\n    tag_587:\n        /* \"#utility.yul\":17576:17585   */\n      0x00\n        /* \"#utility.yul\":17609:17646   */\n      tag_597\n        /* \"#utility.yul\":17640:17645   */\n      dup3\n        /* \"#utility.yul\":17609:17646   */\n      tag_598\n      jump\t// in\n    tag_597:\n        /* \"#utility.yul\":17596:17646   */\n      swap1\n      pop\n        /* \"#utility.yul\":17526:17652   */\n      swap2\n      swap1\n      pop\n      jump\t// out\n        /* \"#utility.yul\":17658:17771   */\n    tag_598:\n        /* \"#utility.yul\":17708:17717   */\n      0x00\n        /* \"#utility.yul\":17741:17765   */\n      tag_600\n        /* \"#utility.yul\":17759:17764   */\n      dup3\n        /* \"#utility.yul\":17741:17765   */\n      tag_563\n      jump\t// in\n    tag_600:\n        /* \"#utility.yul\":17728:17765   */\n      swap1\n      pop\n        /* \"#utility.yul\":17658:17771   */\n      swap2\n      swap1\n      pop\n      jump\t// out\n        /* \"#utility.yul\":17777:18058   */\n    tag_532:\n        /* \"#utility.yul\":17860:17887   */\n      tag_602\n        /* \"#utility.yul\":17882:17886   */\n      dup3\n        /* \"#utility.yul\":17860:17887   */\n      tag_603\n      jump\t// in\n    tag_602:\n        /* \"#utility.yul\":17852:17858   */\n      dup2\n        /* \"#utility.yul\":17848:17888   */\n      add\n        /* \"#utility.yul\":17990:17996   */\n      dup2\n        /* \"#utility.yul\":17978:17988   */\n      dup2\n        /* \"#utility.yul\":17975:17997   */\n      lt\n        /* \"#utility.yul\":17954:17972   */\n      0xffffffffffffffff\n        /* \"#utility.yul\":17942:17952   */\n      dup3\n        /* \"#utility.yul\":17939:17973   */\n      gt\n        /* \"#utility.yul\":17936:17998   */\n      or\n        /* \"#utility.yul\":17933:18021   */\n      iszero\n      tag_604\n      jumpi\n        /* \"#utility.yul\":18001:18019   */\n      tag_605\n      tag_537\n      jump\t// in\n    tag_605:\n        /* \"#utility.yul\":17933:18021   */\n    tag_604:\n        /* \"#utility.yul\":18041:18051   */\n      dup1\n        /* \"#utility.yul\":18037:18039   */\n      0x40\n        /* \"#utility.yul\":18030:18052   */\n      mstore\n        /* \"#utility.yul\":17820:18058   */\n      pop\n        /* \"#utility.yul\":17777:18058   */\n      pop\n      pop\n      jump\t// out\n        /* \"#utility.yul\":18064:18297   */\n    tag_207:\n        /* \"#utility.yul\":18103:18106   */\n      0x00\n        /* \"#utility.yul\":18126:18150   */\n      tag_607\n        /* \"#utility.yul\":18144:18149   */\n      dup3\n        /* \"#utility.yul\":18126:18150   */\n      tag_506\n      jump\t// in\n    tag_607:\n        /* \"#utility.yul\":18117:18150   */\n      swap2\n      pop\n        /* \"#utility.yul\":18172:18238   */\n      0xffffffffffffffffffffffffffffffffffffffffffffffffffffffffffffffff\n        /* \"#utility.yul\":18165:18170   */\n      dup3\n        /* \"#utility.yul\":18162:18239   */\n      eq\n        /* \"#utility.yul\":18159:18262   */\n      iszero\n      tag_608\n      jumpi\n        /* \"#utility.yul\":18242:18260   */\n      tag_609\n      tag_544\n      jump\t// in\n    tag_609:\n        /* \"#utility.yul\":18159:18262   */\n    tag_608:\n        /* \"#utility.yul\":18289:18290   */\n      0x01\n        /* \"#utility.yul\":18282:18287   */\n      dup3\n        /* \"#utility.yul\":18278:18291   */\n      add\n        /* \"#utility.yul\":18271:18291   */\n      swap1\n      pop\n        /* \"#utility.yul\":18064:18297   */\n      swap2\n      swap1\n      pop\n      jump\t// out\n        /* \"#utility.yul\":18303:18483   */\n    tag_544:\n        /* \"#utility.yul\":18351:18428   */\n      0x4e487b7100000000000000000000000000000000000000000000000000000000\n        /* \"#utility.yul\":18348:18349   */\n      0x00\n        /* \"#utility.yul\":18341:18429   */\n      mstore\n        /* \"#utility.yul\":18448:18452   */\n      0x11\n        /* \"#utility.yul\":18445:18446   */\n      0x04\n        /* \"#utility.yul\":18438:18453   */\n      mstore\n        /* \"#utility.yul\":18472:18476   */\n      0x24\n        /* \"#utility.yul\":18469:18470   */\n      0x00\n        /* \"#utility.yul\":18462:18477   */\n      revert\n        /* \"#utility.yul\":18489:18669   */\n    tag_550:\n        /* \"#utility.yul\":18537:18614   */\n      0x4e487b7100000000000000000000000000000000000000000000000000000000\n        /* \"#utility.yul\":18534:18535   */\n      0x00\n        /* \"#utility.yul\":18527:18615   */\n      mstore\n        /* \"#utility.yul\":18634:18638   */\n      0x12\n        /* \"#utility.yul\":18631:18632   */\n      0x04\n        /* \"#utility.yul\":18624:18639   */\n      mstore\n        /* \"#utility.yul\":18658:18662   */\n      0x24\n        /* \"#utility.yul\":18655:18656   */\n      0x00\n        /* \"#utility.yul\":18648:18663   */\n      revert\n        /* \"#utility.yul\":18675:18855   */\n    tag_249:\n        /* \"#utility.yul\":18723:18800   */\n      0x4e487b7100000000000000000000000000000000000000000000000000000000\n        /* \"#utility.yul\":18720:18721   */\n      0x00\n        /* \"#utility.yul\":18713:18801   */\n      mstore\n        /* \"#utility.yul\":18820:18824   */\n      0x31\n        /* \"#utility.yul\":18817:18818   */\n      0x04\n        /* \"#utility.yul\":18810:18825   */\n      mstore\n        /* \"#utility.yul\":18844:18848   */\n      0x24\n        /* \"#utility.yul\":18841:18842   */\n      0x00\n        /* \"#utility.yul\":18834:18849   */\n      revert\n        /* \"#utility.yul\":18861:19041   */\n    tag_237:\n        /* \"#utility.yul\":18909:18986   */\n      0x4e487b7100000000000000000000000000000000000000000000000000000000\n        /* \"#utility.yul\":18906:18907   */\n      0x00\n        /* \"#utility.yul\":18899:18987   */\n      mstore\n        /* \"#utility.yul\":19006:19010   */\n      0x32\n        /* \"#utility.yul\":19003:19004   */\n      0x04\n        /* \"#utility.yul\":18996:19011   */\n      mstore\n        /* \"#utility.yul\":19030:19034   */\n      0x24\n        /* \"#utility.yul\":19027:19028   */\n      0x00\n        /* \"#utility.yul\":19020:19035   */\n      revert\n        /* \"#utility.yul\":19047:19227   */\n    tag_537:\n        /* \"#utility.yul\":19095:19172   */\n      0x4e487b7100000000000000000000000000000000000000000000000000000000\n        /* \"#utility.yul\":19092:19093   */\n      0x00\n        /* \"#utility.yul\":19085:19173   */\n      mstore\n        /* \"#utility.yul\":19192:19196   */\n      0x41\n        /* \"#utility.yul\":19189:19190   */\n      0x04\n        /* \"#utility.yul\":19182:19197   */\n      mstore\n        /* \"#utility.yul\":19216:19220   */\n      0x24\n        /* \"#utility.yul\":19213:19214   */\n      0x00\n        /* \"#utility.yul\":19206:19221   */\n      revert\n        /* \"#utility.yul\":19233:19350   */\n    tag_369:\n        /* \"#utility.yul\":19342:19343   */\n      0x00\n        /* \"#utility.yul\":19339:19340   */\n      dup1\n        /* \"#utility.yul\":19332:19344   */\n      revert\n        /* \"#utility.yul\":19356:19473   */\n    tag_395:\n        /* \"#utility.yul\":19465:19466   */\n      0x00\n        /* \"#utility.yul\":19462:19463   */\n      dup1\n        /* \"#utility.yul\":19455:19467   */\n      revert\n        /* \"#utility.yul\":19602:19719   */\n    tag_352:\n        /* \"#utility.yul\":19711:19712   */\n      0x00\n        /* \"#utility.yul\":19708:19709   */\n      dup1\n        /* \"#utility.yul\":19701:19713   */\n      revert\n        /* \"#utility.yul\":19725:19842   */\n    tag_432:\n        /* \"#utility.yul\":19834:19835   */\n      0x00\n        /* \"#utility.yul\":19831:19832   */\n      dup1\n        /* \"#utility.yul\":19824:19836   */\n      revert\n        /* \"#utility.yul\":19848:19965   */\n    tag_420:\n        /* \"#utility.yul\":19957:19958   */\n      0x00\n        /* \"#utility.yul\":19954:19955   */\n      dup1\n        /* \"#utility.yul\":19947:19959   */\n      revert\n        /* \"#utility.yul\":19971:20073   */\n    tag_603:\n        /* \"#utility.yul\":20012:20018   */\n      0x00\n        /* \"#utility.yul\":20063:20065   */\n      0x1f\n        /* \"#utility.yul\":20059:20066   */\n      not\n        /* \"#utility.yul\":20054:20056   */\n      0x1f\n        /* \"#utility.yul\":20047:20052   */\n      dup4\n        /* \"#utility.yul\":20043:20057   */\n      add\n        /* \"#utility.yul\":20039:20067   */\n      and\n        /* \"#utility.yul\":20029:20067   */\n      swap1\n      pop\n        /* \"#utility.yul\":19971:20073   */\n      swap2\n      swap1\n      pop\n      jump\t// out\n        /* \"#utility.yul\":20079:20304   */\n    tag_497:\n        /* \"#utility.yul\":20219:20253   */\n      0x4f776e61626c653a206e6577206f776e657220697320746865207a65726f2061\n        /* \"#utility.yul\":20215:20216   */\n      0x00\n        /* \"#utility.yul\":20207:20213   */\n      dup3\n        /* \"#utility.yul\":20203:20217   */\n      add\n        /* \"#utility.yul\":20196:20254   */\n      mstore\n        /* \"#utility.yul\":20288:20296   */\n      0x6464726573730000000000000000000000000000000000000000000000000000\n        /* \"#utility.yul\":20283:20285   */\n      0x20\n        /* \"#utility.yul\":20275:20281   */\n      dup3\n        /* \"#utility.yul\":20271:20286   */\n      add\n        /* \"#utility.yul\":20264:20297   */\n      mstore\n        /* \"#utility.yul\":20079:20304   */\n      pop\n      jump\t// out\n        /* \"#utility.yul\":20310:20492   */\n    tag_502:\n        /* \"#utility.yul\":20450:20484   */\n      0x4f776e61626c653a2063616c6c6572206973206e6f7420746865206f776e6572\n        /* \"#utility.yul\":20446:20447   */\n      0x00\n        /* \"#utility.yul\":20438:20444   */\n      dup3\n        /* \"#utility.yul\":20434:20448   */\n      add\n        /* \"#utility.yul\":20427:20485   */\n      mstore\n        /* \"#utility.yul\":20310:20492   */\n      pop\n      jump\t// out\n        /* \"#utility.yul\":20498:20620   */\n    tag_361:\n        /* \"#utility.yul\":20571:20595   */\n      tag_626\n        /* \"#utility.yul\":20589:20594   */\n      dup2\n        /* \"#utility.yul\":20571:20595   */\n      tag_471\n      jump\t// in\n    tag_626:\n        /* \"#utility.yul\":20564:20569   */\n      dup2\n        /* \"#utility.yul\":20561:20596   */\n      eq\n        /* \"#utility.yul\":20551:20614   */\n      tag_627\n      jumpi\n        /* \"#utility.yul\":20610:20611   */\n      0x00\n        /* \"#utility.yul\":20607:20608   */\n      dup1\n        /* \"#utility.yul\":20600:20612   */\n      revert\n        /* \"#utility.yul\":20551:20614   */\n    tag_627:\n        /* \"#utility.yul\":20498:20620   */\n      pop\n      jump\t// out\n        /* \"#utility.yul\":20626:20776   */\n    tag_374:\n        /* \"#utility.yul\":20713:20751   */\n      tag_629\n        /* \"#utility.yul\":20745:20750   */\n      dup2\n        /* \"#utility.yul\":20713:20751   */\n      tag_564\n      jump\t// in\n    tag_629:\n        /* \"#utility.yul\":20706:20711   */\n      dup2\n        /* \"#utility.yul\":20703:20752   */\n      eq\n        /* \"#utility.yul\":20693:20770   */\n      tag_630\n      jumpi\n        /* \"#utility.yul\":20766:20767   */\n      0x00\n        /* \"#utility.yul\":20763:20764   */\n      dup1\n        /* \"#utility.yul\":20756:20768   */\n      revert\n        /* \"#utility.yul\":20693:20770   */\n    tag_630:\n        /* \"#utility.yul\":20626:20776   */\n      pop\n      jump\t// out\n        /* \"#utility.yul\":20782:20936   */\n    tag_378:\n        /* \"#utility.yul\":20871:20911   */\n      tag_632\n        /* \"#utility.yul\":20905:20910   */\n      dup2\n        /* \"#utility.yul\":20871:20911   */\n      tag_567\n      jump\t// in\n    tag_632:\n        /* \"#utility.yul\":20864:20869   */\n      dup2\n        /* \"#utility.yul\":20861:20912   */\n      eq\n        /* \"#utility.yul\":20851:20930   */\n      tag_633\n      jumpi\n        /* \"#utility.yul\":20926:20927   */\n      0x00\n        /* \"#utility.yul\":20923:20924   */\n      dup1\n        /* \"#utility.yul\":20916:20928   */\n      revert\n        /* \"#utility.yul\":20851:20930   */\n    tag_633:\n        /* \"#utility.yul\":20782:20936   */\n      pop\n      jump\t// out\n        /* \"#utility.yul\":20942:21104   */\n    tag_382:\n        /* \"#utility.yul\":21035:21079   */\n      tag_635\n        /* \"#utility.yul\":21073:21078   */\n      dup2\n        /* \"#utility.yul\":21035:21079   */\n      tag_570\n      jump\t// in\n    tag_635:\n        /* \"#utility.yul\":21028:21033   */\n      dup2\n        /* \"#utility.yul\":21025:21080   */\n      eq\n        /* \"#utility.yul\":21015:21098   */\n      tag_636\n      jumpi\n        /* \"#utility.yul\":21094:21095   */\n      0x00\n        /* \"#utility.yul\":21091:21092   */\n      dup1\n        /* \"#utility.yul\":21084:21096   */\n      revert\n        /* \"#utility.yul\":21015:21098   */\n    tag_636:\n        /* \"#utility.yul\":20942:21104   */\n      pop\n      jump\t// out\n        /* \"#utility.yul\":21110:21272   */\n    tag_386:\n        /* \"#utility.yul\":21203:21247   */\n      tag_638\n        /* \"#utility.yul\":21241:21246   */\n      dup2\n        /* \"#utility.yul\":21203:21247   */\n      tag_573\n      jump\t// in\n    tag_638:\n        /* \"#utility.yul\":21196:21201   */\n      dup2\n        /* \"#utility.yul\":21193:21248   */\n      eq\n        /* \"#utility.yul\":21183:21266   */\n      tag_639\n      jumpi\n        /* \"#utility.yul\":21262:21263   */\n      0x00\n        /* \"#utility.yul\":21259:21260   */\n      dup1\n        /* \"#utility.yul\":21252:21264   */\n      revert\n        /* \"#utility.yul\":21183:21266   */\n    tag_639:\n        /* \"#utility.yul\":21110:21272   */\n      pop\n      jump\t// out\n        /* \"#utility.yul\":21278:21450   */\n    tag_390:\n        /* \"#utility.yul\":21376:21425   */\n      tag_641\n        /* \"#utility.yul\":21419:21424   */\n      dup2\n        /* \"#utility.yul\":21376:21425   */\n      tag_576\n      jump\t// in\n    tag_641:\n        /* \"#utility.yul\":21369:21374   */\n      dup2\n        /* \"#utility.yul\":21366:21426   */\n      eq\n        /* \"#utility.yul\":21356:21444   */\n      tag_642\n      jumpi\n        /* \"#utility.yul\":21440:21441   */\n      0x00\n        /* \"#utility.yul\":21437:21438   */\n      dup1\n        /* \"#utility.yul\":21430:21442   */\n      revert\n        /* \"#utility.yul\":21356:21444   */\n    tag_642:\n        /* \"#utility.yul\":21278:21450   */\n      pop\n      jump\t// out\n        /* \"#utility.yul\":21456:21578   */\n    tag_406:\n        /* \"#utility.yul\":21529:21553   */\n      tag_644\n        /* \"#utility.yul\":21547:21552   */\n      dup2\n        /* \"#utility.yul\":21529:21553   */\n      tag_579\n      jump\t// in\n    tag_644:\n        /* \"#utility.yul\":21522:21527   */\n      dup2\n        /* \"#utility.yul\":21519:21554   */\n      eq\n        /* \"#utility.yul\":21509:21572   */\n      tag_645\n      jumpi\n        /* \"#utility.yul\":21568:21569   */\n      0x00\n        /* \"#utility.yul\":21565:21566   */\n      dup1\n        /* \"#utility.yul\":21558:21570   */\n      revert\n        /* \"#utility.yul\":21509:21572   */\n    tag_645:\n        /* \"#utility.yul\":21456:21578   */\n      pop\n      jump\t// out\n        /* \"#utility.yul\":21584:21706   */\n    tag_410:\n        /* \"#utility.yul\":21657:21681   */\n      tag_647\n        /* \"#utility.yul\":21675:21680   */\n      dup2\n        /* \"#utility.yul\":21657:21681   */\n      tag_506\n      jump\t// in\n    tag_647:\n        /* \"#utility.yul\":21650:21655   */\n      dup2\n        /* \"#utility.yul\":21647:21682   */\n      eq\n        /* \"#utility.yul\":21637:21700   */\n      tag_648\n      jumpi\n        /* \"#utility.yul\":21696:21697   */\n      0x00\n        /* \"#utility.yul\":21693:21694   */\n      dup1\n        /* \"#utility.yul\":21686:21698   */\n      revert\n        /* \"#utility.yul\":21637:21700   */\n    tag_648:\n        /* \"#utility.yul\":21584:21706   */\n      pop\n      jump\t// out\n        /* \"#utility.yul\":21712:21832   */\n    tag_416:\n        /* \"#utility.yul\":21784:21807   */\n      tag_650\n        /* \"#utility.yul\":21801:21806   */\n      dup2\n        /* \"#utility.yul\":21784:21807   */\n      tag_583\n      jump\t// in\n    tag_650:\n        /* \"#utility.yul\":21777:21782   */\n      dup2\n        /* \"#utility.yul\":21774:21808   */\n      eq\n        /* \"#utility.yul\":21764:21826   */\n      tag_651\n      jumpi\n        /* \"#utility.yul\":21822:21823   */\n      0x00\n        /* \"#utility.yul\":21819:21820   */\n      dup1\n        /* \"#utility.yul\":21812:21824   */\n      revert\n        /* \"#utility.yul\":21764:21826   */\n    tag_651:\n        /* \"#utility.yul\":21712:21832   */\n      pop\n      jump\t// out\n\n    auxdata: 0xa26469706673582212203344d8abdfaa9c75ae6407bb76873e4fceae87d4520ae975dc4b21310070622764736f6c63430008070033\n}\n",
				"bytecode": {
					"linkReferences": {},
					"object": "60806040523480156200001157600080fd5b5062000032620000266200003860201b60201c565b6200004060201b60201c565b62000104565b600033905090565b60008060009054906101000a900473ffffffffffffffffffffffffffffffffffffffff169050816000806101000a81548173ffffffffffffffffffffffffffffffffffffffff021916908373ffffffffffffffffffffffffffffffffffffffff1602179055508173ffffffffffffffffffffffffffffffffffffffff168173ffffffffffffffffffffffffffffffffffffffff167f8be0079c531659141344cd1fd0a4f28419497f9722a3daafe3b4186f6b6457e060405160405180910390a35050565b6126c980620001146000396000f3fe608060405234801561001057600080fd5b50600436106101c35760003560e01c80634ea2813c116100f9578063a7288c2e11610097578063f0b7db4e11610071578063f0b7db4e14610502578063f2fde38b14610520578063f479ef221461053c578063fbec6f2114610558576101c3565b8063a7288c2e14610484578063b8c9d25c146104b4578063bf8ebd85146104d2576101c3565b806376ed535a116100d357806376ed535a14610410578063841196661461042c5780638bb8c68f1461044a5780638da5cb5b14610466576101c3565b80634ea2813c146103cc5780636de5368b146103e8578063715018a614610406576101c3565b806310a5806a116101665780632540d8a7116101405780632540d8a7146103205780633445d3811461035057806342632ee01461038057806349fd566b146103b0576101c3565b806310a5806a146102b657806317d8b80c146102d45780631fb5d3c2146102f0576101c3565b80630651823e116101a25780630651823e146102325780630b75aa361461024e5780630ed7b8611461027e5780630f79ede91461029a576101c3565b8062c2378f146101c85780630314214c146101f85780630520b70814610216575b600080fd5b6101e260048036038101906101dd9190611cef565b610576565b6040516101ef91906120ed565b60405180910390f35b610200610594565b60405161020d9190612041565b60405180910390f35b610230600480360381019061022b9190611dd2565b6105ba565b005b61024c60048036038101906102479190611da5565b61067a565b005b61026860048036038101906102639190611cef565b61073a565b60405161027591906120ed565b60405180910390f35b61029860048036038101906102939190611e2c565b610785565b005b6102b460048036038101906102af9190611d1c565b610845565b005b6102be610905565b6040516102cb9190612077565b60405180910390f35b6102ee60048036038101906102e99190611e59565b61092b565b005b61030a60048036038101906103059190611cef565b6109eb565b60405161031791906120ed565b60405180910390f35b61033a60048036038101906103359190611cef565b610a9f565b60405161034791906120ed565b60405180910390f35b61036a60048036038101906103659190611cef565b610c3c565b60405161037791906120ed565b60405180910390f35b61039a60048036038101906103959190611cef565b610cf0565b6040516103a791906120ed565b60405180910390f35b6103ca60048036038101906103c59190611d1c565b610ea7565b005b6103e660048036038101906103e19190611d1c565b611151565b005b6103f0611233565b6040516103fd9190612026565b60405180910390f35b61040e611259565b005b61042a60048036038101906104259190611dd2565b6112e1565b005b6104346113a1565b6040516104419190612092565b60405180910390f35b610464600480360381019061045f9190611dff565b6113c7565b005b61046e611487565b60405161047b9190611fe2565b60405180910390f35b61049e60048036038101906104999190611cef565b6114b0565b6040516104ab91906120ed565b60405180910390f35b6104bc61150e565b6040516104c9919061205c565b60405180910390f35b6104ec60048036038101906104e79190611cef565b611534565b6040516104f991906120ed565b60405180910390f35b61050a6117ce565b6040516105179190612041565b60405180910390f35b61053a60048036038101906105359190611cef565b6117f4565b005b61055660048036038101906105519190611dd2565b6118ec565b005b6105606119ac565b60405161056d9190612041565b60405180910390f35b60086020528060005260406000206000915090508060010154905081565b600560009054906101000a900473ffffffffffffffffffffffffffffffffffffffff1681565b6105c26119d2565b73ffffffffffffffffffffffffffffffffffffffff166105e0611487565b73ffffffffffffffffffffffffffffffffffffffff1614610636576040517f08c379a000000000000000000000000000000000000000000000000000000000815260040161062d906120cd565b60405180910390fd5b80600660006101000a81548173ffffffffffffffffffffffffffffffffffffffff021916908373ffffffffffffffffffffffffffffffffffffffff16021790555050565b6106826119d2565b73ffffffffffffffffffffffffffffffffffffffff166106a0611487565b73ffffffffffffffffffffffffffffffffffffffff16146106f6576040517f08c379a00000000000000000000000000000000000000000000000000000000081526004016106ed906120cd565b60405180910390fd5b80600160006101000a81548173ffffffffffffffffffffffffffffffffffffffff021916908373ffffffffffffffffffffffffffffffffffffffff16021790555050565b600061074582610a9f565b61074e83610cf0565b610757846109eb565b61076085610c3c565b61076a919061216a565b610774919061216a565b61077e919061216a565b9050919050565b61078d6119d2565b73ffffffffffffffffffffffffffffffffffffffff166107ab611487565b73ffffffffffffffffffffffffffffffffffffffff1614610801576040517f08c379a00000000000000000000000000000000000000000000000000000000081526004016107f8906120cd565b60405180910390fd5b80600260006101000a81548173ffffffffffffffffffffffffffffffffffffffff021916908373ffffffffffffffffffffffffffffffffffffffff16021790555050565b8173ffffffffffffffffffffffffffffffffffffffff163373ffffffffffffffffffffffffffffffffffffffff1614806108b15750610882611487565b73ffffffffffffffffffffffffffffffffffffffff163373ffffffffffffffffffffffffffffffffffffffff16145b6108ba57600080fd5b80600860008473ffffffffffffffffffffffffffffffffffffffff1673ffffffffffffffffffffffffffffffffffffffff168152602001908152602001600020600101819055505050565b600260009054906101000a900473ffffffffffffffffffffffffffffffffffffffff1681565b6109336119d2565b73ffffffffffffffffffffffffffffffffffffffff16610951611487565b73ffffffffffffffffffffffffffffffffffffffff16146109a7576040517f08c379a000000000000000000000000000000000000000000000000000000000815260040161099e906120cd565b60405180910390fd5b80600460006101000a81548173ffffffffffffffffffffffffffffffffffffffff021916908373ffffffffffffffffffffffffffffffffffffffff16021790555050565b6000600260009054906101000a900473ffffffffffffffffffffffffffffffffffffffff1673ffffffffffffffffffffffffffffffffffffffff1663c5d63d0a836040518263ffffffff1660e01b8152600401610a489190611fe2565b60206040518083038186803b158015610a6057600080fd5b505afa158015610a74573d6000803e3d6000fd5b505050506040513d601f19601f82011682018060405250810190610a989190611f06565b9050919050565b6000806000600460009054906101000a900473ffffffffffffffffffffffffffffffffffffffff1673ffffffffffffffffffffffffffffffffffffffff166380017f4e856040518263ffffffff1660e01b8152600401610aff9190611fe2565b60006040518083038186803b158015610b1757600080fd5b505afa158015610b2b573d6000803e3d6000fd5b505050506040513d6000823e3d601f19601f82011682018060405250810190610b549190611d5c565b905060005b8151811015610c3157600460009054906101000a900473ffffffffffffffffffffffffffffffffffffffff1673ffffffffffffffffffffffffffffffffffffffff166351d70bc4826040518263ffffffff1660e01b8152600401610bbd91906120ed565b60c06040518083038186803b158015610bd557600080fd5b505afa158015610be9573d6000803e3d6000fd5b505050506040513d601f19601f82011682018060405250810190610c0d9190611e86565b6080015183610c1c919061216a565b92508080610c29906123ee565b915050610b59565b508192505050919050565b6000600160009054906101000a900473ffffffffffffffffffffffffffffffffffffffff1673ffffffffffffffffffffffffffffffffffffffff166370a08231836040518263ffffffff1660e01b8152600401610c999190611fe2565b60206040518083038186803b158015610cb157600080fd5b505afa158015610cc5573d6000803e3d6000fd5b505050506040513d601f19601f82011682018060405250810190610ce99190611f06565b9050919050565b600080600080600360009054906101000a900473ffffffffffffffffffffffffffffffffffffffff1673ffffffffffffffffffffffffffffffffffffffff16630902f1ac6040518163ffffffff1660e01b815260040160606040518083038186803b158015610d5e57600080fd5b505afa158015610d72573d6000803e3d6000fd5b505050506040513d601f19601f82011682018060405250810190610d969190611eb3565b8093508194508295505050506000610dd7836dffffffffffffffffffffffffffff16856dffffffffffffffffffffffffffff166119da90919063ffffffff16565b90506000600360009054906101000a900473ffffffffffffffffffffffffffffffffffffffff1673ffffffffffffffffffffffffffffffffffffffff166370a08231886040518263ffffffff1660e01b8152600401610e369190611fe2565b60206040518083038186803b158015610e4e57600080fd5b505afa158015610e62573d6000803e3d6000fd5b505050506040513d601f19601f82011682018060405250810190610e869190611f06565b9050610e9b81836119f090919063ffffffff16565b95505050505050919050565b8173ffffffffffffffffffffffffffffffffffffffff163373ffffffffffffffffffffffffffffffffffffffff161480610f135750610ee4611487565b73ffffffffffffffffffffffffffffffffffffffff163373ffffffffffffffffffffffffffffffffffffffff16145b610f1c57600080fd5b80600860008473ffffffffffffffffffffffffffffffffffffffff1673ffffffffffffffffffffffffffffffffffffffff1681526020019081526020016000206000016001600860008673ffffffffffffffffffffffffffffffffffffffff1673ffffffffffffffffffffffffffffffffffffffff16815260200190815260200160002060000180549050610fb1919061224b565b81548110610fc257610fc16124c4565b5b9060005260206000200154146110e557600860008373ffffffffffffffffffffffffffffffffffffffff1673ffffffffffffffffffffffffffffffffffffffff1681526020019081526020016000206000016001600860008573ffffffffffffffffffffffffffffffffffffffff1673ffffffffffffffffffffffffffffffffffffffff16815260200190815260200160002060000180549050611066919061224b565b81548110611077576110766124c4565b5b9060005260206000200154600860008473ffffffffffffffffffffffffffffffffffffffff1673ffffffffffffffffffffffffffffffffffffffff16815260200190815260200160002060000182815481106110d6576110d56124c4565b5b90600052602060002001819055505b600860008373ffffffffffffffffffffffffffffffffffffffff1673ffffffffffffffffffffffffffffffffffffffff16815260200190815260200160002060000180548061113757611136612495565b5b600190038181906000526020600020016000905590555050565b8173ffffffffffffffffffffffffffffffffffffffff163373ffffffffffffffffffffffffffffffffffffffff1614806111bd575061118e611487565b73ffffffffffffffffffffffffffffffffffffffff163373ffffffffffffffffffffffffffffffffffffffff16145b6111c657600080fd5b600860008373ffffffffffffffffffffffffffffffffffffffff1673ffffffffffffffffffffffffffffffffffffffff1681526020019081526020016000206000018190806001815401808255809150506001900390600052602060002001600090919091909150555050565b600160009054906101000a900473ffffffffffffffffffffffffffffffffffffffff1681565b6112616119d2565b73ffffffffffffffffffffffffffffffffffffffff1661127f611487565b73ffffffffffffffffffffffffffffffffffffffff16146112d5576040517f08c379a00000000000000000000000000000000000000000000000000000000081526004016112cc906120cd565b60405180910390fd5b6112df6000611a06565b565b6112e96119d2565b73ffffffffffffffffffffffffffffffffffffffff16611307611487565b73ffffffffffffffffffffffffffffffffffffffff161461135d576040517f08c379a0000000000000000000000000000000000000000000000000000000008152600401611354906120cd565b60405180910390fd5b80600760006101000a81548173ffffffffffffffffffffffffffffffffffffffff021916908373ffffffffffffffffffffffffffffffffffffffff16021790555050565b600460009054906101000a900473ffffffffffffffffffffffffffffffffffffffff1681565b6113cf6119d2565b73ffffffffffffffffffffffffffffffffffffffff166113ed611487565b73ffffffffffffffffffffffffffffffffffffffff1614611443576040517f08c379a000000000000000000000000000000000000000000000000000000000815260040161143a906120cd565b60405180910390fd5b80600360006101000a81548173ffffffffffffffffffffffffffffffffffffffff021916908373ffffffffffffffffffffffffffffffffffffffff16021790555050565b60008060009054906101000a900473ffffffffffffffffffffffffffffffffffffffff16905090565b60006114bb82611534565b6114c483610a9f565b6114cd84610cf0565b6114d6856109eb565b6114df86610c3c565b6114e9919061216a565b6114f3919061216a565b6114fd919061216a565b611507919061216a565b9050919050565b600360009054906101000a900473ffffffffffffffffffffffffffffffffffffffff1681565b6000806000905060005b61044c811161161357600560009054906101000a900473ffffffffffffffffffffffffffffffffffffffff1673ffffffffffffffffffffffffffffffffffffffff1662fdd58e85836040518363ffffffff1660e01b81526004016115a3929190611ffd565b60206040518083038186803b1580156115bb57600080fd5b505afa1580156115cf573d6000803e3d6000fd5b505050506040513d601f19601f820116820180604052508101906115f39190611f06565b826115fe919061216a565b9150808061160b906123ee565b91505061153e565b5060005b61012c81116116ec57600660009054906101000a900473ffffffffffffffffffffffffffffffffffffffff1673ffffffffffffffffffffffffffffffffffffffff1662fdd58e85836040518363ffffffff1660e01b815260040161167c929190611ffd565b60206040518083038186803b15801561169457600080fd5b505afa1580156116a8573d6000803e3d6000fd5b505050506040513d601f19601f820116820180604052508101906116cc9190611f06565b826116d7919061216a565b915080806116e4906123ee565b915050611617565b5060005b606481116117c457600760009054906101000a900473ffffffffffffffffffffffffffffffffffffffff1673ffffffffffffffffffffffffffffffffffffffff1662fdd58e85836040518363ffffffff1660e01b8152600401611754929190611ffd565b60206040518083038186803b15801561176c57600080fd5b505afa158015611780573d6000803e3d6000fd5b505050506040513d601f19601f820116820180604052508101906117a49190611f06565b826117af919061216a565b915080806117bc906123ee565b9150506116f0565b5080915050919050565b600760009054906101000a900473ffffffffffffffffffffffffffffffffffffffff1681565b6117fc6119d2565b73ffffffffffffffffffffffffffffffffffffffff1661181a611487565b73ffffffffffffffffffffffffffffffffffffffff1614611870576040517f08c379a0000000000000000000000000000000000000000000000000000000008152600401611867906120cd565b60405180910390fd5b600073ffffffffffffffffffffffffffffffffffffffff168173ffffffffffffffffffffffffffffffffffffffff1614156118e0576040517f08c379a00000000000000000000000000000000000000000000000000000000081526004016118d7906120ad565b60405180910390fd5b6118e981611a06565b50565b6118f46119d2565b73ffffffffffffffffffffffffffffffffffffffff16611912611487565b73ffffffffffffffffffffffffffffffffffffffff1614611968576040517f08c379a000000000000000000000000000000000000000000000000000000000815260040161195f906120cd565b60405180910390fd5b80600560006101000a81548173ffffffffffffffffffffffffffffffffffffffff021916908373ffffffffffffffffffffffffffffffffffffffff16021790555050565b600660009054906101000a900473ffffffffffffffffffffffffffffffffffffffff1681565b600033905090565b600081836119e891906121c0565b905092915050565b600081836119fe91906121f1565b905092915050565b60008060009054906101000a900473ffffffffffffffffffffffffffffffffffffffff169050816000806101000a81548173ffffffffffffffffffffffffffffffffffffffff021916908373ffffffffffffffffffffffffffffffffffffffff1602179055508173ffffffffffffffffffffffffffffffffffffffff168173ffffffffffffffffffffffffffffffffffffffff167f8be0079c531659141344cd1fd0a4f28419497f9722a3daafe3b4186f6b6457e060405160405180910390a35050565b6000611add611ad88461212d565b612108565b90508083825260208201905082856020860282011115611b0057611aff61252c565b5b60005b85811015611b305781611b168882611cc5565b845260208401935060208301925050600181019050611b03565b5050509392505050565b600081359050611b49816125c4565b92915050565b600081519050611b5e816125c4565b92915050565b600082601f830112611b7957611b78612522565b5b8151611b89848260208601611aca565b91505092915050565b600081359050611ba1816125db565b92915050565b600081359050611bb6816125f2565b92915050565b600081359050611bcb81612609565b92915050565b600081359050611be081612620565b92915050565b600081359050611bf581612637565b92915050565b600060c08284031215611c1157611c10612527565b5b611c1b60c0612108565b90506000611c2b84828501611b4f565b6000830152506020611c3f84828501611cc5565b6020830152506040611c5384828501611cc5565b6040830152506060611c6784828501611cc5565b6060830152506080611c7b84828501611cc5565b60808301525060a0611c8f84828501611cc5565b60a08301525092915050565b600081519050611caa8161264e565b92915050565b600081359050611cbf81612665565b92915050565b600081519050611cd481612665565b92915050565b600081519050611ce98161267c565b92915050565b600060208284031215611d0557611d04612536565b5b6000611d1384828501611b3a565b91505092915050565b60008060408385031215611d3357611d32612536565b5b6000611d4185828601611b3a565b9250506020611d5285828601611cb0565b9150509250929050565b600060208284031215611d7257611d71612536565b5b600082015167ffffffffffffffff811115611d9057611d8f612531565b5b611d9c84828501611b64565b91505092915050565b600060208284031215611dbb57611dba612536565b5b6000611dc984828501611b92565b91505092915050565b600060208284031215611de857611de7612536565b5b6000611df684828501611ba7565b91505092915050565b600060208284031215611e1557611e14612536565b5b6000611e2384828501611bbc565b91505092915050565b600060208284031215611e4257611e41612536565b5b6000611e5084828501611bd1565b91505092915050565b600060208284031215611e6f57611e6e612536565b5b6000611e7d84828501611be6565b91505092915050565b600060c08284031215611e9c57611e9b612536565b5b6000611eaa84828501611bfb565b91505092915050565b600080600060608486031215611ecc57611ecb612536565b5b6000611eda86828701611c9b565b9350506020611eeb86828701611c9b565b9250506040611efc86828701611cda565b9150509250925092565b600060208284031215611f1c57611f1b612536565b5b6000611f2a84828501611cc5565b91505092915050565b611f3c8161227f565b82525050565b611f4b8161233f565b82525050565b611f5a81612351565b82525050565b611f6981612363565b82525050565b611f7881612375565b82525050565b611f8781612387565b82525050565b6000611f9a602683612159565b9150611fa58261254c565b604082019050919050565b6000611fbd602083612159565b9150611fc88261259b565b602082019050919050565b611fdc81612325565b82525050565b6000602082019050611ff76000830184611f33565b92915050565b60006040820190506120126000830185611f33565b61201f6020830184611fd3565b9392505050565b600060208201905061203b6000830184611f42565b92915050565b60006020820190506120566000830184611f51565b92915050565b60006020820190506120716000830184611f60565b92915050565b600060208201905061208c6000830184611f6f565b92915050565b60006020820190506120a76000830184611f7e565b92915050565b600060208201905081810360008301526120c681611f8d565b9050919050565b600060208201905081810360008301526120e681611fb0565b9050919050565b60006020820190506121026000830184611fd3565b92915050565b6000612112612123565b905061211e82826123bd565b919050565b6000604051905090565b600067ffffffffffffffff821115612148576121476124f3565b5b602082029050602081019050919050565b600082825260208201905092915050565b600061217582612325565b915061218083612325565b9250827fffffffffffffffffffffffffffffffffffffffffffffffffffffffffffffffff038211156121b5576121b4612437565b5b828201905092915050565b60006121cb82612325565b91506121d683612325565b9250826121e6576121e5612466565b5b828204905092915050565b60006121fc82612325565b915061220783612325565b9250817fffffffffffffffffffffffffffffffffffffffffffffffffffffffffffffffff04831182151516156122405761223f612437565b5b828202905092915050565b600061225682612325565b915061226183612325565b92508282101561227457612273612437565b5b828203905092915050565b600061228a82612305565b9050919050565b600061229c8261227f565b9050919050565b60006122ae8261227f565b9050919050565b60006122c08261227f565b9050919050565b60006122d28261227f565b9050919050565b60006122e48261227f565b9050919050565b60006dffffffffffffffffffffffffffff82169050919050565b600073ffffffffffffffffffffffffffffffffffffffff82169050919050565b6000819050919050565b600063ffffffff82169050919050565b600061234a82612399565b9050919050565b600061235c82612399565b9050919050565b600061236e82612399565b9050919050565b600061238082612399565b9050919050565b600061239282612399565b9050919050565b60006123a4826123ab565b9050919050565b60006123b682612305565b9050919050565b6123c68261253b565b810181811067ffffffffffffffff821117156123e5576123e46124f3565b5b80604052505050565b60006123f982612325565b91507fffffffffffffffffffffffffffffffffffffffffffffffffffffffffffffffff82141561242c5761242b612437565b5b600182019050919050565b7f4e487b7100000000000000000000000000000000000000000000000000000000600052601160045260246000fd5b7f4e487b7100000000000000000000000000000000000000000000000000000000600052601260045260246000fd5b7f4e487b7100000000000000000000000000000000000000000000000000000000600052603160045260246000fd5b7f4e487b7100000000000000000000000000000000000000000000000000000000600052603260045260246000fd5b7f4e487b7100000000000000000000000000000000000000000000000000000000600052604160045260246000fd5b600080fd5b600080fd5b600080fd5b600080fd5b600080fd5b6000601f19601f8301169050919050565b7f4f776e61626c653a206e6577206f776e657220697320746865207a65726f206160008201527f6464726573730000000000000000000000000000000000000000000000000000602082015250565b7f4f776e61626c653a2063616c6c6572206973206e6f7420746865206f776e6572600082015250565b6125cd8161227f565b81146125d857600080fd5b50565b6125e481612291565b81146125ef57600080fd5b50565b6125fb816122a3565b811461260657600080fd5b50565b612612816122b5565b811461261d57600080fd5b50565b612629816122c7565b811461263457600080fd5b50565b612640816122d9565b811461264b57600080fd5b50565b612657816122eb565b811461266257600080fd5b50565b61266e81612325565b811461267957600080fd5b50565b6126858161232f565b811461269057600080fd5b5056fea26469706673582212203344d8abdfaa9c75ae6407bb76873e4fceae87d4520ae975dc4b21310070622764736f6c63430008070033",
					"opcodes": "PUSH1 0x80 PUSH1 0x40 MSTORE CALLVALUE DUP1 ISZERO PUSH3 0x11 JUMPI PUSH1 0x0 DUP1 REVERT JUMPDEST POP PUSH3 0x32 PUSH3 0x26 PUSH3 0x38 PUSH1 0x20 SHL PUSH1 0x20 SHR JUMP JUMPDEST PUSH3 0x40 PUSH1 0x20 SHL PUSH1 0x20 SHR JUMP JUMPDEST PUSH3 0x104 JUMP JUMPDEST PUSH1 0x0 CALLER SWAP1 POP SWAP1 JUMP JUMPDEST PUSH1 0x0 DUP1 PUSH1 0x0 SWAP1 SLOAD SWAP1 PUSH2 0x100 EXP SWAP1 DIV PUSH20 0xFFFFFFFFFFFFFFFFFFFFFFFFFFFFFFFFFFFFFFFF AND SWAP1 POP DUP2 PUSH1 0x0 DUP1 PUSH2 0x100 EXP DUP2 SLOAD DUP2 PUSH20 0xFFFFFFFFFFFFFFFFFFFFFFFFFFFFFFFFFFFFFFFF MUL NOT AND SWAP1 DUP4 PUSH20 0xFFFFFFFFFFFFFFFFFFFFFFFFFFFFFFFFFFFFFFFF AND MUL OR SWAP1 SSTORE POP DUP2 PUSH20 0xFFFFFFFFFFFFFFFFFFFFFFFFFFFFFFFFFFFFFFFF AND DUP2 PUSH20 0xFFFFFFFFFFFFFFFFFFFFFFFFFFFFFFFFFFFFFFFF AND PUSH32 0x8BE0079C531659141344CD1FD0A4F28419497F9722A3DAAFE3B4186F6B6457E0 PUSH1 0x40 MLOAD PUSH1 0x40 MLOAD DUP1 SWAP2 SUB SWAP1 LOG3 POP POP JUMP JUMPDEST PUSH2 0x26C9 DUP1 PUSH3 0x114 PUSH1 0x0 CODECOPY PUSH1 0x0 RETURN INVALID PUSH1 0x80 PUSH1 0x40 MSTORE CALLVALUE DUP1 ISZERO PUSH2 0x10 JUMPI PUSH1 0x0 DUP1 REVERT JUMPDEST POP PUSH1 0x4 CALLDATASIZE LT PUSH2 0x1C3 JUMPI PUSH1 0x0 CALLDATALOAD PUSH1 0xE0 SHR DUP1 PUSH4 0x4EA2813C GT PUSH2 0xF9 JUMPI DUP1 PUSH4 0xA7288C2E GT PUSH2 0x97 JUMPI DUP1 PUSH4 0xF0B7DB4E GT PUSH2 0x71 JUMPI DUP1 PUSH4 0xF0B7DB4E EQ PUSH2 0x502 JUMPI DUP1 PUSH4 0xF2FDE38B EQ PUSH2 0x520 JUMPI DUP1 PUSH4 0xF479EF22 EQ PUSH2 0x53C JUMPI DUP1 PUSH4 0xFBEC6F21 EQ PUSH2 0x558 JUMPI PUSH2 0x1C3 JUMP JUMPDEST DUP1 PUSH4 0xA7288C2E EQ PUSH2 0x484 JUMPI DUP1 PUSH4 0xB8C9D25C EQ PUSH2 0x4B4 JUMPI DUP1 PUSH4 0xBF8EBD85 EQ PUSH2 0x4D2 JUMPI PUSH2 0x1C3 JUMP JUMPDEST DUP1 PUSH4 0x76ED535A GT PUSH2 0xD3 JUMPI DUP1 PUSH4 0x76ED535A EQ PUSH2 0x410 JUMPI DUP1 PUSH4 0x84119666 EQ PUSH2 0x42C JUMPI DUP1 PUSH4 0x8BB8C68F EQ PUSH2 0x44A JUMPI DUP1 PUSH4 0x8DA5CB5B EQ PUSH2 0x466 JUMPI PUSH2 0x1C3 JUMP JUMPDEST DUP1 PUSH4 0x4EA2813C EQ PUSH2 0x3CC JUMPI DUP1 PUSH4 0x6DE5368B EQ PUSH2 0x3E8 JUMPI DUP1 PUSH4 0x715018A6 EQ PUSH2 0x406 JUMPI PUSH2 0x1C3 JUMP JUMPDEST DUP1 PUSH4 0x10A5806A GT PUSH2 0x166 JUMPI DUP1 PUSH4 0x2540D8A7 GT PUSH2 0x140 JUMPI DUP1 PUSH4 0x2540D8A7 EQ PUSH2 0x320 JUMPI DUP1 PUSH4 0x3445D381 EQ PUSH2 0x350 JUMPI DUP1 PUSH4 0x42632EE0 EQ PUSH2 0x380 JUMPI DUP1 PUSH4 0x49FD566B EQ PUSH2 0x3B0 JUMPI PUSH2 0x1C3 JUMP JUMPDEST DUP1 PUSH4 0x10A5806A EQ PUSH2 0x2B6 JUMPI DUP1 PUSH4 0x17D8B80C EQ PUSH2 0x2D4 JUMPI DUP1 PUSH4 0x1FB5D3C2 EQ PUSH2 0x2F0 JUMPI PUSH2 0x1C3 JUMP JUMPDEST DUP1 PUSH4 0x651823E GT PUSH2 0x1A2 JUMPI DUP1 PUSH4 0x651823E EQ PUSH2 0x232 JUMPI DUP1 PUSH4 0xB75AA36 EQ PUSH2 0x24E JUMPI DUP1 PUSH4 0xED7B861 EQ PUSH2 0x27E JUMPI DUP1 PUSH4 0xF79EDE9 EQ PUSH2 0x29A JUMPI PUSH2 0x1C3 JUMP JUMPDEST DUP1 PUSH3 0xC2378F EQ PUSH2 0x1C8 JUMPI DUP1 PUSH4 0x314214C EQ PUSH2 0x1F8 JUMPI DUP1 PUSH4 0x520B708 EQ PUSH2 0x216 JUMPI JUMPDEST PUSH1 0x0 DUP1 REVERT JUMPDEST PUSH2 0x1E2 PUSH1 0x4 DUP1 CALLDATASIZE SUB DUP2 ADD SWAP1 PUSH2 0x1DD SWAP2 SWAP1 PUSH2 0x1CEF JUMP JUMPDEST PUSH2 0x576 JUMP JUMPDEST PUSH1 0x40 MLOAD PUSH2 0x1EF SWAP2 SWAP1 PUSH2 0x20ED JUMP JUMPDEST PUSH1 0x40 MLOAD DUP1 SWAP2 SUB SWAP1 RETURN JUMPDEST PUSH2 0x200 PUSH2 0x594 JUMP JUMPDEST PUSH1 0x40 MLOAD PUSH2 0x20D SWAP2 SWAP1 PUSH2 0x2041 JUMP JUMPDEST PUSH1 0x40 MLOAD DUP1 SWAP2 SUB SWAP1 RETURN JUMPDEST PUSH2 0x230 PUSH1 0x4 DUP1 CALLDATASIZE SUB DUP2 ADD SWAP1 PUSH2 0x22B SWAP2 SWAP1 PUSH2 0x1DD2 JUMP JUMPDEST PUSH2 0x5BA JUMP JUMPDEST STOP JUMPDEST PUSH2 0x24C PUSH1 0x4 DUP1 CALLDATASIZE SUB DUP2 ADD SWAP1 PUSH2 0x247 SWAP2 SWAP1 PUSH2 0x1DA5 JUMP JUMPDEST PUSH2 0x67A JUMP JUMPDEST STOP JUMPDEST PUSH2 0x268 PUSH1 0x4 DUP1 CALLDATASIZE SUB DUP2 ADD SWAP1 PUSH2 0x263 SWAP2 SWAP1 PUSH2 0x1CEF JUMP JUMPDEST PUSH2 0x73A JUMP JUMPDEST PUSH1 0x40 MLOAD PUSH2 0x275 SWAP2 SWAP1 PUSH2 0x20ED JUMP JUMPDEST PUSH1 0x40 MLOAD DUP1 SWAP2 SUB SWAP1 RETURN JUMPDEST PUSH2 0x298 PUSH1 0x4 DUP1 CALLDATASIZE SUB DUP2 ADD SWAP1 PUSH2 0x293 SWAP2 SWAP1 PUSH2 0x1E2C JUMP JUMPDEST PUSH2 0x785 JUMP JUMPDEST STOP JUMPDEST PUSH2 0x2B4 PUSH1 0x4 DUP1 CALLDATASIZE SUB DUP2 ADD SWAP1 PUSH2 0x2AF SWAP2 SWAP1 PUSH2 0x1D1C JUMP JUMPDEST PUSH2 0x845 JUMP JUMPDEST STOP JUMPDEST PUSH2 0x2BE PUSH2 0x905 JUMP JUMPDEST PUSH1 0x40 MLOAD PUSH2 0x2CB SWAP2 SWAP1 PUSH2 0x2077 JUMP JUMPDEST PUSH1 0x40 MLOAD DUP1 SWAP2 SUB SWAP1 RETURN JUMPDEST PUSH2 0x2EE PUSH1 0x4 DUP1 CALLDATASIZE SUB DUP2 ADD SWAP1 PUSH2 0x2E9 SWAP2 SWAP1 PUSH2 0x1E59 JUMP JUMPDEST PUSH2 0x92B JUMP JUMPDEST STOP JUMPDEST PUSH2 0x30A PUSH1 0x4 DUP1 CALLDATASIZE SUB DUP2 ADD SWAP1 PUSH2 0x305 SWAP2 SWAP1 PUSH2 0x1CEF JUMP JUMPDEST PUSH2 0x9EB JUMP JUMPDEST PUSH1 0x40 MLOAD PUSH2 0x317 SWAP2 SWAP1 PUSH2 0x20ED JUMP JUMPDEST PUSH1 0x40 MLOAD DUP1 SWAP2 SUB SWAP1 RETURN JUMPDEST PUSH2 0x33A PUSH1 0x4 DUP1 CALLDATASIZE SUB DUP2 ADD SWAP1 PUSH2 0x335 SWAP2 SWAP1 PUSH2 0x1CEF JUMP JUMPDEST PUSH2 0xA9F JUMP JUMPDEST PUSH1 0x40 MLOAD PUSH2 0x347 SWAP2 SWAP1 PUSH2 0x20ED JUMP JUMPDEST PUSH1 0x40 MLOAD DUP1 SWAP2 SUB SWAP1 RETURN JUMPDEST PUSH2 0x36A PUSH1 0x4 DUP1 CALLDATASIZE SUB DUP2 ADD SWAP1 PUSH2 0x365 SWAP2 SWAP1 PUSH2 0x1CEF JUMP JUMPDEST PUSH2 0xC3C JUMP JUMPDEST PUSH1 0x40 MLOAD PUSH2 0x377 SWAP2 SWAP1 PUSH2 0x20ED JUMP JUMPDEST PUSH1 0x40 MLOAD DUP1 SWAP2 SUB SWAP1 RETURN JUMPDEST PUSH2 0x39A PUSH1 0x4 DUP1 CALLDATASIZE SUB DUP2 ADD SWAP1 PUSH2 0x395 SWAP2 SWAP1 PUSH2 0x1CEF JUMP JUMPDEST PUSH2 0xCF0 JUMP JUMPDEST PUSH1 0x40 MLOAD PUSH2 0x3A7 SWAP2 SWAP1 PUSH2 0x20ED JUMP JUMPDEST PUSH1 0x40 MLOAD DUP1 SWAP2 SUB SWAP1 RETURN JUMPDEST PUSH2 0x3CA PUSH1 0x4 DUP1 CALLDATASIZE SUB DUP2 ADD SWAP1 PUSH2 0x3C5 SWAP2 SWAP1 PUSH2 0x1D1C JUMP JUMPDEST PUSH2 0xEA7 JUMP JUMPDEST STOP JUMPDEST PUSH2 0x3E6 PUSH1 0x4 DUP1 CALLDATASIZE SUB DUP2 ADD SWAP1 PUSH2 0x3E1 SWAP2 SWAP1 PUSH2 0x1D1C JUMP JUMPDEST PUSH2 0x1151 JUMP JUMPDEST STOP JUMPDEST PUSH2 0x3F0 PUSH2 0x1233 JUMP JUMPDEST PUSH1 0x40 MLOAD PUSH2 0x3FD SWAP2 SWAP1 PUSH2 0x2026 JUMP JUMPDEST PUSH1 0x40 MLOAD DUP1 SWAP2 SUB SWAP1 RETURN JUMPDEST PUSH2 0x40E PUSH2 0x1259 JUMP JUMPDEST STOP JUMPDEST PUSH2 0x42A PUSH1 0x4 DUP1 CALLDATASIZE SUB DUP2 ADD SWAP1 PUSH2 0x425 SWAP2 SWAP1 PUSH2 0x1DD2 JUMP JUMPDEST PUSH2 0x12E1 JUMP JUMPDEST STOP JUMPDEST PUSH2 0x434 PUSH2 0x13A1 JUMP JUMPDEST PUSH1 0x40 MLOAD PUSH2 0x441 SWAP2 SWAP1 PUSH2 0x2092 JUMP JUMPDEST PUSH1 0x40 MLOAD DUP1 SWAP2 SUB SWAP1 RETURN JUMPDEST PUSH2 0x464 PUSH1 0x4 DUP1 CALLDATASIZE SUB DUP2 ADD SWAP1 PUSH2 0x45F SWAP2 SWAP1 PUSH2 0x1DFF JUMP JUMPDEST PUSH2 0x13C7 JUMP JUMPDEST STOP JUMPDEST PUSH2 0x46E PUSH2 0x1487 JUMP JUMPDEST PUSH1 0x40 MLOAD PUSH2 0x47B SWAP2 SWAP1 PUSH2 0x1FE2 JUMP JUMPDEST PUSH1 0x40 MLOAD DUP1 SWAP2 SUB SWAP1 RETURN JUMPDEST PUSH2 0x49E PUSH1 0x4 DUP1 CALLDATASIZE SUB DUP2 ADD SWAP1 PUSH2 0x499 SWAP2 SWAP1 PUSH2 0x1CEF JUMP JUMPDEST PUSH2 0x14B0 JUMP JUMPDEST PUSH1 0x40 MLOAD PUSH2 0x4AB SWAP2 SWAP1 PUSH2 0x20ED JUMP JUMPDEST PUSH1 0x40 MLOAD DUP1 SWAP2 SUB SWAP1 RETURN JUMPDEST PUSH2 0x4BC PUSH2 0x150E JUMP JUMPDEST PUSH1 0x40 MLOAD PUSH2 0x4C9 SWAP2 SWAP1 PUSH2 0x205C JUMP JUMPDEST PUSH1 0x40 MLOAD DUP1 SWAP2 SUB SWAP1 RETURN JUMPDEST PUSH2 0x4EC PUSH1 0x4 DUP1 CALLDATASIZE SUB DUP2 ADD SWAP1 PUSH2 0x4E7 SWAP2 SWAP1 PUSH2 0x1CEF JUMP JUMPDEST PUSH2 0x1534 JUMP JUMPDEST PUSH1 0x40 MLOAD PUSH2 0x4F9 SWAP2 SWAP1 PUSH2 0x20ED JUMP JUMPDEST PUSH1 0x40 MLOAD DUP1 SWAP2 SUB SWAP1 RETURN JUMPDEST PUSH2 0x50A PUSH2 0x17CE JUMP JUMPDEST PUSH1 0x40 MLOAD PUSH2 0x517 SWAP2 SWAP1 PUSH2 0x2041 JUMP JUMPDEST PUSH1 0x40 MLOAD DUP1 SWAP2 SUB SWAP1 RETURN JUMPDEST PUSH2 0x53A PUSH1 0x4 DUP1 CALLDATASIZE SUB DUP2 ADD SWAP1 PUSH2 0x535 SWAP2 SWAP1 PUSH2 0x1CEF JUMP JUMPDEST PUSH2 0x17F4 JUMP JUMPDEST STOP JUMPDEST PUSH2 0x556 PUSH1 0x4 DUP1 CALLDATASIZE SUB DUP2 ADD SWAP1 PUSH2 0x551 SWAP2 SWAP1 PUSH2 0x1DD2 JUMP JUMPDEST PUSH2 0x18EC JUMP JUMPDEST STOP JUMPDEST PUSH2 0x560 PUSH2 0x19AC JUMP JUMPDEST PUSH1 0x40 MLOAD PUSH2 0x56D SWAP2 SWAP1 PUSH2 0x2041 JUMP JUMPDEST PUSH1 0x40 MLOAD DUP1 SWAP2 SUB SWAP1 RETURN JUMPDEST PUSH1 0x8 PUSH1 0x20 MSTORE DUP1 PUSH1 0x0 MSTORE PUSH1 0x40 PUSH1 0x0 KECCAK256 PUSH1 0x0 SWAP2 POP SWAP1 POP DUP1 PUSH1 0x1 ADD SLOAD SWAP1 POP DUP2 JUMP JUMPDEST PUSH1 0x5 PUSH1 0x0 SWAP1 SLOAD SWAP1 PUSH2 0x100 EXP SWAP1 DIV PUSH20 0xFFFFFFFFFFFFFFFFFFFFFFFFFFFFFFFFFFFFFFFF AND DUP2 JUMP JUMPDEST PUSH2 0x5C2 PUSH2 0x19D2 JUMP JUMPDEST PUSH20 0xFFFFFFFFFFFFFFFFFFFFFFFFFFFFFFFFFFFFFFFF AND PUSH2 0x5E0 PUSH2 0x1487 JUMP JUMPDEST PUSH20 0xFFFFFFFFFFFFFFFFFFFFFFFFFFFFFFFFFFFFFFFF AND EQ PUSH2 0x636 JUMPI PUSH1 0x40 MLOAD PUSH32 0x8C379A000000000000000000000000000000000000000000000000000000000 DUP2 MSTORE PUSH1 0x4 ADD PUSH2 0x62D SWAP1 PUSH2 0x20CD JUMP JUMPDEST PUSH1 0x40 MLOAD DUP1 SWAP2 SUB SWAP1 REVERT JUMPDEST DUP1 PUSH1 0x6 PUSH1 0x0 PUSH2 0x100 EXP DUP2 SLOAD DUP2 PUSH20 0xFFFFFFFFFFFFFFFFFFFFFFFFFFFFFFFFFFFFFFFF MUL NOT AND SWAP1 DUP4 PUSH20 0xFFFFFFFFFFFFFFFFFFFFFFFFFFFFFFFFFFFFFFFF AND MUL OR SWAP1 SSTORE POP POP JUMP JUMPDEST PUSH2 0x682 PUSH2 0x19D2 JUMP JUMPDEST PUSH20 0xFFFFFFFFFFFFFFFFFFFFFFFFFFFFFFFFFFFFFFFF AND PUSH2 0x6A0 PUSH2 0x1487 JUMP JUMPDEST PUSH20 0xFFFFFFFFFFFFFFFFFFFFFFFFFFFFFFFFFFFFFFFF AND EQ PUSH2 0x6F6 JUMPI PUSH1 0x40 MLOAD PUSH32 0x8C379A000000000000000000000000000000000000000000000000000000000 DUP2 MSTORE PUSH1 0x4 ADD PUSH2 0x6ED SWAP1 PUSH2 0x20CD JUMP JUMPDEST PUSH1 0x40 MLOAD DUP1 SWAP2 SUB SWAP1 REVERT JUMPDEST DUP1 PUSH1 0x1 PUSH1 0x0 PUSH2 0x100 EXP DUP2 SLOAD DUP2 PUSH20 0xFFFFFFFFFFFFFFFFFFFFFFFFFFFFFFFFFFFFFFFF MUL NOT AND SWAP1 DUP4 PUSH20 0xFFFFFFFFFFFFFFFFFFFFFFFFFFFFFFFFFFFFFFFF AND MUL OR SWAP1 SSTORE POP POP JUMP JUMPDEST PUSH1 0x0 PUSH2 0x745 DUP3 PUSH2 0xA9F JUMP JUMPDEST PUSH2 0x74E DUP4 PUSH2 0xCF0 JUMP JUMPDEST PUSH2 0x757 DUP5 PUSH2 0x9EB JUMP JUMPDEST PUSH2 0x760 DUP6 PUSH2 0xC3C JUMP JUMPDEST PUSH2 0x76A SWAP2 SWAP1 PUSH2 0x216A JUMP JUMPDEST PUSH2 0x774 SWAP2 SWAP1 PUSH2 0x216A JUMP JUMPDEST PUSH2 0x77E SWAP2 SWAP1 PUSH2 0x216A JUMP JUMPDEST SWAP1 POP SWAP2 SWAP1 POP JUMP JUMPDEST PUSH2 0x78D PUSH2 0x19D2 JUMP JUMPDEST PUSH20 0xFFFFFFFFFFFFFFFFFFFFFFFFFFFFFFFFFFFFFFFF AND PUSH2 0x7AB PUSH2 0x1487 JUMP JUMPDEST PUSH20 0xFFFFFFFFFFFFFFFFFFFFFFFFFFFFFFFFFFFFFFFF AND EQ PUSH2 0x801 JUMPI PUSH1 0x40 MLOAD PUSH32 0x8C379A000000000000000000000000000000000000000000000000000000000 DUP2 MSTORE PUSH1 0x4 ADD PUSH2 0x7F8 SWAP1 PUSH2 0x20CD JUMP JUMPDEST PUSH1 0x40 MLOAD DUP1 SWAP2 SUB SWAP1 REVERT JUMPDEST DUP1 PUSH1 0x2 PUSH1 0x0 PUSH2 0x100 EXP DUP2 SLOAD DUP2 PUSH20 0xFFFFFFFFFFFFFFFFFFFFFFFFFFFFFFFFFFFFFFFF MUL NOT AND SWAP1 DUP4 PUSH20 0xFFFFFFFFFFFFFFFFFFFFFFFFFFFFFFFFFFFFFFFF AND MUL OR SWAP1 SSTORE POP POP JUMP JUMPDEST DUP2 PUSH20 0xFFFFFFFFFFFFFFFFFFFFFFFFFFFFFFFFFFFFFFFF AND CALLER PUSH20 0xFFFFFFFFFFFFFFFFFFFFFFFFFFFFFFFFFFFFFFFF AND EQ DUP1 PUSH2 0x8B1 JUMPI POP PUSH2 0x882 PUSH2 0x1487 JUMP JUMPDEST PUSH20 0xFFFFFFFFFFFFFFFFFFFFFFFFFFFFFFFFFFFFFFFF AND CALLER PUSH20 0xFFFFFFFFFFFFFFFFFFFFFFFFFFFFFFFFFFFFFFFF AND EQ JUMPDEST PUSH2 0x8BA JUMPI PUSH1 0x0 DUP1 REVERT JUMPDEST DUP1 PUSH1 0x8 PUSH1 0x0 DUP5 PUSH20 0xFFFFFFFFFFFFFFFFFFFFFFFFFFFFFFFFFFFFFFFF AND PUSH20 0xFFFFFFFFFFFFFFFFFFFFFFFFFFFFFFFFFFFFFFFF AND DUP2 MSTORE PUSH1 0x20 ADD SWAP1 DUP2 MSTORE PUSH1 0x20 ADD PUSH1 0x0 KECCAK256 PUSH1 0x1 ADD DUP2 SWAP1 SSTORE POP POP POP JUMP JUMPDEST PUSH1 0x2 PUSH1 0x0 SWAP1 SLOAD SWAP1 PUSH2 0x100 EXP SWAP1 DIV PUSH20 0xFFFFFFFFFFFFFFFFFFFFFFFFFFFFFFFFFFFFFFFF AND DUP2 JUMP JUMPDEST PUSH2 0x933 PUSH2 0x19D2 JUMP JUMPDEST PUSH20 0xFFFFFFFFFFFFFFFFFFFFFFFFFFFFFFFFFFFFFFFF AND PUSH2 0x951 PUSH2 0x1487 JUMP JUMPDEST PUSH20 0xFFFFFFFFFFFFFFFFFFFFFFFFFFFFFFFFFFFFFFFF AND EQ PUSH2 0x9A7 JUMPI PUSH1 0x40 MLOAD PUSH32 0x8C379A000000000000000000000000000000000000000000000000000000000 DUP2 MSTORE PUSH1 0x4 ADD PUSH2 0x99E SWAP1 PUSH2 0x20CD JUMP JUMPDEST PUSH1 0x40 MLOAD DUP1 SWAP2 SUB SWAP1 REVERT JUMPDEST DUP1 PUSH1 0x4 PUSH1 0x0 PUSH2 0x100 EXP DUP2 SLOAD DUP2 PUSH20 0xFFFFFFFFFFFFFFFFFFFFFFFFFFFFFFFFFFFFFFFF MUL NOT AND SWAP1 DUP4 PUSH20 0xFFFFFFFFFFFFFFFFFFFFFFFFFFFFFFFFFFFFFFFF AND MUL OR SWAP1 SSTORE POP POP JUMP JUMPDEST PUSH1 0x0 PUSH1 0x2 PUSH1 0x0 SWAP1 SLOAD SWAP1 PUSH2 0x100 EXP SWAP1 DIV PUSH20 0xFFFFFFFFFFFFFFFFFFFFFFFFFFFFFFFFFFFFFFFF AND PUSH20 0xFFFFFFFFFFFFFFFFFFFFFFFFFFFFFFFFFFFFFFFF AND PUSH4 0xC5D63D0A DUP4 PUSH1 0x40 MLOAD DUP3 PUSH4 0xFFFFFFFF AND PUSH1 0xE0 SHL DUP2 MSTORE PUSH1 0x4 ADD PUSH2 0xA48 SWAP2 SWAP1 PUSH2 0x1FE2 JUMP JUMPDEST PUSH1 0x20 PUSH1 0x40 MLOAD DUP1 DUP4 SUB DUP2 DUP7 DUP1 EXTCODESIZE ISZERO DUP1 ISZERO PUSH2 0xA60 JUMPI PUSH1 0x0 DUP1 REVERT JUMPDEST POP GAS STATICCALL ISZERO DUP1 ISZERO PUSH2 0xA74 JUMPI RETURNDATASIZE PUSH1 0x0 DUP1 RETURNDATACOPY RETURNDATASIZE PUSH1 0x0 REVERT JUMPDEST POP POP POP POP PUSH1 0x40 MLOAD RETURNDATASIZE PUSH1 0x1F NOT PUSH1 0x1F DUP3 ADD AND DUP3 ADD DUP1 PUSH1 0x40 MSTORE POP DUP2 ADD SWAP1 PUSH2 0xA98 SWAP2 SWAP1 PUSH2 0x1F06 JUMP JUMPDEST SWAP1 POP SWAP2 SWAP1 POP JUMP JUMPDEST PUSH1 0x0 DUP1 PUSH1 0x0 PUSH1 0x4 PUSH1 0x0 SWAP1 SLOAD SWAP1 PUSH2 0x100 EXP SWAP1 DIV PUSH20 0xFFFFFFFFFFFFFFFFFFFFFFFFFFFFFFFFFFFFFFFF AND PUSH20 0xFFFFFFFFFFFFFFFFFFFFFFFFFFFFFFFFFFFFFFFF AND PUSH4 0x80017F4E DUP6 PUSH1 0x40 MLOAD DUP3 PUSH4 0xFFFFFFFF AND PUSH1 0xE0 SHL DUP2 MSTORE PUSH1 0x4 ADD PUSH2 0xAFF SWAP2 SWAP1 PUSH2 0x1FE2 JUMP JUMPDEST PUSH1 0x0 PUSH1 0x40 MLOAD DUP1 DUP4 SUB DUP2 DUP7 DUP1 EXTCODESIZE ISZERO DUP1 ISZERO PUSH2 0xB17 JUMPI PUSH1 0x0 DUP1 REVERT JUMPDEST POP GAS STATICCALL ISZERO DUP1 ISZERO PUSH2 0xB2B JUMPI RETURNDATASIZE PUSH1 0x0 DUP1 RETURNDATACOPY RETURNDATASIZE PUSH1 0x0 REVERT JUMPDEST POP POP POP POP PUSH1 0x40 MLOAD RETURNDATASIZE PUSH1 0x0 DUP3 RETURNDATACOPY RETURNDATASIZE PUSH1 0x1F NOT PUSH1 0x1F DUP3 ADD AND DUP3 ADD DUP1 PUSH1 0x40 MSTORE POP DUP2 ADD SWAP1 PUSH2 0xB54 SWAP2 SWAP1 PUSH2 0x1D5C JUMP JUMPDEST SWAP1 POP PUSH1 0x0 JUMPDEST DUP2 MLOAD DUP2 LT ISZERO PUSH2 0xC31 JUMPI PUSH1 0x4 PUSH1 0x0 SWAP1 SLOAD SWAP1 PUSH2 0x100 EXP SWAP1 DIV PUSH20 0xFFFFFFFFFFFFFFFFFFFFFFFFFFFFFFFFFFFFFFFF AND PUSH20 0xFFFFFFFFFFFFFFFFFFFFFFFFFFFFFFFFFFFFFFFF AND PUSH4 0x51D70BC4 DUP3 PUSH1 0x40 MLOAD DUP3 PUSH4 0xFFFFFFFF AND PUSH1 0xE0 SHL DUP2 MSTORE PUSH1 0x4 ADD PUSH2 0xBBD SWAP2 SWAP1 PUSH2 0x20ED JUMP JUMPDEST PUSH1 0xC0 PUSH1 0x40 MLOAD DUP1 DUP4 SUB DUP2 DUP7 DUP1 EXTCODESIZE ISZERO DUP1 ISZERO PUSH2 0xBD5 JUMPI PUSH1 0x0 DUP1 REVERT JUMPDEST POP GAS STATICCALL ISZERO DUP1 ISZERO PUSH2 0xBE9 JUMPI RETURNDATASIZE PUSH1 0x0 DUP1 RETURNDATACOPY RETURNDATASIZE PUSH1 0x0 REVERT JUMPDEST POP POP POP POP PUSH1 0x40 MLOAD RETURNDATASIZE PUSH1 0x1F NOT PUSH1 0x1F DUP3 ADD AND DUP3 ADD DUP1 PUSH1 0x40 MSTORE POP DUP2 ADD SWAP1 PUSH2 0xC0D SWAP2 SWAP1 PUSH2 0x1E86 JUMP JUMPDEST PUSH1 0x80 ADD MLOAD DUP4 PUSH2 0xC1C SWAP2 SWAP1 PUSH2 0x216A JUMP JUMPDEST SWAP3 POP DUP1 DUP1 PUSH2 0xC29 SWAP1 PUSH2 0x23EE JUMP JUMPDEST SWAP2 POP POP PUSH2 0xB59 JUMP JUMPDEST POP DUP2 SWAP3 POP POP POP SWAP2 SWAP1 POP JUMP JUMPDEST PUSH1 0x0 PUSH1 0x1 PUSH1 0x0 SWAP1 SLOAD SWAP1 PUSH2 0x100 EXP SWAP1 DIV PUSH20 0xFFFFFFFFFFFFFFFFFFFFFFFFFFFFFFFFFFFFFFFF AND PUSH20 0xFFFFFFFFFFFFFFFFFFFFFFFFFFFFFFFFFFFFFFFF AND PUSH4 0x70A08231 DUP4 PUSH1 0x40 MLOAD DUP3 PUSH4 0xFFFFFFFF AND PUSH1 0xE0 SHL DUP2 MSTORE PUSH1 0x4 ADD PUSH2 0xC99 SWAP2 SWAP1 PUSH2 0x1FE2 JUMP JUMPDEST PUSH1 0x20 PUSH1 0x40 MLOAD DUP1 DUP4 SUB DUP2 DUP7 DUP1 EXTCODESIZE ISZERO DUP1 ISZERO PUSH2 0xCB1 JUMPI PUSH1 0x0 DUP1 REVERT JUMPDEST POP GAS STATICCALL ISZERO DUP1 ISZERO PUSH2 0xCC5 JUMPI RETURNDATASIZE PUSH1 0x0 DUP1 RETURNDATACOPY RETURNDATASIZE PUSH1 0x0 REVERT JUMPDEST POP POP POP POP PUSH1 0x40 MLOAD RETURNDATASIZE PUSH1 0x1F NOT PUSH1 0x1F DUP3 ADD AND DUP3 ADD DUP1 PUSH1 0x40 MSTORE POP DUP2 ADD SWAP1 PUSH2 0xCE9 SWAP2 SWAP1 PUSH2 0x1F06 JUMP JUMPDEST SWAP1 POP SWAP2 SWAP1 POP JUMP JUMPDEST PUSH1 0x0 DUP1 PUSH1 0x0 DUP1 PUSH1 0x3 PUSH1 0x0 SWAP1 SLOAD SWAP1 PUSH2 0x100 EXP SWAP1 DIV PUSH20 0xFFFFFFFFFFFFFFFFFFFFFFFFFFFFFFFFFFFFFFFF AND PUSH20 0xFFFFFFFFFFFFFFFFFFFFFFFFFFFFFFFFFFFFFFFF AND PUSH4 0x902F1AC PUSH1 0x40 MLOAD DUP2 PUSH4 0xFFFFFFFF AND PUSH1 0xE0 SHL DUP2 MSTORE PUSH1 0x4 ADD PUSH1 0x60 PUSH1 0x40 MLOAD DUP1 DUP4 SUB DUP2 DUP7 DUP1 EXTCODESIZE ISZERO DUP1 ISZERO PUSH2 0xD5E JUMPI PUSH1 0x0 DUP1 REVERT JUMPDEST POP GAS STATICCALL ISZERO DUP1 ISZERO PUSH2 0xD72 JUMPI RETURNDATASIZE PUSH1 0x0 DUP1 RETURNDATACOPY RETURNDATASIZE PUSH1 0x0 REVERT JUMPDEST POP POP POP POP PUSH1 0x40 MLOAD RETURNDATASIZE PUSH1 0x1F NOT PUSH1 0x1F DUP3 ADD AND DUP3 ADD DUP1 PUSH1 0x40 MSTORE POP DUP2 ADD SWAP1 PUSH2 0xD96 SWAP2 SWAP1 PUSH2 0x1EB3 JUMP JUMPDEST DUP1 SWAP4 POP DUP2 SWAP5 POP DUP3 SWAP6 POP POP POP POP PUSH1 0x0 PUSH2 0xDD7 DUP4 PUSH14 0xFFFFFFFFFFFFFFFFFFFFFFFFFFFF AND DUP6 PUSH14 0xFFFFFFFFFFFFFFFFFFFFFFFFFFFF AND PUSH2 0x19DA SWAP1 SWAP2 SWAP1 PUSH4 0xFFFFFFFF AND JUMP JUMPDEST SWAP1 POP PUSH1 0x0 PUSH1 0x3 PUSH1 0x0 SWAP1 SLOAD SWAP1 PUSH2 0x100 EXP SWAP1 DIV PUSH20 0xFFFFFFFFFFFFFFFFFFFFFFFFFFFFFFFFFFFFFFFF AND PUSH20 0xFFFFFFFFFFFFFFFFFFFFFFFFFFFFFFFFFFFFFFFF AND PUSH4 0x70A08231 DUP9 PUSH1 0x40 MLOAD DUP3 PUSH4 0xFFFFFFFF AND PUSH1 0xE0 SHL DUP2 MSTORE PUSH1 0x4 ADD PUSH2 0xE36 SWAP2 SWAP1 PUSH2 0x1FE2 JUMP JUMPDEST PUSH1 0x20 PUSH1 0x40 MLOAD DUP1 DUP4 SUB DUP2 DUP7 DUP1 EXTCODESIZE ISZERO DUP1 ISZERO PUSH2 0xE4E JUMPI PUSH1 0x0 DUP1 REVERT JUMPDEST POP GAS STATICCALL ISZERO DUP1 ISZERO PUSH2 0xE62 JUMPI RETURNDATASIZE PUSH1 0x0 DUP1 RETURNDATACOPY RETURNDATASIZE PUSH1 0x0 REVERT JUMPDEST POP POP POP POP PUSH1 0x40 MLOAD RETURNDATASIZE PUSH1 0x1F NOT PUSH1 0x1F DUP3 ADD AND DUP3 ADD DUP1 PUSH1 0x40 MSTORE POP DUP2 ADD SWAP1 PUSH2 0xE86 SWAP2 SWAP1 PUSH2 0x1F06 JUMP JUMPDEST SWAP1 POP PUSH2 0xE9B DUP2 DUP4 PUSH2 0x19F0 SWAP1 SWAP2 SWAP1 PUSH4 0xFFFFFFFF AND JUMP JUMPDEST SWAP6 POP POP POP POP POP POP SWAP2 SWAP1 POP JUMP JUMPDEST DUP2 PUSH20 0xFFFFFFFFFFFFFFFFFFFFFFFFFFFFFFFFFFFFFFFF AND CALLER PUSH20 0xFFFFFFFFFFFFFFFFFFFFFFFFFFFFFFFFFFFFFFFF AND EQ DUP1 PUSH2 0xF13 JUMPI POP PUSH2 0xEE4 PUSH2 0x1487 JUMP JUMPDEST PUSH20 0xFFFFFFFFFFFFFFFFFFFFFFFFFFFFFFFFFFFFFFFF AND CALLER PUSH20 0xFFFFFFFFFFFFFFFFFFFFFFFFFFFFFFFFFFFFFFFF AND EQ JUMPDEST PUSH2 0xF1C JUMPI PUSH1 0x0 DUP1 REVERT JUMPDEST DUP1 PUSH1 0x8 PUSH1 0x0 DUP5 PUSH20 0xFFFFFFFFFFFFFFFFFFFFFFFFFFFFFFFFFFFFFFFF AND PUSH20 0xFFFFFFFFFFFFFFFFFFFFFFFFFFFFFFFFFFFFFFFF AND DUP2 MSTORE PUSH1 0x20 ADD SWAP1 DUP2 MSTORE PUSH1 0x20 ADD PUSH1 0x0 KECCAK256 PUSH1 0x0 ADD PUSH1 0x1 PUSH1 0x8 PUSH1 0x0 DUP7 PUSH20 0xFFFFFFFFFFFFFFFFFFFFFFFFFFFFFFFFFFFFFFFF AND PUSH20 0xFFFFFFFFFFFFFFFFFFFFFFFFFFFFFFFFFFFFFFFF AND DUP2 MSTORE PUSH1 0x20 ADD SWAP1 DUP2 MSTORE PUSH1 0x20 ADD PUSH1 0x0 KECCAK256 PUSH1 0x0 ADD DUP1 SLOAD SWAP1 POP PUSH2 0xFB1 SWAP2 SWAP1 PUSH2 0x224B JUMP JUMPDEST DUP2 SLOAD DUP2 LT PUSH2 0xFC2 JUMPI PUSH2 0xFC1 PUSH2 0x24C4 JUMP JUMPDEST JUMPDEST SWAP1 PUSH1 0x0 MSTORE PUSH1 0x20 PUSH1 0x0 KECCAK256 ADD SLOAD EQ PUSH2 0x10E5 JUMPI PUSH1 0x8 PUSH1 0x0 DUP4 PUSH20 0xFFFFFFFFFFFFFFFFFFFFFFFFFFFFFFFFFFFFFFFF AND PUSH20 0xFFFFFFFFFFFFFFFFFFFFFFFFFFFFFFFFFFFFFFFF AND DUP2 MSTORE PUSH1 0x20 ADD SWAP1 DUP2 MSTORE PUSH1 0x20 ADD PUSH1 0x0 KECCAK256 PUSH1 0x0 ADD PUSH1 0x1 PUSH1 0x8 PUSH1 0x0 DUP6 PUSH20 0xFFFFFFFFFFFFFFFFFFFFFFFFFFFFFFFFFFFFFFFF AND PUSH20 0xFFFFFFFFFFFFFFFFFFFFFFFFFFFFFFFFFFFFFFFF AND DUP2 MSTORE PUSH1 0x20 ADD SWAP1 DUP2 MSTORE PUSH1 0x20 ADD PUSH1 0x0 KECCAK256 PUSH1 0x0 ADD DUP1 SLOAD SWAP1 POP PUSH2 0x1066 SWAP2 SWAP1 PUSH2 0x224B JUMP JUMPDEST DUP2 SLOAD DUP2 LT PUSH2 0x1077 JUMPI PUSH2 0x1076 PUSH2 0x24C4 JUMP JUMPDEST JUMPDEST SWAP1 PUSH1 0x0 MSTORE PUSH1 0x20 PUSH1 0x0 KECCAK256 ADD SLOAD PUSH1 0x8 PUSH1 0x0 DUP5 PUSH20 0xFFFFFFFFFFFFFFFFFFFFFFFFFFFFFFFFFFFFFFFF AND PUSH20 0xFFFFFFFFFFFFFFFFFFFFFFFFFFFFFFFFFFFFFFFF AND DUP2 MSTORE PUSH1 0x20 ADD SWAP1 DUP2 MSTORE PUSH1 0x20 ADD PUSH1 0x0 KECCAK256 PUSH1 0x0 ADD DUP3 DUP2 SLOAD DUP2 LT PUSH2 0x10D6 JUMPI PUSH2 0x10D5 PUSH2 0x24C4 JUMP JUMPDEST JUMPDEST SWAP1 PUSH1 0x0 MSTORE PUSH1 0x20 PUSH1 0x0 KECCAK256 ADD DUP2 SWAP1 SSTORE POP JUMPDEST PUSH1 0x8 PUSH1 0x0 DUP4 PUSH20 0xFFFFFFFFFFFFFFFFFFFFFFFFFFFFFFFFFFFFFFFF AND PUSH20 0xFFFFFFFFFFFFFFFFFFFFFFFFFFFFFFFFFFFFFFFF AND DUP2 MSTORE PUSH1 0x20 ADD SWAP1 DUP2 MSTORE PUSH1 0x20 ADD PUSH1 0x0 KECCAK256 PUSH1 0x0 ADD DUP1 SLOAD DUP1 PUSH2 0x1137 JUMPI PUSH2 0x1136 PUSH2 0x2495 JUMP JUMPDEST JUMPDEST PUSH1 0x1 SWAP1 SUB DUP2 DUP2 SWAP1 PUSH1 0x0 MSTORE PUSH1 0x20 PUSH1 0x0 KECCAK256 ADD PUSH1 0x0 SWAP1 SSTORE SWAP1 SSTORE POP POP JUMP JUMPDEST DUP2 PUSH20 0xFFFFFFFFFFFFFFFFFFFFFFFFFFFFFFFFFFFFFFFF AND CALLER PUSH20 0xFFFFFFFFFFFFFFFFFFFFFFFFFFFFFFFFFFFFFFFF AND EQ DUP1 PUSH2 0x11BD JUMPI POP PUSH2 0x118E PUSH2 0x1487 JUMP JUMPDEST PUSH20 0xFFFFFFFFFFFFFFFFFFFFFFFFFFFFFFFFFFFFFFFF AND CALLER PUSH20 0xFFFFFFFFFFFFFFFFFFFFFFFFFFFFFFFFFFFFFFFF AND EQ JUMPDEST PUSH2 0x11C6 JUMPI PUSH1 0x0 DUP1 REVERT JUMPDEST PUSH1 0x8 PUSH1 0x0 DUP4 PUSH20 0xFFFFFFFFFFFFFFFFFFFFFFFFFFFFFFFFFFFFFFFF AND PUSH20 0xFFFFFFFFFFFFFFFFFFFFFFFFFFFFFFFFFFFFFFFF AND DUP2 MSTORE PUSH1 0x20 ADD SWAP1 DUP2 MSTORE PUSH1 0x20 ADD PUSH1 0x0 KECCAK256 PUSH1 0x0 ADD DUP2 SWAP1 DUP1 PUSH1 0x1 DUP2 SLOAD ADD DUP1 DUP3 SSTORE DUP1 SWAP2 POP POP PUSH1 0x1 SWAP1 SUB SWAP1 PUSH1 0x0 MSTORE PUSH1 0x20 PUSH1 0x0 KECCAK256 ADD PUSH1 0x0 SWAP1 SWAP2 SWAP1 SWAP2 SWAP1 SWAP2 POP SSTORE POP POP JUMP JUMPDEST PUSH1 0x1 PUSH1 0x0 SWAP1 SLOAD SWAP1 PUSH2 0x100 EXP SWAP1 DIV PUSH20 0xFFFFFFFFFFFFFFFFFFFFFFFFFFFFFFFFFFFFFFFF AND DUP2 JUMP JUMPDEST PUSH2 0x1261 PUSH2 0x19D2 JUMP JUMPDEST PUSH20 0xFFFFFFFFFFFFFFFFFFFFFFFFFFFFFFFFFFFFFFFF AND PUSH2 0x127F PUSH2 0x1487 JUMP JUMPDEST PUSH20 0xFFFFFFFFFFFFFFFFFFFFFFFFFFFFFFFFFFFFFFFF AND EQ PUSH2 0x12D5 JUMPI PUSH1 0x40 MLOAD PUSH32 0x8C379A000000000000000000000000000000000000000000000000000000000 DUP2 MSTORE PUSH1 0x4 ADD PUSH2 0x12CC SWAP1 PUSH2 0x20CD JUMP JUMPDEST PUSH1 0x40 MLOAD DUP1 SWAP2 SUB SWAP1 REVERT JUMPDEST PUSH2 0x12DF PUSH1 0x0 PUSH2 0x1A06 JUMP JUMPDEST JUMP JUMPDEST PUSH2 0x12E9 PUSH2 0x19D2 JUMP JUMPDEST PUSH20 0xFFFFFFFFFFFFFFFFFFFFFFFFFFFFFFFFFFFFFFFF AND PUSH2 0x1307 PUSH2 0x1487 JUMP JUMPDEST PUSH20 0xFFFFFFFFFFFFFFFFFFFFFFFFFFFFFFFFFFFFFFFF AND EQ PUSH2 0x135D JUMPI PUSH1 0x40 MLOAD PUSH32 0x8C379A000000000000000000000000000000000000000000000000000000000 DUP2 MSTORE PUSH1 0x4 ADD PUSH2 0x1354 SWAP1 PUSH2 0x20CD JUMP JUMPDEST PUSH1 0x40 MLOAD DUP1 SWAP2 SUB SWAP1 REVERT JUMPDEST DUP1 PUSH1 0x7 PUSH1 0x0 PUSH2 0x100 EXP DUP2 SLOAD DUP2 PUSH20 0xFFFFFFFFFFFFFFFFFFFFFFFFFFFFFFFFFFFFFFFF MUL NOT AND SWAP1 DUP4 PUSH20 0xFFFFFFFFFFFFFFFFFFFFFFFFFFFFFFFFFFFFFFFF AND MUL OR SWAP1 SSTORE POP POP JUMP JUMPDEST PUSH1 0x4 PUSH1 0x0 SWAP1 SLOAD SWAP1 PUSH2 0x100 EXP SWAP1 DIV PUSH20 0xFFFFFFFFFFFFFFFFFFFFFFFFFFFFFFFFFFFFFFFF AND DUP2 JUMP JUMPDEST PUSH2 0x13CF PUSH2 0x19D2 JUMP JUMPDEST PUSH20 0xFFFFFFFFFFFFFFFFFFFFFFFFFFFFFFFFFFFFFFFF AND PUSH2 0x13ED PUSH2 0x1487 JUMP JUMPDEST PUSH20 0xFFFFFFFFFFFFFFFFFFFFFFFFFFFFFFFFFFFFFFFF AND EQ PUSH2 0x1443 JUMPI PUSH1 0x40 MLOAD PUSH32 0x8C379A000000000000000000000000000000000000000000000000000000000 DUP2 MSTORE PUSH1 0x4 ADD PUSH2 0x143A SWAP1 PUSH2 0x20CD JUMP JUMPDEST PUSH1 0x40 MLOAD DUP1 SWAP2 SUB SWAP1 REVERT JUMPDEST DUP1 PUSH1 0x3 PUSH1 0x0 PUSH2 0x100 EXP DUP2 SLOAD DUP2 PUSH20 0xFFFFFFFFFFFFFFFFFFFFFFFFFFFFFFFFFFFFFFFF MUL NOT AND SWAP1 DUP4 PUSH20 0xFFFFFFFFFFFFFFFFFFFFFFFFFFFFFFFFFFFFFFFF AND MUL OR SWAP1 SSTORE POP POP JUMP JUMPDEST PUSH1 0x0 DUP1 PUSH1 0x0 SWAP1 SLOAD SWAP1 PUSH2 0x100 EXP SWAP1 DIV PUSH20 0xFFFFFFFFFFFFFFFFFFFFFFFFFFFFFFFFFFFFFFFF AND SWAP1 POP SWAP1 JUMP JUMPDEST PUSH1 0x0 PUSH2 0x14BB DUP3 PUSH2 0x1534 JUMP JUMPDEST PUSH2 0x14C4 DUP4 PUSH2 0xA9F JUMP JUMPDEST PUSH2 0x14CD DUP5 PUSH2 0xCF0 JUMP JUMPDEST PUSH2 0x14D6 DUP6 PUSH2 0x9EB JUMP JUMPDEST PUSH2 0x14DF DUP7 PUSH2 0xC3C JUMP JUMPDEST PUSH2 0x14E9 SWAP2 SWAP1 PUSH2 0x216A JUMP JUMPDEST PUSH2 0x14F3 SWAP2 SWAP1 PUSH2 0x216A JUMP JUMPDEST PUSH2 0x14FD SWAP2 SWAP1 PUSH2 0x216A JUMP JUMPDEST PUSH2 0x1507 SWAP2 SWAP1 PUSH2 0x216A JUMP JUMPDEST SWAP1 POP SWAP2 SWAP1 POP JUMP JUMPDEST PUSH1 0x3 PUSH1 0x0 SWAP1 SLOAD SWAP1 PUSH2 0x100 EXP SWAP1 DIV PUSH20 0xFFFFFFFFFFFFFFFFFFFFFFFFFFFFFFFFFFFFFFFF AND DUP2 JUMP JUMPDEST PUSH1 0x0 DUP1 PUSH1 0x0 SWAP1 POP PUSH1 0x0 JUMPDEST PUSH2 0x44C DUP2 GT PUSH2 0x1613 JUMPI PUSH1 0x5 PUSH1 0x0 SWAP1 SLOAD SWAP1 PUSH2 0x100 EXP SWAP1 DIV PUSH20 0xFFFFFFFFFFFFFFFFFFFFFFFFFFFFFFFFFFFFFFFF AND PUSH20 0xFFFFFFFFFFFFFFFFFFFFFFFFFFFFFFFFFFFFFFFF AND PUSH3 0xFDD58E DUP6 DUP4 PUSH1 0x40 MLOAD DUP4 PUSH4 0xFFFFFFFF AND PUSH1 0xE0 SHL DUP2 MSTORE PUSH1 0x4 ADD PUSH2 0x15A3 SWAP3 SWAP2 SWAP1 PUSH2 0x1FFD JUMP JUMPDEST PUSH1 0x20 PUSH1 0x40 MLOAD DUP1 DUP4 SUB DUP2 DUP7 DUP1 EXTCODESIZE ISZERO DUP1 ISZERO PUSH2 0x15BB JUMPI PUSH1 0x0 DUP1 REVERT JUMPDEST POP GAS STATICCALL ISZERO DUP1 ISZERO PUSH2 0x15CF JUMPI RETURNDATASIZE PUSH1 0x0 DUP1 RETURNDATACOPY RETURNDATASIZE PUSH1 0x0 REVERT JUMPDEST POP POP POP POP PUSH1 0x40 MLOAD RETURNDATASIZE PUSH1 0x1F NOT PUSH1 0x1F DUP3 ADD AND DUP3 ADD DUP1 PUSH1 0x40 MSTORE POP DUP2 ADD SWAP1 PUSH2 0x15F3 SWAP2 SWAP1 PUSH2 0x1F06 JUMP JUMPDEST DUP3 PUSH2 0x15FE SWAP2 SWAP1 PUSH2 0x216A JUMP JUMPDEST SWAP2 POP DUP1 DUP1 PUSH2 0x160B SWAP1 PUSH2 0x23EE JUMP JUMPDEST SWAP2 POP POP PUSH2 0x153E JUMP JUMPDEST POP PUSH1 0x0 JUMPDEST PUSH2 0x12C DUP2 GT PUSH2 0x16EC JUMPI PUSH1 0x6 PUSH1 0x0 SWAP1 SLOAD SWAP1 PUSH2 0x100 EXP SWAP1 DIV PUSH20 0xFFFFFFFFFFFFFFFFFFFFFFFFFFFFFFFFFFFFFFFF AND PUSH20 0xFFFFFFFFFFFFFFFFFFFFFFFFFFFFFFFFFFFFFFFF AND PUSH3 0xFDD58E DUP6 DUP4 PUSH1 0x40 MLOAD DUP4 PUSH4 0xFFFFFFFF AND PUSH1 0xE0 SHL DUP2 MSTORE PUSH1 0x4 ADD PUSH2 0x167C SWAP3 SWAP2 SWAP1 PUSH2 0x1FFD JUMP JUMPDEST PUSH1 0x20 PUSH1 0x40 MLOAD DUP1 DUP4 SUB DUP2 DUP7 DUP1 EXTCODESIZE ISZERO DUP1 ISZERO PUSH2 0x1694 JUMPI PUSH1 0x0 DUP1 REVERT JUMPDEST POP GAS STATICCALL ISZERO DUP1 ISZERO PUSH2 0x16A8 JUMPI RETURNDATASIZE PUSH1 0x0 DUP1 RETURNDATACOPY RETURNDATASIZE PUSH1 0x0 REVERT JUMPDEST POP POP POP POP PUSH1 0x40 MLOAD RETURNDATASIZE PUSH1 0x1F NOT PUSH1 0x1F DUP3 ADD AND DUP3 ADD DUP1 PUSH1 0x40 MSTORE POP DUP2 ADD SWAP1 PUSH2 0x16CC SWAP2 SWAP1 PUSH2 0x1F06 JUMP JUMPDEST DUP3 PUSH2 0x16D7 SWAP2 SWAP1 PUSH2 0x216A JUMP JUMPDEST SWAP2 POP DUP1 DUP1 PUSH2 0x16E4 SWAP1 PUSH2 0x23EE JUMP JUMPDEST SWAP2 POP POP PUSH2 0x1617 JUMP JUMPDEST POP PUSH1 0x0 JUMPDEST PUSH1 0x64 DUP2 GT PUSH2 0x17C4 JUMPI PUSH1 0x7 PUSH1 0x0 SWAP1 SLOAD SWAP1 PUSH2 0x100 EXP SWAP1 DIV PUSH20 0xFFFFFFFFFFFFFFFFFFFFFFFFFFFFFFFFFFFFFFFF AND PUSH20 0xFFFFFFFFFFFFFFFFFFFFFFFFFFFFFFFFFFFFFFFF AND PUSH3 0xFDD58E DUP6 DUP4 PUSH1 0x40 MLOAD DUP4 PUSH4 0xFFFFFFFF AND PUSH1 0xE0 SHL DUP2 MSTORE PUSH1 0x4 ADD PUSH2 0x1754 SWAP3 SWAP2 SWAP1 PUSH2 0x1FFD JUMP JUMPDEST PUSH1 0x20 PUSH1 0x40 MLOAD DUP1 DUP4 SUB DUP2 DUP7 DUP1 EXTCODESIZE ISZERO DUP1 ISZERO PUSH2 0x176C JUMPI PUSH1 0x0 DUP1 REVERT JUMPDEST POP GAS STATICCALL ISZERO DUP1 ISZERO PUSH2 0x1780 JUMPI RETURNDATASIZE PUSH1 0x0 DUP1 RETURNDATACOPY RETURNDATASIZE PUSH1 0x0 REVERT JUMPDEST POP POP POP POP PUSH1 0x40 MLOAD RETURNDATASIZE PUSH1 0x1F NOT PUSH1 0x1F DUP3 ADD AND DUP3 ADD DUP1 PUSH1 0x40 MSTORE POP DUP2 ADD SWAP1 PUSH2 0x17A4 SWAP2 SWAP1 PUSH2 0x1F06 JUMP JUMPDEST DUP3 PUSH2 0x17AF SWAP2 SWAP1 PUSH2 0x216A JUMP JUMPDEST SWAP2 POP DUP1 DUP1 PUSH2 0x17BC SWAP1 PUSH2 0x23EE JUMP JUMPDEST SWAP2 POP POP PUSH2 0x16F0 JUMP JUMPDEST POP DUP1 SWAP2 POP POP SWAP2 SWAP1 POP JUMP JUMPDEST PUSH1 0x7 PUSH1 0x0 SWAP1 SLOAD SWAP1 PUSH2 0x100 EXP SWAP1 DIV PUSH20 0xFFFFFFFFFFFFFFFFFFFFFFFFFFFFFFFFFFFFFFFF AND DUP2 JUMP JUMPDEST PUSH2 0x17FC PUSH2 0x19D2 JUMP JUMPDEST PUSH20 0xFFFFFFFFFFFFFFFFFFFFFFFFFFFFFFFFFFFFFFFF AND PUSH2 0x181A PUSH2 0x1487 JUMP JUMPDEST PUSH20 0xFFFFFFFFFFFFFFFFFFFFFFFFFFFFFFFFFFFFFFFF AND EQ PUSH2 0x1870 JUMPI PUSH1 0x40 MLOAD PUSH32 0x8C379A000000000000000000000000000000000000000000000000000000000 DUP2 MSTORE PUSH1 0x4 ADD PUSH2 0x1867 SWAP1 PUSH2 0x20CD JUMP JUMPDEST PUSH1 0x40 MLOAD DUP1 SWAP2 SUB SWAP1 REVERT JUMPDEST PUSH1 0x0 PUSH20 0xFFFFFFFFFFFFFFFFFFFFFFFFFFFFFFFFFFFFFFFF AND DUP2 PUSH20 0xFFFFFFFFFFFFFFFFFFFFFFFFFFFFFFFFFFFFFFFF AND EQ ISZERO PUSH2 0x18E0 JUMPI PUSH1 0x40 MLOAD PUSH32 0x8C379A000000000000000000000000000000000000000000000000000000000 DUP2 MSTORE PUSH1 0x4 ADD PUSH2 0x18D7 SWAP1 PUSH2 0x20AD JUMP JUMPDEST PUSH1 0x40 MLOAD DUP1 SWAP2 SUB SWAP1 REVERT JUMPDEST PUSH2 0x18E9 DUP2 PUSH2 0x1A06 JUMP JUMPDEST POP JUMP JUMPDEST PUSH2 0x18F4 PUSH2 0x19D2 JUMP JUMPDEST PUSH20 0xFFFFFFFFFFFFFFFFFFFFFFFFFFFFFFFFFFFFFFFF AND PUSH2 0x1912 PUSH2 0x1487 JUMP JUMPDEST PUSH20 0xFFFFFFFFFFFFFFFFFFFFFFFFFFFFFFFFFFFFFFFF AND EQ PUSH2 0x1968 JUMPI PUSH1 0x40 MLOAD PUSH32 0x8C379A000000000000000000000000000000000000000000000000000000000 DUP2 MSTORE PUSH1 0x4 ADD PUSH2 0x195F SWAP1 PUSH2 0x20CD JUMP JUMPDEST PUSH1 0x40 MLOAD DUP1 SWAP2 SUB SWAP1 REVERT JUMPDEST DUP1 PUSH1 0x5 PUSH1 0x0 PUSH2 0x100 EXP DUP2 SLOAD DUP2 PUSH20 0xFFFFFFFFFFFFFFFFFFFFFFFFFFFFFFFFFFFFFFFF MUL NOT AND SWAP1 DUP4 PUSH20 0xFFFFFFFFFFFFFFFFFFFFFFFFFFFFFFFFFFFFFFFF AND MUL OR SWAP1 SSTORE POP POP JUMP JUMPDEST PUSH1 0x6 PUSH1 0x0 SWAP1 SLOAD SWAP1 PUSH2 0x100 EXP SWAP1 DIV PUSH20 0xFFFFFFFFFFFFFFFFFFFFFFFFFFFFFFFFFFFFFFFF AND DUP2 JUMP JUMPDEST PUSH1 0x0 CALLER SWAP1 POP SWAP1 JUMP JUMPDEST PUSH1 0x0 DUP2 DUP4 PUSH2 0x19E8 SWAP2 SWAP1 PUSH2 0x21C0 JUMP JUMPDEST SWAP1 POP SWAP3 SWAP2 POP POP JUMP JUMPDEST PUSH1 0x0 DUP2 DUP4 PUSH2 0x19FE SWAP2 SWAP1 PUSH2 0x21F1 JUMP JUMPDEST SWAP1 POP SWAP3 SWAP2 POP POP JUMP JUMPDEST PUSH1 0x0 DUP1 PUSH1 0x0 SWAP1 SLOAD SWAP1 PUSH2 0x100 EXP SWAP1 DIV PUSH20 0xFFFFFFFFFFFFFFFFFFFFFFFFFFFFFFFFFFFFFFFF AND SWAP1 POP DUP2 PUSH1 0x0 DUP1 PUSH2 0x100 EXP DUP2 SLOAD DUP2 PUSH20 0xFFFFFFFFFFFFFFFFFFFFFFFFFFFFFFFFFFFFFFFF MUL NOT AND SWAP1 DUP4 PUSH20 0xFFFFFFFFFFFFFFFFFFFFFFFFFFFFFFFFFFFFFFFF AND MUL OR SWAP1 SSTORE POP DUP2 PUSH20 0xFFFFFFFFFFFFFFFFFFFFFFFFFFFFFFFFFFFFFFFF AND DUP2 PUSH20 0xFFFFFFFFFFFFFFFFFFFFFFFFFFFFFFFFFFFFFFFF AND PUSH32 0x8BE0079C531659141344CD1FD0A4F28419497F9722A3DAAFE3B4186F6B6457E0 PUSH1 0x40 MLOAD PUSH1 0x40 MLOAD DUP1 SWAP2 SUB SWAP1 LOG3 POP POP JUMP JUMPDEST PUSH1 0x0 PUSH2 0x1ADD PUSH2 0x1AD8 DUP5 PUSH2 0x212D JUMP JUMPDEST PUSH2 0x2108 JUMP JUMPDEST SWAP1 POP DUP1 DUP4 DUP3 MSTORE PUSH1 0x20 DUP3 ADD SWAP1 POP DUP3 DUP6 PUSH1 0x20 DUP7 MUL DUP3 ADD GT ISZERO PUSH2 0x1B00 JUMPI PUSH2 0x1AFF PUSH2 0x252C JUMP JUMPDEST JUMPDEST PUSH1 0x0 JUMPDEST DUP6 DUP2 LT ISZERO PUSH2 0x1B30 JUMPI DUP2 PUSH2 0x1B16 DUP9 DUP3 PUSH2 0x1CC5 JUMP JUMPDEST DUP5 MSTORE PUSH1 0x20 DUP5 ADD SWAP4 POP PUSH1 0x20 DUP4 ADD SWAP3 POP POP PUSH1 0x1 DUP2 ADD SWAP1 POP PUSH2 0x1B03 JUMP JUMPDEST POP POP POP SWAP4 SWAP3 POP POP POP JUMP JUMPDEST PUSH1 0x0 DUP2 CALLDATALOAD SWAP1 POP PUSH2 0x1B49 DUP2 PUSH2 0x25C4 JUMP JUMPDEST SWAP3 SWAP2 POP POP JUMP JUMPDEST PUSH1 0x0 DUP2 MLOAD SWAP1 POP PUSH2 0x1B5E DUP2 PUSH2 0x25C4 JUMP JUMPDEST SWAP3 SWAP2 POP POP JUMP JUMPDEST PUSH1 0x0 DUP3 PUSH1 0x1F DUP4 ADD SLT PUSH2 0x1B79 JUMPI PUSH2 0x1B78 PUSH2 0x2522 JUMP JUMPDEST JUMPDEST DUP2 MLOAD PUSH2 0x1B89 DUP5 DUP3 PUSH1 0x20 DUP7 ADD PUSH2 0x1ACA JUMP JUMPDEST SWAP2 POP POP SWAP3 SWAP2 POP POP JUMP JUMPDEST PUSH1 0x0 DUP2 CALLDATALOAD SWAP1 POP PUSH2 0x1BA1 DUP2 PUSH2 0x25DB JUMP JUMPDEST SWAP3 SWAP2 POP POP JUMP JUMPDEST PUSH1 0x0 DUP2 CALLDATALOAD SWAP1 POP PUSH2 0x1BB6 DUP2 PUSH2 0x25F2 JUMP JUMPDEST SWAP3 SWAP2 POP POP JUMP JUMPDEST PUSH1 0x0 DUP2 CALLDATALOAD SWAP1 POP PUSH2 0x1BCB DUP2 PUSH2 0x2609 JUMP JUMPDEST SWAP3 SWAP2 POP POP JUMP JUMPDEST PUSH1 0x0 DUP2 CALLDATALOAD SWAP1 POP PUSH2 0x1BE0 DUP2 PUSH2 0x2620 JUMP JUMPDEST SWAP3 SWAP2 POP POP JUMP JUMPDEST PUSH1 0x0 DUP2 CALLDATALOAD SWAP1 POP PUSH2 0x1BF5 DUP2 PUSH2 0x2637 JUMP JUMPDEST SWAP3 SWAP2 POP POP JUMP JUMPDEST PUSH1 0x0 PUSH1 0xC0 DUP3 DUP5 SUB SLT ISZERO PUSH2 0x1C11 JUMPI PUSH2 0x1C10 PUSH2 0x2527 JUMP JUMPDEST JUMPDEST PUSH2 0x1C1B PUSH1 0xC0 PUSH2 0x2108 JUMP JUMPDEST SWAP1 POP PUSH1 0x0 PUSH2 0x1C2B DUP5 DUP3 DUP6 ADD PUSH2 0x1B4F JUMP JUMPDEST PUSH1 0x0 DUP4 ADD MSTORE POP PUSH1 0x20 PUSH2 0x1C3F DUP5 DUP3 DUP6 ADD PUSH2 0x1CC5 JUMP JUMPDEST PUSH1 0x20 DUP4 ADD MSTORE POP PUSH1 0x40 PUSH2 0x1C53 DUP5 DUP3 DUP6 ADD PUSH2 0x1CC5 JUMP JUMPDEST PUSH1 0x40 DUP4 ADD MSTORE POP PUSH1 0x60 PUSH2 0x1C67 DUP5 DUP3 DUP6 ADD PUSH2 0x1CC5 JUMP JUMPDEST PUSH1 0x60 DUP4 ADD MSTORE POP PUSH1 0x80 PUSH2 0x1C7B DUP5 DUP3 DUP6 ADD PUSH2 0x1CC5 JUMP JUMPDEST PUSH1 0x80 DUP4 ADD MSTORE POP PUSH1 0xA0 PUSH2 0x1C8F DUP5 DUP3 DUP6 ADD PUSH2 0x1CC5 JUMP JUMPDEST PUSH1 0xA0 DUP4 ADD MSTORE POP SWAP3 SWAP2 POP POP JUMP JUMPDEST PUSH1 0x0 DUP2 MLOAD SWAP1 POP PUSH2 0x1CAA DUP2 PUSH2 0x264E JUMP JUMPDEST SWAP3 SWAP2 POP POP JUMP JUMPDEST PUSH1 0x0 DUP2 CALLDATALOAD SWAP1 POP PUSH2 0x1CBF DUP2 PUSH2 0x2665 JUMP JUMPDEST SWAP3 SWAP2 POP POP JUMP JUMPDEST PUSH1 0x0 DUP2 MLOAD SWAP1 POP PUSH2 0x1CD4 DUP2 PUSH2 0x2665 JUMP JUMPDEST SWAP3 SWAP2 POP POP JUMP JUMPDEST PUSH1 0x0 DUP2 MLOAD SWAP1 POP PUSH2 0x1CE9 DUP2 PUSH2 0x267C JUMP JUMPDEST SWAP3 SWAP2 POP POP JUMP JUMPDEST PUSH1 0x0 PUSH1 0x20 DUP3 DUP5 SUB SLT ISZERO PUSH2 0x1D05 JUMPI PUSH2 0x1D04 PUSH2 0x2536 JUMP JUMPDEST JUMPDEST PUSH1 0x0 PUSH2 0x1D13 DUP5 DUP3 DUP6 ADD PUSH2 0x1B3A JUMP JUMPDEST SWAP2 POP POP SWAP3 SWAP2 POP POP JUMP JUMPDEST PUSH1 0x0 DUP1 PUSH1 0x40 DUP4 DUP6 SUB SLT ISZERO PUSH2 0x1D33 JUMPI PUSH2 0x1D32 PUSH2 0x2536 JUMP JUMPDEST JUMPDEST PUSH1 0x0 PUSH2 0x1D41 DUP6 DUP3 DUP7 ADD PUSH2 0x1B3A JUMP JUMPDEST SWAP3 POP POP PUSH1 0x20 PUSH2 0x1D52 DUP6 DUP3 DUP7 ADD PUSH2 0x1CB0 JUMP JUMPDEST SWAP2 POP POP SWAP3 POP SWAP3 SWAP1 POP JUMP JUMPDEST PUSH1 0x0 PUSH1 0x20 DUP3 DUP5 SUB SLT ISZERO PUSH2 0x1D72 JUMPI PUSH2 0x1D71 PUSH2 0x2536 JUMP JUMPDEST JUMPDEST PUSH1 0x0 DUP3 ADD MLOAD PUSH8 0xFFFFFFFFFFFFFFFF DUP2 GT ISZERO PUSH2 0x1D90 JUMPI PUSH2 0x1D8F PUSH2 0x2531 JUMP JUMPDEST JUMPDEST PUSH2 0x1D9C DUP5 DUP3 DUP6 ADD PUSH2 0x1B64 JUMP JUMPDEST SWAP2 POP POP SWAP3 SWAP2 POP POP JUMP JUMPDEST PUSH1 0x0 PUSH1 0x20 DUP3 DUP5 SUB SLT ISZERO PUSH2 0x1DBB JUMPI PUSH2 0x1DBA PUSH2 0x2536 JUMP JUMPDEST JUMPDEST PUSH1 0x0 PUSH2 0x1DC9 DUP5 DUP3 DUP6 ADD PUSH2 0x1B92 JUMP JUMPDEST SWAP2 POP POP SWAP3 SWAP2 POP POP JUMP JUMPDEST PUSH1 0x0 PUSH1 0x20 DUP3 DUP5 SUB SLT ISZERO PUSH2 0x1DE8 JUMPI PUSH2 0x1DE7 PUSH2 0x2536 JUMP JUMPDEST JUMPDEST PUSH1 0x0 PUSH2 0x1DF6 DUP5 DUP3 DUP6 ADD PUSH2 0x1BA7 JUMP JUMPDEST SWAP2 POP POP SWAP3 SWAP2 POP POP JUMP JUMPDEST PUSH1 0x0 PUSH1 0x20 DUP3 DUP5 SUB SLT ISZERO PUSH2 0x1E15 JUMPI PUSH2 0x1E14 PUSH2 0x2536 JUMP JUMPDEST JUMPDEST PUSH1 0x0 PUSH2 0x1E23 DUP5 DUP3 DUP6 ADD PUSH2 0x1BBC JUMP JUMPDEST SWAP2 POP POP SWAP3 SWAP2 POP POP JUMP JUMPDEST PUSH1 0x0 PUSH1 0x20 DUP3 DUP5 SUB SLT ISZERO PUSH2 0x1E42 JUMPI PUSH2 0x1E41 PUSH2 0x2536 JUMP JUMPDEST JUMPDEST PUSH1 0x0 PUSH2 0x1E50 DUP5 DUP3 DUP6 ADD PUSH2 0x1BD1 JUMP JUMPDEST SWAP2 POP POP SWAP3 SWAP2 POP POP JUMP JUMPDEST PUSH1 0x0 PUSH1 0x20 DUP3 DUP5 SUB SLT ISZERO PUSH2 0x1E6F JUMPI PUSH2 0x1E6E PUSH2 0x2536 JUMP JUMPDEST JUMPDEST PUSH1 0x0 PUSH2 0x1E7D DUP5 DUP3 DUP6 ADD PUSH2 0x1BE6 JUMP JUMPDEST SWAP2 POP POP SWAP3 SWAP2 POP POP JUMP JUMPDEST PUSH1 0x0 PUSH1 0xC0 DUP3 DUP5 SUB SLT ISZERO PUSH2 0x1E9C JUMPI PUSH2 0x1E9B PUSH2 0x2536 JUMP JUMPDEST JUMPDEST PUSH1 0x0 PUSH2 0x1EAA DUP5 DUP3 DUP6 ADD PUSH2 0x1BFB JUMP JUMPDEST SWAP2 POP POP SWAP3 SWAP2 POP POP JUMP JUMPDEST PUSH1 0x0 DUP1 PUSH1 0x0 PUSH1 0x60 DUP5 DUP7 SUB SLT ISZERO PUSH2 0x1ECC JUMPI PUSH2 0x1ECB PUSH2 0x2536 JUMP JUMPDEST JUMPDEST PUSH1 0x0 PUSH2 0x1EDA DUP7 DUP3 DUP8 ADD PUSH2 0x1C9B JUMP JUMPDEST SWAP4 POP POP PUSH1 0x20 PUSH2 0x1EEB DUP7 DUP3 DUP8 ADD PUSH2 0x1C9B JUMP JUMPDEST SWAP3 POP POP PUSH1 0x40 PUSH2 0x1EFC DUP7 DUP3 DUP8 ADD PUSH2 0x1CDA JUMP JUMPDEST SWAP2 POP POP SWAP3 POP SWAP3 POP SWAP3 JUMP JUMPDEST PUSH1 0x0 PUSH1 0x20 DUP3 DUP5 SUB SLT ISZERO PUSH2 0x1F1C JUMPI PUSH2 0x1F1B PUSH2 0x2536 JUMP JUMPDEST JUMPDEST PUSH1 0x0 PUSH2 0x1F2A DUP5 DUP3 DUP6 ADD PUSH2 0x1CC5 JUMP JUMPDEST SWAP2 POP POP SWAP3 SWAP2 POP POP JUMP JUMPDEST PUSH2 0x1F3C DUP2 PUSH2 0x227F JUMP JUMPDEST DUP3 MSTORE POP POP JUMP JUMPDEST PUSH2 0x1F4B DUP2 PUSH2 0x233F JUMP JUMPDEST DUP3 MSTORE POP POP JUMP JUMPDEST PUSH2 0x1F5A DUP2 PUSH2 0x2351 JUMP JUMPDEST DUP3 MSTORE POP POP JUMP JUMPDEST PUSH2 0x1F69 DUP2 PUSH2 0x2363 JUMP JUMPDEST DUP3 MSTORE POP POP JUMP JUMPDEST PUSH2 0x1F78 DUP2 PUSH2 0x2375 JUMP JUMPDEST DUP3 MSTORE POP POP JUMP JUMPDEST PUSH2 0x1F87 DUP2 PUSH2 0x2387 JUMP JUMPDEST DUP3 MSTORE POP POP JUMP JUMPDEST PUSH1 0x0 PUSH2 0x1F9A PUSH1 0x26 DUP4 PUSH2 0x2159 JUMP JUMPDEST SWAP2 POP PUSH2 0x1FA5 DUP3 PUSH2 0x254C JUMP JUMPDEST PUSH1 0x40 DUP3 ADD SWAP1 POP SWAP2 SWAP1 POP JUMP JUMPDEST PUSH1 0x0 PUSH2 0x1FBD PUSH1 0x20 DUP4 PUSH2 0x2159 JUMP JUMPDEST SWAP2 POP PUSH2 0x1FC8 DUP3 PUSH2 0x259B JUMP JUMPDEST PUSH1 0x20 DUP3 ADD SWAP1 POP SWAP2 SWAP1 POP JUMP JUMPDEST PUSH2 0x1FDC DUP2 PUSH2 0x2325 JUMP JUMPDEST DUP3 MSTORE POP POP JUMP JUMPDEST PUSH1 0x0 PUSH1 0x20 DUP3 ADD SWAP1 POP PUSH2 0x1FF7 PUSH1 0x0 DUP4 ADD DUP5 PUSH2 0x1F33 JUMP JUMPDEST SWAP3 SWAP2 POP POP JUMP JUMPDEST PUSH1 0x0 PUSH1 0x40 DUP3 ADD SWAP1 POP PUSH2 0x2012 PUSH1 0x0 DUP4 ADD DUP6 PUSH2 0x1F33 JUMP JUMPDEST PUSH2 0x201F PUSH1 0x20 DUP4 ADD DUP5 PUSH2 0x1FD3 JUMP JUMPDEST SWAP4 SWAP3 POP POP POP JUMP JUMPDEST PUSH1 0x0 PUSH1 0x20 DUP3 ADD SWAP1 POP PUSH2 0x203B PUSH1 0x0 DUP4 ADD DUP5 PUSH2 0x1F42 JUMP JUMPDEST SWAP3 SWAP2 POP POP JUMP JUMPDEST PUSH1 0x0 PUSH1 0x20 DUP3 ADD SWAP1 POP PUSH2 0x2056 PUSH1 0x0 DUP4 ADD DUP5 PUSH2 0x1F51 JUMP JUMPDEST SWAP3 SWAP2 POP POP JUMP JUMPDEST PUSH1 0x0 PUSH1 0x20 DUP3 ADD SWAP1 POP PUSH2 0x2071 PUSH1 0x0 DUP4 ADD DUP5 PUSH2 0x1F60 JUMP JUMPDEST SWAP3 SWAP2 POP POP JUMP JUMPDEST PUSH1 0x0 PUSH1 0x20 DUP3 ADD SWAP1 POP PUSH2 0x208C PUSH1 0x0 DUP4 ADD DUP5 PUSH2 0x1F6F JUMP JUMPDEST SWAP3 SWAP2 POP POP JUMP JUMPDEST PUSH1 0x0 PUSH1 0x20 DUP3 ADD SWAP1 POP PUSH2 0x20A7 PUSH1 0x0 DUP4 ADD DUP5 PUSH2 0x1F7E JUMP JUMPDEST SWAP3 SWAP2 POP POP JUMP JUMPDEST PUSH1 0x0 PUSH1 0x20 DUP3 ADD SWAP1 POP DUP2 DUP2 SUB PUSH1 0x0 DUP4 ADD MSTORE PUSH2 0x20C6 DUP2 PUSH2 0x1F8D JUMP JUMPDEST SWAP1 POP SWAP2 SWAP1 POP JUMP JUMPDEST PUSH1 0x0 PUSH1 0x20 DUP3 ADD SWAP1 POP DUP2 DUP2 SUB PUSH1 0x0 DUP4 ADD MSTORE PUSH2 0x20E6 DUP2 PUSH2 0x1FB0 JUMP JUMPDEST SWAP1 POP SWAP2 SWAP1 POP JUMP JUMPDEST PUSH1 0x0 PUSH1 0x20 DUP3 ADD SWAP1 POP PUSH2 0x2102 PUSH1 0x0 DUP4 ADD DUP5 PUSH2 0x1FD3 JUMP JUMPDEST SWAP3 SWAP2 POP POP JUMP JUMPDEST PUSH1 0x0 PUSH2 0x2112 PUSH2 0x2123 JUMP JUMPDEST SWAP1 POP PUSH2 0x211E DUP3 DUP3 PUSH2 0x23BD JUMP JUMPDEST SWAP2 SWAP1 POP JUMP JUMPDEST PUSH1 0x0 PUSH1 0x40 MLOAD SWAP1 POP SWAP1 JUMP JUMPDEST PUSH1 0x0 PUSH8 0xFFFFFFFFFFFFFFFF DUP3 GT ISZERO PUSH2 0x2148 JUMPI PUSH2 0x2147 PUSH2 0x24F3 JUMP JUMPDEST JUMPDEST PUSH1 0x20 DUP3 MUL SWAP1 POP PUSH1 0x20 DUP2 ADD SWAP1 POP SWAP2 SWAP1 POP JUMP JUMPDEST PUSH1 0x0 DUP3 DUP3 MSTORE PUSH1 0x20 DUP3 ADD SWAP1 POP SWAP3 SWAP2 POP POP JUMP JUMPDEST PUSH1 0x0 PUSH2 0x2175 DUP3 PUSH2 0x2325 JUMP JUMPDEST SWAP2 POP PUSH2 0x2180 DUP4 PUSH2 0x2325 JUMP JUMPDEST SWAP3 POP DUP3 PUSH32 0xFFFFFFFFFFFFFFFFFFFFFFFFFFFFFFFFFFFFFFFFFFFFFFFFFFFFFFFFFFFFFFFF SUB DUP3 GT ISZERO PUSH2 0x21B5 JUMPI PUSH2 0x21B4 PUSH2 0x2437 JUMP JUMPDEST JUMPDEST DUP3 DUP3 ADD SWAP1 POP SWAP3 SWAP2 POP POP JUMP JUMPDEST PUSH1 0x0 PUSH2 0x21CB DUP3 PUSH2 0x2325 JUMP JUMPDEST SWAP2 POP PUSH2 0x21D6 DUP4 PUSH2 0x2325 JUMP JUMPDEST SWAP3 POP DUP3 PUSH2 0x21E6 JUMPI PUSH2 0x21E5 PUSH2 0x2466 JUMP JUMPDEST JUMPDEST DUP3 DUP3 DIV SWAP1 POP SWAP3 SWAP2 POP POP JUMP JUMPDEST PUSH1 0x0 PUSH2 0x21FC DUP3 PUSH2 0x2325 JUMP JUMPDEST SWAP2 POP PUSH2 0x2207 DUP4 PUSH2 0x2325 JUMP JUMPDEST SWAP3 POP DUP2 PUSH32 0xFFFFFFFFFFFFFFFFFFFFFFFFFFFFFFFFFFFFFFFFFFFFFFFFFFFFFFFFFFFFFFFF DIV DUP4 GT DUP3 ISZERO ISZERO AND ISZERO PUSH2 0x2240 JUMPI PUSH2 0x223F PUSH2 0x2437 JUMP JUMPDEST JUMPDEST DUP3 DUP3 MUL SWAP1 POP SWAP3 SWAP2 POP POP JUMP JUMPDEST PUSH1 0x0 PUSH2 0x2256 DUP3 PUSH2 0x2325 JUMP JUMPDEST SWAP2 POP PUSH2 0x2261 DUP4 PUSH2 0x2325 JUMP JUMPDEST SWAP3 POP DUP3 DUP3 LT ISZERO PUSH2 0x2274 JUMPI PUSH2 0x2273 PUSH2 0x2437 JUMP JUMPDEST JUMPDEST DUP3 DUP3 SUB SWAP1 POP SWAP3 SWAP2 POP POP JUMP JUMPDEST PUSH1 0x0 PUSH2 0x228A DUP3 PUSH2 0x2305 JUMP JUMPDEST SWAP1 POP SWAP2 SWAP1 POP JUMP JUMPDEST PUSH1 0x0 PUSH2 0x229C DUP3 PUSH2 0x227F JUMP JUMPDEST SWAP1 POP SWAP2 SWAP1 POP JUMP JUMPDEST PUSH1 0x0 PUSH2 0x22AE DUP3 PUSH2 0x227F JUMP JUMPDEST SWAP1 POP SWAP2 SWAP1 POP JUMP JUMPDEST PUSH1 0x0 PUSH2 0x22C0 DUP3 PUSH2 0x227F JUMP JUMPDEST SWAP1 POP SWAP2 SWAP1 POP JUMP JUMPDEST PUSH1 0x0 PUSH2 0x22D2 DUP3 PUSH2 0x227F JUMP JUMPDEST SWAP1 POP SWAP2 SWAP1 POP JUMP JUMPDEST PUSH1 0x0 PUSH2 0x22E4 DUP3 PUSH2 0x227F JUMP JUMPDEST SWAP1 POP SWAP2 SWAP1 POP JUMP JUMPDEST PUSH1 0x0 PUSH14 0xFFFFFFFFFFFFFFFFFFFFFFFFFFFF DUP3 AND SWAP1 POP SWAP2 SWAP1 POP JUMP JUMPDEST PUSH1 0x0 PUSH20 0xFFFFFFFFFFFFFFFFFFFFFFFFFFFFFFFFFFFFFFFF DUP3 AND SWAP1 POP SWAP2 SWAP1 POP JUMP JUMPDEST PUSH1 0x0 DUP2 SWAP1 POP SWAP2 SWAP1 POP JUMP JUMPDEST PUSH1 0x0 PUSH4 0xFFFFFFFF DUP3 AND SWAP1 POP SWAP2 SWAP1 POP JUMP JUMPDEST PUSH1 0x0 PUSH2 0x234A DUP3 PUSH2 0x2399 JUMP JUMPDEST SWAP1 POP SWAP2 SWAP1 POP JUMP JUMPDEST PUSH1 0x0 PUSH2 0x235C DUP3 PUSH2 0x2399 JUMP JUMPDEST SWAP1 POP SWAP2 SWAP1 POP JUMP JUMPDEST PUSH1 0x0 PUSH2 0x236E DUP3 PUSH2 0x2399 JUMP JUMPDEST SWAP1 POP SWAP2 SWAP1 POP JUMP JUMPDEST PUSH1 0x0 PUSH2 0x2380 DUP3 PUSH2 0x2399 JUMP JUMPDEST SWAP1 POP SWAP2 SWAP1 POP JUMP JUMPDEST PUSH1 0x0 PUSH2 0x2392 DUP3 PUSH2 0x2399 JUMP JUMPDEST SWAP1 POP SWAP2 SWAP1 POP JUMP JUMPDEST PUSH1 0x0 PUSH2 0x23A4 DUP3 PUSH2 0x23AB JUMP JUMPDEST SWAP1 POP SWAP2 SWAP1 POP JUMP JUMPDEST PUSH1 0x0 PUSH2 0x23B6 DUP3 PUSH2 0x2305 JUMP JUMPDEST SWAP1 POP SWAP2 SWAP1 POP JUMP JUMPDEST PUSH2 0x23C6 DUP3 PUSH2 0x253B JUMP JUMPDEST DUP2 ADD DUP2 DUP2 LT PUSH8 0xFFFFFFFFFFFFFFFF DUP3 GT OR ISZERO PUSH2 0x23E5 JUMPI PUSH2 0x23E4 PUSH2 0x24F3 JUMP JUMPDEST JUMPDEST DUP1 PUSH1 0x40 MSTORE POP POP POP JUMP JUMPDEST PUSH1 0x0 PUSH2 0x23F9 DUP3 PUSH2 0x2325 JUMP JUMPDEST SWAP2 POP PUSH32 0xFFFFFFFFFFFFFFFFFFFFFFFFFFFFFFFFFFFFFFFFFFFFFFFFFFFFFFFFFFFFFFFF DUP3 EQ ISZERO PUSH2 0x242C JUMPI PUSH2 0x242B PUSH2 0x2437 JUMP JUMPDEST JUMPDEST PUSH1 0x1 DUP3 ADD SWAP1 POP SWAP2 SWAP1 POP JUMP JUMPDEST PUSH32 0x4E487B7100000000000000000000000000000000000000000000000000000000 PUSH1 0x0 MSTORE PUSH1 0x11 PUSH1 0x4 MSTORE PUSH1 0x24 PUSH1 0x0 REVERT JUMPDEST PUSH32 0x4E487B7100000000000000000000000000000000000000000000000000000000 PUSH1 0x0 MSTORE PUSH1 0x12 PUSH1 0x4 MSTORE PUSH1 0x24 PUSH1 0x0 REVERT JUMPDEST PUSH32 0x4E487B7100000000000000000000000000000000000000000000000000000000 PUSH1 0x0 MSTORE PUSH1 0x31 PUSH1 0x4 MSTORE PUSH1 0x24 PUSH1 0x0 REVERT JUMPDEST PUSH32 0x4E487B7100000000000000000000000000000000000000000000000000000000 PUSH1 0x0 MSTORE PUSH1 0x32 PUSH1 0x4 MSTORE PUSH1 0x24 PUSH1 0x0 REVERT JUMPDEST PUSH32 0x4E487B7100000000000000000000000000000000000000000000000000000000 PUSH1 0x0 MSTORE PUSH1 0x41 PUSH1 0x4 MSTORE PUSH1 0x24 PUSH1 0x0 REVERT JUMPDEST PUSH1 0x0 DUP1 REVERT JUMPDEST PUSH1 0x0 DUP1 REVERT JUMPDEST PUSH1 0x0 DUP1 REVERT JUMPDEST PUSH1 0x0 DUP1 REVERT JUMPDEST PUSH1 0x0 DUP1 REVERT JUMPDEST PUSH1 0x0 PUSH1 0x1F NOT PUSH1 0x1F DUP4 ADD AND SWAP1 POP SWAP2 SWAP1 POP JUMP JUMPDEST PUSH32 0x4F776E61626C653A206E6577206F776E657220697320746865207A65726F2061 PUSH1 0x0 DUP3 ADD MSTORE PUSH32 0x6464726573730000000000000000000000000000000000000000000000000000 PUSH1 0x20 DUP3 ADD MSTORE POP JUMP JUMPDEST PUSH32 0x4F776E61626C653A2063616C6C6572206973206E6F7420746865206F776E6572 PUSH1 0x0 DUP3 ADD MSTORE POP JUMP JUMPDEST PUSH2 0x25CD DUP2 PUSH2 0x227F JUMP JUMPDEST DUP2 EQ PUSH2 0x25D8 JUMPI PUSH1 0x0 DUP1 REVERT JUMPDEST POP JUMP JUMPDEST PUSH2 0x25E4 DUP2 PUSH2 0x2291 JUMP JUMPDEST DUP2 EQ PUSH2 0x25EF JUMPI PUSH1 0x0 DUP1 REVERT JUMPDEST POP JUMP JUMPDEST PUSH2 0x25FB DUP2 PUSH2 0x22A3 JUMP JUMPDEST DUP2 EQ PUSH2 0x2606 JUMPI PUSH1 0x0 DUP1 REVERT JUMPDEST POP JUMP JUMPDEST PUSH2 0x2612 DUP2 PUSH2 0x22B5 JUMP JUMPDEST DUP2 EQ PUSH2 0x261D JUMPI PUSH1 0x0 DUP1 REVERT JUMPDEST POP JUMP JUMPDEST PUSH2 0x2629 DUP2 PUSH2 0x22C7 JUMP JUMPDEST DUP2 EQ PUSH2 0x2634 JUMPI PUSH1 0x0 DUP1 REVERT JUMPDEST POP JUMP JUMPDEST PUSH2 0x2640 DUP2 PUSH2 0x22D9 JUMP JUMPDEST DUP2 EQ PUSH2 0x264B JUMPI PUSH1 0x0 DUP1 REVERT JUMPDEST POP JUMP JUMPDEST PUSH2 0x2657 DUP2 PUSH2 0x22EB JUMP JUMPDEST DUP2 EQ PUSH2 0x2662 JUMPI PUSH1 0x0 DUP1 REVERT JUMPDEST POP JUMP JUMPDEST PUSH2 0x266E DUP2 PUSH2 0x2325 JUMP JUMPDEST DUP2 EQ PUSH2 0x2679 JUMPI PUSH1 0x0 DUP1 REVERT JUMPDEST POP JUMP JUMPDEST PUSH2 0x2685 DUP2 PUSH2 0x232F JUMP JUMPDEST DUP2 EQ PUSH2 0x2690 JUMPI PUSH1 0x0 DUP1 REVERT JUMPDEST POP JUMP INVALID LOG2 PUSH5 0x6970667358 0x22 SLT KECCAK256 CALLER DIFFICULTY 0xD8 0xAB 0xDF 0xAA SWAP13 PUSH22 0xAE6407BB76873E4FCEAE87D4520AE975DC4B21310070 PUSH3 0x276473 PUSH16 0x6C634300080700330000000000000000 "
				},
				"gasEstimates": {
					"creation": {
						"codeDepositCost": "1985800",
						"executionCost": "infinite",
						"totalCost": "infinite"
					},
					"external": {
						"addNFT(address,uint256)": "49437",
						"changeNFTRank(address,uint256)": "25194",
						"diamond()": "2644",
						"getNFTBalance(address)": "infinite",
						"getPancakePairBalance(address)": "infinite",
						"getQubeBalance(address)": "infinite",
						"getQubePresaleBalance(address)": "infinite",
						"getQubeStakeFactoryBalance(address)": "infinite",
						"gold()": "2710",
						"owner()": "2633",
						"pancakePair()": "2667",
						"qube()": "2668",
						"qubeBalance(address)": "infinite",
						"qubeBalanceWithNFT(address)": "infinite",
						"qubePresale()": "2646",
						"qubeStakeFactory()": "2667",
						"removeNFT(address,uint256)": "infinite",
						"renounceOwnership()": "30464",
						"setDiamond(address)": "27050",
						"setGold(address)": "27096",
						"setQube(address)": "27051",
						"setQubePancakePair(address)": "27094",
						"setQubePresale(address)": "27095",
						"setQubeStake(address)": "27073",
						"setSilver(address)": "27093",
						"silver()": "2669",
						"transferOwnership(address)": "30789",
						"userNFT(address)": "2875"
					}
				},
				"methodIdentifiers": {
					"addNFT(address,uint256)": "4ea2813c",
					"changeNFTRank(address,uint256)": "0f79ede9",
					"diamond()": "f0b7db4e",
					"getNFTBalance(address)": "bf8ebd85",
					"getPancakePairBalance(address)": "42632ee0",
					"getQubeBalance(address)": "3445d381",
					"getQubePresaleBalance(address)": "1fb5d3c2",
					"getQubeStakeFactoryBalance(address)": "2540d8a7",
					"gold()": "fbec6f21",
					"owner()": "8da5cb5b",
					"pancakePair()": "b8c9d25c",
					"qube()": "6de5368b",
					"qubeBalance(address)": "0b75aa36",
					"qubeBalanceWithNFT(address)": "a7288c2e",
					"qubePresale()": "10a5806a",
					"qubeStakeFactory()": "84119666",
					"removeNFT(address,uint256)": "49fd566b",
					"renounceOwnership()": "715018a6",
					"setDiamond(address)": "76ed535a",
					"setGold(address)": "0520b708",
					"setQube(address)": "0651823e",
					"setQubePancakePair(address)": "8bb8c68f",
					"setQubePresale(address)": "0ed7b861",
					"setQubeStake(address)": "17d8b80c",
					"setSilver(address)": "f479ef22",
					"silver()": "0314214c",
					"transferOwnership(address)": "f2fde38b",
					"userNFT(address)": "00c2378f"
				}
			},
			"storageLayout": {
				"storage": [
					{
						"astId": 243,
						"contract": "Launchpad v2.0/QubeBalance.sol:QubeBalance",
						"label": "_owner",
						"offset": 0,
						"slot": "0",
						"type": "t_address"
					},
					{
						"astId": 907,
						"contract": "Launchpad v2.0/QubeBalance.sol:QubeBalance",
						"label": "qube",
						"offset": 0,
						"slot": "1",
						"type": "t_contract(IBEP20)105"
					},
					{
						"astId": 910,
						"contract": "Launchpad v2.0/QubeBalance.sol:QubeBalance",
						"label": "qubePresale",
						"offset": 0,
						"slot": "2",
						"type": "t_contract(QubePresale)1407"
					},
					{
						"astId": 913,
						"contract": "Launchpad v2.0/QubeBalance.sol:QubeBalance",
						"label": "pancakePair",
						"offset": 0,
						"slot": "3",
						"type": "t_contract(IPancakePair)581"
					},
					{
						"astId": 916,
						"contract": "Launchpad v2.0/QubeBalance.sol:QubeBalance",
						"label": "qubeStakeFactory",
						"offset": 0,
						"slot": "4",
						"type": "t_contract(QubeStakeFactory)1440"
					},
					{
						"astId": 919,
						"contract": "Launchpad v2.0/QubeBalance.sol:QubeBalance",
						"label": "silver",
						"offset": 0,
						"slot": "5",
						"type": "t_contract(IERC1155)234"
					},
					{
						"astId": 922,
						"contract": "Launchpad v2.0/QubeBalance.sol:QubeBalance",
						"label": "gold",
						"offset": 0,
						"slot": "6",
						"type": "t_contract(IERC1155)234"
					},
					{
						"astId": 925,
						"contract": "Launchpad v2.0/QubeBalance.sol:QubeBalance",
						"label": "diamond",
						"offset": 0,
						"slot": "7",
						"type": "t_contract(IERC1155)234"
					},
					{
						"astId": 930,
						"contract": "Launchpad v2.0/QubeBalance.sol:QubeBalance",
						"label": "userNFT",
						"offset": 0,
						"slot": "8",
						"type": "t_mapping(t_address,t_struct(userNFTData)901_storage)"
					}
				],
				"types": {
					"t_address": {
						"encoding": "inplace",
						"label": "address",
						"numberOfBytes": "20"
					},
					"t_array(t_uint256)dyn_storage": {
						"base": "t_uint256",
						"encoding": "dynamic_array",
						"label": "uint256[]",
						"numberOfBytes": "32"
					},
					"t_contract(IBEP20)105": {
						"encoding": "inplace",
						"label": "contract IBEP20",
						"numberOfBytes": "20"
					},
					"t_contract(IERC1155)234": {
						"encoding": "inplace",
						"label": "contract IERC1155",
						"numberOfBytes": "20"
					},
					"t_contract(IPancakePair)581": {
						"encoding": "inplace",
						"label": "contract IPancakePair",
						"numberOfBytes": "20"
					},
					"t_contract(QubePresale)1407": {
						"encoding": "inplace",
						"label": "contract QubePresale",
						"numberOfBytes": "20"
					},
					"t_contract(QubeStakeFactory)1440": {
						"encoding": "inplace",
						"label": "contract QubeStakeFactory",
						"numberOfBytes": "20"
					},
					"t_mapping(t_address,t_struct(userNFTData)901_storage)": {
						"encoding": "mapping",
						"key": "t_address",
						"label": "mapping(address => struct QubeBalance.userNFTData)",
						"numberOfBytes": "32",
						"value": "t_struct(userNFTData)901_storage"
					},
					"t_struct(userNFTData)901_storage": {
						"encoding": "inplace",
						"label": "struct QubeBalance.userNFTData",
						"members": [
							{
								"astId": 898,
								"contract": "Launchpad v2.0/QubeBalance.sol:QubeBalance",
								"label": "IDs",
								"offset": 0,
								"slot": "0",
								"type": "t_array(t_uint256)dyn_storage"
							},
							{
								"astId": 900,
								"contract": "Launchpad v2.0/QubeBalance.sol:QubeBalance",
								"label": "rank",
								"offset": 0,
								"slot": "1",
								"type": "t_uint256"
							}
						],
						"numberOfBytes": "64"
					},
					"t_uint256": {
						"encoding": "inplace",
						"label": "uint256",
						"numberOfBytes": "32"
					}
				}
			},
			"userdoc": {
				"kind": "user",
				"methods": {},
				"version": 1
			}
		}
	}
}