{
	"Launchpad v2.0/QubeBalance.sol": {
		"QubeBalance": {
			"abi": [
				{
					"inputs": [],
					"stateMutability": "nonpayable",
					"type": "constructor"
				},
				{
					"anonymous": false,
					"inputs": [
						{
							"indexed": true,
							"internalType": "address",
							"name": "previousOwner",
							"type": "address"
						},
						{
							"indexed": true,
							"internalType": "address",
							"name": "newOwner",
							"type": "address"
						}
					],
					"name": "OwnershipTransferred",
					"type": "event"
				},
				{
					"inputs": [
						{
							"internalType": "address",
							"name": "_user",
							"type": "address"
						},
						{
							"internalType": "uint256",
							"name": "_ID",
							"type": "uint256"
						}
					],
					"name": "addNFT",
					"outputs": [],
					"stateMutability": "nonpayable",
					"type": "function"
				},
				{
					"inputs": [],
					"name": "diamond",
					"outputs": [
						{
							"internalType": "contract IERC1155",
							"name": "",
							"type": "address"
						}
					],
					"stateMutability": "view",
					"type": "function"
				},
				{
					"inputs": [
						{
							"internalType": "address",
							"name": "walletAddress",
							"type": "address"
						}
					],
					"name": "getNFTBalance",
					"outputs": [
						{
							"internalType": "uint256",
							"name": "",
							"type": "uint256"
						}
					],
					"stateMutability": "view",
					"type": "function"
				},
				{
					"inputs": [
						{
							"internalType": "address",
							"name": "walletAddress",
							"type": "address"
						}
					],
					"name": "getPancakePairBalance",
					"outputs": [
						{
							"internalType": "uint256",
							"name": "",
							"type": "uint256"
						}
					],
					"stateMutability": "view",
					"type": "function"
				},
				{
					"inputs": [
						{
							"internalType": "address",
							"name": "walletAddress",
							"type": "address"
						}
					],
					"name": "getQubeBalance",
					"outputs": [
						{
							"internalType": "uint256",
							"name": "",
							"type": "uint256"
						}
					],
					"stateMutability": "view",
					"type": "function"
				},
				{
					"inputs": [
						{
							"internalType": "address",
							"name": "walletAddress",
							"type": "address"
						}
					],
					"name": "getQubePresaleBalance",
					"outputs": [
						{
							"internalType": "uint256",
							"name": "",
							"type": "uint256"
						}
					],
					"stateMutability": "view",
					"type": "function"
				},
				{
					"inputs": [
						{
							"internalType": "address",
							"name": "walletAddress",
							"type": "address"
						}
					],
					"name": "getQubeStakeFactoryBalance",
					"outputs": [
						{
							"internalType": "uint256",
							"name": "",
							"type": "uint256"
						}
					],
					"stateMutability": "view",
					"type": "function"
				},
				{
					"inputs": [],
					"name": "gold",
					"outputs": [
						{
							"internalType": "contract IERC1155",
							"name": "",
							"type": "address"
						}
					],
					"stateMutability": "view",
					"type": "function"
				},
				{
					"inputs": [],
					"name": "owner",
					"outputs": [
						{
							"internalType": "address",
							"name": "",
							"type": "address"
						}
					],
					"stateMutability": "view",
					"type": "function"
				},
				{
					"inputs": [],
					"name": "pancakePair",
					"outputs": [
						{
							"internalType": "contract IPancakePair",
							"name": "",
							"type": "address"
						}
					],
					"stateMutability": "view",
					"type": "function"
				},
				{
					"inputs": [],
					"name": "qube",
					"outputs": [
						{
							"internalType": "contract IBEP20",
							"name": "",
							"type": "address"
						}
					],
					"stateMutability": "view",
					"type": "function"
				},
				{
					"inputs": [
						{
							"internalType": "address",
							"name": "walletAddress",
							"type": "address"
						}
					],
					"name": "qubeBalance",
					"outputs": [
						{
							"internalType": "uint256",
							"name": "",
							"type": "uint256"
						}
					],
					"stateMutability": "view",
					"type": "function"
				},
				{
					"inputs": [
						{
							"internalType": "address",
							"name": "walletAddress",
							"type": "address"
						}
					],
					"name": "qubeBalanceWithNFT",
					"outputs": [
						{
							"internalType": "uint256",
							"name": "",
							"type": "uint256"
						}
					],
					"stateMutability": "view",
					"type": "function"
				},
				{
					"inputs": [],
					"name": "qubePresale",
					"outputs": [
						{
							"internalType": "contract QubePresale",
							"name": "",
							"type": "address"
						}
					],
					"stateMutability": "view",
					"type": "function"
				},
				{
					"inputs": [],
					"name": "qubeStakeFactory",
					"outputs": [
						{
							"internalType": "contract QubeStakeFactory",
							"name": "",
							"type": "address"
						}
					],
					"stateMutability": "view",
					"type": "function"
				},
				{
					"inputs": [
						{
							"internalType": "address",
							"name": "_user",
							"type": "address"
						},
						{
							"internalType": "uint256",
							"name": "_ID",
							"type": "uint256"
						}
					],
					"name": "removeNFT",
					"outputs": [],
					"stateMutability": "nonpayable",
					"type": "function"
				},
				{
					"inputs": [],
					"name": "renounceOwnership",
					"outputs": [],
					"stateMutability": "nonpayable",
					"type": "function"
				},
				{
					"inputs": [
						{
							"internalType": "contract IERC1155",
							"name": "_diamond",
							"type": "address"
						}
					],
					"name": "setDiamond",
					"outputs": [],
					"stateMutability": "nonpayable",
					"type": "function"
				},
				{
					"inputs": [
						{
							"internalType": "contract IERC1155",
							"name": "_gold",
							"type": "address"
						}
					],
					"name": "setGold",
					"outputs": [],
					"stateMutability": "nonpayable",
					"type": "function"
				},
				{
					"inputs": [
						{
							"internalType": "contract IBEP20",
							"name": "_qube",
							"type": "address"
						}
					],
					"name": "setQube",
					"outputs": [],
					"stateMutability": "nonpayable",
					"type": "function"
				},
				{
					"inputs": [
						{
							"internalType": "contract IPancakePair",
							"name": "_pancakePair",
							"type": "address"
						}
					],
					"name": "setQubePancakePair",
					"outputs": [],
					"stateMutability": "nonpayable",
					"type": "function"
				},
				{
					"inputs": [
						{
							"internalType": "contract QubePresale",
							"name": "_qubePresale",
							"type": "address"
						}
					],
					"name": "setQubePresale",
					"outputs": [],
					"stateMutability": "nonpayable",
					"type": "function"
				},
				{
					"inputs": [
						{
							"internalType": "contract QubeStakeFactory",
							"name": "_qubeStakeFactory",
							"type": "address"
						}
					],
					"name": "setQubeStake",
					"outputs": [],
					"stateMutability": "nonpayable",
					"type": "function"
				},
				{
					"inputs": [
						{
							"internalType": "contract IERC1155",
							"name": "_silver",
							"type": "address"
						}
					],
					"name": "setSilver",
					"outputs": [],
					"stateMutability": "nonpayable",
					"type": "function"
				},
				{
					"inputs": [],
					"name": "silver",
					"outputs": [
						{
							"internalType": "contract IERC1155",
							"name": "",
							"type": "address"
						}
					],
					"stateMutability": "view",
					"type": "function"
				},
				{
					"inputs": [
						{
							"internalType": "address",
							"name": "newOwner",
							"type": "address"
						}
					],
					"name": "transferOwnership",
					"outputs": [],
					"stateMutability": "nonpayable",
					"type": "function"
				},
				{
					"inputs": [
						{
							"internalType": "address",
							"name": "",
							"type": "address"
						}
					],
					"name": "userNFT",
					"outputs": [
						{
							"internalType": "uint256",
							"name": "length",
							"type": "uint256"
						},
						{
							"internalType": "uint256",
							"name": "rank",
							"type": "uint256"
						}
					],
					"stateMutability": "view",
					"type": "function"
				}
			],
			"devdoc": {
				"kind": "dev",
				"methods": {
					"owner()": {
						"details": "Returns the address of the current owner."
					},
					"renounceOwnership()": {
						"details": "Leaves the contract without owner. It will not be possible to call `onlyOwner` functions anymore. Can only be called by the current owner. NOTE: Renouncing ownership will leave the contract without an owner, thereby removing any functionality that is only available to the owner."
					},
					"transferOwnership(address)": {
						"details": "Transfers ownership of the contract to a new account (`newOwner`). Can only be called by the current owner."
					}
				},
				"version": 1
			},
			"evm": {
				"assembly": "    /* \"Launchpad v2.0/QubeBalance.sol\":512:4441  contract QubeBalance is Ownable{... */\n  mstore(0x40, 0x80)\n    /* \"Launchpad v2.0/QubeBalance.sol\":1152:1174  constructor() {... */\n  callvalue\n  dup1\n  iszero\n  tag_1\n  jumpi\n  0x00\n  dup1\n  revert\ntag_1:\n  pop\n    /* \"Launchpad v2.0/Ownable.sol\":874:897  _setOwner(_msgSender()) */\n  tag_5\n    /* \"Launchpad v2.0/Ownable.sol\":884:896  _msgSender() */\n  tag_6\n    /* \"Launchpad v2.0/Ownable.sol\":884:894  _msgSender */\n  shl(0x20, tag_7)\n    /* \"Launchpad v2.0/Ownable.sol\":884:896  _msgSender() */\n  0x20\n  shr\n  jump\t// in\ntag_6:\n    /* \"Launchpad v2.0/Ownable.sol\":874:883  _setOwner */\n  shl(0x20, tag_8)\n    /* \"Launchpad v2.0/Ownable.sol\":874:897  _setOwner(_msgSender()) */\n  0x20\n  shr\n  jump\t// in\ntag_5:\n    /* \"Launchpad v2.0/QubeBalance.sol\":512:4441  contract QubeBalance is Ownable{... */\n  jump(tag_10)\n    /* \"Launchpad v2.0/Context.sol\":600:696  function _msgSender() internal view virtual returns (address) {... */\ntag_7:\n    /* \"Launchpad v2.0/Context.sol\":653:660  address */\n  0x00\n    /* \"Launchpad v2.0/Context.sol\":679:689  msg.sender */\n  caller\n    /* \"Launchpad v2.0/Context.sol\":672:689  return msg.sender */\n  swap1\n  pop\n    /* \"Launchpad v2.0/Context.sol\":600:696  function _msgSender() internal view virtual returns (address) {... */\n  swap1\n  jump\t// out\n    /* \"Launchpad v2.0/Ownable.sol\":2048:2218  function _setOwner(address newOwner) internal {... */\ntag_8:\n    /* \"Launchpad v2.0/Ownable.sol\":2104:2120  address oldOwner */\n  0x00\n    /* \"Launchpad v2.0/Ownable.sol\":2123:2129  _owner */\n  dup1\n  0x00\n  swap1\n  sload\n  swap1\n  0x0100\n  exp\n  swap1\n  div\n  0xffffffffffffffffffffffffffffffffffffffff\n  and\n    /* \"Launchpad v2.0/Ownable.sol\":2104:2129  address oldOwner = _owner */\n  swap1\n  pop\n    /* \"Launchpad v2.0/Ownable.sol\":2148:2156  newOwner */\n  dup2\n    /* \"Launchpad v2.0/Ownable.sol\":2139:2145  _owner */\n  0x00\n  dup1\n    /* \"Launchpad v2.0/Ownable.sol\":2139:2156  _owner = newOwner */\n  0x0100\n  exp\n  dup2\n  sload\n  dup2\n  0xffffffffffffffffffffffffffffffffffffffff\n  mul\n  not\n  and\n  swap1\n  dup4\n  0xffffffffffffffffffffffffffffffffffffffff\n  and\n  mul\n  or\n  swap1\n  sstore\n  pop\n    /* \"Launchpad v2.0/Ownable.sol\":2202:2210  newOwner */\n  dup2\n    /* \"Launchpad v2.0/Ownable.sol\":2171:2211  OwnershipTransferred(oldOwner, newOwner) */\n  0xffffffffffffffffffffffffffffffffffffffff\n  and\n    /* \"Launchpad v2.0/Ownable.sol\":2192:2200  oldOwner */\n  dup2\n    /* \"Launchpad v2.0/Ownable.sol\":2171:2211  OwnershipTransferred(oldOwner, newOwner) */\n  0xffffffffffffffffffffffffffffffffffffffff\n  and\n  0x8be0079c531659141344cd1fd0a4f28419497f9722a3daafe3b4186f6b6457e0\n  mload(0x40)\n  mload(0x40)\n  dup1\n  swap2\n  sub\n  swap1\n  log3\n    /* \"Launchpad v2.0/Ownable.sol\":2094:2218  {... */\n  pop\n    /* \"Launchpad v2.0/Ownable.sol\":2048:2218  function _setOwner(address newOwner) internal {... */\n  pop\n  jump\t// out\n    /* \"Launchpad v2.0/QubeBalance.sol\":512:4441  contract QubeBalance is Ownable{... */\ntag_10:\n  dataSize(sub_0)\n  dup1\n  dataOffset(sub_0)\n  0x00\n  codecopy\n  0x00\n  return\nstop\n\nsub_0: assembly {\n        /* \"Launchpad v2.0/QubeBalance.sol\":512:4441  contract QubeBalance is Ownable{... */\n      mstore(0x40, 0x80)\n      callvalue\n      dup1\n      iszero\n      tag_1\n      jumpi\n      0x00\n      dup1\n      revert\n    tag_1:\n      pop\n      jumpi(tag_2, lt(calldatasize, 0x04))\n      shr(0xe0, calldataload(0x00))\n      dup1\n      0x4ea2813c\n      gt\n      tag_30\n      jumpi\n      dup1\n      0xa7288c2e\n      gt\n      tag_31\n      jumpi\n      dup1\n      0xf0b7db4e\n      gt\n      tag_32\n      jumpi\n      dup1\n      0xf0b7db4e\n      eq\n      tag_26\n      jumpi\n      dup1\n      0xf2fde38b\n      eq\n      tag_27\n      jumpi\n      dup1\n      0xf479ef22\n      eq\n      tag_28\n      jumpi\n      dup1\n      0xfbec6f21\n      eq\n      tag_29\n      jumpi\n      jump(tag_2)\n    tag_32:\n      dup1\n      0xa7288c2e\n      eq\n      tag_23\n      jumpi\n      dup1\n      0xb8c9d25c\n      eq\n      tag_24\n      jumpi\n      dup1\n      0xbf8ebd85\n      eq\n      tag_25\n      jumpi\n      jump(tag_2)\n    tag_31:\n      dup1\n      0x76ed535a\n      gt\n      tag_33\n      jumpi\n      dup1\n      0x76ed535a\n      eq\n      tag_19\n      jumpi\n      dup1\n      0x84119666\n      eq\n      tag_20\n      jumpi\n      dup1\n      0x8bb8c68f\n      eq\n      tag_21\n      jumpi\n      dup1\n      0x8da5cb5b\n      eq\n      tag_22\n      jumpi\n      jump(tag_2)\n    tag_33:\n      dup1\n      0x4ea2813c\n      eq\n      tag_16\n      jumpi\n      dup1\n      0x6de5368b\n      eq\n      tag_17\n      jumpi\n      dup1\n      0x715018a6\n      eq\n      tag_18\n      jumpi\n      jump(tag_2)\n    tag_30:\n      dup1\n      0x10a5806a\n      gt\n      tag_34\n      jumpi\n      dup1\n      0x2540d8a7\n      gt\n      tag_35\n      jumpi\n      dup1\n      0x2540d8a7\n      eq\n      tag_12\n      jumpi\n      dup1\n      0x3445d381\n      eq\n      tag_13\n      jumpi\n      dup1\n      0x42632ee0\n      eq\n      tag_14\n      jumpi\n      dup1\n      0x49fd566b\n      eq\n      tag_15\n      jumpi\n      jump(tag_2)\n    tag_35:\n      dup1\n      0x10a5806a\n      eq\n      tag_9\n      jumpi\n      dup1\n      0x17d8b80c\n      eq\n      tag_10\n      jumpi\n      dup1\n      0x1fb5d3c2\n      eq\n      tag_11\n      jumpi\n      jump(tag_2)\n    tag_34:\n      dup1\n      0xc2378f\n      eq\n      tag_3\n      jumpi\n      dup1\n      0x0314214c\n      eq\n      tag_4\n      jumpi\n      dup1\n      0x0520b708\n      eq\n      tag_5\n      jumpi\n      dup1\n      0x0651823e\n      eq\n      tag_6\n      jumpi\n      dup1\n      0x0b75aa36\n      eq\n      tag_7\n      jumpi\n      dup1\n      0x0ed7b861\n      eq\n      tag_8\n      jumpi\n    tag_2:\n      0x00\n      dup1\n      revert\n        /* \"Launchpad v2.0/QubeBalance.sol\":1098:1143  mapping (address=>userNFTData) public userNFT */\n    tag_3:\n      tag_36\n      0x04\n      dup1\n      calldatasize\n      sub\n      dup2\n      add\n      swap1\n      tag_37\n      swap2\n      swap1\n      tag_38\n      jump\t// in\n    tag_37:\n      tag_39\n      jump\t// in\n    tag_36:\n      mload(0x40)\n      tag_40\n      swap3\n      swap2\n      swap1\n      tag_41\n      jump\t// in\n    tag_40:\n      mload(0x40)\n      dup1\n      swap2\n      sub\n      swap1\n      return\n        /* \"Launchpad v2.0/QubeBalance.sol\":1015:1037  IERC1155 public silver */\n    tag_4:\n      tag_42\n      tag_43\n      jump\t// in\n    tag_42:\n      mload(0x40)\n      tag_44\n      swap2\n      swap1\n      tag_45\n      jump\t// in\n    tag_44:\n      mload(0x40)\n      dup1\n      swap2\n      sub\n      swap1\n      return\n        /* \"Launchpad v2.0/QubeBalance.sol\":2200:2276  function setGold(IERC1155 _gold) public onlyOwner{... */\n    tag_5:\n      tag_46\n      0x04\n      dup1\n      calldatasize\n      sub\n      dup2\n      add\n      swap1\n      tag_47\n      swap2\n      swap1\n      tag_48\n      jump\t// in\n    tag_47:\n      tag_49\n      jump\t// in\n    tag_46:\n      stop\n        /* \"Launchpad v2.0/QubeBalance.sol\":1673:1747  function setQube(IBEP20 _qube) public onlyOwner{... */\n    tag_6:\n      tag_50\n      0x04\n      dup1\n      calldatasize\n      sub\n      dup2\n      add\n      swap1\n      tag_51\n      swap2\n      swap1\n      tag_52\n      jump\t// in\n    tag_51:\n      tag_53\n      jump\t// in\n    tag_50:\n      stop\n        /* \"Launchpad v2.0/QubeBalance.sol\":3910:4154  function qubeBalance(address walletAddress) public view returns (uint256){... */\n    tag_7:\n      tag_54\n      0x04\n      dup1\n      calldatasize\n      sub\n      dup2\n      add\n      swap1\n      tag_55\n      swap2\n      swap1\n      tag_38\n      jump\t// in\n    tag_55:\n      tag_56\n      jump\t// in\n    tag_54:\n      mload(0x40)\n      tag_57\n      swap2\n      swap1\n      tag_58\n      jump\t// in\n    tag_57:\n      mload(0x40)\n      dup1\n      swap2\n      sub\n      swap1\n      return\n        /* \"Launchpad v2.0/QubeBalance.sol\":1752:1859  function setQubePresale(QubePresale _qubePresale) public onlyOwner{... */\n    tag_8:\n      tag_59\n      0x04\n      dup1\n      calldatasize\n      sub\n      dup2\n      add\n      swap1\n      tag_60\n      swap2\n      swap1\n      tag_61\n      jump\t// in\n    tag_60:\n      tag_62\n      jump\t// in\n    tag_59:\n      stop\n        /* \"Launchpad v2.0/QubeBalance.sol\":896:926  QubePresale public qubePresale */\n    tag_9:\n      tag_63\n      tag_64\n      jump\t// in\n    tag_63:\n      mload(0x40)\n      tag_65\n      swap2\n      swap1\n      tag_66\n      jump\t// in\n    tag_65:\n      mload(0x40)\n      dup1\n      swap2\n      sub\n      swap1\n      return\n        /* \"Launchpad v2.0/QubeBalance.sol\":1981:2106  function setQubeStake(QubeStakeFactory _qubeStakeFactory) public onlyOwner{... */\n    tag_10:\n      tag_67\n      0x04\n      dup1\n      calldatasize\n      sub\n      dup2\n      add\n      swap1\n      tag_68\n      swap2\n      swap1\n      tag_69\n      jump\t// in\n    tag_68:\n      tag_70\n      jump\t// in\n    tag_67:\n      stop\n        /* \"Launchpad v2.0/QubeBalance.sol\":2508:2654  function getQubePresaleBalance(address walletAddress)public view returns (uint256){... */\n    tag_11:\n      tag_71\n      0x04\n      dup1\n      calldatasize\n      sub\n      dup2\n      add\n      swap1\n      tag_72\n      swap2\n      swap1\n      tag_38\n      jump\t// in\n    tag_72:\n      tag_73\n      jump\t// in\n    tag_71:\n      mload(0x40)\n      tag_74\n      swap2\n      swap1\n      tag_58\n      jump\t// in\n    tag_74:\n      mload(0x40)\n      dup1\n      swap2\n      sub\n      swap1\n      return\n        /* \"Launchpad v2.0/QubeBalance.sol\":3110:3457  function getQubeStakeFactoryBalance(address walletAddress)public view returns(uint256){... */\n    tag_12:\n      tag_75\n      0x04\n      dup1\n      calldatasize\n      sub\n      dup2\n      add\n      swap1\n      tag_76\n      swap2\n      swap1\n      tag_38\n      jump\t// in\n    tag_76:\n      tag_77\n      jump\t// in\n    tag_75:\n      mload(0x40)\n      tag_78\n      swap2\n      swap1\n      tag_58\n      jump\t// in\n    tag_78:\n      mload(0x40)\n      dup1\n      swap2\n      sub\n      swap1\n      return\n        /* \"Launchpad v2.0/QubeBalance.sol\":2375:2503  function getQubeBalance(address walletAddress)public view returns (uint256){... */\n    tag_13:\n      tag_79\n      0x04\n      dup1\n      calldatasize\n      sub\n      dup2\n      add\n      swap1\n      tag_80\n      swap2\n      swap1\n      tag_38\n      jump\t// in\n    tag_80:\n      tag_81\n      jump\t// in\n    tag_79:\n      mload(0x40)\n      tag_82\n      swap2\n      swap1\n      tag_58\n      jump\t// in\n    tag_82:\n      mload(0x40)\n      dup1\n      swap2\n      sub\n      swap1\n      return\n        /* \"Launchpad v2.0/QubeBalance.sol\":2659:3105  function getPancakePairBalance(address walletAddress)public view returns (uint256){... */\n    tag_14:\n      tag_83\n      0x04\n      dup1\n      calldatasize\n      sub\n      dup2\n      add\n      swap1\n      tag_84\n      swap2\n      swap1\n      tag_38\n      jump\t// in\n    tag_84:\n      tag_85\n      jump\t// in\n    tag_83:\n      mload(0x40)\n      tag_86\n      swap2\n      swap1\n      tag_58\n      jump\t// in\n    tag_86:\n      mload(0x40)\n      dup1\n      swap2\n      sub\n      swap1\n      return\n        /* \"Launchpad v2.0/QubeBalance.sol\":1184:1508  function removeNFT(address _user, uint256 _ID) public{... */\n    tag_15:\n      tag_87\n      0x04\n      dup1\n      calldatasize\n      sub\n      dup2\n      add\n      swap1\n      tag_88\n      swap2\n      swap1\n      tag_89\n      jump\t// in\n    tag_88:\n      tag_90\n      jump\t// in\n    tag_87:\n      stop\n        /* \"Launchpad v2.0/QubeBalance.sol\":1513:1667  function addNFT(address _user, uint256 _ID) public{... */\n    tag_16:\n      tag_91\n      0x04\n      dup1\n      calldatasize\n      sub\n      dup2\n      add\n      swap1\n      tag_92\n      swap2\n      swap1\n      tag_89\n      jump\t// in\n    tag_92:\n      tag_93\n      jump\t// in\n    tag_91:\n      stop\n        /* \"Launchpad v2.0/QubeBalance.sol\":872:890  IBEP20 public qube */\n    tag_17:\n      tag_94\n      tag_95\n      jump\t// in\n    tag_94:\n      mload(0x40)\n      tag_96\n      swap2\n      swap1\n      tag_97\n      jump\t// in\n    tag_96:\n      mload(0x40)\n      dup1\n      swap2\n      sub\n      swap1\n      return\n        /* \"Launchpad v2.0/Ownable.sol\":1612:1704  function renounceOwnership() public virtual onlyOwner {... */\n    tag_18:\n      tag_98\n      tag_99\n      jump\t// in\n    tag_98:\n      stop\n        /* \"Launchpad v2.0/QubeBalance.sol\":2281:2369  function setDiamond(IERC1155 _diamond) public onlyOwner{... */\n    tag_19:\n      tag_100\n      0x04\n      dup1\n      calldatasize\n      sub\n      dup2\n      add\n      swap1\n      tag_101\n      swap2\n      swap1\n      tag_48\n      jump\t// in\n    tag_101:\n      tag_102\n      jump\t// in\n    tag_100:\n      stop\n        /* \"Launchpad v2.0/QubeBalance.sol\":969:1009  QubeStakeFactory public qubeStakeFactory */\n    tag_20:\n      tag_103\n      tag_104\n      jump\t// in\n    tag_103:\n      mload(0x40)\n      tag_105\n      swap2\n      swap1\n      tag_106\n      jump\t// in\n    tag_105:\n      mload(0x40)\n      dup1\n      swap2\n      sub\n      swap1\n      return\n        /* \"Launchpad v2.0/QubeBalance.sol\":1864:1976  function setQubePancakePair(IPancakePair _pancakePair) public onlyOwner{... */\n    tag_21:\n      tag_107\n      0x04\n      dup1\n      calldatasize\n      sub\n      dup2\n      add\n      swap1\n      tag_108\n      swap2\n      swap1\n      tag_109\n      jump\t// in\n    tag_108:\n      tag_110\n      jump\t// in\n    tag_107:\n      stop\n        /* \"Launchpad v2.0/Ownable.sol\":980:1065  function owner() public view virtual returns (address) {... */\n    tag_22:\n      tag_111\n      tag_112\n      jump\t// in\n    tag_111:\n      mload(0x40)\n      tag_113\n      swap2\n      swap1\n      tag_114\n      jump\t// in\n    tag_113:\n      mload(0x40)\n      dup1\n      swap2\n      sub\n      swap1\n      return\n        /* \"Launchpad v2.0/QubeBalance.sol\":4159:4439  function qubeBalanceWithNFT(address walletAddress) public view returns (uint256){... */\n    tag_23:\n      tag_115\n      0x04\n      dup1\n      calldatasize\n      sub\n      dup2\n      add\n      swap1\n      tag_116\n      swap2\n      swap1\n      tag_38\n      jump\t// in\n    tag_116:\n      tag_117\n      jump\t// in\n    tag_115:\n      mload(0x40)\n      tag_118\n      swap2\n      swap1\n      tag_58\n      jump\t// in\n    tag_118:\n      mload(0x40)\n      dup1\n      swap2\n      sub\n      swap1\n      return\n        /* \"Launchpad v2.0/QubeBalance.sol\":932:963  IPancakePair public pancakePair */\n    tag_24:\n      tag_119\n      tag_120\n      jump\t// in\n    tag_119:\n      mload(0x40)\n      tag_121\n      swap2\n      swap1\n      tag_122\n      jump\t// in\n    tag_121:\n      mload(0x40)\n      dup1\n      swap2\n      sub\n      swap1\n      return\n        /* \"Launchpad v2.0/QubeBalance.sol\":3462:3900  function getNFTBalance(address walletAddress)public view returns (uint256){... */\n    tag_25:\n      tag_123\n      0x04\n      dup1\n      calldatasize\n      sub\n      dup2\n      add\n      swap1\n      tag_124\n      swap2\n      swap1\n      tag_38\n      jump\t// in\n    tag_124:\n      tag_125\n      jump\t// in\n    tag_123:\n      mload(0x40)\n      tag_126\n      swap2\n      swap1\n      tag_58\n      jump\t// in\n    tag_126:\n      mload(0x40)\n      dup1\n      swap2\n      sub\n      swap1\n      return\n        /* \"Launchpad v2.0/QubeBalance.sol\":1069:1092  IERC1155 public diamond */\n    tag_26:\n      tag_127\n      tag_128\n      jump\t// in\n    tag_127:\n      mload(0x40)\n      tag_129\n      swap2\n      swap1\n      tag_45\n      jump\t// in\n    tag_129:\n      mload(0x40)\n      dup1\n      swap2\n      sub\n      swap1\n      return\n        /* \"Launchpad v2.0/Ownable.sol\":1853:2042  function transferOwnership(address newOwner) public virtual onlyOwner {... */\n    tag_27:\n      tag_130\n      0x04\n      dup1\n      calldatasize\n      sub\n      dup2\n      add\n      swap1\n      tag_131\n      swap2\n      swap1\n      tag_38\n      jump\t// in\n    tag_131:\n      tag_132\n      jump\t// in\n    tag_130:\n      stop\n        /* \"Launchpad v2.0/QubeBalance.sol\":2111:2195  function setSilver(IERC1155 _silver) public onlyOwner{... */\n    tag_28:\n      tag_133\n      0x04\n      dup1\n      calldatasize\n      sub\n      dup2\n      add\n      swap1\n      tag_134\n      swap2\n      swap1\n      tag_48\n      jump\t// in\n    tag_134:\n      tag_135\n      jump\t// in\n    tag_133:\n      stop\n        /* \"Launchpad v2.0/QubeBalance.sol\":1043:1063  IERC1155 public gold */\n    tag_29:\n      tag_136\n      tag_137\n      jump\t// in\n    tag_136:\n      mload(0x40)\n      tag_138\n      swap2\n      swap1\n      tag_45\n      jump\t// in\n    tag_138:\n      mload(0x40)\n      dup1\n      swap2\n      sub\n      swap1\n      return\n        /* \"Launchpad v2.0/QubeBalance.sol\":1098:1143  mapping (address=>userNFTData) public userNFT */\n    tag_39:\n      mstore(0x20, 0x08)\n      dup1\n      0x00\n      mstore\n      keccak256(0x00, 0x40)\n      0x00\n      swap2\n      pop\n      swap1\n      pop\n      dup1\n      0x00\n      add\n      sload\n      swap1\n      dup1\n      0x02\n      add\n      sload\n      swap1\n      pop\n      dup3\n      jump\t// out\n        /* \"Launchpad v2.0/QubeBalance.sol\":1015:1037  IERC1155 public silver */\n    tag_43:\n      0x05\n      0x00\n      swap1\n      sload\n      swap1\n      0x0100\n      exp\n      swap1\n      div\n      0xffffffffffffffffffffffffffffffffffffffff\n      and\n      dup2\n      jump\t// out\n        /* \"Launchpad v2.0/QubeBalance.sol\":2200:2276  function setGold(IERC1155 _gold) public onlyOwner{... */\n    tag_49:\n        /* \"Launchpad v2.0/Ownable.sol\":1203:1215  _msgSender() */\n      tag_140\n        /* \"Launchpad v2.0/Ownable.sol\":1203:1213  _msgSender */\n      tag_141\n        /* \"Launchpad v2.0/Ownable.sol\":1203:1215  _msgSender() */\n      jump\t// in\n    tag_140:\n        /* \"Launchpad v2.0/Ownable.sol\":1192:1215  owner() == _msgSender() */\n      0xffffffffffffffffffffffffffffffffffffffff\n      and\n        /* \"Launchpad v2.0/Ownable.sol\":1192:1199  owner() */\n      tag_142\n        /* \"Launchpad v2.0/Ownable.sol\":1192:1197  owner */\n      tag_112\n        /* \"Launchpad v2.0/Ownable.sol\":1192:1199  owner() */\n      jump\t// in\n    tag_142:\n        /* \"Launchpad v2.0/Ownable.sol\":1192:1215  owner() == _msgSender() */\n      0xffffffffffffffffffffffffffffffffffffffff\n      and\n      eq\n        /* \"Launchpad v2.0/Ownable.sol\":1184:1252  require(owner() == _msgSender(), \"Ownable: caller is not the owner\") */\n      tag_143\n      jumpi\n      mload(0x40)\n      0x08c379a000000000000000000000000000000000000000000000000000000000\n      dup2\n      mstore\n      0x04\n      add\n      tag_144\n      swap1\n      tag_145\n      jump\t// in\n    tag_144:\n      mload(0x40)\n      dup1\n      swap2\n      sub\n      swap1\n      revert\n    tag_143:\n        /* \"Launchpad v2.0/QubeBalance.sol\":2264:2269  _gold */\n      dup1\n        /* \"Launchpad v2.0/QubeBalance.sol\":2259:2263  gold */\n      0x06\n      0x00\n        /* \"Launchpad v2.0/QubeBalance.sol\":2259:2269  gold=_gold */\n      0x0100\n      exp\n      dup2\n      sload\n      dup2\n      0xffffffffffffffffffffffffffffffffffffffff\n      mul\n      not\n      and\n      swap1\n      dup4\n      0xffffffffffffffffffffffffffffffffffffffff\n      and\n      mul\n      or\n      swap1\n      sstore\n      pop\n        /* \"Launchpad v2.0/QubeBalance.sol\":2200:2276  function setGold(IERC1155 _gold) public onlyOwner{... */\n      pop\n      jump\t// out\n        /* \"Launchpad v2.0/QubeBalance.sol\":1673:1747  function setQube(IBEP20 _qube) public onlyOwner{... */\n    tag_53:\n        /* \"Launchpad v2.0/Ownable.sol\":1203:1215  _msgSender() */\n      tag_148\n        /* \"Launchpad v2.0/Ownable.sol\":1203:1213  _msgSender */\n      tag_141\n        /* \"Launchpad v2.0/Ownable.sol\":1203:1215  _msgSender() */\n      jump\t// in\n    tag_148:\n        /* \"Launchpad v2.0/Ownable.sol\":1192:1215  owner() == _msgSender() */\n      0xffffffffffffffffffffffffffffffffffffffff\n      and\n        /* \"Launchpad v2.0/Ownable.sol\":1192:1199  owner() */\n      tag_149\n        /* \"Launchpad v2.0/Ownable.sol\":1192:1197  owner */\n      tag_112\n        /* \"Launchpad v2.0/Ownable.sol\":1192:1199  owner() */\n      jump\t// in\n    tag_149:\n        /* \"Launchpad v2.0/Ownable.sol\":1192:1215  owner() == _msgSender() */\n      0xffffffffffffffffffffffffffffffffffffffff\n      and\n      eq\n        /* \"Launchpad v2.0/Ownable.sol\":1184:1252  require(owner() == _msgSender(), \"Ownable: caller is not the owner\") */\n      tag_150\n      jumpi\n      mload(0x40)\n      0x08c379a000000000000000000000000000000000000000000000000000000000\n      dup2\n      mstore\n      0x04\n      add\n      tag_151\n      swap1\n      tag_145\n      jump\t// in\n    tag_151:\n      mload(0x40)\n      dup1\n      swap2\n      sub\n      swap1\n      revert\n    tag_150:\n        /* \"Launchpad v2.0/QubeBalance.sol\":1735:1740  _qube */\n      dup1\n        /* \"Launchpad v2.0/QubeBalance.sol\":1730:1734  qube */\n      0x01\n      0x00\n        /* \"Launchpad v2.0/QubeBalance.sol\":1730:1740  qube=_qube */\n      0x0100\n      exp\n      dup2\n      sload\n      dup2\n      0xffffffffffffffffffffffffffffffffffffffff\n      mul\n      not\n      and\n      swap1\n      dup4\n      0xffffffffffffffffffffffffffffffffffffffff\n      and\n      mul\n      or\n      swap1\n      sstore\n      pop\n        /* \"Launchpad v2.0/QubeBalance.sol\":1673:1747  function setQube(IBEP20 _qube) public onlyOwner{... */\n      pop\n      jump\t// out\n        /* \"Launchpad v2.0/QubeBalance.sol\":3910:4154  function qubeBalance(address walletAddress) public view returns (uint256){... */\n    tag_56:\n        /* \"Launchpad v2.0/QubeBalance.sol\":3975:3982  uint256 */\n      0x00\n        /* \"Launchpad v2.0/QubeBalance.sol\":4106:4147  getQubeStakeFactoryBalance(walletAddress) */\n      tag_154\n        /* \"Launchpad v2.0/QubeBalance.sol\":4133:4146  walletAddress */\n      dup3\n        /* \"Launchpad v2.0/QubeBalance.sol\":4106:4132  getQubeStakeFactoryBalance */\n      tag_77\n        /* \"Launchpad v2.0/QubeBalance.sol\":4106:4147  getQubeStakeFactoryBalance(walletAddress) */\n      jump\t// in\n    tag_154:\n        /* \"Launchpad v2.0/QubeBalance.sol\":4069:4105  getPancakePairBalance(walletAddress) */\n      tag_155\n        /* \"Launchpad v2.0/QubeBalance.sol\":4091:4104  walletAddress */\n      dup4\n        /* \"Launchpad v2.0/QubeBalance.sol\":4069:4090  getPancakePairBalance */\n      tag_85\n        /* \"Launchpad v2.0/QubeBalance.sol\":4069:4105  getPancakePairBalance(walletAddress) */\n      jump\t// in\n    tag_155:\n        /* \"Launchpad v2.0/QubeBalance.sol\":4032:4068  getQubePresaleBalance(walletAddress) */\n      tag_156\n        /* \"Launchpad v2.0/QubeBalance.sol\":4054:4067  walletAddress */\n      dup5\n        /* \"Launchpad v2.0/QubeBalance.sol\":4032:4053  getQubePresaleBalance */\n      tag_73\n        /* \"Launchpad v2.0/QubeBalance.sol\":4032:4068  getQubePresaleBalance(walletAddress) */\n      jump\t// in\n    tag_156:\n        /* \"Launchpad v2.0/QubeBalance.sol\":4000:4029  getQubeBalance(walletAddress) */\n      tag_157\n        /* \"Launchpad v2.0/QubeBalance.sol\":4015:4028  walletAddress */\n      dup6\n        /* \"Launchpad v2.0/QubeBalance.sol\":4000:4014  getQubeBalance */\n      tag_81\n        /* \"Launchpad v2.0/QubeBalance.sol\":4000:4029  getQubeBalance(walletAddress) */\n      jump\t// in\n    tag_157:\n        /* \"Launchpad v2.0/QubeBalance.sol\":4000:4068  getQubeBalance(walletAddress) + getQubePresaleBalance(walletAddress) */\n      tag_158\n      swap2\n      swap1\n      tag_159\n      jump\t// in\n    tag_158:\n        /* \"Launchpad v2.0/QubeBalance.sol\":4000:4105  getQubeBalance(walletAddress) + getQubePresaleBalance(walletAddress)+getPancakePairBalance(walletAddress) */\n      tag_160\n      swap2\n      swap1\n      tag_159\n      jump\t// in\n    tag_160:\n        /* \"Launchpad v2.0/QubeBalance.sol\":4000:4147  getQubeBalance(walletAddress) + getQubePresaleBalance(walletAddress)+getPancakePairBalance(walletAddress)+getQubeStakeFactoryBalance(walletAddress) */\n      tag_161\n      swap2\n      swap1\n      tag_159\n      jump\t// in\n    tag_161:\n        /* \"Launchpad v2.0/QubeBalance.sol\":3993:4147  return getQubeBalance(walletAddress) + getQubePresaleBalance(walletAddress)+getPancakePairBalance(walletAddress)+getQubeStakeFactoryBalance(walletAddress) */\n      swap1\n      pop\n        /* \"Launchpad v2.0/QubeBalance.sol\":3910:4154  function qubeBalance(address walletAddress) public view returns (uint256){... */\n      swap2\n      swap1\n      pop\n      jump\t// out\n        /* \"Launchpad v2.0/QubeBalance.sol\":1752:1859  function setQubePresale(QubePresale _qubePresale) public onlyOwner{... */\n    tag_62:\n        /* \"Launchpad v2.0/Ownable.sol\":1203:1215  _msgSender() */\n      tag_163\n        /* \"Launchpad v2.0/Ownable.sol\":1203:1213  _msgSender */\n      tag_141\n        /* \"Launchpad v2.0/Ownable.sol\":1203:1215  _msgSender() */\n      jump\t// in\n    tag_163:\n        /* \"Launchpad v2.0/Ownable.sol\":1192:1215  owner() == _msgSender() */\n      0xffffffffffffffffffffffffffffffffffffffff\n      and\n        /* \"Launchpad v2.0/Ownable.sol\":1192:1199  owner() */\n      tag_164\n        /* \"Launchpad v2.0/Ownable.sol\":1192:1197  owner */\n      tag_112\n        /* \"Launchpad v2.0/Ownable.sol\":1192:1199  owner() */\n      jump\t// in\n    tag_164:\n        /* \"Launchpad v2.0/Ownable.sol\":1192:1215  owner() == _msgSender() */\n      0xffffffffffffffffffffffffffffffffffffffff\n      and\n      eq\n        /* \"Launchpad v2.0/Ownable.sol\":1184:1252  require(owner() == _msgSender(), \"Ownable: caller is not the owner\") */\n      tag_165\n      jumpi\n      mload(0x40)\n      0x08c379a000000000000000000000000000000000000000000000000000000000\n      dup2\n      mstore\n      0x04\n      add\n      tag_166\n      swap1\n      tag_145\n      jump\t// in\n    tag_166:\n      mload(0x40)\n      dup1\n      swap2\n      sub\n      swap1\n      revert\n    tag_165:\n        /* \"Launchpad v2.0/QubeBalance.sol\":1840:1852  _qubePresale */\n      dup1\n        /* \"Launchpad v2.0/QubeBalance.sol\":1828:1839  qubePresale */\n      0x02\n      0x00\n        /* \"Launchpad v2.0/QubeBalance.sol\":1828:1852  qubePresale=_qubePresale */\n      0x0100\n      exp\n      dup2\n      sload\n      dup2\n      0xffffffffffffffffffffffffffffffffffffffff\n      mul\n      not\n      and\n      swap1\n      dup4\n      0xffffffffffffffffffffffffffffffffffffffff\n      and\n      mul\n      or\n      swap1\n      sstore\n      pop\n        /* \"Launchpad v2.0/QubeBalance.sol\":1752:1859  function setQubePresale(QubePresale _qubePresale) public onlyOwner{... */\n      pop\n      jump\t// out\n        /* \"Launchpad v2.0/QubeBalance.sol\":896:926  QubePresale public qubePresale */\n    tag_64:\n      0x02\n      0x00\n      swap1\n      sload\n      swap1\n      0x0100\n      exp\n      swap1\n      div\n      0xffffffffffffffffffffffffffffffffffffffff\n      and\n      dup2\n      jump\t// out\n        /* \"Launchpad v2.0/QubeBalance.sol\":1981:2106  function setQubeStake(QubeStakeFactory _qubeStakeFactory) public onlyOwner{... */\n    tag_70:\n        /* \"Launchpad v2.0/Ownable.sol\":1203:1215  _msgSender() */\n      tag_169\n        /* \"Launchpad v2.0/Ownable.sol\":1203:1213  _msgSender */\n      tag_141\n        /* \"Launchpad v2.0/Ownable.sol\":1203:1215  _msgSender() */\n      jump\t// in\n    tag_169:\n        /* \"Launchpad v2.0/Ownable.sol\":1192:1215  owner() == _msgSender() */\n      0xffffffffffffffffffffffffffffffffffffffff\n      and\n        /* \"Launchpad v2.0/Ownable.sol\":1192:1199  owner() */\n      tag_170\n        /* \"Launchpad v2.0/Ownable.sol\":1192:1197  owner */\n      tag_112\n        /* \"Launchpad v2.0/Ownable.sol\":1192:1199  owner() */\n      jump\t// in\n    tag_170:\n        /* \"Launchpad v2.0/Ownable.sol\":1192:1215  owner() == _msgSender() */\n      0xffffffffffffffffffffffffffffffffffffffff\n      and\n      eq\n        /* \"Launchpad v2.0/Ownable.sol\":1184:1252  require(owner() == _msgSender(), \"Ownable: caller is not the owner\") */\n      tag_171\n      jumpi\n      mload(0x40)\n      0x08c379a000000000000000000000000000000000000000000000000000000000\n      dup2\n      mstore\n      0x04\n      add\n      tag_172\n      swap1\n      tag_145\n      jump\t// in\n    tag_172:\n      mload(0x40)\n      dup1\n      swap2\n      sub\n      swap1\n      revert\n    tag_171:\n        /* \"Launchpad v2.0/QubeBalance.sol\":2082:2099  _qubeStakeFactory */\n      dup1\n        /* \"Launchpad v2.0/QubeBalance.sol\":2065:2081  qubeStakeFactory */\n      0x04\n      0x00\n        /* \"Launchpad v2.0/QubeBalance.sol\":2065:2099  qubeStakeFactory=_qubeStakeFactory */\n      0x0100\n      exp\n      dup2\n      sload\n      dup2\n      0xffffffffffffffffffffffffffffffffffffffff\n      mul\n      not\n      and\n      swap1\n      dup4\n      0xffffffffffffffffffffffffffffffffffffffff\n      and\n      mul\n      or\n      swap1\n      sstore\n      pop\n        /* \"Launchpad v2.0/QubeBalance.sol\":1981:2106  function setQubeStake(QubeStakeFactory _qubeStakeFactory) public onlyOwner{... */\n      pop\n      jump\t// out\n        /* \"Launchpad v2.0/QubeBalance.sol\":2508:2654  function getQubePresaleBalance(address walletAddress)public view returns (uint256){... */\n    tag_73:\n        /* \"Launchpad v2.0/QubeBalance.sol\":2582:2589  uint256 */\n      0x00\n        /* \"Launchpad v2.0/QubeBalance.sol\":2607:2618  qubePresale */\n      0x02\n      0x00\n      swap1\n      sload\n      swap1\n      0x0100\n      exp\n      swap1\n      div\n      0xffffffffffffffffffffffffffffffffffffffff\n      and\n        /* \"Launchpad v2.0/QubeBalance.sol\":2607:2632  qubePresale.qubeBalanceOf */\n      0xffffffffffffffffffffffffffffffffffffffff\n      and\n      0xc5d63d0a\n        /* \"Launchpad v2.0/QubeBalance.sol\":2633:2646  walletAddress */\n      dup4\n        /* \"Launchpad v2.0/QubeBalance.sol\":2607:2647  qubePresale.qubeBalanceOf(walletAddress) */\n      mload(0x40)\n      dup3\n      0xffffffff\n      and\n      0xe0\n      shl\n      dup2\n      mstore\n      0x04\n      add\n      tag_175\n      swap2\n      swap1\n      tag_114\n      jump\t// in\n    tag_175:\n      0x20\n      mload(0x40)\n      dup1\n      dup4\n      sub\n      dup2\n      dup7\n      dup1\n      extcodesize\n      iszero\n      dup1\n      iszero\n      tag_176\n      jumpi\n      0x00\n      dup1\n      revert\n    tag_176:\n      pop\n      gas\n      staticcall\n      iszero\n      dup1\n      iszero\n      tag_178\n      jumpi\n      returndatasize\n      0x00\n      dup1\n      returndatacopy\n      revert(0x00, returndatasize)\n    tag_178:\n      pop\n      pop\n      pop\n      pop\n      mload(0x40)\n      returndatasize\n      not(0x1f)\n      0x1f\n      dup3\n      add\n      and\n      dup3\n      add\n      dup1\n      0x40\n      mstore\n      pop\n      dup2\n      add\n      swap1\n      tag_179\n      swap2\n      swap1\n      tag_180\n      jump\t// in\n    tag_179:\n        /* \"Launchpad v2.0/QubeBalance.sol\":2600:2647  return qubePresale.qubeBalanceOf(walletAddress) */\n      swap1\n      pop\n        /* \"Launchpad v2.0/QubeBalance.sol\":2508:2654  function getQubePresaleBalance(address walletAddress)public view returns (uint256){... */\n      swap2\n      swap1\n      pop\n      jump\t// out\n        /* \"Launchpad v2.0/QubeBalance.sol\":3110:3457  function getQubeStakeFactoryBalance(address walletAddress)public view returns(uint256){... */\n    tag_77:\n        /* \"Launchpad v2.0/QubeBalance.sol\":3188:3195  uint256 */\n      0x00\n        /* \"Launchpad v2.0/QubeBalance.sol\":3206:3222  uint256 _balance */\n      dup1\n        /* \"Launchpad v2.0/QubeBalance.sol\":3232:3256  uint256[] memory tickets */\n      0x00\n        /* \"Launchpad v2.0/QubeBalance.sol\":3259:3275  qubeStakeFactory */\n      0x04\n      0x00\n      swap1\n      sload\n      swap1\n      0x0100\n      exp\n      swap1\n      div\n      0xffffffffffffffffffffffffffffffffffffffff\n      and\n        /* \"Launchpad v2.0/QubeBalance.sol\":3259:3287  qubeStakeFactory.userTickets */\n      0xffffffffffffffffffffffffffffffffffffffff\n      and\n      0x80017f4e\n        /* \"Launchpad v2.0/QubeBalance.sol\":3288:3301  walletAddress */\n      dup6\n        /* \"Launchpad v2.0/QubeBalance.sol\":3259:3302  qubeStakeFactory.userTickets(walletAddress) */\n      mload(0x40)\n      dup3\n      0xffffffff\n      and\n      0xe0\n      shl\n      dup2\n      mstore\n      0x04\n      add\n      tag_182\n      swap2\n      swap1\n      tag_114\n      jump\t// in\n    tag_182:\n      0x00\n      mload(0x40)\n      dup1\n      dup4\n      sub\n      dup2\n      dup7\n      dup1\n      extcodesize\n      iszero\n      dup1\n      iszero\n      tag_183\n      jumpi\n      0x00\n      dup1\n      revert\n    tag_183:\n      pop\n      gas\n      staticcall\n      iszero\n      dup1\n      iszero\n      tag_185\n      jumpi\n      returndatasize\n      0x00\n      dup1\n      returndatacopy\n      revert(0x00, returndatasize)\n    tag_185:\n      pop\n      pop\n      pop\n      pop\n      mload(0x40)\n      returndatasize\n      0x00\n      dup3\n      returndatacopy\n      returndatasize\n      not(0x1f)\n      0x1f\n      dup3\n      add\n      and\n      dup3\n      add\n      dup1\n      0x40\n      mstore\n      pop\n      dup2\n      add\n      swap1\n      tag_186\n      swap2\n      swap1\n      tag_187\n      jump\t// in\n    tag_186:\n        /* \"Launchpad v2.0/QubeBalance.sol\":3232:3302  uint256[] memory tickets = qubeStakeFactory.userTickets(walletAddress) */\n      swap1\n      pop\n        /* \"Launchpad v2.0/QubeBalance.sol\":3318:3324  uint i */\n      0x00\n        /* \"Launchpad v2.0/QubeBalance.sol\":3313:3426  for (uint i=0; i<tickets.length; i++){... */\n    tag_188:\n        /* \"Launchpad v2.0/QubeBalance.sol\":3330:3337  tickets */\n      dup2\n        /* \"Launchpad v2.0/QubeBalance.sol\":3330:3344  tickets.length */\n      mload\n        /* \"Launchpad v2.0/QubeBalance.sol\":3328:3329  i */\n      dup2\n        /* \"Launchpad v2.0/QubeBalance.sol\":3328:3344  i<tickets.length */\n      lt\n        /* \"Launchpad v2.0/QubeBalance.sol\":3313:3426  for (uint i=0; i<tickets.length; i++){... */\n      iszero\n      tag_189\n      jumpi\n        /* \"Launchpad v2.0/QubeBalance.sol\":3375:3391  qubeStakeFactory */\n      0x04\n      0x00\n      swap1\n      sload\n      swap1\n      0x0100\n      exp\n      swap1\n      div\n      0xffffffffffffffffffffffffffffffffffffffff\n      and\n        /* \"Launchpad v2.0/QubeBalance.sol\":3375:3400  qubeStakeFactory.userInfo */\n      0xffffffffffffffffffffffffffffffffffffffff\n      and\n      0x51d70bc4\n        /* \"Launchpad v2.0/QubeBalance.sol\":3401:3402  i */\n      dup3\n        /* \"Launchpad v2.0/QubeBalance.sol\":3375:3403  qubeStakeFactory.userInfo(i) */\n      mload(0x40)\n      dup3\n      0xffffffff\n      and\n      0xe0\n      shl\n      dup2\n      mstore\n      0x04\n      add\n      tag_191\n      swap2\n      swap1\n      tag_58\n      jump\t// in\n    tag_191:\n      0xc0\n      mload(0x40)\n      dup1\n      dup4\n      sub\n      dup2\n      dup7\n      dup1\n      extcodesize\n      iszero\n      dup1\n      iszero\n      tag_192\n      jumpi\n      0x00\n      dup1\n      revert\n    tag_192:\n      pop\n      gas\n      staticcall\n      iszero\n      dup1\n      iszero\n      tag_194\n      jumpi\n      returndatasize\n      0x00\n      dup1\n      returndatacopy\n      revert(0x00, returndatasize)\n    tag_194:\n      pop\n      pop\n      pop\n      pop\n      mload(0x40)\n      returndatasize\n      not(0x1f)\n      0x1f\n      dup3\n      add\n      and\n      dup3\n      add\n      dup1\n      0x40\n      mstore\n      pop\n      dup2\n      add\n      swap1\n      tag_195\n      swap2\n      swap1\n      tag_196\n      jump\t// in\n    tag_195:\n        /* \"Launchpad v2.0/QubeBalance.sol\":3375:3415  qubeStakeFactory.userInfo(i).stakeAmount */\n      0x80\n      add\n      mload\n        /* \"Launchpad v2.0/QubeBalance.sol\":3364:3415  _balance+= qubeStakeFactory.userInfo(i).stakeAmount */\n      dup4\n      tag_197\n      swap2\n      swap1\n      tag_159\n      jump\t// in\n    tag_197:\n      swap3\n      pop\n        /* \"Launchpad v2.0/QubeBalance.sol\":3346:3349  i++ */\n      dup1\n      dup1\n      tag_198\n      swap1\n      tag_199\n      jump\t// in\n    tag_198:\n      swap2\n      pop\n      pop\n        /* \"Launchpad v2.0/QubeBalance.sol\":3313:3426  for (uint i=0; i<tickets.length; i++){... */\n      jump(tag_188)\n    tag_189:\n      pop\n        /* \"Launchpad v2.0/QubeBalance.sol\":3442:3450  _balance */\n      dup2\n        /* \"Launchpad v2.0/QubeBalance.sol\":3435:3450  return _balance */\n      swap3\n      pop\n      pop\n      pop\n        /* \"Launchpad v2.0/QubeBalance.sol\":3110:3457  function getQubeStakeFactoryBalance(address walletAddress)public view returns(uint256){... */\n      swap2\n      swap1\n      pop\n      jump\t// out\n        /* \"Launchpad v2.0/QubeBalance.sol\":2375:2503  function getQubeBalance(address walletAddress)public view returns (uint256){... */\n    tag_81:\n        /* \"Launchpad v2.0/QubeBalance.sol\":2442:2449  uint256 */\n      0x00\n        /* \"Launchpad v2.0/QubeBalance.sol\":2467:2471  qube */\n      0x01\n      0x00\n      swap1\n      sload\n      swap1\n      0x0100\n      exp\n      swap1\n      div\n      0xffffffffffffffffffffffffffffffffffffffff\n      and\n        /* \"Launchpad v2.0/QubeBalance.sol\":2467:2481  qube.balanceOf */\n      0xffffffffffffffffffffffffffffffffffffffff\n      and\n      0x70a08231\n        /* \"Launchpad v2.0/QubeBalance.sol\":2482:2495  walletAddress */\n      dup4\n        /* \"Launchpad v2.0/QubeBalance.sol\":2467:2496  qube.balanceOf(walletAddress) */\n      mload(0x40)\n      dup3\n      0xffffffff\n      and\n      0xe0\n      shl\n      dup2\n      mstore\n      0x04\n      add\n      tag_201\n      swap2\n      swap1\n      tag_114\n      jump\t// in\n    tag_201:\n      0x20\n      mload(0x40)\n      dup1\n      dup4\n      sub\n      dup2\n      dup7\n      dup1\n      extcodesize\n      iszero\n      dup1\n      iszero\n      tag_202\n      jumpi\n      0x00\n      dup1\n      revert\n    tag_202:\n      pop\n      gas\n      staticcall\n      iszero\n      dup1\n      iszero\n      tag_204\n      jumpi\n      returndatasize\n      0x00\n      dup1\n      returndatacopy\n      revert(0x00, returndatasize)\n    tag_204:\n      pop\n      pop\n      pop\n      pop\n      mload(0x40)\n      returndatasize\n      not(0x1f)\n      0x1f\n      dup3\n      add\n      and\n      dup3\n      add\n      dup1\n      0x40\n      mstore\n      pop\n      dup2\n      add\n      swap1\n      tag_205\n      swap2\n      swap1\n      tag_180\n      jump\t// in\n    tag_205:\n        /* \"Launchpad v2.0/QubeBalance.sol\":2460:2496  return qube.balanceOf(walletAddress) */\n      swap1\n      pop\n        /* \"Launchpad v2.0/QubeBalance.sol\":2375:2503  function getQubeBalance(address walletAddress)public view returns (uint256){... */\n      swap2\n      swap1\n      pop\n      jump\t// out\n        /* \"Launchpad v2.0/QubeBalance.sol\":2659:3105  function getPancakePairBalance(address walletAddress)public view returns (uint256){... */\n    tag_85:\n        /* \"Launchpad v2.0/QubeBalance.sol\":2733:2740  uint256 */\n      0x00\n        /* \"Launchpad v2.0/QubeBalance.sol\":2751:2771  uint112 _qubeBalance */\n      dup1\n        /* \"Launchpad v2.0/QubeBalance.sol\":2781:2801  uint112 _USDTBalance */\n      0x00\n        /* \"Launchpad v2.0/QubeBalance.sol\":2811:2837  uint32 _blockTimestampLast */\n      dup1\n        /* \"Launchpad v2.0/QubeBalance.sol\":2899:2910  pancakePair */\n      0x03\n      0x00\n      swap1\n      sload\n      swap1\n      0x0100\n      exp\n      swap1\n      div\n      0xffffffffffffffffffffffffffffffffffffffff\n      and\n        /* \"Launchpad v2.0/QubeBalance.sol\":2899:2922  pancakePair.getReserves */\n      0xffffffffffffffffffffffffffffffffffffffff\n      and\n      0x0902f1ac\n        /* \"Launchpad v2.0/QubeBalance.sol\":2899:2924  pancakePair.getReserves() */\n      mload(0x40)\n      dup2\n      0xffffffff\n      and\n      0xe0\n      shl\n      dup2\n      mstore\n      0x04\n      add\n      0x60\n      mload(0x40)\n      dup1\n      dup4\n      sub\n      dup2\n      dup7\n      dup1\n      extcodesize\n      iszero\n      dup1\n      iszero\n      tag_207\n      jumpi\n      0x00\n      dup1\n      revert\n    tag_207:\n      pop\n      gas\n      staticcall\n      iszero\n      dup1\n      iszero\n      tag_209\n      jumpi\n      returndatasize\n      0x00\n      dup1\n      returndatacopy\n      revert(0x00, returndatasize)\n    tag_209:\n      pop\n      pop\n      pop\n      pop\n      mload(0x40)\n      returndatasize\n      not(0x1f)\n      0x1f\n      dup3\n      add\n      and\n      dup3\n      add\n      dup1\n      0x40\n      mstore\n      pop\n      dup2\n      add\n      swap1\n      tag_210\n      swap2\n      swap1\n      tag_211\n      jump\t// in\n    tag_210:\n        /* \"Launchpad v2.0/QubeBalance.sol\":2847:2924  (_qubeBalance, _USDTBalance, _blockTimestampLast) = pancakePair.getReserves() */\n      dup1\n      swap4\n      pop\n      dup2\n      swap5\n      pop\n      dup3\n      swap6\n      pop\n      pop\n      pop\n      pop\n        /* \"Launchpad v2.0/QubeBalance.sol\":2935:2946  uint256 _LP */\n      0x00\n        /* \"Launchpad v2.0/QubeBalance.sol\":2949:2997  uint256(_qubeBalance).div(uint256(_USDTBalance)) */\n      tag_212\n        /* \"Launchpad v2.0/QubeBalance.sol\":2983:2995  _USDTBalance */\n      dup4\n        /* \"Launchpad v2.0/QubeBalance.sol\":2975:2996  uint256(_USDTBalance) */\n      0xffffffffffffffffffffffffffff\n      and\n        /* \"Launchpad v2.0/QubeBalance.sol\":2957:2969  _qubeBalance */\n      dup6\n        /* \"Launchpad v2.0/QubeBalance.sol\":2949:2970  uint256(_qubeBalance) */\n      0xffffffffffffffffffffffffffff\n      and\n        /* \"Launchpad v2.0/QubeBalance.sol\":2949:2974  uint256(_qubeBalance).div */\n      tag_213\n      swap1\n        /* \"Launchpad v2.0/QubeBalance.sol\":2949:2997  uint256(_qubeBalance).div(uint256(_USDTBalance)) */\n      swap2\n      swap1\n      0xffffffff\n      and\n      jump\t// in\n    tag_212:\n        /* \"Launchpad v2.0/QubeBalance.sol\":2935:2997  uint256 _LP = uint256(_qubeBalance).div(uint256(_USDTBalance)) */\n      swap1\n      pop\n        /* \"Launchpad v2.0/QubeBalance.sol\":3007:3025  uint256 _balanceOf */\n      0x00\n        /* \"Launchpad v2.0/QubeBalance.sol\":3026:3037  pancakePair */\n      0x03\n      0x00\n      swap1\n      sload\n      swap1\n      0x0100\n      exp\n      swap1\n      div\n      0xffffffffffffffffffffffffffffffffffffffff\n      and\n        /* \"Launchpad v2.0/QubeBalance.sol\":3026:3047  pancakePair.balanceOf */\n      0xffffffffffffffffffffffffffffffffffffffff\n      and\n      0x70a08231\n        /* \"Launchpad v2.0/QubeBalance.sol\":3048:3061  walletAddress */\n      dup9\n        /* \"Launchpad v2.0/QubeBalance.sol\":3026:3062  pancakePair.balanceOf(walletAddress) */\n      mload(0x40)\n      dup3\n      0xffffffff\n      and\n      0xe0\n      shl\n      dup2\n      mstore\n      0x04\n      add\n      tag_214\n      swap2\n      swap1\n      tag_114\n      jump\t// in\n    tag_214:\n      0x20\n      mload(0x40)\n      dup1\n      dup4\n      sub\n      dup2\n      dup7\n      dup1\n      extcodesize\n      iszero\n      dup1\n      iszero\n      tag_215\n      jumpi\n      0x00\n      dup1\n      revert\n    tag_215:\n      pop\n      gas\n      staticcall\n      iszero\n      dup1\n      iszero\n      tag_217\n      jumpi\n      returndatasize\n      0x00\n      dup1\n      returndatacopy\n      revert(0x00, returndatasize)\n    tag_217:\n      pop\n      pop\n      pop\n      pop\n      mload(0x40)\n      returndatasize\n      not(0x1f)\n      0x1f\n      dup3\n      add\n      and\n      dup3\n      add\n      dup1\n      0x40\n      mstore\n      pop\n      dup2\n      add\n      swap1\n      tag_218\n      swap2\n      swap1\n      tag_180\n      jump\t// in\n    tag_218:\n        /* \"Launchpad v2.0/QubeBalance.sol\":3007:3062  uint256 _balanceOf=pancakePair.balanceOf(walletAddress) */\n      swap1\n      pop\n        /* \"Launchpad v2.0/QubeBalance.sol\":3079:3098  _LP.mul(_balanceOf) */\n      tag_219\n        /* \"Launchpad v2.0/QubeBalance.sol\":3087:3097  _balanceOf */\n      dup2\n        /* \"Launchpad v2.0/QubeBalance.sol\":3079:3082  _LP */\n      dup4\n        /* \"Launchpad v2.0/QubeBalance.sol\":3079:3086  _LP.mul */\n      tag_220\n      swap1\n        /* \"Launchpad v2.0/QubeBalance.sol\":3079:3098  _LP.mul(_balanceOf) */\n      swap2\n      swap1\n      0xffffffff\n      and\n      jump\t// in\n    tag_219:\n        /* \"Launchpad v2.0/QubeBalance.sol\":3072:3098  return _LP.mul(_balanceOf) */\n      swap6\n      pop\n      pop\n      pop\n      pop\n      pop\n      pop\n        /* \"Launchpad v2.0/QubeBalance.sol\":2659:3105  function getPancakePairBalance(address walletAddress)public view returns (uint256){... */\n      swap2\n      swap1\n      pop\n      jump\t// out\n        /* \"Launchpad v2.0/QubeBalance.sol\":1184:1508  function removeNFT(address _user, uint256 _ID) public{... */\n    tag_90:\n        /* \"Launchpad v2.0/QubeBalance.sol\":1267:1272  _user */\n      dup2\n        /* \"Launchpad v2.0/QubeBalance.sol\":1255:1272  msg.sender==_user */\n      0xffffffffffffffffffffffffffffffffffffffff\n      and\n        /* \"Launchpad v2.0/QubeBalance.sol\":1255:1265  msg.sender */\n      caller\n        /* \"Launchpad v2.0/QubeBalance.sol\":1255:1272  msg.sender==_user */\n      0xffffffffffffffffffffffffffffffffffffffff\n      and\n      eq\n        /* \"Launchpad v2.0/QubeBalance.sol\":1255:1295  msg.sender==_user || msg.sender==owner() */\n      dup1\n      tag_222\n      jumpi\n      pop\n        /* \"Launchpad v2.0/QubeBalance.sol\":1288:1295  owner() */\n      tag_223\n        /* \"Launchpad v2.0/QubeBalance.sol\":1288:1293  owner */\n      tag_112\n        /* \"Launchpad v2.0/QubeBalance.sol\":1288:1295  owner() */\n      jump\t// in\n    tag_223:\n        /* \"Launchpad v2.0/QubeBalance.sol\":1276:1295  msg.sender==owner() */\n      0xffffffffffffffffffffffffffffffffffffffff\n      and\n        /* \"Launchpad v2.0/QubeBalance.sol\":1276:1286  msg.sender */\n      caller\n        /* \"Launchpad v2.0/QubeBalance.sol\":1276:1295  msg.sender==owner() */\n      0xffffffffffffffffffffffffffffffffffffffff\n      and\n      eq\n        /* \"Launchpad v2.0/QubeBalance.sol\":1255:1295  msg.sender==_user || msg.sender==owner() */\n    tag_222:\n        /* \"Launchpad v2.0/QubeBalance.sol\":1247:1296  require(msg.sender==_user || msg.sender==owner()) */\n      tag_224\n      jumpi\n      0x00\n      dup1\n      revert\n    tag_224:\n        /* \"Launchpad v2.0/QubeBalance.sol\":1363:1366  _ID */\n      dup1\n        /* \"Launchpad v2.0/QubeBalance.sol\":1312:1319  userNFT */\n      0x08\n        /* \"Launchpad v2.0/QubeBalance.sol\":1312:1326  userNFT[_user] */\n      0x00\n        /* \"Launchpad v2.0/QubeBalance.sol\":1320:1325  _user */\n      dup5\n        /* \"Launchpad v2.0/QubeBalance.sol\":1312:1326  userNFT[_user] */\n      0xffffffffffffffffffffffffffffffffffffffff\n      and\n      0xffffffffffffffffffffffffffffffffffffffff\n      and\n      dup2\n      mstore\n      0x20\n      add\n      swap1\n      dup2\n      mstore\n      0x20\n      add\n      0x00\n      keccak256\n        /* \"Launchpad v2.0/QubeBalance.sol\":1312:1330  userNFT[_user].IDs */\n      0x01\n      add\n        /* \"Launchpad v2.0/QubeBalance.sol\":1359:1360  1 */\n      0x01\n        /* \"Launchpad v2.0/QubeBalance.sol\":1331:1338  userNFT */\n      0x08\n        /* \"Launchpad v2.0/QubeBalance.sol\":1331:1345  userNFT[_user] */\n      0x00\n        /* \"Launchpad v2.0/QubeBalance.sol\":1339:1344  _user */\n      dup7\n        /* \"Launchpad v2.0/QubeBalance.sol\":1331:1345  userNFT[_user] */\n      0xffffffffffffffffffffffffffffffffffffffff\n      and\n      0xffffffffffffffffffffffffffffffffffffffff\n      and\n      dup2\n      mstore\n      0x20\n      add\n      swap1\n      dup2\n      mstore\n      0x20\n      add\n      0x00\n      keccak256\n        /* \"Launchpad v2.0/QubeBalance.sol\":1331:1349  userNFT[_user].IDs */\n      0x01\n      add\n        /* \"Launchpad v2.0/QubeBalance.sol\":1331:1356  userNFT[_user].IDs.length */\n      dup1\n      sload\n      swap1\n      pop\n        /* \"Launchpad v2.0/QubeBalance.sol\":1331:1360  userNFT[_user].IDs.length - 1 */\n      tag_225\n      swap2\n      swap1\n      tag_226\n      jump\t// in\n    tag_225:\n        /* \"Launchpad v2.0/QubeBalance.sol\":1312:1361  userNFT[_user].IDs[userNFT[_user].IDs.length - 1] */\n      dup2\n      sload\n      dup2\n      lt\n      tag_227\n      jumpi\n      tag_228\n      tag_229\n      jump\t// in\n    tag_228:\n    tag_227:\n      swap1\n      0x00\n      mstore\n      keccak256(0x00, 0x20)\n      add\n      sload\n        /* \"Launchpad v2.0/QubeBalance.sol\":1312:1366  userNFT[_user].IDs[userNFT[_user].IDs.length - 1]==_ID */\n      eq\n        /* \"Launchpad v2.0/QubeBalance.sol\":1306:1468  if (!(userNFT[_user].IDs[userNFT[_user].IDs.length - 1]==_ID)){... */\n      tag_231\n      jumpi\n        /* \"Launchpad v2.0/QubeBalance.sol\":1408:1415  userNFT */\n      0x08\n        /* \"Launchpad v2.0/QubeBalance.sol\":1408:1422  userNFT[_user] */\n      0x00\n        /* \"Launchpad v2.0/QubeBalance.sol\":1416:1421  _user */\n      dup4\n        /* \"Launchpad v2.0/QubeBalance.sol\":1408:1422  userNFT[_user] */\n      0xffffffffffffffffffffffffffffffffffffffff\n      and\n      0xffffffffffffffffffffffffffffffffffffffff\n      and\n      dup2\n      mstore\n      0x20\n      add\n      swap1\n      dup2\n      mstore\n      0x20\n      add\n      0x00\n      keccak256\n        /* \"Launchpad v2.0/QubeBalance.sol\":1408:1426  userNFT[_user].IDs */\n      0x01\n      add\n        /* \"Launchpad v2.0/QubeBalance.sol\":1455:1456  1 */\n      0x01\n        /* \"Launchpad v2.0/QubeBalance.sol\":1427:1434  userNFT */\n      0x08\n        /* \"Launchpad v2.0/QubeBalance.sol\":1427:1441  userNFT[_user] */\n      0x00\n        /* \"Launchpad v2.0/QubeBalance.sol\":1435:1440  _user */\n      dup6\n        /* \"Launchpad v2.0/QubeBalance.sol\":1427:1441  userNFT[_user] */\n      0xffffffffffffffffffffffffffffffffffffffff\n      and\n      0xffffffffffffffffffffffffffffffffffffffff\n      and\n      dup2\n      mstore\n      0x20\n      add\n      swap1\n      dup2\n      mstore\n      0x20\n      add\n      0x00\n      keccak256\n        /* \"Launchpad v2.0/QubeBalance.sol\":1427:1445  userNFT[_user].IDs */\n      0x01\n      add\n        /* \"Launchpad v2.0/QubeBalance.sol\":1427:1452  userNFT[_user].IDs.length */\n      dup1\n      sload\n      swap1\n      pop\n        /* \"Launchpad v2.0/QubeBalance.sol\":1427:1456  userNFT[_user].IDs.length - 1 */\n      tag_232\n      swap2\n      swap1\n      tag_226\n      jump\t// in\n    tag_232:\n        /* \"Launchpad v2.0/QubeBalance.sol\":1408:1457  userNFT[_user].IDs[userNFT[_user].IDs.length - 1] */\n      dup2\n      sload\n      dup2\n      lt\n      tag_233\n      jumpi\n      tag_234\n      tag_229\n      jump\t// in\n    tag_234:\n    tag_233:\n      swap1\n      0x00\n      mstore\n      keccak256(0x00, 0x20)\n      add\n      sload\n        /* \"Launchpad v2.0/QubeBalance.sol\":1382:1389  userNFT */\n      0x08\n        /* \"Launchpad v2.0/QubeBalance.sol\":1382:1396  userNFT[_user] */\n      0x00\n        /* \"Launchpad v2.0/QubeBalance.sol\":1390:1395  _user */\n      dup5\n        /* \"Launchpad v2.0/QubeBalance.sol\":1382:1396  userNFT[_user] */\n      0xffffffffffffffffffffffffffffffffffffffff\n      and\n      0xffffffffffffffffffffffffffffffffffffffff\n      and\n      dup2\n      mstore\n      0x20\n      add\n      swap1\n      dup2\n      mstore\n      0x20\n      add\n      0x00\n      keccak256\n        /* \"Launchpad v2.0/QubeBalance.sol\":1382:1400  userNFT[_user].IDs */\n      0x01\n      add\n        /* \"Launchpad v2.0/QubeBalance.sol\":1401:1404  _ID */\n      dup3\n        /* \"Launchpad v2.0/QubeBalance.sol\":1382:1405  userNFT[_user].IDs[_ID] */\n      dup2\n      sload\n      dup2\n      lt\n      tag_236\n      jumpi\n      tag_237\n      tag_229\n      jump\t// in\n    tag_237:\n    tag_236:\n      swap1\n      0x00\n      mstore\n      keccak256(0x00, 0x20)\n      add\n        /* \"Launchpad v2.0/QubeBalance.sol\":1382:1457  userNFT[_user].IDs[_ID] = userNFT[_user].IDs[userNFT[_user].IDs.length - 1] */\n      dup2\n      swap1\n      sstore\n      pop\n        /* \"Launchpad v2.0/QubeBalance.sol\":1306:1468  if (!(userNFT[_user].IDs[userNFT[_user].IDs.length - 1]==_ID)){... */\n    tag_231:\n        /* \"Launchpad v2.0/QubeBalance.sol\":1477:1484  userNFT */\n      0x08\n        /* \"Launchpad v2.0/QubeBalance.sol\":1477:1491  userNFT[_user] */\n      0x00\n        /* \"Launchpad v2.0/QubeBalance.sol\":1485:1490  _user */\n      dup4\n        /* \"Launchpad v2.0/QubeBalance.sol\":1477:1491  userNFT[_user] */\n      0xffffffffffffffffffffffffffffffffffffffff\n      and\n      0xffffffffffffffffffffffffffffffffffffffff\n      and\n      dup2\n      mstore\n      0x20\n      add\n      swap1\n      dup2\n      mstore\n      0x20\n      add\n      0x00\n      keccak256\n        /* \"Launchpad v2.0/QubeBalance.sol\":1477:1495  userNFT[_user].IDs */\n      0x01\n      add\n        /* \"Launchpad v2.0/QubeBalance.sol\":1477:1501  userNFT[_user].IDs.pop() */\n      dup1\n      sload\n      dup1\n      tag_239\n      jumpi\n      tag_240\n      tag_241\n      jump\t// in\n    tag_240:\n    tag_239:\n      0x01\n      swap1\n      sub\n      dup2\n      dup2\n      swap1\n      0x00\n      mstore\n      keccak256(0x00, 0x20)\n      add\n      0x00\n      swap1\n      sstore\n      swap1\n      sstore\n        /* \"Launchpad v2.0/QubeBalance.sol\":1184:1508  function removeNFT(address _user, uint256 _ID) public{... */\n      pop\n      pop\n      jump\t// out\n        /* \"Launchpad v2.0/QubeBalance.sol\":1513:1667  function addNFT(address _user, uint256 _ID) public{... */\n    tag_93:\n        /* \"Launchpad v2.0/QubeBalance.sol\":1593:1598  _user */\n      dup2\n        /* \"Launchpad v2.0/QubeBalance.sol\":1581:1598  msg.sender==_user */\n      0xffffffffffffffffffffffffffffffffffffffff\n      and\n        /* \"Launchpad v2.0/QubeBalance.sol\":1581:1591  msg.sender */\n      caller\n        /* \"Launchpad v2.0/QubeBalance.sol\":1581:1598  msg.sender==_user */\n      0xffffffffffffffffffffffffffffffffffffffff\n      and\n      eq\n        /* \"Launchpad v2.0/QubeBalance.sol\":1581:1621  msg.sender==_user || msg.sender==owner() */\n      dup1\n      tag_244\n      jumpi\n      pop\n        /* \"Launchpad v2.0/QubeBalance.sol\":1614:1621  owner() */\n      tag_245\n        /* \"Launchpad v2.0/QubeBalance.sol\":1614:1619  owner */\n      tag_112\n        /* \"Launchpad v2.0/QubeBalance.sol\":1614:1621  owner() */\n      jump\t// in\n    tag_245:\n        /* \"Launchpad v2.0/QubeBalance.sol\":1602:1621  msg.sender==owner() */\n      0xffffffffffffffffffffffffffffffffffffffff\n      and\n        /* \"Launchpad v2.0/QubeBalance.sol\":1602:1612  msg.sender */\n      caller\n        /* \"Launchpad v2.0/QubeBalance.sol\":1602:1621  msg.sender==owner() */\n      0xffffffffffffffffffffffffffffffffffffffff\n      and\n      eq\n        /* \"Launchpad v2.0/QubeBalance.sol\":1581:1621  msg.sender==_user || msg.sender==owner() */\n    tag_244:\n        /* \"Launchpad v2.0/QubeBalance.sol\":1573:1622  require(msg.sender==_user || msg.sender==owner()) */\n      tag_246\n      jumpi\n      0x00\n      dup1\n      revert\n    tag_246:\n        /* \"Launchpad v2.0/QubeBalance.sol\":1632:1639  userNFT */\n      0x08\n        /* \"Launchpad v2.0/QubeBalance.sol\":1632:1646  userNFT[_user] */\n      0x00\n        /* \"Launchpad v2.0/QubeBalance.sol\":1640:1645  _user */\n      dup4\n        /* \"Launchpad v2.0/QubeBalance.sol\":1632:1646  userNFT[_user] */\n      0xffffffffffffffffffffffffffffffffffffffff\n      and\n      0xffffffffffffffffffffffffffffffffffffffff\n      and\n      dup2\n      mstore\n      0x20\n      add\n      swap1\n      dup2\n      mstore\n      0x20\n      add\n      0x00\n      keccak256\n        /* \"Launchpad v2.0/QubeBalance.sol\":1632:1650  userNFT[_user].IDs */\n      0x01\n      add\n        /* \"Launchpad v2.0/QubeBalance.sol\":1656:1659  _ID */\n      dup2\n        /* \"Launchpad v2.0/QubeBalance.sol\":1632:1660  userNFT[_user].IDs.push(_ID) */\n      swap1\n      dup1\n      0x01\n      dup2\n      sload\n      add\n      dup1\n      dup3\n      sstore\n      dup1\n      swap2\n      pop\n      pop\n      0x01\n      swap1\n      sub\n      swap1\n      0x00\n      mstore\n      keccak256(0x00, 0x20)\n      add\n      0x00\n      swap1\n      swap2\n      swap1\n      swap2\n      swap1\n      swap2\n      pop\n      sstore\n        /* \"Launchpad v2.0/QubeBalance.sol\":1513:1667  function addNFT(address _user, uint256 _ID) public{... */\n      pop\n      pop\n      jump\t// out\n        /* \"Launchpad v2.0/QubeBalance.sol\":872:890  IBEP20 public qube */\n    tag_95:\n      0x01\n      0x00\n      swap1\n      sload\n      swap1\n      0x0100\n      exp\n      swap1\n      div\n      0xffffffffffffffffffffffffffffffffffffffff\n      and\n      dup2\n      jump\t// out\n        /* \"Launchpad v2.0/Ownable.sol\":1612:1704  function renounceOwnership() public virtual onlyOwner {... */\n    tag_99:\n        /* \"Launchpad v2.0/Ownable.sol\":1203:1215  _msgSender() */\n      tag_249\n        /* \"Launchpad v2.0/Ownable.sol\":1203:1213  _msgSender */\n      tag_141\n        /* \"Launchpad v2.0/Ownable.sol\":1203:1215  _msgSender() */\n      jump\t// in\n    tag_249:\n        /* \"Launchpad v2.0/Ownable.sol\":1192:1215  owner() == _msgSender() */\n      0xffffffffffffffffffffffffffffffffffffffff\n      and\n        /* \"Launchpad v2.0/Ownable.sol\":1192:1199  owner() */\n      tag_250\n        /* \"Launchpad v2.0/Ownable.sol\":1192:1197  owner */\n      tag_112\n        /* \"Launchpad v2.0/Ownable.sol\":1192:1199  owner() */\n      jump\t// in\n    tag_250:\n        /* \"Launchpad v2.0/Ownable.sol\":1192:1215  owner() == _msgSender() */\n      0xffffffffffffffffffffffffffffffffffffffff\n      and\n      eq\n        /* \"Launchpad v2.0/Ownable.sol\":1184:1252  require(owner() == _msgSender(), \"Ownable: caller is not the owner\") */\n      tag_251\n      jumpi\n      mload(0x40)\n      0x08c379a000000000000000000000000000000000000000000000000000000000\n      dup2\n      mstore\n      0x04\n      add\n      tag_252\n      swap1\n      tag_145\n      jump\t// in\n    tag_252:\n      mload(0x40)\n      dup1\n      swap2\n      sub\n      swap1\n      revert\n    tag_251:\n        /* \"Launchpad v2.0/Ownable.sol\":1676:1697  _setOwner(address(0)) */\n      tag_254\n        /* \"Launchpad v2.0/Ownable.sol\":1694:1695  0 */\n      0x00\n        /* \"Launchpad v2.0/Ownable.sol\":1676:1685  _setOwner */\n      tag_255\n        /* \"Launchpad v2.0/Ownable.sol\":1676:1697  _setOwner(address(0)) */\n      jump\t// in\n    tag_254:\n        /* \"Launchpad v2.0/Ownable.sol\":1612:1704  function renounceOwnership() public virtual onlyOwner {... */\n      jump\t// out\n        /* \"Launchpad v2.0/QubeBalance.sol\":2281:2369  function setDiamond(IERC1155 _diamond) public onlyOwner{... */\n    tag_102:\n        /* \"Launchpad v2.0/Ownable.sol\":1203:1215  _msgSender() */\n      tag_257\n        /* \"Launchpad v2.0/Ownable.sol\":1203:1213  _msgSender */\n      tag_141\n        /* \"Launchpad v2.0/Ownable.sol\":1203:1215  _msgSender() */\n      jump\t// in\n    tag_257:\n        /* \"Launchpad v2.0/Ownable.sol\":1192:1215  owner() == _msgSender() */\n      0xffffffffffffffffffffffffffffffffffffffff\n      and\n        /* \"Launchpad v2.0/Ownable.sol\":1192:1199  owner() */\n      tag_258\n        /* \"Launchpad v2.0/Ownable.sol\":1192:1197  owner */\n      tag_112\n        /* \"Launchpad v2.0/Ownable.sol\":1192:1199  owner() */\n      jump\t// in\n    tag_258:\n        /* \"Launchpad v2.0/Ownable.sol\":1192:1215  owner() == _msgSender() */\n      0xffffffffffffffffffffffffffffffffffffffff\n      and\n      eq\n        /* \"Launchpad v2.0/Ownable.sol\":1184:1252  require(owner() == _msgSender(), \"Ownable: caller is not the owner\") */\n      tag_259\n      jumpi\n      mload(0x40)\n      0x08c379a000000000000000000000000000000000000000000000000000000000\n      dup2\n      mstore\n      0x04\n      add\n      tag_260\n      swap1\n      tag_145\n      jump\t// in\n    tag_260:\n      mload(0x40)\n      dup1\n      swap2\n      sub\n      swap1\n      revert\n    tag_259:\n        /* \"Launchpad v2.0/QubeBalance.sol\":2354:2362  _diamond */\n      dup1\n        /* \"Launchpad v2.0/QubeBalance.sol\":2346:2353  diamond */\n      0x07\n      0x00\n        /* \"Launchpad v2.0/QubeBalance.sol\":2346:2362  diamond=_diamond */\n      0x0100\n      exp\n      dup2\n      sload\n      dup2\n      0xffffffffffffffffffffffffffffffffffffffff\n      mul\n      not\n      and\n      swap1\n      dup4\n      0xffffffffffffffffffffffffffffffffffffffff\n      and\n      mul\n      or\n      swap1\n      sstore\n      pop\n        /* \"Launchpad v2.0/QubeBalance.sol\":2281:2369  function setDiamond(IERC1155 _diamond) public onlyOwner{... */\n      pop\n      jump\t// out\n        /* \"Launchpad v2.0/QubeBalance.sol\":969:1009  QubeStakeFactory public qubeStakeFactory */\n    tag_104:\n      0x04\n      0x00\n      swap1\n      sload\n      swap1\n      0x0100\n      exp\n      swap1\n      div\n      0xffffffffffffffffffffffffffffffffffffffff\n      and\n      dup2\n      jump\t// out\n        /* \"Launchpad v2.0/QubeBalance.sol\":1864:1976  function setQubePancakePair(IPancakePair _pancakePair) public onlyOwner{... */\n    tag_110:\n        /* \"Launchpad v2.0/Ownable.sol\":1203:1215  _msgSender() */\n      tag_263\n        /* \"Launchpad v2.0/Ownable.sol\":1203:1213  _msgSender */\n      tag_141\n        /* \"Launchpad v2.0/Ownable.sol\":1203:1215  _msgSender() */\n      jump\t// in\n    tag_263:\n        /* \"Launchpad v2.0/Ownable.sol\":1192:1215  owner() == _msgSender() */\n      0xffffffffffffffffffffffffffffffffffffffff\n      and\n        /* \"Launchpad v2.0/Ownable.sol\":1192:1199  owner() */\n      tag_264\n        /* \"Launchpad v2.0/Ownable.sol\":1192:1197  owner */\n      tag_112\n        /* \"Launchpad v2.0/Ownable.sol\":1192:1199  owner() */\n      jump\t// in\n    tag_264:\n        /* \"Launchpad v2.0/Ownable.sol\":1192:1215  owner() == _msgSender() */\n      0xffffffffffffffffffffffffffffffffffffffff\n      and\n      eq\n        /* \"Launchpad v2.0/Ownable.sol\":1184:1252  require(owner() == _msgSender(), \"Ownable: caller is not the owner\") */\n      tag_265\n      jumpi\n      mload(0x40)\n      0x08c379a000000000000000000000000000000000000000000000000000000000\n      dup2\n      mstore\n      0x04\n      add\n      tag_266\n      swap1\n      tag_145\n      jump\t// in\n    tag_266:\n      mload(0x40)\n      dup1\n      swap2\n      sub\n      swap1\n      revert\n    tag_265:\n        /* \"Launchpad v2.0/QubeBalance.sol\":1957:1969  _pancakePair */\n      dup1\n        /* \"Launchpad v2.0/QubeBalance.sol\":1945:1956  pancakePair */\n      0x03\n      0x00\n        /* \"Launchpad v2.0/QubeBalance.sol\":1945:1969  pancakePair=_pancakePair */\n      0x0100\n      exp\n      dup2\n      sload\n      dup2\n      0xffffffffffffffffffffffffffffffffffffffff\n      mul\n      not\n      and\n      swap1\n      dup4\n      0xffffffffffffffffffffffffffffffffffffffff\n      and\n      mul\n      or\n      swap1\n      sstore\n      pop\n        /* \"Launchpad v2.0/QubeBalance.sol\":1864:1976  function setQubePancakePair(IPancakePair _pancakePair) public onlyOwner{... */\n      pop\n      jump\t// out\n        /* \"Launchpad v2.0/Ownable.sol\":980:1065  function owner() public view virtual returns (address) {... */\n    tag_112:\n        /* \"Launchpad v2.0/Ownable.sol\":1026:1033  address */\n      0x00\n        /* \"Launchpad v2.0/Ownable.sol\":1052:1058  _owner */\n      dup1\n      0x00\n      swap1\n      sload\n      swap1\n      0x0100\n      exp\n      swap1\n      div\n      0xffffffffffffffffffffffffffffffffffffffff\n      and\n        /* \"Launchpad v2.0/Ownable.sol\":1045:1058  return _owner */\n      swap1\n      pop\n        /* \"Launchpad v2.0/Ownable.sol\":980:1065  function owner() public view virtual returns (address) {... */\n      swap1\n      jump\t// out\n        /* \"Launchpad v2.0/QubeBalance.sol\":4159:4439  function qubeBalanceWithNFT(address walletAddress) public view returns (uint256){... */\n    tag_117:\n        /* \"Launchpad v2.0/QubeBalance.sol\":4231:4238  uint256 */\n      0x00\n        /* \"Launchpad v2.0/QubeBalance.sol\":4404:4432  getNFTBalance(walletAddress) */\n      tag_270\n        /* \"Launchpad v2.0/QubeBalance.sol\":4418:4431  walletAddress */\n      dup3\n        /* \"Launchpad v2.0/QubeBalance.sol\":4404:4417  getNFTBalance */\n      tag_125\n        /* \"Launchpad v2.0/QubeBalance.sol\":4404:4432  getNFTBalance(walletAddress) */\n      jump\t// in\n    tag_270:\n        /* \"Launchpad v2.0/QubeBalance.sol\":4362:4403  getQubeStakeFactoryBalance(walletAddress) */\n      tag_271\n        /* \"Launchpad v2.0/QubeBalance.sol\":4389:4402  walletAddress */\n      dup4\n        /* \"Launchpad v2.0/QubeBalance.sol\":4362:4388  getQubeStakeFactoryBalance */\n      tag_77\n        /* \"Launchpad v2.0/QubeBalance.sol\":4362:4403  getQubeStakeFactoryBalance(walletAddress) */\n      jump\t// in\n    tag_271:\n        /* \"Launchpad v2.0/QubeBalance.sol\":4325:4361  getPancakePairBalance(walletAddress) */\n      tag_272\n        /* \"Launchpad v2.0/QubeBalance.sol\":4347:4360  walletAddress */\n      dup5\n        /* \"Launchpad v2.0/QubeBalance.sol\":4325:4346  getPancakePairBalance */\n      tag_85\n        /* \"Launchpad v2.0/QubeBalance.sol\":4325:4361  getPancakePairBalance(walletAddress) */\n      jump\t// in\n    tag_272:\n        /* \"Launchpad v2.0/QubeBalance.sol\":4288:4324  getQubePresaleBalance(walletAddress) */\n      tag_273\n        /* \"Launchpad v2.0/QubeBalance.sol\":4310:4323  walletAddress */\n      dup6\n        /* \"Launchpad v2.0/QubeBalance.sol\":4288:4309  getQubePresaleBalance */\n      tag_73\n        /* \"Launchpad v2.0/QubeBalance.sol\":4288:4324  getQubePresaleBalance(walletAddress) */\n      jump\t// in\n    tag_273:\n        /* \"Launchpad v2.0/QubeBalance.sol\":4256:4285  getQubeBalance(walletAddress) */\n      tag_274\n        /* \"Launchpad v2.0/QubeBalance.sol\":4271:4284  walletAddress */\n      dup7\n        /* \"Launchpad v2.0/QubeBalance.sol\":4256:4270  getQubeBalance */\n      tag_81\n        /* \"Launchpad v2.0/QubeBalance.sol\":4256:4285  getQubeBalance(walletAddress) */\n      jump\t// in\n    tag_274:\n        /* \"Launchpad v2.0/QubeBalance.sol\":4256:4324  getQubeBalance(walletAddress) + getQubePresaleBalance(walletAddress) */\n      tag_275\n      swap2\n      swap1\n      tag_159\n      jump\t// in\n    tag_275:\n        /* \"Launchpad v2.0/QubeBalance.sol\":4256:4361  getQubeBalance(walletAddress) + getQubePresaleBalance(walletAddress)+getPancakePairBalance(walletAddress) */\n      tag_276\n      swap2\n      swap1\n      tag_159\n      jump\t// in\n    tag_276:\n        /* \"Launchpad v2.0/QubeBalance.sol\":4256:4403  getQubeBalance(walletAddress) + getQubePresaleBalance(walletAddress)+getPancakePairBalance(walletAddress)+getQubeStakeFactoryBalance(walletAddress) */\n      tag_277\n      swap2\n      swap1\n      tag_159\n      jump\t// in\n    tag_277:\n        /* \"Launchpad v2.0/QubeBalance.sol\":4256:4432  getQubeBalance(walletAddress) + getQubePresaleBalance(walletAddress)+getPancakePairBalance(walletAddress)+getQubeStakeFactoryBalance(walletAddress)+getNFTBalance(walletAddress) */\n      tag_278\n      swap2\n      swap1\n      tag_159\n      jump\t// in\n    tag_278:\n        /* \"Launchpad v2.0/QubeBalance.sol\":4249:4432  return getQubeBalance(walletAddress) + getQubePresaleBalance(walletAddress)+getPancakePairBalance(walletAddress)+getQubeStakeFactoryBalance(walletAddress)+getNFTBalance(walletAddress) */\n      swap1\n      pop\n        /* \"Launchpad v2.0/QubeBalance.sol\":4159:4439  function qubeBalanceWithNFT(address walletAddress) public view returns (uint256){... */\n      swap2\n      swap1\n      pop\n      jump\t// out\n        /* \"Launchpad v2.0/QubeBalance.sol\":932:963  IPancakePair public pancakePair */\n    tag_120:\n      0x03\n      0x00\n      swap1\n      sload\n      swap1\n      0x0100\n      exp\n      swap1\n      div\n      0xffffffffffffffffffffffffffffffffffffffff\n      and\n      dup2\n      jump\t// out\n        /* \"Launchpad v2.0/QubeBalance.sol\":3462:3900  function getNFTBalance(address walletAddress)public view returns (uint256){... */\n    tag_125:\n        /* \"Launchpad v2.0/QubeBalance.sol\":3528:3535  uint256 */\n      0x00\n        /* \"Launchpad v2.0/QubeBalance.sol\":3546:3561  uint256 balance */\n      dup1\n        /* \"Launchpad v2.0/QubeBalance.sol\":3562:3563  0 */\n      0x00\n        /* \"Launchpad v2.0/QubeBalance.sol\":3546:3563  uint256 balance=0 */\n      swap1\n      pop\n        /* \"Launchpad v2.0/QubeBalance.sol\":3578:3584  uint i */\n      0x00\n        /* \"Launchpad v2.0/QubeBalance.sol\":3573:3667  for (uint i=0;i<=1100;i++){... */\n    tag_280:\n        /* \"Launchpad v2.0/QubeBalance.sol\":3590:3594  1100 */\n      0x044c\n        /* \"Launchpad v2.0/QubeBalance.sol\":3587:3588  i */\n      dup2\n        /* \"Launchpad v2.0/QubeBalance.sol\":3587:3594  i<=1100 */\n      gt\n        /* \"Launchpad v2.0/QubeBalance.sol\":3573:3667  for (uint i=0;i<=1100;i++){... */\n      tag_281\n      jumpi\n        /* \"Launchpad v2.0/QubeBalance.sol\":3622:3628  silver */\n      0x05\n      0x00\n      swap1\n      sload\n      swap1\n      0x0100\n      exp\n      swap1\n      div\n      0xffffffffffffffffffffffffffffffffffffffff\n      and\n        /* \"Launchpad v2.0/QubeBalance.sol\":3622:3638  silver.balanceOf */\n      0xffffffffffffffffffffffffffffffffffffffff\n      and\n      0xfdd58e\n        /* \"Launchpad v2.0/QubeBalance.sol\":3639:3652  walletAddress */\n      dup6\n        /* \"Launchpad v2.0/QubeBalance.sol\":3654:3655  i */\n      dup4\n        /* \"Launchpad v2.0/QubeBalance.sol\":3622:3656  silver.balanceOf(walletAddress, i) */\n      mload(0x40)\n      dup4\n      0xffffffff\n      and\n      0xe0\n      shl\n      dup2\n      mstore\n      0x04\n      add\n      tag_283\n      swap3\n      swap2\n      swap1\n      tag_284\n      jump\t// in\n    tag_283:\n      0x20\n      mload(0x40)\n      dup1\n      dup4\n      sub\n      dup2\n      dup7\n      dup1\n      extcodesize\n      iszero\n      dup1\n      iszero\n      tag_285\n      jumpi\n      0x00\n      dup1\n      revert\n    tag_285:\n      pop\n      gas\n      staticcall\n      iszero\n      dup1\n      iszero\n      tag_287\n      jumpi\n      returndatasize\n      0x00\n      dup1\n      returndatacopy\n      revert(0x00, returndatasize)\n    tag_287:\n      pop\n      pop\n      pop\n      pop\n      mload(0x40)\n      returndatasize\n      not(0x1f)\n      0x1f\n      dup3\n      add\n      and\n      dup3\n      add\n      dup1\n      0x40\n      mstore\n      pop\n      dup2\n      add\n      swap1\n      tag_288\n      swap2\n      swap1\n      tag_180\n      jump\t// in\n    tag_288:\n        /* \"Launchpad v2.0/QubeBalance.sol\":3613:3656  balance+=silver.balanceOf(walletAddress, i) */\n      dup3\n      tag_289\n      swap2\n      swap1\n      tag_159\n      jump\t// in\n    tag_289:\n      swap2\n      pop\n        /* \"Launchpad v2.0/QubeBalance.sol\":3595:3598  i++ */\n      dup1\n      dup1\n      tag_290\n      swap1\n      tag_199\n      jump\t// in\n    tag_290:\n      swap2\n      pop\n      pop\n        /* \"Launchpad v2.0/QubeBalance.sol\":3573:3667  for (uint i=0;i<=1100;i++){... */\n      jump(tag_280)\n    tag_281:\n      pop\n        /* \"Launchpad v2.0/QubeBalance.sol\":3681:3687  uint i */\n      0x00\n        /* \"Launchpad v2.0/QubeBalance.sol\":3676:3767  for (uint i=0;i<=300;i++){... */\n    tag_291:\n        /* \"Launchpad v2.0/QubeBalance.sol\":3693:3696  300 */\n      0x012c\n        /* \"Launchpad v2.0/QubeBalance.sol\":3690:3691  i */\n      dup2\n        /* \"Launchpad v2.0/QubeBalance.sol\":3690:3696  i<=300 */\n      gt\n        /* \"Launchpad v2.0/QubeBalance.sol\":3676:3767  for (uint i=0;i<=300;i++){... */\n      tag_292\n      jumpi\n        /* \"Launchpad v2.0/QubeBalance.sol\":3724:3728  gold */\n      0x06\n      0x00\n      swap1\n      sload\n      swap1\n      0x0100\n      exp\n      swap1\n      div\n      0xffffffffffffffffffffffffffffffffffffffff\n      and\n        /* \"Launchpad v2.0/QubeBalance.sol\":3724:3738  gold.balanceOf */\n      0xffffffffffffffffffffffffffffffffffffffff\n      and\n      0xfdd58e\n        /* \"Launchpad v2.0/QubeBalance.sol\":3739:3752  walletAddress */\n      dup6\n        /* \"Launchpad v2.0/QubeBalance.sol\":3754:3755  i */\n      dup4\n        /* \"Launchpad v2.0/QubeBalance.sol\":3724:3756  gold.balanceOf(walletAddress, i) */\n      mload(0x40)\n      dup4\n      0xffffffff\n      and\n      0xe0\n      shl\n      dup2\n      mstore\n      0x04\n      add\n      tag_294\n      swap3\n      swap2\n      swap1\n      tag_284\n      jump\t// in\n    tag_294:\n      0x20\n      mload(0x40)\n      dup1\n      dup4\n      sub\n      dup2\n      dup7\n      dup1\n      extcodesize\n      iszero\n      dup1\n      iszero\n      tag_295\n      jumpi\n      0x00\n      dup1\n      revert\n    tag_295:\n      pop\n      gas\n      staticcall\n      iszero\n      dup1\n      iszero\n      tag_297\n      jumpi\n      returndatasize\n      0x00\n      dup1\n      returndatacopy\n      revert(0x00, returndatasize)\n    tag_297:\n      pop\n      pop\n      pop\n      pop\n      mload(0x40)\n      returndatasize\n      not(0x1f)\n      0x1f\n      dup3\n      add\n      and\n      dup3\n      add\n      dup1\n      0x40\n      mstore\n      pop\n      dup2\n      add\n      swap1\n      tag_298\n      swap2\n      swap1\n      tag_180\n      jump\t// in\n    tag_298:\n        /* \"Launchpad v2.0/QubeBalance.sol\":3715:3756  balance+=gold.balanceOf(walletAddress, i) */\n      dup3\n      tag_299\n      swap2\n      swap1\n      tag_159\n      jump\t// in\n    tag_299:\n      swap2\n      pop\n        /* \"Launchpad v2.0/QubeBalance.sol\":3697:3700  i++ */\n      dup1\n      dup1\n      tag_300\n      swap1\n      tag_199\n      jump\t// in\n    tag_300:\n      swap2\n      pop\n      pop\n        /* \"Launchpad v2.0/QubeBalance.sol\":3676:3767  for (uint i=0;i<=300;i++){... */\n      jump(tag_291)\n    tag_292:\n      pop\n        /* \"Launchpad v2.0/QubeBalance.sol\":3781:3787  uint i */\n      0x00\n        /* \"Launchpad v2.0/QubeBalance.sol\":3776:3870  for (uint i=0;i<=100;i++){... */\n    tag_301:\n        /* \"Launchpad v2.0/QubeBalance.sol\":3793:3796  100 */\n      0x64\n        /* \"Launchpad v2.0/QubeBalance.sol\":3790:3791  i */\n      dup2\n        /* \"Launchpad v2.0/QubeBalance.sol\":3790:3796  i<=100 */\n      gt\n        /* \"Launchpad v2.0/QubeBalance.sol\":3776:3870  for (uint i=0;i<=100;i++){... */\n      tag_302\n      jumpi\n        /* \"Launchpad v2.0/QubeBalance.sol\":3824:3831  diamond */\n      0x07\n      0x00\n      swap1\n      sload\n      swap1\n      0x0100\n      exp\n      swap1\n      div\n      0xffffffffffffffffffffffffffffffffffffffff\n      and\n        /* \"Launchpad v2.0/QubeBalance.sol\":3824:3841  diamond.balanceOf */\n      0xffffffffffffffffffffffffffffffffffffffff\n      and\n      0xfdd58e\n        /* \"Launchpad v2.0/QubeBalance.sol\":3842:3855  walletAddress */\n      dup6\n        /* \"Launchpad v2.0/QubeBalance.sol\":3857:3858  i */\n      dup4\n        /* \"Launchpad v2.0/QubeBalance.sol\":3824:3859  diamond.balanceOf(walletAddress, i) */\n      mload(0x40)\n      dup4\n      0xffffffff\n      and\n      0xe0\n      shl\n      dup2\n      mstore\n      0x04\n      add\n      tag_304\n      swap3\n      swap2\n      swap1\n      tag_284\n      jump\t// in\n    tag_304:\n      0x20\n      mload(0x40)\n      dup1\n      dup4\n      sub\n      dup2\n      dup7\n      dup1\n      extcodesize\n      iszero\n      dup1\n      iszero\n      tag_305\n      jumpi\n      0x00\n      dup1\n      revert\n    tag_305:\n      pop\n      gas\n      staticcall\n      iszero\n      dup1\n      iszero\n      tag_307\n      jumpi\n      returndatasize\n      0x00\n      dup1\n      returndatacopy\n      revert(0x00, returndatasize)\n    tag_307:\n      pop\n      pop\n      pop\n      pop\n      mload(0x40)\n      returndatasize\n      not(0x1f)\n      0x1f\n      dup3\n      add\n      and\n      dup3\n      add\n      dup1\n      0x40\n      mstore\n      pop\n      dup2\n      add\n      swap1\n      tag_308\n      swap2\n      swap1\n      tag_180\n      jump\t// in\n    tag_308:\n        /* \"Launchpad v2.0/QubeBalance.sol\":3815:3859  balance+=diamond.balanceOf(walletAddress, i) */\n      dup3\n      tag_309\n      swap2\n      swap1\n      tag_159\n      jump\t// in\n    tag_309:\n      swap2\n      pop\n        /* \"Launchpad v2.0/QubeBalance.sol\":3797:3800  i++ */\n      dup1\n      dup1\n      tag_310\n      swap1\n      tag_199\n      jump\t// in\n    tag_310:\n      swap2\n      pop\n      pop\n        /* \"Launchpad v2.0/QubeBalance.sol\":3776:3870  for (uint i=0;i<=100;i++){... */\n      jump(tag_301)\n    tag_302:\n      pop\n        /* \"Launchpad v2.0/QubeBalance.sol\":3886:3893  balance */\n      dup1\n        /* \"Launchpad v2.0/QubeBalance.sol\":3879:3893  return balance */\n      swap2\n      pop\n      pop\n        /* \"Launchpad v2.0/QubeBalance.sol\":3462:3900  function getNFTBalance(address walletAddress)public view returns (uint256){... */\n      swap2\n      swap1\n      pop\n      jump\t// out\n        /* \"Launchpad v2.0/QubeBalance.sol\":1069:1092  IERC1155 public diamond */\n    tag_128:\n      0x07\n      0x00\n      swap1\n      sload\n      swap1\n      0x0100\n      exp\n      swap1\n      div\n      0xffffffffffffffffffffffffffffffffffffffff\n      and\n      dup2\n      jump\t// out\n        /* \"Launchpad v2.0/Ownable.sol\":1853:2042  function transferOwnership(address newOwner) public virtual onlyOwner {... */\n    tag_132:\n        /* \"Launchpad v2.0/Ownable.sol\":1203:1215  _msgSender() */\n      tag_312\n        /* \"Launchpad v2.0/Ownable.sol\":1203:1213  _msgSender */\n      tag_141\n        /* \"Launchpad v2.0/Ownable.sol\":1203:1215  _msgSender() */\n      jump\t// in\n    tag_312:\n        /* \"Launchpad v2.0/Ownable.sol\":1192:1215  owner() == _msgSender() */\n      0xffffffffffffffffffffffffffffffffffffffff\n      and\n        /* \"Launchpad v2.0/Ownable.sol\":1192:1199  owner() */\n      tag_313\n        /* \"Launchpad v2.0/Ownable.sol\":1192:1197  owner */\n      tag_112\n        /* \"Launchpad v2.0/Ownable.sol\":1192:1199  owner() */\n      jump\t// in\n    tag_313:\n        /* \"Launchpad v2.0/Ownable.sol\":1192:1215  owner() == _msgSender() */\n      0xffffffffffffffffffffffffffffffffffffffff\n      and\n      eq\n        /* \"Launchpad v2.0/Ownable.sol\":1184:1252  require(owner() == _msgSender(), \"Ownable: caller is not the owner\") */\n      tag_314\n      jumpi\n      mload(0x40)\n      0x08c379a000000000000000000000000000000000000000000000000000000000\n      dup2\n      mstore\n      0x04\n      add\n      tag_315\n      swap1\n      tag_145\n      jump\t// in\n    tag_315:\n      mload(0x40)\n      dup1\n      swap2\n      sub\n      swap1\n      revert\n    tag_314:\n        /* \"Launchpad v2.0/Ownable.sol\":1961:1962  0 */\n      0x00\n        /* \"Launchpad v2.0/Ownable.sol\":1941:1963  newOwner != address(0) */\n      0xffffffffffffffffffffffffffffffffffffffff\n      and\n        /* \"Launchpad v2.0/Ownable.sol\":1941:1949  newOwner */\n      dup2\n        /* \"Launchpad v2.0/Ownable.sol\":1941:1963  newOwner != address(0) */\n      0xffffffffffffffffffffffffffffffffffffffff\n      and\n      eq\n      iszero\n        /* \"Launchpad v2.0/Ownable.sol\":1933:2006  require(newOwner != address(0), \"Ownable: new owner is the zero address\") */\n      tag_317\n      jumpi\n      mload(0x40)\n      0x08c379a000000000000000000000000000000000000000000000000000000000\n      dup2\n      mstore\n      0x04\n      add\n      tag_318\n      swap1\n      tag_319\n      jump\t// in\n    tag_318:\n      mload(0x40)\n      dup1\n      swap2\n      sub\n      swap1\n      revert\n    tag_317:\n        /* \"Launchpad v2.0/Ownable.sol\":2016:2035  _setOwner(newOwner) */\n      tag_320\n        /* \"Launchpad v2.0/Ownable.sol\":2026:2034  newOwner */\n      dup2\n        /* \"Launchpad v2.0/Ownable.sol\":2016:2025  _setOwner */\n      tag_255\n        /* \"Launchpad v2.0/Ownable.sol\":2016:2035  _setOwner(newOwner) */\n      jump\t// in\n    tag_320:\n        /* \"Launchpad v2.0/Ownable.sol\":1853:2042  function transferOwnership(address newOwner) public virtual onlyOwner {... */\n      pop\n      jump\t// out\n        /* \"Launchpad v2.0/QubeBalance.sol\":2111:2195  function setSilver(IERC1155 _silver) public onlyOwner{... */\n    tag_135:\n        /* \"Launchpad v2.0/Ownable.sol\":1203:1215  _msgSender() */\n      tag_322\n        /* \"Launchpad v2.0/Ownable.sol\":1203:1213  _msgSender */\n      tag_141\n        /* \"Launchpad v2.0/Ownable.sol\":1203:1215  _msgSender() */\n      jump\t// in\n    tag_322:\n        /* \"Launchpad v2.0/Ownable.sol\":1192:1215  owner() == _msgSender() */\n      0xffffffffffffffffffffffffffffffffffffffff\n      and\n        /* \"Launchpad v2.0/Ownable.sol\":1192:1199  owner() */\n      tag_323\n        /* \"Launchpad v2.0/Ownable.sol\":1192:1197  owner */\n      tag_112\n        /* \"Launchpad v2.0/Ownable.sol\":1192:1199  owner() */\n      jump\t// in\n    tag_323:\n        /* \"Launchpad v2.0/Ownable.sol\":1192:1215  owner() == _msgSender() */\n      0xffffffffffffffffffffffffffffffffffffffff\n      and\n      eq\n        /* \"Launchpad v2.0/Ownable.sol\":1184:1252  require(owner() == _msgSender(), \"Ownable: caller is not the owner\") */\n      tag_324\n      jumpi\n      mload(0x40)\n      0x08c379a000000000000000000000000000000000000000000000000000000000\n      dup2\n      mstore\n      0x04\n      add\n      tag_325\n      swap1\n      tag_145\n      jump\t// in\n    tag_325:\n      mload(0x40)\n      dup1\n      swap2\n      sub\n      swap1\n      revert\n    tag_324:\n        /* \"Launchpad v2.0/QubeBalance.sol\":2181:2188  _silver */\n      dup1\n        /* \"Launchpad v2.0/QubeBalance.sol\":2174:2180  silver */\n      0x05\n      0x00\n        /* \"Launchpad v2.0/QubeBalance.sol\":2174:2188  silver=_silver */\n      0x0100\n      exp\n      dup2\n      sload\n      dup2\n      0xffffffffffffffffffffffffffffffffffffffff\n      mul\n      not\n      and\n      swap1\n      dup4\n      0xffffffffffffffffffffffffffffffffffffffff\n      and\n      mul\n      or\n      swap1\n      sstore\n      pop\n        /* \"Launchpad v2.0/QubeBalance.sol\":2111:2195  function setSilver(IERC1155 _silver) public onlyOwner{... */\n      pop\n      jump\t// out\n        /* \"Launchpad v2.0/QubeBalance.sol\":1043:1063  IERC1155 public gold */\n    tag_137:\n      0x06\n      0x00\n      swap1\n      sload\n      swap1\n      0x0100\n      exp\n      swap1\n      div\n      0xffffffffffffffffffffffffffffffffffffffff\n      and\n      dup2\n      jump\t// out\n        /* \"Launchpad v2.0/Context.sol\":600:696  function _msgSender() internal view virtual returns (address) {... */\n    tag_141:\n        /* \"Launchpad v2.0/Context.sol\":653:660  address */\n      0x00\n        /* \"Launchpad v2.0/Context.sol\":679:689  msg.sender */\n      caller\n        /* \"Launchpad v2.0/Context.sol\":672:689  return msg.sender */\n      swap1\n      pop\n        /* \"Launchpad v2.0/Context.sol\":600:696  function _msgSender() internal view virtual returns (address) {... */\n      swap1\n      jump\t// out\n        /* \"Launchpad v2.0/SafeMath.sol\":3791:3887  function div(uint256 a, uint256 b) internal pure returns (uint256) {... */\n    tag_213:\n        /* \"Launchpad v2.0/SafeMath.sol\":3849:3856  uint256 */\n      0x00\n        /* \"Launchpad v2.0/SafeMath.sol\":3879:3880  b */\n      dup2\n        /* \"Launchpad v2.0/SafeMath.sol\":3875:3876  a */\n      dup4\n        /* \"Launchpad v2.0/SafeMath.sol\":3875:3880  a / b */\n      tag_329\n      swap2\n      swap1\n      tag_330\n      jump\t// in\n    tag_329:\n        /* \"Launchpad v2.0/SafeMath.sol\":3868:3880  return a / b */\n      swap1\n      pop\n        /* \"Launchpad v2.0/SafeMath.sol\":3791:3887  function div(uint256 a, uint256 b) internal pure returns (uint256) {... */\n      swap3\n      swap2\n      pop\n      pop\n      jump\t// out\n        /* \"Launchpad v2.0/SafeMath.sol\":3406:3502  function mul(uint256 a, uint256 b) internal pure returns (uint256) {... */\n    tag_220:\n        /* \"Launchpad v2.0/SafeMath.sol\":3464:3471  uint256 */\n      0x00\n        /* \"Launchpad v2.0/SafeMath.sol\":3494:3495  b */\n      dup2\n        /* \"Launchpad v2.0/SafeMath.sol\":3490:3491  a */\n      dup4\n        /* \"Launchpad v2.0/SafeMath.sol\":3490:3495  a * b */\n      tag_332\n      swap2\n      swap1\n      tag_333\n      jump\t// in\n    tag_332:\n        /* \"Launchpad v2.0/SafeMath.sol\":3483:3495  return a * b */\n      swap1\n      pop\n        /* \"Launchpad v2.0/SafeMath.sol\":3406:3502  function mul(uint256 a, uint256 b) internal pure returns (uint256) {... */\n      swap3\n      swap2\n      pop\n      pop\n      jump\t// out\n        /* \"Launchpad v2.0/Ownable.sol\":2048:2218  function _setOwner(address newOwner) internal {... */\n    tag_255:\n        /* \"Launchpad v2.0/Ownable.sol\":2104:2120  address oldOwner */\n      0x00\n        /* \"Launchpad v2.0/Ownable.sol\":2123:2129  _owner */\n      dup1\n      0x00\n      swap1\n      sload\n      swap1\n      0x0100\n      exp\n      swap1\n      div\n      0xffffffffffffffffffffffffffffffffffffffff\n      and\n        /* \"Launchpad v2.0/Ownable.sol\":2104:2129  address oldOwner = _owner */\n      swap1\n      pop\n        /* \"Launchpad v2.0/Ownable.sol\":2148:2156  newOwner */\n      dup2\n        /* \"Launchpad v2.0/Ownable.sol\":2139:2145  _owner */\n      0x00\n      dup1\n        /* \"Launchpad v2.0/Ownable.sol\":2139:2156  _owner = newOwner */\n      0x0100\n      exp\n      dup2\n      sload\n      dup2\n      0xffffffffffffffffffffffffffffffffffffffff\n      mul\n      not\n      and\n      swap1\n      dup4\n      0xffffffffffffffffffffffffffffffffffffffff\n      and\n      mul\n      or\n      swap1\n      sstore\n      pop\n        /* \"Launchpad v2.0/Ownable.sol\":2202:2210  newOwner */\n      dup2\n        /* \"Launchpad v2.0/Ownable.sol\":2171:2211  OwnershipTransferred(oldOwner, newOwner) */\n      0xffffffffffffffffffffffffffffffffffffffff\n      and\n        /* \"Launchpad v2.0/Ownable.sol\":2192:2200  oldOwner */\n      dup2\n        /* \"Launchpad v2.0/Ownable.sol\":2171:2211  OwnershipTransferred(oldOwner, newOwner) */\n      0xffffffffffffffffffffffffffffffffffffffff\n      and\n      0x8be0079c531659141344cd1fd0a4f28419497f9722a3daafe3b4186f6b6457e0\n      mload(0x40)\n      mload(0x40)\n      dup1\n      swap2\n      sub\n      swap1\n      log3\n        /* \"Launchpad v2.0/Ownable.sol\":2094:2218  {... */\n      pop\n        /* \"Launchpad v2.0/Ownable.sol\":2048:2218  function _setOwner(address newOwner) internal {... */\n      pop\n      jump\t// out\n        /* \"#utility.yul\":24:768   */\n    tag_336:\n        /* \"#utility.yul\":131:136   */\n      0x00\n        /* \"#utility.yul\":156:237   */\n      tag_338\n        /* \"#utility.yul\":172:236   */\n      tag_339\n        /* \"#utility.yul\":229:235   */\n      dup5\n        /* \"#utility.yul\":172:236   */\n      tag_340\n      jump\t// in\n    tag_339:\n        /* \"#utility.yul\":156:237   */\n      tag_341\n      jump\t// in\n    tag_338:\n        /* \"#utility.yul\":147:237   */\n      swap1\n      pop\n        /* \"#utility.yul\":257:262   */\n      dup1\n        /* \"#utility.yul\":286:292   */\n      dup4\n        /* \"#utility.yul\":279:284   */\n      dup3\n        /* \"#utility.yul\":272:293   */\n      mstore\n        /* \"#utility.yul\":320:324   */\n      0x20\n        /* \"#utility.yul\":313:318   */\n      dup3\n        /* \"#utility.yul\":309:325   */\n      add\n        /* \"#utility.yul\":302:325   */\n      swap1\n      pop\n        /* \"#utility.yul\":346:352   */\n      dup3\n        /* \"#utility.yul\":396:399   */\n      dup6\n        /* \"#utility.yul\":388:392   */\n      0x20\n        /* \"#utility.yul\":380:386   */\n      dup7\n        /* \"#utility.yul\":376:393   */\n      mul\n        /* \"#utility.yul\":371:374   */\n      dup3\n        /* \"#utility.yul\":367:394   */\n      add\n        /* \"#utility.yul\":364:400   */\n      gt\n        /* \"#utility.yul\":361:504   */\n      iszero\n      tag_342\n      jumpi\n        /* \"#utility.yul\":415:494   */\n      tag_343\n      tag_344\n      jump\t// in\n    tag_343:\n        /* \"#utility.yul\":361:504   */\n    tag_342:\n        /* \"#utility.yul\":528:529   */\n      0x00\n        /* \"#utility.yul\":513:762   */\n    tag_345:\n        /* \"#utility.yul\":538:544   */\n      dup6\n        /* \"#utility.yul\":535:536   */\n      dup2\n        /* \"#utility.yul\":532:545   */\n      lt\n        /* \"#utility.yul\":513:762   */\n      iszero\n      tag_347\n      jumpi\n        /* \"#utility.yul\":606:609   */\n      dup2\n        /* \"#utility.yul\":635:683   */\n      tag_348\n        /* \"#utility.yul\":679:682   */\n      dup9\n        /* \"#utility.yul\":667:677   */\n      dup3\n        /* \"#utility.yul\":635:683   */\n      tag_349\n      jump\t// in\n    tag_348:\n        /* \"#utility.yul\":630:633   */\n      dup5\n        /* \"#utility.yul\":623:684   */\n      mstore\n        /* \"#utility.yul\":713:717   */\n      0x20\n        /* \"#utility.yul\":708:711   */\n      dup5\n        /* \"#utility.yul\":704:718   */\n      add\n        /* \"#utility.yul\":697:718   */\n      swap4\n      pop\n        /* \"#utility.yul\":747:751   */\n      0x20\n        /* \"#utility.yul\":742:745   */\n      dup4\n        /* \"#utility.yul\":738:752   */\n      add\n        /* \"#utility.yul\":731:752   */\n      swap3\n      pop\n        /* \"#utility.yul\":573:762   */\n      pop\n        /* \"#utility.yul\":560:561   */\n      0x01\n        /* \"#utility.yul\":557:558   */\n      dup2\n        /* \"#utility.yul\":553:562   */\n      add\n        /* \"#utility.yul\":548:562   */\n      swap1\n      pop\n        /* \"#utility.yul\":513:762   */\n      jump(tag_345)\n    tag_347:\n        /* \"#utility.yul\":517:531   */\n      pop\n        /* \"#utility.yul\":137:768   */\n      pop\n      pop\n        /* \"#utility.yul\":24:768   */\n      swap4\n      swap3\n      pop\n      pop\n      pop\n      jump\t// out\n        /* \"#utility.yul\":774:913   */\n    tag_350:\n        /* \"#utility.yul\":820:825   */\n      0x00\n        /* \"#utility.yul\":858:864   */\n      dup2\n        /* \"#utility.yul\":845:865   */\n      calldataload\n        /* \"#utility.yul\":836:865   */\n      swap1\n      pop\n        /* \"#utility.yul\":874:907   */\n      tag_352\n        /* \"#utility.yul\":901:906   */\n      dup2\n        /* \"#utility.yul\":874:907   */\n      tag_353\n      jump\t// in\n    tag_352:\n        /* \"#utility.yul\":774:913   */\n      swap3\n      swap2\n      pop\n      pop\n      jump\t// out\n        /* \"#utility.yul\":919:1062   */\n    tag_354:\n        /* \"#utility.yul\":976:981   */\n      0x00\n        /* \"#utility.yul\":1007:1013   */\n      dup2\n        /* \"#utility.yul\":1001:1014   */\n      mload\n        /* \"#utility.yul\":992:1014   */\n      swap1\n      pop\n        /* \"#utility.yul\":1023:1056   */\n      tag_356\n        /* \"#utility.yul\":1050:1055   */\n      dup2\n        /* \"#utility.yul\":1023:1056   */\n      tag_353\n      jump\t// in\n    tag_356:\n        /* \"#utility.yul\":919:1062   */\n      swap3\n      swap2\n      pop\n      pop\n      jump\t// out\n        /* \"#utility.yul\":1085:1470   */\n    tag_357:\n        /* \"#utility.yul\":1167:1172   */\n      0x00\n        /* \"#utility.yul\":1216:1219   */\n      dup3\n        /* \"#utility.yul\":1209:1213   */\n      0x1f\n        /* \"#utility.yul\":1201:1207   */\n      dup4\n        /* \"#utility.yul\":1197:1214   */\n      add\n        /* \"#utility.yul\":1193:1220   */\n      slt\n        /* \"#utility.yul\":1183:1305   */\n      tag_359\n      jumpi\n        /* \"#utility.yul\":1224:1303   */\n      tag_360\n      tag_361\n      jump\t// in\n    tag_360:\n        /* \"#utility.yul\":1183:1305   */\n    tag_359:\n        /* \"#utility.yul\":1334:1340   */\n      dup2\n        /* \"#utility.yul\":1328:1341   */\n      mload\n        /* \"#utility.yul\":1359:1464   */\n      tag_362\n        /* \"#utility.yul\":1460:1463   */\n      dup5\n        /* \"#utility.yul\":1452:1458   */\n      dup3\n        /* \"#utility.yul\":1445:1449   */\n      0x20\n        /* \"#utility.yul\":1437:1443   */\n      dup7\n        /* \"#utility.yul\":1433:1450   */\n      add\n        /* \"#utility.yul\":1359:1464   */\n      tag_336\n      jump\t// in\n    tag_362:\n        /* \"#utility.yul\":1350:1464   */\n      swap2\n      pop\n        /* \"#utility.yul\":1173:1470   */\n      pop\n        /* \"#utility.yul\":1085:1470   */\n      swap3\n      swap2\n      pop\n      pop\n      jump\t// out\n        /* \"#utility.yul\":1476:1643   */\n    tag_363:\n        /* \"#utility.yul\":1536:1541   */\n      0x00\n        /* \"#utility.yul\":1574:1580   */\n      dup2\n        /* \"#utility.yul\":1561:1581   */\n      calldataload\n        /* \"#utility.yul\":1552:1581   */\n      swap1\n      pop\n        /* \"#utility.yul\":1590:1637   */\n      tag_365\n        /* \"#utility.yul\":1631:1636   */\n      dup2\n        /* \"#utility.yul\":1590:1637   */\n      tag_366\n      jump\t// in\n    tag_365:\n        /* \"#utility.yul\":1476:1643   */\n      swap3\n      swap2\n      pop\n      pop\n      jump\t// out\n        /* \"#utility.yul\":1649:1820   */\n    tag_367:\n        /* \"#utility.yul\":1711:1716   */\n      0x00\n        /* \"#utility.yul\":1749:1755   */\n      dup2\n        /* \"#utility.yul\":1736:1756   */\n      calldataload\n        /* \"#utility.yul\":1727:1756   */\n      swap1\n      pop\n        /* \"#utility.yul\":1765:1814   */\n      tag_369\n        /* \"#utility.yul\":1808:1813   */\n      dup2\n        /* \"#utility.yul\":1765:1814   */\n      tag_370\n      jump\t// in\n    tag_369:\n        /* \"#utility.yul\":1649:1820   */\n      swap3\n      swap2\n      pop\n      pop\n      jump\t// out\n        /* \"#utility.yul\":1826:2005   */\n    tag_371:\n        /* \"#utility.yul\":1892:1897   */\n      0x00\n        /* \"#utility.yul\":1930:1936   */\n      dup2\n        /* \"#utility.yul\":1917:1937   */\n      calldataload\n        /* \"#utility.yul\":1908:1937   */\n      swap1\n      pop\n        /* \"#utility.yul\":1946:1999   */\n      tag_373\n        /* \"#utility.yul\":1993:1998   */\n      dup2\n        /* \"#utility.yul\":1946:1999   */\n      tag_374\n      jump\t// in\n    tag_373:\n        /* \"#utility.yul\":1826:2005   */\n      swap3\n      swap2\n      pop\n      pop\n      jump\t// out\n        /* \"#utility.yul\":2011:2190   */\n    tag_375:\n        /* \"#utility.yul\":2077:2082   */\n      0x00\n        /* \"#utility.yul\":2115:2121   */\n      dup2\n        /* \"#utility.yul\":2102:2122   */\n      calldataload\n        /* \"#utility.yul\":2093:2122   */\n      swap1\n      pop\n        /* \"#utility.yul\":2131:2184   */\n      tag_377\n        /* \"#utility.yul\":2178:2183   */\n      dup2\n        /* \"#utility.yul\":2131:2184   */\n      tag_378\n      jump\t// in\n    tag_377:\n        /* \"#utility.yul\":2011:2190   */\n      swap3\n      swap2\n      pop\n      pop\n      jump\t// out\n        /* \"#utility.yul\":2196:2385   */\n    tag_379:\n        /* \"#utility.yul\":2267:2272   */\n      0x00\n        /* \"#utility.yul\":2305:2311   */\n      dup2\n        /* \"#utility.yul\":2292:2312   */\n      calldataload\n        /* \"#utility.yul\":2283:2312   */\n      swap1\n      pop\n        /* \"#utility.yul\":2321:2379   */\n      tag_381\n        /* \"#utility.yul\":2373:2378   */\n      dup2\n        /* \"#utility.yul\":2321:2379   */\n      tag_382\n      jump\t// in\n    tag_381:\n        /* \"#utility.yul\":2196:2385   */\n      swap3\n      swap2\n      pop\n      pop\n      jump\t// out\n        /* \"#utility.yul\":2431:3758   */\n    tag_383:\n        /* \"#utility.yul\":2517:2522   */\n      0x00\n        /* \"#utility.yul\":2561:2565   */\n      0xc0\n        /* \"#utility.yul\":2549:2558   */\n      dup3\n        /* \"#utility.yul\":2544:2547   */\n      dup5\n        /* \"#utility.yul\":2540:2559   */\n      sub\n        /* \"#utility.yul\":2536:2566   */\n      slt\n        /* \"#utility.yul\":2533:2650   */\n      iszero\n      tag_385\n      jumpi\n        /* \"#utility.yul\":2569:2648   */\n      tag_386\n      tag_387\n      jump\t// in\n    tag_386:\n        /* \"#utility.yul\":2533:2650   */\n    tag_385:\n        /* \"#utility.yul\":2668:2689   */\n      tag_388\n        /* \"#utility.yul\":2684:2688   */\n      0xc0\n        /* \"#utility.yul\":2668:2689   */\n      tag_341\n      jump\t// in\n    tag_388:\n        /* \"#utility.yul\":2659:2689   */\n      swap1\n      pop\n        /* \"#utility.yul\":2748:2749   */\n      0x00\n        /* \"#utility.yul\":2788:2848   */\n      tag_389\n        /* \"#utility.yul\":2844:2847   */\n      dup5\n        /* \"#utility.yul\":2835:2841   */\n      dup3\n        /* \"#utility.yul\":2824:2833   */\n      dup6\n        /* \"#utility.yul\":2820:2842   */\n      add\n        /* \"#utility.yul\":2788:2848   */\n      tag_354\n      jump\t// in\n    tag_389:\n        /* \"#utility.yul\":2781:2785   */\n      0x00\n        /* \"#utility.yul\":2774:2779   */\n      dup4\n        /* \"#utility.yul\":2770:2786   */\n      add\n        /* \"#utility.yul\":2763:2849   */\n      mstore\n        /* \"#utility.yul\":2699:2860   */\n      pop\n        /* \"#utility.yul\":2924:2926   */\n      0x20\n        /* \"#utility.yul\":2965:3025   */\n      tag_390\n        /* \"#utility.yul\":3021:3024   */\n      dup5\n        /* \"#utility.yul\":3012:3018   */\n      dup3\n        /* \"#utility.yul\":3001:3010   */\n      dup6\n        /* \"#utility.yul\":2997:3019   */\n      add\n        /* \"#utility.yul\":2965:3025   */\n      tag_349\n      jump\t// in\n    tag_390:\n        /* \"#utility.yul\":2958:2962   */\n      0x20\n        /* \"#utility.yul\":2951:2956   */\n      dup4\n        /* \"#utility.yul\":2947:2963   */\n      add\n        /* \"#utility.yul\":2940:3026   */\n      mstore\n        /* \"#utility.yul\":2870:3037   */\n      pop\n        /* \"#utility.yul\":3100:3102   */\n      0x40\n        /* \"#utility.yul\":3141:3201   */\n      tag_391\n        /* \"#utility.yul\":3197:3200   */\n      dup5\n        /* \"#utility.yul\":3188:3194   */\n      dup3\n        /* \"#utility.yul\":3177:3186   */\n      dup6\n        /* \"#utility.yul\":3173:3195   */\n      add\n        /* \"#utility.yul\":3141:3201   */\n      tag_349\n      jump\t// in\n    tag_391:\n        /* \"#utility.yul\":3134:3138   */\n      0x40\n        /* \"#utility.yul\":3127:3132   */\n      dup4\n        /* \"#utility.yul\":3123:3139   */\n      add\n        /* \"#utility.yul\":3116:3202   */\n      mstore\n        /* \"#utility.yul\":3047:3213   */\n      pop\n        /* \"#utility.yul\":3277:3279   */\n      0x60\n        /* \"#utility.yul\":3318:3378   */\n      tag_392\n        /* \"#utility.yul\":3374:3377   */\n      dup5\n        /* \"#utility.yul\":3365:3371   */\n      dup3\n        /* \"#utility.yul\":3354:3363   */\n      dup6\n        /* \"#utility.yul\":3350:3372   */\n      add\n        /* \"#utility.yul\":3318:3378   */\n      tag_349\n      jump\t// in\n    tag_392:\n        /* \"#utility.yul\":3311:3315   */\n      0x60\n        /* \"#utility.yul\":3304:3309   */\n      dup4\n        /* \"#utility.yul\":3300:3316   */\n      add\n        /* \"#utility.yul\":3293:3379   */\n      mstore\n        /* \"#utility.yul\":3223:3390   */\n      pop\n        /* \"#utility.yul\":3456:3459   */\n      0x80\n        /* \"#utility.yul\":3498:3558   */\n      tag_393\n        /* \"#utility.yul\":3554:3557   */\n      dup5\n        /* \"#utility.yul\":3545:3551   */\n      dup3\n        /* \"#utility.yul\":3534:3543   */\n      dup6\n        /* \"#utility.yul\":3530:3552   */\n      add\n        /* \"#utility.yul\":3498:3558   */\n      tag_349\n      jump\t// in\n    tag_393:\n        /* \"#utility.yul\":3491:3495   */\n      0x80\n        /* \"#utility.yul\":3484:3489   */\n      dup4\n        /* \"#utility.yul\":3480:3496   */\n      add\n        /* \"#utility.yul\":3473:3559   */\n      mstore\n        /* \"#utility.yul\":3400:3570   */\n      pop\n        /* \"#utility.yul\":3637:3640   */\n      0xa0\n        /* \"#utility.yul\":3679:3739   */\n      tag_394\n        /* \"#utility.yul\":3735:3738   */\n      dup5\n        /* \"#utility.yul\":3726:3732   */\n      dup3\n        /* \"#utility.yul\":3715:3724   */\n      dup6\n        /* \"#utility.yul\":3711:3733   */\n      add\n        /* \"#utility.yul\":3679:3739   */\n      tag_349\n      jump\t// in\n    tag_394:\n        /* \"#utility.yul\":3672:3676   */\n      0xa0\n        /* \"#utility.yul\":3665:3670   */\n      dup4\n        /* \"#utility.yul\":3661:3677   */\n      add\n        /* \"#utility.yul\":3654:3740   */\n      mstore\n        /* \"#utility.yul\":3580:3751   */\n      pop\n        /* \"#utility.yul\":2431:3758   */\n      swap3\n      swap2\n      pop\n      pop\n      jump\t// out\n        /* \"#utility.yul\":3764:3907   */\n    tag_395:\n        /* \"#utility.yul\":3821:3826   */\n      0x00\n        /* \"#utility.yul\":3852:3858   */\n      dup2\n        /* \"#utility.yul\":3846:3859   */\n      mload\n        /* \"#utility.yul\":3837:3859   */\n      swap1\n      pop\n        /* \"#utility.yul\":3868:3901   */\n      tag_397\n        /* \"#utility.yul\":3895:3900   */\n      dup2\n        /* \"#utility.yul\":3868:3901   */\n      tag_398\n      jump\t// in\n    tag_397:\n        /* \"#utility.yul\":3764:3907   */\n      swap3\n      swap2\n      pop\n      pop\n      jump\t// out\n        /* \"#utility.yul\":3913:4052   */\n    tag_399:\n        /* \"#utility.yul\":3959:3964   */\n      0x00\n        /* \"#utility.yul\":3997:4003   */\n      dup2\n        /* \"#utility.yul\":3984:4004   */\n      calldataload\n        /* \"#utility.yul\":3975:4004   */\n      swap1\n      pop\n        /* \"#utility.yul\":4013:4046   */\n      tag_401\n        /* \"#utility.yul\":4040:4045   */\n      dup2\n        /* \"#utility.yul\":4013:4046   */\n      tag_402\n      jump\t// in\n    tag_401:\n        /* \"#utility.yul\":3913:4052   */\n      swap3\n      swap2\n      pop\n      pop\n      jump\t// out\n        /* \"#utility.yul\":4058:4201   */\n    tag_349:\n        /* \"#utility.yul\":4115:4120   */\n      0x00\n        /* \"#utility.yul\":4146:4152   */\n      dup2\n        /* \"#utility.yul\":4140:4153   */\n      mload\n        /* \"#utility.yul\":4131:4153   */\n      swap1\n      pop\n        /* \"#utility.yul\":4162:4195   */\n      tag_404\n        /* \"#utility.yul\":4189:4194   */\n      dup2\n        /* \"#utility.yul\":4162:4195   */\n      tag_402\n      jump\t// in\n    tag_404:\n        /* \"#utility.yul\":4058:4201   */\n      swap3\n      swap2\n      pop\n      pop\n      jump\t// out\n        /* \"#utility.yul\":4207:4348   */\n    tag_405:\n        /* \"#utility.yul\":4263:4268   */\n      0x00\n        /* \"#utility.yul\":4294:4300   */\n      dup2\n        /* \"#utility.yul\":4288:4301   */\n      mload\n        /* \"#utility.yul\":4279:4301   */\n      swap1\n      pop\n        /* \"#utility.yul\":4310:4342   */\n      tag_407\n        /* \"#utility.yul\":4336:4341   */\n      dup2\n        /* \"#utility.yul\":4310:4342   */\n      tag_408\n      jump\t// in\n    tag_407:\n        /* \"#utility.yul\":4207:4348   */\n      swap3\n      swap2\n      pop\n      pop\n      jump\t// out\n        /* \"#utility.yul\":4354:4683   */\n    tag_38:\n        /* \"#utility.yul\":4413:4419   */\n      0x00\n        /* \"#utility.yul\":4462:4464   */\n      0x20\n        /* \"#utility.yul\":4450:4459   */\n      dup3\n        /* \"#utility.yul\":4441:4448   */\n      dup5\n        /* \"#utility.yul\":4437:4460   */\n      sub\n        /* \"#utility.yul\":4433:4465   */\n      slt\n        /* \"#utility.yul\":4430:4549   */\n      iszero\n      tag_410\n      jumpi\n        /* \"#utility.yul\":4468:4547   */\n      tag_411\n      tag_412\n      jump\t// in\n    tag_411:\n        /* \"#utility.yul\":4430:4549   */\n    tag_410:\n        /* \"#utility.yul\":4588:4589   */\n      0x00\n        /* \"#utility.yul\":4613:4666   */\n      tag_413\n        /* \"#utility.yul\":4658:4665   */\n      dup5\n        /* \"#utility.yul\":4649:4655   */\n      dup3\n        /* \"#utility.yul\":4638:4647   */\n      dup6\n        /* \"#utility.yul\":4634:4656   */\n      add\n        /* \"#utility.yul\":4613:4666   */\n      tag_350\n      jump\t// in\n    tag_413:\n        /* \"#utility.yul\":4603:4666   */\n      swap2\n      pop\n        /* \"#utility.yul\":4559:4676   */\n      pop\n        /* \"#utility.yul\":4354:4683   */\n      swap3\n      swap2\n      pop\n      pop\n      jump\t// out\n        /* \"#utility.yul\":4689:5163   */\n    tag_89:\n        /* \"#utility.yul\":4757:4763   */\n      0x00\n        /* \"#utility.yul\":4765:4771   */\n      dup1\n        /* \"#utility.yul\":4814:4816   */\n      0x40\n        /* \"#utility.yul\":4802:4811   */\n      dup4\n        /* \"#utility.yul\":4793:4800   */\n      dup6\n        /* \"#utility.yul\":4789:4812   */\n      sub\n        /* \"#utility.yul\":4785:4817   */\n      slt\n        /* \"#utility.yul\":4782:4901   */\n      iszero\n      tag_415\n      jumpi\n        /* \"#utility.yul\":4820:4899   */\n      tag_416\n      tag_412\n      jump\t// in\n    tag_416:\n        /* \"#utility.yul\":4782:4901   */\n    tag_415:\n        /* \"#utility.yul\":4940:4941   */\n      0x00\n        /* \"#utility.yul\":4965:5018   */\n      tag_417\n        /* \"#utility.yul\":5010:5017   */\n      dup6\n        /* \"#utility.yul\":5001:5007   */\n      dup3\n        /* \"#utility.yul\":4990:4999   */\n      dup7\n        /* \"#utility.yul\":4986:5008   */\n      add\n        /* \"#utility.yul\":4965:5018   */\n      tag_350\n      jump\t// in\n    tag_417:\n        /* \"#utility.yul\":4955:5018   */\n      swap3\n      pop\n        /* \"#utility.yul\":4911:5028   */\n      pop\n        /* \"#utility.yul\":5067:5069   */\n      0x20\n        /* \"#utility.yul\":5093:5146   */\n      tag_418\n        /* \"#utility.yul\":5138:5145   */\n      dup6\n        /* \"#utility.yul\":5129:5135   */\n      dup3\n        /* \"#utility.yul\":5118:5127   */\n      dup7\n        /* \"#utility.yul\":5114:5136   */\n      add\n        /* \"#utility.yul\":5093:5146   */\n      tag_399\n      jump\t// in\n    tag_418:\n        /* \"#utility.yul\":5083:5146   */\n      swap2\n      pop\n        /* \"#utility.yul\":5038:5156   */\n      pop\n        /* \"#utility.yul\":4689:5163   */\n      swap3\n      pop\n      swap3\n      swap1\n      pop\n      jump\t// out\n        /* \"#utility.yul\":5169:5723   */\n    tag_187:\n        /* \"#utility.yul\":5264:5270   */\n      0x00\n        /* \"#utility.yul\":5313:5315   */\n      0x20\n        /* \"#utility.yul\":5301:5310   */\n      dup3\n        /* \"#utility.yul\":5292:5299   */\n      dup5\n        /* \"#utility.yul\":5288:5311   */\n      sub\n        /* \"#utility.yul\":5284:5316   */\n      slt\n        /* \"#utility.yul\":5281:5400   */\n      iszero\n      tag_420\n      jumpi\n        /* \"#utility.yul\":5319:5398   */\n      tag_421\n      tag_412\n      jump\t// in\n    tag_421:\n        /* \"#utility.yul\":5281:5400   */\n    tag_420:\n        /* \"#utility.yul\":5460:5461   */\n      0x00\n        /* \"#utility.yul\":5449:5458   */\n      dup3\n        /* \"#utility.yul\":5445:5462   */\n      add\n        /* \"#utility.yul\":5439:5463   */\n      mload\n        /* \"#utility.yul\":5490:5508   */\n      0xffffffffffffffff\n        /* \"#utility.yul\":5482:5488   */\n      dup2\n        /* \"#utility.yul\":5479:5509   */\n      gt\n        /* \"#utility.yul\":5476:5593   */\n      iszero\n      tag_422\n      jumpi\n        /* \"#utility.yul\":5512:5591   */\n      tag_423\n      tag_424\n      jump\t// in\n    tag_423:\n        /* \"#utility.yul\":5476:5593   */\n    tag_422:\n        /* \"#utility.yul\":5617:5706   */\n      tag_425\n        /* \"#utility.yul\":5698:5705   */\n      dup5\n        /* \"#utility.yul\":5689:5695   */\n      dup3\n        /* \"#utility.yul\":5678:5687   */\n      dup6\n        /* \"#utility.yul\":5674:5696   */\n      add\n        /* \"#utility.yul\":5617:5706   */\n      tag_357\n      jump\t// in\n    tag_425:\n        /* \"#utility.yul\":5607:5706   */\n      swap2\n      pop\n        /* \"#utility.yul\":5410:5716   */\n      pop\n        /* \"#utility.yul\":5169:5723   */\n      swap3\n      swap2\n      pop\n      pop\n      jump\t// out\n        /* \"#utility.yul\":5729:6086   */\n    tag_52:\n        /* \"#utility.yul\":5802:5808   */\n      0x00\n        /* \"#utility.yul\":5851:5853   */\n      0x20\n        /* \"#utility.yul\":5839:5848   */\n      dup3\n        /* \"#utility.yul\":5830:5837   */\n      dup5\n        /* \"#utility.yul\":5826:5849   */\n      sub\n        /* \"#utility.yul\":5822:5854   */\n      slt\n        /* \"#utility.yul\":5819:5938   */\n      iszero\n      tag_427\n      jumpi\n        /* \"#utility.yul\":5857:5936   */\n      tag_428\n      tag_412\n      jump\t// in\n    tag_428:\n        /* \"#utility.yul\":5819:5938   */\n    tag_427:\n        /* \"#utility.yul\":5977:5978   */\n      0x00\n        /* \"#utility.yul\":6002:6069   */\n      tag_429\n        /* \"#utility.yul\":6061:6068   */\n      dup5\n        /* \"#utility.yul\":6052:6058   */\n      dup3\n        /* \"#utility.yul\":6041:6050   */\n      dup6\n        /* \"#utility.yul\":6037:6059   */\n      add\n        /* \"#utility.yul\":6002:6069   */\n      tag_363\n      jump\t// in\n    tag_429:\n        /* \"#utility.yul\":5992:6069   */\n      swap2\n      pop\n        /* \"#utility.yul\":5948:6079   */\n      pop\n        /* \"#utility.yul\":5729:6086   */\n      swap3\n      swap2\n      pop\n      pop\n      jump\t// out\n        /* \"#utility.yul\":6092:6453   */\n    tag_48:\n        /* \"#utility.yul\":6167:6173   */\n      0x00\n        /* \"#utility.yul\":6216:6218   */\n      0x20\n        /* \"#utility.yul\":6204:6213   */\n      dup3\n        /* \"#utility.yul\":6195:6202   */\n      dup5\n        /* \"#utility.yul\":6191:6214   */\n      sub\n        /* \"#utility.yul\":6187:6219   */\n      slt\n        /* \"#utility.yul\":6184:6303   */\n      iszero\n      tag_431\n      jumpi\n        /* \"#utility.yul\":6222:6301   */\n      tag_432\n      tag_412\n      jump\t// in\n    tag_432:\n        /* \"#utility.yul\":6184:6303   */\n    tag_431:\n        /* \"#utility.yul\":6342:6343   */\n      0x00\n        /* \"#utility.yul\":6367:6436   */\n      tag_433\n        /* \"#utility.yul\":6428:6435   */\n      dup5\n        /* \"#utility.yul\":6419:6425   */\n      dup3\n        /* \"#utility.yul\":6408:6417   */\n      dup6\n        /* \"#utility.yul\":6404:6426   */\n      add\n        /* \"#utility.yul\":6367:6436   */\n      tag_367\n      jump\t// in\n    tag_433:\n        /* \"#utility.yul\":6357:6436   */\n      swap2\n      pop\n        /* \"#utility.yul\":6313:6446   */\n      pop\n        /* \"#utility.yul\":6092:6453   */\n      swap3\n      swap2\n      pop\n      pop\n      jump\t// out\n        /* \"#utility.yul\":6459:6828   */\n    tag_109:\n        /* \"#utility.yul\":6538:6544   */\n      0x00\n        /* \"#utility.yul\":6587:6589   */\n      0x20\n        /* \"#utility.yul\":6575:6584   */\n      dup3\n        /* \"#utility.yul\":6566:6573   */\n      dup5\n        /* \"#utility.yul\":6562:6585   */\n      sub\n        /* \"#utility.yul\":6558:6590   */\n      slt\n        /* \"#utility.yul\":6555:6674   */\n      iszero\n      tag_435\n      jumpi\n        /* \"#utility.yul\":6593:6672   */\n      tag_436\n      tag_412\n      jump\t// in\n    tag_436:\n        /* \"#utility.yul\":6555:6674   */\n    tag_435:\n        /* \"#utility.yul\":6713:6714   */\n      0x00\n        /* \"#utility.yul\":6738:6811   */\n      tag_437\n        /* \"#utility.yul\":6803:6810   */\n      dup5\n        /* \"#utility.yul\":6794:6800   */\n      dup3\n        /* \"#utility.yul\":6783:6792   */\n      dup6\n        /* \"#utility.yul\":6779:6801   */\n      add\n        /* \"#utility.yul\":6738:6811   */\n      tag_371\n      jump\t// in\n    tag_437:\n        /* \"#utility.yul\":6728:6811   */\n      swap2\n      pop\n        /* \"#utility.yul\":6684:6821   */\n      pop\n        /* \"#utility.yul\":6459:6828   */\n      swap3\n      swap2\n      pop\n      pop\n      jump\t// out\n        /* \"#utility.yul\":6834:7203   */\n    tag_61:\n        /* \"#utility.yul\":6913:6919   */\n      0x00\n        /* \"#utility.yul\":6962:6964   */\n      0x20\n        /* \"#utility.yul\":6950:6959   */\n      dup3\n        /* \"#utility.yul\":6941:6948   */\n      dup5\n        /* \"#utility.yul\":6937:6960   */\n      sub\n        /* \"#utility.yul\":6933:6965   */\n      slt\n        /* \"#utility.yul\":6930:7049   */\n      iszero\n      tag_439\n      jumpi\n        /* \"#utility.yul\":6968:7047   */\n      tag_440\n      tag_412\n      jump\t// in\n    tag_440:\n        /* \"#utility.yul\":6930:7049   */\n    tag_439:\n        /* \"#utility.yul\":7088:7089   */\n      0x00\n        /* \"#utility.yul\":7113:7186   */\n      tag_441\n        /* \"#utility.yul\":7178:7185   */\n      dup5\n        /* \"#utility.yul\":7169:7175   */\n      dup3\n        /* \"#utility.yul\":7158:7167   */\n      dup6\n        /* \"#utility.yul\":7154:7176   */\n      add\n        /* \"#utility.yul\":7113:7186   */\n      tag_375\n      jump\t// in\n    tag_441:\n        /* \"#utility.yul\":7103:7186   */\n      swap2\n      pop\n        /* \"#utility.yul\":7059:7196   */\n      pop\n        /* \"#utility.yul\":6834:7203   */\n      swap3\n      swap2\n      pop\n      pop\n      jump\t// out\n        /* \"#utility.yul\":7209:7588   */\n    tag_69:\n        /* \"#utility.yul\":7293:7299   */\n      0x00\n        /* \"#utility.yul\":7342:7344   */\n      0x20\n        /* \"#utility.yul\":7330:7339   */\n      dup3\n        /* \"#utility.yul\":7321:7328   */\n      dup5\n        /* \"#utility.yul\":7317:7340   */\n      sub\n        /* \"#utility.yul\":7313:7345   */\n      slt\n        /* \"#utility.yul\":7310:7429   */\n      iszero\n      tag_443\n      jumpi\n        /* \"#utility.yul\":7348:7427   */\n      tag_444\n      tag_412\n      jump\t// in\n    tag_444:\n        /* \"#utility.yul\":7310:7429   */\n    tag_443:\n        /* \"#utility.yul\":7468:7469   */\n      0x00\n        /* \"#utility.yul\":7493:7571   */\n      tag_445\n        /* \"#utility.yul\":7563:7570   */\n      dup5\n        /* \"#utility.yul\":7554:7560   */\n      dup3\n        /* \"#utility.yul\":7543:7552   */\n      dup6\n        /* \"#utility.yul\":7539:7561   */\n      add\n        /* \"#utility.yul\":7493:7571   */\n      tag_379\n      jump\t// in\n    tag_445:\n        /* \"#utility.yul\":7483:7571   */\n      swap2\n      pop\n        /* \"#utility.yul\":7439:7581   */\n      pop\n        /* \"#utility.yul\":7209:7588   */\n      swap3\n      swap2\n      pop\n      pop\n      jump\t// out\n        /* \"#utility.yul\":7594:7998   */\n    tag_196:\n        /* \"#utility.yul\":7690:7696   */\n      0x00\n        /* \"#utility.yul\":7739:7742   */\n      0xc0\n        /* \"#utility.yul\":7727:7736   */\n      dup3\n        /* \"#utility.yul\":7718:7725   */\n      dup5\n        /* \"#utility.yul\":7714:7737   */\n      sub\n        /* \"#utility.yul\":7710:7743   */\n      slt\n        /* \"#utility.yul\":7707:7827   */\n      iszero\n      tag_447\n      jumpi\n        /* \"#utility.yul\":7746:7825   */\n      tag_448\n      tag_412\n      jump\t// in\n    tag_448:\n        /* \"#utility.yul\":7707:7827   */\n    tag_447:\n        /* \"#utility.yul\":7866:7867   */\n      0x00\n        /* \"#utility.yul\":7891:7981   */\n      tag_449\n        /* \"#utility.yul\":7973:7980   */\n      dup5\n        /* \"#utility.yul\":7964:7970   */\n      dup3\n        /* \"#utility.yul\":7953:7962   */\n      dup6\n        /* \"#utility.yul\":7949:7971   */\n      add\n        /* \"#utility.yul\":7891:7981   */\n      tag_383\n      jump\t// in\n    tag_449:\n        /* \"#utility.yul\":7881:7981   */\n      swap2\n      pop\n        /* \"#utility.yul\":7837:7991   */\n      pop\n        /* \"#utility.yul\":7594:7998   */\n      swap3\n      swap2\n      pop\n      pop\n      jump\t// out\n        /* \"#utility.yul\":8004:8665   */\n    tag_211:\n        /* \"#utility.yul\":8091:8097   */\n      0x00\n        /* \"#utility.yul\":8099:8105   */\n      dup1\n        /* \"#utility.yul\":8107:8113   */\n      0x00\n        /* \"#utility.yul\":8156:8158   */\n      0x60\n        /* \"#utility.yul\":8144:8153   */\n      dup5\n        /* \"#utility.yul\":8135:8142   */\n      dup7\n        /* \"#utility.yul\":8131:8154   */\n      sub\n        /* \"#utility.yul\":8127:8159   */\n      slt\n        /* \"#utility.yul\":8124:8243   */\n      iszero\n      tag_451\n      jumpi\n        /* \"#utility.yul\":8162:8241   */\n      tag_452\n      tag_412\n      jump\t// in\n    tag_452:\n        /* \"#utility.yul\":8124:8243   */\n    tag_451:\n        /* \"#utility.yul\":8282:8283   */\n      0x00\n        /* \"#utility.yul\":8307:8371   */\n      tag_453\n        /* \"#utility.yul\":8363:8370   */\n      dup7\n        /* \"#utility.yul\":8354:8360   */\n      dup3\n        /* \"#utility.yul\":8343:8352   */\n      dup8\n        /* \"#utility.yul\":8339:8361   */\n      add\n        /* \"#utility.yul\":8307:8371   */\n      tag_395\n      jump\t// in\n    tag_453:\n        /* \"#utility.yul\":8297:8371   */\n      swap4\n      pop\n        /* \"#utility.yul\":8253:8381   */\n      pop\n        /* \"#utility.yul\":8420:8422   */\n      0x20\n        /* \"#utility.yul\":8446:8510   */\n      tag_454\n        /* \"#utility.yul\":8502:8509   */\n      dup7\n        /* \"#utility.yul\":8493:8499   */\n      dup3\n        /* \"#utility.yul\":8482:8491   */\n      dup8\n        /* \"#utility.yul\":8478:8500   */\n      add\n        /* \"#utility.yul\":8446:8510   */\n      tag_395\n      jump\t// in\n    tag_454:\n        /* \"#utility.yul\":8436:8510   */\n      swap3\n      pop\n        /* \"#utility.yul\":8391:8520   */\n      pop\n        /* \"#utility.yul\":8559:8561   */\n      0x40\n        /* \"#utility.yul\":8585:8648   */\n      tag_455\n        /* \"#utility.yul\":8640:8647   */\n      dup7\n        /* \"#utility.yul\":8631:8637   */\n      dup3\n        /* \"#utility.yul\":8620:8629   */\n      dup8\n        /* \"#utility.yul\":8616:8638   */\n      add\n        /* \"#utility.yul\":8585:8648   */\n      tag_405\n      jump\t// in\n    tag_455:\n        /* \"#utility.yul\":8575:8648   */\n      swap2\n      pop\n        /* \"#utility.yul\":8530:8658   */\n      pop\n        /* \"#utility.yul\":8004:8665   */\n      swap3\n      pop\n      swap3\n      pop\n      swap3\n      jump\t// out\n        /* \"#utility.yul\":8671:9022   */\n    tag_180:\n        /* \"#utility.yul\":8741:8747   */\n      0x00\n        /* \"#utility.yul\":8790:8792   */\n      0x20\n        /* \"#utility.yul\":8778:8787   */\n      dup3\n        /* \"#utility.yul\":8769:8776   */\n      dup5\n        /* \"#utility.yul\":8765:8788   */\n      sub\n        /* \"#utility.yul\":8761:8793   */\n      slt\n        /* \"#utility.yul\":8758:8877   */\n      iszero\n      tag_457\n      jumpi\n        /* \"#utility.yul\":8796:8875   */\n      tag_458\n      tag_412\n      jump\t// in\n    tag_458:\n        /* \"#utility.yul\":8758:8877   */\n    tag_457:\n        /* \"#utility.yul\":8916:8917   */\n      0x00\n        /* \"#utility.yul\":8941:9005   */\n      tag_459\n        /* \"#utility.yul\":8997:9004   */\n      dup5\n        /* \"#utility.yul\":8988:8994   */\n      dup3\n        /* \"#utility.yul\":8977:8986   */\n      dup6\n        /* \"#utility.yul\":8973:8995   */\n      add\n        /* \"#utility.yul\":8941:9005   */\n      tag_349\n      jump\t// in\n    tag_459:\n        /* \"#utility.yul\":8931:9005   */\n      swap2\n      pop\n        /* \"#utility.yul\":8887:9015   */\n      pop\n        /* \"#utility.yul\":8671:9022   */\n      swap3\n      swap2\n      pop\n      pop\n      jump\t// out\n        /* \"#utility.yul\":9028:9146   */\n    tag_460:\n        /* \"#utility.yul\":9115:9139   */\n      tag_462\n        /* \"#utility.yul\":9133:9138   */\n      dup2\n        /* \"#utility.yul\":9115:9139   */\n      tag_463\n      jump\t// in\n    tag_462:\n        /* \"#utility.yul\":9110:9113   */\n      dup3\n        /* \"#utility.yul\":9103:9140   */\n      mstore\n        /* \"#utility.yul\":9028:9146   */\n      pop\n      pop\n      jump\t// out\n        /* \"#utility.yul\":9152:9311   */\n    tag_464:\n        /* \"#utility.yul\":9253:9304   */\n      tag_466\n        /* \"#utility.yul\":9298:9303   */\n      dup2\n        /* \"#utility.yul\":9253:9304   */\n      tag_467\n      jump\t// in\n    tag_466:\n        /* \"#utility.yul\":9248:9251   */\n      dup3\n        /* \"#utility.yul\":9241:9305   */\n      mstore\n        /* \"#utility.yul\":9152:9311   */\n      pop\n      pop\n      jump\t// out\n        /* \"#utility.yul\":9317:9480   */\n    tag_468:\n        /* \"#utility.yul\":9420:9473   */\n      tag_470\n        /* \"#utility.yul\":9467:9472   */\n      dup2\n        /* \"#utility.yul\":9420:9473   */\n      tag_471\n      jump\t// in\n    tag_470:\n        /* \"#utility.yul\":9415:9418   */\n      dup3\n        /* \"#utility.yul\":9408:9474   */\n      mstore\n        /* \"#utility.yul\":9317:9480   */\n      pop\n      pop\n      jump\t// out\n        /* \"#utility.yul\":9486:9657   */\n    tag_472:\n        /* \"#utility.yul\":9593:9650   */\n      tag_474\n        /* \"#utility.yul\":9644:9649   */\n      dup2\n        /* \"#utility.yul\":9593:9650   */\n      tag_475\n      jump\t// in\n    tag_474:\n        /* \"#utility.yul\":9588:9591   */\n      dup3\n        /* \"#utility.yul\":9581:9651   */\n      mstore\n        /* \"#utility.yul\":9486:9657   */\n      pop\n      pop\n      jump\t// out\n        /* \"#utility.yul\":9663:9834   */\n    tag_476:\n        /* \"#utility.yul\":9770:9827   */\n      tag_478\n        /* \"#utility.yul\":9821:9826   */\n      dup2\n        /* \"#utility.yul\":9770:9827   */\n      tag_479\n      jump\t// in\n    tag_478:\n        /* \"#utility.yul\":9765:9768   */\n      dup3\n        /* \"#utility.yul\":9758:9828   */\n      mstore\n        /* \"#utility.yul\":9663:9834   */\n      pop\n      pop\n      jump\t// out\n        /* \"#utility.yul\":9840:10021   */\n    tag_480:\n        /* \"#utility.yul\":9952:10014   */\n      tag_482\n        /* \"#utility.yul\":10008:10013   */\n      dup2\n        /* \"#utility.yul\":9952:10014   */\n      tag_483\n      jump\t// in\n    tag_482:\n        /* \"#utility.yul\":9947:9950   */\n      dup3\n        /* \"#utility.yul\":9940:10015   */\n      mstore\n        /* \"#utility.yul\":9840:10021   */\n      pop\n      pop\n      jump\t// out\n        /* \"#utility.yul\":10027:10393   */\n    tag_484:\n        /* \"#utility.yul\":10169:10172   */\n      0x00\n        /* \"#utility.yul\":10190:10257   */\n      tag_486\n        /* \"#utility.yul\":10254:10256   */\n      0x26\n        /* \"#utility.yul\":10249:10252   */\n      dup4\n        /* \"#utility.yul\":10190:10257   */\n      tag_487\n      jump\t// in\n    tag_486:\n        /* \"#utility.yul\":10183:10257   */\n      swap2\n      pop\n        /* \"#utility.yul\":10266:10359   */\n      tag_488\n        /* \"#utility.yul\":10355:10358   */\n      dup3\n        /* \"#utility.yul\":10266:10359   */\n      tag_489\n      jump\t// in\n    tag_488:\n        /* \"#utility.yul\":10384:10386   */\n      0x40\n        /* \"#utility.yul\":10379:10382   */\n      dup3\n        /* \"#utility.yul\":10375:10387   */\n      add\n        /* \"#utility.yul\":10368:10387   */\n      swap1\n      pop\n        /* \"#utility.yul\":10027:10393   */\n      swap2\n      swap1\n      pop\n      jump\t// out\n        /* \"#utility.yul\":10399:10765   */\n    tag_490:\n        /* \"#utility.yul\":10541:10544   */\n      0x00\n        /* \"#utility.yul\":10562:10629   */\n      tag_492\n        /* \"#utility.yul\":10626:10628   */\n      0x20\n        /* \"#utility.yul\":10621:10624   */\n      dup4\n        /* \"#utility.yul\":10562:10629   */\n      tag_487\n      jump\t// in\n    tag_492:\n        /* \"#utility.yul\":10555:10629   */\n      swap2\n      pop\n        /* \"#utility.yul\":10638:10731   */\n      tag_493\n        /* \"#utility.yul\":10727:10730   */\n      dup3\n        /* \"#utility.yul\":10638:10731   */\n      tag_494\n      jump\t// in\n    tag_493:\n        /* \"#utility.yul\":10756:10758   */\n      0x20\n        /* \"#utility.yul\":10751:10754   */\n      dup3\n        /* \"#utility.yul\":10747:10759   */\n      add\n        /* \"#utility.yul\":10740:10759   */\n      swap1\n      pop\n        /* \"#utility.yul\":10399:10765   */\n      swap2\n      swap1\n      pop\n      jump\t// out\n        /* \"#utility.yul\":10771:10889   */\n    tag_495:\n        /* \"#utility.yul\":10858:10882   */\n      tag_497\n        /* \"#utility.yul\":10876:10881   */\n      dup2\n        /* \"#utility.yul\":10858:10882   */\n      tag_498\n      jump\t// in\n    tag_497:\n        /* \"#utility.yul\":10853:10856   */\n      dup3\n        /* \"#utility.yul\":10846:10883   */\n      mstore\n        /* \"#utility.yul\":10771:10889   */\n      pop\n      pop\n      jump\t// out\n        /* \"#utility.yul\":10895:11117   */\n    tag_114:\n        /* \"#utility.yul\":10988:10992   */\n      0x00\n        /* \"#utility.yul\":11026:11028   */\n      0x20\n        /* \"#utility.yul\":11015:11024   */\n      dup3\n        /* \"#utility.yul\":11011:11029   */\n      add\n        /* \"#utility.yul\":11003:11029   */\n      swap1\n      pop\n        /* \"#utility.yul\":11039:11110   */\n      tag_500\n        /* \"#utility.yul\":11107:11108   */\n      0x00\n        /* \"#utility.yul\":11096:11105   */\n      dup4\n        /* \"#utility.yul\":11092:11109   */\n      add\n        /* \"#utility.yul\":11083:11089   */\n      dup5\n        /* \"#utility.yul\":11039:11110   */\n      tag_460\n      jump\t// in\n    tag_500:\n        /* \"#utility.yul\":10895:11117   */\n      swap3\n      swap2\n      pop\n      pop\n      jump\t// out\n        /* \"#utility.yul\":11123:11455   */\n    tag_284:\n        /* \"#utility.yul\":11244:11248   */\n      0x00\n        /* \"#utility.yul\":11282:11284   */\n      0x40\n        /* \"#utility.yul\":11271:11280   */\n      dup3\n        /* \"#utility.yul\":11267:11285   */\n      add\n        /* \"#utility.yul\":11259:11285   */\n      swap1\n      pop\n        /* \"#utility.yul\":11295:11366   */\n      tag_502\n        /* \"#utility.yul\":11363:11364   */\n      0x00\n        /* \"#utility.yul\":11352:11361   */\n      dup4\n        /* \"#utility.yul\":11348:11365   */\n      add\n        /* \"#utility.yul\":11339:11345   */\n      dup6\n        /* \"#utility.yul\":11295:11366   */\n      tag_460\n      jump\t// in\n    tag_502:\n        /* \"#utility.yul\":11376:11448   */\n      tag_503\n        /* \"#utility.yul\":11444:11446   */\n      0x20\n        /* \"#utility.yul\":11433:11442   */\n      dup4\n        /* \"#utility.yul\":11429:11447   */\n      add\n        /* \"#utility.yul\":11420:11426   */\n      dup5\n        /* \"#utility.yul\":11376:11448   */\n      tag_495\n      jump\t// in\n    tag_503:\n        /* \"#utility.yul\":11123:11455   */\n      swap4\n      swap3\n      pop\n      pop\n      pop\n      jump\t// out\n        /* \"#utility.yul\":11461:11711   */\n    tag_97:\n        /* \"#utility.yul\":11568:11572   */\n      0x00\n        /* \"#utility.yul\":11606:11608   */\n      0x20\n        /* \"#utility.yul\":11595:11604   */\n      dup3\n        /* \"#utility.yul\":11591:11609   */\n      add\n        /* \"#utility.yul\":11583:11609   */\n      swap1\n      pop\n        /* \"#utility.yul\":11619:11704   */\n      tag_505\n        /* \"#utility.yul\":11701:11702   */\n      0x00\n        /* \"#utility.yul\":11690:11699   */\n      dup4\n        /* \"#utility.yul\":11686:11703   */\n      add\n        /* \"#utility.yul\":11677:11683   */\n      dup5\n        /* \"#utility.yul\":11619:11704   */\n      tag_464\n      jump\t// in\n    tag_505:\n        /* \"#utility.yul\":11461:11711   */\n      swap3\n      swap2\n      pop\n      pop\n      jump\t// out\n        /* \"#utility.yul\":11717:11971   */\n    tag_45:\n        /* \"#utility.yul\":11826:11830   */\n      0x00\n        /* \"#utility.yul\":11864:11866   */\n      0x20\n        /* \"#utility.yul\":11853:11862   */\n      dup3\n        /* \"#utility.yul\":11849:11867   */\n      add\n        /* \"#utility.yul\":11841:11867   */\n      swap1\n      pop\n        /* \"#utility.yul\":11877:11964   */\n      tag_507\n        /* \"#utility.yul\":11961:11962   */\n      0x00\n        /* \"#utility.yul\":11950:11959   */\n      dup4\n        /* \"#utility.yul\":11946:11963   */\n      add\n        /* \"#utility.yul\":11937:11943   */\n      dup5\n        /* \"#utility.yul\":11877:11964   */\n      tag_468\n      jump\t// in\n    tag_507:\n        /* \"#utility.yul\":11717:11971   */\n      swap3\n      swap2\n      pop\n      pop\n      jump\t// out\n        /* \"#utility.yul\":11977:12239   */\n    tag_122:\n        /* \"#utility.yul\":12090:12094   */\n      0x00\n        /* \"#utility.yul\":12128:12130   */\n      0x20\n        /* \"#utility.yul\":12117:12126   */\n      dup3\n        /* \"#utility.yul\":12113:12131   */\n      add\n        /* \"#utility.yul\":12105:12131   */\n      swap1\n      pop\n        /* \"#utility.yul\":12141:12232   */\n      tag_509\n        /* \"#utility.yul\":12229:12230   */\n      0x00\n        /* \"#utility.yul\":12218:12227   */\n      dup4\n        /* \"#utility.yul\":12214:12231   */\n      add\n        /* \"#utility.yul\":12205:12211   */\n      dup5\n        /* \"#utility.yul\":12141:12232   */\n      tag_472\n      jump\t// in\n    tag_509:\n        /* \"#utility.yul\":11977:12239   */\n      swap3\n      swap2\n      pop\n      pop\n      jump\t// out\n        /* \"#utility.yul\":12245:12507   */\n    tag_66:\n        /* \"#utility.yul\":12358:12362   */\n      0x00\n        /* \"#utility.yul\":12396:12398   */\n      0x20\n        /* \"#utility.yul\":12385:12394   */\n      dup3\n        /* \"#utility.yul\":12381:12399   */\n      add\n        /* \"#utility.yul\":12373:12399   */\n      swap1\n      pop\n        /* \"#utility.yul\":12409:12500   */\n      tag_511\n        /* \"#utility.yul\":12497:12498   */\n      0x00\n        /* \"#utility.yul\":12486:12495   */\n      dup4\n        /* \"#utility.yul\":12482:12499   */\n      add\n        /* \"#utility.yul\":12473:12479   */\n      dup5\n        /* \"#utility.yul\":12409:12500   */\n      tag_476\n      jump\t// in\n    tag_511:\n        /* \"#utility.yul\":12245:12507   */\n      swap3\n      swap2\n      pop\n      pop\n      jump\t// out\n        /* \"#utility.yul\":12513:12785   */\n    tag_106:\n        /* \"#utility.yul\":12631:12635   */\n      0x00\n        /* \"#utility.yul\":12669:12671   */\n      0x20\n        /* \"#utility.yul\":12658:12667   */\n      dup3\n        /* \"#utility.yul\":12654:12672   */\n      add\n        /* \"#utility.yul\":12646:12672   */\n      swap1\n      pop\n        /* \"#utility.yul\":12682:12778   */\n      tag_513\n        /* \"#utility.yul\":12775:12776   */\n      0x00\n        /* \"#utility.yul\":12764:12773   */\n      dup4\n        /* \"#utility.yul\":12760:12777   */\n      add\n        /* \"#utility.yul\":12751:12757   */\n      dup5\n        /* \"#utility.yul\":12682:12778   */\n      tag_480\n      jump\t// in\n    tag_513:\n        /* \"#utility.yul\":12513:12785   */\n      swap3\n      swap2\n      pop\n      pop\n      jump\t// out\n        /* \"#utility.yul\":12791:13210   */\n    tag_319:\n        /* \"#utility.yul\":12957:12961   */\n      0x00\n        /* \"#utility.yul\":12995:12997   */\n      0x20\n        /* \"#utility.yul\":12984:12993   */\n      dup3\n        /* \"#utility.yul\":12980:12998   */\n      add\n        /* \"#utility.yul\":12972:12998   */\n      swap1\n      pop\n        /* \"#utility.yul\":13044:13053   */\n      dup2\n        /* \"#utility.yul\":13038:13042   */\n      dup2\n        /* \"#utility.yul\":13034:13054   */\n      sub\n        /* \"#utility.yul\":13030:13031   */\n      0x00\n        /* \"#utility.yul\":13019:13028   */\n      dup4\n        /* \"#utility.yul\":13015:13032   */\n      add\n        /* \"#utility.yul\":13008:13055   */\n      mstore\n        /* \"#utility.yul\":13072:13203   */\n      tag_515\n        /* \"#utility.yul\":13198:13202   */\n      dup2\n        /* \"#utility.yul\":13072:13203   */\n      tag_484\n      jump\t// in\n    tag_515:\n        /* \"#utility.yul\":13064:13203   */\n      swap1\n      pop\n        /* \"#utility.yul\":12791:13210   */\n      swap2\n      swap1\n      pop\n      jump\t// out\n        /* \"#utility.yul\":13216:13635   */\n    tag_145:\n        /* \"#utility.yul\":13382:13386   */\n      0x00\n        /* \"#utility.yul\":13420:13422   */\n      0x20\n        /* \"#utility.yul\":13409:13418   */\n      dup3\n        /* \"#utility.yul\":13405:13423   */\n      add\n        /* \"#utility.yul\":13397:13423   */\n      swap1\n      pop\n        /* \"#utility.yul\":13469:13478   */\n      dup2\n        /* \"#utility.yul\":13463:13467   */\n      dup2\n        /* \"#utility.yul\":13459:13479   */\n      sub\n        /* \"#utility.yul\":13455:13456   */\n      0x00\n        /* \"#utility.yul\":13444:13453   */\n      dup4\n        /* \"#utility.yul\":13440:13457   */\n      add\n        /* \"#utility.yul\":13433:13480   */\n      mstore\n        /* \"#utility.yul\":13497:13628   */\n      tag_517\n        /* \"#utility.yul\":13623:13627   */\n      dup2\n        /* \"#utility.yul\":13497:13628   */\n      tag_490\n      jump\t// in\n    tag_517:\n        /* \"#utility.yul\":13489:13628   */\n      swap1\n      pop\n        /* \"#utility.yul\":13216:13635   */\n      swap2\n      swap1\n      pop\n      jump\t// out\n        /* \"#utility.yul\":13641:13863   */\n    tag_58:\n        /* \"#utility.yul\":13734:13738   */\n      0x00\n        /* \"#utility.yul\":13772:13774   */\n      0x20\n        /* \"#utility.yul\":13761:13770   */\n      dup3\n        /* \"#utility.yul\":13757:13775   */\n      add\n        /* \"#utility.yul\":13749:13775   */\n      swap1\n      pop\n        /* \"#utility.yul\":13785:13856   */\n      tag_519\n        /* \"#utility.yul\":13853:13854   */\n      0x00\n        /* \"#utility.yul\":13842:13851   */\n      dup4\n        /* \"#utility.yul\":13838:13855   */\n      add\n        /* \"#utility.yul\":13829:13835   */\n      dup5\n        /* \"#utility.yul\":13785:13856   */\n      tag_495\n      jump\t// in\n    tag_519:\n        /* \"#utility.yul\":13641:13863   */\n      swap3\n      swap2\n      pop\n      pop\n      jump\t// out\n        /* \"#utility.yul\":13869:14201   */\n    tag_41:\n        /* \"#utility.yul\":13990:13994   */\n      0x00\n        /* \"#utility.yul\":14028:14030   */\n      0x40\n        /* \"#utility.yul\":14017:14026   */\n      dup3\n        /* \"#utility.yul\":14013:14031   */\n      add\n        /* \"#utility.yul\":14005:14031   */\n      swap1\n      pop\n        /* \"#utility.yul\":14041:14112   */\n      tag_521\n        /* \"#utility.yul\":14109:14110   */\n      0x00\n        /* \"#utility.yul\":14098:14107   */\n      dup4\n        /* \"#utility.yul\":14094:14111   */\n      add\n        /* \"#utility.yul\":14085:14091   */\n      dup6\n        /* \"#utility.yul\":14041:14112   */\n      tag_495\n      jump\t// in\n    tag_521:\n        /* \"#utility.yul\":14122:14194   */\n      tag_522\n        /* \"#utility.yul\":14190:14192   */\n      0x20\n        /* \"#utility.yul\":14179:14188   */\n      dup4\n        /* \"#utility.yul\":14175:14193   */\n      add\n        /* \"#utility.yul\":14166:14172   */\n      dup5\n        /* \"#utility.yul\":14122:14194   */\n      tag_495\n      jump\t// in\n    tag_522:\n        /* \"#utility.yul\":13869:14201   */\n      swap4\n      swap3\n      pop\n      pop\n      pop\n      jump\t// out\n        /* \"#utility.yul\":14207:14336   */\n    tag_341:\n        /* \"#utility.yul\":14241:14247   */\n      0x00\n        /* \"#utility.yul\":14268:14288   */\n      tag_524\n      tag_525\n      jump\t// in\n    tag_524:\n        /* \"#utility.yul\":14258:14288   */\n      swap1\n      pop\n        /* \"#utility.yul\":14297:14330   */\n      tag_526\n        /* \"#utility.yul\":14325:14329   */\n      dup3\n        /* \"#utility.yul\":14317:14323   */\n      dup3\n        /* \"#utility.yul\":14297:14330   */\n      tag_527\n      jump\t// in\n    tag_526:\n        /* \"#utility.yul\":14207:14336   */\n      swap2\n      swap1\n      pop\n      jump\t// out\n        /* \"#utility.yul\":14342:14417   */\n    tag_525:\n        /* \"#utility.yul\":14375:14381   */\n      0x00\n        /* \"#utility.yul\":14408:14410   */\n      0x40\n        /* \"#utility.yul\":14402:14411   */\n      mload\n        /* \"#utility.yul\":14392:14411   */\n      swap1\n      pop\n        /* \"#utility.yul\":14342:14417   */\n      swap1\n      jump\t// out\n        /* \"#utility.yul\":14423:14734   */\n    tag_340:\n        /* \"#utility.yul\":14500:14504   */\n      0x00\n        /* \"#utility.yul\":14590:14608   */\n      0xffffffffffffffff\n        /* \"#utility.yul\":14582:14588   */\n      dup3\n        /* \"#utility.yul\":14579:14609   */\n      gt\n        /* \"#utility.yul\":14576:14632   */\n      iszero\n      tag_530\n      jumpi\n        /* \"#utility.yul\":14612:14630   */\n      tag_531\n      tag_532\n      jump\t// in\n    tag_531:\n        /* \"#utility.yul\":14576:14632   */\n    tag_530:\n        /* \"#utility.yul\":14662:14666   */\n      0x20\n        /* \"#utility.yul\":14654:14660   */\n      dup3\n        /* \"#utility.yul\":14650:14667   */\n      mul\n        /* \"#utility.yul\":14642:14667   */\n      swap1\n      pop\n        /* \"#utility.yul\":14722:14726   */\n      0x20\n        /* \"#utility.yul\":14716:14720   */\n      dup2\n        /* \"#utility.yul\":14712:14727   */\n      add\n        /* \"#utility.yul\":14704:14727   */\n      swap1\n      pop\n        /* \"#utility.yul\":14423:14734   */\n      swap2\n      swap1\n      pop\n      jump\t// out\n        /* \"#utility.yul\":14740:14909   */\n    tag_487:\n        /* \"#utility.yul\":14824:14835   */\n      0x00\n        /* \"#utility.yul\":14858:14864   */\n      dup3\n        /* \"#utility.yul\":14853:14856   */\n      dup3\n        /* \"#utility.yul\":14846:14865   */\n      mstore\n        /* \"#utility.yul\":14898:14902   */\n      0x20\n        /* \"#utility.yul\":14893:14896   */\n      dup3\n        /* \"#utility.yul\":14889:14903   */\n      add\n        /* \"#utility.yul\":14874:14903   */\n      swap1\n      pop\n        /* \"#utility.yul\":14740:14909   */\n      swap3\n      swap2\n      pop\n      pop\n      jump\t// out\n        /* \"#utility.yul\":14915:15220   */\n    tag_159:\n        /* \"#utility.yul\":14955:14958   */\n      0x00\n        /* \"#utility.yul\":14974:14994   */\n      tag_535\n        /* \"#utility.yul\":14992:14993   */\n      dup3\n        /* \"#utility.yul\":14974:14994   */\n      tag_498\n      jump\t// in\n    tag_535:\n        /* \"#utility.yul\":14969:14994   */\n      swap2\n      pop\n        /* \"#utility.yul\":15008:15028   */\n      tag_536\n        /* \"#utility.yul\":15026:15027   */\n      dup4\n        /* \"#utility.yul\":15008:15028   */\n      tag_498\n      jump\t// in\n    tag_536:\n        /* \"#utility.yul\":15003:15028   */\n      swap3\n      pop\n        /* \"#utility.yul\":15162:15163   */\n      dup3\n        /* \"#utility.yul\":15094:15160   */\n      0xffffffffffffffffffffffffffffffffffffffffffffffffffffffffffffffff\n        /* \"#utility.yul\":15090:15164   */\n      sub\n        /* \"#utility.yul\":15087:15088   */\n      dup3\n        /* \"#utility.yul\":15084:15165   */\n      gt\n        /* \"#utility.yul\":15081:15188   */\n      iszero\n      tag_537\n      jumpi\n        /* \"#utility.yul\":15168:15186   */\n      tag_538\n      tag_539\n      jump\t// in\n    tag_538:\n        /* \"#utility.yul\":15081:15188   */\n    tag_537:\n        /* \"#utility.yul\":15212:15213   */\n      dup3\n        /* \"#utility.yul\":15209:15210   */\n      dup3\n        /* \"#utility.yul\":15205:15214   */\n      add\n        /* \"#utility.yul\":15198:15214   */\n      swap1\n      pop\n        /* \"#utility.yul\":14915:15220   */\n      swap3\n      swap2\n      pop\n      pop\n      jump\t// out\n        /* \"#utility.yul\":15226:15411   */\n    tag_330:\n        /* \"#utility.yul\":15266:15267   */\n      0x00\n        /* \"#utility.yul\":15283:15303   */\n      tag_541\n        /* \"#utility.yul\":15301:15302   */\n      dup3\n        /* \"#utility.yul\":15283:15303   */\n      tag_498\n      jump\t// in\n    tag_541:\n        /* \"#utility.yul\":15278:15303   */\n      swap2\n      pop\n        /* \"#utility.yul\":15317:15337   */\n      tag_542\n        /* \"#utility.yul\":15335:15336   */\n      dup4\n        /* \"#utility.yul\":15317:15337   */\n      tag_498\n      jump\t// in\n    tag_542:\n        /* \"#utility.yul\":15312:15337   */\n      swap3\n      pop\n        /* \"#utility.yul\":15356:15357   */\n      dup3\n        /* \"#utility.yul\":15346:15381   */\n      tag_543\n      jumpi\n        /* \"#utility.yul\":15361:15379   */\n      tag_544\n      tag_545\n      jump\t// in\n    tag_544:\n        /* \"#utility.yul\":15346:15381   */\n    tag_543:\n        /* \"#utility.yul\":15403:15404   */\n      dup3\n        /* \"#utility.yul\":15400:15401   */\n      dup3\n        /* \"#utility.yul\":15396:15405   */\n      div\n        /* \"#utility.yul\":15391:15405   */\n      swap1\n      pop\n        /* \"#utility.yul\":15226:15411   */\n      swap3\n      swap2\n      pop\n      pop\n      jump\t// out\n        /* \"#utility.yul\":15417:15765   */\n    tag_333:\n        /* \"#utility.yul\":15457:15464   */\n      0x00\n        /* \"#utility.yul\":15480:15500   */\n      tag_547\n        /* \"#utility.yul\":15498:15499   */\n      dup3\n        /* \"#utility.yul\":15480:15500   */\n      tag_498\n      jump\t// in\n    tag_547:\n        /* \"#utility.yul\":15475:15500   */\n      swap2\n      pop\n        /* \"#utility.yul\":15514:15534   */\n      tag_548\n        /* \"#utility.yul\":15532:15533   */\n      dup4\n        /* \"#utility.yul\":15514:15534   */\n      tag_498\n      jump\t// in\n    tag_548:\n        /* \"#utility.yul\":15509:15534   */\n      swap3\n      pop\n        /* \"#utility.yul\":15702:15703   */\n      dup2\n        /* \"#utility.yul\":15634:15700   */\n      0xffffffffffffffffffffffffffffffffffffffffffffffffffffffffffffffff\n        /* \"#utility.yul\":15630:15704   */\n      div\n        /* \"#utility.yul\":15627:15628   */\n      dup4\n        /* \"#utility.yul\":15624:15705   */\n      gt\n        /* \"#utility.yul\":15619:15620   */\n      dup3\n        /* \"#utility.yul\":15612:15621   */\n      iszero\n        /* \"#utility.yul\":15605:15622   */\n      iszero\n        /* \"#utility.yul\":15601:15706   */\n      and\n        /* \"#utility.yul\":15598:15729   */\n      iszero\n      tag_549\n      jumpi\n        /* \"#utility.yul\":15709:15727   */\n      tag_550\n      tag_539\n      jump\t// in\n    tag_550:\n        /* \"#utility.yul\":15598:15729   */\n    tag_549:\n        /* \"#utility.yul\":15757:15758   */\n      dup3\n        /* \"#utility.yul\":15754:15755   */\n      dup3\n        /* \"#utility.yul\":15750:15759   */\n      mul\n        /* \"#utility.yul\":15739:15759   */\n      swap1\n      pop\n        /* \"#utility.yul\":15417:15765   */\n      swap3\n      swap2\n      pop\n      pop\n      jump\t// out\n        /* \"#utility.yul\":15771:15962   */\n    tag_226:\n        /* \"#utility.yul\":15811:15815   */\n      0x00\n        /* \"#utility.yul\":15831:15851   */\n      tag_552\n        /* \"#utility.yul\":15849:15850   */\n      dup3\n        /* \"#utility.yul\":15831:15851   */\n      tag_498\n      jump\t// in\n    tag_552:\n        /* \"#utility.yul\":15826:15851   */\n      swap2\n      pop\n        /* \"#utility.yul\":15865:15885   */\n      tag_553\n        /* \"#utility.yul\":15883:15884   */\n      dup4\n        /* \"#utility.yul\":15865:15885   */\n      tag_498\n      jump\t// in\n    tag_553:\n        /* \"#utility.yul\":15860:15885   */\n      swap3\n      pop\n        /* \"#utility.yul\":15904:15905   */\n      dup3\n        /* \"#utility.yul\":15901:15902   */\n      dup3\n        /* \"#utility.yul\":15898:15906   */\n      lt\n        /* \"#utility.yul\":15895:15929   */\n      iszero\n      tag_554\n      jumpi\n        /* \"#utility.yul\":15909:15927   */\n      tag_555\n      tag_539\n      jump\t// in\n    tag_555:\n        /* \"#utility.yul\":15895:15929   */\n    tag_554:\n        /* \"#utility.yul\":15954:15955   */\n      dup3\n        /* \"#utility.yul\":15951:15952   */\n      dup3\n        /* \"#utility.yul\":15947:15956   */\n      sub\n        /* \"#utility.yul\":15939:15956   */\n      swap1\n      pop\n        /* \"#utility.yul\":15771:15962   */\n      swap3\n      swap2\n      pop\n      pop\n      jump\t// out\n        /* \"#utility.yul\":15968:16064   */\n    tag_463:\n        /* \"#utility.yul\":16005:16012   */\n      0x00\n        /* \"#utility.yul\":16034:16058   */\n      tag_557\n        /* \"#utility.yul\":16052:16057   */\n      dup3\n        /* \"#utility.yul\":16034:16058   */\n      tag_558\n      jump\t// in\n    tag_557:\n        /* \"#utility.yul\":16023:16058   */\n      swap1\n      pop\n        /* \"#utility.yul\":15968:16064   */\n      swap2\n      swap1\n      pop\n      jump\t// out\n        /* \"#utility.yul\":16070:16180   */\n    tag_559:\n        /* \"#utility.yul\":16121:16128   */\n      0x00\n        /* \"#utility.yul\":16150:16174   */\n      tag_561\n        /* \"#utility.yul\":16168:16173   */\n      dup3\n        /* \"#utility.yul\":16150:16174   */\n      tag_463\n      jump\t// in\n    tag_561:\n        /* \"#utility.yul\":16139:16174   */\n      swap1\n      pop\n        /* \"#utility.yul\":16070:16180   */\n      swap2\n      swap1\n      pop\n      jump\t// out\n        /* \"#utility.yul\":16186:16298   */\n    tag_562:\n        /* \"#utility.yul\":16239:16246   */\n      0x00\n        /* \"#utility.yul\":16268:16292   */\n      tag_564\n        /* \"#utility.yul\":16286:16291   */\n      dup3\n        /* \"#utility.yul\":16268:16292   */\n      tag_463\n      jump\t// in\n    tag_564:\n        /* \"#utility.yul\":16257:16292   */\n      swap1\n      pop\n        /* \"#utility.yul\":16186:16298   */\n      swap2\n      swap1\n      pop\n      jump\t// out\n        /* \"#utility.yul\":16304:16420   */\n    tag_565:\n        /* \"#utility.yul\":16361:16368   */\n      0x00\n        /* \"#utility.yul\":16390:16414   */\n      tag_567\n        /* \"#utility.yul\":16408:16413   */\n      dup3\n        /* \"#utility.yul\":16390:16414   */\n      tag_463\n      jump\t// in\n    tag_567:\n        /* \"#utility.yul\":16379:16414   */\n      swap1\n      pop\n        /* \"#utility.yul\":16304:16420   */\n      swap2\n      swap1\n      pop\n      jump\t// out\n        /* \"#utility.yul\":16426:16542   */\n    tag_568:\n        /* \"#utility.yul\":16483:16490   */\n      0x00\n        /* \"#utility.yul\":16512:16536   */\n      tag_570\n        /* \"#utility.yul\":16530:16535   */\n      dup3\n        /* \"#utility.yul\":16512:16536   */\n      tag_463\n      jump\t// in\n    tag_570:\n        /* \"#utility.yul\":16501:16536   */\n      swap1\n      pop\n        /* \"#utility.yul\":16426:16542   */\n      swap2\n      swap1\n      pop\n      jump\t// out\n        /* \"#utility.yul\":16548:16669   */\n    tag_571:\n        /* \"#utility.yul\":16610:16617   */\n      0x00\n        /* \"#utility.yul\":16639:16663   */\n      tag_573\n        /* \"#utility.yul\":16657:16662   */\n      dup3\n        /* \"#utility.yul\":16639:16663   */\n      tag_463\n      jump\t// in\n    tag_573:\n        /* \"#utility.yul\":16628:16663   */\n      swap1\n      pop\n        /* \"#utility.yul\":16548:16669   */\n      swap2\n      swap1\n      pop\n      jump\t// out\n        /* \"#utility.yul\":16675:16789   */\n    tag_574:\n        /* \"#utility.yul\":16712:16719   */\n      0x00\n        /* \"#utility.yul\":16752:16782   */\n      0xffffffffffffffffffffffffffff\n        /* \"#utility.yul\":16745:16750   */\n      dup3\n        /* \"#utility.yul\":16741:16783   */\n      and\n        /* \"#utility.yul\":16730:16783   */\n      swap1\n      pop\n        /* \"#utility.yul\":16675:16789   */\n      swap2\n      swap1\n      pop\n      jump\t// out\n        /* \"#utility.yul\":16795:16921   */\n    tag_558:\n        /* \"#utility.yul\":16832:16839   */\n      0x00\n        /* \"#utility.yul\":16872:16914   */\n      0xffffffffffffffffffffffffffffffffffffffff\n        /* \"#utility.yul\":16865:16870   */\n      dup3\n        /* \"#utility.yul\":16861:16915   */\n      and\n        /* \"#utility.yul\":16850:16915   */\n      swap1\n      pop\n        /* \"#utility.yul\":16795:16921   */\n      swap2\n      swap1\n      pop\n      jump\t// out\n        /* \"#utility.yul\":16927:17004   */\n    tag_498:\n        /* \"#utility.yul\":16964:16971   */\n      0x00\n        /* \"#utility.yul\":16993:16998   */\n      dup2\n        /* \"#utility.yul\":16982:16998   */\n      swap1\n      pop\n        /* \"#utility.yul\":16927:17004   */\n      swap2\n      swap1\n      pop\n      jump\t// out\n        /* \"#utility.yul\":17010:17103   */\n    tag_578:\n        /* \"#utility.yul\":17046:17053   */\n      0x00\n        /* \"#utility.yul\":17086:17096   */\n      0xffffffff\n        /* \"#utility.yul\":17079:17084   */\n      dup3\n        /* \"#utility.yul\":17075:17097   */\n      and\n        /* \"#utility.yul\":17064:17097   */\n      swap1\n      pop\n        /* \"#utility.yul\":17010:17103   */\n      swap2\n      swap1\n      pop\n      jump\t// out\n        /* \"#utility.yul\":17109:17249   */\n    tag_467:\n        /* \"#utility.yul\":17173:17182   */\n      0x00\n        /* \"#utility.yul\":17206:17243   */\n      tag_581\n        /* \"#utility.yul\":17237:17242   */\n      dup3\n        /* \"#utility.yul\":17206:17243   */\n      tag_582\n      jump\t// in\n    tag_581:\n        /* \"#utility.yul\":17193:17243   */\n      swap1\n      pop\n        /* \"#utility.yul\":17109:17249   */\n      swap2\n      swap1\n      pop\n      jump\t// out\n        /* \"#utility.yul\":17255:17397   */\n    tag_471:\n        /* \"#utility.yul\":17321:17330   */\n      0x00\n        /* \"#utility.yul\":17354:17391   */\n      tag_584\n        /* \"#utility.yul\":17385:17390   */\n      dup3\n        /* \"#utility.yul\":17354:17391   */\n      tag_582\n      jump\t// in\n    tag_584:\n        /* \"#utility.yul\":17341:17391   */\n      swap1\n      pop\n        /* \"#utility.yul\":17255:17397   */\n      swap2\n      swap1\n      pop\n      jump\t// out\n        /* \"#utility.yul\":17403:17549   */\n    tag_475:\n        /* \"#utility.yul\":17473:17482   */\n      0x00\n        /* \"#utility.yul\":17506:17543   */\n      tag_586\n        /* \"#utility.yul\":17537:17542   */\n      dup3\n        /* \"#utility.yul\":17506:17543   */\n      tag_582\n      jump\t// in\n    tag_586:\n        /* \"#utility.yul\":17493:17543   */\n      swap1\n      pop\n        /* \"#utility.yul\":17403:17549   */\n      swap2\n      swap1\n      pop\n      jump\t// out\n        /* \"#utility.yul\":17555:17701   */\n    tag_479:\n        /* \"#utility.yul\":17625:17634   */\n      0x00\n        /* \"#utility.yul\":17658:17695   */\n      tag_588\n        /* \"#utility.yul\":17689:17694   */\n      dup3\n        /* \"#utility.yul\":17658:17695   */\n      tag_582\n      jump\t// in\n    tag_588:\n        /* \"#utility.yul\":17645:17695   */\n      swap1\n      pop\n        /* \"#utility.yul\":17555:17701   */\n      swap2\n      swap1\n      pop\n      jump\t// out\n        /* \"#utility.yul\":17707:17858   */\n    tag_483:\n        /* \"#utility.yul\":17782:17791   */\n      0x00\n        /* \"#utility.yul\":17815:17852   */\n      tag_590\n        /* \"#utility.yul\":17846:17851   */\n      dup3\n        /* \"#utility.yul\":17815:17852   */\n      tag_582\n      jump\t// in\n    tag_590:\n        /* \"#utility.yul\":17802:17852   */\n      swap1\n      pop\n        /* \"#utility.yul\":17707:17858   */\n      swap2\n      swap1\n      pop\n      jump\t// out\n        /* \"#utility.yul\":17864:17990   */\n    tag_582:\n        /* \"#utility.yul\":17914:17923   */\n      0x00\n        /* \"#utility.yul\":17947:17984   */\n      tag_592\n        /* \"#utility.yul\":17978:17983   */\n      dup3\n        /* \"#utility.yul\":17947:17984   */\n      tag_593\n      jump\t// in\n    tag_592:\n        /* \"#utility.yul\":17934:17984   */\n      swap1\n      pop\n        /* \"#utility.yul\":17864:17990   */\n      swap2\n      swap1\n      pop\n      jump\t// out\n        /* \"#utility.yul\":17996:18109   */\n    tag_593:\n        /* \"#utility.yul\":18046:18055   */\n      0x00\n        /* \"#utility.yul\":18079:18103   */\n      tag_595\n        /* \"#utility.yul\":18097:18102   */\n      dup3\n        /* \"#utility.yul\":18079:18103   */\n      tag_558\n      jump\t// in\n    tag_595:\n        /* \"#utility.yul\":18066:18103   */\n      swap1\n      pop\n        /* \"#utility.yul\":17996:18109   */\n      swap2\n      swap1\n      pop\n      jump\t// out\n        /* \"#utility.yul\":18115:18396   */\n    tag_527:\n        /* \"#utility.yul\":18198:18225   */\n      tag_597\n        /* \"#utility.yul\":18220:18224   */\n      dup3\n        /* \"#utility.yul\":18198:18225   */\n      tag_598\n      jump\t// in\n    tag_597:\n        /* \"#utility.yul\":18190:18196   */\n      dup2\n        /* \"#utility.yul\":18186:18226   */\n      add\n        /* \"#utility.yul\":18328:18334   */\n      dup2\n        /* \"#utility.yul\":18316:18326   */\n      dup2\n        /* \"#utility.yul\":18313:18335   */\n      lt\n        /* \"#utility.yul\":18292:18310   */\n      0xffffffffffffffff\n        /* \"#utility.yul\":18280:18290   */\n      dup3\n        /* \"#utility.yul\":18277:18311   */\n      gt\n        /* \"#utility.yul\":18274:18336   */\n      or\n        /* \"#utility.yul\":18271:18359   */\n      iszero\n      tag_599\n      jumpi\n        /* \"#utility.yul\":18339:18357   */\n      tag_600\n      tag_532\n      jump\t// in\n    tag_600:\n        /* \"#utility.yul\":18271:18359   */\n    tag_599:\n        /* \"#utility.yul\":18379:18389   */\n      dup1\n        /* \"#utility.yul\":18375:18377   */\n      0x40\n        /* \"#utility.yul\":18368:18390   */\n      mstore\n        /* \"#utility.yul\":18158:18396   */\n      pop\n        /* \"#utility.yul\":18115:18396   */\n      pop\n      pop\n      jump\t// out\n        /* \"#utility.yul\":18402:18635   */\n    tag_199:\n        /* \"#utility.yul\":18441:18444   */\n      0x00\n        /* \"#utility.yul\":18464:18488   */\n      tag_602\n        /* \"#utility.yul\":18482:18487   */\n      dup3\n        /* \"#utility.yul\":18464:18488   */\n      tag_498\n      jump\t// in\n    tag_602:\n        /* \"#utility.yul\":18455:18488   */\n      swap2\n      pop\n        /* \"#utility.yul\":18510:18576   */\n      0xffffffffffffffffffffffffffffffffffffffffffffffffffffffffffffffff\n        /* \"#utility.yul\":18503:18508   */\n      dup3\n        /* \"#utility.yul\":18500:18577   */\n      eq\n        /* \"#utility.yul\":18497:18600   */\n      iszero\n      tag_603\n      jumpi\n        /* \"#utility.yul\":18580:18598   */\n      tag_604\n      tag_539\n      jump\t// in\n    tag_604:\n        /* \"#utility.yul\":18497:18600   */\n    tag_603:\n        /* \"#utility.yul\":18627:18628   */\n      0x01\n        /* \"#utility.yul\":18620:18625   */\n      dup3\n        /* \"#utility.yul\":18616:18629   */\n      add\n        /* \"#utility.yul\":18609:18629   */\n      swap1\n      pop\n        /* \"#utility.yul\":18402:18635   */\n      swap2\n      swap1\n      pop\n      jump\t// out\n        /* \"#utility.yul\":18641:18821   */\n    tag_539:\n        /* \"#utility.yul\":18689:18766   */\n      0x4e487b7100000000000000000000000000000000000000000000000000000000\n        /* \"#utility.yul\":18686:18687   */\n      0x00\n        /* \"#utility.yul\":18679:18767   */\n      mstore\n        /* \"#utility.yul\":18786:18790   */\n      0x11\n        /* \"#utility.yul\":18783:18784   */\n      0x04\n        /* \"#utility.yul\":18776:18791   */\n      mstore\n        /* \"#utility.yul\":18810:18814   */\n      0x24\n        /* \"#utility.yul\":18807:18808   */\n      0x00\n        /* \"#utility.yul\":18800:18815   */\n      revert\n        /* \"#utility.yul\":18827:19007   */\n    tag_545:\n        /* \"#utility.yul\":18875:18952   */\n      0x4e487b7100000000000000000000000000000000000000000000000000000000\n        /* \"#utility.yul\":18872:18873   */\n      0x00\n        /* \"#utility.yul\":18865:18953   */\n      mstore\n        /* \"#utility.yul\":18972:18976   */\n      0x12\n        /* \"#utility.yul\":18969:18970   */\n      0x04\n        /* \"#utility.yul\":18962:18977   */\n      mstore\n        /* \"#utility.yul\":18996:19000   */\n      0x24\n        /* \"#utility.yul\":18993:18994   */\n      0x00\n        /* \"#utility.yul\":18986:19001   */\n      revert\n        /* \"#utility.yul\":19013:19193   */\n    tag_241:\n        /* \"#utility.yul\":19061:19138   */\n      0x4e487b7100000000000000000000000000000000000000000000000000000000\n        /* \"#utility.yul\":19058:19059   */\n      0x00\n        /* \"#utility.yul\":19051:19139   */\n      mstore\n        /* \"#utility.yul\":19158:19162   */\n      0x31\n        /* \"#utility.yul\":19155:19156   */\n      0x04\n        /* \"#utility.yul\":19148:19163   */\n      mstore\n        /* \"#utility.yul\":19182:19186   */\n      0x24\n        /* \"#utility.yul\":19179:19180   */\n      0x00\n        /* \"#utility.yul\":19172:19187   */\n      revert\n        /* \"#utility.yul\":19199:19379   */\n    tag_229:\n        /* \"#utility.yul\":19247:19324   */\n      0x4e487b7100000000000000000000000000000000000000000000000000000000\n        /* \"#utility.yul\":19244:19245   */\n      0x00\n        /* \"#utility.yul\":19237:19325   */\n      mstore\n        /* \"#utility.yul\":19344:19348   */\n      0x32\n        /* \"#utility.yul\":19341:19342   */\n      0x04\n        /* \"#utility.yul\":19334:19349   */\n      mstore\n        /* \"#utility.yul\":19368:19372   */\n      0x24\n        /* \"#utility.yul\":19365:19366   */\n      0x00\n        /* \"#utility.yul\":19358:19373   */\n      revert\n        /* \"#utility.yul\":19385:19565   */\n    tag_532:\n        /* \"#utility.yul\":19433:19510   */\n      0x4e487b7100000000000000000000000000000000000000000000000000000000\n        /* \"#utility.yul\":19430:19431   */\n      0x00\n        /* \"#utility.yul\":19423:19511   */\n      mstore\n        /* \"#utility.yul\":19530:19534   */\n      0x41\n        /* \"#utility.yul\":19527:19528   */\n      0x04\n        /* \"#utility.yul\":19520:19535   */\n      mstore\n        /* \"#utility.yul\":19554:19558   */\n      0x24\n        /* \"#utility.yul\":19551:19552   */\n      0x00\n        /* \"#utility.yul\":19544:19559   */\n      revert\n        /* \"#utility.yul\":19571:19688   */\n    tag_361:\n        /* \"#utility.yul\":19680:19681   */\n      0x00\n        /* \"#utility.yul\":19677:19678   */\n      dup1\n        /* \"#utility.yul\":19670:19682   */\n      revert\n        /* \"#utility.yul\":19694:19811   */\n    tag_387:\n        /* \"#utility.yul\":19803:19804   */\n      0x00\n        /* \"#utility.yul\":19800:19801   */\n      dup1\n        /* \"#utility.yul\":19793:19805   */\n      revert\n        /* \"#utility.yul\":19940:20057   */\n    tag_344:\n        /* \"#utility.yul\":20049:20050   */\n      0x00\n        /* \"#utility.yul\":20046:20047   */\n      dup1\n        /* \"#utility.yul\":20039:20051   */\n      revert\n        /* \"#utility.yul\":20063:20180   */\n    tag_424:\n        /* \"#utility.yul\":20172:20173   */\n      0x00\n        /* \"#utility.yul\":20169:20170   */\n      dup1\n        /* \"#utility.yul\":20162:20174   */\n      revert\n        /* \"#utility.yul\":20186:20303   */\n    tag_412:\n        /* \"#utility.yul\":20295:20296   */\n      0x00\n        /* \"#utility.yul\":20292:20293   */\n      dup1\n        /* \"#utility.yul\":20285:20297   */\n      revert\n        /* \"#utility.yul\":20309:20411   */\n    tag_598:\n        /* \"#utility.yul\":20350:20356   */\n      0x00\n        /* \"#utility.yul\":20401:20403   */\n      0x1f\n        /* \"#utility.yul\":20397:20404   */\n      not\n        /* \"#utility.yul\":20392:20394   */\n      0x1f\n        /* \"#utility.yul\":20385:20390   */\n      dup4\n        /* \"#utility.yul\":20381:20395   */\n      add\n        /* \"#utility.yul\":20377:20405   */\n      and\n        /* \"#utility.yul\":20367:20405   */\n      swap1\n      pop\n        /* \"#utility.yul\":20309:20411   */\n      swap2\n      swap1\n      pop\n      jump\t// out\n        /* \"#utility.yul\":20417:20642   */\n    tag_489:\n        /* \"#utility.yul\":20557:20591   */\n      0x4f776e61626c653a206e6577206f776e657220697320746865207a65726f2061\n        /* \"#utility.yul\":20553:20554   */\n      0x00\n        /* \"#utility.yul\":20545:20551   */\n      dup3\n        /* \"#utility.yul\":20541:20555   */\n      add\n        /* \"#utility.yul\":20534:20592   */\n      mstore\n        /* \"#utility.yul\":20626:20634   */\n      0x6464726573730000000000000000000000000000000000000000000000000000\n        /* \"#utility.yul\":20621:20623   */\n      0x20\n        /* \"#utility.yul\":20613:20619   */\n      dup3\n        /* \"#utility.yul\":20609:20624   */\n      add\n        /* \"#utility.yul\":20602:20635   */\n      mstore\n        /* \"#utility.yul\":20417:20642   */\n      pop\n      jump\t// out\n        /* \"#utility.yul\":20648:20830   */\n    tag_494:\n        /* \"#utility.yul\":20788:20822   */\n      0x4f776e61626c653a2063616c6c6572206973206e6f7420746865206f776e6572\n        /* \"#utility.yul\":20784:20785   */\n      0x00\n        /* \"#utility.yul\":20776:20782   */\n      dup3\n        /* \"#utility.yul\":20772:20786   */\n      add\n        /* \"#utility.yul\":20765:20823   */\n      mstore\n        /* \"#utility.yul\":20648:20830   */\n      pop\n      jump\t// out\n        /* \"#utility.yul\":20836:20958   */\n    tag_353:\n        /* \"#utility.yul\":20909:20933   */\n      tag_621\n        /* \"#utility.yul\":20927:20932   */\n      dup2\n        /* \"#utility.yul\":20909:20933   */\n      tag_463\n      jump\t// in\n    tag_621:\n        /* \"#utility.yul\":20902:20907   */\n      dup2\n        /* \"#utility.yul\":20899:20934   */\n      eq\n        /* \"#utility.yul\":20889:20952   */\n      tag_622\n      jumpi\n        /* \"#utility.yul\":20948:20949   */\n      0x00\n        /* \"#utility.yul\":20945:20946   */\n      dup1\n        /* \"#utility.yul\":20938:20950   */\n      revert\n        /* \"#utility.yul\":20889:20952   */\n    tag_622:\n        /* \"#utility.yul\":20836:20958   */\n      pop\n      jump\t// out\n        /* \"#utility.yul\":20964:21114   */\n    tag_366:\n        /* \"#utility.yul\":21051:21089   */\n      tag_624\n        /* \"#utility.yul\":21083:21088   */\n      dup2\n        /* \"#utility.yul\":21051:21089   */\n      tag_559\n      jump\t// in\n    tag_624:\n        /* \"#utility.yul\":21044:21049   */\n      dup2\n        /* \"#utility.yul\":21041:21090   */\n      eq\n        /* \"#utility.yul\":21031:21108   */\n      tag_625\n      jumpi\n        /* \"#utility.yul\":21104:21105   */\n      0x00\n        /* \"#utility.yul\":21101:21102   */\n      dup1\n        /* \"#utility.yul\":21094:21106   */\n      revert\n        /* \"#utility.yul\":21031:21108   */\n    tag_625:\n        /* \"#utility.yul\":20964:21114   */\n      pop\n      jump\t// out\n        /* \"#utility.yul\":21120:21274   */\n    tag_370:\n        /* \"#utility.yul\":21209:21249   */\n      tag_627\n        /* \"#utility.yul\":21243:21248   */\n      dup2\n        /* \"#utility.yul\":21209:21249   */\n      tag_562\n      jump\t// in\n    tag_627:\n        /* \"#utility.yul\":21202:21207   */\n      dup2\n        /* \"#utility.yul\":21199:21250   */\n      eq\n        /* \"#utility.yul\":21189:21268   */\n      tag_628\n      jumpi\n        /* \"#utility.yul\":21264:21265   */\n      0x00\n        /* \"#utility.yul\":21261:21262   */\n      dup1\n        /* \"#utility.yul\":21254:21266   */\n      revert\n        /* \"#utility.yul\":21189:21268   */\n    tag_628:\n        /* \"#utility.yul\":21120:21274   */\n      pop\n      jump\t// out\n        /* \"#utility.yul\":21280:21442   */\n    tag_374:\n        /* \"#utility.yul\":21373:21417   */\n      tag_630\n        /* \"#utility.yul\":21411:21416   */\n      dup2\n        /* \"#utility.yul\":21373:21417   */\n      tag_565\n      jump\t// in\n    tag_630:\n        /* \"#utility.yul\":21366:21371   */\n      dup2\n        /* \"#utility.yul\":21363:21418   */\n      eq\n        /* \"#utility.yul\":21353:21436   */\n      tag_631\n      jumpi\n        /* \"#utility.yul\":21432:21433   */\n      0x00\n        /* \"#utility.yul\":21429:21430   */\n      dup1\n        /* \"#utility.yul\":21422:21434   */\n      revert\n        /* \"#utility.yul\":21353:21436   */\n    tag_631:\n        /* \"#utility.yul\":21280:21442   */\n      pop\n      jump\t// out\n        /* \"#utility.yul\":21448:21610   */\n    tag_378:\n        /* \"#utility.yul\":21541:21585   */\n      tag_633\n        /* \"#utility.yul\":21579:21584   */\n      dup2\n        /* \"#utility.yul\":21541:21585   */\n      tag_568\n      jump\t// in\n    tag_633:\n        /* \"#utility.yul\":21534:21539   */\n      dup2\n        /* \"#utility.yul\":21531:21586   */\n      eq\n        /* \"#utility.yul\":21521:21604   */\n      tag_634\n      jumpi\n        /* \"#utility.yul\":21600:21601   */\n      0x00\n        /* \"#utility.yul\":21597:21598   */\n      dup1\n        /* \"#utility.yul\":21590:21602   */\n      revert\n        /* \"#utility.yul\":21521:21604   */\n    tag_634:\n        /* \"#utility.yul\":21448:21610   */\n      pop\n      jump\t// out\n        /* \"#utility.yul\":21616:21788   */\n    tag_382:\n        /* \"#utility.yul\":21714:21763   */\n      tag_636\n        /* \"#utility.yul\":21757:21762   */\n      dup2\n        /* \"#utility.yul\":21714:21763   */\n      tag_571\n      jump\t// in\n    tag_636:\n        /* \"#utility.yul\":21707:21712   */\n      dup2\n        /* \"#utility.yul\":21704:21764   */\n      eq\n        /* \"#utility.yul\":21694:21782   */\n      tag_637\n      jumpi\n        /* \"#utility.yul\":21778:21779   */\n      0x00\n        /* \"#utility.yul\":21775:21776   */\n      dup1\n        /* \"#utility.yul\":21768:21780   */\n      revert\n        /* \"#utility.yul\":21694:21782   */\n    tag_637:\n        /* \"#utility.yul\":21616:21788   */\n      pop\n      jump\t// out\n        /* \"#utility.yul\":21794:21916   */\n    tag_398:\n        /* \"#utility.yul\":21867:21891   */\n      tag_639\n        /* \"#utility.yul\":21885:21890   */\n      dup2\n        /* \"#utility.yul\":21867:21891   */\n      tag_574\n      jump\t// in\n    tag_639:\n        /* \"#utility.yul\":21860:21865   */\n      dup2\n        /* \"#utility.yul\":21857:21892   */\n      eq\n        /* \"#utility.yul\":21847:21910   */\n      tag_640\n      jumpi\n        /* \"#utility.yul\":21906:21907   */\n      0x00\n        /* \"#utility.yul\":21903:21904   */\n      dup1\n        /* \"#utility.yul\":21896:21908   */\n      revert\n        /* \"#utility.yul\":21847:21910   */\n    tag_640:\n        /* \"#utility.yul\":21794:21916   */\n      pop\n      jump\t// out\n        /* \"#utility.yul\":21922:22044   */\n    tag_402:\n        /* \"#utility.yul\":21995:22019   */\n      tag_642\n        /* \"#utility.yul\":22013:22018   */\n      dup2\n        /* \"#utility.yul\":21995:22019   */\n      tag_498\n      jump\t// in\n    tag_642:\n        /* \"#utility.yul\":21988:21993   */\n      dup2\n        /* \"#utility.yul\":21985:22020   */\n      eq\n        /* \"#utility.yul\":21975:22038   */\n      tag_643\n      jumpi\n        /* \"#utility.yul\":22034:22035   */\n      0x00\n        /* \"#utility.yul\":22031:22032   */\n      dup1\n        /* \"#utility.yul\":22024:22036   */\n      revert\n        /* \"#utility.yul\":21975:22038   */\n    tag_643:\n        /* \"#utility.yul\":21922:22044   */\n      pop\n      jump\t// out\n        /* \"#utility.yul\":22050:22170   */\n    tag_408:\n        /* \"#utility.yul\":22122:22145   */\n      tag_645\n        /* \"#utility.yul\":22139:22144   */\n      dup2\n        /* \"#utility.yul\":22122:22145   */\n      tag_578\n      jump\t// in\n    tag_645:\n        /* \"#utility.yul\":22115:22120   */\n      dup2\n        /* \"#utility.yul\":22112:22146   */\n      eq\n        /* \"#utility.yul\":22102:22164   */\n      tag_646\n      jumpi\n        /* \"#utility.yul\":22160:22161   */\n      0x00\n        /* \"#utility.yul\":22157:22158   */\n      dup1\n        /* \"#utility.yul\":22150:22162   */\n      revert\n        /* \"#utility.yul\":22102:22164   */\n    tag_646:\n        /* \"#utility.yul\":22050:22170   */\n      pop\n      jump\t// out\n\n    auxdata: 0xa26469706673582212201d30884bf1e25f058a9c93cd8decb699ad79b0ae547cb9158bd4bf195372241264736f6c63430008070033\n}\n",
				"bytecode": {
					"linkReferences": {},
					"object": "60806040523480156200001157600080fd5b5062000032620000266200003860201b60201c565b6200004060201b60201c565b62000104565b600033905090565b60008060009054906101000a900473ffffffffffffffffffffffffffffffffffffffff169050816000806101000a81548173ffffffffffffffffffffffffffffffffffffffff021916908373ffffffffffffffffffffffffffffffffffffffff1602179055508173ffffffffffffffffffffffffffffffffffffffff168173ffffffffffffffffffffffffffffffffffffffff167f8be0079c531659141344cd1fd0a4f28419497f9722a3daafe3b4186f6b6457e060405160405180910390a35050565b61260280620001146000396000f3fe608060405234801561001057600080fd5b50600436106101a85760003560e01c80634ea2813c116100f9578063a7288c2e11610097578063f0b7db4e11610071578063f0b7db4e146104cc578063f2fde38b146104ea578063f479ef2214610506578063fbec6f2114610522576101a8565b8063a7288c2e1461044e578063b8c9d25c1461047e578063bf8ebd851461049c576101a8565b806376ed535a116100d357806376ed535a146103da57806384119666146103f65780638bb8c68f146104145780638da5cb5b14610430576101a8565b80634ea2813c146103965780636de5368b146103b2578063715018a6146103d0576101a8565b806310a5806a116101665780632540d8a7116101405780632540d8a7146102ea5780633445d3811461031a57806342632ee01461034a57806349fd566b1461037a576101a8565b806310a5806a1461028057806317d8b80c1461029e5780631fb5d3c2146102ba576101a8565b8062c2378f146101ad5780630314214c146101de5780630520b708146101fc5780630651823e146102185780630b75aa36146102345780630ed7b86114610264575b600080fd5b6101c760048036038101906101c29190611bff565b610540565b6040516101d5929190612018565b60405180910390f35b6101e6610564565b6040516101f39190611f51565b60405180910390f35b61021660048036038101906102119190611ce2565b61058a565b005b610232600480360381019061022d9190611cb5565b61064a565b005b61024e60048036038101906102499190611bff565b61070a565b60405161025b9190611ffd565b60405180910390f35b61027e60048036038101906102799190611d3c565b610755565b005b610288610815565b6040516102959190611f87565b60405180910390f35b6102b860048036038101906102b39190611d69565b61083b565b005b6102d460048036038101906102cf9190611bff565b6108fb565b6040516102e19190611ffd565b60405180910390f35b61030460048036038101906102ff9190611bff565b6109af565b6040516103119190611ffd565b60405180910390f35b610334600480360381019061032f9190611bff565b610b4c565b6040516103419190611ffd565b60405180910390f35b610364600480360381019061035f9190611bff565b610c00565b6040516103719190611ffd565b60405180910390f35b610394600480360381019061038f9190611c2c565b610db7565b005b6103b060048036038101906103ab9190611c2c565b611061565b005b6103ba611143565b6040516103c79190611f36565b60405180910390f35b6103d8611169565b005b6103f460048036038101906103ef9190611ce2565b6111f1565b005b6103fe6112b1565b60405161040b9190611fa2565b60405180910390f35b61042e60048036038101906104299190611d0f565b6112d7565b005b610438611397565b6040516104459190611ef2565b60405180910390f35b61046860048036038101906104639190611bff565b6113c0565b6040516104759190611ffd565b60405180910390f35b61048661141e565b6040516104939190611f6c565b60405180910390f35b6104b660048036038101906104b19190611bff565b611444565b6040516104c39190611ffd565b60405180910390f35b6104d46116de565b6040516104e19190611f51565b60405180910390f35b61050460048036038101906104ff9190611bff565b611704565b005b610520600480360381019061051b9190611ce2565b6117fc565b005b61052a6118bc565b6040516105379190611f51565b60405180910390f35b60086020528060005260406000206000915090508060000154908060020154905082565b600560009054906101000a900473ffffffffffffffffffffffffffffffffffffffff1681565b6105926118e2565b73ffffffffffffffffffffffffffffffffffffffff166105b0611397565b73ffffffffffffffffffffffffffffffffffffffff1614610606576040517f08c379a00000000000000000000000000000000000000000000000000000000081526004016105fd90611fdd565b60405180910390fd5b80600660006101000a81548173ffffffffffffffffffffffffffffffffffffffff021916908373ffffffffffffffffffffffffffffffffffffffff16021790555050565b6106526118e2565b73ffffffffffffffffffffffffffffffffffffffff16610670611397565b73ffffffffffffffffffffffffffffffffffffffff16146106c6576040517f08c379a00000000000000000000000000000000000000000000000000000000081526004016106bd90611fdd565b60405180910390fd5b80600160006101000a81548173ffffffffffffffffffffffffffffffffffffffff021916908373ffffffffffffffffffffffffffffffffffffffff16021790555050565b6000610715826109af565b61071e83610c00565b610727846108fb565b61073085610b4c565b61073a91906120a3565b61074491906120a3565b61074e91906120a3565b9050919050565b61075d6118e2565b73ffffffffffffffffffffffffffffffffffffffff1661077b611397565b73ffffffffffffffffffffffffffffffffffffffff16146107d1576040517f08c379a00000000000000000000000000000000000000000000000000000000081526004016107c890611fdd565b60405180910390fd5b80600260006101000a81548173ffffffffffffffffffffffffffffffffffffffff021916908373ffffffffffffffffffffffffffffffffffffffff16021790555050565b600260009054906101000a900473ffffffffffffffffffffffffffffffffffffffff1681565b6108436118e2565b73ffffffffffffffffffffffffffffffffffffffff16610861611397565b73ffffffffffffffffffffffffffffffffffffffff16146108b7576040517f08c379a00000000000000000000000000000000000000000000000000000000081526004016108ae90611fdd565b60405180910390fd5b80600460006101000a81548173ffffffffffffffffffffffffffffffffffffffff021916908373ffffffffffffffffffffffffffffffffffffffff16021790555050565b6000600260009054906101000a900473ffffffffffffffffffffffffffffffffffffffff1673ffffffffffffffffffffffffffffffffffffffff1663c5d63d0a836040518263ffffffff1660e01b81526004016109589190611ef2565b60206040518083038186803b15801561097057600080fd5b505afa158015610984573d6000803e3d6000fd5b505050506040513d601f19601f820116820180604052508101906109a89190611e16565b9050919050565b6000806000600460009054906101000a900473ffffffffffffffffffffffffffffffffffffffff1673ffffffffffffffffffffffffffffffffffffffff166380017f4e856040518263ffffffff1660e01b8152600401610a0f9190611ef2565b60006040518083038186803b158015610a2757600080fd5b505afa158015610a3b573d6000803e3d6000fd5b505050506040513d6000823e3d601f19601f82011682018060405250810190610a649190611c6c565b905060005b8151811015610b4157600460009054906101000a900473ffffffffffffffffffffffffffffffffffffffff1673ffffffffffffffffffffffffffffffffffffffff166351d70bc4826040518263ffffffff1660e01b8152600401610acd9190611ffd565b60c06040518083038186803b158015610ae557600080fd5b505afa158015610af9573d6000803e3d6000fd5b505050506040513d601f19601f82011682018060405250810190610b1d9190611d96565b6080015183610b2c91906120a3565b92508080610b3990612327565b915050610a69565b508192505050919050565b6000600160009054906101000a900473ffffffffffffffffffffffffffffffffffffffff1673ffffffffffffffffffffffffffffffffffffffff166370a08231836040518263ffffffff1660e01b8152600401610ba99190611ef2565b60206040518083038186803b158015610bc157600080fd5b505afa158015610bd5573d6000803e3d6000fd5b505050506040513d601f19601f82011682018060405250810190610bf99190611e16565b9050919050565b600080600080600360009054906101000a900473ffffffffffffffffffffffffffffffffffffffff1673ffffffffffffffffffffffffffffffffffffffff16630902f1ac6040518163ffffffff1660e01b815260040160606040518083038186803b158015610c6e57600080fd5b505afa158015610c82573d6000803e3d6000fd5b505050506040513d601f19601f82011682018060405250810190610ca69190611dc3565b8093508194508295505050506000610ce7836dffffffffffffffffffffffffffff16856dffffffffffffffffffffffffffff166118ea90919063ffffffff16565b90506000600360009054906101000a900473ffffffffffffffffffffffffffffffffffffffff1673ffffffffffffffffffffffffffffffffffffffff166370a08231886040518263ffffffff1660e01b8152600401610d469190611ef2565b60206040518083038186803b158015610d5e57600080fd5b505afa158015610d72573d6000803e3d6000fd5b505050506040513d601f19601f82011682018060405250810190610d969190611e16565b9050610dab818361190090919063ffffffff16565b95505050505050919050565b8173ffffffffffffffffffffffffffffffffffffffff163373ffffffffffffffffffffffffffffffffffffffff161480610e235750610df4611397565b73ffffffffffffffffffffffffffffffffffffffff163373ffffffffffffffffffffffffffffffffffffffff16145b610e2c57600080fd5b80600860008473ffffffffffffffffffffffffffffffffffffffff1673ffffffffffffffffffffffffffffffffffffffff1681526020019081526020016000206001016001600860008673ffffffffffffffffffffffffffffffffffffffff1673ffffffffffffffffffffffffffffffffffffffff16815260200190815260200160002060010180549050610ec19190612184565b81548110610ed257610ed16123fd565b5b906000526020600020015414610ff557600860008373ffffffffffffffffffffffffffffffffffffffff1673ffffffffffffffffffffffffffffffffffffffff1681526020019081526020016000206001016001600860008573ffffffffffffffffffffffffffffffffffffffff1673ffffffffffffffffffffffffffffffffffffffff16815260200190815260200160002060010180549050610f769190612184565b81548110610f8757610f866123fd565b5b9060005260206000200154600860008473ffffffffffffffffffffffffffffffffffffffff1673ffffffffffffffffffffffffffffffffffffffff1681526020019081526020016000206001018281548110610fe657610fe56123fd565b5b90600052602060002001819055505b600860008373ffffffffffffffffffffffffffffffffffffffff1673ffffffffffffffffffffffffffffffffffffffff168152602001908152602001600020600101805480611047576110466123ce565b5b600190038181906000526020600020016000905590555050565b8173ffffffffffffffffffffffffffffffffffffffff163373ffffffffffffffffffffffffffffffffffffffff1614806110cd575061109e611397565b73ffffffffffffffffffffffffffffffffffffffff163373ffffffffffffffffffffffffffffffffffffffff16145b6110d657600080fd5b600860008373ffffffffffffffffffffffffffffffffffffffff1673ffffffffffffffffffffffffffffffffffffffff1681526020019081526020016000206001018190806001815401808255809150506001900390600052602060002001600090919091909150555050565b600160009054906101000a900473ffffffffffffffffffffffffffffffffffffffff1681565b6111716118e2565b73ffffffffffffffffffffffffffffffffffffffff1661118f611397565b73ffffffffffffffffffffffffffffffffffffffff16146111e5576040517f08c379a00000000000000000000000000000000000000000000000000000000081526004016111dc90611fdd565b60405180910390fd5b6111ef6000611916565b565b6111f96118e2565b73ffffffffffffffffffffffffffffffffffffffff16611217611397565b73ffffffffffffffffffffffffffffffffffffffff161461126d576040517f08c379a000000000000000000000000000000000000000000000000000000000815260040161126490611fdd565b60405180910390fd5b80600760006101000a81548173ffffffffffffffffffffffffffffffffffffffff021916908373ffffffffffffffffffffffffffffffffffffffff16021790555050565b600460009054906101000a900473ffffffffffffffffffffffffffffffffffffffff1681565b6112df6118e2565b73ffffffffffffffffffffffffffffffffffffffff166112fd611397565b73ffffffffffffffffffffffffffffffffffffffff1614611353576040517f08c379a000000000000000000000000000000000000000000000000000000000815260040161134a90611fdd565b60405180910390fd5b80600360006101000a81548173ffffffffffffffffffffffffffffffffffffffff021916908373ffffffffffffffffffffffffffffffffffffffff16021790555050565b60008060009054906101000a900473ffffffffffffffffffffffffffffffffffffffff16905090565b60006113cb82611444565b6113d4836109af565b6113dd84610c00565b6113e6856108fb565b6113ef86610b4c565b6113f991906120a3565b61140391906120a3565b61140d91906120a3565b61141791906120a3565b9050919050565b600360009054906101000a900473ffffffffffffffffffffffffffffffffffffffff1681565b6000806000905060005b61044c811161152357600560009054906101000a900473ffffffffffffffffffffffffffffffffffffffff1673ffffffffffffffffffffffffffffffffffffffff1662fdd58e85836040518363ffffffff1660e01b81526004016114b3929190611f0d565b60206040518083038186803b1580156114cb57600080fd5b505afa1580156114df573d6000803e3d6000fd5b505050506040513d601f19601f820116820180604052508101906115039190611e16565b8261150e91906120a3565b9150808061151b90612327565b91505061144e565b5060005b61012c81116115fc57600660009054906101000a900473ffffffffffffffffffffffffffffffffffffffff1673ffffffffffffffffffffffffffffffffffffffff1662fdd58e85836040518363ffffffff1660e01b815260040161158c929190611f0d565b60206040518083038186803b1580156115a457600080fd5b505afa1580156115b8573d6000803e3d6000fd5b505050506040513d601f19601f820116820180604052508101906115dc9190611e16565b826115e791906120a3565b915080806115f490612327565b915050611527565b5060005b606481116116d457600760009054906101000a900473ffffffffffffffffffffffffffffffffffffffff1673ffffffffffffffffffffffffffffffffffffffff1662fdd58e85836040518363ffffffff1660e01b8152600401611664929190611f0d565b60206040518083038186803b15801561167c57600080fd5b505afa158015611690573d6000803e3d6000fd5b505050506040513d601f19601f820116820180604052508101906116b49190611e16565b826116bf91906120a3565b915080806116cc90612327565b915050611600565b5080915050919050565b600760009054906101000a900473ffffffffffffffffffffffffffffffffffffffff1681565b61170c6118e2565b73ffffffffffffffffffffffffffffffffffffffff1661172a611397565b73ffffffffffffffffffffffffffffffffffffffff1614611780576040517f08c379a000000000000000000000000000000000000000000000000000000000815260040161177790611fdd565b60405180910390fd5b600073ffffffffffffffffffffffffffffffffffffffff168173ffffffffffffffffffffffffffffffffffffffff1614156117f0576040517f08c379a00000000000000000000000000000000000000000000000000000000081526004016117e790611fbd565b60405180910390fd5b6117f981611916565b50565b6118046118e2565b73ffffffffffffffffffffffffffffffffffffffff16611822611397565b73ffffffffffffffffffffffffffffffffffffffff1614611878576040517f08c379a000000000000000000000000000000000000000000000000000000000815260040161186f90611fdd565b60405180910390fd5b80600560006101000a81548173ffffffffffffffffffffffffffffffffffffffff021916908373ffffffffffffffffffffffffffffffffffffffff16021790555050565b600660009054906101000a900473ffffffffffffffffffffffffffffffffffffffff1681565b600033905090565b600081836118f891906120f9565b905092915050565b6000818361190e919061212a565b905092915050565b60008060009054906101000a900473ffffffffffffffffffffffffffffffffffffffff169050816000806101000a81548173ffffffffffffffffffffffffffffffffffffffff021916908373ffffffffffffffffffffffffffffffffffffffff1602179055508173ffffffffffffffffffffffffffffffffffffffff168173ffffffffffffffffffffffffffffffffffffffff167f8be0079c531659141344cd1fd0a4f28419497f9722a3daafe3b4186f6b6457e060405160405180910390a35050565b60006119ed6119e884612066565b612041565b90508083825260208201905082856020860282011115611a1057611a0f612465565b5b60005b85811015611a405781611a268882611bd5565b845260208401935060208301925050600181019050611a13565b5050509392505050565b600081359050611a59816124fd565b92915050565b600081519050611a6e816124fd565b92915050565b600082601f830112611a8957611a8861245b565b5b8151611a998482602086016119da565b91505092915050565b600081359050611ab181612514565b92915050565b600081359050611ac68161252b565b92915050565b600081359050611adb81612542565b92915050565b600081359050611af081612559565b92915050565b600081359050611b0581612570565b92915050565b600060c08284031215611b2157611b20612460565b5b611b2b60c0612041565b90506000611b3b84828501611a5f565b6000830152506020611b4f84828501611bd5565b6020830152506040611b6384828501611bd5565b6040830152506060611b7784828501611bd5565b6060830152506080611b8b84828501611bd5565b60808301525060a0611b9f84828501611bd5565b60a08301525092915050565b600081519050611bba81612587565b92915050565b600081359050611bcf8161259e565b92915050565b600081519050611be48161259e565b92915050565b600081519050611bf9816125b5565b92915050565b600060208284031215611c1557611c1461246f565b5b6000611c2384828501611a4a565b91505092915050565b60008060408385031215611c4357611c4261246f565b5b6000611c5185828601611a4a565b9250506020611c6285828601611bc0565b9150509250929050565b600060208284031215611c8257611c8161246f565b5b600082015167ffffffffffffffff811115611ca057611c9f61246a565b5b611cac84828501611a74565b91505092915050565b600060208284031215611ccb57611cca61246f565b5b6000611cd984828501611aa2565b91505092915050565b600060208284031215611cf857611cf761246f565b5b6000611d0684828501611ab7565b91505092915050565b600060208284031215611d2557611d2461246f565b5b6000611d3384828501611acc565b91505092915050565b600060208284031215611d5257611d5161246f565b5b6000611d6084828501611ae1565b91505092915050565b600060208284031215611d7f57611d7e61246f565b5b6000611d8d84828501611af6565b91505092915050565b600060c08284031215611dac57611dab61246f565b5b6000611dba84828501611b0b565b91505092915050565b600080600060608486031215611ddc57611ddb61246f565b5b6000611dea86828701611bab565b9350506020611dfb86828701611bab565b9250506040611e0c86828701611bea565b9150509250925092565b600060208284031215611e2c57611e2b61246f565b5b6000611e3a84828501611bd5565b91505092915050565b611e4c816121b8565b82525050565b611e5b81612278565b82525050565b611e6a8161228a565b82525050565b611e798161229c565b82525050565b611e88816122ae565b82525050565b611e97816122c0565b82525050565b6000611eaa602683612092565b9150611eb582612485565b604082019050919050565b6000611ecd602083612092565b9150611ed8826124d4565b602082019050919050565b611eec8161225e565b82525050565b6000602082019050611f076000830184611e43565b92915050565b6000604082019050611f226000830185611e43565b611f2f6020830184611ee3565b9392505050565b6000602082019050611f4b6000830184611e52565b92915050565b6000602082019050611f666000830184611e61565b92915050565b6000602082019050611f816000830184611e70565b92915050565b6000602082019050611f9c6000830184611e7f565b92915050565b6000602082019050611fb76000830184611e8e565b92915050565b60006020820190508181036000830152611fd681611e9d565b9050919050565b60006020820190508181036000830152611ff681611ec0565b9050919050565b60006020820190506120126000830184611ee3565b92915050565b600060408201905061202d6000830185611ee3565b61203a6020830184611ee3565b9392505050565b600061204b61205c565b905061205782826122f6565b919050565b6000604051905090565b600067ffffffffffffffff8211156120815761208061242c565b5b602082029050602081019050919050565b600082825260208201905092915050565b60006120ae8261225e565b91506120b98361225e565b9250827fffffffffffffffffffffffffffffffffffffffffffffffffffffffffffffffff038211156120ee576120ed612370565b5b828201905092915050565b60006121048261225e565b915061210f8361225e565b92508261211f5761211e61239f565b5b828204905092915050565b60006121358261225e565b91506121408361225e565b9250817fffffffffffffffffffffffffffffffffffffffffffffffffffffffffffffffff048311821515161561217957612178612370565b5b828202905092915050565b600061218f8261225e565b915061219a8361225e565b9250828210156121ad576121ac612370565b5b828203905092915050565b60006121c38261223e565b9050919050565b60006121d5826121b8565b9050919050565b60006121e7826121b8565b9050919050565b60006121f9826121b8565b9050919050565b600061220b826121b8565b9050919050565b600061221d826121b8565b9050919050565b60006dffffffffffffffffffffffffffff82169050919050565b600073ffffffffffffffffffffffffffffffffffffffff82169050919050565b6000819050919050565b600063ffffffff82169050919050565b6000612283826122d2565b9050919050565b6000612295826122d2565b9050919050565b60006122a7826122d2565b9050919050565b60006122b9826122d2565b9050919050565b60006122cb826122d2565b9050919050565b60006122dd826122e4565b9050919050565b60006122ef8261223e565b9050919050565b6122ff82612474565b810181811067ffffffffffffffff8211171561231e5761231d61242c565b5b80604052505050565b60006123328261225e565b91507fffffffffffffffffffffffffffffffffffffffffffffffffffffffffffffffff82141561236557612364612370565b5b600182019050919050565b7f4e487b7100000000000000000000000000000000000000000000000000000000600052601160045260246000fd5b7f4e487b7100000000000000000000000000000000000000000000000000000000600052601260045260246000fd5b7f4e487b7100000000000000000000000000000000000000000000000000000000600052603160045260246000fd5b7f4e487b7100000000000000000000000000000000000000000000000000000000600052603260045260246000fd5b7f4e487b7100000000000000000000000000000000000000000000000000000000600052604160045260246000fd5b600080fd5b600080fd5b600080fd5b600080fd5b600080fd5b6000601f19601f8301169050919050565b7f4f776e61626c653a206e6577206f776e657220697320746865207a65726f206160008201527f6464726573730000000000000000000000000000000000000000000000000000602082015250565b7f4f776e61626c653a2063616c6c6572206973206e6f7420746865206f776e6572600082015250565b612506816121b8565b811461251157600080fd5b50565b61251d816121ca565b811461252857600080fd5b50565b612534816121dc565b811461253f57600080fd5b50565b61254b816121ee565b811461255657600080fd5b50565b61256281612200565b811461256d57600080fd5b50565b61257981612212565b811461258457600080fd5b50565b61259081612224565b811461259b57600080fd5b50565b6125a78161225e565b81146125b257600080fd5b50565b6125be81612268565b81146125c957600080fd5b5056fea26469706673582212201d30884bf1e25f058a9c93cd8decb699ad79b0ae547cb9158bd4bf195372241264736f6c63430008070033",
					"opcodes": "PUSH1 0x80 PUSH1 0x40 MSTORE CALLVALUE DUP1 ISZERO PUSH3 0x11 JUMPI PUSH1 0x0 DUP1 REVERT JUMPDEST POP PUSH3 0x32 PUSH3 0x26 PUSH3 0x38 PUSH1 0x20 SHL PUSH1 0x20 SHR JUMP JUMPDEST PUSH3 0x40 PUSH1 0x20 SHL PUSH1 0x20 SHR JUMP JUMPDEST PUSH3 0x104 JUMP JUMPDEST PUSH1 0x0 CALLER SWAP1 POP SWAP1 JUMP JUMPDEST PUSH1 0x0 DUP1 PUSH1 0x0 SWAP1 SLOAD SWAP1 PUSH2 0x100 EXP SWAP1 DIV PUSH20 0xFFFFFFFFFFFFFFFFFFFFFFFFFFFFFFFFFFFFFFFF AND SWAP1 POP DUP2 PUSH1 0x0 DUP1 PUSH2 0x100 EXP DUP2 SLOAD DUP2 PUSH20 0xFFFFFFFFFFFFFFFFFFFFFFFFFFFFFFFFFFFFFFFF MUL NOT AND SWAP1 DUP4 PUSH20 0xFFFFFFFFFFFFFFFFFFFFFFFFFFFFFFFFFFFFFFFF AND MUL OR SWAP1 SSTORE POP DUP2 PUSH20 0xFFFFFFFFFFFFFFFFFFFFFFFFFFFFFFFFFFFFFFFF AND DUP2 PUSH20 0xFFFFFFFFFFFFFFFFFFFFFFFFFFFFFFFFFFFFFFFF AND PUSH32 0x8BE0079C531659141344CD1FD0A4F28419497F9722A3DAAFE3B4186F6B6457E0 PUSH1 0x40 MLOAD PUSH1 0x40 MLOAD DUP1 SWAP2 SUB SWAP1 LOG3 POP POP JUMP JUMPDEST PUSH2 0x2602 DUP1 PUSH3 0x114 PUSH1 0x0 CODECOPY PUSH1 0x0 RETURN INVALID PUSH1 0x80 PUSH1 0x40 MSTORE CALLVALUE DUP1 ISZERO PUSH2 0x10 JUMPI PUSH1 0x0 DUP1 REVERT JUMPDEST POP PUSH1 0x4 CALLDATASIZE LT PUSH2 0x1A8 JUMPI PUSH1 0x0 CALLDATALOAD PUSH1 0xE0 SHR DUP1 PUSH4 0x4EA2813C GT PUSH2 0xF9 JUMPI DUP1 PUSH4 0xA7288C2E GT PUSH2 0x97 JUMPI DUP1 PUSH4 0xF0B7DB4E GT PUSH2 0x71 JUMPI DUP1 PUSH4 0xF0B7DB4E EQ PUSH2 0x4CC JUMPI DUP1 PUSH4 0xF2FDE38B EQ PUSH2 0x4EA JUMPI DUP1 PUSH4 0xF479EF22 EQ PUSH2 0x506 JUMPI DUP1 PUSH4 0xFBEC6F21 EQ PUSH2 0x522 JUMPI PUSH2 0x1A8 JUMP JUMPDEST DUP1 PUSH4 0xA7288C2E EQ PUSH2 0x44E JUMPI DUP1 PUSH4 0xB8C9D25C EQ PUSH2 0x47E JUMPI DUP1 PUSH4 0xBF8EBD85 EQ PUSH2 0x49C JUMPI PUSH2 0x1A8 JUMP JUMPDEST DUP1 PUSH4 0x76ED535A GT PUSH2 0xD3 JUMPI DUP1 PUSH4 0x76ED535A EQ PUSH2 0x3DA JUMPI DUP1 PUSH4 0x84119666 EQ PUSH2 0x3F6 JUMPI DUP1 PUSH4 0x8BB8C68F EQ PUSH2 0x414 JUMPI DUP1 PUSH4 0x8DA5CB5B EQ PUSH2 0x430 JUMPI PUSH2 0x1A8 JUMP JUMPDEST DUP1 PUSH4 0x4EA2813C EQ PUSH2 0x396 JUMPI DUP1 PUSH4 0x6DE5368B EQ PUSH2 0x3B2 JUMPI DUP1 PUSH4 0x715018A6 EQ PUSH2 0x3D0 JUMPI PUSH2 0x1A8 JUMP JUMPDEST DUP1 PUSH4 0x10A5806A GT PUSH2 0x166 JUMPI DUP1 PUSH4 0x2540D8A7 GT PUSH2 0x140 JUMPI DUP1 PUSH4 0x2540D8A7 EQ PUSH2 0x2EA JUMPI DUP1 PUSH4 0x3445D381 EQ PUSH2 0x31A JUMPI DUP1 PUSH4 0x42632EE0 EQ PUSH2 0x34A JUMPI DUP1 PUSH4 0x49FD566B EQ PUSH2 0x37A JUMPI PUSH2 0x1A8 JUMP JUMPDEST DUP1 PUSH4 0x10A5806A EQ PUSH2 0x280 JUMPI DUP1 PUSH4 0x17D8B80C EQ PUSH2 0x29E JUMPI DUP1 PUSH4 0x1FB5D3C2 EQ PUSH2 0x2BA JUMPI PUSH2 0x1A8 JUMP JUMPDEST DUP1 PUSH3 0xC2378F EQ PUSH2 0x1AD JUMPI DUP1 PUSH4 0x314214C EQ PUSH2 0x1DE JUMPI DUP1 PUSH4 0x520B708 EQ PUSH2 0x1FC JUMPI DUP1 PUSH4 0x651823E EQ PUSH2 0x218 JUMPI DUP1 PUSH4 0xB75AA36 EQ PUSH2 0x234 JUMPI DUP1 PUSH4 0xED7B861 EQ PUSH2 0x264 JUMPI JUMPDEST PUSH1 0x0 DUP1 REVERT JUMPDEST PUSH2 0x1C7 PUSH1 0x4 DUP1 CALLDATASIZE SUB DUP2 ADD SWAP1 PUSH2 0x1C2 SWAP2 SWAP1 PUSH2 0x1BFF JUMP JUMPDEST PUSH2 0x540 JUMP JUMPDEST PUSH1 0x40 MLOAD PUSH2 0x1D5 SWAP3 SWAP2 SWAP1 PUSH2 0x2018 JUMP JUMPDEST PUSH1 0x40 MLOAD DUP1 SWAP2 SUB SWAP1 RETURN JUMPDEST PUSH2 0x1E6 PUSH2 0x564 JUMP JUMPDEST PUSH1 0x40 MLOAD PUSH2 0x1F3 SWAP2 SWAP1 PUSH2 0x1F51 JUMP JUMPDEST PUSH1 0x40 MLOAD DUP1 SWAP2 SUB SWAP1 RETURN JUMPDEST PUSH2 0x216 PUSH1 0x4 DUP1 CALLDATASIZE SUB DUP2 ADD SWAP1 PUSH2 0x211 SWAP2 SWAP1 PUSH2 0x1CE2 JUMP JUMPDEST PUSH2 0x58A JUMP JUMPDEST STOP JUMPDEST PUSH2 0x232 PUSH1 0x4 DUP1 CALLDATASIZE SUB DUP2 ADD SWAP1 PUSH2 0x22D SWAP2 SWAP1 PUSH2 0x1CB5 JUMP JUMPDEST PUSH2 0x64A JUMP JUMPDEST STOP JUMPDEST PUSH2 0x24E PUSH1 0x4 DUP1 CALLDATASIZE SUB DUP2 ADD SWAP1 PUSH2 0x249 SWAP2 SWAP1 PUSH2 0x1BFF JUMP JUMPDEST PUSH2 0x70A JUMP JUMPDEST PUSH1 0x40 MLOAD PUSH2 0x25B SWAP2 SWAP1 PUSH2 0x1FFD JUMP JUMPDEST PUSH1 0x40 MLOAD DUP1 SWAP2 SUB SWAP1 RETURN JUMPDEST PUSH2 0x27E PUSH1 0x4 DUP1 CALLDATASIZE SUB DUP2 ADD SWAP1 PUSH2 0x279 SWAP2 SWAP1 PUSH2 0x1D3C JUMP JUMPDEST PUSH2 0x755 JUMP JUMPDEST STOP JUMPDEST PUSH2 0x288 PUSH2 0x815 JUMP JUMPDEST PUSH1 0x40 MLOAD PUSH2 0x295 SWAP2 SWAP1 PUSH2 0x1F87 JUMP JUMPDEST PUSH1 0x40 MLOAD DUP1 SWAP2 SUB SWAP1 RETURN JUMPDEST PUSH2 0x2B8 PUSH1 0x4 DUP1 CALLDATASIZE SUB DUP2 ADD SWAP1 PUSH2 0x2B3 SWAP2 SWAP1 PUSH2 0x1D69 JUMP JUMPDEST PUSH2 0x83B JUMP JUMPDEST STOP JUMPDEST PUSH2 0x2D4 PUSH1 0x4 DUP1 CALLDATASIZE SUB DUP2 ADD SWAP1 PUSH2 0x2CF SWAP2 SWAP1 PUSH2 0x1BFF JUMP JUMPDEST PUSH2 0x8FB JUMP JUMPDEST PUSH1 0x40 MLOAD PUSH2 0x2E1 SWAP2 SWAP1 PUSH2 0x1FFD JUMP JUMPDEST PUSH1 0x40 MLOAD DUP1 SWAP2 SUB SWAP1 RETURN JUMPDEST PUSH2 0x304 PUSH1 0x4 DUP1 CALLDATASIZE SUB DUP2 ADD SWAP1 PUSH2 0x2FF SWAP2 SWAP1 PUSH2 0x1BFF JUMP JUMPDEST PUSH2 0x9AF JUMP JUMPDEST PUSH1 0x40 MLOAD PUSH2 0x311 SWAP2 SWAP1 PUSH2 0x1FFD JUMP JUMPDEST PUSH1 0x40 MLOAD DUP1 SWAP2 SUB SWAP1 RETURN JUMPDEST PUSH2 0x334 PUSH1 0x4 DUP1 CALLDATASIZE SUB DUP2 ADD SWAP1 PUSH2 0x32F SWAP2 SWAP1 PUSH2 0x1BFF JUMP JUMPDEST PUSH2 0xB4C JUMP JUMPDEST PUSH1 0x40 MLOAD PUSH2 0x341 SWAP2 SWAP1 PUSH2 0x1FFD JUMP JUMPDEST PUSH1 0x40 MLOAD DUP1 SWAP2 SUB SWAP1 RETURN JUMPDEST PUSH2 0x364 PUSH1 0x4 DUP1 CALLDATASIZE SUB DUP2 ADD SWAP1 PUSH2 0x35F SWAP2 SWAP1 PUSH2 0x1BFF JUMP JUMPDEST PUSH2 0xC00 JUMP JUMPDEST PUSH1 0x40 MLOAD PUSH2 0x371 SWAP2 SWAP1 PUSH2 0x1FFD JUMP JUMPDEST PUSH1 0x40 MLOAD DUP1 SWAP2 SUB SWAP1 RETURN JUMPDEST PUSH2 0x394 PUSH1 0x4 DUP1 CALLDATASIZE SUB DUP2 ADD SWAP1 PUSH2 0x38F SWAP2 SWAP1 PUSH2 0x1C2C JUMP JUMPDEST PUSH2 0xDB7 JUMP JUMPDEST STOP JUMPDEST PUSH2 0x3B0 PUSH1 0x4 DUP1 CALLDATASIZE SUB DUP2 ADD SWAP1 PUSH2 0x3AB SWAP2 SWAP1 PUSH2 0x1C2C JUMP JUMPDEST PUSH2 0x1061 JUMP JUMPDEST STOP JUMPDEST PUSH2 0x3BA PUSH2 0x1143 JUMP JUMPDEST PUSH1 0x40 MLOAD PUSH2 0x3C7 SWAP2 SWAP1 PUSH2 0x1F36 JUMP JUMPDEST PUSH1 0x40 MLOAD DUP1 SWAP2 SUB SWAP1 RETURN JUMPDEST PUSH2 0x3D8 PUSH2 0x1169 JUMP JUMPDEST STOP JUMPDEST PUSH2 0x3F4 PUSH1 0x4 DUP1 CALLDATASIZE SUB DUP2 ADD SWAP1 PUSH2 0x3EF SWAP2 SWAP1 PUSH2 0x1CE2 JUMP JUMPDEST PUSH2 0x11F1 JUMP JUMPDEST STOP JUMPDEST PUSH2 0x3FE PUSH2 0x12B1 JUMP JUMPDEST PUSH1 0x40 MLOAD PUSH2 0x40B SWAP2 SWAP1 PUSH2 0x1FA2 JUMP JUMPDEST PUSH1 0x40 MLOAD DUP1 SWAP2 SUB SWAP1 RETURN JUMPDEST PUSH2 0x42E PUSH1 0x4 DUP1 CALLDATASIZE SUB DUP2 ADD SWAP1 PUSH2 0x429 SWAP2 SWAP1 PUSH2 0x1D0F JUMP JUMPDEST PUSH2 0x12D7 JUMP JUMPDEST STOP JUMPDEST PUSH2 0x438 PUSH2 0x1397 JUMP JUMPDEST PUSH1 0x40 MLOAD PUSH2 0x445 SWAP2 SWAP1 PUSH2 0x1EF2 JUMP JUMPDEST PUSH1 0x40 MLOAD DUP1 SWAP2 SUB SWAP1 RETURN JUMPDEST PUSH2 0x468 PUSH1 0x4 DUP1 CALLDATASIZE SUB DUP2 ADD SWAP1 PUSH2 0x463 SWAP2 SWAP1 PUSH2 0x1BFF JUMP JUMPDEST PUSH2 0x13C0 JUMP JUMPDEST PUSH1 0x40 MLOAD PUSH2 0x475 SWAP2 SWAP1 PUSH2 0x1FFD JUMP JUMPDEST PUSH1 0x40 MLOAD DUP1 SWAP2 SUB SWAP1 RETURN JUMPDEST PUSH2 0x486 PUSH2 0x141E JUMP JUMPDEST PUSH1 0x40 MLOAD PUSH2 0x493 SWAP2 SWAP1 PUSH2 0x1F6C JUMP JUMPDEST PUSH1 0x40 MLOAD DUP1 SWAP2 SUB SWAP1 RETURN JUMPDEST PUSH2 0x4B6 PUSH1 0x4 DUP1 CALLDATASIZE SUB DUP2 ADD SWAP1 PUSH2 0x4B1 SWAP2 SWAP1 PUSH2 0x1BFF JUMP JUMPDEST PUSH2 0x1444 JUMP JUMPDEST PUSH1 0x40 MLOAD PUSH2 0x4C3 SWAP2 SWAP1 PUSH2 0x1FFD JUMP JUMPDEST PUSH1 0x40 MLOAD DUP1 SWAP2 SUB SWAP1 RETURN JUMPDEST PUSH2 0x4D4 PUSH2 0x16DE JUMP JUMPDEST PUSH1 0x40 MLOAD PUSH2 0x4E1 SWAP2 SWAP1 PUSH2 0x1F51 JUMP JUMPDEST PUSH1 0x40 MLOAD DUP1 SWAP2 SUB SWAP1 RETURN JUMPDEST PUSH2 0x504 PUSH1 0x4 DUP1 CALLDATASIZE SUB DUP2 ADD SWAP1 PUSH2 0x4FF SWAP2 SWAP1 PUSH2 0x1BFF JUMP JUMPDEST PUSH2 0x1704 JUMP JUMPDEST STOP JUMPDEST PUSH2 0x520 PUSH1 0x4 DUP1 CALLDATASIZE SUB DUP2 ADD SWAP1 PUSH2 0x51B SWAP2 SWAP1 PUSH2 0x1CE2 JUMP JUMPDEST PUSH2 0x17FC JUMP JUMPDEST STOP JUMPDEST PUSH2 0x52A PUSH2 0x18BC JUMP JUMPDEST PUSH1 0x40 MLOAD PUSH2 0x537 SWAP2 SWAP1 PUSH2 0x1F51 JUMP JUMPDEST PUSH1 0x40 MLOAD DUP1 SWAP2 SUB SWAP1 RETURN JUMPDEST PUSH1 0x8 PUSH1 0x20 MSTORE DUP1 PUSH1 0x0 MSTORE PUSH1 0x40 PUSH1 0x0 KECCAK256 PUSH1 0x0 SWAP2 POP SWAP1 POP DUP1 PUSH1 0x0 ADD SLOAD SWAP1 DUP1 PUSH1 0x2 ADD SLOAD SWAP1 POP DUP3 JUMP JUMPDEST PUSH1 0x5 PUSH1 0x0 SWAP1 SLOAD SWAP1 PUSH2 0x100 EXP SWAP1 DIV PUSH20 0xFFFFFFFFFFFFFFFFFFFFFFFFFFFFFFFFFFFFFFFF AND DUP2 JUMP JUMPDEST PUSH2 0x592 PUSH2 0x18E2 JUMP JUMPDEST PUSH20 0xFFFFFFFFFFFFFFFFFFFFFFFFFFFFFFFFFFFFFFFF AND PUSH2 0x5B0 PUSH2 0x1397 JUMP JUMPDEST PUSH20 0xFFFFFFFFFFFFFFFFFFFFFFFFFFFFFFFFFFFFFFFF AND EQ PUSH2 0x606 JUMPI PUSH1 0x40 MLOAD PUSH32 0x8C379A000000000000000000000000000000000000000000000000000000000 DUP2 MSTORE PUSH1 0x4 ADD PUSH2 0x5FD SWAP1 PUSH2 0x1FDD JUMP JUMPDEST PUSH1 0x40 MLOAD DUP1 SWAP2 SUB SWAP1 REVERT JUMPDEST DUP1 PUSH1 0x6 PUSH1 0x0 PUSH2 0x100 EXP DUP2 SLOAD DUP2 PUSH20 0xFFFFFFFFFFFFFFFFFFFFFFFFFFFFFFFFFFFFFFFF MUL NOT AND SWAP1 DUP4 PUSH20 0xFFFFFFFFFFFFFFFFFFFFFFFFFFFFFFFFFFFFFFFF AND MUL OR SWAP1 SSTORE POP POP JUMP JUMPDEST PUSH2 0x652 PUSH2 0x18E2 JUMP JUMPDEST PUSH20 0xFFFFFFFFFFFFFFFFFFFFFFFFFFFFFFFFFFFFFFFF AND PUSH2 0x670 PUSH2 0x1397 JUMP JUMPDEST PUSH20 0xFFFFFFFFFFFFFFFFFFFFFFFFFFFFFFFFFFFFFFFF AND EQ PUSH2 0x6C6 JUMPI PUSH1 0x40 MLOAD PUSH32 0x8C379A000000000000000000000000000000000000000000000000000000000 DUP2 MSTORE PUSH1 0x4 ADD PUSH2 0x6BD SWAP1 PUSH2 0x1FDD JUMP JUMPDEST PUSH1 0x40 MLOAD DUP1 SWAP2 SUB SWAP1 REVERT JUMPDEST DUP1 PUSH1 0x1 PUSH1 0x0 PUSH2 0x100 EXP DUP2 SLOAD DUP2 PUSH20 0xFFFFFFFFFFFFFFFFFFFFFFFFFFFFFFFFFFFFFFFF MUL NOT AND SWAP1 DUP4 PUSH20 0xFFFFFFFFFFFFFFFFFFFFFFFFFFFFFFFFFFFFFFFF AND MUL OR SWAP1 SSTORE POP POP JUMP JUMPDEST PUSH1 0x0 PUSH2 0x715 DUP3 PUSH2 0x9AF JUMP JUMPDEST PUSH2 0x71E DUP4 PUSH2 0xC00 JUMP JUMPDEST PUSH2 0x727 DUP5 PUSH2 0x8FB JUMP JUMPDEST PUSH2 0x730 DUP6 PUSH2 0xB4C JUMP JUMPDEST PUSH2 0x73A SWAP2 SWAP1 PUSH2 0x20A3 JUMP JUMPDEST PUSH2 0x744 SWAP2 SWAP1 PUSH2 0x20A3 JUMP JUMPDEST PUSH2 0x74E SWAP2 SWAP1 PUSH2 0x20A3 JUMP JUMPDEST SWAP1 POP SWAP2 SWAP1 POP JUMP JUMPDEST PUSH2 0x75D PUSH2 0x18E2 JUMP JUMPDEST PUSH20 0xFFFFFFFFFFFFFFFFFFFFFFFFFFFFFFFFFFFFFFFF AND PUSH2 0x77B PUSH2 0x1397 JUMP JUMPDEST PUSH20 0xFFFFFFFFFFFFFFFFFFFFFFFFFFFFFFFFFFFFFFFF AND EQ PUSH2 0x7D1 JUMPI PUSH1 0x40 MLOAD PUSH32 0x8C379A000000000000000000000000000000000000000000000000000000000 DUP2 MSTORE PUSH1 0x4 ADD PUSH2 0x7C8 SWAP1 PUSH2 0x1FDD JUMP JUMPDEST PUSH1 0x40 MLOAD DUP1 SWAP2 SUB SWAP1 REVERT JUMPDEST DUP1 PUSH1 0x2 PUSH1 0x0 PUSH2 0x100 EXP DUP2 SLOAD DUP2 PUSH20 0xFFFFFFFFFFFFFFFFFFFFFFFFFFFFFFFFFFFFFFFF MUL NOT AND SWAP1 DUP4 PUSH20 0xFFFFFFFFFFFFFFFFFFFFFFFFFFFFFFFFFFFFFFFF AND MUL OR SWAP1 SSTORE POP POP JUMP JUMPDEST PUSH1 0x2 PUSH1 0x0 SWAP1 SLOAD SWAP1 PUSH2 0x100 EXP SWAP1 DIV PUSH20 0xFFFFFFFFFFFFFFFFFFFFFFFFFFFFFFFFFFFFFFFF AND DUP2 JUMP JUMPDEST PUSH2 0x843 PUSH2 0x18E2 JUMP JUMPDEST PUSH20 0xFFFFFFFFFFFFFFFFFFFFFFFFFFFFFFFFFFFFFFFF AND PUSH2 0x861 PUSH2 0x1397 JUMP JUMPDEST PUSH20 0xFFFFFFFFFFFFFFFFFFFFFFFFFFFFFFFFFFFFFFFF AND EQ PUSH2 0x8B7 JUMPI PUSH1 0x40 MLOAD PUSH32 0x8C379A000000000000000000000000000000000000000000000000000000000 DUP2 MSTORE PUSH1 0x4 ADD PUSH2 0x8AE SWAP1 PUSH2 0x1FDD JUMP JUMPDEST PUSH1 0x40 MLOAD DUP1 SWAP2 SUB SWAP1 REVERT JUMPDEST DUP1 PUSH1 0x4 PUSH1 0x0 PUSH2 0x100 EXP DUP2 SLOAD DUP2 PUSH20 0xFFFFFFFFFFFFFFFFFFFFFFFFFFFFFFFFFFFFFFFF MUL NOT AND SWAP1 DUP4 PUSH20 0xFFFFFFFFFFFFFFFFFFFFFFFFFFFFFFFFFFFFFFFF AND MUL OR SWAP1 SSTORE POP POP JUMP JUMPDEST PUSH1 0x0 PUSH1 0x2 PUSH1 0x0 SWAP1 SLOAD SWAP1 PUSH2 0x100 EXP SWAP1 DIV PUSH20 0xFFFFFFFFFFFFFFFFFFFFFFFFFFFFFFFFFFFFFFFF AND PUSH20 0xFFFFFFFFFFFFFFFFFFFFFFFFFFFFFFFFFFFFFFFF AND PUSH4 0xC5D63D0A DUP4 PUSH1 0x40 MLOAD DUP3 PUSH4 0xFFFFFFFF AND PUSH1 0xE0 SHL DUP2 MSTORE PUSH1 0x4 ADD PUSH2 0x958 SWAP2 SWAP1 PUSH2 0x1EF2 JUMP JUMPDEST PUSH1 0x20 PUSH1 0x40 MLOAD DUP1 DUP4 SUB DUP2 DUP7 DUP1 EXTCODESIZE ISZERO DUP1 ISZERO PUSH2 0x970 JUMPI PUSH1 0x0 DUP1 REVERT JUMPDEST POP GAS STATICCALL ISZERO DUP1 ISZERO PUSH2 0x984 JUMPI RETURNDATASIZE PUSH1 0x0 DUP1 RETURNDATACOPY RETURNDATASIZE PUSH1 0x0 REVERT JUMPDEST POP POP POP POP PUSH1 0x40 MLOAD RETURNDATASIZE PUSH1 0x1F NOT PUSH1 0x1F DUP3 ADD AND DUP3 ADD DUP1 PUSH1 0x40 MSTORE POP DUP2 ADD SWAP1 PUSH2 0x9A8 SWAP2 SWAP1 PUSH2 0x1E16 JUMP JUMPDEST SWAP1 POP SWAP2 SWAP1 POP JUMP JUMPDEST PUSH1 0x0 DUP1 PUSH1 0x0 PUSH1 0x4 PUSH1 0x0 SWAP1 SLOAD SWAP1 PUSH2 0x100 EXP SWAP1 DIV PUSH20 0xFFFFFFFFFFFFFFFFFFFFFFFFFFFFFFFFFFFFFFFF AND PUSH20 0xFFFFFFFFFFFFFFFFFFFFFFFFFFFFFFFFFFFFFFFF AND PUSH4 0x80017F4E DUP6 PUSH1 0x40 MLOAD DUP3 PUSH4 0xFFFFFFFF AND PUSH1 0xE0 SHL DUP2 MSTORE PUSH1 0x4 ADD PUSH2 0xA0F SWAP2 SWAP1 PUSH2 0x1EF2 JUMP JUMPDEST PUSH1 0x0 PUSH1 0x40 MLOAD DUP1 DUP4 SUB DUP2 DUP7 DUP1 EXTCODESIZE ISZERO DUP1 ISZERO PUSH2 0xA27 JUMPI PUSH1 0x0 DUP1 REVERT JUMPDEST POP GAS STATICCALL ISZERO DUP1 ISZERO PUSH2 0xA3B JUMPI RETURNDATASIZE PUSH1 0x0 DUP1 RETURNDATACOPY RETURNDATASIZE PUSH1 0x0 REVERT JUMPDEST POP POP POP POP PUSH1 0x40 MLOAD RETURNDATASIZE PUSH1 0x0 DUP3 RETURNDATACOPY RETURNDATASIZE PUSH1 0x1F NOT PUSH1 0x1F DUP3 ADD AND DUP3 ADD DUP1 PUSH1 0x40 MSTORE POP DUP2 ADD SWAP1 PUSH2 0xA64 SWAP2 SWAP1 PUSH2 0x1C6C JUMP JUMPDEST SWAP1 POP PUSH1 0x0 JUMPDEST DUP2 MLOAD DUP2 LT ISZERO PUSH2 0xB41 JUMPI PUSH1 0x4 PUSH1 0x0 SWAP1 SLOAD SWAP1 PUSH2 0x100 EXP SWAP1 DIV PUSH20 0xFFFFFFFFFFFFFFFFFFFFFFFFFFFFFFFFFFFFFFFF AND PUSH20 0xFFFFFFFFFFFFFFFFFFFFFFFFFFFFFFFFFFFFFFFF AND PUSH4 0x51D70BC4 DUP3 PUSH1 0x40 MLOAD DUP3 PUSH4 0xFFFFFFFF AND PUSH1 0xE0 SHL DUP2 MSTORE PUSH1 0x4 ADD PUSH2 0xACD SWAP2 SWAP1 PUSH2 0x1FFD JUMP JUMPDEST PUSH1 0xC0 PUSH1 0x40 MLOAD DUP1 DUP4 SUB DUP2 DUP7 DUP1 EXTCODESIZE ISZERO DUP1 ISZERO PUSH2 0xAE5 JUMPI PUSH1 0x0 DUP1 REVERT JUMPDEST POP GAS STATICCALL ISZERO DUP1 ISZERO PUSH2 0xAF9 JUMPI RETURNDATASIZE PUSH1 0x0 DUP1 RETURNDATACOPY RETURNDATASIZE PUSH1 0x0 REVERT JUMPDEST POP POP POP POP PUSH1 0x40 MLOAD RETURNDATASIZE PUSH1 0x1F NOT PUSH1 0x1F DUP3 ADD AND DUP3 ADD DUP1 PUSH1 0x40 MSTORE POP DUP2 ADD SWAP1 PUSH2 0xB1D SWAP2 SWAP1 PUSH2 0x1D96 JUMP JUMPDEST PUSH1 0x80 ADD MLOAD DUP4 PUSH2 0xB2C SWAP2 SWAP1 PUSH2 0x20A3 JUMP JUMPDEST SWAP3 POP DUP1 DUP1 PUSH2 0xB39 SWAP1 PUSH2 0x2327 JUMP JUMPDEST SWAP2 POP POP PUSH2 0xA69 JUMP JUMPDEST POP DUP2 SWAP3 POP POP POP SWAP2 SWAP1 POP JUMP JUMPDEST PUSH1 0x0 PUSH1 0x1 PUSH1 0x0 SWAP1 SLOAD SWAP1 PUSH2 0x100 EXP SWAP1 DIV PUSH20 0xFFFFFFFFFFFFFFFFFFFFFFFFFFFFFFFFFFFFFFFF AND PUSH20 0xFFFFFFFFFFFFFFFFFFFFFFFFFFFFFFFFFFFFFFFF AND PUSH4 0x70A08231 DUP4 PUSH1 0x40 MLOAD DUP3 PUSH4 0xFFFFFFFF AND PUSH1 0xE0 SHL DUP2 MSTORE PUSH1 0x4 ADD PUSH2 0xBA9 SWAP2 SWAP1 PUSH2 0x1EF2 JUMP JUMPDEST PUSH1 0x20 PUSH1 0x40 MLOAD DUP1 DUP4 SUB DUP2 DUP7 DUP1 EXTCODESIZE ISZERO DUP1 ISZERO PUSH2 0xBC1 JUMPI PUSH1 0x0 DUP1 REVERT JUMPDEST POP GAS STATICCALL ISZERO DUP1 ISZERO PUSH2 0xBD5 JUMPI RETURNDATASIZE PUSH1 0x0 DUP1 RETURNDATACOPY RETURNDATASIZE PUSH1 0x0 REVERT JUMPDEST POP POP POP POP PUSH1 0x40 MLOAD RETURNDATASIZE PUSH1 0x1F NOT PUSH1 0x1F DUP3 ADD AND DUP3 ADD DUP1 PUSH1 0x40 MSTORE POP DUP2 ADD SWAP1 PUSH2 0xBF9 SWAP2 SWAP1 PUSH2 0x1E16 JUMP JUMPDEST SWAP1 POP SWAP2 SWAP1 POP JUMP JUMPDEST PUSH1 0x0 DUP1 PUSH1 0x0 DUP1 PUSH1 0x3 PUSH1 0x0 SWAP1 SLOAD SWAP1 PUSH2 0x100 EXP SWAP1 DIV PUSH20 0xFFFFFFFFFFFFFFFFFFFFFFFFFFFFFFFFFFFFFFFF AND PUSH20 0xFFFFFFFFFFFFFFFFFFFFFFFFFFFFFFFFFFFFFFFF AND PUSH4 0x902F1AC PUSH1 0x40 MLOAD DUP2 PUSH4 0xFFFFFFFF AND PUSH1 0xE0 SHL DUP2 MSTORE PUSH1 0x4 ADD PUSH1 0x60 PUSH1 0x40 MLOAD DUP1 DUP4 SUB DUP2 DUP7 DUP1 EXTCODESIZE ISZERO DUP1 ISZERO PUSH2 0xC6E JUMPI PUSH1 0x0 DUP1 REVERT JUMPDEST POP GAS STATICCALL ISZERO DUP1 ISZERO PUSH2 0xC82 JUMPI RETURNDATASIZE PUSH1 0x0 DUP1 RETURNDATACOPY RETURNDATASIZE PUSH1 0x0 REVERT JUMPDEST POP POP POP POP PUSH1 0x40 MLOAD RETURNDATASIZE PUSH1 0x1F NOT PUSH1 0x1F DUP3 ADD AND DUP3 ADD DUP1 PUSH1 0x40 MSTORE POP DUP2 ADD SWAP1 PUSH2 0xCA6 SWAP2 SWAP1 PUSH2 0x1DC3 JUMP JUMPDEST DUP1 SWAP4 POP DUP2 SWAP5 POP DUP3 SWAP6 POP POP POP POP PUSH1 0x0 PUSH2 0xCE7 DUP4 PUSH14 0xFFFFFFFFFFFFFFFFFFFFFFFFFFFF AND DUP6 PUSH14 0xFFFFFFFFFFFFFFFFFFFFFFFFFFFF AND PUSH2 0x18EA SWAP1 SWAP2 SWAP1 PUSH4 0xFFFFFFFF AND JUMP JUMPDEST SWAP1 POP PUSH1 0x0 PUSH1 0x3 PUSH1 0x0 SWAP1 SLOAD SWAP1 PUSH2 0x100 EXP SWAP1 DIV PUSH20 0xFFFFFFFFFFFFFFFFFFFFFFFFFFFFFFFFFFFFFFFF AND PUSH20 0xFFFFFFFFFFFFFFFFFFFFFFFFFFFFFFFFFFFFFFFF AND PUSH4 0x70A08231 DUP9 PUSH1 0x40 MLOAD DUP3 PUSH4 0xFFFFFFFF AND PUSH1 0xE0 SHL DUP2 MSTORE PUSH1 0x4 ADD PUSH2 0xD46 SWAP2 SWAP1 PUSH2 0x1EF2 JUMP JUMPDEST PUSH1 0x20 PUSH1 0x40 MLOAD DUP1 DUP4 SUB DUP2 DUP7 DUP1 EXTCODESIZE ISZERO DUP1 ISZERO PUSH2 0xD5E JUMPI PUSH1 0x0 DUP1 REVERT JUMPDEST POP GAS STATICCALL ISZERO DUP1 ISZERO PUSH2 0xD72 JUMPI RETURNDATASIZE PUSH1 0x0 DUP1 RETURNDATACOPY RETURNDATASIZE PUSH1 0x0 REVERT JUMPDEST POP POP POP POP PUSH1 0x40 MLOAD RETURNDATASIZE PUSH1 0x1F NOT PUSH1 0x1F DUP3 ADD AND DUP3 ADD DUP1 PUSH1 0x40 MSTORE POP DUP2 ADD SWAP1 PUSH2 0xD96 SWAP2 SWAP1 PUSH2 0x1E16 JUMP JUMPDEST SWAP1 POP PUSH2 0xDAB DUP2 DUP4 PUSH2 0x1900 SWAP1 SWAP2 SWAP1 PUSH4 0xFFFFFFFF AND JUMP JUMPDEST SWAP6 POP POP POP POP POP POP SWAP2 SWAP1 POP JUMP JUMPDEST DUP2 PUSH20 0xFFFFFFFFFFFFFFFFFFFFFFFFFFFFFFFFFFFFFFFF AND CALLER PUSH20 0xFFFFFFFFFFFFFFFFFFFFFFFFFFFFFFFFFFFFFFFF AND EQ DUP1 PUSH2 0xE23 JUMPI POP PUSH2 0xDF4 PUSH2 0x1397 JUMP JUMPDEST PUSH20 0xFFFFFFFFFFFFFFFFFFFFFFFFFFFFFFFFFFFFFFFF AND CALLER PUSH20 0xFFFFFFFFFFFFFFFFFFFFFFFFFFFFFFFFFFFFFFFF AND EQ JUMPDEST PUSH2 0xE2C JUMPI PUSH1 0x0 DUP1 REVERT JUMPDEST DUP1 PUSH1 0x8 PUSH1 0x0 DUP5 PUSH20 0xFFFFFFFFFFFFFFFFFFFFFFFFFFFFFFFFFFFFFFFF AND PUSH20 0xFFFFFFFFFFFFFFFFFFFFFFFFFFFFFFFFFFFFFFFF AND DUP2 MSTORE PUSH1 0x20 ADD SWAP1 DUP2 MSTORE PUSH1 0x20 ADD PUSH1 0x0 KECCAK256 PUSH1 0x1 ADD PUSH1 0x1 PUSH1 0x8 PUSH1 0x0 DUP7 PUSH20 0xFFFFFFFFFFFFFFFFFFFFFFFFFFFFFFFFFFFFFFFF AND PUSH20 0xFFFFFFFFFFFFFFFFFFFFFFFFFFFFFFFFFFFFFFFF AND DUP2 MSTORE PUSH1 0x20 ADD SWAP1 DUP2 MSTORE PUSH1 0x20 ADD PUSH1 0x0 KECCAK256 PUSH1 0x1 ADD DUP1 SLOAD SWAP1 POP PUSH2 0xEC1 SWAP2 SWAP1 PUSH2 0x2184 JUMP JUMPDEST DUP2 SLOAD DUP2 LT PUSH2 0xED2 JUMPI PUSH2 0xED1 PUSH2 0x23FD JUMP JUMPDEST JUMPDEST SWAP1 PUSH1 0x0 MSTORE PUSH1 0x20 PUSH1 0x0 KECCAK256 ADD SLOAD EQ PUSH2 0xFF5 JUMPI PUSH1 0x8 PUSH1 0x0 DUP4 PUSH20 0xFFFFFFFFFFFFFFFFFFFFFFFFFFFFFFFFFFFFFFFF AND PUSH20 0xFFFFFFFFFFFFFFFFFFFFFFFFFFFFFFFFFFFFFFFF AND DUP2 MSTORE PUSH1 0x20 ADD SWAP1 DUP2 MSTORE PUSH1 0x20 ADD PUSH1 0x0 KECCAK256 PUSH1 0x1 ADD PUSH1 0x1 PUSH1 0x8 PUSH1 0x0 DUP6 PUSH20 0xFFFFFFFFFFFFFFFFFFFFFFFFFFFFFFFFFFFFFFFF AND PUSH20 0xFFFFFFFFFFFFFFFFFFFFFFFFFFFFFFFFFFFFFFFF AND DUP2 MSTORE PUSH1 0x20 ADD SWAP1 DUP2 MSTORE PUSH1 0x20 ADD PUSH1 0x0 KECCAK256 PUSH1 0x1 ADD DUP1 SLOAD SWAP1 POP PUSH2 0xF76 SWAP2 SWAP1 PUSH2 0x2184 JUMP JUMPDEST DUP2 SLOAD DUP2 LT PUSH2 0xF87 JUMPI PUSH2 0xF86 PUSH2 0x23FD JUMP JUMPDEST JUMPDEST SWAP1 PUSH1 0x0 MSTORE PUSH1 0x20 PUSH1 0x0 KECCAK256 ADD SLOAD PUSH1 0x8 PUSH1 0x0 DUP5 PUSH20 0xFFFFFFFFFFFFFFFFFFFFFFFFFFFFFFFFFFFFFFFF AND PUSH20 0xFFFFFFFFFFFFFFFFFFFFFFFFFFFFFFFFFFFFFFFF AND DUP2 MSTORE PUSH1 0x20 ADD SWAP1 DUP2 MSTORE PUSH1 0x20 ADD PUSH1 0x0 KECCAK256 PUSH1 0x1 ADD DUP3 DUP2 SLOAD DUP2 LT PUSH2 0xFE6 JUMPI PUSH2 0xFE5 PUSH2 0x23FD JUMP JUMPDEST JUMPDEST SWAP1 PUSH1 0x0 MSTORE PUSH1 0x20 PUSH1 0x0 KECCAK256 ADD DUP2 SWAP1 SSTORE POP JUMPDEST PUSH1 0x8 PUSH1 0x0 DUP4 PUSH20 0xFFFFFFFFFFFFFFFFFFFFFFFFFFFFFFFFFFFFFFFF AND PUSH20 0xFFFFFFFFFFFFFFFFFFFFFFFFFFFFFFFFFFFFFFFF AND DUP2 MSTORE PUSH1 0x20 ADD SWAP1 DUP2 MSTORE PUSH1 0x20 ADD PUSH1 0x0 KECCAK256 PUSH1 0x1 ADD DUP1 SLOAD DUP1 PUSH2 0x1047 JUMPI PUSH2 0x1046 PUSH2 0x23CE JUMP JUMPDEST JUMPDEST PUSH1 0x1 SWAP1 SUB DUP2 DUP2 SWAP1 PUSH1 0x0 MSTORE PUSH1 0x20 PUSH1 0x0 KECCAK256 ADD PUSH1 0x0 SWAP1 SSTORE SWAP1 SSTORE POP POP JUMP JUMPDEST DUP2 PUSH20 0xFFFFFFFFFFFFFFFFFFFFFFFFFFFFFFFFFFFFFFFF AND CALLER PUSH20 0xFFFFFFFFFFFFFFFFFFFFFFFFFFFFFFFFFFFFFFFF AND EQ DUP1 PUSH2 0x10CD JUMPI POP PUSH2 0x109E PUSH2 0x1397 JUMP JUMPDEST PUSH20 0xFFFFFFFFFFFFFFFFFFFFFFFFFFFFFFFFFFFFFFFF AND CALLER PUSH20 0xFFFFFFFFFFFFFFFFFFFFFFFFFFFFFFFFFFFFFFFF AND EQ JUMPDEST PUSH2 0x10D6 JUMPI PUSH1 0x0 DUP1 REVERT JUMPDEST PUSH1 0x8 PUSH1 0x0 DUP4 PUSH20 0xFFFFFFFFFFFFFFFFFFFFFFFFFFFFFFFFFFFFFFFF AND PUSH20 0xFFFFFFFFFFFFFFFFFFFFFFFFFFFFFFFFFFFFFFFF AND DUP2 MSTORE PUSH1 0x20 ADD SWAP1 DUP2 MSTORE PUSH1 0x20 ADD PUSH1 0x0 KECCAK256 PUSH1 0x1 ADD DUP2 SWAP1 DUP1 PUSH1 0x1 DUP2 SLOAD ADD DUP1 DUP3 SSTORE DUP1 SWAP2 POP POP PUSH1 0x1 SWAP1 SUB SWAP1 PUSH1 0x0 MSTORE PUSH1 0x20 PUSH1 0x0 KECCAK256 ADD PUSH1 0x0 SWAP1 SWAP2 SWAP1 SWAP2 SWAP1 SWAP2 POP SSTORE POP POP JUMP JUMPDEST PUSH1 0x1 PUSH1 0x0 SWAP1 SLOAD SWAP1 PUSH2 0x100 EXP SWAP1 DIV PUSH20 0xFFFFFFFFFFFFFFFFFFFFFFFFFFFFFFFFFFFFFFFF AND DUP2 JUMP JUMPDEST PUSH2 0x1171 PUSH2 0x18E2 JUMP JUMPDEST PUSH20 0xFFFFFFFFFFFFFFFFFFFFFFFFFFFFFFFFFFFFFFFF AND PUSH2 0x118F PUSH2 0x1397 JUMP JUMPDEST PUSH20 0xFFFFFFFFFFFFFFFFFFFFFFFFFFFFFFFFFFFFFFFF AND EQ PUSH2 0x11E5 JUMPI PUSH1 0x40 MLOAD PUSH32 0x8C379A000000000000000000000000000000000000000000000000000000000 DUP2 MSTORE PUSH1 0x4 ADD PUSH2 0x11DC SWAP1 PUSH2 0x1FDD JUMP JUMPDEST PUSH1 0x40 MLOAD DUP1 SWAP2 SUB SWAP1 REVERT JUMPDEST PUSH2 0x11EF PUSH1 0x0 PUSH2 0x1916 JUMP JUMPDEST JUMP JUMPDEST PUSH2 0x11F9 PUSH2 0x18E2 JUMP JUMPDEST PUSH20 0xFFFFFFFFFFFFFFFFFFFFFFFFFFFFFFFFFFFFFFFF AND PUSH2 0x1217 PUSH2 0x1397 JUMP JUMPDEST PUSH20 0xFFFFFFFFFFFFFFFFFFFFFFFFFFFFFFFFFFFFFFFF AND EQ PUSH2 0x126D JUMPI PUSH1 0x40 MLOAD PUSH32 0x8C379A000000000000000000000000000000000000000000000000000000000 DUP2 MSTORE PUSH1 0x4 ADD PUSH2 0x1264 SWAP1 PUSH2 0x1FDD JUMP JUMPDEST PUSH1 0x40 MLOAD DUP1 SWAP2 SUB SWAP1 REVERT JUMPDEST DUP1 PUSH1 0x7 PUSH1 0x0 PUSH2 0x100 EXP DUP2 SLOAD DUP2 PUSH20 0xFFFFFFFFFFFFFFFFFFFFFFFFFFFFFFFFFFFFFFFF MUL NOT AND SWAP1 DUP4 PUSH20 0xFFFFFFFFFFFFFFFFFFFFFFFFFFFFFFFFFFFFFFFF AND MUL OR SWAP1 SSTORE POP POP JUMP JUMPDEST PUSH1 0x4 PUSH1 0x0 SWAP1 SLOAD SWAP1 PUSH2 0x100 EXP SWAP1 DIV PUSH20 0xFFFFFFFFFFFFFFFFFFFFFFFFFFFFFFFFFFFFFFFF AND DUP2 JUMP JUMPDEST PUSH2 0x12DF PUSH2 0x18E2 JUMP JUMPDEST PUSH20 0xFFFFFFFFFFFFFFFFFFFFFFFFFFFFFFFFFFFFFFFF AND PUSH2 0x12FD PUSH2 0x1397 JUMP JUMPDEST PUSH20 0xFFFFFFFFFFFFFFFFFFFFFFFFFFFFFFFFFFFFFFFF AND EQ PUSH2 0x1353 JUMPI PUSH1 0x40 MLOAD PUSH32 0x8C379A000000000000000000000000000000000000000000000000000000000 DUP2 MSTORE PUSH1 0x4 ADD PUSH2 0x134A SWAP1 PUSH2 0x1FDD JUMP JUMPDEST PUSH1 0x40 MLOAD DUP1 SWAP2 SUB SWAP1 REVERT JUMPDEST DUP1 PUSH1 0x3 PUSH1 0x0 PUSH2 0x100 EXP DUP2 SLOAD DUP2 PUSH20 0xFFFFFFFFFFFFFFFFFFFFFFFFFFFFFFFFFFFFFFFF MUL NOT AND SWAP1 DUP4 PUSH20 0xFFFFFFFFFFFFFFFFFFFFFFFFFFFFFFFFFFFFFFFF AND MUL OR SWAP1 SSTORE POP POP JUMP JUMPDEST PUSH1 0x0 DUP1 PUSH1 0x0 SWAP1 SLOAD SWAP1 PUSH2 0x100 EXP SWAP1 DIV PUSH20 0xFFFFFFFFFFFFFFFFFFFFFFFFFFFFFFFFFFFFFFFF AND SWAP1 POP SWAP1 JUMP JUMPDEST PUSH1 0x0 PUSH2 0x13CB DUP3 PUSH2 0x1444 JUMP JUMPDEST PUSH2 0x13D4 DUP4 PUSH2 0x9AF JUMP JUMPDEST PUSH2 0x13DD DUP5 PUSH2 0xC00 JUMP JUMPDEST PUSH2 0x13E6 DUP6 PUSH2 0x8FB JUMP JUMPDEST PUSH2 0x13EF DUP7 PUSH2 0xB4C JUMP JUMPDEST PUSH2 0x13F9 SWAP2 SWAP1 PUSH2 0x20A3 JUMP JUMPDEST PUSH2 0x1403 SWAP2 SWAP1 PUSH2 0x20A3 JUMP JUMPDEST PUSH2 0x140D SWAP2 SWAP1 PUSH2 0x20A3 JUMP JUMPDEST PUSH2 0x1417 SWAP2 SWAP1 PUSH2 0x20A3 JUMP JUMPDEST SWAP1 POP SWAP2 SWAP1 POP JUMP JUMPDEST PUSH1 0x3 PUSH1 0x0 SWAP1 SLOAD SWAP1 PUSH2 0x100 EXP SWAP1 DIV PUSH20 0xFFFFFFFFFFFFFFFFFFFFFFFFFFFFFFFFFFFFFFFF AND DUP2 JUMP JUMPDEST PUSH1 0x0 DUP1 PUSH1 0x0 SWAP1 POP PUSH1 0x0 JUMPDEST PUSH2 0x44C DUP2 GT PUSH2 0x1523 JUMPI PUSH1 0x5 PUSH1 0x0 SWAP1 SLOAD SWAP1 PUSH2 0x100 EXP SWAP1 DIV PUSH20 0xFFFFFFFFFFFFFFFFFFFFFFFFFFFFFFFFFFFFFFFF AND PUSH20 0xFFFFFFFFFFFFFFFFFFFFFFFFFFFFFFFFFFFFFFFF AND PUSH3 0xFDD58E DUP6 DUP4 PUSH1 0x40 MLOAD DUP4 PUSH4 0xFFFFFFFF AND PUSH1 0xE0 SHL DUP2 MSTORE PUSH1 0x4 ADD PUSH2 0x14B3 SWAP3 SWAP2 SWAP1 PUSH2 0x1F0D JUMP JUMPDEST PUSH1 0x20 PUSH1 0x40 MLOAD DUP1 DUP4 SUB DUP2 DUP7 DUP1 EXTCODESIZE ISZERO DUP1 ISZERO PUSH2 0x14CB JUMPI PUSH1 0x0 DUP1 REVERT JUMPDEST POP GAS STATICCALL ISZERO DUP1 ISZERO PUSH2 0x14DF JUMPI RETURNDATASIZE PUSH1 0x0 DUP1 RETURNDATACOPY RETURNDATASIZE PUSH1 0x0 REVERT JUMPDEST POP POP POP POP PUSH1 0x40 MLOAD RETURNDATASIZE PUSH1 0x1F NOT PUSH1 0x1F DUP3 ADD AND DUP3 ADD DUP1 PUSH1 0x40 MSTORE POP DUP2 ADD SWAP1 PUSH2 0x1503 SWAP2 SWAP1 PUSH2 0x1E16 JUMP JUMPDEST DUP3 PUSH2 0x150E SWAP2 SWAP1 PUSH2 0x20A3 JUMP JUMPDEST SWAP2 POP DUP1 DUP1 PUSH2 0x151B SWAP1 PUSH2 0x2327 JUMP JUMPDEST SWAP2 POP POP PUSH2 0x144E JUMP JUMPDEST POP PUSH1 0x0 JUMPDEST PUSH2 0x12C DUP2 GT PUSH2 0x15FC JUMPI PUSH1 0x6 PUSH1 0x0 SWAP1 SLOAD SWAP1 PUSH2 0x100 EXP SWAP1 DIV PUSH20 0xFFFFFFFFFFFFFFFFFFFFFFFFFFFFFFFFFFFFFFFF AND PUSH20 0xFFFFFFFFFFFFFFFFFFFFFFFFFFFFFFFFFFFFFFFF AND PUSH3 0xFDD58E DUP6 DUP4 PUSH1 0x40 MLOAD DUP4 PUSH4 0xFFFFFFFF AND PUSH1 0xE0 SHL DUP2 MSTORE PUSH1 0x4 ADD PUSH2 0x158C SWAP3 SWAP2 SWAP1 PUSH2 0x1F0D JUMP JUMPDEST PUSH1 0x20 PUSH1 0x40 MLOAD DUP1 DUP4 SUB DUP2 DUP7 DUP1 EXTCODESIZE ISZERO DUP1 ISZERO PUSH2 0x15A4 JUMPI PUSH1 0x0 DUP1 REVERT JUMPDEST POP GAS STATICCALL ISZERO DUP1 ISZERO PUSH2 0x15B8 JUMPI RETURNDATASIZE PUSH1 0x0 DUP1 RETURNDATACOPY RETURNDATASIZE PUSH1 0x0 REVERT JUMPDEST POP POP POP POP PUSH1 0x40 MLOAD RETURNDATASIZE PUSH1 0x1F NOT PUSH1 0x1F DUP3 ADD AND DUP3 ADD DUP1 PUSH1 0x40 MSTORE POP DUP2 ADD SWAP1 PUSH2 0x15DC SWAP2 SWAP1 PUSH2 0x1E16 JUMP JUMPDEST DUP3 PUSH2 0x15E7 SWAP2 SWAP1 PUSH2 0x20A3 JUMP JUMPDEST SWAP2 POP DUP1 DUP1 PUSH2 0x15F4 SWAP1 PUSH2 0x2327 JUMP JUMPDEST SWAP2 POP POP PUSH2 0x1527 JUMP JUMPDEST POP PUSH1 0x0 JUMPDEST PUSH1 0x64 DUP2 GT PUSH2 0x16D4 JUMPI PUSH1 0x7 PUSH1 0x0 SWAP1 SLOAD SWAP1 PUSH2 0x100 EXP SWAP1 DIV PUSH20 0xFFFFFFFFFFFFFFFFFFFFFFFFFFFFFFFFFFFFFFFF AND PUSH20 0xFFFFFFFFFFFFFFFFFFFFFFFFFFFFFFFFFFFFFFFF AND PUSH3 0xFDD58E DUP6 DUP4 PUSH1 0x40 MLOAD DUP4 PUSH4 0xFFFFFFFF AND PUSH1 0xE0 SHL DUP2 MSTORE PUSH1 0x4 ADD PUSH2 0x1664 SWAP3 SWAP2 SWAP1 PUSH2 0x1F0D JUMP JUMPDEST PUSH1 0x20 PUSH1 0x40 MLOAD DUP1 DUP4 SUB DUP2 DUP7 DUP1 EXTCODESIZE ISZERO DUP1 ISZERO PUSH2 0x167C JUMPI PUSH1 0x0 DUP1 REVERT JUMPDEST POP GAS STATICCALL ISZERO DUP1 ISZERO PUSH2 0x1690 JUMPI RETURNDATASIZE PUSH1 0x0 DUP1 RETURNDATACOPY RETURNDATASIZE PUSH1 0x0 REVERT JUMPDEST POP POP POP POP PUSH1 0x40 MLOAD RETURNDATASIZE PUSH1 0x1F NOT PUSH1 0x1F DUP3 ADD AND DUP3 ADD DUP1 PUSH1 0x40 MSTORE POP DUP2 ADD SWAP1 PUSH2 0x16B4 SWAP2 SWAP1 PUSH2 0x1E16 JUMP JUMPDEST DUP3 PUSH2 0x16BF SWAP2 SWAP1 PUSH2 0x20A3 JUMP JUMPDEST SWAP2 POP DUP1 DUP1 PUSH2 0x16CC SWAP1 PUSH2 0x2327 JUMP JUMPDEST SWAP2 POP POP PUSH2 0x1600 JUMP JUMPDEST POP DUP1 SWAP2 POP POP SWAP2 SWAP1 POP JUMP JUMPDEST PUSH1 0x7 PUSH1 0x0 SWAP1 SLOAD SWAP1 PUSH2 0x100 EXP SWAP1 DIV PUSH20 0xFFFFFFFFFFFFFFFFFFFFFFFFFFFFFFFFFFFFFFFF AND DUP2 JUMP JUMPDEST PUSH2 0x170C PUSH2 0x18E2 JUMP JUMPDEST PUSH20 0xFFFFFFFFFFFFFFFFFFFFFFFFFFFFFFFFFFFFFFFF AND PUSH2 0x172A PUSH2 0x1397 JUMP JUMPDEST PUSH20 0xFFFFFFFFFFFFFFFFFFFFFFFFFFFFFFFFFFFFFFFF AND EQ PUSH2 0x1780 JUMPI PUSH1 0x40 MLOAD PUSH32 0x8C379A000000000000000000000000000000000000000000000000000000000 DUP2 MSTORE PUSH1 0x4 ADD PUSH2 0x1777 SWAP1 PUSH2 0x1FDD JUMP JUMPDEST PUSH1 0x40 MLOAD DUP1 SWAP2 SUB SWAP1 REVERT JUMPDEST PUSH1 0x0 PUSH20 0xFFFFFFFFFFFFFFFFFFFFFFFFFFFFFFFFFFFFFFFF AND DUP2 PUSH20 0xFFFFFFFFFFFFFFFFFFFFFFFFFFFFFFFFFFFFFFFF AND EQ ISZERO PUSH2 0x17F0 JUMPI PUSH1 0x40 MLOAD PUSH32 0x8C379A000000000000000000000000000000000000000000000000000000000 DUP2 MSTORE PUSH1 0x4 ADD PUSH2 0x17E7 SWAP1 PUSH2 0x1FBD JUMP JUMPDEST PUSH1 0x40 MLOAD DUP1 SWAP2 SUB SWAP1 REVERT JUMPDEST PUSH2 0x17F9 DUP2 PUSH2 0x1916 JUMP JUMPDEST POP JUMP JUMPDEST PUSH2 0x1804 PUSH2 0x18E2 JUMP JUMPDEST PUSH20 0xFFFFFFFFFFFFFFFFFFFFFFFFFFFFFFFFFFFFFFFF AND PUSH2 0x1822 PUSH2 0x1397 JUMP JUMPDEST PUSH20 0xFFFFFFFFFFFFFFFFFFFFFFFFFFFFFFFFFFFFFFFF AND EQ PUSH2 0x1878 JUMPI PUSH1 0x40 MLOAD PUSH32 0x8C379A000000000000000000000000000000000000000000000000000000000 DUP2 MSTORE PUSH1 0x4 ADD PUSH2 0x186F SWAP1 PUSH2 0x1FDD JUMP JUMPDEST PUSH1 0x40 MLOAD DUP1 SWAP2 SUB SWAP1 REVERT JUMPDEST DUP1 PUSH1 0x5 PUSH1 0x0 PUSH2 0x100 EXP DUP2 SLOAD DUP2 PUSH20 0xFFFFFFFFFFFFFFFFFFFFFFFFFFFFFFFFFFFFFFFF MUL NOT AND SWAP1 DUP4 PUSH20 0xFFFFFFFFFFFFFFFFFFFFFFFFFFFFFFFFFFFFFFFF AND MUL OR SWAP1 SSTORE POP POP JUMP JUMPDEST PUSH1 0x6 PUSH1 0x0 SWAP1 SLOAD SWAP1 PUSH2 0x100 EXP SWAP1 DIV PUSH20 0xFFFFFFFFFFFFFFFFFFFFFFFFFFFFFFFFFFFFFFFF AND DUP2 JUMP JUMPDEST PUSH1 0x0 CALLER SWAP1 POP SWAP1 JUMP JUMPDEST PUSH1 0x0 DUP2 DUP4 PUSH2 0x18F8 SWAP2 SWAP1 PUSH2 0x20F9 JUMP JUMPDEST SWAP1 POP SWAP3 SWAP2 POP POP JUMP JUMPDEST PUSH1 0x0 DUP2 DUP4 PUSH2 0x190E SWAP2 SWAP1 PUSH2 0x212A JUMP JUMPDEST SWAP1 POP SWAP3 SWAP2 POP POP JUMP JUMPDEST PUSH1 0x0 DUP1 PUSH1 0x0 SWAP1 SLOAD SWAP1 PUSH2 0x100 EXP SWAP1 DIV PUSH20 0xFFFFFFFFFFFFFFFFFFFFFFFFFFFFFFFFFFFFFFFF AND SWAP1 POP DUP2 PUSH1 0x0 DUP1 PUSH2 0x100 EXP DUP2 SLOAD DUP2 PUSH20 0xFFFFFFFFFFFFFFFFFFFFFFFFFFFFFFFFFFFFFFFF MUL NOT AND SWAP1 DUP4 PUSH20 0xFFFFFFFFFFFFFFFFFFFFFFFFFFFFFFFFFFFFFFFF AND MUL OR SWAP1 SSTORE POP DUP2 PUSH20 0xFFFFFFFFFFFFFFFFFFFFFFFFFFFFFFFFFFFFFFFF AND DUP2 PUSH20 0xFFFFFFFFFFFFFFFFFFFFFFFFFFFFFFFFFFFFFFFF AND PUSH32 0x8BE0079C531659141344CD1FD0A4F28419497F9722A3DAAFE3B4186F6B6457E0 PUSH1 0x40 MLOAD PUSH1 0x40 MLOAD DUP1 SWAP2 SUB SWAP1 LOG3 POP POP JUMP JUMPDEST PUSH1 0x0 PUSH2 0x19ED PUSH2 0x19E8 DUP5 PUSH2 0x2066 JUMP JUMPDEST PUSH2 0x2041 JUMP JUMPDEST SWAP1 POP DUP1 DUP4 DUP3 MSTORE PUSH1 0x20 DUP3 ADD SWAP1 POP DUP3 DUP6 PUSH1 0x20 DUP7 MUL DUP3 ADD GT ISZERO PUSH2 0x1A10 JUMPI PUSH2 0x1A0F PUSH2 0x2465 JUMP JUMPDEST JUMPDEST PUSH1 0x0 JUMPDEST DUP6 DUP2 LT ISZERO PUSH2 0x1A40 JUMPI DUP2 PUSH2 0x1A26 DUP9 DUP3 PUSH2 0x1BD5 JUMP JUMPDEST DUP5 MSTORE PUSH1 0x20 DUP5 ADD SWAP4 POP PUSH1 0x20 DUP4 ADD SWAP3 POP POP PUSH1 0x1 DUP2 ADD SWAP1 POP PUSH2 0x1A13 JUMP JUMPDEST POP POP POP SWAP4 SWAP3 POP POP POP JUMP JUMPDEST PUSH1 0x0 DUP2 CALLDATALOAD SWAP1 POP PUSH2 0x1A59 DUP2 PUSH2 0x24FD JUMP JUMPDEST SWAP3 SWAP2 POP POP JUMP JUMPDEST PUSH1 0x0 DUP2 MLOAD SWAP1 POP PUSH2 0x1A6E DUP2 PUSH2 0x24FD JUMP JUMPDEST SWAP3 SWAP2 POP POP JUMP JUMPDEST PUSH1 0x0 DUP3 PUSH1 0x1F DUP4 ADD SLT PUSH2 0x1A89 JUMPI PUSH2 0x1A88 PUSH2 0x245B JUMP JUMPDEST JUMPDEST DUP2 MLOAD PUSH2 0x1A99 DUP5 DUP3 PUSH1 0x20 DUP7 ADD PUSH2 0x19DA JUMP JUMPDEST SWAP2 POP POP SWAP3 SWAP2 POP POP JUMP JUMPDEST PUSH1 0x0 DUP2 CALLDATALOAD SWAP1 POP PUSH2 0x1AB1 DUP2 PUSH2 0x2514 JUMP JUMPDEST SWAP3 SWAP2 POP POP JUMP JUMPDEST PUSH1 0x0 DUP2 CALLDATALOAD SWAP1 POP PUSH2 0x1AC6 DUP2 PUSH2 0x252B JUMP JUMPDEST SWAP3 SWAP2 POP POP JUMP JUMPDEST PUSH1 0x0 DUP2 CALLDATALOAD SWAP1 POP PUSH2 0x1ADB DUP2 PUSH2 0x2542 JUMP JUMPDEST SWAP3 SWAP2 POP POP JUMP JUMPDEST PUSH1 0x0 DUP2 CALLDATALOAD SWAP1 POP PUSH2 0x1AF0 DUP2 PUSH2 0x2559 JUMP JUMPDEST SWAP3 SWAP2 POP POP JUMP JUMPDEST PUSH1 0x0 DUP2 CALLDATALOAD SWAP1 POP PUSH2 0x1B05 DUP2 PUSH2 0x2570 JUMP JUMPDEST SWAP3 SWAP2 POP POP JUMP JUMPDEST PUSH1 0x0 PUSH1 0xC0 DUP3 DUP5 SUB SLT ISZERO PUSH2 0x1B21 JUMPI PUSH2 0x1B20 PUSH2 0x2460 JUMP JUMPDEST JUMPDEST PUSH2 0x1B2B PUSH1 0xC0 PUSH2 0x2041 JUMP JUMPDEST SWAP1 POP PUSH1 0x0 PUSH2 0x1B3B DUP5 DUP3 DUP6 ADD PUSH2 0x1A5F JUMP JUMPDEST PUSH1 0x0 DUP4 ADD MSTORE POP PUSH1 0x20 PUSH2 0x1B4F DUP5 DUP3 DUP6 ADD PUSH2 0x1BD5 JUMP JUMPDEST PUSH1 0x20 DUP4 ADD MSTORE POP PUSH1 0x40 PUSH2 0x1B63 DUP5 DUP3 DUP6 ADD PUSH2 0x1BD5 JUMP JUMPDEST PUSH1 0x40 DUP4 ADD MSTORE POP PUSH1 0x60 PUSH2 0x1B77 DUP5 DUP3 DUP6 ADD PUSH2 0x1BD5 JUMP JUMPDEST PUSH1 0x60 DUP4 ADD MSTORE POP PUSH1 0x80 PUSH2 0x1B8B DUP5 DUP3 DUP6 ADD PUSH2 0x1BD5 JUMP JUMPDEST PUSH1 0x80 DUP4 ADD MSTORE POP PUSH1 0xA0 PUSH2 0x1B9F DUP5 DUP3 DUP6 ADD PUSH2 0x1BD5 JUMP JUMPDEST PUSH1 0xA0 DUP4 ADD MSTORE POP SWAP3 SWAP2 POP POP JUMP JUMPDEST PUSH1 0x0 DUP2 MLOAD SWAP1 POP PUSH2 0x1BBA DUP2 PUSH2 0x2587 JUMP JUMPDEST SWAP3 SWAP2 POP POP JUMP JUMPDEST PUSH1 0x0 DUP2 CALLDATALOAD SWAP1 POP PUSH2 0x1BCF DUP2 PUSH2 0x259E JUMP JUMPDEST SWAP3 SWAP2 POP POP JUMP JUMPDEST PUSH1 0x0 DUP2 MLOAD SWAP1 POP PUSH2 0x1BE4 DUP2 PUSH2 0x259E JUMP JUMPDEST SWAP3 SWAP2 POP POP JUMP JUMPDEST PUSH1 0x0 DUP2 MLOAD SWAP1 POP PUSH2 0x1BF9 DUP2 PUSH2 0x25B5 JUMP JUMPDEST SWAP3 SWAP2 POP POP JUMP JUMPDEST PUSH1 0x0 PUSH1 0x20 DUP3 DUP5 SUB SLT ISZERO PUSH2 0x1C15 JUMPI PUSH2 0x1C14 PUSH2 0x246F JUMP JUMPDEST JUMPDEST PUSH1 0x0 PUSH2 0x1C23 DUP5 DUP3 DUP6 ADD PUSH2 0x1A4A JUMP JUMPDEST SWAP2 POP POP SWAP3 SWAP2 POP POP JUMP JUMPDEST PUSH1 0x0 DUP1 PUSH1 0x40 DUP4 DUP6 SUB SLT ISZERO PUSH2 0x1C43 JUMPI PUSH2 0x1C42 PUSH2 0x246F JUMP JUMPDEST JUMPDEST PUSH1 0x0 PUSH2 0x1C51 DUP6 DUP3 DUP7 ADD PUSH2 0x1A4A JUMP JUMPDEST SWAP3 POP POP PUSH1 0x20 PUSH2 0x1C62 DUP6 DUP3 DUP7 ADD PUSH2 0x1BC0 JUMP JUMPDEST SWAP2 POP POP SWAP3 POP SWAP3 SWAP1 POP JUMP JUMPDEST PUSH1 0x0 PUSH1 0x20 DUP3 DUP5 SUB SLT ISZERO PUSH2 0x1C82 JUMPI PUSH2 0x1C81 PUSH2 0x246F JUMP JUMPDEST JUMPDEST PUSH1 0x0 DUP3 ADD MLOAD PUSH8 0xFFFFFFFFFFFFFFFF DUP2 GT ISZERO PUSH2 0x1CA0 JUMPI PUSH2 0x1C9F PUSH2 0x246A JUMP JUMPDEST JUMPDEST PUSH2 0x1CAC DUP5 DUP3 DUP6 ADD PUSH2 0x1A74 JUMP JUMPDEST SWAP2 POP POP SWAP3 SWAP2 POP POP JUMP JUMPDEST PUSH1 0x0 PUSH1 0x20 DUP3 DUP5 SUB SLT ISZERO PUSH2 0x1CCB JUMPI PUSH2 0x1CCA PUSH2 0x246F JUMP JUMPDEST JUMPDEST PUSH1 0x0 PUSH2 0x1CD9 DUP5 DUP3 DUP6 ADD PUSH2 0x1AA2 JUMP JUMPDEST SWAP2 POP POP SWAP3 SWAP2 POP POP JUMP JUMPDEST PUSH1 0x0 PUSH1 0x20 DUP3 DUP5 SUB SLT ISZERO PUSH2 0x1CF8 JUMPI PUSH2 0x1CF7 PUSH2 0x246F JUMP JUMPDEST JUMPDEST PUSH1 0x0 PUSH2 0x1D06 DUP5 DUP3 DUP6 ADD PUSH2 0x1AB7 JUMP JUMPDEST SWAP2 POP POP SWAP3 SWAP2 POP POP JUMP JUMPDEST PUSH1 0x0 PUSH1 0x20 DUP3 DUP5 SUB SLT ISZERO PUSH2 0x1D25 JUMPI PUSH2 0x1D24 PUSH2 0x246F JUMP JUMPDEST JUMPDEST PUSH1 0x0 PUSH2 0x1D33 DUP5 DUP3 DUP6 ADD PUSH2 0x1ACC JUMP JUMPDEST SWAP2 POP POP SWAP3 SWAP2 POP POP JUMP JUMPDEST PUSH1 0x0 PUSH1 0x20 DUP3 DUP5 SUB SLT ISZERO PUSH2 0x1D52 JUMPI PUSH2 0x1D51 PUSH2 0x246F JUMP JUMPDEST JUMPDEST PUSH1 0x0 PUSH2 0x1D60 DUP5 DUP3 DUP6 ADD PUSH2 0x1AE1 JUMP JUMPDEST SWAP2 POP POP SWAP3 SWAP2 POP POP JUMP JUMPDEST PUSH1 0x0 PUSH1 0x20 DUP3 DUP5 SUB SLT ISZERO PUSH2 0x1D7F JUMPI PUSH2 0x1D7E PUSH2 0x246F JUMP JUMPDEST JUMPDEST PUSH1 0x0 PUSH2 0x1D8D DUP5 DUP3 DUP6 ADD PUSH2 0x1AF6 JUMP JUMPDEST SWAP2 POP POP SWAP3 SWAP2 POP POP JUMP JUMPDEST PUSH1 0x0 PUSH1 0xC0 DUP3 DUP5 SUB SLT ISZERO PUSH2 0x1DAC JUMPI PUSH2 0x1DAB PUSH2 0x246F JUMP JUMPDEST JUMPDEST PUSH1 0x0 PUSH2 0x1DBA DUP5 DUP3 DUP6 ADD PUSH2 0x1B0B JUMP JUMPDEST SWAP2 POP POP SWAP3 SWAP2 POP POP JUMP JUMPDEST PUSH1 0x0 DUP1 PUSH1 0x0 PUSH1 0x60 DUP5 DUP7 SUB SLT ISZERO PUSH2 0x1DDC JUMPI PUSH2 0x1DDB PUSH2 0x246F JUMP JUMPDEST JUMPDEST PUSH1 0x0 PUSH2 0x1DEA DUP7 DUP3 DUP8 ADD PUSH2 0x1BAB JUMP JUMPDEST SWAP4 POP POP PUSH1 0x20 PUSH2 0x1DFB DUP7 DUP3 DUP8 ADD PUSH2 0x1BAB JUMP JUMPDEST SWAP3 POP POP PUSH1 0x40 PUSH2 0x1E0C DUP7 DUP3 DUP8 ADD PUSH2 0x1BEA JUMP JUMPDEST SWAP2 POP POP SWAP3 POP SWAP3 POP SWAP3 JUMP JUMPDEST PUSH1 0x0 PUSH1 0x20 DUP3 DUP5 SUB SLT ISZERO PUSH2 0x1E2C JUMPI PUSH2 0x1E2B PUSH2 0x246F JUMP JUMPDEST JUMPDEST PUSH1 0x0 PUSH2 0x1E3A DUP5 DUP3 DUP6 ADD PUSH2 0x1BD5 JUMP JUMPDEST SWAP2 POP POP SWAP3 SWAP2 POP POP JUMP JUMPDEST PUSH2 0x1E4C DUP2 PUSH2 0x21B8 JUMP JUMPDEST DUP3 MSTORE POP POP JUMP JUMPDEST PUSH2 0x1E5B DUP2 PUSH2 0x2278 JUMP JUMPDEST DUP3 MSTORE POP POP JUMP JUMPDEST PUSH2 0x1E6A DUP2 PUSH2 0x228A JUMP JUMPDEST DUP3 MSTORE POP POP JUMP JUMPDEST PUSH2 0x1E79 DUP2 PUSH2 0x229C JUMP JUMPDEST DUP3 MSTORE POP POP JUMP JUMPDEST PUSH2 0x1E88 DUP2 PUSH2 0x22AE JUMP JUMPDEST DUP3 MSTORE POP POP JUMP JUMPDEST PUSH2 0x1E97 DUP2 PUSH2 0x22C0 JUMP JUMPDEST DUP3 MSTORE POP POP JUMP JUMPDEST PUSH1 0x0 PUSH2 0x1EAA PUSH1 0x26 DUP4 PUSH2 0x2092 JUMP JUMPDEST SWAP2 POP PUSH2 0x1EB5 DUP3 PUSH2 0x2485 JUMP JUMPDEST PUSH1 0x40 DUP3 ADD SWAP1 POP SWAP2 SWAP1 POP JUMP JUMPDEST PUSH1 0x0 PUSH2 0x1ECD PUSH1 0x20 DUP4 PUSH2 0x2092 JUMP JUMPDEST SWAP2 POP PUSH2 0x1ED8 DUP3 PUSH2 0x24D4 JUMP JUMPDEST PUSH1 0x20 DUP3 ADD SWAP1 POP SWAP2 SWAP1 POP JUMP JUMPDEST PUSH2 0x1EEC DUP2 PUSH2 0x225E JUMP JUMPDEST DUP3 MSTORE POP POP JUMP JUMPDEST PUSH1 0x0 PUSH1 0x20 DUP3 ADD SWAP1 POP PUSH2 0x1F07 PUSH1 0x0 DUP4 ADD DUP5 PUSH2 0x1E43 JUMP JUMPDEST SWAP3 SWAP2 POP POP JUMP JUMPDEST PUSH1 0x0 PUSH1 0x40 DUP3 ADD SWAP1 POP PUSH2 0x1F22 PUSH1 0x0 DUP4 ADD DUP6 PUSH2 0x1E43 JUMP JUMPDEST PUSH2 0x1F2F PUSH1 0x20 DUP4 ADD DUP5 PUSH2 0x1EE3 JUMP JUMPDEST SWAP4 SWAP3 POP POP POP JUMP JUMPDEST PUSH1 0x0 PUSH1 0x20 DUP3 ADD SWAP1 POP PUSH2 0x1F4B PUSH1 0x0 DUP4 ADD DUP5 PUSH2 0x1E52 JUMP JUMPDEST SWAP3 SWAP2 POP POP JUMP JUMPDEST PUSH1 0x0 PUSH1 0x20 DUP3 ADD SWAP1 POP PUSH2 0x1F66 PUSH1 0x0 DUP4 ADD DUP5 PUSH2 0x1E61 JUMP JUMPDEST SWAP3 SWAP2 POP POP JUMP JUMPDEST PUSH1 0x0 PUSH1 0x20 DUP3 ADD SWAP1 POP PUSH2 0x1F81 PUSH1 0x0 DUP4 ADD DUP5 PUSH2 0x1E70 JUMP JUMPDEST SWAP3 SWAP2 POP POP JUMP JUMPDEST PUSH1 0x0 PUSH1 0x20 DUP3 ADD SWAP1 POP PUSH2 0x1F9C PUSH1 0x0 DUP4 ADD DUP5 PUSH2 0x1E7F JUMP JUMPDEST SWAP3 SWAP2 POP POP JUMP JUMPDEST PUSH1 0x0 PUSH1 0x20 DUP3 ADD SWAP1 POP PUSH2 0x1FB7 PUSH1 0x0 DUP4 ADD DUP5 PUSH2 0x1E8E JUMP JUMPDEST SWAP3 SWAP2 POP POP JUMP JUMPDEST PUSH1 0x0 PUSH1 0x20 DUP3 ADD SWAP1 POP DUP2 DUP2 SUB PUSH1 0x0 DUP4 ADD MSTORE PUSH2 0x1FD6 DUP2 PUSH2 0x1E9D JUMP JUMPDEST SWAP1 POP SWAP2 SWAP1 POP JUMP JUMPDEST PUSH1 0x0 PUSH1 0x20 DUP3 ADD SWAP1 POP DUP2 DUP2 SUB PUSH1 0x0 DUP4 ADD MSTORE PUSH2 0x1FF6 DUP2 PUSH2 0x1EC0 JUMP JUMPDEST SWAP1 POP SWAP2 SWAP1 POP JUMP JUMPDEST PUSH1 0x0 PUSH1 0x20 DUP3 ADD SWAP1 POP PUSH2 0x2012 PUSH1 0x0 DUP4 ADD DUP5 PUSH2 0x1EE3 JUMP JUMPDEST SWAP3 SWAP2 POP POP JUMP JUMPDEST PUSH1 0x0 PUSH1 0x40 DUP3 ADD SWAP1 POP PUSH2 0x202D PUSH1 0x0 DUP4 ADD DUP6 PUSH2 0x1EE3 JUMP JUMPDEST PUSH2 0x203A PUSH1 0x20 DUP4 ADD DUP5 PUSH2 0x1EE3 JUMP JUMPDEST SWAP4 SWAP3 POP POP POP JUMP JUMPDEST PUSH1 0x0 PUSH2 0x204B PUSH2 0x205C JUMP JUMPDEST SWAP1 POP PUSH2 0x2057 DUP3 DUP3 PUSH2 0x22F6 JUMP JUMPDEST SWAP2 SWAP1 POP JUMP JUMPDEST PUSH1 0x0 PUSH1 0x40 MLOAD SWAP1 POP SWAP1 JUMP JUMPDEST PUSH1 0x0 PUSH8 0xFFFFFFFFFFFFFFFF DUP3 GT ISZERO PUSH2 0x2081 JUMPI PUSH2 0x2080 PUSH2 0x242C JUMP JUMPDEST JUMPDEST PUSH1 0x20 DUP3 MUL SWAP1 POP PUSH1 0x20 DUP2 ADD SWAP1 POP SWAP2 SWAP1 POP JUMP JUMPDEST PUSH1 0x0 DUP3 DUP3 MSTORE PUSH1 0x20 DUP3 ADD SWAP1 POP SWAP3 SWAP2 POP POP JUMP JUMPDEST PUSH1 0x0 PUSH2 0x20AE DUP3 PUSH2 0x225E JUMP JUMPDEST SWAP2 POP PUSH2 0x20B9 DUP4 PUSH2 0x225E JUMP JUMPDEST SWAP3 POP DUP3 PUSH32 0xFFFFFFFFFFFFFFFFFFFFFFFFFFFFFFFFFFFFFFFFFFFFFFFFFFFFFFFFFFFFFFFF SUB DUP3 GT ISZERO PUSH2 0x20EE JUMPI PUSH2 0x20ED PUSH2 0x2370 JUMP JUMPDEST JUMPDEST DUP3 DUP3 ADD SWAP1 POP SWAP3 SWAP2 POP POP JUMP JUMPDEST PUSH1 0x0 PUSH2 0x2104 DUP3 PUSH2 0x225E JUMP JUMPDEST SWAP2 POP PUSH2 0x210F DUP4 PUSH2 0x225E JUMP JUMPDEST SWAP3 POP DUP3 PUSH2 0x211F JUMPI PUSH2 0x211E PUSH2 0x239F JUMP JUMPDEST JUMPDEST DUP3 DUP3 DIV SWAP1 POP SWAP3 SWAP2 POP POP JUMP JUMPDEST PUSH1 0x0 PUSH2 0x2135 DUP3 PUSH2 0x225E JUMP JUMPDEST SWAP2 POP PUSH2 0x2140 DUP4 PUSH2 0x225E JUMP JUMPDEST SWAP3 POP DUP2 PUSH32 0xFFFFFFFFFFFFFFFFFFFFFFFFFFFFFFFFFFFFFFFFFFFFFFFFFFFFFFFFFFFFFFFF DIV DUP4 GT DUP3 ISZERO ISZERO AND ISZERO PUSH2 0x2179 JUMPI PUSH2 0x2178 PUSH2 0x2370 JUMP JUMPDEST JUMPDEST DUP3 DUP3 MUL SWAP1 POP SWAP3 SWAP2 POP POP JUMP JUMPDEST PUSH1 0x0 PUSH2 0x218F DUP3 PUSH2 0x225E JUMP JUMPDEST SWAP2 POP PUSH2 0x219A DUP4 PUSH2 0x225E JUMP JUMPDEST SWAP3 POP DUP3 DUP3 LT ISZERO PUSH2 0x21AD JUMPI PUSH2 0x21AC PUSH2 0x2370 JUMP JUMPDEST JUMPDEST DUP3 DUP3 SUB SWAP1 POP SWAP3 SWAP2 POP POP JUMP JUMPDEST PUSH1 0x0 PUSH2 0x21C3 DUP3 PUSH2 0x223E JUMP JUMPDEST SWAP1 POP SWAP2 SWAP1 POP JUMP JUMPDEST PUSH1 0x0 PUSH2 0x21D5 DUP3 PUSH2 0x21B8 JUMP JUMPDEST SWAP1 POP SWAP2 SWAP1 POP JUMP JUMPDEST PUSH1 0x0 PUSH2 0x21E7 DUP3 PUSH2 0x21B8 JUMP JUMPDEST SWAP1 POP SWAP2 SWAP1 POP JUMP JUMPDEST PUSH1 0x0 PUSH2 0x21F9 DUP3 PUSH2 0x21B8 JUMP JUMPDEST SWAP1 POP SWAP2 SWAP1 POP JUMP JUMPDEST PUSH1 0x0 PUSH2 0x220B DUP3 PUSH2 0x21B8 JUMP JUMPDEST SWAP1 POP SWAP2 SWAP1 POP JUMP JUMPDEST PUSH1 0x0 PUSH2 0x221D DUP3 PUSH2 0x21B8 JUMP JUMPDEST SWAP1 POP SWAP2 SWAP1 POP JUMP JUMPDEST PUSH1 0x0 PUSH14 0xFFFFFFFFFFFFFFFFFFFFFFFFFFFF DUP3 AND SWAP1 POP SWAP2 SWAP1 POP JUMP JUMPDEST PUSH1 0x0 PUSH20 0xFFFFFFFFFFFFFFFFFFFFFFFFFFFFFFFFFFFFFFFF DUP3 AND SWAP1 POP SWAP2 SWAP1 POP JUMP JUMPDEST PUSH1 0x0 DUP2 SWAP1 POP SWAP2 SWAP1 POP JUMP JUMPDEST PUSH1 0x0 PUSH4 0xFFFFFFFF DUP3 AND SWAP1 POP SWAP2 SWAP1 POP JUMP JUMPDEST PUSH1 0x0 PUSH2 0x2283 DUP3 PUSH2 0x22D2 JUMP JUMPDEST SWAP1 POP SWAP2 SWAP1 POP JUMP JUMPDEST PUSH1 0x0 PUSH2 0x2295 DUP3 PUSH2 0x22D2 JUMP JUMPDEST SWAP1 POP SWAP2 SWAP1 POP JUMP JUMPDEST PUSH1 0x0 PUSH2 0x22A7 DUP3 PUSH2 0x22D2 JUMP JUMPDEST SWAP1 POP SWAP2 SWAP1 POP JUMP JUMPDEST PUSH1 0x0 PUSH2 0x22B9 DUP3 PUSH2 0x22D2 JUMP JUMPDEST SWAP1 POP SWAP2 SWAP1 POP JUMP JUMPDEST PUSH1 0x0 PUSH2 0x22CB DUP3 PUSH2 0x22D2 JUMP JUMPDEST SWAP1 POP SWAP2 SWAP1 POP JUMP JUMPDEST PUSH1 0x0 PUSH2 0x22DD DUP3 PUSH2 0x22E4 JUMP JUMPDEST SWAP1 POP SWAP2 SWAP1 POP JUMP JUMPDEST PUSH1 0x0 PUSH2 0x22EF DUP3 PUSH2 0x223E JUMP JUMPDEST SWAP1 POP SWAP2 SWAP1 POP JUMP JUMPDEST PUSH2 0x22FF DUP3 PUSH2 0x2474 JUMP JUMPDEST DUP2 ADD DUP2 DUP2 LT PUSH8 0xFFFFFFFFFFFFFFFF DUP3 GT OR ISZERO PUSH2 0x231E JUMPI PUSH2 0x231D PUSH2 0x242C JUMP JUMPDEST JUMPDEST DUP1 PUSH1 0x40 MSTORE POP POP POP JUMP JUMPDEST PUSH1 0x0 PUSH2 0x2332 DUP3 PUSH2 0x225E JUMP JUMPDEST SWAP2 POP PUSH32 0xFFFFFFFFFFFFFFFFFFFFFFFFFFFFFFFFFFFFFFFFFFFFFFFFFFFFFFFFFFFFFFFF DUP3 EQ ISZERO PUSH2 0x2365 JUMPI PUSH2 0x2364 PUSH2 0x2370 JUMP JUMPDEST JUMPDEST PUSH1 0x1 DUP3 ADD SWAP1 POP SWAP2 SWAP1 POP JUMP JUMPDEST PUSH32 0x4E487B7100000000000000000000000000000000000000000000000000000000 PUSH1 0x0 MSTORE PUSH1 0x11 PUSH1 0x4 MSTORE PUSH1 0x24 PUSH1 0x0 REVERT JUMPDEST PUSH32 0x4E487B7100000000000000000000000000000000000000000000000000000000 PUSH1 0x0 MSTORE PUSH1 0x12 PUSH1 0x4 MSTORE PUSH1 0x24 PUSH1 0x0 REVERT JUMPDEST PUSH32 0x4E487B7100000000000000000000000000000000000000000000000000000000 PUSH1 0x0 MSTORE PUSH1 0x31 PUSH1 0x4 MSTORE PUSH1 0x24 PUSH1 0x0 REVERT JUMPDEST PUSH32 0x4E487B7100000000000000000000000000000000000000000000000000000000 PUSH1 0x0 MSTORE PUSH1 0x32 PUSH1 0x4 MSTORE PUSH1 0x24 PUSH1 0x0 REVERT JUMPDEST PUSH32 0x4E487B7100000000000000000000000000000000000000000000000000000000 PUSH1 0x0 MSTORE PUSH1 0x41 PUSH1 0x4 MSTORE PUSH1 0x24 PUSH1 0x0 REVERT JUMPDEST PUSH1 0x0 DUP1 REVERT JUMPDEST PUSH1 0x0 DUP1 REVERT JUMPDEST PUSH1 0x0 DUP1 REVERT JUMPDEST PUSH1 0x0 DUP1 REVERT JUMPDEST PUSH1 0x0 DUP1 REVERT JUMPDEST PUSH1 0x0 PUSH1 0x1F NOT PUSH1 0x1F DUP4 ADD AND SWAP1 POP SWAP2 SWAP1 POP JUMP JUMPDEST PUSH32 0x4F776E61626C653A206E6577206F776E657220697320746865207A65726F2061 PUSH1 0x0 DUP3 ADD MSTORE PUSH32 0x6464726573730000000000000000000000000000000000000000000000000000 PUSH1 0x20 DUP3 ADD MSTORE POP JUMP JUMPDEST PUSH32 0x4F776E61626C653A2063616C6C6572206973206E6F7420746865206F776E6572 PUSH1 0x0 DUP3 ADD MSTORE POP JUMP JUMPDEST PUSH2 0x2506 DUP2 PUSH2 0x21B8 JUMP JUMPDEST DUP2 EQ PUSH2 0x2511 JUMPI PUSH1 0x0 DUP1 REVERT JUMPDEST POP JUMP JUMPDEST PUSH2 0x251D DUP2 PUSH2 0x21CA JUMP JUMPDEST DUP2 EQ PUSH2 0x2528 JUMPI PUSH1 0x0 DUP1 REVERT JUMPDEST POP JUMP JUMPDEST PUSH2 0x2534 DUP2 PUSH2 0x21DC JUMP JUMPDEST DUP2 EQ PUSH2 0x253F JUMPI PUSH1 0x0 DUP1 REVERT JUMPDEST POP JUMP JUMPDEST PUSH2 0x254B DUP2 PUSH2 0x21EE JUMP JUMPDEST DUP2 EQ PUSH2 0x2556 JUMPI PUSH1 0x0 DUP1 REVERT JUMPDEST POP JUMP JUMPDEST PUSH2 0x2562 DUP2 PUSH2 0x2200 JUMP JUMPDEST DUP2 EQ PUSH2 0x256D JUMPI PUSH1 0x0 DUP1 REVERT JUMPDEST POP JUMP JUMPDEST PUSH2 0x2579 DUP2 PUSH2 0x2212 JUMP JUMPDEST DUP2 EQ PUSH2 0x2584 JUMPI PUSH1 0x0 DUP1 REVERT JUMPDEST POP JUMP JUMPDEST PUSH2 0x2590 DUP2 PUSH2 0x2224 JUMP JUMPDEST DUP2 EQ PUSH2 0x259B JUMPI PUSH1 0x0 DUP1 REVERT JUMPDEST POP JUMP JUMPDEST PUSH2 0x25A7 DUP2 PUSH2 0x225E JUMP JUMPDEST DUP2 EQ PUSH2 0x25B2 JUMPI PUSH1 0x0 DUP1 REVERT JUMPDEST POP JUMP JUMPDEST PUSH2 0x25BE DUP2 PUSH2 0x2268 JUMP JUMPDEST DUP2 EQ PUSH2 0x25C9 JUMPI PUSH1 0x0 DUP1 REVERT JUMPDEST POP JUMP INVALID LOG2 PUSH5 0x6970667358 0x22 SLT KECCAK256 SAR ADDRESS DUP9 0x4B CALL 0xE2 0x5F SDIV DUP11 SWAP13 SWAP4 0xCD DUP14 0xEC 0xB6 SWAP10 0xAD PUSH26 0xB0AE547CB9158BD4BF195372241264736F6C6343000807003300 "
				},
				"gasEstimates": {
					"creation": {
						"codeDepositCost": "1946000",
						"executionCost": "infinite",
						"totalCost": "infinite"
					},
					"external": {
						"addNFT(address,uint256)": "49437",
						"diamond()": "2644",
						"getNFTBalance(address)": "infinite",
						"getPancakePairBalance(address)": "infinite",
						"getQubeBalance(address)": "infinite",
						"getQubePresaleBalance(address)": "infinite",
						"getQubeStakeFactoryBalance(address)": "infinite",
						"gold()": "2710",
						"owner()": "2633",
						"pancakePair()": "2667",
						"qube()": "2668",
						"qubeBalance(address)": "infinite",
						"qubeBalanceWithNFT(address)": "infinite",
						"qubePresale()": "2646",
						"qubeStakeFactory()": "2667",
						"removeNFT(address,uint256)": "infinite",
						"renounceOwnership()": "30464",
						"setDiamond(address)": "27050",
						"setGold(address)": "27073",
						"setQube(address)": "27095",
						"setQubePancakePair(address)": "27094",
						"setQubePresale(address)": "27139",
						"setQubeStake(address)": "27073",
						"setSilver(address)": "27093",
						"silver()": "2646",
						"transferOwnership(address)": "30789",
						"userNFT(address)": "infinite"
					}
				},
				"methodIdentifiers": {
					"addNFT(address,uint256)": "4ea2813c",
					"diamond()": "f0b7db4e",
					"getNFTBalance(address)": "bf8ebd85",
					"getPancakePairBalance(address)": "42632ee0",
					"getQubeBalance(address)": "3445d381",
					"getQubePresaleBalance(address)": "1fb5d3c2",
					"getQubeStakeFactoryBalance(address)": "2540d8a7",
					"gold()": "fbec6f21",
					"owner()": "8da5cb5b",
					"pancakePair()": "b8c9d25c",
					"qube()": "6de5368b",
					"qubeBalance(address)": "0b75aa36",
					"qubeBalanceWithNFT(address)": "a7288c2e",
					"qubePresale()": "10a5806a",
					"qubeStakeFactory()": "84119666",
					"removeNFT(address,uint256)": "49fd566b",
					"renounceOwnership()": "715018a6",
					"setDiamond(address)": "76ed535a",
					"setGold(address)": "0520b708",
					"setQube(address)": "0651823e",
					"setQubePancakePair(address)": "8bb8c68f",
					"setQubePresale(address)": "0ed7b861",
					"setQubeStake(address)": "17d8b80c",
					"setSilver(address)": "f479ef22",
					"silver()": "0314214c",
					"transferOwnership(address)": "f2fde38b",
					"userNFT(address)": "00c2378f"
				}
			},
			"storageLayout": {
				"storage": [
					{
						"astId": 243,
						"contract": "Launchpad v2.0/QubeBalance.sol:QubeBalance",
						"label": "_owner",
						"offset": 0,
						"slot": "0",
						"type": "t_address"
					},
					{
						"astId": 909,
						"contract": "Launchpad v2.0/QubeBalance.sol:QubeBalance",
						"label": "qube",
						"offset": 0,
						"slot": "1",
						"type": "t_contract(IBEP20)105"
					},
					{
						"astId": 912,
						"contract": "Launchpad v2.0/QubeBalance.sol:QubeBalance",
						"label": "qubePresale",
						"offset": 0,
						"slot": "2",
						"type": "t_contract(QubePresale)1381"
					},
					{
						"astId": 915,
						"contract": "Launchpad v2.0/QubeBalance.sol:QubeBalance",
						"label": "pancakePair",
						"offset": 0,
						"slot": "3",
						"type": "t_contract(IPancakePair)581"
					},
					{
						"astId": 918,
						"contract": "Launchpad v2.0/QubeBalance.sol:QubeBalance",
						"label": "qubeStakeFactory",
						"offset": 0,
						"slot": "4",
						"type": "t_contract(QubeStakeFactory)1414"
					},
					{
						"astId": 921,
						"contract": "Launchpad v2.0/QubeBalance.sol:QubeBalance",
						"label": "silver",
						"offset": 0,
						"slot": "5",
						"type": "t_contract(IERC1155)234"
					},
					{
						"astId": 924,
						"contract": "Launchpad v2.0/QubeBalance.sol:QubeBalance",
						"label": "gold",
						"offset": 0,
						"slot": "6",
						"type": "t_contract(IERC1155)234"
					},
					{
						"astId": 927,
						"contract": "Launchpad v2.0/QubeBalance.sol:QubeBalance",
						"label": "diamond",
						"offset": 0,
						"slot": "7",
						"type": "t_contract(IERC1155)234"
					},
					{
						"astId": 932,
						"contract": "Launchpad v2.0/QubeBalance.sol:QubeBalance",
						"label": "userNFT",
						"offset": 0,
						"slot": "8",
						"type": "t_mapping(t_address,t_struct(userNFTData)903_storage)"
					}
				],
				"types": {
					"t_address": {
						"encoding": "inplace",
						"label": "address",
						"numberOfBytes": "20"
					},
					"t_array(t_uint256)dyn_storage": {
						"base": "t_uint256",
						"encoding": "dynamic_array",
						"label": "uint256[]",
						"numberOfBytes": "32"
					},
					"t_contract(IBEP20)105": {
						"encoding": "inplace",
						"label": "contract IBEP20",
						"numberOfBytes": "20"
					},
					"t_contract(IERC1155)234": {
						"encoding": "inplace",
						"label": "contract IERC1155",
						"numberOfBytes": "20"
					},
					"t_contract(IPancakePair)581": {
						"encoding": "inplace",
						"label": "contract IPancakePair",
						"numberOfBytes": "20"
					},
					"t_contract(QubePresale)1381": {
						"encoding": "inplace",
						"label": "contract QubePresale",
						"numberOfBytes": "20"
					},
					"t_contract(QubeStakeFactory)1414": {
						"encoding": "inplace",
						"label": "contract QubeStakeFactory",
						"numberOfBytes": "20"
					},
					"t_mapping(t_address,t_struct(userNFTData)903_storage)": {
						"encoding": "mapping",
						"key": "t_address",
						"label": "mapping(address => struct QubeBalance.userNFTData)",
						"numberOfBytes": "32",
						"value": "t_struct(userNFTData)903_storage"
					},
					"t_struct(userNFTData)903_storage": {
						"encoding": "inplace",
						"label": "struct QubeBalance.userNFTData",
						"members": [
							{
								"astId": 897,
								"contract": "Launchpad v2.0/QubeBalance.sol:QubeBalance",
								"label": "length",
								"offset": 0,
								"slot": "0",
								"type": "t_uint256"
							},
							{
								"astId": 900,
								"contract": "Launchpad v2.0/QubeBalance.sol:QubeBalance",
								"label": "IDs",
								"offset": 0,
								"slot": "1",
								"type": "t_array(t_uint256)dyn_storage"
							},
							{
								"astId": 902,
								"contract": "Launchpad v2.0/QubeBalance.sol:QubeBalance",
								"label": "rank",
								"offset": 0,
								"slot": "2",
								"type": "t_uint256"
							}
						],
						"numberOfBytes": "96"
					},
					"t_uint256": {
						"encoding": "inplace",
						"label": "uint256",
						"numberOfBytes": "32"
					}
				}
			},
			"userdoc": {
				"kind": "user",
				"methods": {},
				"version": 1
			}
		}
	}
}